:100000000C9425030C944D030C944D030C944D0358
:100010000C944D030C944D030C944D030C944D0320
:100020000C944D030C944D030C94AE1B0C941D1CAE
:100030000C944D030C944D030C944D030C944D0300
:100040000C944D030C944D030C944D030C944D03F0
:100050000C944D030C944D030C944D030C944F1EC3
:100060000C944D030C944D030C944D030C944D03D0
:100070000C944D030C944D030C944D030C944D03C0
:100080000C944D030C944D030C944D030C944D03B0
:100090000C94991E0C944D030C944D030C944D0339
:1000A0000C944D030C944D030C944D035245535046
:1000B0004F4E53452C436F6E6669672073617665BA
:1000C0006420696E746F20454550524F4D0D0A00F3
:1000D00000000000240027002A002D00300000004E
:1000E0000000250028002B002E003100080B000224
:1000F00002020000090400000102020000052400C1
:100100001001052401010104240206052406000152
:100110000705810310004009040100020A000000E5
:1001200007050202400000070583024000000403A7
:10013000090412010002EF0201408F0E0692000135
:1001400001020301556E6B6E6F776E00436C65762E
:1001500020536F66742050696E4F6E65000000007A
:10016000002300260029002C002F000404040404AE
:10017000030405020202020403020202020606064A
:1001800006060604040202020404040802011040E8
:1001900080401020408040800802040180402010F0
:1001A0000201108010204040200000000200090FD2
:1001B0000000030401000C0000000000000000002B
:1001C000000000000000000D0A002C004F555450A4
:1001D0005554532C00504C554E4745522C000D0A97
:1001E000002C002C002C00414343454C2C00454E74
:1001F00044204F4620444154410D0A002C002C005D
:100200002C002C002C002C002C002C002C002C008E
:100210002C002C002C00434F4E4649472C005245E1
:1002200053504F4E53452C5341564520434F4E4655
:10023000494720535543434553530D0A00524553F4
:10024000504F4E53452C6572726F72207265616417
:10025000696E6720616363656C65726F6D65746557
:1002600072446561645A6F6E650D0A0052455350C1
:100270004F4E53452C6572726F72207265616469CE
:100280006E6720616363656C65726F6D657465721E
:100290004D756C7469706C6965720D0A0052455336
:1002A000504F4E53452C6572726F722072656164B7
:1002B000696E6720616363656C65726F6D657465F7
:1002C000720D0A000D0A0044454255472C436F6EDB
:1002D0006669673A2073657474696E672061636349
:1002E000656C65726F6D6574657200524553504F51
:1002F0004E53452C6572726F722072656164696E2F
:1003000067206F7269656E746174696F6E0D0A00A3
:10031000524553504F4E53452C6572726F72207286
:10032000656164696E6720736F6C656E6F69644F99
:1003300075747075744D61700D0A00524553504FBD
:100340004E53452C6572726F722072656164696EDE
:100350006720736F6C656E6F6964427574746F6E3D
:100360004D61700D0A00524553504F4E53452C6558
:1003700072726F722072656164696E6720706C754D
:100380006E6765724D69640D0A00524553504F4EB9
:1003900053452C6572726F722072656164696E6775
:1003A00020706C756E6765724D696E0D0A0052455E
:1003B00053504F4E53452C6572726F7220726561B7
:1003C00064696E6720706C756E6765724D61780D3B
:1003D0000A00524553504F4E53452C6572726F724E
:1003E0002072656164696E67206D61784F75747005
:1003F000757454696D650D0A00524553504F4E5344
:10040000452C6572726F722072656164696E672037
:100410006D61784F757470757453746174650D0AED
:1004200000524553504F4E53452C6572726F7220E7
:1004300072656164696E67207475726E4F6666538B
:10044000746174650D0A00524553504F4E53452C4C
:100450006572726F722072656164696E6720746F75
:10046000795370656369616C4F7074696F6E0D0AC2
:1004700000524553504F4E53452C5341564520434F
:100480004F4E46494720535543434553530D0A00A9
:10049000524553504F4E53452C6572726F72207205
:1004A000656164696E6720706C756E6765724D6911
:1004B000640D0A000D0A0044454255472C706C75C6
:1004C0006E676572206D69642073657420746F00B7
:1004D000524553504F4E53452C6572726F722072C5
:1004E000656164696E6720706C756E6765724D69D1
:1004F0006E0D0A000D0A0044454255472C706C757C
:100500006E676572206D696E2073657420746F006C
:10051000524553504F4E53452C6572726F72207284
:10052000656164696E6720706C756E6765724D6198
:10053000780D0A000D0A0044454255472C706C7531
:100540006E676572206D61782073657420746F002A
:10055000524553504F4E53452C5341564520434F1F
:100560004E46494720535543434553530D0A0052C5
:100570004553504F4E53452C6572726F7220726511
:100580006164696E67206F7269656E746174696F0A
:100590006E0D0A00524553504F4E53452C657272F2
:1005A0006F722072656164696E6720616363656C58
:1005B00065726F6D65746572446561645A6F6E65CE
:1005C0000D0A00524553504F4E53452C6572726FC1
:1005D000722072656164696E6720616363656C6532
:1005E000726F6D657465724D756C7469706C696558
:1005F000720D0A0044454255472C43534420426F34
:1006000061726420436F6E6E65637465640D0A00E9
:100610000D0A002C00425554544F4E532C004445B3
:100620004255472C43534420426F61726420436F0C
:100630006E6E65637465640D0A00070605040100AB
:10064000080A0B0C0D09B81F572E11241FBECFEF3F
:10065000DAE0DEBFCDBF11E0A0E0B1E0E2E2F6E615
:1006600002C005900D92A63BB107D9F725E0A6EB95
:10067000B1E001C01D92AF3FB207E1F713E0C4E261
:10068000D3E004C02197FE010E94AD31C332D107EF
:10069000C9F70E941B230C9404330C9400000895A6
:1006A0000895EFE3F6E0E49190917B008E2F880FA0
:1006B000880F80729F7D892B80937B00E770E064B8
:1006C000E0937C0080917A00806480937A0080912E
:1006D0007A0086FDFCCF8091780090917900089592
:1006E000FC0180913302882311F13FB7F89482E036
:1006F0008093E9002091F200822F90E018161906ED
:1007000014F481E090E0882339F0289844E640937F
:1007100032024091F1004083222339F02091F2000F
:10072000211103C02BE62093E8003FBF08958FEF0F
:100730009FEF089540912A0250912B0220912802A8
:100740003091290242175307B4F49091E800957054
:10075000E1F39091E80092FD19C08093F10080913F
:100760002A0290912B0201968F739927892B19F4F5
:100770008EEF8093E80080912A0290912B020196DF
:1007800090932B0280932A0281E0089580E00895DF
:10079000EF92FF920F931F93CF93DF93F82E192FB1
:1007A000E62E042F81E0860F880F0E949A0383E0D3
:1007B0000E949A03CF2DD12FEC0EFD2EF11CCE15E9
:1007C000DF05B9F007FF13C0FE0184910E949A0370
:1007D000182F80E00E949A03812321968111EFCF88
:1007E000DF91CF911F910F91FF90EF900895888135
:1007F000EDCF81E0F5CFDF92EF92FF920F931F9341
:10080000CF93DF93D82E8A01EB017B01E40EF51E16
:10081000CE15DF0559F0D7FE12C0FE0184910E946B
:100820009A0321968111F4CF0FEF1FEFC801DF91DA
:10083000CF911F910F91FF90EF90DF9008958881E5
:10084000EECF2FB7F89487708093E9009091E8007D
:10085000892F807295FF04C09091F20080E4891B7B
:100860002FBF0895615030F02091F100FC012083EA
:100870000196F8CF289884E68093320208958091FB
:10088000200281110DC082E080931C0284E08093DD
:100890001D0210921F0210921E0281E0809320021E
:1008A0008CE192E008950F931F93CF93DF931F92F3
:1008B000CDB7DEB782E0898342E450E06CEE70E0B1
:1008C00080E80E94FB030E943F04DC0112960D9118
:1008D0001C910115110589F0D801ED91FC91028060
:1008E000F381E02DBE016F5F7F4FC801099597FD31
:1008F00004C0F80100851185ECCF89810F90DF914C
:10090000CF911F910F910895CF93DF931F92CDB791
:10091000DEB76983DC01ED91FC910280F381E02D6B
:1009200041E050E0BE016F5F7F4F09950F90DF916E
:10093000CF9108950F931F93CF93DF938C01D0E055
:10094000C0E0F801EC0FFD1F6491662341F08AEAD4
:1009500092E00E948404892B11F02196F2CFCE01FF
:10096000DF91CF911F910F91089583E08093E9006B
:100970008091F200882319F08AE38093E8000895BB
:1009800083E00E94210490E00895CF93DF931F92AB
:10099000CDB7DEB7FC018485958597FD08C02FEFA4
:1009A0003FEF358724870F90DF91CF910895CE01D7
:1009B00001960E947003019719F4898190E0F3CFAA
:1009C0008FEF9FEFF0CF0F931F93CF93DF931F9283
:1009D000CDB7DEB78C01FC018485958597FF0BC0F0
:1009E000CE0101960E947003019771F4898190E015
:1009F000F80195878487F801848595850F90DF91AC
:100A0000CF911F910F9108958FEF9FEFF1CFFC01D0
:100A10008485958597FD0BC09FB7F89482E08093FD
:100A2000E9008091F2009FBF90E0019608959FB782
:100A3000F89482E08093E9008091F2009FBF90E0FB
:100A4000089581508F3008F047C0E82FF0E0E55D51
:100A5000FA4F0C94AD3148054C053A054005440564
:100A60006C056C056C054F05550559055D0563055D
:100A70006C056705809180008F77809380000895D2
:100A8000809180008F7DF9CF80918000877FF5CFA6
:100A900084B58F7784BD089584B58F7DFBCF809119
:100AA00090008F77809390000895809190008F7DC3
:100AB000F9CF80919000877FF5CF8091C0008F772C
:100AC0008093C00008958091C0008F7DF9CF809100
:100AD000C200877F8093C20008951F93CF93DF9356
:100AE000282F30E0F901E755FE4F8491F901E657D0
:100AF000FE4FD491F901E559FE4FC491CC23A9F0E2
:100B0000162F81110E942105EC2FF0E0EE0FFF1F40
:100B1000E252FF4FA591B4918FB7F894EC91111167
:100B200008C0D095DE23DC938FBFDF91CF911F915A
:100B30000895DE2BF8CFCF93DF9390E0FC01E657CA
:100B4000FE4F249185599E4FFC0184918823C9F062
:100B500090E0880F991FFC01E053FF4FA591B491DD
:100B6000FC01E252FF4FC591D49161110DC09FB7B6
:100B7000F8948C91209582238C9388812823288354
:100B80009FBFDF91CF910895623051F49FB7F894E1
:100B90003C91822F809583238C93E8812E2BEFCF7D
:100BA0008FB7F894EC912E2B2C938FBFEACF823025
:100BB000910538F0880F991F880F991F05970197A5
:100BC000F1F708953FB7F8948091180290911902B7
:100BD000A0911A02B0911B0226B5A89B05C02F3F19
:100BE00019F00196A11DB11D3FBFBA2FA92F982F53
:100BF0008827BC01CD01620F711D811D911D42E04E
:100C0000660F771F881F991F4A95D1F708958F9215
:100C10009F92AF92BF92CF92DF92EF92FF924B01E1
:100C20005C010E94E2056B017C010E94E2056C19E7
:100C30007D098E099F09683E734081059105A8F3DF
:100C400021E0821A9108A108B10888EEC80E83E05D
:100C5000D81EE11CF11C81149104A104B10429F7F0
:100C6000FF90EF90DF90CF90BF90AF909F908F90CC
:100C700008957F928F929F92AF92BF92CF92DF9210
:100C8000EF92FF920F931F93CF93DF93C82E8B01A8
:100C90007A0180913302811110C08FEF9FEFDF91B5
:100CA000CF911F910F91FF90EF90DF90CF90BF9069
:100CB000AF909F908F907F90089580912E0280FF3B
:100CC00005C08091E00082608093E000CE2DDF2D92
:100CD000D12C8AEFB82E8C2D8770982E8C2D807297
:100CE000882E8C2D8074782E9AE3A92E209719F4E3
:100CF000DD2009F452C08C2D0E94210481110AC00C
:100D0000BA94BB2051F261E070E080E090E00E9474
:100D10000706ECCF8C171D0611F00CF08C2F9FB737
:100D2000F8949092E9002091E80025FD02C09FBF51
:100D3000DDCF282F30E0C21BD30B882029F0815053
:100D4000A0F01092F100FBCFF801C7FC0AC081505F
:100D500050F041914093F100FACF44914093F1005B
:100D600031968150D0F7020F131FDD2021F0A092A1
:100D7000E800D12CDCCF8091E80085FD07C0A0926F
:100D8000E800DD24D394209791F2F3CF209779F6F1
:100D9000772069F2A092E800CACF5D9884E680933C
:100DA0002D02C7017CCFCF93DF93EC01809112011C
:100DB000882331F083E00E9439061816190634F0B2
:100DC00081E090E09B838A8380E090E0DF91CF9187
:100DD00008952FB7F89460911402709115028091D4
:100DE0001602909117022FBF0895FC0183858F3F53
:100DF00019F061E00C946D050895FC0180819181EA
:100E0000892B39F0A281B3819C9111968C919CBD64
:100E10008DBD83858F3F19F060E00C946D050895BA
:100E2000AF92BF92CF92DF92EF92FF920F931F93F8
:100E3000CF93DF93EC0188819981892B89F06EBD76
:100E40000DB407FEFDCFBEB48B2DDF91CF911F9166
:100E50000F91FF90EF90DF90CF90BF90AF900895EB
:100E60008885998511E0892B09F010E8AA24A394BC
:100E7000862F812309F0A12C062F2C813D814E81E4
:100E80005F8160E271EA87E090E00E94CD2EF22E51
:100E9000B02EE12CC22ED12CFF2019F0C6010E94E9
:100EA000D7058A85877F09F042C08D858F3F89F0FD
:100EB000902F912381E009F480E08A1551F0EF85AD
:100EC000F8898F89992369F19081892B8083AA24DD
:100ED000A394E989FA898081998D892B8083FF20E9
:100EE00019F0C6010E94D7058E858F3F39F0EB8936
:100EF000FC898081988D892309F0E12AE989FA89A2
:100F00009081898D8095892380838E858F3F09F01C
:100F1000BE2C88859985892BB9F5110F1111BCCF8D
:100F200093CF9081809589238083A12CD2CFE989AA
:100F3000FA898081998D892B8083FF2019F0C60161
:100F40000E94D7058D858F3F49F0EF85F8898F89FD
:100F5000902F9123A9F09081892B8083E989FA89C8
:100F60009081898D8095892380838E858F3F69F25A
:100F7000EB89FC898081988D892339F2E12AC5CFDC
:100F8000908180958923E9CF1695C8CF8F929F9243
:100F9000AF92BF92CF92DF92EF92FF920F931F9387
:100FA000CF93DF937C014B016A01B22EA32E0E94E6
:100FB000FD06E401C80CD91CCC15DD0569F4CB2D68
:100FC000DA2D0C0F1D1FC017D10759F06FEFC701A5
:100FD0000E9410078993F7CF6991C7010E941007FB
:100FE000EBCFC7010E94F50681E0DF91CF911F9101
:100FF0000F91FF90EF90DF90CF90BF90AF909F90B8
:101000008F9008958F929F92AF92BF92CF92DF926E
:10101000EF92FF920F931F93CF93DF937C01B62E35
:10102000A72E6A0149010E94FD06E401080D191D61
:10103000C017D10761F4CB2DDA2DCC0EDD1ECC15F7
:10104000DD0551F06991C7010E941007F8CF699141
:10105000C7010E941007ECCFC7010E94F50681E08E
:10106000DF91CF911F910F91FF90EF90DF90CF9084
:10107000BF90AF909F908F9008950895089520910C
:10108000F001260F3327331F21323105ECF4209174
:101090008002FC0190E080E0243069F082E0089555
:1010A000A091F0012191AC0140535E4FA40FB52FE8
:1010B000B11D2C930196861798F38091F001680F6B
:1010C0006093F00180E0089581E00895109280021D
:1010D00081E080937F0210925A0261E082E00E94D8
:1010E0006D0561E083E00E946D05E9EBF0E0808131
:1010F0008E7F808380818D7F808388E48093B80099
:1011000085E48093BC000895109239021092380251
:10111000109287021092A9020E9466088FE493E061
:10112000909337028093360280E593E090933502E6
:10113000809334020895CF93DF9391E09093CF0191
:101140008823B9F0C091B800D091BA008091BC005A
:101150008A7B8093BC0060E082E00E946D0560E0C5
:1011600083E00E946D050E946608D093BA00C09388
:10117000B800DF91CF9108958F929F92AF92BF9266
:10118000CF92DF92EF92FF920F931F93CF93DF9353
:10119000D091A902D13208F0D7C0182FC091A8026F
:1011A0000E94E2056B017C018091800281116BC07D
:1011B00082E08093800210937F028FEF80937E0203
:1011C00010927D02D0937C02A8E8B2E0ECE5F2E058
:1011D00080E0D81391C010925B0280915B02CC0F2B
:1011E000C82BC0935B0280915A02813009F088C0FD
:1011F00010925A020E94E2056B017C0180915B0211
:101200008093BB008091820290918302A09184021E
:10121000B0918502892B8A2B8B2BA1F00E94E205CD
:101220000091820210918302209184023091850204
:101230006C197D098E099F090617170728073907BA
:1012400008F442C08091BC0083FDD8CF85EC809328
:10125000BC000E94E2056B017C018091800282301B
:1012600009F450C080917E028F3F09F46FC08091D5
:101270007E02803209F46CC080917E02803309F4D2
:1012800069C084E026C08091820290918302A0917F
:101290008402B0918502892B8A2B8B2B09F484CF91
:1012A0000E94E2058090820290908302A0908402C6
:1012B000B09085026C197D098E099F0986169706E4
:1012C000A806B90608F070CF809181020E949B08A1
:1012D00085E0109287021092A90210928602DF9197
:1012E000CF911F910F91FF90EF90DF90CF90BF9023
:1012F000AF909F908F9008959D9191938F5F69CF4C
:1013000085EEA5CF8091820290918302A091840204
:10131000B0918502892B8A2B8B2B09F49ECF0E94DA
:10132000E2050091820210918302209184023091A3
:1013300085026C197D098E099F0906171707280772
:10134000390708F08ACFC0CF81E0C3CF80E0C1CF9A
:1013500082E0BFCF83E0BDCF1F93CF93DF93EA013D
:10136000122FDC0111968D919C91DC01ED91FC9185
:101370000280F381E02D0995C817D90729F4812F40
:101380000E94BC0891E0811190E0892FDF91CF91FC
:101390001F910895AF92BF92CF92DF92EF92FF928A
:1013A0000F931F93CF93DF9300D0CDB7DEB7DC014F
:1013B000211103C018962C911897253008F043C0CE
:1013C0001F964D935D936D937C93529790E080E0D0
:1013D000E22EF12C8E159F05B4F41A962C911A97D3
:1013E00021110AC0FD01E80FF91F4387452F562F31
:1013F000672F77270196EECFF701E81BF90BEA0F6D
:10140000FB1F4287F3CF6D018BE0C80ED11C1696EF
:101410009C91169717968C91179799838A83AD9014
:10142000BC901197A114B10409F441C019960C9114
:1014300010E098012E0D3F1DD50114968D919C91C1
:101440008217930710F480E016C0F5018181928124
:10145000208131E0309386022093A8021092870207
:101460001092A9020115110599F421E0A701B60116
:10147000C5010E94AC090F900F90DF91CF911F9191
:101480000F91FF90EF90DF90CF90BF90AF900895B5
:10149000DC01ED91FC910280F381E02DA801BE01F9
:1014A0006F5F7F4F09950817190769F6DECF12960F
:1014B000ED91FC911397309731F214962D913C9158
:1014C000159719960C9110E02330310571F48E7F39
:1014D00089839A830F5F1F4F9E012F5F3F4FA701A4
:1014E000B601CF010E940208C6CF2115310519F4BB
:1014F0009F779983F1CF2230310511F49068F9CFAD
:101500002130310549F79F779064F3CFCF93DF9374
:10151000EC018B818823A1F0888191E09093860271
:101520008093A802109287021092A90281E00E9483
:10153000BC0891E0811190E0892FDF91CF9108954F
:101540000E94840881E08B83CE010E94860A982F36
:101550008111E2CFF1CF8F929F92AF92BF92CF9243
:10156000DF92EF92FF920F931F93CF93DF93D82FC9
:10157000C62F142F613208F09CC00E94E2056B0157
:101580007C018091800281116FC081E08093800294
:1015900010937F029FEF90937E0210927D029C0F2A
:1015A00090937C0280935B0280915B02DD0FD82BCD
:1015B000D0935B0280915A02813009F07CC0109276
:1015C0005A020E94E2056B017C0180915B028093CC
:1015D000BB008091820290918302A0918402B0911D
:1015E0008502892B8A2B8B2BA1F00E94E2050091AA
:1015F00082021091830220918402309185026C193D
:101600007D098E099F09061717072807390708F46F
:101610004CC08091BC0083FDD8CF85EC8093BC008A
:101620000E94E2056B017C0180918002813009F407
:1016300044C080917D028C1710F4C0917D02ECE5CE
:10164000F2E0AAE3B2E080E08C1359C08C2FDF9166
:10165000CF911F910F91FF90EF90DF90CF90BF90AF
:10166000AF909F908F900895809182029091830215
:10167000A0918402B0918502892B8A2B8B2B09F4CF
:1016800080CF0E94E2058090820290908302A09019
:101690008402B09085026C197D098E099F09861617
:1016A0009706A806B90608F06CCF809181020E94C7
:1016B0009B08C0E0CBCF85EEB1CF809182029091A4
:1016C0008302A0918402B0918502892B8A2B8B2BF7
:1016D00009F4AACF0E94E2050091820210918302D0
:1016E00020918402309185026C197D098E099F0931
:1016F000061717072807390708F096CFD6CF91911C
:101700009D938F5FA1CF0895E091390280913802B7
:10171000E81730F4F0E0E65CFD4F808190E008953A
:101720008FEF9FEF089590913902809138022FEF4B
:101730003FEF981748F4E92FF0E0E65CFD4F208179
:1017400030E09F5F90933902C9010895809138027B
:1017500090913902891B990B0895CF92DF92EF92F5
:10176000FF920F931F93CF93DF937C01CB018A01EC
:1017700020918602222389F0EB016B01C40ED51E55
:10178000CC15DD0569F06991D701ED91FC910190CF
:10179000F081E02DC7010995F3CF642F0E943F0827
:1017A000C801DF91CF911F910F91FF90EF90DF90D3
:1017B000CF900895CF93DF931F92CDB7DEB76983A3
:1017C000209186022223F9F02091A902203258F0BC
:1017D00021E030E0FC013383228390E080E00F9031
:1017E000DF91CF91089580918702E82FF0E0E857CC
:1017F000FD4F998190838F5F809387028093A90228
:1018000081E090E0ECCF61E0CE0101960E943F08BC
:10181000F7CF90E080E008951F93CF93DF93EC0122
:10182000142F89819A81288131E030938602209398
:10183000A802109287021092A902DC01ED91FC919E
:101840000190F081E02D099589819A81DC01ED916B
:10185000FC910190F081E02D612F099581E0DF91ED
:10186000CF911F910C94BC08DC01ED91FC9101908B
:10187000F081E02D0994EF92FF920F931F93CF9385
:10188000DF93EC01E42E052FF22E132F89819A812C
:10189000288131E0309386022093A80210928702BB
:1018A0001092A90224E0629FB00111246A5F7F4F69
:1018B000DC01ED91FC910190F081E02D09956E2DF8
:1018C000702F89819A810E94340C602F70E0898189
:1018D0009A810E94340C6F2D712F89819A810E9408
:1018E000340C612F70E089819A810E94340C81E070
:1018F000DF91CF911F910F91FF90EF900C94BC0856
:101900009A01803130F4AB01682F8CEA95E00C9499
:101910003B0C90EF980F903128F4AB01692F85EACA
:1019200095E0F5CF8052803128F4AB01682F8EE925
:1019300095E0EDCF0895DC01FB0112962C911297F2
:10194000848195812817190641F491818081813A1B
:1019500031F49D7F81E0913009F080E0089581327B
:10196000E1F79B3029F482811F968C9381E00895E2
:101970009A3099F7828150968C93F8CFDC01FB0165
:1019800088E4808389E4818384E482831D969C912A
:101990001D979F709F5B93831D968D919C9124E072
:1019A000969587952A95E1F78F708F5B848385E004
:1019B0000895EF92FF920F931F93CF93DF93FB0154
:1019C0002081213889F52381223271F5DC011296BC
:1019D0004C91248135814217130631F58C01FC01AD
:1019E000C385D485F12CE12C209791F04C815D8149
:1019F0006A817B818E81811180E80E94FB038F3F89
:101A0000980759F0E80EF91E0990D881C02DECCF47
:101A100081E0D8011F968C93C701DF91CF911F9170
:101A20000F91FF90EF90089590E080E0F6CFCF9374
:101A3000DF93CDB7DEB769970FB6F894DEBF0FBE60
:101A4000CDBFFC01DB018C918F5F8C939E012D5FDC
:101A50003F4F8DE0D9011D928A95E9F729E029834E
:101A600084E08A8391E09D8383E08E832A8721E24C
:101A70002B879C879D879F8722E2288B27E02B8BD3
:101A800025E02C8B8E8B20E430E0388F2F8B998FC4
:101A900082818B8395858685998B8A8B83818068EB
:101AA0008D8B49E150E0BE016F5F7F4F80E00E9467
:101AB000FB0369960FB6F894DEBF0FBECDBFDF9172
:101AC000CF910895CF93DF938091C701811167C0B3
:101AD00081E08093BA018093BB0120EC31E0309328
:101AE000BD012093BC011092BF011092BE012CE2F7
:101AF00031E03093B7012093B6011092C2011092E9
:101B0000C1011092C4011092C3018093C50180935A
:101B1000C60181EC8093C0010E943F04FC018181D9
:101B20009091BA01482F490F5527551F483051054C
:101B30009CF5A281B381109709F526EB31E0338340
:101B4000228320812093B8018093B9018091BB0149
:101B5000820F80832091BC01A22FB091BD018A2FFA
:101B6000821B8917C8F481813D91C82FD0E0C050F5
:101B7000DF4F38838F5F8183F2CFD90118962D9183
:101B80003C91199721153105C1F726EB31E01996E3
:101B90003C932E931897D5CF81E08093C70186EBB5
:101BA00091E0DF91CF9108954F925F926F927F9273
:101BB0008F929F92AF92BF92CF92DF92EF92FF925D
:101BC0000F931F93CF93DF93CDB7DEB72C970FB64C
:101BD000F894DEBF0FBECDBFEA14FB040C051D0553
:101BE0000CF07FC027013801A982BA82CB82DC8247
:101BF00090E080E0662309F45DC02D833E834F832F
:101C000058872D813E814F8158852415350546051D
:101C1000570524F44D825E826F82788689819A818D
:101C2000AB81BC8189879A87AB87BC872D813E8138
:101C30004F815885281739074A075B0724F42987FD
:101C40003A874B875C87AE14BF04C006D106B4F454
:101C500049815A816B817C8189859A85AB85BC8558
:101C6000481B590B6A0B7B0BDB01CA01840D951DC8
:101C7000A61DB71D89879A87AB87BC8729853A85BA
:101C80004B855C852419350946095709AFEFBFEF2D
:101C90000E94C22E29813A814B815C812419350929
:101CA000460957090E94A32ED4012C9311963C9308
:101CB00082E090E02C960FB6F894DEBF0FBECDBF49
:101CC000DF91CF911F910F91FF90EF90DF90CF9018
:101CD000BF90AF909F908F907F906F905F904F904C
:101CE000089525013601E982FA820B831C8380CF97
:101CF0000F931F93CF93DF93FC01962FC42F208166
:101D0000318170E08901060F171FA80142585F4F0B
:101D1000DA014C91442319F04C1708F4C42F2E5EBD
:101D20003E4FD9018C91E60FF71F8823C1F0D801EF
:101D30008C9180FF14C0138ADF01AE5ABF4F1C92F2
:101D40009F3008F4CCC040E050E170E060E081EFEB
:101D5000890FDF91CF911F910F910C94800CC38B51
:101D6000CC2351F39F3008F0AAC0953008F0A1C0F1
:101D70000C2F10E0D48161E08D2F0E949B050F3F56
:101D8000110511F461E08EC0ED2FF0E0E755FE4F34
:101D9000E491E150EF3008F080C0F0E0EE52F14FF6
:101DA0000C94AD31E10EEA0EEF0EF90E030F4D0F5C
:101DB0004D0F4D0F0D0F170F210F2B0F380F4D0F1C
:101DC000400F84B5806884BDC7BDDF91CF911F915E
:101DD0000F91089584B5806284BDC8BDF6CF80910F
:101DE00080008068809380001093890000938800B1
:101DF000ECCF8091800080628093800010938B00F4
:101E000000938A00E2CF80918000886080938000F8
:101E100010938D0000938C00D8CF80919000806843
:101E2000809390001093990000939800CECF8091FA
:101E3000900080628093900010939B0000939A0022
:101E4000C4CF8091900088608093900010939D0093
:101E500000939C00BACF8091C00080688093C0003E
:101E60008091C0008F7B8093C000C093CF00ADCF26
:101E70008091C00080628093C000C093D000A5CF45
:101E80008091C20088608093C2008091C2008B7FE5
:101E90008093C200C093D20098CF003811050CF097
:101EA00071CF60E08D2FDF91CF911F910F910C9436
:101EB0006D05848161E0C7FDF6CF60E0F4CF81EF6E
:101EC000890F50E040E060E070E1CF3F09F441CF7E
:101ED000B0E1CB9FA001112461E070E03ACFC0E0F7
:101EE000953038F7C48161E08C2F0E949B0560E03B
:101EF0008C2FD9CF8F929F92AF92BF92CF92DF92C9
:101F0000EF92FF92CF93DF93EC010E94E9064B0121
:101F10005C010E94E9066B017C01C818D908EA0837
:101F2000FB0888E8C81683E1D806E104F1040CF543
:101F30008AEA92E00E940705181619067CF48AEADC
:101F400092E00E94C504DF91CF91FF90EF90DF9067
:101F5000CF90BF90AF909F908F9008950E94E90618
:101F60006B017C0162E370E080E090E00E94070674
:101F7000D4CFCF5EDE4F81E0888380E0E4CFFC01E8
:101F800001900020E9F73197AF01481B590BBC01C4
:101F90008AEA92E00C94D3068F929F92AF92BF92FE
:101FA0000F931F93CF93DF93CDB7DEB7A1970FB6F3
:101FB000F894DEBF0FBECDBF19A2423008F44AE04C
:101FC0008E010F5D1F4F842E912CB12CA12CA501E9
:101FD00094010E94CD2EE62FB901CA01EA30F4F433
:101FE000E05DD801EE938D01232B242B252B79F76F
:101FF00090E080E0109719F0CD010E94BF0FA196EC
:102000000FB6F894DEBF0FBECDBFDF91CF911F9109
:102010000F91BF90AF909F908F900895E95CE1CFB2
:10202000CF92DF92EF92FF92CF93DF936C01990FE3
:10203000EE08FF08F7FE19C06DE28AEA92E00E94FE
:102040008404EC0166277727CB016C197D098E0982
:102050009F094AE00E94CC0F8C0F9D1FDF91CF910A
:10206000FF90EF90DF90CF9008954AE0C701B6014E
:10207000DF91CF91FF90EF90DF90CF900C94CC0F39
:102080004F925F926F927F928F929F92AF92BF9288
:10209000CF92DF92EF92FF920F931F93CF936B013A
:1020A0007C01742EAC019B010E949431882399F02D
:1020B00088E891E0CF911F910F91FF90EF90DF9012
:1020C000CF90BF90AF909F908F907F906F905F90D8
:1020D0004F900C94BF0F46015701E894B7F82FEFCB
:1020E0003FEF4FE75FE7C501B4010E9494318111D2
:1020F0000DC02FEF3FEF4FE75FE7C501B4010E942E
:102100006B2F18161CF48CE891E0D4CF2FEF3FEF23
:102110004FE75FE4C701B6010E94223118161CF494
:1021200080E991E0C7CF2FEF3FEF4FE75FECC701AA
:10213000B6010E946B2F87FDF3CF20E030E0A901AC
:10214000C701B6010E946B2F10E000E087FF0AC0B4
:102150006DE28AEA92E00E9484048C01F7FAF0941E
:10216000F7F8F094C0E060E070E080E09FE37C1658
:1021700041F020E030E040E251E40E94702FCF5F58
:10218000F6CFA70196010E94FF2E2B013C010E9471
:10219000E92F4B015C014AE00E94CC0F7C01E00E6C
:1021A000F11ECC23C1F1C501B4010E9418309B017E
:1021B000AC01C301B2010E94FE2E4B015C016EE234
:1021C0008AEA92E00E948404E80EF91EC15018F1D8
:1021D00020E030E040E251E4C501B4010E94273123
:1021E0002B013C010E94E92F4B01B12CA12C4AE0AC
:1021F000C501B4010E94CC0FE80EF91EC501B4015F
:102200000E9418309B01AC01C301B2010E94FE2E56
:102210004B015C01DBCFC701CF911F910F91FF9064
:10222000EF90DF90CF90BF90AF909F908F907F9076
:102230006F905F904F900895682F70E090E080E07D
:102240004AE00C94CC0F3F924F925F926F927F9234
:102250008F929F92AF92BF92CF92DF92EF92FF92B6
:102260000F931F93CF93DF9300D0CDB7DEB7FC0160
:102270004B01042F9681878199838A83C080D18006
:10228000C114D10409F479C0418550E0D6011496F7
:102290008D919C9184179507B0F4312C832D0F906C
:1022A0000F90DF91CF911F910F91FF90EF90DF90F2
:1022B000CF90BF90AF909F908F907F906F905F90E6
:1022C0004F903F900895F601808191E090938602AF
:1022D0008093A802109287021092A90220E0BE010A
:1022E0006F5F7F4FC6010E94AC09382E8823A9F288
:1022F00010E0B12CA12CA016B10680F6D6011496E0
:102300008D919C917801EA18FB088E159F0508F4C1
:102310007C0141E0C8018E199F09A816B90608F48E
:1023200040E06E2D613208F060E2F60180810E948B
:10233000AB0A10923902809338028E151F0409F0FF
:10234000ACCF34016A0C7B1C2301C20186199709AA
:102350008E159F0578F4D60111968D919C91DC0124
:10236000ED91FC910284F385E02D0995F2018193B2
:102370002F01EBCFAE0CBF1CBECFA281B381109753
:1023800009F48BCF2481358110E0418550E0233062
:10239000310571F4816089839A834F5F5F4F9401A7
:1023A000BE016F5F7F4FCD010E94C607382E76CFEA
:1023B0002115310519F490689983F1CF2230310548
:1023C00011F49F77F9CF2130310549F7906CF4CFA4
:1023D000CF93DF93EC01BC01655F7F4F48850E947E
:1023E0002311882301F1488550E030E020E060E0CF
:1023F00070E0CB0124173507CCF4982F872F762F68
:102400006627EA85E1110AC0FA01E21BF30BEC0F23
:10241000FD1FE2856E2B2F5F3F4FECCFFE01E20FD9
:10242000F31FE385F7CF6FEF7FEFCB01DF91CF9104
:1024300008958F929F92AF92BF92CF92DF92EF92C8
:10244000FF920F931F93CF93DF93EC014A015B013F
:10245000888199810E94E8112A8101E010E002C080
:10246000000F111F2A95E2F701501109012E000CEF
:10247000220B330BAB81680179010A2E04C0CC0C0E
:10248000DD1CEE1CFF1C0A94D2F7C094D094E0949B
:10249000F094C622D722E822F922E881F981B90115
:1024A000A801482159216A217B2104C0440F551FEE
:1024B000661F771FAA95D2F74C295D296E297F29BF
:1024C0002085CF01DF91CF911F910F91FF90EF9069
:1024D000DF90CF90BF90AF909F908F900C94CA09DF
:1024E0000F931F93CF93DF93EC01888199810E9412
:1024F000E811AB01BC012A8181E090E002C0880FA5
:10250000991F2A95E2F70197092E000CAA0BBB0B25
:102510002B8104C076956795579547952A95D2F7F4
:102520008C019D010423152326233723C901B801FB
:10253000DF91CF911F910F9108959F92AF92BF921B
:10254000CF92DF92EF92FF920F931F93CF93DF937F
:10255000CDB7DEB7AA970FB6F894DEBF0FBECDBFDA
:102560008C01DC0197965C934E939697CA01019675
:1025700099969C938E9398974E5F5F4F9B965C9332
:102580004E939A975E962D913C911BA21CA21DA280
:102590001EA23D8B2C8B1F8A1E8A81E08D8F4BE6FD
:1025A00050E05B8F4A8F1E8E8C8F188A198A1A8A88
:1025B0001B8A3A8329831C821B828A8728E630E0A3
:1025C00038872F831B8689875E01B4E1AB0EB11C6F
:1025D000B8A6AFA289A787E08AA741E050E060E0F3
:1025E00070E0CE0187960E941912CE0187960E9454
:1025F0007012613071058105910539F461E070E078
:1026000080E090E00E940706F0CF64E670E080E092
:1026100090E00E94070620E047E050E060E070E0B4
:10262000FE0131966F01CF010E94CA0964E670E095
:1026300080E090E00E940706D8015E968D919C9103
:10264000188A198A1A8A1B8A9A8389831C821B8298
:10265000FF24F394FA8689E190E098878F831B86A4
:10266000F98620E040E050E0BA01C6010E94CA09A4
:10267000F801868D978D188A198A1A8A1B8A9A837F
:1026800089831C821B82FA868AE190E098878F8377
:102690001B86F986DD8ACC8A83E0E82EEE8A1F8AC3
:1026A00040E050E0BA01C5010E941912D8015E96BF
:1026B0008D919C91188A198A1A8A1B8A9A83898318
:1026C0001C821B82FA868BE190E098878F831B86A1
:1026D000F986DD8ACC8A92E0992E9E8AEF8A41E0C3
:1026E00050E060E070E0C5010E941912F801868D8B
:1026F000978D188A198A1A8A1B8A9A8389831C8261
:102700001B82FA868CE190E098878F831B86F9867E
:10271000DD8ACC8A9E8AEF8A40E050E0BA01C5018A
:102720000E941912D8015E968D919C91188A198A7F
:102730001A8A1B8A9A8389831C821B82FA868BE6FB
:1027400090E098878F831B86F98620E041E050E077
:1027500060E070E0C6010E94CA0964E670E080E0B3
:1027600090E00E940706F80180A191A1009739F03E
:10277000DC01ED91FC910280F381E02D0995F801D7
:1027800082A193A1009739F0DC01ED91FC910280C8
:10279000F381E02D0995F80184A195A1009739F006
:1027A000DC01ED91FC910280F381E02D099587E039
:1027B00090E00E94C731FC0184E591E09183808321
:1027C00080E596E09483838316830583D8019196F0
:1027D000FC93EE93909787E090E00E94C731FC0154
:1027E00086E491E09183808381E596E094838383FE
:1027F00016830583D8019396FC93EE93929787E016
:1028000090E00E94C731FC0188E391E091838083CE
:1028100082E596E09483838316830583D801959699
:10282000FC93EE93949781E0AA960FB6F894DEBFDE
:102830000FBECDBFDF91CF911F910F91FF90EF9011
:10284000DF90CF90BF90AF909F900895AF92BF92CE
:10285000CF92DF92EF92FF920F931F93CF93DF936C
:10286000CDB7DEB7E8970FB6F894DEBF0FBECDBF89
:102870008C01FC01868D978D1BA21CA21DA21EA29D
:102880009D8B8C8B1F8A1E8AFF24F394FD8E8BE315
:1028900090E09B8F8A8F1E8E8EE08C8F4EE0BE0163
:1028A000695D7F4FCE0144960E9423118FA198A5A8
:1028B000982789279827F80195A784A789A59AA51D
:1028C00098278927982797A786A78BA59CA598273F
:1028D0008927982791AB80AB6DA57EA576276727C2
:1028E000762773AB62AB8FA598A99827892798277D
:1028F00095AB84AB89A99AA998278927982797AB84
:1029000086AB8BA99CA998278927982791AF80AF80
:10291000072E000C880B990B0E941A3020E030E043
:102920004AEA53E40E94702F28EB3EE142E152E470
:102930000E94FF2EF8016283738384839583868DC2
:10294000978D188A198A1A8A1B8A9A8389831C820E
:102950001B82FA868CE190E098878F831B86F9862C
:10296000CE0101965C019EAB8DAB82E08FAB83E024
:1029700088AFCE01C5960E947012C12CD12CE12CDB
:10298000E5E4FE2E63307105E1F06230710599F0E7
:102990006130710509F4D6C0C12CD12CF0E8EF2EBE
:1029A000FFE3FF2E672B69F4C12CD12C50E8E52EF4
:1029B00056E4F52E06C0C12CD12C70E8E72E75E444
:1029C000F72EF80164A575A5072E000C880B990B4E
:1029D0000E941A30A70196010E94702FF8016683A9
:1029E00077838087918766A577A5072E000C880BD3
:1029F000990B0E941A30A70196010E94702FF801CE
:102A0000628773878487958760A971A9072E000C58
:102A1000880B990B0E941A30A70196010E94702F13
:102A2000F80166877787808B918B868D978D188AC2
:102A3000198A1A8A1B8A9A8389831C821B8281E0E5
:102A40008A872BE130E038872F831B868987BEAACF
:102A5000ADAA82E08FAB83E088AFCE01C5960E941D
:102A60007012C12CD12C33E0E32E33E4F32E611528
:102A7000710519F1C12CD12C23E8E22E22E4F22EAB
:102A800061307105D1F093E3C92EDC2C93E0E92E7F
:102A900092E4F92E6230710581F0C12CD12C40E80E
:102AA000E42E4FE3F42E6330710539F483E3C82E2E
:102AB000DC2C83E8E82E81E4F82EF80164A975A9DE
:102AC000072E000C880B990B0E941A30A701960163
:102AD0000E94702FF801628B738B848B958B66A993
:102AE00077A9072E000C880B990B0E941A30A701BA
:102AF00096010E94702FF801668B778B808F918FE3
:102B000060AD71AD072E000C880B990B0E941A3036
:102B1000A70196010E94702FF801628F738F848F36
:102B2000958FE8960FB6F894DEBF0FBECDBFDF914C
:102B3000CF911F910F91FF90EF90DF90CF90BF90BA
:102B4000AF900895C12CD12CE12C66E4F62E39CF3C
:102B50008F929F92AF92BF92CF92DF92EF92FF92AD
:102B60001F93CF93DF93EC016A017B0120E030E0FB
:102B700040E85FE3CB01B6010E946B2F87FDA3C045
:102B800020E030EC4AE555E4C701B6010E9422314D
:102B900018163CF4C12C30ECD32E3AE5E32E35E484
:102BA000F32E6B817C818D819E810E9418304B01B8
:102BB0005C0120E030E040E855E4C701B6010E9426
:102BC00027319B01AC01C501B4010E94702F20E0A8
:102BD00030E040E05FE30E94FF2E20E030E040E87C
:102BE0005FE30E94FE2E6B017C0120E030E040E4B8
:102BF00050E40E946B2F87FD6DC020E030E04FE76E
:102C000053E4C701B6010E942231181634F4C12CD6
:102C1000D12C9FE7E92E93E4F92E89819A812881AE
:102C200031E0309386022093A8021092870210921E
:102C3000A902DC01ED91FC910190F081E02D60E0B2
:102C4000099581E00E94BC0841E061E088810E9412
:102C5000AB0A109239028093380289819A81DC0193
:102C6000ED91FC910284F385E02D0995182F482FF2
:102C70004F76406160E0CE010E940C0CC701B601A6
:102C80000E94E92F462F6EEFCE010E940C0C412FBF
:102C900060E0CE010E940C0C65E070E080E090E006
:102CA0000E940706412F406A60E0CE01DF91CF917C
:102CB0001F91FF90EF90DF90CF90BF90AF909F90CB
:102CC0008F900C940C0CC12CD12C20E8E22E2FE319
:102CD000F22E67CFC12CD12C80E4E82EFE2C9DCFA4
:102CE000CF93DF93EC010E94840840E860E0CE01BE
:102CF0000E940C0C6AE070E080E090E00E94070601
:102D000040E050E06AE774E4CE010E94A81580E438
:102D100098E7ADE7B1E08B839C83AD83BE83DF9101
:102D2000CF910895CF93DF93EB010E948D2E88837E
:102D3000CE01DF91CF9108950F931F93CF938C0114
:102D40000E948D2EC82FC80101960E948D2E2C2F17
:102D500030E0322F2227820F932F911DCF911F91A8
:102D60000F9108950C9463320C9463320C94633287
:102D70000F931F93CF93DF938C01EB01DC0115962A
:102D80008D919C910E942614F801058116810E9464
:102D9000E906AB01BC01FE01349680E2DF011D9221
:102DA0008A95E9F784E290E0A0E0B0E08883998317
:102DB000AA83BB83F80182A593A5B0E0A0E08C8331
:102DC0009D83AE83BF838DE090E0A0E0B0E0888774
:102DD0009987AA87BB87488B598B6A8B7B8B8281AB
:102DE0009381A481B5818C8B9D8BAE8BBF8B81E051
:102DF000DF91CF911F910F9108958F929F92AF9283
:102E0000BF92CF92DF92EF92FF920F931F93CF93D7
:102E1000DF938C01EB01DC0115968D919C910E9452
:102E20002614F801058116810E94E906FE013496F8
:102E300020E2DF011D922A95E9F7C12CD12C760101
:102E4000C394C882D982EA82FB82F80126A137A105
:102E50004901B12CA12C8C829D82AE82BF82C88692
:102E6000D986EA86FB86688B798B8A8B9B8B2AE0D6
:102E700038EE4CE151E466817781808591850E942E
:102E800027316C8B7D8B8E8B9F8B2AE038EE4CE14B
:102E900051E4D8011A966D917D918D919C911D9769
:102EA0000E942731688F798F8A8F9B8F2AE038EEB6
:102EB0004CE151E4F80166857785808991890E940B
:102EC00027316C8F7D8F8E8F9F8F81E0DF91CF9127
:102ED0001F910F91FF90EF90DF90CF90BF90AF9038
:102EE0009F908F9008950F931F93CF93DF938C0142
:102EF000EB01DC0115968D919C910E942614F8013E
:102F0000058116810E94E906AB01BC01FE013496E1
:102F100080E2DF011D928A95E9F781E090E0A0E070
:102F2000B0E088839983AA83BB83F80180A591A52B
:102F3000B0E0A0E08C839D83AE83BF8384E090E00B
:102F4000A0E0B0E088879987AA87BB87488B598B18
:102F50006A8B7B8B25E33AEF4EE85CE362897389E9
:102F6000848995890E9427316C8B7D8B8E8B9F8BFA
:102F700025E33AEF4EE85CE3D80156966D917D91DA
:102F80008D919C9159970E942731688F798F8A8FF4
:102F90009B8F25E33AEF4EE85CE3F801628D738D79
:102FA000848D958D0E9427316C8F7D8F8E8F9F8FA2
:102FB00081E0DF91CF911F910F9108950F931F939F
:102FC000CF93DF938C01EB0188E2FB0111928A958C
:102FD000E9F74BE050E064E971E0CE010E94F53280
:102FE0001B8681E090E0A0E0B0E08C879D87AE87F3
:102FF000BF87F80183819481092E000CAA0BBB0BBB
:10300000888B998BAA8BBB8B8DE090E0A0E0B0E021
:103010008C8B9D8BAE8BBF8B1CA21DA21EA21FA2F0
:1030200080E090E0A0E2B2EC8C8F9D8FAE8FBF8FDE
:1030300080E090E0A2EDB2E4888F998FAA8FBB8FD9
:1030400084E09DEAA0E4BBE388A399A3AAA3BBA361
:10305000DF91CF911F910F9108950F931F93CF93FD
:10306000DF938C01EB0188E2FB0111928A95E9F76D
:103070004BE050E06EE971E0CE010E94F5321B8614
:1030800041E050E060E070E04C875D876E877F87AD
:10309000F80183819481092E000CAA0BBB0B888B4D
:1030A000998BAA8BBB8B4C8B5D8B6E8B7F8B1CA201
:1030B0001DA21EA21FA28AE098EEACE1B3EC8C8F99
:1030C0009D8FAE8FBF8F8AE098EEACE1B3E4888F1E
:1030D000998FAA8FBB8F83E29BEDA9E7BDE388A3FD
:1030E00099A3AAA3BBA3DF91CF911F910F9108953C
:1030F0000F931F93CF93DF938C01EB0188E2FB01C9
:1031000011928A95E9F74BE050E068EA71E0CE0150
:103110000E94F5321B8681E090E0A0E0B0E08C8751
:103120009D87AE87BF87F80183819481092E000CAB
:10313000AA0BBB0B888B998BAA8BBB8B84E090E08E
:10314000A0E0B0E08C8B9D8BAE8BBF8B1CA21DA230
:103150001EA21FA287ED93EAABE0B2EC8C8F9D8F8D
:10316000AE8FBF8F87ED93EAABE0B2E4888F998F83
:10317000AA8FBB8F8AE99BEAABE0B9E388A399A346
:10318000AAA3BBA3DF91CF911F910F91089585ED65
:103190008093BC008091820290918302A09184026E
:1031A000B09185020796A11DB11D23E0B695A795A4
:1031B000979587952A95D1F72091BC0024FD03C0EF
:1031C0001092800208954091820250918302609192
:1031D000840270918502452B462B472B69F300979B
:1031E000A105B10541F025E32A95F1F7000001970B
:1031F000A109B109E1CF809181020C949B082F9223
:103200003F924F925F926F927F928F929F92AF9276
:10321000BF92CF92DF92EF92FF920F931F93CF93C3
:10322000DF9300D000D0CDB7DEB73C012DB73EB75D
:103230003C832B838F569F4F9A838983FC01808127
:10324000281B31090FB6F8943EBF0FBE2DBF8DB7B6
:103250009EB701962C01F30124A8312CDC0190E0EB
:1032600080E0F301821593054CF420A931A9F901FE
:10327000E80FF91F20812D930196F3CF85A98823AC
:1032800041F184A595A528E097FD09C068E671E0A5
:103290000E9499316DE270E00E949931262FF3016E
:1032A00086A597A568E097FD08C068E671E00E94D2
:1032B00099316DE270E00E949931F201E20DF31D47
:1032C00030E1639FB0011124262B2083C1010196B8
:1032D0001C014201820C931CF301A4ACB5ACC6AC3A
:1032E000D7ACE0ACF1AC02AD13AD208131814281AD
:1032F000538166A96170C3010E94D40D280E391E46
:103300004201820C931CF301EC5BFF4FA080B18063
:10331000C280D3803497E080F18002811381F30171
:10332000248135814681578166A966956170C30104
:103330000E94D40D280E391E4201820C931CF30109
:10334000E45BFF4FA080B180C280D3803497E080DF
:10335000F18002811381F3012085318542855385F7
:1033600066A962FB662760F9C3010E94D40D280E8E
:10337000391E4201820C931CF301EC5AFF4FA080CE
:10338000B180C280D3803497E080F18002811381C4
:10339000F301248535854685578566A963FB662735
:1033A00060F9C3010E94D40D280E391E4201820C1F
:1033B000931CF301E45AFF4FA080B180C280D380F8
:1033C0003497E080F18002811381F30120893189F3
:1033D0004289538966A962956170C3010E94D40D28
:1033E000280E391E4201820C931CF301EC59FF4F49
:1033F000A080B180C280D3803497E080F1800281C8
:103400001381F301248935894689578966A965FBAB
:10341000662760F9C3010E94D40D280E391E4201AF
:10342000820C931CF301E459FF4FA080B180C2804D
:10343000D3803497E080F18002811381F301248DE1
:10344000358D468D578D67A96170C3010E94D40DDB
:10345000280E391E4201820C931CF301EC58FF4FD9
:10346000A080B180C280D3803497E080F180028157
:103470001381F301208D318D428D538D67A966959F
:103480006170C3010E94D40D280E391E4201820CC6
:10349000931CF301E458FF4FA080B180C280D38019
:1034A0003497E080F18002811381F30120A131A1E2
:1034B00042A153A167A962FB662760F9C3010E947C
:1034C000D40D280E391E4201820C931CF301EC57D7
:1034D000FF4FA080B180C280D3803497E080F1801C
:1034E00002811381F30124A135A146A157A167A947
:1034F00063FB662760F9C3010E94D40D280E391EB4
:103500004201820C931CF301E457FF4FA080B1806D
:10351000C280D3803497E080F18002811381F3016F
:1035200020A531A542A553A567A962956170C30185
:103530000E94D40D0E94620D4C01E981FA81408104
:10354000F301E057FF4F808150E03A01FFEF6F1A1F
:103550007F0A2DB73EB7261937090FB6F8943EBF3C
:103560000FBE2DBF0DB71EB70F5F1F4FEDB7FEB7D4
:103570008183B201C80101960E94EC32F40183817B
:10358000A301B80180640E9439062B813C810FB6EB
:10359000F8943EBF0FBE2DBF0F900F900F900F906D
:1035A000DF91CF911F910F91FF90EF90DF90CF901F
:1035B000BF90AF909F908F907F906F905F904F9053
:1035C0003F902F9008950C94952E1F93CF93DF93E7
:1035D000EC01162F672F0E94E31A612FCE0101968E
:1035E000DF91CF911F910C94E31AEF92FF920F930A
:1035F0001F93CF93DF93EC017C0110E000E0F70113
:1036000061917F01C8010E94E31A0F5F1F4F0F33C2
:103610001105A9F77E01FFE3EF0EF11C04E610E0AF
:10362000F70161917F01C8010E94E31A0F5F1F4FEC
:10363000033A1105A9F77E01FEE7EF0EF11C08EC35
:1036400010E0F70161917F01C8010E94E31A0F5F4A
:103650001F4F0730F1E01F07A1F77E018DEBE80E49
:10366000F11C0CE211E0F70161917F01C8010E9499
:10367000E31A0F5F1F4F0B36F1E01F07A1F7FE01A2
:10368000E450FF4F6081718181E991E00E94E51A69
:10369000FE01E250FF4F6081718183E991E00E9459
:1036A000E51AFE01F3956081718185E991E00E9440
:1036B000E51A7E018EEFE81AF80A07E911E0F70132
:1036C00061917F01C8010E94E31A0F5F1F4F0B3900
:1036D000F1E01F07A1F77E018AEFE81A8EEFF80AE2
:1036E00001EA11E0F70161917F01C8010E94E31A2C
:1036F0000F5F1F4F053AF1E01F07A1F7FE01E65FDC
:10370000FE4F60818AEA91E00E94E31AFE01E45FC5
:10371000FE4F60818BEA91E00E94E31AFE01E35FB5
:10372000FE4F6081718182EC91E00E94E51AC15FD9
:10373000DE4F6881798184EC91E00E94E51A64E6AD
:1037400088EE93E00E94E31A8CEA90E0DF91CF913B
:103750001F910F91FF90EF900C949A041F920F927B
:103760000FB60F9211248F939F938091E100909157
:10377000E100937F9093E10083FF0FC01092E90076
:1037800091E09093EB001092EC0092E39093ED00A7
:103790001092330298E09093F00082FF22C093E0F1
:1037A0009093E9009091F200992319F09AE3909395
:1037B000E80090912D02992341F090912D029150B3
:1037C00090932D02911101C05D9A9091320299233C
:1037D00041F090913202915090933202911101C0C8
:1037E000289A84FF18C08091E2008E7E81608093C9
:1037F000E2008091E1008F7E8093E10080912E02B3
:103800008E7E806180932E029F918F910F900FBECC
:103810000F901F90189580FFF7CF8091E2008E7E69
:1038200080618093E2008091E1008E7E8093E100D0
:1038300080912E028E7E8160E5CF1F920F920FB68F
:103840000F921124CF92DF92EF92FF920F931F936A
:103850002F933F934F935F936F937F938F939F9398
:10386000AF93BF93EF93FF93CF93DF93CDB7DEB7C3
:103870006C97DEBFCDBF1092E9008091E80083FF16
:1038800025C068E0CE0145960E94320482EF809305
:10389000E8008D8987FF39C09091E80090FFFCCF48
:1038A000982F907609F034C19E894F89588D2F89C1
:1038B000F88C911131C0803861F580912F0280938E
:1038C000F1001092F1008EEF8093E8006C960FB635
:1038D000F894DEBF0FBECDBFDF91CF91FF91EF9186
:1038E000BF91AF919F918F917F916F915F914F9118
:1038F0003F912F911F910F91FF90EF90DF90CF900C
:103900000F900FBE0F901F9018959EEF9093E800B8
:10391000C7CF1092F100D5CF913059F48111D3CF98
:103920004130510581F680912F028D7F80932F02C7
:10393000CACF933049F48111C6CF4130510519F6F1
:1039400080912F028260F2CF953041F48091E8009F
:1039500080FFFCCF20682093E300B5CF963009F0BC
:10396000A9C00B8D1C8D22E01092E90010922B0251
:1039700010922A02F2122EC01092290210922802EE
:103980000E9453041F8299E09983FA8291E09E83FA
:1039900090EA98879AEF998720912A0230912B021A
:1039A000275F3F4F3C832B838D831092E900109259
:1039B0002B0210922A02109329020093280249E058
:1039C00050E0BE016F5F7F4F80E00E94FB030E94CA
:1039D000530479CF10932902009328020E943F04D8
:1039E000DC0112960D911C910115110509F451C1CC
:1039F000D801ED91FC910480F581E02DBE016B5E54
:103A00007F4FC8010995009709F03EC1F801008574
:103A10001185EACFF3E0FF120EC08F89882309F4E5
:103A200040C0823061F440E860E18CE491E00E94A3
:103A3000C803811148CF81E28093EB0047CF8130EA
:103A400029F440E867E084E491E0F1CF833099F70E
:103A50000E943F04DC011296ED90FC908E010F5FF6
:103A60001F4F6801E114F10479F0D701ED91FC9149
:103A70000680F781E02DB801C7010995080F111DD7
:103A8000F701E084F184EECFD8011C92F601019099
:103A90000020E9F73197BF016C197D0940E0C601AC
:103AA000C6CF6EE271E0FB01449150E080E80E94D5
:103AB000FB0309CF973009F4BECF983021F481E0A1
:103AC0008093F10000CF993009F0FDCE837009F0AA
:103AD000B2CFE1E0F1E081E031E096E321912223F1
:103AE00071F08093E9003093EB00DF0111972C9186
:103AF0002093EC009093ED008F5F873079F78EE78D
:103B00008093EA001092EA008F8980933302DBCE23
:103B10008B8D9C8D1092E90010922B0210922A023C
:103B20009093290280932802898D811192C08E89F9
:103B30009D89913A49F4813209F07DCF47E050E008
:103B40006BE071E080E0B3CF913209F074CF833243
:103B500069F48F89988DB0E0A0E08093070190937D
:103B60000801A0930901B0930A01ADCE803269F437
:103B70008091E80082FFFCCF67E08BE091E00E943B
:103B800032048BEF8093E8009ECE823209F09BCE08
:103B90008F8980931201EEEFFFE7859194918B3F1F
:103BA0009C4D51F1E0E0F8E080910B0190910C0107
:103BB000A0910D01B0910E01803B9440A105B1058B
:103BC000F1F48091120180FD1AC0EE3F8AE0F807FF
:103BD00089F587E797E791838083809160008093E0
:103BE0002C0288E19BE00FB6F894A89580936000C2
:103BF0000FBE9093600067CEEEEFFAE0D5CF8081E4
:103C000091818737974709F05ECEA8958091600033
:103C100088618093600080912C0280936000EE3F69
:103C20002AE0F20789F08091FE0A9091FF0A9183C1
:103C3000808349CE808191818737980751F2909394
:103C4000FF0A8093FE0AC5CF1092FF0A1092FE0A67
:103C50003ACE0E943F04DC0112960D911C91011591
:103C6000110509F4E8CED801ED91FC910190F081A5
:103C7000E02DBE016B5E7F4FC8010995811123CEF7
:103C8000F80100851185EBCF181619060CF41BCE30
:103C9000D2CEF1E0FF12BECE62E371E004CF1F92FC
:103CA0000F920FB60F9211242F933F938F939F93F0
:103CB000AF93BF938091140290911502A0911602C8
:103CC000B09117023091130223E0230F2D3758F5DE
:103CD0000196A11DB11D20931302809314029093AD
:103CE0001502A0931602B0931702809118029091CA
:103CF0001902A0911A02B0911B020196A11DB11DDB
:103D00008093180290931902A0931A02B0931B0299
:103D1000BF91AF919F918F913F912F910F900FBEC7
:103D20000F901F90189526E8230F0296A11DB11D34
:103D3000D2CF1F920F920FB60F9211242F933F9361
:103D40004F935F936F937F938F939F93AF93BF93A3
:103D5000EF93FF938091B900887F803609F44AC0C1
:103D6000F0F5883209F4A7C018F5803109F49BC03A
:103D7000B8F4882309F4F9C0883009F494C0FF919D
:103D8000EF91BF91AF919F918F917F916F915F91D3
:103D90004F913F912F910F900FBE0F901F9018954C
:103DA000883109F488C0803251F780937E0214C0B4
:103DB000803409F49DC040F48033B9F38833F9F6B8
:103DC00080937E0285ECB0C0803509F485C08835CB
:103DD00009F496C0883499F60E94C718D0CF883964
:103DE00009F48CC038F5883729F050F4883611F082
:103DF000803729F683E0809380021092120257C028
:103E0000883809F47BC0803919F0803809F0B7CFC1
:103E100080911202803208F071C0E091120281E0BC
:103E20008E0F809312028091BB00F0E0EE50FE4FA7
:103E300080833DC0803B39F0E0F4803A09F479C0DA
:103E4000883A09F09CCF84E0809380021092F101BF
:103E50001092F001E0913602F091370209958091BD
:103E6000F00181110FC081E08093F0011092D00128
:103E700009C0803C09F4A6CF883C09F4A3CF883B55
:103E800009F07DCFE091F10181E08E0F8093F10187
:103E9000F0E0E053FE4F80818093BB009091F101F0
:103EA0008091F00129C080915B028093BB0085EC7A
:103EB0008093BC0064CF90917D0280917C02981722
:103EC00058F5E0917D0281E08E0F80937D02F0E055
:103ED000E45AFD4F8081E9CFE0917D0281E08E0FB1
:103EE00080937D028091BB00F0E0E45AFD4F808317
:103EF00090917D0280917C029817C8F285E8D8CF16
:103F0000E0917D0281E08E0F80937D028091BB0065
:103F1000F0E0E45AFD4F808380917F0281115CCFF5
:103F200081E080935A0284EA8093BC001092800260
:103F300026CF85EC8093BC00109280028091120203
:103F4000803230F4E0911202F0E0EE50FE4F108229
:103F50006091120270E0E0913402F091350282EF3C
:103F600091E00995109212020ACF10927E0234CF8E
:103F7000EF92FF920F931F93CF93DF93CDB7DEB7EE
:103F8000C659D1090FB6F894DEBF0FBECDBF10924F
:103F9000AD021092AC0288EE93E0A0E0B0E0809316
:103FA000AE029093AF02A093B002B093B10222E6AA
:103FB00031E03093AB022093AA022FEF3FEF309312
:103FC000B7022093B6021092950510929405809343
:103FD000960590939705A0939805B093990584E76B
:103FE00091E0909393058093920510923105109281
:103FF0003005109234051092380510923905109250
:104000003A0510923B058FEF93E0A0E0B0E080937B
:104010003C0590933D05A0933E05B0933F0510925B
:10402000400510924105109242051092430580937D
:10403000440590934505A0934605B093470510921B
:1040400048051092490510924A0510924B0580933D
:104050004C0590934D05A0934E05B0934F051092DB
:1040600050051092510510925205109253058093FD
:10407000540590935505A0935605B093570510929B
:1040800058051092590510925A0510925B058093BD
:104090005C0590935D05A0935E05B0935F0510925B
:1040A000600510926105109262051092630580937D
:1040B000640590936505A0936605B093670510921B
:1040C00068051092690510926A0510926B0580933D
:1040D0006C0590936D05A0936E05B0936F051092DB
:1040E00070051092710510927205109273058093FD
:1040F000740590937505A0937605B093770510929B
:1041000078051092790510927A0510927B058093BC
:104110007C0590937D05A0937E05B0937F0510925A
:10412000800510928105109282051092830580937C
:10413000840590938505A0938605B093870510921A
:1041400088051092890510928A0510928B0580933C
:104150008C0590938D05A0938E05B0938F0533E069
:104160003093900548E1409333051092350587E080
:10417000809336051092370525E0298381E08A83F4
:1041800099E09B832C8361EA6D838E8355E85F837E
:10419000388729879A8759E15B878C8759E25D8741
:1041A0004E87F5E1FF87188A55E2598B8A8BE5E740
:1041B000EB8B8C8B75E97D8B4E8B45E54F8B188E89
:1041C00045E6498F1A8E51E85B8F42E04C8F2D8F68
:1041D0008E8F9F8F88A3F9A31AA287E28BA38FEFFC
:1041E0008CA38DA31EA21FA2E8A780E189A77AA7AE
:1041F0003BA76CA71DA69EA780E38FA798AB81E382
:1042000089AB9AAB82E38BAB5CAB4DAB80EC8EABF6
:104210008FAB87E390E00E94C7317C0187E3FE010A
:104220003196D70101900D928A95E1F787E090E0F1
:104230000E94C7318C01DC0111961C921E921396CC
:10424000FC92EE92129787E390E015969C938E93E2
:10425000149716961C920E94620DFC01A385B485EA
:10426000109709F09FC01487038785859685D8012C
:1042700014962D913C91820F931F9687858790917C
:104280003305892F869586958695977009F092C09B
:104290008093340510913405812F90E00E94C7313E
:1042A000909331058093300581E09091350591110F
:1042B00001C080E01A5F810F809391051092000584
:1042C0001092010510920205109203051092040548
:1042D0001092050510920605109207051092080528
:1042E0001092090510920A0510920B0510920C0508
:1042F00010920D0510920E0510920F0510921005E8
:1043000010921105109212051092130510921405C7
:1043100010921505109216051092170510921805A7
:104320001092190510921A0510921B0510921C0587
:1043300010921D0510921E0510921F051092200567
:104340001092210510922205109223051092240547
:104350001092250510922605109227051092280527
:104360001092290510922A0510922B058FEF9FEFCE
:1043700090932D0580932C0590932F0580932E0507
:1043800090E080E02091340528171906A9F0A4F0E8
:10439000E0913005F0913105E80FF91F1082019688
:1043A000F1CFDC018D919C9111970097D1F70D937E
:1043B0001C935BCF8F5F6CCF1092F50462E087E1B6
:1043C0000E949B051092D40488E190E09093D6045B
:1043D0008093D504E7EDF4E0DF011D928A95E9F7BB
:1043E00084E08093B30561E00E949B0511E0109387
:1043F000B40561E081E00E949B051092B50560E084
:1044000080E00E949B051093B40561E081E00E946A
:104410009B051092C3041092C6041092C704109218
:10442000C8041092C9041092CA041092CB041092CE
:10443000CC041092CD041092A0041092A10488EC38
:104440008093A2048AEF8093A3048BEF8093A4044B
:104450008CEF8093A5048FEF8093A60480E090E01A
:10446000A0E8BFE38093A7049093A804A093A904B5
:10447000B093AA041092C0041092BF041092C20418
:104480001092C104109210048FE080931104E9E1AE
:10449000F1E0A2E1B4E001900D928A95E1F78FE39B
:1044A000E1E2F4E0DF01982F1D929A95E9F7E0E64A
:1044B000F4E0DF011D928A95E9F710929F040EE067
:1044C00014E0C8018E5094400F5F1F4F20911104DB
:1044D0002817190639F034F061E0F80183810E9451
:1044E0009B05EFCF8FE3EAEFF2E0DF01982F1D92FB
:1044F0009A95E9F741E04093FA02E9E3F3E0DF013E
:10450000982F1D929A95E9F7E8E7F3E0DF01982FDD
:104510001D929A95E9F7E7EBF3E0DF011D928A958A
:10452000E9F78AE792E09093F7038093F6038AE035
:1045300090E09093F9038093F80324E630E0309301
:10454000FB032093FA031092FC031092FD031092D8
:10455000FE031092FF0310920004109201041092C7
:104560000204109203041092040410920504409374
:104570000604309308042093070490930A04809360
:10458000090410920B0410920C0410920D0480E4A4
:104590008093AC0582E995E09093AE058093AD05DC
:1045A00021E42093A5059093A7058093A60522E416
:1045B00020939E059093A00580939F0588E190E04D
:1045C0009093B7058093B60585E08093B805109267
:1045D000B9051092BA051092BB051092BC05109255
:1045E000BD051092BE051092BF051092C00586E869
:1045F00091E09093C2058093C1051092E00510925E
:10460000DF051092E2051092E1051092E405109288
:10461000E3051092E6051092E505CA56DF4F0FB686
:10462000F894DEBF0FBECDBFDF91CF911F910F91E8
:10463000FF90EF900895CF93DF93CDB7DEB7AD979E
:104640000FB6F894DEBF0FBECDBF789484B58260FC
:1046500084BD84B5816084BD85B5826085BD85B526
:10466000816085BD80916E00816080936E001092A4
:10467000810080918100826080938100809181001F
:1046800081608093810080918000816080938000B0
:10469000809191008260809391008091910081606F
:1046A0008093910080919000816080939000809130
:1046B000C10084608093C1008091C10082608093BA
:1046C000C1008091C10081608093C1008091C300CE
:1046D00081608093C3008091C00082608093C0009D
:1046E0008091C20081608093C20080917A008460D2
:1046F00080937A0080917A00826080937A00809122
:104700007A00816080937A0080917A00806880933B
:104710007A001092330210922F0210922E02809192
:10472000D70081608093D70080EA8093D80089B554
:10473000806189BD89B5826089BD09B400FEFDCF65
:1047400061E070E080E090E00E9407068091D80070
:104750008F7C80618093D8008091E000807F80937F
:10476000E0008091E1008E7E8093E1008DE08093F7
:10477000E200559A209A8FEF9FEF9093B7028093B3
:10478000B60268EE73E080E090E00E94070668EEF3
:1047900073E080E090E00E940706CE0101966C0174
:1047A000BC0188EE93E00E9492168981843609F05C
:1047B000CAC110E000E0B80166507D4FC8010E94F8
:1047C00092160F5F1F4F0F331105A9F704E610E093
:1047D000B8016B527D4FC8010E9492160F5F1F4FA8
:1047E000033A1105A9F708EC10E0B80160557D4FB8
:1047F000C8010E9492160F5F1F4F063091E0190703
:10480000A1F70CE211E0B80165577D4FC8010E9485
:1048100092160F5F1F4F0B36A1E01A07A1F781E92F
:1048200091E00E949C169093F7038093F60383E92E
:1048300091E00E949C169093F9038093F80385E918
:1048400091E00E949C169093FB038093FA036CEF17
:1048500073E087E991E00E9492166DEF73E088E9BA
:1048600091E00E9492166EEF73E089E991E00E9458
:1048700092166FEF73E08AE991E00E94921660E071
:1048800074E081EA91E00E94921661E074E082EAAD
:1048900091E00E94921662E074E083EA91E00E9447
:1048A000921663E074E084EA91E00E94921664E05C
:1048B00074E08AEA91E00E94921666E074E08BEA66
:1048C00091E00E949216809106048093050482EC88
:1048D00091E00E949C16909308048093070484EC56
:1048E00091E00E949C1690930A04809309040AEFB9
:1048F00012E010930F0400930E048CEA95E00E94DE
:10490000701670EC872E7CEF972E7BE9A72EBB24C8
:10491000B3948092AF059092B005A092B105B09289
:10492000B20540E050E068EC74E48CEA95E00E9447
:10493000A81585EA95E00E9470168092A8059092CD
:10494000A905A092AA05B092AB0540E050E068EC42
:1049500074E485EA95E00E94A8158EE995E00E942E
:1049600070168092A1059092A205A092A305B09224
:10497000A40540E050E068EC74E48EE995E00E9404
:10498000A8158CE08093B800E0E0EE2EE5E0FE2E66
:1049900081E080933205C7010E94FF18F092F00475
:1049A000E092EF041093F2040093F1048EE094E09F
:1049B0009093F4048093F3041093FF040093FE0497
:1049C0008090F6039090F7036091FA037091FB03D7
:1049D000072E000C880B990B0E941A302B013C010A
:1049E000092C000CAA08BB08C501B4010E941A30AA
:1049F0009B01AC01C301B2010E94702F6093F804C7
:104A00007093F9048093FA049093FB04F092F704F6
:104A1000E092F6048091F8039091F903092E000CBE
:104A2000AA0BBB0B8093480590934905A0934A05B8
:104A3000B0934B0580924C0590924D05A0924E0587
:104A4000B0924F0580910604882311F40C94AD2D8B
:104A5000F092CF04E092CE041093C5040093C404F6
:104A600044E25AEF6FEF7FEF4093380550933905DA
:104A700060933A0570933B058CED95E0A0E0B0E0C3
:104A800080933C0590933D05A0933E05B0933F0570
:104A90004093400550934105609342057093430550
:104AA0008093440590934505A0934605B093470530
:104AB00048E6642E02E915E050E2E52EF12C772459
:104AC000739465E7A62EB12C8091DF059091E005E7
:104AD000009711F00E94633286E090E00E94C73197
:104AE000FC016082128301831382F582E482909339
:104AF000E0058093DF0535E0532E8090DF05909030
:104B0000E0050E948408F4017382C4010E94860AB1
:104B10008111E2C66AE070E080E090E00E94070642
:104B20005A945110EACFE091C404F091C504E45FB7
:104B3000FE4F80818111F4C668E873E180E090E067
:104B40000E940706C1CF8AEF92E00E94F51ACFCEED
:104B500090E080E00C942E2E8092BD059092BE05D0
:104B6000A092BF05B092C0058091B9059091BA0599
:104B7000A091BB05B091BC0588159905AA05BB0598
:104B800009F4C1C0B4EDEB2EB4E0FB2E10E000E060
:104B90008091B6059091B7050817190708F0B3C0C2
:104BA0004091BD055091BE056091BF057091C00553
:104BB000002E04C076956795579547950A94D2F7CD
:104BC000DB01CA0180959095A095B095E82FE17022
:104BD000E9A7D70113968C91E81709F465C007314E
:104BE000110541F4E091F104F091F204EE5EFE4F04
:104BF00089A48082E091EF04F091F004902F83A9C2
:104C00002A013B0121E0422255246624772440FFFB
:104C100051C00817F8F4A02FA695A695A69520A92F
:104C200031A9A20FB32FB11D977041E050E060E0B1
:104C300070E004C0440F551F661F771F9A95D2F786
:104C400040958C9184238C9382A9882319F0CF01FD
:104C50000E94FF1889A4F7018382B12CA12C8091B6
:104C6000F1049091F2048A0D9B1DFC01EE5FFE4F52
:104C7000208130E04114510461047104D9F5021718
:104C8000130759F48A5F9E4F4FEFDC016C918091BE
:104C9000F3049091F4040E94780EFFEFAF1ABF0A5C
:104CA00024E0A216B104D9F60F5F1F4F8FEFE81A68
:104CB000F80A6ECF081770F6A02FA695A695A695B0
:104CC00020A931A9A9014A0F511D9770812C912C5F
:104CD0005401839404C0880C991CAA1CBB1C9A958F
:104CE000D2F78AA69BA6ACA6BDA6DA012C91882D88
:104CF000822BA9CF0217130781F68A5F9E4F40E0EF
:104D0000FC016081C4CF0E945103E091FE04F09148
:104D1000FF04F39500811181081719070CF41BC1DA
:104D20009093FD048093FC048091F6049091F70425
:104D30004091FC045091FD04052E000C660B770B8E
:104D4000DC0118964D935D936D937C931B97D296DF
:104D50002C9121110E94FF1880910504882309F4E9
:104D6000A0C08091300290913102DC01ED91FC9164
:104D70000680F781E02DB60109950091C4041091D9
:104D8000C504F801E35FFE4F60817181072E000CBE
:104D9000880B990B0E941A302B013C012091C6040C
:104DA0003091C7044091C8045091C9046D897E892F
:104DB0008F89988D0E94FE2EA30192010E942731B7
:104DC0000E9455300E94E22F4B017093D1046093F2
:104DD000D0042091CA043091CB044091CC0450916E
:104DE000CD04698D7A8D8B8D9C8D0E94FE2EA30142
:104DF00092010E9427310E9455300E94E22F709349
:104E0000D3046093D204F801E15FFE4F2081318129
:104E1000A40197FE04C04427552748195909421791
:104E2000530724F41092D1041092D004AB0177FF01
:104E300004C044275527461B570B4217530724F439
:104E40001092D3041092D2048091CE049091CF049A
:104E50004091D0045091D104052E000C660B770BC5
:104E6000FC01408351836283738322A921110E9434
:104E7000FF188091CE049091CF044091D2045091BC
:104E8000D304052E000C660B770BDC0114964D93B2
:104E90005D936D937C931797D2962C9121110E946C
:104EA000FF180091B3041091B404F5E0AF2EB12CBB
:104EB0007801B1E9EB0EF11CF70180818E3308F027
:104EC00072C08F5F8083F7016081A62FB0E0F80188
:104ED00080819181FC01EA0FFB1F47ADA00FB11F3C
:104EE00053968C915397481768F4E354FF4F908181
:104EF000992341F0AE5ABF4F8C91981356C0C80108
:104F00000E94780EF1E0AF1AB108B1F609E010E0A6
:104F10008AEA92E00E940705892B09F45BC08AEABD
:104F200092E00E94C5042091BF043091C004F901B1
:104F3000E056FB4F858B21153105D1F59091B504D5
:104F40008091A10498133EC02F5F3F4F3093C0045F
:104F50002093BF043BC0BC01601B710B072E000CEB
:104F6000880B990B0E941A302091F8043091F904B3
:104F70004091FA045091FB040E9427314B015C01DF
:104F8000B801110F880B990B0E941A309B01AC01DC
:104F9000C501B4010E94FF2E0E94E22F7093FD0410
:104FA0006093FC04C1CE10828ECF8F5F8C93AACF0A
:104FB0002130310509F06CC29091B6048091A204B1
:104FC000981710F61092C0041092BF0401501109F6
:104FD00009F09ECF8091C1049091C2041816190661
:104FE0000CF04DC2019731F50091AF041091B0045F
:104FF00085E196E00E949A047801B3E0EB0EF11C83
:105000005801EAE1AE0EB11CD7018D917D0190E00F
:105010000E94101083E196E00E949A04EA14FB04B7
:1050200099F7F801828D90E00E94101080E196E0DF
:105030000E949A048091C1049091C204029711F5D4
:105040000091B3041091B4048CEC91E00E949A0496
:105050007801F3E1EF0EF11C0F5A1F4FD7018D912C
:105060007D010E941C118AEC91E00E949A040E15A9
:105070001F05A1F7F80180810E941C1187EC91E0C7
:105080000E949A048091C1049091C204039761F434
:1050900085ED91E00E949A040E9451030E94101035
:1050A00082EB91E00E94BF0F8091C1049091C204F5
:1050B000049709F04DC00091AB041091AC048091AD
:1050C000300290913102DC01ED91FC910680F78174
:1050D000E02DB601099587EE91E00E949A04F8014F
:1050E00023813481458156816D897E898F89988D90
:1050F0000E94FE2E42E00E94401085EE91E00E9448
:105100009A04D80117962D913D914D915C911A9773
:10511000698D7A8D8B8D9C8D0E94FE2E42E00E94BF
:10512000401083EE91E00E949A04F80185859685EF
:105130000E94101081EE91E00E949A04D8011F96FF
:105140008D919C910E9410108EED91E00E949A0426
:105150008091C1049091C204059709F0BEC00091EE
:10516000B1041091B20486E192E00E949A045801C1
:10517000BFE3AB0EB11C7801F70181917F010E9462
:105180001C1184E192E00E949A04EA14FB04A1F746
:105190005801FEE7AF0EB11CD7018D917D010E9431
:1051A0001C1182E192E00E949A04EA14FB04A1F728
:1051B0005801BDEBAB0EB11CF70181917F010E943C
:1051C0001C1180E192E00E949A04AE14BF04A1F782
:1051D00075015801FCEFAF0EB11CD7018D917D0117
:1051E0000E941C118EE092E00E949A04EA14FB04D3
:1051F000A1F7F701808191810E9410108CE092E06C
:105200000E949A04F801E250FF4F808191810E9430
:1052100010108AE092E00E949A04F801F3958081D0
:1052200091810E94101088E092E00E949A04780117
:10523000FEEFEF1AFF0A58012AEFA21A2EEFB20A68
:10524000D7018D917D010E941C1186E092E00E94A1
:105250009A04EA14FB04A1F75801B6EFAB1ABEEFAB
:10526000BB0AF70181917F010E941C1184E092E04A
:105270000E949A04EA14FB04A1F7D7018C910E94C2
:105280001C1182E092E00E949A04F801E45FFE4F54
:1052900080810E941C1180E092E00E949A04F80133
:1052A000E35FFE4F808191810E9410108EEF91E0AC
:1052B0000E949A04F801E15FFE4F808191810E9473
:1052C00010108CEF91E00E949A048EEE91E00E9403
:1052D0009A041092C2041092C1048091C10490916A
:1052E000C204069719F50091B1041091B204780137
:1052F000BFEEEB1ABEEFFB0AF70110825801FFE385
:10530000AF0EB11C4801C8010E947A0FD4018D93E1
:105310004D01F7018081882309F418C187E494E0E6
:105320000E949A041092C2041092C1048091C10498
:105330009091C2040797E9F50091B1041091B2046D
:105340007801BFEEEB1ABEEFFB0AF7011082C8012D
:105350000E947A0FB82EC8010E947A0F4801FCEF14
:105360008F0E911C2B2D30E0322F2227820F932F8E
:10537000911DD4018D939C9387E395E00E949A043C
:10538000F401808191810E94101084E395E00E94D5
:105390009A04D7018C91882309F4F5C180E195E046
:1053A0000E949A0453E0852E912C9092C204809220
:1053B000C1048091C1049091C2040A9789F50091BB
:1053C000B1041091B20478012FEEE21A2EEFF20A26
:1053D000D7011C92C8010E947A0FB82EC8010E9402
:1053E0007A0F4801B3EF8B1ABEEF9B0A2B2D30E0EA
:1053F000322F2227820F932F911DF40191838083F6
:10540000D7018C91882309F425C283EC95E00E9492
:105410009A0484E0882E912C9092C2048092C10458
:105420008091C1049091C204099751F48091B10414
:105430009091B2040E94F51A1092C2041092C10415
:105440008091C1049091C2048F3F910521F4109284
:10545000C2041092C1048091C1049091C2040897C3
:1054600041F484EF95E00E949A041092C2041092D5
:10547000C10462E370E080E090E00E9407060E94B1
:10548000E9062114310409F48AC30E94000087C38D
:105490002830310509F058CDB090B6048091A304AE
:1054A000B81208C08091B70490E09093C204809332
:1054B000C10488CD8091A404B81205C08EE196E0A5
:1054C0000E949A047FCD8091A504B8120BC0409130
:1054D000B8046091B7048091B3049091B4040E9421
:1054E000780E70CD8091A204B81A67E0862EB89C21
:1054F000B02C112477EBE72E74E0F72EE7E0AE2E08
:10550000AB0CD7016D917D018091A104681B770BD5
:10551000072E000C880B990B0E941A302091A704CB
:105520003091A8044091A9045091AA040E94273107
:105530000E94E22F462F6B2D8091B3049091B4040A
:105540000E94780EB394BA10DCCF3CCDAA16BB06ED
:1055500009F0D9CE4801BEE78B0E911CC8010E940C
:105560007A0FF50181935F01D7018C91882309F4AB
:10557000F4C081E294E0D4CEAA16BB0609F0F5C0CF
:105580004801FCEF8F0E911CC8010E947A0FD501D3
:105590008D935D01F7018081882319F082ED93E0FE
:1055A000BFCEA815B90581F7C8010E947A0F982EC1
:1055B000C8010E947A0F292D30E0322F2227820F56
:1055C000932F911DD5018D939C93F70180818823A2
:1055D00019F08EEA93E0A4CEC8010E947A0FB82E8B
:1055E000C8010E947A0FF801E250FF4F2B2D30E0E6
:1055F000322F2227820F932F911D91838083D70111
:105600008C91882319F08AE893E08ACEC8010E9421
:105610007A0FB82EC8010E947A0FF801F3952B2D4E
:1056200030E0322F2227820F932F911D91838083A8
:10563000F7018081882319F086E693E071CE580146
:10564000FEEFAF1ABF0A48012AEF821A2EEF920A24
:10565000C8010E947A0FD5018D935D01F701808109
:10566000882319F08BE393E05BCEA815B90581F789
:105670004801F6EF8F1AFEEF9F0AC8010E947A0FC9
:10568000D5018D935D01F7018081882319F080E1B8
:1056900093E046CE8A169B0681F7C8010E947A0FD6
:1056A000D4018C93F7018081882319F08BEE92E06E
:1056B00037CEC8010E947A0F5801F4EFAF1AFEEFFF
:1056C000BF0AD5018C9387EC92E00E949A04F50101
:1056D00080810E941C1184EC92E00E949A04D70100
:1056E0008C91882319F08DE992E01ACEC8010E94AE
:1056F0007A0FB82EC8010E947A0FF801E35FFE4FBF
:105700002B2D30E0322F2227820F932F911D918372
:105710008083F7018081882319F08CE692E000CE27
:10572000C8010E947A0FB82EC8010E947A0FF801B2
:10573000E15FFE4F2B2D30E0322F2227820F932F77
:10574000911D91838083D7018C91882319F08DE37B
:1057500092E0E6CD8EE192E0E3CD8E169F0609F051
:10576000FDCE5801FDEBAF0EB11CC8010E947A0FAF
:10577000D4018D934D01F7018081882309F4FCCE7B
:1057800089EF93E0CDCDC8010E947A0F782EC80131
:105790000E947A0F5801BEEFAB0EB11C272D30E0EE
:1057A000322F2227820F932F911DF5019183808341
:1057B00087EF94E00E949A04D5018D919C910E94FC
:1057C000101084EF94E00E949A04F70180818823EE
:1057D00019F080ED94E0E4CDC8010E947A0F782E94
:1057E000C8010E947A0F1395272D30E0322F22270F
:1057F000820F932F911DD8018D939C9387EB94E09A
:105800000E949A04F801808191810E94101084EB1B
:1058100094E00E949A04D7018C91882319F080E9C2
:1058200094E0BECDF4016081718181E991E00E9434
:10583000E51AD5016D917C9183E991E00E94E51A0A
:10584000F8016081718185E991E00E94E51A81E7A4
:1058500094E0A6CDC8010E947A0F782EC8010E945C
:105860007A0F5801B1EFAB1ABEEFBB0A272D30E01B
:10587000322F2227820F932F911DF5019183808370
:10588000D7018C91882319F084E995E0C0CDC80137
:105890000E947A0F065F1E4FF8018083D7018C911A
:1058A000882319F08FE695E0B2CDF4016081718113
:1058B00082EC91E00E94E51AD5016D917C9184EC17
:1058C00091E00E94E51AF80160818AEA91E00E9465
:1058D000E31A80E595E09BCD8091DF059091E0058E
:1058E000188A198A1A8A1B8A9A8389831C821B82C6
:1058F0007A86B886AF821B867986C6010E94E81137
:10590000683671058105910509F00DC940E050E048
:10591000BA0181EC95E00E949D12882309F403C925
:105920008091DF059091E005188A198A1A8A1B8AEE
:105930009A8389831C821B8211E01A878CE190E094
:1059400098878F831B861987DEA2CDA283E08FA361
:1059500018A644E050E060E070E0CE0185960E9419
:1059600019128091DF059091E005188A198A1A8A28
:105970001B8A9A8389831C821B821A878FE190E09D
:1059800098878F831B86198720E041E050E060E014
:1059900070E0C6010E94CA098091DF059091E00580
:1059A000188A198A1A8A1B8A9A8389831C821B8205
:1059B0001A8780E290E098878F831B86198720E002
:1059C00044E150E060E070E0C6010E94CA098091A5
:1059D000DF059091E005188A198A1A8A1B8A9A8332
:1059E00089831C821B821A8727E3E22EF12CF8861A
:1059F000EF821B861987DEA2CDA21FA385E088A7B0
:105A000041E050E060E070E0CE0185960E941912FE
:105A10008091DF059091E005188A198A1A8A1B8AFD
:105A20009A8389831C821B821A87F886EF821B86E1
:105A30001987DEA2CDA21FA387E088A741E050E02E
:105A400060E070E0CE0185960E9419128091DF051A
:105A50009091E005188A198A1A8A1B8A9A83898389
:105A60001C821B821A8788E390E098878F831B86AD
:105A70001987DEA2CDA21FA386E088A741E050E0EF
:105A800060E070E0CE0185960E9419128091E305D6
:105A90009091E40590933102809330021AE0809156
:105AA000300290913102DC01ED91FC910680F7818A
:105AB000E02DB60109952D893E894F89588D609159
:105AC000C6047091C7048091C8049091C9040E94D3
:105AD000FF2E2B013C014092C6045092C7046092F5
