:100000000C944F020C9477020C9477020C947702B4
:100010000C9477020C9477020C9477020C9477027C
:100020000C9477020C9477020C94911B0C94001C96
:100030000C9477020C9477020C9477020C9477025C
:100040000C9477020C9477020C9477020C9477024C
:100050000C9477020C9477020C9477020C942C1E6B
:100060000C9477020C9477020C9477020C9477022C
:100070000C9477020C9477020C9477020C9477021C
:100080000C9477020C9477020C9477020C9477020C
:100090000C94761E0C9477020C9477020C947702E1
:1000A0000C9477020C9477020C9477020000000005
:1000B0000000000000000000000000002A002B00EB
:1000C0002800000000000000000000000000000008
:1000D0000000000000000000000000000000000020
:1000E0000000000000000000000000002C001E02C4
:1000F00034022002210222022402340026022702B6
:1001000025022E0236002D003700380027001E0081
:100110001F002000210022002300240025002600CB
:100120003302330036022E00370238021F02040267
:10013000050206020702080209020A020B020C026B
:100140000D020E020F02100211021202130214021B
:10015000150216021702180219021A021B021C02CB
:100160001D022F003100300023022D023500040053
:10017000050006000700080009000A000B000C003B
:100180000D000E000F0010001100120013001400EB
:10019000150016001700180019001A001B001C009B
:1001A0001D002F0231023002350200000000000065
:1001B000000000000000000000000000000000003F
:1001C000000000000000000000000000000000002F
:1001D000000000000000000000000000000000001F
:1001E000000000000000000000000000000000000F
:1001F00000000000000000000000000000000000FF
:1002000000000000000000000000000000000000EE
:1002100000000000000000000000000000000000DE
:1002200000000000000000000000000000000000CE
:1002300000000000000000000000000000000000BE
:1002400000000000000000000000000000000000AE
:10025000000000000000000000000000000000009E
:10026000000000000000000000000000000000008E
:10027000000000000000000000000000000000007E
:10028000000000000000000000000000000000006E
:10029000000000000000000000000000000000005E
:1002A0000000000000000000000000000501090639
:1002B000A101050719E029E7150025017501950839
:1002C0008102050C95017508150026FF001900290B
:1002D000FF8100050819012908950875019102059B
:1002E0000795067508150026E700190029E7810023
:1002F000C0050C0901A101150026FF0319002AFF02
:1003000003950475108100C005010904A1010509C8
:10031000190129201500250175019520810205018B
:10032000A100093009310933093416008026FF7F06
:10033000751095048102093209351580257F7508ED
:1003400095028102C0050109390939150125089571
:100350000275048102C000000000240027002A006A
:100360002D00300000000000250028002B002E008A
:100370003100080B00020202000009040000010223
:1003800002000005240010010524010101042402DB
:100390000605240600010705810310004009040139
:1003A00000020A0000000705020240000007058362
:1003B000024000000403090412010002EF020140A0
:1003C0008F0E079200010102030130783065386614
:1003D00000436C657620536F66742050696E4F6ED3
:1003E0006500000000002300260029002C002F00DB
:1003F00004040404040304050202020204030202CA
:1004000002020606060606060404020202040404AA
:100410000802011040804010204080408008020403
:100420000180402010020110801020404020522CFA
:10043000530D0A00522C450D0A00450D0A00432CAD
:10044000000D0A002C002C002C00412C000D0A008D
:10045000502C000D0A002C004F2C000D0A002C001F
:10046000422C00562C312E31382E300D0A00070652
:1004700005040100080A0B0C0D092C002C000000DB
:10048000000200090F0000030401000C000000003E
:10049000000000000000000000000000DD1F11242B
:1004A0001FBECFEFDAE0DEBFCDBF12E0A0E0B1E0CB
:1004B000E0E0F8E602C005900D92A834B107D9F744
:1004C00028E0A8E4B2E001C01D92A136B207E1F72E
:1004D00012E0CFE4D2E004C02197FE010E94BF32B7
:1004E000CE34D107C9F70E9468220C94FE330C94D5
:1004F000000008950895CF92DF92EF92FF92CF937C
:10050000DF93C091C404D091C5048091C20490913E
:10051000C304BE01681B790B072E000C880B990BD6
:100520000E9420316B017C016091C0047091C10474
:100530006C1B7D0B072E000C880B990B0E94203141
:100540009B01AC01C701B6010E9476306093A807F9
:100550007093A9078093AA079093AB07DF91CF917F
:10056000FF90EF90DF90CF900895FC018091AA0258
:10057000882311F13FB7F89482E08093E90020913D
:10058000F200822F90E01816190614F481E090E032
:10059000882339F0289844E64093A9024091F1005D
:1005A0004083222339F02091F200211103C02BE671
:1005B0002093E8003FBF08958FEF9FEF0895E3E792
:1005C000F4E0E49190917B008E2F880F880F807269
:1005D0009F7D892B80937B00E770E064E0937C0033
:1005E00080917A00806480937A0080917A0086FD01
:1005F000FCCF8091780090917900089580919E07BA
:100600008823A9F08091990780939C0710929E07F8
:1006100080919C078B5F80939D0790919A07891723
:1006200028F090939D0781E080939E070895809124
:100630009C078B5F80939C07EBCF4091A202509167
:10064000A3022091A0023091A10242175307B4F4F3
:100650009091E8009570E1F39091E80092FD19C047
:100660008093F1008091A2029091A30201968F7372
:100670009927892B19F48EEF8093E8008091A202CC
:100680009091A30201969093A3028093A20281E02D
:10069000089580E00895EF92FF920F931F93CF93F8
:1006A000DF93F82E192FE62E042F81E0860F880F96
:1006B0000E941D0383E00E941D03CF2DD12FEC0E5D
:1006C000FD2EF11CCE15DF05B9F007FF13C0FE01AA
:1006D00084910E941D03182F80E00E941D03812336
:1006E00021968111EFCFDF91CF911F910F91FF9054
:1006F000EF9008958881EDCF81E0F5CFDF92EF9202
:10070000FF920F931F93CF93DF93D82E8A01EB01B3
:100710007B01E40EF51ECE15DF0559F0D7FE12C0A1
:10072000FE0184910E941D0321968111F4CF0FEFE9
:100730001FEFC801DF91CF911F910F91FF90EF90B4
:10074000DF9008958881EECF2FB7F894877080935B
:10075000E9009091E800892F807295FF04C0909184
:10076000F20080E4891B2FBF0895615030F0209182
:10077000F100FC0120830196F8CF289884E680934D
:10078000A9020895AF92BF92DF92EF92FF920F936A
:100790001F93CF93DF935C018B01EB019BEFD92E6D
:1007A0002097C1F07E01C134D1051CF080E4E82E11
:1007B000F12C8091E80082FFFCCFC8018C1B9D0BBF
:1007C0006E2D8A0D9B1D0E94B503D092E800CE19B4
:1007D000DF09E6CFC801DF91CF911F910F91FF9004
:1007E000EF90DF90BF90AF900895AF92BF92CF92FD
:1007F000DF92EF92FF920F931F93CF93DF936C01E1
:100800007B018B01040F151FEB015E01AE18BF08C1
:10081000C017D10759F06991D601ED91FC91019073
:10082000F081E02DC6010995892B79F7C501DF918B
:10083000CF911F910F91FF90EF90DF90CF90BF90DD
:10084000AF9008958091980281110DC082E080934D
:10085000940284E08093950210929702109296027F
:1008600081E08093980284E992E008950F931F93AA
:10087000CF93DF931F92CDB7DEB782E0898342E446
:1008800050E062E773E080E80E947E030E94220449
:10089000DC0112960D911C910115110589F0D8010A
:1008A000ED91FC910280F381E02DBE016F5F7F4FDF
:1008B000C801099597FD04C0F80100851185ECCFAA
:1008C00089810F90DF91CF911F910F910895CF9360
:1008D000DF931F92CDB7DEB76983DC01ED91FC9108
:1008E0000280F381E02D41E050E0BE016F5F7F4F59
:1008F00009950F90DF91CF9108950F931F93CF9398
:10090000DF938C01D0E0C0E0F801EC0FFD1F649193
:10091000662341F081E293E00E946704892B11F085
:100920002196F2CFCE01DF91CF911F910F910895C3
:1009300083E08093E9008091F200882319F08AE334
:100940008093E800089583E00E94A40390E0089556
:10095000CF93DF931F92CDB7DEB7FC0184859585D9
:1009600097FD08C02FEF3FEF358724870F90DF9169
:10097000CF910895CE0101960E94B502019719F416
:10098000898190E0F3CF8FEF9FEFF0CF0F931F930C
:10099000CF93DF931F92CDB7DEB78C01FC01848526
:1009A000958597FF0BC0CE0101960E94B502019775
:1009B00071F4898190E0F80195878487F801848536
:1009C00095850F90DF91CF911F910F9108958FEF33
:1009D0009FEFF1CFFC018485958597FD0BC09FB7F4
:1009E000F89482E08093E9008091F2009FBF90E04C
:1009F000019608959FB7F89482E08093E900809172
:100A0000F2009FBF90E0089581508F3008F047C0FA
:100A1000E82FF0E0E25FFA4F0C94BF322B052F0570
:100A20001D05230527054F054F054F0532053805E0
:100A30003C05400546054F054A05809180008F77AB
:100A4000809380000895809180008F7DF9CF809100
:100A50008000877FF5CF84B58F7784BD089584B5F6
:100A60008F7DFBCF809190008F77809390000895C9
:100A7000809190008F7DF9CF80919000877FF5CF96
:100A80008091C0008F778093C00008958091C0004E
:100A90008F7DF9CF8091C200877F8093C200089537
:100AA0001F93CF93DF93282F30E0F901E258FB4FDB
:100AB0008491F901E15FFB4FD491F901E051FC4FC2
:100AC000C491CC23A9F0162F81110E940405EC2FAC
:100AD000F0E0EE0FFF1FEC59FC4FA591B4918FB7DA
:100AE000F894EC91111108C0D095DE23DC938FBFF0
:100AF000DF91CF911F910895DE2BF8CFCF93DF9335
:100B000090E0FC01E15FFB4F249180519C4FFC0180
:100B100084918823C9F090E0880F991FFC01EA5A5C
:100B2000FC4FA591B491FC01EC59FC4FC591D491B7
:100B300061110DC09FB7F8948C91209582238C93FE
:100B40008881282328839FBFDF91CF910895623049
:100B500051F49FB7F8943C91822F809583238C9316
:100B6000E8812E2BEFCF8FB7F894EC912E2B2C939E
:100B70008FBFEACF8230910538F0880F991F880F18
:100B8000991F05970197F1F708953FB7F894809161
:100B9000900290919102A0919202B091930226B599
:100BA000A89B05C02F3F19F00196A11DB11D3FBFA5
:100BB000BA2FA92F982F8827BC01CD01620F711D74
:100BC000811D911D42E0660F771F881F991F4A956E
:100BD000D1F708958F929F92AF92BF92CF92DF92FA
:100BE000EF92FF924B015C010E94C5056B017C01F5
:100BF0000E94C5056C197D098E099F09683E7340E6
:100C000081059105A8F321E0821A9108A108B10895
:100C100088EEC80E83E0D81EE11CF11C81149104FB
:100C2000A104B10429F7FF90EF90DF90CF90BF901F
:100C3000AF909F908F9008957F928F929F92AF92E6
:100C4000BF92CF92DF92EF92FF920F931F93CF93B9
:100C5000DF93C82E8B017A018091AA02811110C006
:100C60008FEF9FEFDF91CF911F910F91FF90EF904A
:100C7000DF90CF90BF90AF909F908F907F9008951E
:100C80008091A80280FF05C08091E000826080937F
:100C9000E000CE2DDF2DD12C8AEFB82E8C2D877061
:100CA000982E8C2D8072882E8C2D8074782E9AE34D
:100CB000A92E209719F4DD2009F452C08C2D0E9432
:100CC000A40381110AC0BA94BB2051F261E070E024
:100CD00080E090E00E94EA05ECCF8C171D0611F031
:100CE0000CF08C2F9FB7F8949092E9002091E800C7
:100CF00025FD02C09FBFDDCF282F30E0C21BD30BE4
:100D0000882029F08150A0F01092F100FBCFF8016B
:100D1000C7FC0AC0815050F041914093F100FACFD6
:100D200044914093F10031968150D0F7020F131F88
:100D3000DD2021F0A092E800D12CDCCF8091E800EA
:100D400085FD07C0A092E800DD24D394209791F29E
:100D5000F3CF209779F6772069F2A092E800CACF06
:100D60005D9884E68093A502C7017CCFCF93DF9383
:100D7000EC0180911201882331F083E00E941C066F
:100D80001816190634F081E090E09B838A8380E096
:100D900090E0DF91CF9108952FB7F89460918C0285
:100DA00070918D0280918E0290918F022FBF0895D5
:100DB0008F929F92AF92BF92CF92DF92EF92FF926B
:100DC000CF93C091E204C11139C00E94CC064B01FF
:100DD0005C010E94CC066B017C01C818D908EA08A6
:100DE000FB0888E8C81683E1D806E104F10414F58D
:100DF00081E293E00E94EA041816190684F481E265
:100E000093E00E94A804C82F8C2FCF91FF90EF9001
:100E1000DF90CF90BF90AF909F908F9008950E94E9
:100E2000CC066B017C0162E370E080E090E00E9400
:100E3000EA05D3CF81E08093E204E6CFC0E0E4CFBF
:100E40000F931F93CF93DF93162F082FEC010E946F
:100E5000D80689938C2F801B8117C8F3DF91CF911F
:100E60001F910F910895CF930E94D806C82F0E941A
:100E7000D8062C2F30E0322F2227820F932F911D7E
:100E8000CF910895FC0183858F3F19F061E00C94A8
:100E900050050895FC0180819181892B39F0A28150
:100EA000B3819C9111968C919CBD8DBD83858F3FA4
:100EB00019F060E00C9450050895AF92BF92CF9264
:100EC000DF92EF92FF920F931F93CF93DF93EC018A
:100ED00088819981892B89F06EBD0DB407FEFDCF05
:100EE000BEB48B2DDF91CF911F910F91FF90EF90AA
:100EF000DF90CF90BF90AF9008958885998511E0DD
:100F0000892B09F010E8AA24A394862F812309F0E5
:100F1000A12C062F2C813D814E815F8160E271EA18
:100F200087E090E00E94D32FF22EB02EE12CC22E4B
:100F3000D12CFF2019F0C6010E94BA058A85877F4F
:100F400009F042C08D858F3F89F0902F912381E079
:100F500009F480E08A1551F0EF85F8898F8999238B
:100F600069F19081892B8083AA24A394E989FA8965
:100F70008081998D892B8083FF2019F0C6010E9402
:100F8000BA058E858F3F39F0EB89FC898081988D79
:100F9000892309F0E12AE989FA899081898D809570
:100FA000892380838E858F3F09F0BE2C88859985A3
:100FB000892BB9F5110F1111BCCF93CF908180957A
:100FC00089238083A12CD2CFE989FA898081998DE8
:100FD000892B8083FF2019F0C6010E94BA058D85F8
:100FE0008F3F49F0EF85F8898F89902F9123A9F0E1
:100FF0009081892B8083E989FA899081898D8095F8
:10100000892380838E858F3F69F2EB89FC898081FB
:10101000988D892339F2E12AC5CF90818095892363
:10102000E9CF1695C8CF8F929F92AF92BF92CF9281
:10103000DF92EF92FF920F931F93CF93DF937C0188
:101040004B016A01B22EA32E0E944A07E401C80C8C
:10105000D91CCC15DD0569F4CB2DDA2D0C0F1D1F25
:10106000C017D10759F06FEFC7010E945D07899340
:10107000F7CF6991C7010E945D07EBCFC7010E94BE
:10108000420781E0DF91CF911F910F91FF90EF9088
:10109000DF90CF90BF90AF909F908F9008958F92E8
:1010A0009F92AF92BF92CF92DF92EF92FF920F93F7
:1010B0001F93CF93DF937C01B62EA72E6A014901BF
:1010C0000E944A07E401080D191DC017D10761F4F9
:1010D000CB2DDA2DCC0EDD1ECC15DD0551F069913E
:1010E000C7010E945D07F8CF6991C7010E945D07A3
:1010F000ECCFC7010E94420781E0DF91CF911F91A1
:101100000F91FF90EF90DF90CF90BF90AF909F90A6
:101110008F900895DC01ED91FC910190F081E02D1C
:10112000099420916802260F3327331F213231059D
:10113000ECF420911B03FC0190E080E0243069F086
:1011400082E00895A09168022191AC01485B5D4F57
:10115000A40FB52FB11D2C930196861798F380919B
:101160006802680F6093680280E0089581E0089546
:1011700010921B0381E08093FA021092F50261E065
:1011800082E00E94500561E083E00E945005E9EB97
:10119000F0E080818E7F808380818D7F808388E4F2
:1011A0008093B80085E48093BC0008951092B0024B
:1011B0001092AF021092B2021092D4020E94B808AC
:1011C00089E792E09093AE028093AD028AE792E0C5
:1011D0009093AC028093AB020895CF93DF9391E09C
:1011E0009093A7028823B9F0C091B800D091BA00BB
:1011F0008091BC008A7B8093BC0060E082E00E940A
:10120000500560E083E00E9450050E94B808D0932A
:10121000BA00C093B800DF91CF9108958F929F924A
:10122000AF92BF92CF92DF92EF92FF920F931F93F4
:10123000CF93DF93D82FC62F142F613208F09CC0B4
:101240000E94C5056B017C0180911B0381116FC059
:1012500081E080931B031093FA029FEF9093F902B1
:101260001092F8029C0F9093F7028093F6028091FF
:10127000F602DD0FD82BD093F6028091F502813073
:1012800009F07CC01092F5020E94C5056B017C013B
:101290008091F6028093BB0080911D0390911E0304
:1012A000A0911F03B0912003892B8A2B8B2BA1F0D7
:1012B0000E94C50500911D0310911E0320911F037C
:1012C000309120036C197D098E099F0906171707B5
:1012D0002807390708F44CC08091BC0083FDD8CFA3
:1012E00085EC8093BC000E94C5056B017C01809158
:1012F0001B03813009F444C08091F8028C1710F46C
:10130000C091F802E5EDF2E0ABEFB2E080E08C13C3
:1013100059C08C2FDF91CF911F910F91FF90EF90CB
:10132000DF90CF90BF90AF909F908F900895809165
:101330001D0390911E03A0911F03B0912003892BE0
:101340008A2B8B2B09F480CF0E94C50580901D034A
:1013500090901E03A0901F03B09020036C197D098C
:101360008E099F0986169706A806B90608F06CCF65
:1013700080911C030E94ED08C0E0CBCF85EEB1CF79
:1013800080911D0390911E03A0911F03B091200333
:10139000892B8A2B8B2B09F4AACF0E94C5050091BB
:1013A0001D0310911E0320911F03309120036C191F
:1013B0007D098E099F09061717072807390708F0C6
:1013C00096CFD6CF91919D938F5FA1CF8F929F9211
:1013D000AF92BF92CF92DF92EF92FF920F931F9343
:1013E000CF93DF93D091D402D13208F0D7C0182F19
:1013F000C091D3020E94C5056B017C0180911B0343
:1014000081116BC082E080931B031093FA028FEF6F
:101410008093F9021092F802D093F702A3EBB2E0A6
:10142000E5EDF2E080E0D81391C01092F6028091D1
:10143000F602CC0FC82BC093F6028091F5028130E2
:1014400009F088C01092F5020E94C5056B017C016D
:101450008091F6028093BB0080911D0390911E0342
:10146000A0911F03B0912003892B8A2B8B2BA1F015
:101470000E94C50500911D0310911E0320911F03BA
:10148000309120036C197D098E099F0906171707F3
:101490002807390708F442C08091BC0083FDD8CFEB
:1014A00085EC8093BC000E94C5056B017C01809196
:1014B0001B03823009F450C08091F9028F3F09F478
:1014C0006FC08091F902803209F46CC08091F902FA
:1014D000803309F469C084E026C080911D03909197
:1014E0001E03A0911F03B0912003892B8A2B8B2B05
:1014F00009F484CF0E94C50580901D0390901E03BF
:10150000A0901F03B09020036C197D098E099F09DC
:1015100086169706A806B90608F070CF80911C03BE
:101520000E94ED0885E01092B2021092D40210924F
:10153000B102DF91CF911F910F91FF90EF90DF905B
:10154000CF90BF90AF909F908F9008959D91919371
:101550008F5F69CF85EEA5CF80911D0390911E030B
:10156000A0911F03B0912003892B8A2B8B2B09F4A8
:101570009ECF0E94C50500911D0310911E0320916E
:101580001F03309120036C197D098E099F090617EE
:1015900017072807390708F08ACFC0CF81E0C3CFEB
:1015A00080E0C1CF82E0BFCF83E0BDCF1F93CF9358
:1015B000DF93EA01122FDC0111968D919C91DC01E1
:1015C000ED91FC910280F381E02D0995C817D907B0
:1015D00029F4812F0E94E60991E0811190E0892F82
:1015E000DF91CF911F910895AF92BF92CF92DF927A
:1015F000EF92FF920F931F93CF93DF9300D0CDB75D
:10160000DEB7DC01211103C018962C911897253004
:1016100008F043C01F964D935D936D937C93529752
:1016200090E080E0E22EF12C8E159F05B4F41A961E
:101630002C911A9721110AC0FD01E80FF91F438769
:10164000452F562F672F77270196EECFF701E81B1E
:10165000F90BEA0FFB1F4287F3CF6D018BE0C80E39
:10166000D11C16969C91169717968C911797998373
:101670008A83AD90BC901197A114B10409F441C0C4
:1016800019960C9110E098012E0D3F1DD50114966E
:101690008D919C918217930710F480E016C0F5019C
:1016A00081819281208131E03093B1022093D30275
:1016B0001092B2021092D4020115110599F421E0A2
:1016C000A701B601C5010E94D60A0F900F90DF91C5
:1016D000CF911F910F91FF90EF90DF90CF90BF902F
:1016E000AF900895DC01ED91FC910280F381E02D33
:1016F000A801BE016F5F7F4F09950817190769F6AA
:10170000DECF1296ED91FC911397309731F214963B
:101710002D913C91159719960C9110E023303105CD
:1017200071F48E7F89839A830F5F1F4F9E012F5F15
:101730003F4FA701B601CF010E944F08C6CF211528
:10174000310519F49F779983F1CF2230310511F4D7
:101750009068F9CF2130310549F79F779064F3CF36
:10176000CF93DF93EC018B818823A1F0888191E0F6
:101770009093B1028093D3021092B2021092D402DD
:1017800081E00E94E60991E0811190E0892FDF91CC
:10179000CF9108950E94D60881E08B83CE010E94EC
:1017A000B00B982F8111E2CFF1CF1F93CF93DF932E
:1017B000EC01142F89819A81288131E03093B102A4
:1017C0002093D3021092B2021092D402DC01ED9168
:1017D000FC910190F081E02D099589819A81DC01CD
:1017E000ED91FC910190F081E02D612F099581E050
:1017F000DF91CF911F910C94E609EF92FF920F9326
:101800001F93CF93DF93EC01E42E052FF22E132FBD
:1018100089819A81288131E03093B1022093D302EB
:101820001092B2021092D40224E0629FB0011124FF
:101830006A5F7F4FDC01ED91FC910190F081E02D1A
:1018400009956E2D702F89819A810E948A08602FD8
:1018500070E089819A810E948A086F2D712F898199
:101860009A810E948A08612F70E089819A810E9482
:101870008A0881E0DF91CF911F910F91FF90EF9047
:101880000C94E6099A01803130F4AB01682F88E3AB
:1018900098E00C94FD0B90EF980F903128F4AB0179
:1018A000692F81E398E0F5CF8052803128F4AB01B5
:1018B000682F8AE298E0EDCF0895CF92DF92EF9201
:1018C000FF920F931F93CF93DF93182FC62FE82E0D
:1018D000F12CC701855B9A4F6C01FC01618B66237B
:1018E00069F00E94CC06F701EE0FFF1FEE0FFF1FFD
:1018F000E556FA4F60837183828393831F3008F02B
:10190000B4C0F601D281153008F0ACC00C2F10E045
:1019100061E08D2F0E947E050115110511F460E034
:1019200004C00F3F110561F461E08D2FDF91CF916D
:101930001F910F91FF90EF90DF90CF900C94500586
:10194000ED2FF0E0E258FB4FE491E150EF3008F06A
:1019500084C0F0E0E255F34F0C94BF32BD0CCA0CCA
:10196000CF0CD90CE30C2D0D2D0D2D0DED0CF70C1E
:10197000010D0B0D180D2D0D200D84B5806884BD53
:10198000C7BDDF91CF911F910F91FF90EF90DF9036
:10199000CF90089584B5806284BDC8BDF2CF809198
:1019A00080008068809380001093890000938800F5
:1019B000E8CF8091800080628093800010938B003C
:1019C00000938A00DECF8091800088608093800041
:1019D00010938D0000938C00D4CF8091900080688C
:1019E000809390001093990000939800CACF809143
:1019F000900080628093900010939B0000939A0067
:101A0000C0CF8091900088608093900010939D00DB
:101A100000939C00B6CF8091C00080688093C00086
:101A20008091C0008F7B8093C000C093CF00A9CF6E
:101A30008091C00080628093C000C093D000A1CF8D
:101A40008091C20088608093C2008091C2008B7F29
:101A50008093C200C093D20094CF003811050CF0DF
:101A600063CF5DCFC7FF5BCF5FCF1F3120F4809185
:101A700049058111C09581EF810F50E040E060E0A1
:101A800070E1CF3F61F040E050E170E060E0CC23D6
:101A900031F0F0E1CF9FA001112461E070E0DF910F
:101AA000CF911F910F91FF90EF90DF90CF900C940A
:101AB000420CCF92DF92EF92FF920F931F93CF933E
:101AC000C82F282F30E0F901EC53FC4FDF01A2585A
:101AD000BF4F8C91681708F4862F90814091E304E2
:101AE000442331F0913011F09430F9F480E01DC0BE
:101AF0009430D9F48823C9F0255B3A4FF9019189D4
:101B0000992399F0A4ECB3E030E020E09D9194306B
:101B100009F04EC0F901E55BFA4F9189911148C077
:101B2000C22FE35BFE4F91E090832C2F30E0F90150
:101B3000EC53FC4F9081943009F041C081113FC0BB
:101B4000CA30E8F52856394FF9018081811125C046
:101B500084ECC82E83E0D82E10E000E0F6018191DD
:101B60006F018430A9F4F801E55BFA4F818988237D
:101B700079F07F0183EBE81A8EEFF80AF701808194
:101B8000882331F060E0802F0E945D0CF701108205
:101B90000F5F1F4F0930110509F760E08C2FCF91BF
:101BA0001F910F91FF90EF90DF90CF900C945D0C00
:101BB0002F5F3F4F2930310509F0A8CFB6CF682FEE
:101BC000EDCFCF93DF930E94FE02C0919C07D0E03F
:101BD00080919D078C171D0681F07CF0FE01EC536F
:101BE000FC4F80816CE3823019F0833021F46FEF79
:101BF0008C2F0E94590D2196EBCFDF91CF91089544
:101C00000895E091B0028091AF02E81730F4F0E05F
:101C1000E550FD4F808190E008958FEF9FEF08958C
:101C20009091B0028091AF022FEF3FEF981748F4E8
:101C3000E92FF0E0E550FD4F208130E09F5F909369
:101C4000B002C90108958091AF029091B002891B42
:101C5000990B0895CF92DF92EF92FF920F931F930B
:101C6000CF93DF937C01CB018A012091B102222323
:101C700089F0EB016B01C40ED51ECC15DD0569F0B2
:101C80006991D701ED91FC910190F081E02DC701A0
:101C90000995F3CF642F0E949108C801DF91CF917D
:101CA0001F910F91FF90EF90DF90CF900895CF9309
:101CB000DF931F92CDB7DEB769832091B102222353
:101CC000F9F02091D402203258F021E030E0FC01FC
:101CD0003383228390E080E00F90DF91CF910895CD
:101CE0008091B202E82FF0E0ED54FD4F998190838E
:101CF0008F5F8093B2028093D40281E090E0ECCFBA
:101D000061E0CE0101960E949108F7CF4FE050E0CC
:101D10006DE773E081E793E00C941A2FDC01FB017F
:101D200012962C911297848195812817190641F4F7
:101D300091818081813A31F49D7F81E0913009F079
:101D400080E008958132E1F79B3029F482815C962E
:101D50008C9381E008959A3099F783815D968C93F6
:101D6000F8CFFB0120812138B1F42381223299F48C
:101D7000DC0112964C91129724813581421713068B
:101D800051F421E05C962C934EE450E068E073E05F
:101D900080E80C947E0390E080E00895CF93DF9379
:101DA000CDB7DEB769970FB6F894DEBF0FBECDBFD3
:101DB000FC01DB019C919F5F9C939E012D5F3F4F37
:101DC00081E1D9011D928A95E9F729E0298384E010
:101DD0008A8391E09D8383E08E832A8721E22B878B
:101DE0009C879D879F8722E2288B2EE4298B27E002
:101DF0002B8B25E02C8B8E8B20E430E0388F2F8BC3
:101E0000998F82818B83838180688D8B49E150E03B
:101E1000BE016F5F7F4F80E00E947E0369960FB620
:101E2000F894DEBF0FBECDBFDF91CF910895FC01C6
:101E3000838180640C941C060A970C94170FEFE8BA
:101E4000F3E0248535852817390711F415861486A3
:101E5000329623E0E739F207A1F748E050E06BE95A
:101E600073E089E993E00C941C0FEBE9F3E030E0B8
:101E700020E0419151912F5F3F4F452B79F4220F84
:101E8000331FF901E157FC4F9387828748E050E008
:101E90006BE973E089E993E00C941C0F2430310561
:101EA00041F7F4CFDC01FB0112962C91129784814B
:101EB00095812817190641F491818081813A31F486
:101EC0009D7F81E0913009F080E008958132E1F753
:101ED0009B3029F4828155968C9381E008959A3045
:101EE00099F7838156968C93F8CFFB012081213896
:101EF000B1F42381223299F4DC0112964C911297AD
:101F0000248135814217130651F421E055962C9314
:101F100047E150E061EF72E080E80C947E0390E0CE
:101F200080E00895CF93DF93CDB7DEB769970FB602
:101F3000F894DEBF0FBECDBFFC01DB019C919F5F1B
:101F40009C939E012D5F3F4F81E1D9011D928A959F
:101F5000E9F729E0298384E08A8391E09D8383E087
:101F60008E832A8721E22B879C879D879F8722E289
:101F7000288B27E1298B27E02B8B25E02C8B8E8B60
:101F800020E430E0388F2F8B998F82818B8383817F
:101F900080688D8B49E150E0BE016F5F7F4F80E02C
:101FA0000E947E0369960FB6F894DEBF0FBECDBFC8
:101FB000DF91CF910895CF93DF93EC01FB012A814C
:101FC000848195812817190609F04BC08181908181
:101FD000913A79F4813029F0833039F48F898093F4
:101FE000F10081E0DF91CF9108958230D1F5888DA5
:101FF000F6CF9132B1F58B3019F482818F8BF1CF0E
:102000008A3019F48381888FECCF893051F566814D
:1020100077818381833079F48C8D9D8D6817790762
:1020200001F58A8D9B8D0E94C2038C8D9D8D9068D9
:102030009D8F8C8FD6CF823051F46130710589F439
:1020400061E070E0CE0149960E94C203CACF8130A0
:1020500041F46830710529F468E070E0CE010E9615
:10206000F3CF80E0BFCFCF93DF93CDB7DEB7299713
:102070000FB6F894DEBF0FBECDBFFC014281FB015D
:10208000248135814217130659F52081213841F505
:1020900023812132D1F489E0EDE1F1E0DE011196F6
:1020A00001900D928A95E1F749E050E0BE016F5F23
:1020B0007F4F80E00E947E0329960FB6F894DEBF22
:1020C0000FBECDBFDF91CF910895223249F421E0B8
:1020D000FC01278B45E450E06CEA72E080E8EACF2F
:1020E00090E080E0E9CFCF93DF93CDB7DEB769977B
:1020F0000FB6F894DEBF0FBECDBFFC01DB019C9193
:102100009F5F9C939E012D5F3F4F81E1D9011D92FE
:102110008A95E9F729E0298384E08A8391E09D8309
:1021200083E08E839F8398872A8721E22B879C8771
:102130009D879F8722E2288B25E4298B27E02B8B24
:1021400025E02C8B8E8B20E430E0388F2F8B998FFD
:1021500082818B83838180688D8B49E150E0BE0151
:102160006F5F7F4F80E00E947E0369960FB6F89400
:10217000DEBF0FBECDBFDF91CF910895CF92DF922A
:10218000FF920F931F93CF93DF938C01F42EE62FD2
:10219000F0E0EE0FFF1FE455FF4FC590D490D8013B
:1021A000ED91FC910484F585E02D6C2DC801099515
:1021B000EC01892B11F4F11070C0D0FE0CC0D801D5
:1021C000ED91FC910484F585E02D4F2D60EEC80162
:1021D0000995C82BD92BD1FE0CC0D801ED91FC91EB
:1021E0000484F585E02D4F2D61EEC8010995C82BBB
:1021F000D92BD2FE0CC0D801ED91FC910484F58559
:10220000E02D4F2D62EEC8010995C82BD92BD3FEC6
:102210000CC0D801ED91FC910484F585E02D4F2D83
:1022200063EEC8010995C82BD92BD4FE0CC0D80188
:10223000ED91FC910484F585E02D4F2D64EEC801ED
:102240000995C82BD92BD5FE0CC0D801ED91FC9176
:102250000484F585E02D4F2D65EEC8010995C82B46
:10226000D92BD6FE0CC0D801ED91FC910484F585E4
:10227000E02D4F2D66EEC8010995C82BD92BD7FE4E
:102280000CC0D801ED91FC910484F585E02D4F2D13
:1022900067EEC8010995C82BD92BCE01DF91CF91EC
:1022A0001F910F91FF90DF90CF900895FF920F93B1
:1022B0001F93CF93DF93EC01F62E41E00E94BE10F6
:1022C0008C01892BA9F0E881F9810284F385E02D46
:1022D000CE01099540E06F2DCE010E94BE10892BE2
:1022E00039F0E881F9810284F385E02DCE0109956A
:1022F000C801DF91CF911F910F91FF900895FC01CC
:1023000082818F5BFB01808381E00895089590E0D6
:1023100080E00895FC019C01285F3F4F90E080E041
:1023200044814111019614823196E217F307C1F7F7
:102330000895CF93DF93DC0190E2960F9830B0F4CC
:1023400014968C91149721E030E001C0220F9A95E9
:10235000EAF7442341F0282B14962C9381E090E077
:10236000DF91CF91089520952823F6CFFD01369671
:102370004423D1F0CD010C96EF012991621771F33E
:10238000C817D907D1F790E080E02191211105C04D
:10239000A80FB91F16966C93E1CF01968630910570
:1023A000A1F790E080E0DCCF90E080E02191621323
:1023B00005C0A80FB91F16961C92D0CF0196863083
:1023C0009105A1F7EECF0F931F93CF93DF93082FC3
:1023D000162FC82FD0E0CC53DC4FFE01EF5DFE4F2F
:1023E00060816623A1F0112309F44CC06C3FF0F129
:1023F00082EE90E06C3F21F06D3F59F58AEE90E05F
:102400000E94350FCF5DDE4F8881811126C040913B
:102410007D0350917E0360917F037091800381E082
:1024200090E0A0E0B0E004C0880F991FAA1FBB1F76
:102430000A95D2F71123C9F1842B952BA62BB72B24
:1024400080937D0390937E03A0937F03B0938003DA
:1024500008C089EE90E06E3F99F280914405882390
:10246000B1F2DF91CF911F910F91089541E080EB80
:1024700093E00E949911892B29F280EB93E00E944E
:102480002C2FC0CF6C3F78F082EE90E06C3F41F093
:102490008AEE90E06D3F21F06E3FF9F689EE90E014
:1024A0000E941F0FAFCF40E0E2CF80959095A0959E
:1024B000B09584239523A623B723C2CFCF92DF9272
:1024C000EF92FF920F931F93CF93DF93D82FC62FD6
:1024D00021E0209340053091DE04832F68E10E94C3
:1024E0009F329D1304C03831E8F4C093E304ED2E0D
:1024F000F12CF701EB5FFA4F8081882311F1C111B4
:1025000049C090913D058917A8F48F5F8083C1E091
:102510008C2FDF91CF911F910F91FF90EF90DF9063
:10252000CF900895CC2319F38091E3048227809300
:10253000E304DDCF81E080838091A5078150809303
:10254000A5078CEF8D0F883000F5C11116C08701EB
:102550000F5C1A4FF8018081882379F0E091E10443
:10256000F0E0E35EFA4F8081811107C060E084E112
:102570008D0F0E94E311F8011082E091E104F0E078
:10258000E35EFA4F8081811109C0D093A3076C2FBD
:102590008D2F19C08091A5078F5FD1CF84E18D0F5A
:1025A0008093A307E82FF0E0E35EFA4FC0836C2F1F
:1025B0000E94E311C11109C060E08D2F0E94E31158
:1025C00060E08091A3070E94E31106EC14E08AEC1E
:1025D000C82E84E0D82EF80181918F01CC2379F0A8
:1025E000882349F08150990BE816F90621F483817C
:1025F0006FEF81110FC0C016D10669F789CF88230C
:10260000D1F38150990BE816F906A9F78381882345
:1026100091F360E081500E94590DEDCFFC010190D3
:102620000020E9F73197AF01481B590BBC0181E24B
:1026300093E00C94B6068F929F92AF92BF920F9345
:102640001F93CF93DF93CDB7DEB7A1970FB6F89462
:10265000DEBF0FBECDBF19A2423008F44AE08E01A2
:102660000F5D1F4F842E912CB12CA12CA50194013C
:102670000E94D32FE62FB901CA01EA30F4F4E05DDD
:10268000D801EE938D01232B242B252B79F790E095
:1026900080E0109719F0CD010E940E13A1960FB69D
:1026A000F894DEBF0FBECDBFDF91CF911F910F9188
:1026B000BF90AF909F908F900895E95CE1CFCF924B
:1026C000DF92EF92FF92CF93DF936C01990FEE08A8
:1026D000FF08F7FE19C06DE281E293E00E946704F3
:1026E000EC0166277727CB016C197D098E099F09BC
:1026F0004AE00E941B138C0F9D1FDF91CF91FF902A
:10270000EF90DF90CF9008954AE0C701B601DF91C6
:10271000CF91FF90EF90DF90CF900C941B130E940D
:102720005F138AE794E00C947D044F925F926F925E
:102730007F928F929F92AF92BF92CF92DF92EF9251
:10274000FF920F931F93CF936B017C01742EAC010A
:102750009B010E949A32882399F08FE192E0CF91F9
:102760001F910F91FF90EF90DF90CF90BF90AF90AF
:102770009F908F907F906F905F904F900C940E136E
:1027800046015701E894B7F82FEF3FEF4FE75FE7B7
:10279000C501B4010E949A3281110DC02FEF3FEFA5
:1027A0004FE75FE7C501B4010E94713018161CF4B1
:1027B00083E292E0D4CF2FEF3FEF4FE75FE4C70112
:1027C000B6010E94283218161CF487E292E0C7CFA7
:1027D0002FEF3FEF4FE75FECC701B6010E9471306A
:1027E00087FDF3CF20E030E0A901C701B6010E94C8
:1027F000713010E000E087FF0AC06DE281E293E0F3
:102800000E9467048C01F7FAF094F7F8F094C0E0A6
:1028100060E070E080E09FE37C1641F020E030E073
:1028200040E251E40E947630CF5FF6CFA7019601D7
:102830000E9405302B013C010E94EF304B015C01EE
:102840004AE00E941B137C01E00EF11ECC23C1F173
:10285000C501B4010E941E319B01AC01C301B2014C
:102860000E9404304B015C016EE281E293E00E9421
:102870006704E80EF91EC15018F120E030E040E294
:1028800051E4C501B4010E942D322B013C010E948C
:10289000EF304B01B12CA12C4AE0C501B4010E94DC
:1028A0001B13E80EF91EC501B4010E941E319B01E5
:1028B000AC01C301B2010E9404304B015C01DBCFCB
:1028C000C701CF911F910F91FF90EF90DF90CF90B4
:1028D000BF90AF909F908F907F906F905F904F9040
:1028E0000895682F70E090E080E04AE00E941B139A
:1028F0008CE794E00C947D040F931F93CF93DF93A8
:10290000162F082FEC0189910E9471148C2F801BC7
:102910008117C8F3DF91CF911F910F9108953F92D6
:102920004F925F926F927F928F929F92AF92BF92DF
:10293000CF92DF92EF92FF920F931F93CF93DF938B
:1029400000D0CDB7DEB7FC014B01042F9681878103
:1029500099838A83C080D180C114D10409F479C0DD
:10296000418550E0D60114968D919C91841795076E
:10297000B0F4312C832D0F900F90DF91CF911F91E8
:102980000F91FF90EF90DF90CF90BF90AF909F900E
:102990008F907F906F905F904F903F900895F601D9
:1029A000808191E09093B1028093D3021092B202A1
:1029B0001092D40220E0BE016F5F7F4FC6010E94DB
:1029C000D60A382E8823A9F210E0B12CA12CA0162B
:1029D000B10680F6D60114968D919C917801EA1883
:1029E000FB088E159F0508F47C0141E0C8018E1993
:1029F0009F09A816B90608F440E06E2D613208F070
:102A000060E2F60180810E940E091092B00280936C
:102A1000AF028E151F0409F0ACCF34016A0C7B1C89
:102A20002301C201861997098E159F0578F4D601F6
:102A300011968D919C91DC01ED91FC910284F385BE
:102A4000E02D0995F20181932F01EBCFAE0CBF1C55
:102A5000BECFA281B381109709F48BCF2481358139
:102A600010E0418550E02330310571F481608983A5
:102A70009A834F5F5F4F9401BE016F5F7F4FCD011F
:102A80000E941308382E76CF2115310519F490686D
:102A90009983F1CF2230310511F49F77F9CF21309E
:102AA000310549F7906CF4CFAF92BF92CF92DF928D
:102AB000EF92FF920F931F93CF93DF93CDB7DEB7C3
:102AC000A1970FB6F894DEBF0FBECDBF80915B0813
:102AD00090915C08188A198A1A8A1B8A9A838983BA
:102AE0001C821B8281E08A878BE390E098878F832A
:102AF0001B868EE089874EE0BE016C5E7F4FCE0163
:102B000001960E948F146C897D8976276727762726
:102B10007093540860935308AE88BF88BA24AB24DE
:102B2000BA24B0925608A0925508088D198D102726
:102B300001271027109358080093570880915908CF
:102B400090915A08C12CD12CE12C35E4F32E83301E
:102B5000910501F1C12CD12C20E8E22E25E4F22EC2
:102B600082309105B9F08130910579F0C12CD12CDA
:102B700040E8E42E4FE3F42E892B61F4C12CD12CD4
:102B800080E8E82E86E4F82E05C0C12CD12CE12C7B
:102B900096E4F92E072E000C880B990B0E94203129
:102BA000A70196010E9476302AE038EE4CE151E40C
:102BB0000E942D326093470870934808809349081B
:102BC00090934A08B501BB0C880B990B0E942031E9
:102BD000A70196010E9476302AE038EE4CE151E4DC
:102BE0000E942D3260934B0870934C0880934D08DF
:102BF00090934E08B801110F880B990B0E94203159
:102C0000A70196010E9476302AE038EE4CE151E4AB
:102C10000E942D3260934F087093500880935108A2
:102C200090935208A1960FB6F894DEBF0FBECDBFA9
:102C3000DF91CF911F910F91FF90EF90DF90CF9098
:102C4000BF90AF900895CF92DF92EF92FF92CF9313
:102C500060E971E080E090E00E94EA051092FB06D6
:102C60001092FC061092FD061092FE061092FF06CE
:102C7000109200071092010710920207C2E30E940F
:102C800054158091CE04883008F465C020914F0817
:102C90003091500840915108509152086091FB06C4
:102CA0007091FC068091FD069091FE060E94053011
:102CB0006093FB067093FC068093FD069093FE06DE
:102CC00020914B0830914C0840914D0850914E088E
:102CD0006091FF06709100078091010790910207B3
:102CE0000E9405306B017C01C092FF06D092000764
:102CF000E0920107F0920207C15009F0C0CF20E036
:102D000030E048E452E46091FB067091FC0680914B
:102D1000FD069091FE060E9476306093FB0670934C
:102D2000FC068093FD069093FE0620E030E048E428
:102D300052E4C701B6010E9476306093FF0670939B
:102D400000078093010790930207CF91FF90EF90C7
:102D5000DF90CF9008952091470830914808409126
:102D6000490850914A089ACFCF93DF93EC01BC01F8
:102D7000655F7F4F48850E948F14882301F1488545
:102D800050E030E020E060E070E0CB012417350730
:102D9000CCF4982F872F762F6627EA85E1110AC099
:102DA000FA01E21BF30BEC0FFD1FE2856E2B2F5F88
:102DB0003F4FECCFFE01E20FF31FE385F7CF6FEF3C
:102DC0007FEFCB01DF91CF9108958F929F92AF92C9
:102DD000BF92CF92DF92EF92FF920F931F93CF9308
:102DE000DF93EC014A015B01888199810E94B4164E
:102DF0002A8101E010E002C0000F111F2A95E2F7BE
:102E000001501109012E000C220B330BAB8168011C
:102E100079010A2E04C0CC0CDD1CEE1CFF1C0A94A8
:102E2000D2F7C094D094E094F094C622D722E8223E
:102E3000F922E881F981B901A801482159216A21C3
:102E40007B2104C0440F551F661F771FAA95D2F738
:102E50004C295D296E297F292085CF01DF91CF91F3
:102E60001F910F91FF90EF90DF90CF90BF90AF90A8
:102E70009F908F900C94F40ACF93DF93CDB7DEB779
:102E800067970FB6F894DEBF0FBECDBFE7E4F8E05A
:102E900024893589188A198A1A8A1B8A3A832983D0
:102EA0001C821B8291E09A872CE130E038872F83C7
:102EB0001B8699879E012F5F3F4F3D8B2C8B92E0A5
:102EC0009E8B93E09F8B282F30E0338B228B482FF3
:102ED00050E070E060E0CE0144960E94E5166796EF
:102EE0000FB6F894DEBF0FBECDBFDF91CF9108952E
:102EF0008091CE04883008F0885080930C07609150
:102F0000D8047091D904072E000C880B990B0E94ED
:102F1000203160930D0770930E0780930F079093F5
:102F200010076091DA047091DB04072E000C880B07
:102F3000990B0E94203160931107709312078093C0
:102F40001307909314078091D1040E943C170C94AE
:102F50002316EF92FF920F931F93CF93DF93CDB77A
:102F6000DEB7C154D1090FB6F894DEBF0FBECDBF96
:102F700087E4E82E88E0F82EF701848995891EAA57
:102F80001FAA18AE19AE98A78FA31AA619A611E00A
:102F900018AB89E190E09EA78DA719AA1FA720E092
:102FA00040E050E0BA01CE0187960E94F40AF70192
:102FB000848995891BA21CA21DA21EA29D8B8C8BAD
:102FC0001F8A1E8A1D8F8AE190E09B8F8A8F1E8E3A
:102FD0001C8FCE0144969FAF8EAF03E021960FAFBA
:102FE000219722961FAE229746E050E060E070E005
:102FF0008A960E94E516F70184899589188A198AAC
:103000001A8A1B8A9A8389831C821B821A878CE105
:1030100090E098878F831B861987CE0101969BAF1E
:103020008AAF0CAF1DAE44E050E060E070E0C9969E
:103030000E94E516CF5BDF4F0FB6F894DEBF0FBEE0
:10304000CDBFDF91CF911F910F91FF90EF90089529
:10305000EF92FF920F931F93CF93DF93CDB7DEB71D
:10306000ED970FB6F894DEBF0FBECDBF80915B0821
:1030700090915C08009711F00E94753364E670E04F
:1030800080E090E00E94EA0586E090E00E94D9325C
:103090008C0188E6F80180838EE198E09283818339
:1030A000138280E290E09583848310935C08009300
:1030B0005B080E94D608FF24F394F801F382C8014C
:1030C0000E94B00BE82E882309F49AC080915B0817
:1030D00090915C081EAA1FAA18AE19AE98A78FA3DC
:1030E0001AA619A6F8AA2BE630E03EA72DA719AA22
:1030F000FFA61BA21CA21DA21EA29D8B8C8B1F8A49
:103100001E8AFD8E88E690E09B8F8A8F1E8EFC8E35
:10311000CE0187969BAF8AAFFCAE87E08DAF41E0D2
:1031200050E060E070E0CE01CA960E94E51601E032
:1031300010E08AAD9BAD0E94B416AB01BC018CAD12
:10314000980102C0220F331F8A95E2F7C901019747
:10315000092E000CAA0BBB0B2DAD04C0769567950C
:10316000579547952A95D2F784239523A623B7230D
:103170000197A105B10539F461E070E080E090E0CD
:103180000E94EA05D6CF64E670E080E090E00E94FD
:10319000EA0520E047E050E060E070E0CE014496B0
:1031A0000E94F40A64E670E080E090E00E94EA0584
:1031B0000E94A91780E00E943C1780915B089091C3
:1031C0005C08188A198A1A8A1B8A9A8389831C8246
:1031D0001B8281E08A872BE630E038872F831B86AD
:1031E000898720E041E050E060E070E0CE01019688
:1031F0000E94F40A64E670E080E090E00E94EA0534
:103200008E2DED960FB6F894DEBF0FBECDBFDF91C9
:10321000CF911F910F91FF90EF9008958F929F9201
:10322000AF92BF92CF92DF92EF92FF921F93CF9314
:10323000DF93EC016A017B0120E030E040E85FE3CE
:10324000CB01B6010E94713087FDA3C020E030ECB5
:103250004AE555E4C701B6010E94283218163CF42D
:10326000C12C30ECD32E3AE5E32E35E4F32E6B81FE
:103270007C818D819E810E941E314B015C0120E08A
:1032800030E040E855E4C701B6010E942D329B01B1
:10329000AC01C501B4010E94763020E030E040E08E
:1032A0005FE30E94053020E030E040E85FE30E94E9
:1032B00004306B017C0120E030E040E450E40E94E7
:1032C000713087FD6DC020E030E04FE753E4C70167
:1032D000B6010E942832181634F4C12CD12C9FE775
:1032E000E92E93E4F92E89819A81288131E0309387
:1032F000B1022093D3021092B2021092D402DC01E8
:10330000ED91FC910190F081E02D60E0099581E064
:103310000E94E60941E061E088810E940E09109256
:10332000B0028093AF0289819A81DC01ED91FC911A
:103330000284F385E02D0995182F482F4F764061C0
:1033400060E0CE010E94D50BC701B6010E94EF30AC
:10335000462F6EEFCE010E94D50B412F60E0CE01CB
:103360000E94D50B65E070E080E090E00E94EA05E5
:10337000412F406A60E0CE01DF91CF911F91FF9015
:10338000EF90DF90CF90BF90AF909F908F900C9474
:10339000D50BC12CD12C20E8E22E2FE3F22E67CFE3
:1033A000C12CD12C80E4E82EFE2C9DCFCF93DF934F
:1033B000EC010E94D60840E860E0CE010E94D50BE7
:1033C0006AE070E080E090E00E94EA0540E050E0B2
:1033D0006AE774E4CE010E940E1980E498E7ADE735
:1033E000B1E08B839C83AD83BE83DF91CF91089541
:1033F000CF93DF93EB010E948B2F8883CE01DF9167
:10340000CF9108950F931F93CF938C010E948B2F20
:10341000C82FC80101960E948B2F2C2F30E0322F2D
:103420002227820F932F911DCF911F910F91089505
:10343000CF93DF93EB010E948B2F8883CE01DF9126
:10344000CF91089585ED8093BC0080911D039091EC
:103450001E03A0911F03B09120030796A11DB11D6B
:1034600023E0B695A795979587952A95D1F7209152
:10347000BC0024FD03C010921B03089540911D035E
:1034800050911E0360911F0370912003452B462B22
:10349000472B69F30097A105B10541F02AE22A956F
:1034A000F1F700C00197A109B109E1CF80911C0398
:1034B0000C94ED080C94932F1F93CF93DF93EC01A2
:1034C000162F672F0E945A1A612FCE010196DF91A5
:1034D000CF911F910C945A1AEF92FF920F931F9362
:1034E000CF93DF9384ECE82E83E0F82E02E414E01F
:1034F000D0E0C0E0F70161917F01CE010E945A1A2D
:10350000F70166ADCE018C599F4F0E945A1AF801FF
:1035100061918F01CE0188539F4F0E945A1AF80182
:1035200066ADCE01845D9E4F0E945A1A2196CF331C
:10353000D10501F76091C0047091C10481E991E067
:103540000E945C1A6091C2047091C30483E991E007
:103550000E945C1A6091C4047091C50485E991E0F1
:103560000E945C1A06EC14E0C7E9D1E0F801619111
:103570008F01CE010E945A1A2196CB39F1E0DF0764
:10358000A9F70AEC14E0C1EAD1E0F80161918F01DA
:10359000CE010E945A1A2196C53AF1E0DF07A9F739
:1035A0006091CE048AEA91E00E945A1A6091D00498
:1035B0008BEA91E00E945A1A6091D10482EC91E06A
:1035C0000E945A1A6091D2047091D30484EC91E065
:1035D0000E945C1A6091DC0486EC91E00E945A1A09
:1035E0006091D4047091D50487EC91E00E945C1A3C
:1035F0006091D8047091D90489EC91E00E945C1A22
:103600006091DD048BEC91E00E945A1A6091DE0417
:103610008CEC91E00E945A1A6091DF048DEC91E0ED
:103620000E945A1A6091E0048EEC91E00E945A1AAE
:103630006091E1048FEC91E00E945A1A609141057B
:1036400080ED91E00E945A1A6091420581ED91E06F
:103650000E945A1A6091430582ED91E00E945A1A25
:103660006091440583ED91E00E945A1A6091D6045E
:103670007091D70484ED91E00E945C1A6091DA04A5
:103680007091DB0486ED91E00E945C1A05EE14E077
:10369000C4EFD1E0F80161918F01CE010E945A1A66
:1036A0002196C431F2E0DF07A9F705E015E0F80143
:1036B00061918F01CE010E945A1A2196CC32F2E01C
:1036C000DF07A9F760913D0584E392E00E945A1A52
:1036D0006091450585E392E00E945A1A6091460583
:1036E00086E392E00E945A1A6091470587E392E0D0
:1036F0000E945A1A6091480588E392E00E945A1A83
:103700006091490589E392E00E945A1A65E688EEC5
:1037100093E0DF91CF911F910F91FF90EF900C9468
:103720005A1A1F920F920FB60F9211248F939F93E4
:103730008091E1009091E100937F9093E10083FFFD
:103740000FC01092E90091E09093EB001092EC0012
:1037500092E39093ED001092AA0298E09093F0000B
:1037600082FF22C093E09093E9009091F2009923A8
:1037700019F09AE39093E8009091A502992341F003
:103780009091A50291509093A502911101C05D9A6C
:103790009091A902992341F09091A90291509093A0
:1037A000A902911101C0289A84FF18C08091E200FB
:1037B0008E7E81608093E2008091E1008F7E809315
:1037C000E1008091A8028E7E80618093A8029F9183
:1037D0008F910F900FBE0F901F90189580FFF7CF1D
:1037E0008091E2008E7E80618093E2008091E10012
:1037F0008E7E8093E1008091A8028E7E8160E5CF6D
:103800001F920F920FB60F921124CF92DF92EF9278
:10381000FF920F931F932F933F934F935F936F9359
:103820007F938F939F93AF93BF93EF93FF93CF9328
:10383000DF93CDB7DEB76C97DEBFCDBF1092E90046
:103840008091E80083FF25C068E0CE0145960E9484
:10385000B50382EF8093E8008D8987FF39C090918E
:10386000E80090FFFCCF982F907609F034C19E8934
:103870004F89588D2F89F88C911131C0803861F5AE
:103880008091A6028093F1001092F1008EEF809358
:10389000E8006C960FB6F894DEBF0FBECDBFDF9187
:1038A000CF91FF91EF91BF91AF919F918F917F91B8
:1038B0006F915F914F913F912F911F910F91FF90C9
:1038C000EF90DF90CF900F900FBE0F901F90189544
:1038D0009EEF9093E800C7CF1092F100D5CF9130C2
:1038E00059F48111D3CF4130510581F68091A60260
:1038F0008D7F8093A602CACF933049F48111C6CF41
:103900004130510519F68091A6028260F2CF9530C0
:1039100041F48091E80080FFFCCF20682093E30011
:10392000B5CF963009F0A9C00B8D1C8D22E0109206
:10393000E9001092A3021092A202F2122EC010927D
:10394000A1021092A0020E9436041F8299E099837E
:10395000FA8291E09E8390EA98879AEF9987209166
:10396000A2023091A302275F3F4F3C832B838D83BC
:103970001092E9001092A3021092A2021093A102E9
:103980000093A00249E050E0BE016F5F7F4F80E0EE
:103990000E947E030E94360479CF1093A102009307
:1039A000A0020E942204DC0112960D911C910115C7
:1039B000110509F44BC1D801ED91FC910480F5810A
:1039C000E02DBE016B5E7F4FC8010995009709F09D
:1039D00038C1F80100851185EACFF3E0FF120EC06F
:1039E0008F89882309F440C0823061F440E860E1A7
:1039F00081ED93E00E944B03811148CF81E28093D7
:103A0000EB0047CF813029F440E866E08AEC93E090
:103A1000F1CF833099F70E942204DC011296ED90D9
:103A2000FC908E010F5F1F4F6801E114F10479F0E3
:103A3000D701ED91FC910680F781E02DB801C70117
:103A40000995080F111DF701E084F184EECFD8012C
:103A50001C92F60101900020E9F73197BF016C1923
:103A60007D0940E0C601C6CF64EB73E0FB014491E1
:103A700050E080E80E947E0309CF973009F4BECF62
:103A8000983021F481E08093F10000CF993009F063
:103A9000FDCE837009F0B2CFE1E0F1E081E031E0EA
:103AA00096E32191222371F08093E9003093EB009B
:103AB000DF0111972C912093EC009093ED008F5F24
:103AC000873079F78EE78093EA001092EA008F89B9
:103AD0008093AA02DBCE8B8D9C8D1092E900109210
:103AE000A3021092A2029093A1028093A002898D5A
:103AF00081118CC08E899D89913A49F4813209F0F7
:103B00007DCF47E050E06BE071E080E0B3CF9132D1
:103B100009F074CF833269F48F89988DB0E0A0E00A
:103B20008093070190930801A0930901B0930A01C3
:103B3000ADCE803239F467E070E08BE091E00E9416
:103B4000C203A4CE823209F0A1CE8F8980931201E4
:103B5000EEEFFFE7859194918B3F9C4D51F1E0E0B2
:103B6000F8E080910B0190910C01A0910D01B091B2
:103B70000E01803B9440A105B105F1F48091120142
:103B800080FD1AC0EE3F8AE0F80789F587E797E7DE
:103B900091838083809160008093A40288E19BE000
:103BA0000FB6F894A895809360000FBE90936000C4
:103BB0006DCEEEEFFAE0D5CF8081918187379747C0
:103BC00009F064CEA89580916000886180936000C0
:103BD0008091A40280936000EE3F2AE0F20789F012
:103BE0008091FE0A9091FF0A918380834FCE80815D
:103BF00091818737980751F29093FF0A8093FE0ACC
:103C0000C5CF1092FF0A1092FE0A40CE0E942204F5
:103C1000DC0112960D911C910115110509F4EECEEF
:103C2000D801ED91FC910190F081E02DBE016B5E19
:103C30007F4FC8010995811129CEF80100851185B2
:103C4000EBCF181619060CF421CED8CEF1E0FF12F6
:103C5000C4CE68EB73E00ACF1F920F920FB60F929B
:103C600011242F933F938F939F93AF93BF93809192
:103C70008C0290918D02A0918E02B0918F023091B2
:103C80008B0223E0230F2D3758F50196A11DB11D9E
:103C900020938B0280938C0290938D02A0938E02CE
:103CA000B0938F028091900290919102A091920224
:103CB000B09193020196A11DB11D80939002909343
:103CC0009102A0939202B0939302BF91AF919F9102
:103CD0008F913F912F910F900FBE0F901F901895CD
:103CE00026E8230F0296A11DB11DD2CF1F920F927D
:103CF0000FB60F9211242F933F934F935F936F93BF
:103D00007F938F939F93AF93BF93EF93FF93809194
:103D1000B900887F803609F44AC0F0F5883209F48A
:103D2000A7C018F5803109F49BC0B8F4882309F4C2
:103D3000F9C0883009F494C0FF91EF91BF91AF9121
:103D40009F918F917F916F915F914F913F912F91B3
:103D50000F900FBE0F901F901895883109F488C0FE
:103D6000803251F78093F90214C0803409F49DC069
:103D700040F48033B9F38833F9F68093F90285EC87
:103D8000B0C0803509F485C0883509F496C0883400
:103D900099F60E94221AD0CF883909F48CC038F5E0
:103DA000883729F050F4883611F0803729F683E0FF
:103DB00080931B0310928A0257C0883809F47BC095
:103DC000803919F0803809F0B7CF80918A028032AB
:103DD00008F071C0E0918A0281E08E0F80938A0220
:103DE0008091BB00F0E0E659FD4F80833DC0803BF1
:103DF00039F0E0F4803A09F479C0883A09F09CCFB0
:103E000084E080931B031092690210926802E09193
:103E1000AD02F091AE0209958091680281110FC048
:103E200081E0809368021092480209C0803C09F446
:103E3000A6CF883C09F4A3CF883B09F07DCFE09161
:103E4000690281E08E0F80936902F0E0E85BFD4F2C
:103E500080818093BB00909169028091680229C0A3
:103E60008091F6028093BB0085EC8093BC0064CF08
:103E70009091F8028091F702981758F5E091F802B6
:103E800081E08E0F8093F802F0E0EB52FD4F8081CD
:103E9000E9CFE091F80281E08E0F8093F8028091E3
:103EA000BB00F0E0EB52FD4F80839091F8028091CF
:103EB000F7029817C8F285E8D8CFE091F80281E0C0
:103EC0008E0F8093F8028091BB00F0E0EB52FD4F23
:103ED00080838091FA0281115CCF81E08093F502AA
:103EE00084EA8093BC0010921B0326CF85EC80935C
:103EF000BC0010921B0380918A02803230F4E09162
:103F00008A02F0E0E659FD4F108260918A0270E06B
:103F1000E091AB02F091AC028AE692E00995109232
:103F20008A020ACF1092F90234CFCF93DF93FC01BB
:103F3000DB01818114963C911497682F630F7727DA
:103F4000771F683071059CF5C281D381209739F5C0
:103F5000B383A283908112969C93129713968C93AD
:103F6000139715968C911597890F808390E080E0C8
:103F7000831708F52181C22FD0E0BE0160507F4F2A
:103F800016964D915C911797480F591FEA01488189
:103F9000EB0148832F5F21830196EACFEA01488530
:103FA000598541155105D1F7B987A887D3CF80E04E
:103FB000DF91CF91089581E0FBCFCF93DF931092F3
:103FC00024031092230388EE93E0A0E0B0E08093F6
:103FD000250390932603A0932703B093280327EB90
:103FE00031E030932203209321032FEF3FEF3093F2
:103FF0002E0320932D031092210810922008809305
:10400000220890932308A0932408B093250889ECF4
:1040100091E090931F0880931E08C1E0C093750340
:10402000C09376038CE893E09093780380937703B2
:1040300010927A03109279038BED91E090937203C2
:104040008093710389EE91E090937C0380937B03CE
:10405000C0938D03C0938E03D1ECD0938C030E9448
:10406000220461E773E00E94951FC0939303C093FD
:10407000940383EA93E090939603809395031092C0
:104080009803109297038FEE91E0909390038093A2
:104090008F038DEF91E090939A0380939903C093DF
:1040A000A403C093A503D093A3030E9422046FE846
:1040B00073E00E94951FC093AA03C093AB038CEBDF
:1040C00093E09093AD038093AC031092AF031092F2
:1040D000AE031092B3031092B20383E092E0909388
:1040E000A7038093A60381E192E09093B1038093AC
:1040F000B003C093BD03C093BE031092BF031092E0
:10410000C1031092C0031092C3031092C203D09354
:10411000BC030E94220466EA73E00E94951F10927D
:10412000A6071092A7071092B0071092B10710923D
:10413000B2071092B3071092B4071092B50710920D
:10414000B6071092B707E8EBF7E084E6DF011D92AF
:104150008A95E9F710921C0810921D0862E087E129
:104160000E947E051092A3071092A4071092A50743
:1041700061E084E00E947E0561E081E00E947E05AE
:1041800060E080E00E947E0561E081E00E947E05A3
:10419000109216078FE3EBE1F7E0DF01382F1D9255
:1041A0003A95E9F7EAE5F7E0DF01382F1D923A95F5
:1041B000E9F71092990710929A0795E090939B0760
:1041C00010929C0710929D07C0939E0740E157E212
:1041D00060E070E040939F075093A0076093A107B1
:1041E0007093A2071092FA061092FB061092FC063A
:1041F0001092FD061092FE061092FF061092000724
:1042000010920107109202071092080710920707F8
:1042100010920A071092090710920B0710920C07D0
:1042200010920D0710920E0710920F0710921007B0
:104230001092110710921207109213071092140790
:10424000109215071092A2062BE232E03093A406DA
:104250002093A3061092A50698EC9093A6069AEFD9
:104260009093A7069BEF9093A8062CEF2093A906A6
:104270009DEF9093AA069FEF9093AB061092AC0629
:104280001092B8061092B7061092BA061092B906AC
:10429000EBEBF6E0DF01382F1D923A95E9F710922B
:1042A0004B059FE090934C05E6E2F1E0ADE4B5E00C
:1042B00001900D929A95E1F7ECE5F5E0DF011D9292
:1042C0008A95E9F7EBE9F5E0DF011D922A95E9F718
:1042D00010929706E8E9F6E08AE0DF011D928A95E0
:1042E000E9F7CBE4D5E0CE018B549540219620919F
:1042F0004C052817190631F02CF061E089810E94E5
:104300007E05F1CF8FE3E5E3F1E0A4ECB3E00190AB
:104310000D928A95E1F78FE3E3E0F4E0DF01382FB7
:104320001D923A95E9F79AE190932104E4E7F1E0D0
:10433000A2E4B4E0982F01900D929A95E1F7E1E89C
:10434000F4E0DF011D928A95E9F788EC80939F04E1
:104350008AE493E09093C1048093C0048DE390E0DD
:104360009093C3048093C2048BEC90E09093C504B7
:104370008093C4041092C6041092C7041092C8041B
:104380001092C9041092CA041092CB041092CC046B
:104390001092CD041092CE041092CF0481E080934D
:1043A000D0041092D1042EE130E03093D304209356
:1043B000D2042AEF30E03093D5042093D404309314
:1043C000D7042093D60428E131E03093D904209318
:1043D000D8043093DB042093DA041092DC049AE0D2
:1043E0009093DD042EE02093DE0427E12093DF0488
:1043F00026E12093E00422E02093E1041092E204FD
:104400001092E3048093E40420E2E5EEF4E0DF019F
:10441000322F1D923A95E9F7E5E0F5E038E1DF014A
:104420001D923A95E9F7EDE1F5E0DF011D922A953D
:10443000E9F710923D0520E520933E0520933F05C6
:104440001092400580934105809342058093430577
:1044500080934405809345059093460580934705D6
:10446000909348058093490510924A0580E4809313
:1044700038088EE198E090933A088093390821E457
:1044800020933108909333088093320822E42093DC
:104490002A0890932C0880932B0810923F081092C2
:1044A000400810924108109242081092430810925E
:1044B0004408109245081092460810925A0810922B
:1044C000590810925C0810925B08DF91CF91089513
:1044D000CF93DF931F92CDB7DEB7789484B5826017
:1044E00084BD84B5816084BD85B5826085BD85B598
:1044F000816085BD80916E00816080936E00109216
:104500008100809181008260809381008091810090
:104510008160809381008091800081608093800021
:1045200080919100826080939100809191008160E0
:1045300080939100809190008160809390008091A1
:10454000C10084608093C1008091C100826080932B
:10455000C1008091C10081608093C1008091C3003F
:1045600081608093C3008091C00082608093C0000E
:104570008091C20081608093C20080917A00846043
:1045800080937A0080917A00826080937A00809193
:104590007A00816080937A0080917A0080688093AD
:1045A0007A001092AA021092A6021092A80280919C
:1045B000D70081608093D70080EA8093D80089B5C6
:1045C000806189BD89B5826089BD89B5282F217038
:1045D000A22E80FFFACF61E070E080E090E00E94C0
:1045E000EA058091D8008F7C80618093D80080910B
:1045F000E000807F8093E0008091E1008E7E8093D8
:10460000E1008DE08093E200559A209A8FEF9FEFB2
:1046100090932E0380932D0368EE73E080E090E08A
:104620000E94EA0568EE73E080E090E00E94EA05EF
:10463000EDE7F3E08FE0DF011D928A95E9F74FE0A7
:1046400050E0BF0181E793E00E941A2FBE016F5F27
:104650007F4F88EE93E00E94181A8981853609F011
:1046600094C210E000E0B8016C537C4FC8010E9476
:10467000181AB8016D5F7B4FC8018C599F4F0E947B
:10468000181AB8016E5B7B4FC80188539F4F0E9478
:10469000181AB8016F577B4FC801845D9E4F0E9466
:1046A000181A0F5F1F4F0F331105E9F681E991E0EA
:1046B0000E94021A9093C1048093C00483E991E0A0
:1046C0000E94021A9093C3048093C20485E991E08A
:1046D0000E94021A9093C5048093C40466EC74E0AF
:1046E00087E991E00E94181A6AEC74E081EA91E08F
:1046F0000E94181A67EC74E088E991E00E94181A89
:104700006BEC74E082EA91E00E94181A68EC74E0A5
:1047100089E991E00E94181A6CEC74E083EA91E058
:104720000E94181A69EC74E08AE991E00E94181A54
:104730006DEC74E084EA91E00E94181A6EEC74E06B
:104740008AEA91E00E94181A60ED74E08BEA91E029
:104750000E94181A8091D0048093CF0461ED74E018
:1047600082EC91E00E94181A84EC91E00E94021AF7
:104770009093D3048093D2046CED74E086EC91E0C6
:104780000E94181A87EC91E00E94021A9093D504B7
:104790008093D40489EC91E00E94021A9093D9048A
:1047A0008093D8046DED74E08BEC91E00E94181AB0
:1047B0006EED74E08CEC91E00E94181A6FED74E0DD
:1047C0008DEC91E00E94181A60EE74E08EEC91E09E
:1047D0000E94181A61EE74E08FEC91E00E94181AA2
:1047E00061E475E080ED91E00E94F81962E475E003
:1047F00081ED91E00E94F81963E475E082ED91E0AB
:104800000E94F81964E475E083ED91E00E94F819C4
:1048100084ED91E00E94021A9093D7048093D6040D
:1048200086ED91E00E94021A9093DB048093DA04F3
:1048300004EF11E0B8016F507D4FC8010E94181AB3
:104840000F5F1F4F0431B2E01B07A1F7B8016F5093
:104850007D4FC8010E94181A0F5F1F4F0C32E2E013
:104860001E07A1F76DE375E084E392E00E94181A39
:1048700065E475E085E392E00E94F81966E475E06E
:1048800086E392E00E94181A67E475E087E392E0FD
:104890000E94F81968E475E088E392E00E94181A13
:1048A00069E475E089E392E00E94F81988E398E0F2
:1048B0000E94D61960ECC62E6CEFD62E6BE9E62E60
:1048C000FF24F394C0923B08D0923C08E0923D084C
:1048D000F0923E0840E050E064EB72E488E398E038
:1048E0000E940E1981E398E00E94D619C092340804
:1048F000D0923508E0923608F092370840E050E058
:1049000064EB72E481E398E00E940E198AE298E079
:104910000E94D619C0922D08D0922E08E0922F083E
:10492000F092300840E050E064EB72E48AE298E0F4
:104930000E940E198CE08093B8001092A70288EBB9
:104940009BE0A0E0B0E080931D0390931E03A09332
:104950001F03B093200381E080931C0310E060E00C
:10496000812F0E94590D1F5F1E33C9F780EB93E022
:104970000E948A1180EB93E00E942C2FEBE9F3E078
:1049800088E0DF011D928A95E9F748E050E0BF0119
:1049900089E993E00E941C0F0E947B029091990785
:1049A00030919A078A2DE4ECF3E0219122502230D5
:1049B00030F42FEF280F911101C0922F382F8F5F05
:1049C0008F3399F730939A07909399072091480570
:1049D00030E0A8EEB3E00E94F52F60939F0770933C
:1049E000A0078093A1079093A2078091D004882309
:1049F000E1F00E942818811106C068EE73E080E0A3
:104A000090E00E94EA0510E00E9428188111C2C0BF
:104A100064E670E080E090E00E94EA051B3009F057
:104A2000B7C01092D0041092CF0422242A945FE7DA
:104A3000352E8091430890914408A0914508B0918B
:104A4000460880933F0890934008A0934108B09394
:104A5000420861E081E00E94500560E084E00E942D
:104A6000500561E084E00E94500560E081E00E9412
:104A7000500537E1E32EF12C412C512C320140EF4F
:104A8000C42E43E0D42EEEE7F4E08491EFE0F4E0AE
:104A90000491F6011491112309F484C081110E943C
:104AA0000405E12FF0E0EE0FFF1FEE51FC4FA59142
:104AB000B4918C91082331E020E009F430E0832F99
:104AC000922F092E000CAA0BBB0B0E2C04C0880FD2
:104AD000991FAA1FBB1F0A94D2F7482A592A6A2A8B
:104AE0007B2A61E081E00E94500560E081E00E9445
:104AF0005005F1E0EF1AF10808F0C5CF40924308E5
:104B000050924408609245087092460880913F0890
:104B100090914008A0914108B091420884159505F4
:104B2000A605B70529F48091A507882309F455C087
:104B30008DE1E82E85E0F82E10E000E092E0D92E1D
:104B4000802F409043085090440860904508709032
:104B50004608002E04C076946794579447940A94AC
:104B6000D2F7B301A2014095509560957095642FDE
:104B70006170D7019D917D016917E9F040FE15C074
:104B8000B2E0DB1213C0D12C11C00E946C1A8ECE81
:104B90001F5F3ACF1B3009F448CF0E94A9170E942B
:104BA000781743CF90E080E08CCFDA2C0E945E1221
:104BB000F701319780830F5F1F4F0831110509F00E
:104BC000BFCFE1E0DE12B1C08091E404833011F088
:104BD000863019F484E08093E4048091A802F82FD1
:104BE000F170BF2E80FDB1C5809145058111A6C031
:104BF000109289038091CF04882309F4C0C3909157
:104C00003E0580913F05981721F080914105811163
:104C1000B6C38091E404863009F0D0C280910B07BE
:104C2000811105C00E94231681E080930B070E942A
:104C300054158091CE042091FB063091FC064091E2
:104C4000FD065091FE06883008F4BBC260914F0803
:104C50007091500880915108909152080E94043040
:104C600020E030E048EC52E40E942D320E945B319B
:104C70000E94E83070930407609303072091FF06B9
:104C800030910007409101075091020760914B0855
:104C900070914C0880914D0890914E080E9404300C
:104CA00020E030E048EC52E40E942D320E945B315B
:104CB0000E94E83070930607609305072091D204A4
:104CC0003091D304409103075091040757FF03C06C
:104CD0005195419551094217530724F41092040746
:104CE00010920307AB0177FF04C044275527461BEA
:104CF000570B4217530724F410920607109205072A
:104D0000809103079091040720910C07213009F04E
:104D100061C220910507309106073195219531092F
:104D2000309304072093030770C2D11056CF8091AF
:104D3000E404873009F051CF82E04DCF05E0802EAA
:104D4000912C412C512C320110E000E00E94DF0236
:104D50004091B4075091B5076091B6077091B707BD
:104D60006C01990FEE08FF08DB01CA010996A11D2D
:104D7000B11D8C159D05AE05BF057CF0495051094C
:104D800061097109C416D506E606F70634F00F5F0F
:104D90001F4F4C0C5D1C6E1C7F1C21E0821A910879
:104DA000A9F60115110551F09801110F440B550B8F
:104DB000C301B2010E94A12F69017A0190913E05C1
:104DC00080913F05981720F080914305811121C003
:104DD00010E000E02091DD0430E0021713076CF4CE
:104DE0000E94DF02092E000CAA0BBB0BC80ED91EB5
:104DF000EA1EFB1E0F5F1F4FEDCF2F5F3F4F032EAD
:104E0000000C440B550BC701B6010E94A12F69018C
:104E10007A01C092B407D092B507E092B607F0923B
:104E2000B7078091C4049091C504AC014E5C5F4FFC
:104E3000052E000C660B770BC416D506E606F706A2
:104E400054F4C297092E000CAA0BBB0B8C159D05C0
:104E5000AE05BF0544F03FEDC31633E0D306E104D1
:104E6000F1040CF4E3C080913E0590913F05891751
:104E700018F48F5F80933E058091DC048D7F813034
:104E8000A1F48091AE078111D4C08091C0049091AB
:104E9000C1044497092E000CAA0BBB0B61E0C81695
:104EA000D906EA06FB060CF0D7C08091DC048230FC
:104EB000A0F08091AF078111DCC08091C204909175
:104EC000C3040A96092E000CAA0BBB0B61E08C15DB
:104ED0009D05AE05BF050CF0DFC00091C404109124
:104EE000C504C801012E000CAA0BBB0B8C159D0537
:104EF000AE05BF050CF4E4C08090C2049090C304DA
:104F0000C401092C000CAA0BBB0BA7019601281B9E
:104F1000390B4A0B5B0BCA01B9010E9420316B01AE
:104F20007C01B80168197909072E000C880B990BD0
:104F30000E9420319B01AC01C701B6010E9476306E
:104F40009B01AC0160E070E080E89FE30E940430C8
:104F500020E030E040E053EC0E942D320E94E83027
:104F6000062E000C770B653671050CF0A2C070930D
:104F7000AD076093AC078091AC07909142059923EF
:104F800089F030913E0520913F059091A60732139C
:104F9000C8C0992309F4EFC01092A60781E080935E
:104FA000400580E0482F082E000C550B660B770B50
:104FB0002091AC073091AD07C090B007D090B107F9
:104FC000E090B207F090B307C416D506E606F706E0
:104FD000E9F0E0913E0590913F05E91708F0D8C04F
:104FE0001216130634F49091A607911102C0809313
:104FF0001D0891E090934005809389034093B0078A
:105000005093B1076093B2077093B30780911C0867
:10501000E82FEE0FFF0BE854F84F318320838133E4
:105020000CF0C9C08F5F80931C08E4CD10923E0540
:1050300023CF813009F039CF8091C0049091C10411
:105040004497092E000CAA0BBB0BC816D906EA061A
:10505000FB060CF02ACF60E08091DF040E945E1214
:105060008093AE07E091DF04F0E0E35EFA4F8083C7
:105070001CCF813009F031CF8091C2049091C304DC
:105080000A96092E000CAA0BBB0B8C159D05AE05CC
:10509000BF050CF022CF60E08091DF040E945E1219
:1050A0008093AF07E091DF04F0E0E35EFA4F808386
:1050B00014CF81E89FEF9093AD078093AC075BCF4F
:1050C000A7019601281B390B4A0B5B0BCA01B901DA
:1050D0000E9420316B017C016091C0047091C10479
:1050E000601B710B072E000C880B990B0E9420315E
:1050F0009B01AC01C701B6010E94763020E030E090
:1051000040E053E40E942D320E94E830062E000C4D
:10511000770B6C393FEF73070CF029CF8FE790E0E6
:10512000CACF87FF13C0321788F480911D08181664
:105130006CF44091B4075091B5076091B607709137
:10514000B707433351056105710514F4992399F0AC
:105150008091DF04082F10E00C531C4F61E0911187
:1051600060E00E945E12F801E75AFE4F808381E002
:105170008093A60716CFE0911C088091B807E13311
:1051800009F410CFEE0FFF0BE654F84F80810ACFE1
:10519000E9133CCF10921D081092A6079091430589
:1051A000992319F01092890329CF8093890381E014
:1051B0008093400523CF10921C081CCD10920B0742
:1051C00036CD6091470870914808809149089091C8
:1051D0004A0844CD223061F49195819591099093CC
:1051E00004078093030780910507909106070AC082
:1051F000233081F42091050730910607309304078E
:1052000020930307919581959109909306078093C8
:10521000050709C0243079F49195819591099093FF
:10522000040780930307809115078823B9F0815004
:105230008093150746C0253041F420910507309131
:105240000607319521953109D9CF263061F22730F3
:1052500051F7209105073091060762CD8091E00457
:10526000082F10E0209103073091040737FF03C097
:105270003195219531094091D4045091D5040C53B6
:105280001C4FF801E75AFE4F9081911109C1421756
:10529000530784F0209105073091060737FF03C0BC
:1052A0003195219531094091D6045091D704421788
:1052B00053073CF461E00E945E12F801E75AFE4F8A
:1052C0008083009103071091040780910707909154
:1052D00008078017910721F1B801012E000C880BF7
:1052E000990B0E94203120910D0730910E074091BB
:1052F0000F07509110070E94763020E03EEF4FEFED
:1053000056E40E942D320E94E8307093820360932D
:105310008103109308070093070781E080934005FD
:1053200000910507109106078091090790910A07DF
:105330008017910721F1B801012E000C880B990B01
:105340000E942031209111073091120740911307DC
:10535000509114070E94763020E03EEF4FEF56E464
:105360000E942D320E94E83070938403609383037F
:1053700010930A070093090781E0809340050E947B
:10538000CC062B013C018091E404833009F406C172
:1053900008F0A5C0813009F4E4C0823009F4EDC002
:1053A00080914005882321F00E94860E10924005CE
:1053B0000E94CC066B017C0105E010E0F4E69F2E14
:1053C000809197068E3308F094C18F5F8093970683
:1053D00080919706282F30E0F901EC53FC4F67AD20
:1053E000D901A55BBA4F51969C91691730F5E354EA
:1053F000FF4F9081992309F1220F331F220F331F92
:10540000F901E556FA4F4080518062807380A70110
:105410009601241935094609570929013A01999D30
:1054200090011124032E000C440B550B4216530619
:105430006406750614F00E94590D0150110909F017
:10544000BFCF49E0E42EF12C8824839457E0952EB9
:1054500061E8762E7FE7672E81E293E00E94EA04FE
:10546000892B09F45CC181E293E00E94A804209199
:10547000B7063091B806F901EE55F94F838721152B
:10548000310509F039C19091AD068091A5069813B8
:105490003DC12F5F3F4F3093B8062093B7063AC106
:1054A000241735070CF00DCF209105073091060722
:1054B00037FF03C03195219531094091D6045091B1
:1054C000D704241735070CF0FCCE60E00E945E1272
:1054D000F801E75AFE4F808380914605A9CE8530BA
:1054E00009F4DBC008F4BAC0863009F059CF0E9435
:1054F000FE0200919C0710E0A8014A5E584F7A0115
:10550000DD24D39480919D078017110609F00CF4D7
:105510009CC0F801EC53FC4F808182508230D8F45B
:10552000F701EC5BFF4FD70115968C9190919B078B
:105530002081213009F0D7C02FEF30E0291B31093D
:10554000821713060CF4CBC01082D70115966C910C
:10555000802F0E94590D0F5F1F4FBFEFEB1AFB0A00
:10556000D1CF409217075092180760921907709296
:105570001A0785E08093E40413CF0E94E10D809127
:105580009E07882309F40CCF409217075092180702
:105590006092190770921A0783E0ECCF8091170789
:1055A00090911807A0911907B0911A07B301A201B1
:1055B000481B590B6A0B7B0B80919F079091A007AA
:1055C000A091A107B091A207880F991FAA1FBB1F26
:1055D00084179507A607B7070CF0E2CE8091470520
:1055E000882309F4DDCE0E94FE0200919C0710E0A2
:1055F00080919D078017110601F1FCF0F801EC5332
:10560000FC4F808182508230A8F40E947B2F60E0A2
:1056100071E00E94AB32F82E682F802F0E94590D46
:10562000F801EA5EF84FDF01AC5BBF4F8F2D817050
:105630008C93F5820F5F1F4FDBCF80919E078823ED
:1056400009F4AECE86E08093E404409217075092AE
:1056500018076092190770921A07A2CE0E94FE02E4
:1056600000919C0710E080919D078017110671F052
:105670006CF0F801EC53FC4F8081823021F46FEF25
:10568000802F0E94590D0F5F1F4FEDCF80919E0715
:10569000882309F485CE87E0D6CF809117079091B3
:1056A0001807A0911907B0911A07481A590A6A0AEF
:1056B0007B0A80919F079091A007A091A107B091CC
:1056C000A20784159505A605B7050CF069CE0E94C2
:1056D000E10D80919E07882309F462CE5DCF890F8A
:1056E000F701858332CF981710F0D0822ECF891B17
:1056F000F7CF109297066CCE2130310571F590915D
:10570000AE068091A606981708F0C3CE1092B80690
:105710001092B70621E0E21AF10809F09DCE8091BF
:10572000B9069091BA06181619067CF485309105D1
:1057300009F4DEC10CF03DC18230910509F492C13B
:105740000CF0DBC0019709F462C180E090E0892B86
:1057500009F46FC90E9400006CC92830310509F0B6
:1057600098CE8091AE069091A70689130AC0109238
:10577000E4048091AF0690E09093BA068093B90656
:10578000C5CF9091A80689130AC08091A306909175
:10579000A406009709F4BACF0E940E13B7CF9091D8
:1057A000A906891307C06091B0068091AF060E94D8
:1057B000590DACCF9091AA06891351C08091AF06C4
:1057C0008E31F1F1A8F48C31D9F08D31A1F161E085
:1057D0000E945E120E94860E64EF71E080E090E00D
:1057E0000E94EA0560E08091AF060E945E120EC042
:1057F000803291F160F1813251F76092890306C0E5
:1058000041E050E850938203409381030E94860E4A
:1058100064EF71E080E090E00E94EA05109282035C
:1058200010928103109284031092830310928903D3
:105830000E94860E6BCF3092820320928103E6CFC6
:1058400081E090E89093840380938303DFCF3092CC
:10585000840320928303DACF70928903D7CF80919B
:10586000E4048530B9F00091990710E080919A071F
:105870008017110679F074F0F801EC53FC4F808129
:105880008250823020F460E0802F0E94590D0F5F1B
:105890001F4FECCF8092E4048091AE069091A60653
:1058A000582E591A599C502C1124891B990B989EDB
:1058B0008001999E100D11240E55194F22EAC22E17
:1058C00026E0D22E37E0432E450CD6011D966C9172
:1058D000F801818D861741F0852D0E94590DD60162
:1058E0001D968C91F801818F0F5F1F4FFFEFCF1A2C
:1058F000DF0A53944510E9CF09CF8330910509F4AD
:10590000DCC0049709F021CF8091AC06843108F403
:1059100082C01092AC068AE494E00E947D048091DB
:10592000CE042091FB063091FC064091FD0650917B
:10593000FE06883008F4D3C060914F08709150087B
:1059400080915108909152080E94043042E00E94D8
:10595000951388E494E00E947D042091FF06309125
:105960000007409101075091020760914B08709128
:105970004C0880914D0890914E080E94043042E0FE
:105980000E94951386E494E00E947D0480910307B1
:10599000909104070E945F1384E494E00E947D04C8
:1059A00080910507909106070E945F1381E494E0BF
:1059B00056C08B30910509F427C28CF486309105CE
:1059C00009F443C1089709F0C0CE8091A3069091D5
:1059D000A406009709F40EC20E940E130BC28C306D
:1059E000910509F414C28F3F910509F0AECE1092D3
:1059F000BA061092B90681E08093E40460E08B2D32
:105A00000E94590DB394FEE3BF12F8CF9ECE809151
:105A1000AC06843120F48F5F8093AC0696CE109252
:105A2000AC0680E694E00E947D049DE1E92E95E0BD
:105A3000F92E0CE315E0D7018D917D0190E00E94D5
:105A40005F138EE594E00E947D040E151F0599F703
:105A500080913C0590E00E945F138BE594E00E94EA
:105A60007D0473CE8091AC068431A8F21092AC060E
:105A700088E594E00E947D048CE5E82E85E0F82E10
:105A80000AE915E0F70161917F0170E090E080E0A4
:105A90004AE00E941B1386E594E00E947D040E15E7
:105AA0001F0581F760919A0570E090E080E04AE080
:105AB0000E941B1383E594E0D2CF8091AC06843121
:105AC00008F4A9CF1092AC0680E594E00E947D0412
:105AD0000E94DF020E945F138DE494E0C0CF6091CA
