:100000000C9452010C947A010C947A010C947A01AC
:100010000C947A010C947A010C947A010C947A0174
:100020000C947A010C947A010C94191C0C94881C81
:100030000C947A010C947A010C947A010C947A0154
:100040000C947A010C947A010C947A010C947A0144
:100050000C947A010C947A010C947A010C94BA1ED7
:100060000C947A010C947A010C947A010C947A0124
:100070000C947A010C947A010C947A010C947A0114
:100080000C947A010C947A010C947A010C947A0104
:100090000C94041F0C947A010C947A010C947A014C
:1000A0000C947A010C947A010C947A0100000000FF
:1000B000240027002A002D00300000000000250049
:1000C00028002B002E003100080B00020202000065
:1000D00009040000010202000005240010010524AB
:1000E000010101042402060524060001070581031D
:1000F00010004009040100020A0000000705020286
:1001000040000007058302400000040309041201B7
:100110000002EF0201408F0E06920001010203016E
:10012000556E6B6E6F776E00436C657620536F660D
:10013000742050696E4F6E65000000000023002699
:100140000029002C002F0004040404040304050209
:100150000202020403020202020606060606060462
:10016000040202020404040802011040804010202E
:10017000408040800802040180402010020110806D
:1001800010204040200000000200090F000003047E
:1001900001000C0000000000000000000000000052
:1001A0000000000D0A002C00422C000D0A002C005B
:1001B0004F2C000D0A00502C000D0A002C002C00C2
:1001C0002C00412C00450D0A00432C00522C450DFB
:1001D0000A00522C530D0A00562C312E31312E308C
:1001E0000D0A002C002C00070605040100080A0B6C
:1001F0000C0D0900000000000000002A2B28000060
:1002000000000000000000000000000000000000EE
:100210000000002C9EB4A0A1A2A434A6A7A5AE36CF
:100220002D3738271E1F20212223242526B333B63D
:100230002EB7B89F8485868788898A8B8C8D8E8F10
:10024000909192939495969798999A9B9C9D2F3113
:1002500030A3AD350405060708090A0B0C0D0E0F77
:10026000101112131415161718191A1B1C1DAFB1F3
:10027000B0B50005010906A1018502050719E029AD
:10028000E715002501750195088102950175088122
:100290000395067508150025730507190029738154
:1002A00000C0232011241FBECFEFDAE0DEBFCDBF98
:1002B00012E0A0E0B1E0ECE6FBE602C005900D9292
:1002C000AA31B107D9F728E0AAE1B2E001C01D9236
:1002D000A833B207E1F711E0C2E5D1E004C02197ED
:1002E000FE010E946C34C135D107C9F70E94552424
:1002F0000C94B4350C94000008950895ECEEF1E0F0
:10030000E49190917B008E2F880F880F80729F7DE3
:10031000892B80937B00E770E064E0937C00809100
:100320007A00806480937A0080917A0086FDFCCF09
:1003300080917800909179000895FC018091950258
:10034000882311F13FB7F89482E08093E90020916F
:10035000F200822F90E01816190614F481E090E064
:10036000882339F0289844E6409394024091F100A4
:100370004083222339F02091F200211103C02BE6A3
:100380002093E8003FBF08958FEF9FEF089580917D
:100390002C078823A9F08091270780932A071092C1
:1003A0002C0780912A078B5F80932B079091280759
:1003B000891728F090932B0781E080932C070895EC
:1003C00080912A078B5F80932A07EBCF40918D02A3
:1003D00050918E0220918B0230918C02421753076C
:1003E000B4F49091E8009570E1F39091E80092FDEB
:1003F00019C08093F10080918D0290918E02019638
:100400008F739927892B19F48EEF8093E8008091E0
:100410008D0290918E02019690938E0280938D02B0
:1004200081E0089580E00895EF92FF920F931F936B
:10043000CF93DF93F82E192FE62E042F81E0860F3D
:10044000880F0E94E60183E00E94E601CF2DD12FA4
:10045000EC0EFD2EF11CCE15DF05B9F007FF13C021
:10046000FE0184910E94E601182F80E00E94E601BF
:10047000812321968111EFCFDF91CF911F910F91B1
:10048000FF90EF9008958881EDCF81E0F5CFDF9266
:10049000EF92FF920F931F93CF93DF93D82E8A0191
:1004A000EB017B01E40EF51ECE15DF0559F0D7FEFA
:1004B00012C0FE0184910E94E60121968111F4CFC1
:1004C0000FEF1FEFC801DF91CF911F910F91FF90A8
:1004D000EF90DF9008958881EECF2FB7F894877062
:1004E0008093E9009091E800892F807295FF04C005
:1004F0009091F20080E4891B2FBF0895615030F085
:100500002091F100FC0120830196F8CF289884E621
:100510008093940208958091830281110DC082E03E
:1005200080937F0284E08093800210928202109276
:10053000810281E0809383028FE792E008950F9318
:100540001F93CF93DF931F92CDB7DEB782E08983ED
:1005500042E450E068EC70E080E80E9447020E94AC
:100560008B02DC0112960D911C910115110589F089
:10057000D801ED91FC910280F381E02DBE016F5F07
:100580007F4FC801099597FD04C0F80100851185CA
:10059000ECCF89810F90DF91CF911F910F9108953A
:1005A000CF93DF93FC01DB01818114963C9114977A
:1005B000682F630F7727771F683071059CF5C2811C
:1005C000D381209739F5B383A283908112969C93AF
:1005D000129713968C93139715968C911597890FF4
:1005E000808390E080E0831708F52181C22FD0E05E
:1005F000BE0160507F4F16964D915C911797480F42
:10060000591FEA014881EB0148832F5F218301963E
:10061000EACFEA014885598541155105D1F7B987D7
:10062000A887D3CF80E0DF91CF91089581E0FBCF01
:10063000CF93DF931F92CDB7DEB76983DC01ED91D5
:10064000FC910280F381E02D41E050E0BE016F5F3C
:100650007F4F09950F90DF91CF9108950F931F93CE
:10066000CF93DF938C01D0E0C0E0F801EC0FFD1FC9
:100670006491662341F08CE093E00E941803892B7B
:1006800011F02196F2CFCE01DF91CF911F910F9102
:10069000089583E08093E9008091F200882319F0A7
:1006A0008AE38093E800089583E00E946D0290E061
:1006B0000895CF93DF931F92CDB7DEB7FC018485F9
:1006C000958597FD08C02FEF3FEF358724870F9062
:1006D000DF91CF910895CE0101960E949D0101976F
:1006E00019F4898190E0F3CF8FEF9FEFF0CF0F9354
:1006F0001F93CF93DF931F92CDB7DEB78C01FC0120
:100700008485958597FF0BC0CE0101960E949D01BF
:10071000019771F4898190E0F80195878487F80149
:10072000848595850F90DF91CF911F910F9108954A
:100730008FEF9FEFF1CFFC018485958597FD0BC06E
:100740009FB7F89482E08093E9008091F2009FBF08
:1007500090E0019608959FB7F89482E08093E900B5
:100760008091F2009FBF90E0089581508F3008F093
:1007700047C0E82FF0E0E154FC4F0C946C34DC03EC
:10078000E003CE03D403D803000400040004E30311
:10079000E903ED03F103F7030004FB0380918000FC
:1007A0008F77809380000895809180008F7DF9CFAE
:1007B00080918000877FF5CF84B58F7784BD0895C1
:1007C00084B58F7DFBCF809190008F7780939000D0
:1007D0000895809190008F7DF9CF80919000877F60
:1007E000F5CF8091C0008F778093C00008958091ED
:1007F000C0008F7DF9CF8091C200877F8093C200B7
:1008000008951F93CF93DF93282F30E0F901EB5722
:10081000FE4F8491F901EA59FE4FD491F901E95B49
:10082000FE4FC491CC23A9F0162F81110E94B5036D
:10083000EC2FF0E0EE0FFF1FE654FF4FA591B491AF
:100840008FB7F894EC91111108C0D095DE23DC939A
:100850008FBFDF91CF911F910895DE2BF8CFCF93FB
:10086000DF9390E0FC01EA59FE4F2491895B9E4F93
:10087000FC0184918823C9F090E0880F991FFC0146
:10088000E455FF4FA591B491FC01E654FF4FC5918B
:10089000D49161110DC09FB7F8948C91209582235B
:1008A0008C938881282328839FBFDF91CF9108955F
:1008B000623051F49FB7F8943C91822F8095832346
:1008C0008C93E8812E2BEFCF8FB7F894EC912E2BE1
:1008D0002C938FBFEACF8230910538F0880F991F93
:1008E000880F991F05970197F1F708953FB7F8947E
:1008F00080917B0290917C02A0917D02B0917E025A
:1009000026B5A89B05C02F3F19F00196A11DB11D6A
:100910003FBFBA2FA92F982F8827BC01CD01620FA6
:10092000711D811D911D42E0660F771F881F991F61
:100930004A95D1F708958F929F92AF92BF92CF922E
:10094000DF92EF92FF924B015C010E9476046B01F3
:100950007C010E9476046C197D098E099F09683E0E
:10096000734081059105A8F321E0821A9108A1083E
:10097000B10888EEC80E83E0D81EE11CF11C81147A
:100980009104A104B10429F7FF90EF90DF90CF907C
:10099000BF90AF909F908F9008957F928F929F927B
:1009A000AF92BF92CF92DF92EF92FF920F931F937D
:1009B000CF93DF93C82E8B017A018091950281112C
:1009C00010C08FEF9FEFDF91CF911F910F91FF909C
:1009D000EF90DF90CF90BF90AF909F908F907F90DF
:1009E00008958091930280FF05C08091E0008260AD
:1009F0008093E000CE2DDF2DD12C8AEFB82E8C2DE8
:100A00008770982E8C2D8072882E8C2D8074782E75
:100A10009AE3A92E209719F4DD2009F452C08C2DF9
:100A20000E946D0281110AC0BA94BB2051F261E0AC
:100A300070E080E090E00E949B04ECCF8C171D06D4
:100A400011F00CF08C2F9FB7F8949092E900209150
:100A5000E80025FD02C09FBFDDCF282F30E0C21B7C
:100A6000D30B882029F08150A0F01092F100FBCF29
:100A7000F801C7FC0AC0815050F041914093F10049
:100A8000FACF44914093F10031968150D0F7020F94
:100A9000131FDD2021F0A092E800D12CDCCF809143
:100AA000E80085FD07C0A092E800DD24D3942097DC
:100AB00091F2F3CF209779F6772069F2A092E800BF
:100AC000CACF5D9884E680939002C7017CCFEF92F5
:100AD000FF921F93CF93DF931F92CDB7DEB77C01B8
:100AE00080916D0381112CC011E01093600310936D
:100AF000610386E693E09093630380936203109210
:100B00006503109264038CEC91E090935D038093F5
:100B10005C03109268031092670310926A031092AC
:100B2000690310936B0310936C0381EC809366034D
:100B30000E948B026CE573E00E94D00210936D035B
:100B400082E0898341E050E0BE016F5F7F4F80917A
:100B50005F030E94CD0497FD08C080915F0348E0C9
:100B600050E0B70180640E94CD040F90DF91CF91D7
:100B70001F91FF90EF900895CF93DF93EC01809148
:100B80001201882331F083E00E94CD041816190663
:100B900034F081E090E09B838A8380E090E0DF91F5
:100BA000CF9108952FB7F8946091770270917802F1
:100BB0008091790290917A022FBF0895DC01FB01A8
:100BC00091818081813A31F49D7F81E0913009F0FB
:100BD00080E008958132E1F79B3029F482811F96ED
:100BE0008C9381E008959A3099F7828150968C9386
:100BF000F8CFFC014281FB012481358142171306A5
:100C000011F40C94DE0580E00895DC01FB0188E41A
:100C1000808389E4818384E482831D969C911D975F
:100C20009F709F5B93831D968D919C9124E0969578
:100C300087952A95E1F78F708F5B848385E008950F
:100C4000EF92FF920F931F93CF93DF93FB012081CD
:100C5000213871F52381223259F5DC0112964C912D
:100C6000248135814217130619F5EC010B851C858B
:100C7000F12CE12C0115110589F0F8014481558111
:100C80006281738180E80E9447028F3F980749F094
:100C9000E80EF91ED8010D911C91ECCF81E08F87F1
:100CA000C701DF91CF911F910F91FF90EF900895B1
:100CB00090E080E0F6CFCF93DF93CDB7DEB76997B2
:100CC0000FB6F894DEBF0FBECDBFFC01DB018C91E7
:100CD0008F5F8C939E012D5F3F4F8DE0D9011D9258
:100CE0008A95E9F729E0298384E08A8391E09D834E
:100CF00083E08E832A8721E22B879C879D879F87AD
:100D000022E2288B27E02B8B25E02C8B8E8B20E496
:100D100030E0388F2F8B998F82818B8395858685E4
:100D2000998B8A8B838180688D8B49E150E0BE016D
:100D30006F5F7F4F80E00E94470269960FB6F8947C
:100D4000DEBF0FBECDBFDF91CF910895CF92DF926E
:100D5000EF92FF920F931F93CF93DF936C01EB0100
:100D60007B01E40EF51E10E000E0CE15DF0581F0FA
:100D700069916D30D1F3D601ED91FC910190F08134
:100D8000E02DC6010995892B19F00F5F1F4FEDCF9C
:100D9000C801DF91CF911F910F91FF90EF90DF90ED
:100DA000CF900895DC016838A0F06858FD0186E016
:100DB000662321F09681961301C0168281503196E8
:100DC0008111F6CFCD0104960E94670581E090E085
:100DD0000895862F90E067FF13C0FC01E058F109E9
:100DE00081E090E001C0880FEA95EAF780951496BB
:100DF0009C911497892314968C93149760E0D6CF16
:100E00001C96ED91FC911D97E80FF91F64916623E4
:100E1000E1F0862F807C803C69F414968C911497C5
:100E20008F7B14968C9314976F73623309F0BECF47
:100E300064E6BCCF67FFF9CF14968C9114978D7F31
:100E400014968C9314976F77F0CF90E080E008951C
:100E5000DC01683888F1685816968C9116978617C9
:100E600021F117968C9117978617F9F018968C91A7
:100E700018978617D1F019968C9119978617A9F0B3
:100E80001A968C911A97861781F01B968C911B9756
:100E9000861759F0FD01369690E080E021912111EE
:100EA0004FC08A0F9B1FFC016683CD0104960E94F0
:100EB000670581E090E00895862F90E067FF12C0FB
:100EC000FC01E058F10921E030E001C0220FEA9571
:100ED000EAF714968C911497822B14968C9314979E
:100EE00060E0BACF1C96ED91FC911D97E80FF91FB9
:100EF0006491611109C081E090E013969C938E93F8
:100F0000129790E080E00895862F807C803C69F401
:100F100014968C911497806414968C9314976F7325
:100F2000623309F099CF64E697CF67FFF9CF149643
:100F30008C911497826014968C9314976F77F0CFEE
:100F400001968630910509F0A9CFD5CFEF92FF9297
:100F50001F93CF93DF93EC01162F0E9428077C018B
:100F6000612FCE010E94D206C7019927DF91CF9150
:100F70001F91FF90EF9008950895FC0183858F3FA6
:100F800019F061E00C9401040895FC0180819181C5
:100F9000892B39F0A281B3819C9111968C919CBDD3
:100FA0008DBD83858F3F19F060E00C940104089596
:100FB000AF92BF92CF92DF92EF92FF920F931F9367
:100FC000CF93DF93EC0188819981892B89F06EBDE5
:100FD0000DB407FEFDCFBEB48B2DDF91CF911F91D5
:100FE0000F91FF90EF90DF90CF90BF90AF9008955A
:100FF0008885998511E0892B09F010E8AA24A3942B
:10100000862F812309F0A12C062F2C813D814E8152
:101010005F8160E271EA87E090E00E948031F22E09
:10102000B02EE12CC22ED12CFF2019F0C6010E9457
:101030006B048A85877F09F042C08D858F3F89F0D8
:10104000902F912381E009F480E08A1551F0EF851B
:10105000F8898F89992369F19081892B8083AA244B
:10106000A394E989FA898081998D892B8083FF2057
:1010700019F0C6010E946B048E858F3F39F0EB8911
:10108000FC898081988D892309F0E12AE989FA8910
:101090009081898D8095892380838E858F3F09F08B
:1010A000BE2C88859985892BB9F5110F1111BCCFFC
:1010B00093CF9081809589238083A12CD2CFE98919
:1010C000FA898081998D892B8083FF2019F0C601D0
:1010D0000E946B048D858F3F49F0EF85F8898F89D9
:1010E000902F9123A9F09081892B8083E989FA8937
:1010F0009081898D8095892380838E858F3F69F2C9
:10110000EB89FC898081988D892339F2E12AC5CF4A
:10111000908180958923E9CF1695C8CF8F929F92B1
:10112000AF92BF92CF92DF92EF92FF920F931F93F5
:10113000CF93DF937C014B016A01B22EA32E0E9454
:10114000C507E401C80CD91CCC15DD0569F4CB2D0D
:10115000DA2D0C0F1D1FC017D10759F06FEFC70113
:101160000E94D8078993F7CF6991C7010E94D807D9
:10117000EBCFC7010E94BD0781E0DF91CF911F91A6
:101180000F91FF90EF90DF90CF90BF90AF909F9026
:101190008F9008958F929F92AF92BF92CF92DF92DD
:1011A000EF92FF920F931F93CF93DF937C01B62EA4
:1011B000A72E6A0149010E94C507E401080D191D07
:1011C000C017D10761F4CB2DDA2DCC0EDD1ECC1566
:1011D000DD0551F06991C7010E94D807F8CF6991E8
:1011E000C7010E94D807ECCFC7010E94BD0781E06C
:1011F000DF91CF911F910F91FF90EF90DF90CF90F3
:10120000BF90AF909F908F90089520915302260F2A
:101210003327331F21323105ECF420910603FC0102
:1012200090E080E0243069F082E00895A0915302BC
:101230002191AC014D5C5D4FA40FB52FB11D2C93D6
:101240000196861798F380915302680F60935302BA
:1012500080E0089581E008951092060381E0809374
:10126000E5021092E00261E082E00E94010461E088
:1012700083E00E940104E9EBF0E080818E7F8083AF
:1012800080818D7F808388E48093B80085E480939B
:10129000BC00089510929B0210929A0210929D0237
:1012A0001092BF020E942C098CE791E09093990262
:1012B000809398028DE791E0909397028093960235
:1012C0000895CF93DF9391E0909392028823B9F031
:1012D000C091B800D091BA008091BC008A7B809305
:1012E000BC0060E082E00E94010460E083E00E94B4
:1012F00001040E942C09D093BA00C093B800DF917A
:10130000CF9108958F929F92AF92BF92CF92DF922A
:10131000EF92FF920F931F93CF93DF93D82FC62F97
:10132000142F613208F09CC00E9476046B017C018E
:101330008091060381116FC081E0809306031093B2
:10134000E5029FEF9093E4021092E3029C0F9093CA
:10135000E2028093E1028091E102DD0FD82BD0936D
:10136000E1028091E002813009F07CC01092E0023D
:101370000E9476046B017C018091E1028093BB00A6
:101380008091080390910903A0910A03B0910B0387
:10139000892B8A2B8B2BA1F00E94760400910803E5
:1013A0001091090320910A0330910B036C197D09F8
:1013B0008E099F09061717072807390708F44CC03C
:1013C0008091BC0083FDD8CF85EC8093BC000E9447
:1013D00076046B017C0180910603813009F444C0DE
:1013E0008091E3028C1710F4C091E302E0ECF2E08C
:1013F000A6EEB2E080E08C1359C08C2FDF91CF9124
:101400001F910F91FF90EF90DF90CF90BF90AF9022
:101410009F908F9008958091080390910903A09167
:101420000A03B0910B03892B8A2B8B2B09F480CFF5
:101430000E9476048090080390900903A0900A030C
:10144000B0900B036C197D098E099F0986169706CB
:10145000A806B90608F06CCF809107030E946109C5
:10146000C0E0CBCF85EEB1CF809108039091090306
:10147000A0910A03B0910B03892B8A2B8B2B09F4C3
:10148000AACF0E94760400910803109109032091CD
:101490000A0330910B036C197D098E099F09061709
:1014A00017072807390708F096CFD6CF91919D935B
:1014B0008F5FA1CF8F929F92AF92BF92CF92DF9218
:1014C000EF92FF920F931F93CF93DF93D091BF02C0
:1014D000D13208F0D7C0182FC091BE020E94760406
:1014E0006B017C018091060381116BC082E08093C7
:1014F00006031093E5028FEF8093E4021092E3025B
:10150000D093E202AEE9B2E0E0ECF2E080E0D81382
:1015100091C01092E1028091E102CC0FC82BC093E0
:10152000E1028091E002813009F088C01092E0026F
:101530000E9476046B017C018091E1028093BB00E4
:101540008091080390910903A0910A03B0910B03C5
:10155000892B8A2B8B2BA1F00E9476040091080323
:101560001091090320910A0330910B036C197D0936
:101570008E099F09061717072807390708F442C084
:101580008091BC0083FDD8CF85EC8093BC000E9485
:1015900076046B017C0180910603823009F450C00F
:1015A0008091E4028F3F09F46FC08091E4028032A1
:1015B00009F46CC08091E402803309F469C084E0CE
:1015C00026C08091080390910903A0910A03B0916D
:1015D0000B03892B8A2B8B2B09F484CF0E94760472
:1015E0008090080390900903A0900A03B0900B0329
:1015F0006C197D098E099F0986169706A806B906FB
:1016000008F070CF809107030E94610985E0109275
:101610009D021092BF0210929C02DF91CF911F9108
:101620000F91FF90EF90DF90CF90BF90AF909F9081
:101630008F9008959D9191938F5F69CF85EEA5CF8F
:101640008091080390910903A0910A03B0910B03C4
:10165000892B8A2B8B2B09F49ECF0E947604009154
:1016600008031091090320910A0330910B036C19B0
:101670007D098E099F09061717072807390708F003
:101680008ACFC0CF81E0C3CF80E0C1CF82E0BFCF9F
:1016900083E0BDCF1F93CF93DF93EA01122FDC01CC
:1016A00011968D919C91DC01ED91FC910280F3816A
:1016B000E02D0995C817D90729F4812F0E945A0AED
:1016C00091E0811190E0892FDF91CF911F910895D2
:1016D000AF92BF92CF92DF92EF92FF920F931F9340
:1016E000CF93DF9300D0CDB7DEB7DC01211103C06B
:1016F00018962C911897253008F043C01F964D93EB
:101700005D936D937C93529790E080E0E22EF12CF4
:101710008E159F05B4F41A962C911A9721110AC0C0
:10172000FD01E80FF91F4387452F562F672F7727B5
:101730000196EECFF701E81BF90BEA0FFB1F42877A
:10174000F3CF6D018BE0C80ED11C16969C911697B5
:1017500017968C91179799838A83AD90BC901197B7
:10176000A114B10409F441C019960C9110E098013C
:101770002E0D3F1DD50114968D919C9182179307D4
:1017800010F480E016C0F50181819281208131E062
:1017900030939C022093BE0210929D021092BF02D1
:1017A0000115110599F421E0A701B601C5010E94B8
:1017B0004A0B0F900F90DF91CF911F910F91FF90E7
:1017C000EF90DF90CF90BF90AF900895DC01ED9146
:1017D000FC910280F381E02DA801BE016F5F7F4F75
:1017E00009950817190769F6DECF1296ED91FC915D
:1017F0001397309731F214962D913C9115971996C5
:101800000C9110E02330310571F48E7F89839A8327
:101810000F5F1F4F9E012F5F3F4FA701B601CF0102
:101820000E94CA08C6CF2115310519F49F77998304
:10183000F1CF2230310511F49068F9CF2130310514
:1018400049F79F779064F3CFCF93DF93EC018B81BF
:101850008823A1F0888191E090939C028093BE023E
:1018600010929D021092BF0281E00E945A0A91E0FC
:10187000811190E0892FDF91CF9108950E944A094C
:1018800081E08B83CE010E94240C982F8111E2CF3E
:10189000F1CF0895E0919B0280919A02E81730F40D
:1018A000F0E0EA51FD4F808190E008958FEF9FEFC7
:1018B000089590919B0280919A022FEF3FEF981725
:1018C00048F4E92FF0E0EA51FD4F208130E09F5FBE
:1018D00090939B02C901089580919A0290919B0276
:1018E000891B990B0895CF92DF92EF92FF920F938D
:1018F0001F93CF93DF937C01CB018A0120919C023F
:10190000222389F0EB016B01C40ED51ECC15DD0539
:1019100069F06991D701ED91FC910190F081E02D82
:10192000C7010995F3CF642F0E940509C801DF9113
:10193000CF911F910F91FF90EF90DF90CF9008957E
:10194000CF93DF931F92CDB7DEB7698320919C02BE
:101950002223F9F02091BF02203258F021E030E03C
:10196000FC013383228390E080E00F90DF91CF91E0
:10197000089580919D02E82FF0E0E256FD4F998195
:1019800090838F5F80939D028093BF0281E090E0FF
:10199000ECCF61E0CE0101960E940509F7CF90E0FF
:1019A00080E008951F93CF93DF93EC01142F89817A
:1019B0009A81288131E030939C022093BE021092DC
:1019C0009D021092BF02DC01ED91FC910190F0812B
:1019D000E02D099589819A81DC01ED91FC910190BE
:1019E000F081E02D612F099581E0DF91CF911F916A
:1019F0000C945A0ADC01ED91FC910190F081E02DEC
:101A00000994EF92FF920F931F93CF93DF93EC0112
:101A1000E42E052FF22E132F89819A81288131E03F
:101A200030939C022093BE0210929D021092BF023E
:101A300024E0629FB00111246A5F7F4FDC01ED91C9
:101A4000FC910190F081E02D09956E2D702F898118
:101A50009A810E94FA0C602F70E089819A810E941D
:101A6000FA0C6F2D712F89819A810E94FA0C612FD7
:101A700070E089819A810E94FA0C81E0DF91CF9118
:101A80001F910F91FF90EF900C945A0A9A018031A8
:101A900030F4AB01682F8FE098E00C94010D90EFCB
:101AA000980F903128F4AB01692F88E098E0F5CFCA
:101AB0008052803128F4AB01682F81E098E0EDCFAF
:101AC0000895FC014281FB012481358142171306F0
:101AD00011F40C94DE0580E00895EF92FF920F93CD
:101AE0001F93CF93DF93FB012081213889F5238158
:101AF000223271F5DC0112964C9124813581421716
:101B0000130631F58C01FC01C385D485F12CE12C41
:101B1000209791F04C815D816A817B818E8181115A
:101B200080E80E9447028F3F980759F0E80EF91E9F
:101B30000990D881C02DECCF81E0D8011F968C93FD
:101B4000C701DF91CF911F910F91FF90EF90089502
:101B500090E080E0F6CFCF93DF93CDB7DEB7699703
:101B60000FB6F894DEBF0FBECDBFFC01DB018C9138
:101B70008F5F8C939E012D5F3F4F8DE0D9011D92A9
:101B80008A95E9F729E0298384E08A8391E09D839F
:101B900083E08E832A8721E22B879C879D879F87FE
:101BA00022E2288B27E02B8B25E02C8B8E8B20E4E8
:101BB00030E0388F2F8B998F82818B839585868536
:101BC000998B8A8B838180688D8B49E150E0BE01BF
:101BD0006F5F7F4F80E00E94470269960FB6F894CE
:101BE000DEBF0FBECDBFDF91CF910895CF9380911F
:101BF0002B0281112CC0C1E0C0931E02C0931F02B2
:101C000084E292E0909321028093200210922302BA
:101C1000109222028EEA91E090931B0280931A02A6
:101C2000109226021092250210922802109227028A
:101C3000C0932902C0932A0281EC809324020E945F
:101C40008B026AE172E00E94D002C0932B028AE10B
:101C500092E0CF9108954F925F926F927F928F9210
:101C60009F92AF92BF92CF92DF92EF92FF920F932B
:101C70001F93CF93DF93CDB7DEB72C970FB6F894B1
:101C8000DEBF0FBECDBFEA14FB040C051D050CF032
:101C90007FC027013801A982BA82CB82DC8290E022
:101CA00080E0662309F45DC02D833E834F8358870F
:101CB0002D813E814F8158852415350546055705F0
:101CC00024F44D825E826F82788689819A81AB810D
:101CD000BC8189879A87AB87BC872D813E814F81E4
:101CE0005885281739074A075B0724F429873A875C
:101CF0004B875C87AE14BF04C006D106B4F449819B
:101D00005A816B817C8189859A85AB85BC85481B0E
:101D1000590B6A0B7B0BDB01CA01840D951DA61DB7
:101D2000B71D89879A87AB87BC8729853A854B85FC
:101D30005C852419350946095709AFEFBFEF0E94AA
:101D40006D3129813A814B815C812419350946091D
:101D500057090E944E31D4012C9311963C9382E096
:101D600090E02C960FB6F894DEBF0FBECDBFDF918A
:101D7000CF911F910F91FF90EF90DF90CF90BF9088
:101D8000AF909F908F907F906F905F904F9008954D
:101D900025013601E982FA820B831C8380CF6F9282
:101DA0007F928F929F92AF92BF92CF92DF92EF92EB
:101DB000FF920F931F93CF93DF938C01DC01199651
:101DC000CD91DC917E01F394F701C080D1803E017A
:101DD000FEEF6F0E711CD3018D919C91B601681BB3
:101DE000790B072E000C880B990B0E94CD324B010A
:101DF0005C01C450DF4F688179816C197D09072E21
:101E0000000C880B990B0E94CD329B01AC01C501DF
:101E1000B4010E9423324B015C01F8018382948259
:101E2000A582B682C180D280D7010D911C916881B4
:101E30007981601B710B072E000C880B990B0E9497
:101E4000CD32A50194010E94DA334B015C01B80147
:101E5000110F880B990B0E94CD329B01AC01C5017B
:101E6000B4010E94B2310E949532F601E85BFF4F47
:101E7000D3012D913C918901330F220B330B008349
:101E800011832283338334966083718382839383A7
:101E9000DF91CF911F910F91FF90EF90DF90CF9046
:101EA000BF90AF909F908F907F906F900895AF926A
:101EB000BF92CF92DF92EF92FF920F931F93CF9337
:101EC000DF937C01162FC42FA62EB12C6C01CA0CF7
:101ED000DB1CF601438B442379F00E94D205F50107
:101EE000EE0FFF1FEE0FFF1FEE0DFF1DEE5AFF4F0F
:101EF00060837183828393831F3008F0B8C0F6013A
:101F0000D481153008F0B0C00C2F10E061E08D2FA7
:101F10000E942F040115110511F460E004C00F3F69
:101F2000110571F461E08D2FDF91CF911F910F9119
:101F3000FF90EF90DF90CF90BF90AF900C94010492
:101F4000ED2FF0E0EB57FE4FE491E150EF3008F059
:101F500086C0F0E0E255F04F0C946C34BD0FCC0F0E
:101F6000D10FDB0FE50F2F102F102F10EF0FF90FF0
:101F700003100D101A102F10221084B5806884BD34
:101F8000C7BDDF91CF911F910F91FF90EF90DF9030
:101F9000CF90BF90AF90089584B5806284BDC8BDD6
:101FA000F0CF80918000806880938000109389003A
:101FB00000938800E6CF809180008062809380004B
:101FC00010938B0000938A00DCCF809180008860A2
:101FD0008093800010938D0000938C00D2CF80916D
:101FE000900080688093900010939900009398006F
:101FF000C8CF8091900080628093900010939B00E6
:1020000000939A00BECF80919000886080939000EA
:1020100010939D0000939C00B4CF8091C000806815
:102020008093C0008091C0008F7B8093C000C093DC
:10203000CF00A7CF8091C00080628093C000C09382
:10204000D0009FCF8091C20088608093C2008091B1
:10205000C2008B7F8093C200C093D20092CF003821
:1020600011050CF05FCF59CFC7FF57CF5BCF1F31A2
:1020700008F4C09581EF810F50E040E060E070E12E
:10208000CF3F61F040E050E170E060E0CC2331F000
:10209000F0E1CF9FA001112461E070E0DF91CF91CA
:1020A0001F910F91FF90EF90DF90CF90BF90AF9076
:1020B0000C94460DCF92DF92EF92FF921F93CF9335
:1020C000DF93EC01162F2881398170E0F901E60FCA
:1020D000F71FDF01A258BF4F8C91481708F4842FD7
:1020E0009081F901E55EFE4F4081442331F091304B
:1020F00011F09430F1F480E01CC09430D1F48823C6
:10210000C1F06C0F7D1FFB019389992391F0D901D8
:1021100050E040E09D91943009F053C0FE01E40F7F
:10212000F51F938991114DC0142FE15BFE4F91E093
:102130009083412F50E0240F351FF9019081943096
:1021400009F046C0811144C01A3008F041C04C0F5C
:102150005D1FFA01E15BFE4F8081811126C0F12CE9
:10216000E12CE881F981EE0DFF1D80818430B1F40E
:10217000FE01EE0DFF1D8389882381F06F0181EB45
:10218000C81A8EEFD80AF6018081882339F040E022
:102190006E2DCE010E94570FF6011082FFEFEF1A4D
:1021A000FF0A89E0E816F104E1F640E0612FCE0174
:1021B000DF91CF911F91FF90EF90DF90CF900C9423
:1021C000570F4F5F5F4F4930510509F0A3CFB1CF93
:1021D000482FECCFCF93DF930E94C701C0912A070D
:1021E000D0E080912B078C171D06B9F0B4F0E09178
:1021F000A006F091A106EC0FFD1F80814CE3823018
:1022000019F0833041F44FEF6C2F8091A20690912A
:10221000A3060E945A102196E4CFDF91CF91089532
:102220008F929F92AF92BF92CF92DF92EF92FF92E6
:102230000F931F93CF938C01065E1E4FF801C08150
:10224000C1113BC00E94D2054B015C010E94D20526
:102250006B017C01C818D908EA08FB08F8E8CF161A
:10226000F3E1DF06E104F10424F58CE093E00E9441
:102270009B031816190694F48CE093E00E9459030E
:10228000C82F8C2FCF911F910F91FF90EF90DF906F
:10229000CF90BF90AF909F908F9008950E94D205ED
:1022A0006B017C0162E370E080E090E00E949B049F
:1022B000D1CF81E0F8018083E4CFC0E0E2CFEF929C
:1022C000FF920F931F93CF93DF937C01142F062F60
:1022D000EB01C7010E94101189938C2F801B81177D
:1022E000C0F3DF91CF911F910F91FF90EF90089570
:1022F0000F931F93CF938C010E941011C82FC80118
:102300000E9410112C2F30E0322F2227820F932FA2
:10231000911DCF911F910F910895FC010190002014
:10232000E9F73197AF01481B590BBC018CE093E0F2
:102330000C94BC058F929F92AF92BF920F931F9304
:10234000CF93DF93CDB7DEB7A1970FB6F894DEBF7A
:102350000FBECDBF19A2423008F44AE08E010F5DD6
:102360001F4F842E912CB12CA12CA50194010E9409
:102370008031E62FB901CA01EA30F4F4E05DD801FA
:10238000EE938D01232B242B252B79F790E080E011
:10239000109719F0CD010E948D11A1960FB6F894F7
:1023A000DEBF0FBECDBFDF91CF911F910F91BF90C8
:1023B000AF909F908F900895E95CE1CFCF92DF922C
:1023C000EF92FF92CF93DF936C01990FEE08FF0815
:1023D000F7FE19C06DE28CE093E00E941803EC0157
:1023E00066277727CB016C197D098E099F094AE082
:1023F0000E949A118C0F9D1FDF91CF91FF90EF905B
:10240000DF90CF9008954AE0C701B601DF91CF91E8
:10241000FF90EF90DF90CF900C949A110E94DE1104
:1024200083EE91E00C942E034F925F926F927F9215
:102430008F929F92AF92BF92CF92DF92EF92FF92D4
:102440000F931F93CF936B017C01742EAC019B0102
:102450000E944734882399F082EF91E0CF911F9139
:102460000F91FF90EF90DF90CF90BF90AF909F9033
:102470008F907F906F905F904F900C948D114601DC
:102480005701E894B7F82FEF3FEF4FE75FE7C5013B
:10249000B4010E94473481110DC02FEF3FEF4FE789
:1024A0005FE7C501B4010E941E3218161CF486EFC6
:1024B00091E0D4CF2FEF3FEF4FE75FE4C701B601C4
:1024C0000E94D53318161CF48AEF91E0C7CF2FEF86
:1024D0003FEF4FE75FECC701B6010E941E3287FD58
:1024E000F3CF20E030E0A901C701B6010E941E32FF
:1024F00010E000E087FF0AC06DE28CE093E00E94EC
:1025000018038C01F7FAF094F7F8F094C0E060E05B
:1025100070E080E09FE37C1641F020E030E040E294
:1025200051E40E942332CF5FF6CFA70196010E94AB
:10253000B2312B013C010E949C324B015C014AE00C
:102540000E949A117C01E00EF11ECC23C1F1C5015D
:10255000B4010E94CB329B01AC01C301B2010E94C5
:10256000B1314B015C016EE28CE093E00E941803F4
:10257000E80EF91EC15018F120E030E040E251E4CD
:10258000C501B4010E94DA332B013C010E949C3248
:102590004B01B12CA12C4AE0C501B4010E949A1153
:1025A000E80EF91EC501B4010E94CB329B01AC01BB
:1025B000C301B2010E94B1314B015C01DBCFC70105
:1025C000CF911F910F91FF90EF90DF90CF90BF9030
:1025D000AF909F908F907F906F905F904F900895F5
:1025E000682F70E090E080E04AE00E949A1185EE4A
:1025F00091E00C942E030F931F93CF93DF93142F2E
:10260000062FEB0189910E94F0128C2F801B8117FD
:10261000C8F3DF91CF911F910F9108953F924F9290
:102620005F926F927F928F929F92AF92BF92CF9262
:10263000DF92EF92FF920F931F93CF93DF9300D01F
:10264000CDB7DEB7FC014B01042F968187819983BA
:102650008A83C080D180C114D10409F479C0418536
:1026600050E0D60114968D919C9184179507B0F493
:10267000312C832D0F900F90DF91CF911F910F91EF
:10268000FF90EF90DF90CF90BF90AF909F908F9092
:102690007F906F905F904F903F900895F6018081FA
:1026A00091E090939C028093BE0210929D02109242
:1026B000BF0220E0BE016F5F7F4FC6010E944A0B40
:1026C000382E8823A9F210E0B12CA12CA016B10657
:1026D00080F6D60114968D919C917801EA18FB083A
:1026E0008E159F0508F47C0141E0C8018E199F09F1
:1026F000A816B90608F440E06E2D613208F060E2D9
:10270000F60180810E94820910929B0280939A02B6
:102710008E151F0409F0ACCF34016A0C7B1C230119
:10272000C201861997098E159F0578F4D601119676
:102730008D919C91DC01ED91FC910284F385E02D5B
:102740000995F20181932F01EBCFAE0CBF1CBECFD8
:10275000A281B381109709F48BCF2481358110E0D9
:10276000418550E02330310571F4816089839A837B
:102770004F5F5F4F9401BE016F5F7F4FCD010E949D
:102780008E08382E76CF2115310519F4906899837B
:10279000F1CF2230310511F49F77F9CF2130310587
:1027A00049F7906CF4CFAF92BF92CF92DF92EF9245
:1027B000FF920F931F93CF93DF93CDB7DEB7A1970F
:1027C0000FB6F894DEBF0FBECDBF80913208909156
:1027D0003308188A198A1A8A1B8A9A8389831C8269
:1027E0001B8281E08A878BE390E098878F831B862A
:1027F0008EE089874EE0BE016C5E7F4FCE01019670
:102800000E940E136C897D8976276727762770933F
:102810002B0860932A08AE88BF88BA24AB24BA2458
:10282000B0922D08A0922C08088D198D1027012731
:10283000102710932F0800932E0880913008909154
:102840003108C12CD12CE12C35E4F32E83309105D5
:1028500001F1C12CD12C20E8E22E25E4F22E8230A9
:102860009105B9F08130910579F0C12CD12C40E867
:10287000E42E4FE3F42E892B61F4C12CD12C80E897
:10288000E82E86E4F82E05C0C12CD12CE12C96E46C
:10289000F92E072E000C880B990B0E94CD32A70150
:1028A00096010E9423322AE038EE4CE151E40E9466
:1028B000DA3360931E0870931F088093200890936A
:1028C0002108B501BB0C880B990B0E94CD32A701E2
:1028D00096010E9423322AE038EE4CE151E40E9436
:1028E000DA3360932208709323088093240890932E
:1028F0002508B801110F880B990B0E94CD32A70152
:1029000096010E9423322AE038EE4CE151E40E9405
:10291000DA336093260870932708809328089093F1
:102920002908A1960FB6F894DEBF0FBECDBFDF9188
:10293000CF911F910F91FF90EF90DF90CF90BF90BC
:10294000AF900895CF92DF92EF92FF921F93CF93B3
:10295000DF93EC0160E971E080E090E00E949B046D
:102960001B821C821D821E821F82188619861A866F
:1029700012E30E94D313E981FA81E65FFE4F808162
:10298000883008F44AC020912608309127084091E9
:102990002808509129086B817C818D819E810E943D
:1029A000B2316B837C838D839E832091220830918A
:1029B000230840912408509125086F8178858985E6
:1029C0009A850E94B2316B017C01CF82D886E9865C
:1029D000FA86115071F620E030E048E452E46B8151
:1029E0007C818D819E810E9423326B837C838D83C9
:1029F0009E8320E030E048E452E4C701B6010E9423
:102A000023326F83788789879A87DF91CF911F91CF
:102A1000FF90EF90DF90CF90089520911E083091A5
:102A20001F084091200850912108B5CFCF93DF9324
:102A3000EC01BC01655F7F4F48850E940E1388231F
:102A400001F1488550E030E020E060E070E0CB012B
:102A500024173507CCF4982F872F762F6627EA8521
:102A6000E1110AC0FA01E21BF30BEC0FFD1FE28536
:102A70006E2B2F5F3F4FECCFFE01E20FF31FE3857C
:102A8000F7CF6FEF7FEFCB01DF91CF9108958F925A
:102A90009F92AF92BF92CF92DF92EF92FF920F93ED
:102AA0001F93CF93DF93EC014A015B0188819981E9
:102AB0000E9416152A8101E010E002C0000F111FCC
:102AC0002A95E2F701501109012E000C220B330B5D
:102AD000AB81680179010A2E04C0CC0CDD1CEE1C10
:102AE000FF1C0A94D2F7C094D094E094F094C622CC
:102AF000D722E822F922E881F981B901A801482109
:102B000059216A217B2104C0440F551F661F771F7E
:102B1000AA95D2F74C295D296E297F292085CF01FE
:102B2000DF91CF911F910F91FF90EF90DF90CF90A9
:102B3000BF90AF909F908F900C94680BCF93DF93D2
:102B4000CDB7DEB767970FB6F894DEBF0FBECDBF27
:102B5000EEE1F8E024893589188A198A1A8A1B8AD5
:102B60003A8329831C821B8291E09A872CE130E012
:102B700038872F831B8699879E012F5F3F4F3D8BA0
:102B80002C8B92E09E8B93E09F8B282F30E0338B31
:102B9000228B482F50E070E060E0CE0144960E9406
:102BA000471567960FB6F894DEBF0FBECDBFDF9115
:102BB000CF9108950F931F93CF93DF93EC018981F9
:102BC0009A81FC01E65FFE4F2081283008F02850F2
:102BD0002F8BEB85FC85DC01AE5EBE4F4D915C9189
:102BE000119700271127041B150B012E000C220B37
:102BF000330B00AF11AF22AF33AF052E000C660BC5
:102C0000770B44AF55AF66AF77AF4D915C91DF0165
:102C1000A05CBF4F00271127041B150B012E000CD1
:102C2000220B330B0D931D932D933C931397EC5B69
:102C3000FF4F052E000C660B770B40835183628398
:102C40007383835F9E4FFC0180810E949E15CE019D
:102C5000DF91CF911F910F910C94A214EF92FF92EC
:102C60000F931F93CF93DF93CDB7DEB7C154D10934
:102C70000FB6F894DEBF0FBECDBF8EE1E82E88E020
:102C8000F82EF701848995891EAA1FAA18AE19AEDD
:102C900098A78FA31AA619A611E018AB89E190E0B6
:102CA0009EA78DA719AA1FA720E040E050E0BA0117
:102CB000CE0187960E94680BF701848995891BA233
:102CC0001CA21DA21EA29D8B8C8B1F8A1E8A1D8F8B
:102CD0008AE190E09B8F8A8F1E8E1C8FCE014496D6
:102CE0009FAF8EAF03E021960FAF219722961FAEC4
:102CF000229746E050E060E070E08A960E94471517
:102D0000F70184899589188A198A1A8A1B8A9A83F5
:102D100089831C821B821A878CE190E098878F83BD
:102D20001B861987CE0101969BAF8AAF0CAF1DAEF3
:102D300044E050E060E070E0C9960E944715CF5B28
:102D4000DF4F0FB6F894DEBF0FBECDBFDF91CF913E
:102D50001F910F91FF90EF900895EF92FF920F93C4
:102D60001F93CF93DF93CDB7DEB7ED970FB6F894EF
:102D7000DEBF0FBECDBF809132089091330800971F
:102D800011F00E94223564E670E080E090E00E943D
:102D90009B0486E090E00E9486348C0188E6F8016E
:102DA000808385EF97E092838183138280E290E0B5
:102DB0009583848310933308009332080E944A0954
:102DC000FF24F394F801F382C8010E94240CE82E3A
:102DD000882309F49AC080913208909133081EAA82
:102DE0001FAA18AE19AE98A78FA31AA619A6F8AAFB
:102DF0002BE630E03EA72DA719AAFFA61BA21CA216
:102E00001DA21EA29D8B8C8B1F8A1E8AFD8E88E6BA
:102E100090E09B8F8A8F1E8EFC8ECE0187969BAF93
:102E20008AAFFCAE87E08DAF41E050E060E070E03B
:102E3000CE01CA960E94471501E010E08AAD9BAD15
:102E40000E941615AB01BC018CAD980102C0220F87
:102E5000331F8A95E2F7C9010197092E000CAA0BCE
:102E6000BB0B2DAD04C076956795579547952A9570
:102E7000D2F784239523A623B7230197A105B10593
:102E800039F461E070E080E090E00E949B04D6CFCE
:102E900064E670E080E090E00E949B0420E047E060
:102EA00050E060E070E0CE0144960E94680B64E65A
:102EB00070E080E090E00E949B040E942E1680E06B
:102EC0000E949E158091320890913308188A198AC1
:102ED0001A8A1B8A9A8389831C821B8281E08A87D3
:102EE0002BE630E038872F831B86898720E041E07E
:102EF00050E060E070E0CE0101960E94680B64E64D
:102F000070E080E090E00E949B048E2DED960FB65D
:102F1000F894DEBF0FBECDBFDF91CF911F910F910F
:102F2000FF90EF9008958F929F92AF92BF92CF92B1
:102F3000DF92EF92FF921F93CF93DF93EC016A0130
:102F40007B0120E030E040E85FE3CB01B6010E9466
:102F50001E3287FDA3C020E030EC4AE555E4C701EE
:102F6000B6010E94D53318163CF4C12C30ECD32E98
:102F70003AE5E32E35E4F32E6B817C818D819E81D1
:102F80000E94CB324B015C0120E030E040E855E488
:102F9000C701B6010E94DA339B01AC01C501B4013F
:102FA0000E94233220E030E040E05FE30E94B23133
:102FB00020E030E040E85FE30E94B1316B017C012A
:102FC00020E030E040E450E40E941E3287FD6DC0F6
:102FD00020E030E04FE753E4C701B6010E94D5334B
:102FE000181634F4C12CD12C9FE7E92E93E4F92E66
:102FF00089819A81288131E030939C022093BE021E
:1030000010929D021092BF02DC01ED91FC910190A3
:10301000F081E02D60E0099581E00E945A0A41E0CC
:1030200061E088810E94820910929B0280939A023B
:1030300089819A81DC01ED91FC910284F385E02D78
:103040000995182F482F4F76406160E0CE010E940D
:10305000D20CC701B6010E949C32462F6EEFCE0102
:103060000E94D20C412F60E0CE010E94D20C65E09C
:1030700070E080E090E00E949B04412F406A60E095
:10308000CE01DF91CF911F91FF90EF90DF90CF9015
:10309000BF90AF909F908F900C94D20CC12CD12CEC
:1030A00020E8E22E2FE3F22E67CFC12CD12C80E452
:1030B000E82EFE2C9DCFCF93DF93EC010E944A09AE
:1030C00040E860E0CE010E94D20C6AE070E080E04F
:1030D00090E00E949B0440E050E06AE774E4CE0177
:1030E0000E94931780E498E7ADE7B1E08B839C835F
:1030F000AD83BE83DF91CF910895CF93DF93EB0132
:103100000E9438318883CE01DF91CF9108950F93CB
:103110001F93CF938C010E943831C82FC8010196AC
:103120000E9438312C2F30E0322F2227820F932F2C
:10313000911DCF911F910F91089585ED8093BC0053
:103140008091080390910903A0910A03B0910B03A9
:103150000796A11DB11D23E0B695A7959795879574
:103160002A95D1F72091BC0024FD03C010920603DC
:103170000895409108035091090360910A037091EA
:103180000B03452B462B472B69F30097A105B1058F
:1031900041F025E32A95F1F700000197A109B10953
:1031A000E1CF809107030C9461092F923F924F92D7
:1031B0005F926F927F928F929F92AF92BF92CF92C7
:1031C000DF92EF92FF920F931F93CF93DF9300D084
:1031D00000D0CDB7DEB73C012DB73EB73C832B8383
:1031E0008F569F4F9A838983FC018081281B310968
:1031F0000FB6F8943EBF0FBE2DBF8DB79EB7019698
:103200002C01F30124A8312CDC0190E080E0F301D3
:10321000821593054CF420A931A9F901E80FF91F93
:1032200020812D930196F3CF85A9882341F184A5B0
:1032300095A528E097FD09C068E671E00E94583422
:103240006DE270E00E945834262FF30186A597A501
:1032500068E097FD08C068E671E00E9458346DE2AE
:1032600070E00E945834F201E20DF31D30E1639FDB
:10327000B0011124262B2083C10101961C014201BB
:10328000820C931CF301A4ACB5ACC6ACD7ACE0ACDB
:10329000F1AC02AD13AD208131814281538166A929
:1032A0006170C3010E942B0E280E391E4201820C50
:1032B000931CF301EC5BFF4FA080B180C280D380F0
:1032C0003497E080F18002811381F30124813581FC
:1032D0004681578166A966956170C3010E942B0ED5
:1032E000280E391E4201820C931CF301E45BFF4F50
:1032F000A080B180C280D3803497E080F1800281C9
:103300001381F301208531854285538566A962FBCF
:10331000662760F9C3010E942B0E280E391E420158
:10332000820C931CF301EC5AFF4FA080B180C28045
:10333000D3803497E080F18002811381F3012485EA
:1033400035854685578566A963FB662760F9C30105
:103350000E942B0E280E391E4201820C931CF30191
:10336000E45AFF4FA080B180C280D3803497E080C0
:10337000F18002811381F3012089318942895389C7
:1033800066A962956170C3010E942B0E280E391E3A
:103390004201820C931CF301EC59FF4FA080B180D5
:1033A000C280D3803497E080F18002811381F301E1
:1033B000248935894689578966A965FB662760F99E
:1033C000C3010E942B0E280E391E4201820C931C51
:1033D000F301E459FF4FA080B180C280D3803497BD
:1033E000E080F18002811381F301248D358D468DBB
:1033F000578D67A96170C3010E942B0E280E391EDC
:103400004201820C931CF301EC58FF4FA080B18065
:10341000C280D3803497E080F18002811381F30170
:10342000208D318D428D538D67A966956170C301E2
:103430000E942B0E280E391E4201820C931CF301B0
:10344000E458FF4FA080B180C280D3803497E080E1
:10345000F18002811381F30120A131A142A153A186
:1034600067A962FB662760F9C3010E942B0E280E34
:10347000391E4201820C931CF301EC57FF4FA080D0
:10348000B180C280D3803497E080F18002811381C3
:10349000F30124A135A146A157A167A963FB6627C3
:1034A00060F9C3010E942B0E280E391E4201820CC6
:1034B000931CF301E457FF4FA080B180C280D380FA
:1034C0003497E080F18002811381F30120A531A5BA
:1034D00042A553A567A962956170C3010E942B0E96
:1034E0000E94F60D4C01E981FA814081F301E05719
:1034F000FF4F808150E03A01FFEF6F1A7F0A2DB72E
:103500003EB7261937090FB6F8943EBF0FBE2DBF40
:103510000DB71EB70F5F1F4FEDB7FEB78183B20126
:10352000C80101960E94AB35F4018381A301B80163
:1035300080640E94CD042B813C810FB6F8943EBF7D
:103540000FBE2DBF0F900F900F900F90DF91CF9176
:103550001F910F91FF90EF90DF90CF90BF90AF90B1
:103560009F908F907F906F905F904F903F902F90A3
:103570000895FC0183A9681700F5A62FA695A695C6
:10358000A69580A991A9A80FB92FB11D962F977064
:1035900041E050E060E070E004C0440F551F661F3A
:1035A000771F9A95D2F740958C9148234C9382A926
:1035B000882319F0CF010C94D5180895CF92DF928B
:1035C000EF92FF920F931F93DC01D3962C91D39728
:1035D000621740F5E62FE695E695E695D0962D9193
:1035E0003C91D197E20FF32FF11D677001E010E0DD
:1035F00020E030E06801790104C0CC0CDD1CEE1C39
:10360000FF1C6A95D2F720812C292083D2962C9119
:10361000222341F01F910F91FF90EF90DF90CF9008
:103620000C94D5181F910F91FF90EF90DF90CF90E1
:1036300008950C9440311F93CF93DF93EC01162F24
:10364000672F0E94191B612FCE010196DF91CF9148
:103650001F910C94191BCF92DF92EF92FF920F9360
:103660001F93CF93DF93EC016C017C018EE7E80E92
:10367000F11C10E000E0F60161916F01C8010E94A9
:10368000191BF60166ADC8018C599F4F0E94191B8A
:10369000F70161917F01C80188539F4F0E94191B58
:1036A000F70166ADC801845D9E4F0E94191B0F5F34
:1036B0001F4F0F331105F9F6FE01E450FF4F6081F3
:1036C000718181E991E00E941B1BFE01E250FF4FD6
:1036D0006081718183E991E00E941B1BFE01F395DB
:1036E0006081718185E991E00E941B1B7E01FEEFE4
:1036F000EF1AFF0A07E911E0F70161917F01C801A4
:103700000E94191B0F5F1F4F0B39F1E01F07A1F734
:103710007E018AEFE81A8EEFF80A01EA11E0F7015C
:1037200061917F01C8010E94191B0F5F1F4F053A6D
:10373000F1E01F07A1F7FE01E65FFE4F60818AEA14
:1037400091E00E94191BFE01E45FFE4F60818BEA4D
:1037500091E00E94191BFE01E35FFE4F608182EC45
:1037600091E00E94191BFE01E25FFE4F60817181B2
:1037700084EC91E00E941B1BFE01EC5EFE4F608119
:1037800086EC91E00E94191BFE01E05FFE4F608114
:10379000718187EC91E00E941B1BFE01EE5EFE4FE3
:1037A0006081718189EC91E00E941B1BFE01EB5E40
:1037B000FE4F60818BEC91E00E94191BFE01EA5ED6
:1037C000FE4F60818CEC91E00E94191BFE01E95EC6
:1037D000FE4F60818DEC91E00E94191BFE01E85EB6
:1037E000FE4F60818EEC91E00E94191BFE01E75EA6
:1037F000FE4F60818FEC91E00E94191BC35EDE4F8B
:1038000004EF11E06991C8010E94191B0F5F1F4F5F
:103810000F3082E01807B1F765E688EE93E0DF919C
:10382000CF911F910F91FF90EF90DF90CF900C946C
:10383000191B1F920F920FB60F9211248F939F9313
:103840008091E1009091E100937F9093E10083FFEC
:103850000FC01092E90091E09093EB001092EC0001
:1038600092E39093ED001092950298E09093F0000F
:1038700082FF22C093E09093E9009091F200992397
:1038800019F09AE39093E80090919002992341F007
:1038900090919002915090939002911101C05D9A85
:1038A00090919402992341F09091940291509093B9
:1038B0009402911101C0289A84FF18C08091E200FF
:1038C0008E7E81608093E2008091E1008F7E809304
:1038D000E100809193028E7E8061809393029F919C
:1038E0008F910F900FBE0F901F90189580FFF7CF0C
:1038F0008091E2008E7E80618093E2008091E10001
:103900008E7E8093E100809193028E7E8160E5CF70
:103910001F920F920FB60F921124CF92DF92EF9267
:10392000FF920F931F932F933F934F935F936F9348
:103930007F938F939F93AF93BF93EF93FF93CF9317
:10394000DF93CDB7DEB76C97DEBFCDBF1092E90035
:103950008091E80083FF25C068E0CE0145960E9473
:103960007E0282EF8093E8008D8987FF39C09091B5
:10397000E80090FFFCCF982F907609F034C19E8923
:103980004F89588D2F89F88C911131C0803861F59D
:10399000809191028093F1001092F1008EEF80935C
:1039A000E8006C960FB6F894DEBF0FBECDBFDF9176
:1039B000CF91FF91EF91BF91AF919F918F917F91A7
:1039C0006F915F914F913F912F911F910F91FF90B8
:1039D000EF90DF90CF900F900FBE0F901F90189533
:1039E0009EEF9093E800C7CF1092F100D5CF9130B1
:1039F00059F48111D3CF4130510581F68091910264
:103A00008D7F80939102CACF933049F48111C6CF44
:103A10004130510519F6809191028260F2CF9530C4
:103A200041F48091E80080FFFCCF20682093E30000
:103A3000B5CF963009F0A9C00B8D1C8D22E01092F5
:103A4000E90010928E0210928D02F2122EC0109296
:103A50008C0210928B020E949F021F8299E0998330
:103A6000FA8291E09E8390EA98879AEF9987209155
:103A70008D0230918E02275F3F4F3C832B838D83D5
:103A80001092E90010928E0210928D0210938C0217
:103A900000938B0249E050E0BE016F5F7F4F80E0F2
:103AA0000E9447020E949F0279CF10938C020093DC
:103AB0008B020E948B02DC0112960D911C91011564
:103AC000110509F451C1D801ED91FC910480F581F3
:103AD000E02DBE016B5E7F4FC8010995009709F08C
:103AE0003EC1F80100851185EACFF3E0FF120EC058
:103AF0008F89882309F440C0823061F440E860E196
:103B000088E291E00E941402811148CF81E2809303
:103B1000EB0047CF813029F440E867E080E291E094
:103B2000F1CF833099F70E948B02DC011296ED9061
:103B3000FC908E010F5F1F4F6801E114F10479F0D2
:103B4000D701ED91FC910680F781E02DB801C70106
:103B50000995080F111DF701E084F184EECFD8011B
:103B60001C92F60101900020E9F73197BF016C1912
:103B70007D0940E0C601C6CF6AE071E0FB014491D7
:103B800050E080E80E94470209CF973009F4BECF89
:103B9000983021F481E08093F10000CF993009F052
:103BA000FDCE837009F0B2CFE1E0F1E081E031E0D9
:103BB00096E32191222371F08093E9003093EB008A
:103BC000DF0111972C912093EC009093ED008F5F13
:103BD000873079F78EE78093EA001092EA008F89A8
:103BE00080939502DBCE8B8D9C8D1092E900109214
:103BF0008E0210928D0290938C0280938B02898D9D
:103C0000811192C08E899D89913A49F4813209F0DF
:103C10007DCF47E050E06BE071E080E0B3CF9132C0
:103C200009F074CF833269F48F89988DB0E0A0E0F9
:103C30008093070190930801A0930901B0930A01B2
:103C4000ADCE803269F48091E80082FFFCCF67E05E
:103C50008BE091E00E947E028BEF8093E8009ECE85
:103C6000823209F09BCE8F8980931201EEEFFFE73D
:103C7000859194918B3F9C4D51F1E0E0F8E080916B
:103C80000B0190910C01A0910D01B0910E01803BB0
:103C90009440A105B105F1F48091120180FD1AC094
:103CA000EE3F8AE0F80789F587E797E791838083FD
:103CB0008091600080938F0288E19BE00FB6F894BA
:103CC000A895809360000FBE9093600067CEEEEFE2
:103CD000FAE0D5CF808191818737974709F05ECE92
:103CE000A8958091600088618093600080918F0228
:103CF00080936000EE3F2AE0F20789F08091FE0A8F
:103D00009091FF0A9183808349CE8081918187378A
:103D1000980751F29093FF0A8093FE0AC5CF109244
:103D2000FF0A1092FE0A3ACE0E948B02DC01129624
:103D30000D911C910115110509F4E8CED801ED9102
:103D4000FC910190F081E02DBE016B5E7F4FC801B8
:103D50000995811123CEF80100851185EBCF181646
:103D600019060CF41BCED2CEF1E0FF12BECE6EE0EF
:103D700071E004CF1F920F920FB60F9211242F9370
:103D80003F938F939F93AF93BF93809177029091CE
:103D90007802A0917902B0917A023091760223E004
:103DA000230F2D3758F50196A11DB11D20937602E2
:103DB0008093770290937802A0937902B0937A026D
:103DC00080917B0290917C02A0917D02B0917E0255
:103DD0000196A11DB11D80937B0290937C02A0935C
:103DE0007D02B0937E02BF91AF919F918F913F91E1
:103DF0002F910F900FBE0F901F90189526E8230F5C
:103E00000296A11DB11DD2CF1F920F920FB60F9235
:103E100011242F933F934F935F936F937F938F93CF
:103E20009F93AF93BF93EF93FF938091B900887FE7
:103E3000803609F44AC0F0F5883209F4A7C018F5B5
:103E4000803109F49BC0B8F4882309F4F9C08830A4
:103E500009F494C0FF91EF91BF91AF919F918F9121
:103E60007F916F915F914F913F912F910F900FBE76
:103E70000F901F901895883109F488C0803251F74F
:103E80008093E40214C0803409F49DC040F4803370
:103E9000B9F38833F9F68093E40285ECB0C080353D
:103EA00009F485C0883509F496C0883499F60E94D3
:103EB0009D18D0CF883909F48CC038F5883729F09F
:103EC00050F4883611F0803729F683E0809306039A
:103ED0001092750257C0883809F47BC0803919F0F8
:103EE000803809F0B7CF80917502803208F071C038
:103EF000E091750281E08E0F809375028091BB0086
:103F0000F0E0EB5AFD4F80833DC0803B39F0E0F498
:103F1000803A09F479C0883A09F09CCF84E0809314
:103F200006031092540210925302E0919802F0910D
:103F3000990209958091530281110FC081E080930D
:103F400053021092330209C0803C09F4A6CF883C8A
:103F500009F4A3CF883B09F07DCFE091540281E0C2
:103F60008E0F80935402F0E0ED5CFD4F80818093D2
:103F7000BB00909154028091530229C08091E102CC
:103F80008093BB0085EC8093BC0064CF9091E302EA
:103F90008091E202981758F5E091E30281E08E0FDC
:103FA0008093E302F0E0E054FD4F8081E9CFE0919F
:103FB000E30281E08E0F8093E3028091BB00F0E08A
:103FC000E054FD4F80839091E3028091E2029817C4
:103FD000C8F285E8D8CFE091E30281E08E0F8093AC
:103FE000E3028091BB00F0E0E054FD4F80838091BC
:103FF000E50281115CCF81E08093E00284EA809346
:10400000BC001092060326CF85EC8093BC00109272
:10401000060380917502803230F4E0917502F0E081
:10402000EB5AFD4F10826091750270E0E0919602AC
:10403000F091970285E592E00995109275020ACFFA
:104040001092E40234CFEF92FF920F931F93CF931D
:10405000DF93CDB7DEB7C659D1090FB6F894DEBFEE
:104060000FBECDBF10920F0310920E0388EE93E0A7
:10407000A0E0B0E08093100390931103A09312038B
:10408000B09313038AEB91E090930D0380930C039C
:104090008FEF9FEF9093190380931803109286037C
:1040A0001092850388ED91E09093840380938303BD
:1040B00080917B03811113C01092760310927503D7
:1040C00083E792E090937803809377038FE290E008
:1040D00090937A038093790381E080937B038091AE
:1040E0006D0381112CC011E01093600310936103E4
:1040F00086E693E0909363038093620310926503D6
:10410000109264038CEC91E090935D0380935C03C8
:10411000109268031092670310926A031092690369
:1041200010936B0310936C0381EC809366030E94E1
:104130008B026CE573E00E94D00210936D03E09156
:104140006703F0916803309709F014C285E793E0A4
:1041500090936803809367038091690390916A0349
:104160002091790330917A03820F931F90936A0311
:104170008093690383EF91E09093900380938F0382
:104180001092F8071092F70788EE93E0A0E0B0E0F5
:104190008093F9079093FA07A093FB07B093FC076D
:1041A00084EE91E09093F6078093F50710929407C0
:1041B000109293071092970710929B0710929C07FA
:1041C00010929D0710929E078FEF93E0A0E0B0E061
:1041D00080939F079093A007A093A107B093A20795
:1041E0001092A3071092A4071092A5071092A60799
:1041F0008093A7079093A807A093A907B093AA0755
:104200001092AB071092AC071092AD071092AE0758
:104210008093AF079093B007A093B107B093B20714
:104220001092B3071092B4071092B5071092B60718
:104230008093B7079093B807A093B907B093BA07D4
:104240001092BB071092BC071092BD071092BE07D8
:104250008093BF079093C007A093C107B093C20794
:104260001092C3071092C4071092C5071092C60798
:104270008093C7079093C807A093C907B093CA0754
:104280001092CB071092CC071092CD071092CE0758
:104290008093CF079093D007A093D107B093D20714
:1042A0001092D3071092D4071092D5071092D60718
:1042B0008093D7079093D807A093D907B093DA07D4
:1042C0001092DB071092DC071092DD071092DE07D8
:1042D0008093DF079093E007A093E107B093E20794
:1042E0001092E3071092E4071092E5071092E60798
:1042F0008093E7079093E807A093E907B093EA0754
:104300001092EB071092EC071092ED071092EE0757
:104310008093EF079093F007A093F107B093F20713
:1043200023E02093F3074CE14093960710929807FF
:1043300087E08093990710929A0735E0398381E0EE
:104340008A8399E09B833C83E1EAED838E8355E881
:104350005F83288739879A8759E15B878C8759E281
:104360005D874E87F5E1FF87188A55E2598B8A8B66
:1043700065E76B8B8C8B55E95D8B4E8B45E54F8BE1
:10438000188E45E6498F1A8E41E84B8F72E07C8F7C
:104390006D8F8E8F5F8FA4E0A8A349A32AA33BA3B0
:1043A0008CA39DA38EA3FFA318A687E289A78FEFF6
:1043B0008AA78BA71CA61DA66EA780E18FA758AB66
:1043C00029ABEAAB1BAA9CAB80E38DAB9EAB81E330
:1043D0008FAB98AF82E389AF4AAF7BAF80EC8CAFF5
:1043E0008DAF8DE390E00E9486347C018DE3FE0169
:1043F0003196D70101900D928A95E1F787E090E020
:104400000E9486348C01DC0111961C921E92139638
:10441000FC92EE9212978DE390E015969C938E930A
:10442000149716961C920E94F60DFC01A385B48584
:10443000109709F0A9C01487038785859685D80150
:1044400014962D913C91820F931F968785879091AA
:104450009607892F869586958695977009F09CC05A
:104460008093970710919707812F90E00E948634E0
:10447000909394078093930781E09091980791110E
:1044800001C080E01A5F810F8093F40710926307E8
:1044900010926407109265071092660710926707E2
:1044A000109268071092690710926A0710926B07C2
:1044B00010926C0710926D0710926E0710926F07A2
:1044C0001092700710927107109272071092730782
:1044D0001092740710927507109276071092770762
:1044E000109278071092790710927A0710927B0742
:1044F00010927C0710927D0710927E0710927F0722
:104500001092800710928107109282071092830701
:1045100010928407109285071092860710928707E1
:10452000109288071092890710928A0710928B07C1
:1045300010928C0710928D0710928E078FEF9FEFCD
:104540009093900780938F079093920780939107A1
:1045500090E080E02091970728171906F9F0F4F011
:10456000E0919307F0919407E80FF91F10820196EC
:10457000F1CFFC01808191810097D9F785E793E025
:1045800091838083E9CDDC018D919C9111970097F7
:10459000D1F70D931C9351CF8F5F62CF10925107CB
:1045A00010925F0710925E0780E094E0909361079D
:1045B000809360071092620762E087E10E942F04F7
:1045C00010922D0710922E07EFE2F7E08CE1DF0149
:1045D0001D928A95E9F761E084E00E942F0461E072
:1045E00081E00E942F0460E080E00E942F0461E0DF
:1045F00081E00E942F041092A4068FE3E9EAF6E01E
:10460000DF01982F1D929A95E9F7E8EEF6E0DF01B9
:10461000982F1D929A95E9F7109227071092280774
:1046200095E09093290710922A0710922B0791E0AA
:1046300090932C071092880610928B0610928C068D
:1046400010928D0610928E0610928F061092900690
:10465000109291061092920610929A061092990664
:1046600010929C0610929B0610929E0610929F0636
:10467000109225062EEF31E0309327062093260670
:104680001092280698EC909329069AEF90932A06A8
:104690009BEF90932B062CEF20932C069DEF90938D
:1046A0002D069FEF90932E06109246061092450617
:1046B0001092480610924706E9E4F6E0DF01982FD1
:1046C0001D929A95E9F71092CE049FE09093CF0443
:1046D000EDE1F1E0A0EDB4E001900D929A95E1F7E3
:1046E000EFEDF4E0DF011D928A95E9F7EEE1F5E0E8
:1046F000DF011D922A95E9F710921A06EBE1F6E028
:104700008AE0DF011D928A95E9F70CEC14E0C801FC
:104710008C5C94400F5F1F4F2091CF04281719061F
:1047200039F034F061E0F80183810E942F04EFCF6B
:104730008FE3ECE2F1E0A1E9B3E001900D928A95FC
:10474000E1F78FE3E0EDF3E0DF01982F1D929A95FA
:10475000E9F7EBE6F1E0AFE0B4E0982F01900D92BD
:104760009A95E1F7EEE4F4E0DF011D928A95E9F70E
:104770008AE493E090938E0480938D048DE390E01F
:104780009093900480938F048BEC90E0909392042C
:1047900080939104109293041092940410929504C3
:1047A0001092960410929704109298041092990413
:1047B00010929A0410929B0410929C0481E08093C2
:1047C0009D0410929E042EE130E03093A0042093CB
:1047D0009F0420E233E03093A2042093A10428EE4A
:1047E00033E03093A4042093A3041092A5049AE02C
:1047F0009093A6049EE09093A70497E19093A80459
:1048000096E19093A90492E09093AA041092AB04CD
:104810001092AC048093AD04EEEAF4E08CE1DF0189
:104820001D928A95E9F788EC8093CA041092CB0414
:1048300080E480930F0885EF97E0909311088093B0
:10484000100821E42093080890930A08809309082F
:1048500022E42093010890930308809302081092A9
:104860001608109217081092180810921908109242
:104870001A0810921B0810921C0810921D08109222
:104880003108109230081092330810923208CA563C
:10489000DF4F0FB6F894DEBF0FBECDBFDF91CF91D3
:1048A0001F910F91FF90EF900895CF93DF9300D069
:1048B000CDB7DEB7789484B5826084BD84B581605D
:1048C00084BD85B5826085BD85B5816085BD8091DB
:1048D0006E00816080936E00109281008091810053
:1048E000826080938100809181008160809381004B
:1048F000809180008160809380008091910082602F
:1049000080939100809191008160809391008091CB
:1049100090008160809390008091C10084608093BA
:10492000C1008091C10082608093C1008091C1006C
:1049300081608093C1008091C30081608093C30037
:104940008091C00082608093C0008091C20081602D
:104950008093C20080917A00846080937A00809175
:104960007A00826080937A0080917A0081608093DF
:104970007A0080917A00806880937A001092950284
:1049800010929102109293028091D70081608093DF
:10499000D70080EA8093D80089B5806189BD89B548
:1049A000826089BD09B400FEFDCF61E070E080E067
:1049B00090E00E949B048091D8008F7C806180935E
:1049C000D8008091E000807F8093E0008091E1003A
:1049D0008E7E8093E1008DE08093E200559A209ACC
:1049E0008FEF9FEF909319038093180368EE73E0A5
:1049F00080E090E00E949B0468EE73E080E090E02D
:104A00000E949B04BE016F5F7F4F88EE93E00E947F
:104A10007D188981853609F0A3C210E000E0B80155
:104A20006F567C4FC8010E947D18B80160537C4FBF
:104A3000C8018C599F4F0E947D18B801615F7B4F60
:104A4000C80188539F4F0E947D18B801625B7B4F5D
:104A5000C801845D9E4F0E947D180F5F1F4F0F336A
:104A60001105E9F681E991E00E94871890938E0480
:104A700080938D0483E991E00E94871890939004BD
:104A800080938F0485E991E00E94871890939204A7
:104A90008093910463E974E087E991E00E947D18B6
:104AA00067E974E081EA91E00E947D1864E974E0AE
:104AB00088E991E00E947D1868E974E082EA91E05B
:104AC0000E947D1865E974E089E991E00E947D18F3
:104AD00069E974E083EA91E00E947D1866E974E078
:104AE0008AE991E00E947D186AE974E084EA91E025
:104AF0000E947D186BE974E08AEA91E00E947D18BB
:104B00006DE974E08BEA91E00E947D1880919D042C
:104B100080939C046EE974E082EC91E00E947D1821
:104B200084EC91E00E9487189093A00480939F04E6
:104B300065EA74E086EC91E00E947D1887EC91E0D4
:104B40000E9487189093A2048093A10489EC91E0BD
:104B50000E9487189093A4048093A30466EA74E0EB
:104B60008BEC91E00E947D1867EA74E08CEC91E098
:104B70000E947D1868EA74E08DEC91E00E947D1837
:104B800069EA74E08EEC91E00E947D186AEA74E0B4
:104B90008FEC91E00E947D1804EF11E0B80166549B
:104BA0007D4FC8010E947D180F5F1F4F0F3022E01C
:104BB0001207A1F781E993E09093CD048093CC0490
:104BC0008FE098E00E945B1830ECC32E3CEFD32EB0
:104BD0003BE9E32EFF24F394C0921208D09213080D
:104BE000E0921408F092150840E050E064EB72E4A3
:104BF0008FE098E00E94931788E098E00E945B188D
:104C0000C0920B08D0920C08E0920D08F0920E08AA
:104C100040E050E064EB72E488E098E00E94931773
:104C200081E098E00E945B18C0920408D0920508C9
:104C3000E0920608F092070840E050E064EB72E46E
:104C400081E098E00E9493178CE08093B800109266
:104C5000920288EB9BE0A0E0B0E080930803909381
:104C60000903A0930A03B0930B0381E08093070329
:104C700010E040E0612F8CEC94E00E945A101F5F1E
:104C80001E33B9F793E6C92E97E0D92E81E08093C1
:104C90009507C6010E94D518D0924C07C0924B07C9
:104CA00001E913E010934E0700934D072CECE22E20
:104CB00024E0F22EF0925007E0924F0783EF91E04C
:104CC0009093900380938F0310935B0700935A0790
:104CD000D0925307C092520781E597E00E94CF0E11
:104CE0001093A1060093A006F092A306E092A206FC
:104CF0009091270730912807F80181E021912250F7
:104D0000223030F42FEF280F911101C0922F382F4D
:104D10008F5F8F3399F790932707309328078091FF
:104D20009D04882381F183E697E090939406809315
:104D3000930681E993E090938A06809389060E9406
:104D4000AD16811106C068EE73E080E090E00E942D
:104D50009B0410E00E94AD16811109C164E670E069
:104D600080E090E00E949B041B3009F0FEC080911F
:104D7000890690918A06FC01E45FFE4F1082855FF0
:104D80009E4FDC011C928CEC94E09093380680934B
:104D9000370681E597E0909332068093310688E8E4
:104DA00096E09093300680932F068DE297E09093E3
:104DB00034068093330681E993E09093360680931E
:104DC000350683E697E090933A06809339062224CD
:104DD0002A94312C80911A0890911B08A0911C08EC
:104DE000B0911D088093160890931708A093180897
:104DF000B093190861E081E00E94010460E084E062
:104E00000E94010461E084E00E94010460E081E00E
:104E10000E94010417E1E12EF12C412C512C3201AA
:104E200007E4C02E01E0D02EE5E8F1E08491E6E64B
:104E3000F1E00491F6011491112309F4A2C081114B
:104E40000E94B503E12FF0E0EE0FFF1FE75CFE4F7D
:104E5000A591B4918C91082331E020E009F430E071
:104E6000832F922F092E000CAA0BBB0B0E2C04C013
:104E7000880F991FAA1FBB1F0A94D2F7482A592AE4
:104E80006A2A7B2A61E081E00E94010460E081E0FF
:104E90000E940104F1E0EF1AF10808F0C5CF40923A
:104EA0001A0850921B0860921C0870921D0880918D
:104EB000160890911708A0911808B0911908841548
:104EC0009505A605B70509F4F2C07DE2A72E77E0A7
:104ED000B72EE2E0DE2E10E000E0F8E18F2EA4E134
:104EE0009A2ECC24C39440901A0850901B086090CE
:104EF0001C0870901D08002E04C076946794579487
:104F000047940A94D2F7D301C20180959095A09559
:104F1000B095382F3170F32ED50112968C91381739
:104F200009F4ACC0B1E04B225524662477242091CB
:104F30004D0730914E07F901EA5EFE4F4081842F04
:104F4000682D0E944C349017110621F44831E0F48A
:104F50003596F0824114510461047104D1F424C0E7
:104F600081E993E00E942B1B25CE1F5FF3CE1B30FF
:104F700009F409CF0E942E1688E896E00E94DA15FF
:104F800002CF90E080E06ECF4114510461047104BF
:104F900029F0E2E0DE120AC0D12C08C0F901E55E7A
:104FA000FE4F80818C258083DD24D394C801049733
:104FB000049708F0B6C0F901E75EFE4FE081F0E02B
:104FC000E35DF84F8281882309F4ABC090922D07EE
:104FD000E0912D07200F311FE20FF32FF11DE35E4B
:104FE000FE4F6081662351F083E893E04114510441
:104FF0006104710409F098C00E94280780914B0752
:1050000090914C0760912D07600F41145104610489
:10501000710409F48CC00E94B91AD5011296FC9251
:10502000F12CE12C80914D0790914E078E0D9F1D24
:10503000FC01EE5FFE4F20814114510461047104B4
:1050400009F078C0222399F02150330B2017310743
:1050500071F48A5F9E4FFC016081662341F06150CC
:105060004FEF80914F07909150070E945A10BFEF69
:10507000EB1AFB0AE4E0EE16F104A1F60F5F1F4FF6
:10508000FFEFAF1ABF0A0831110509F02CCF21E05C
:10509000D21263C0E0914D07F0914E07E45EFE4FDF
:1050A0008081833011F0863011F484E08083809118
:1050B0009302382F31703A8380FD44C50E947E01EF
:1050C0002C01990F66087708E0915A07F0915B0769
:1050D000E75CFE4F808100E014E0883C08F062C08D
:1050E000F12CE12C00E014E0E0915A07F0915B070D
:1050F000EB5EFE4F208130E0E216F306E4F50E94FD
:105100007E01801791070CF48C01092E000CAA0B6C
:10511000BB0B480E591E6A1E7B1E4FEFE41AF40AA1
:10512000E3CF10922D0754CF0E94D20667CF0E9482
:10513000DE1A73CF222309F49ACF2150330B2017A4
:10514000310709F094CF8A5F9E4FDC016C91662392
:1051500009F48DCF615040E084CFD110A8CFE09109
:105160004D07F0914E07E45EFE4F8081873009F0D5
:105170009ECF82E09BCF80916007909161070817D6
:10518000190724F410936107009360072F5F3F4FC6
:10519000032E000C440B550BC301B2010E94803159
:1051A00029013A0180915A0790915B07FC01F39520
:1051B000408151816A01A2E3CA0ED11C0D2C000C62
:1051C000EE08FF08F9964C145D046E047F0458F451
:1051D00042535109052E000C660B770B44155505FB
:1051E0006605770540F0BFED4B16B3E05B06610442
:1051F000710408F453C12081283C10F42F5F2083F0
:10520000FC01EC5EFE4F2081F22EE894F1F8E1E023
:10521000FE1220C020915C07211142C1FC01E45024
:10522000FF4F408151814F505109052E000C660BF4
:10523000770B441655066606770660F0895E9E4F2A
:10524000DC016C9180915207909153070E94DE1A05
:10525000F0925C0780915A0790915B07FC01EC5E2D
:10526000FE4F20812230F8F020915D07211139C1D5
:10527000769740815181465F5F4F052E000C660B8B
:10528000770B441555056605770568F0895E9E4FD6
:10529000DC016C9180915207909153070E94DE1AB5
:1052A00081E080935D07E0905A07F0905B07F7017B
:1052B000F39580809180C40187970817190714F42B
:1052C0001092620780916207823308F02BC18F5FD2
:1052D00080936207809160079091610790935907CE
:1052E0008093580780915E0790915F07409158071F
:1052F000509159078417950751F1F701E75CFE4F6C
:105300002081283C20F5841B950B0A9724F080917E
:1053100062078233E0F48091520790915307052E83
:10532000000C660B770BDC0118964D935D936D9323
:105330007C931B97D2962C9121110E94D5188091B5
:1053400058079091590790935F0780935E0780916B
:105350009C04882309F4CFC18091890690918A0624
:10536000FC01E75CFE4F2081283C09F0C4C1845E4B
:105370009E4FFC018081863009F00DC180919E0610
:10538000811107C088E896E00E94A21481E0809312
:105390009E060E94D3130091890610918A06F80197
:1053A000E65FFE4F808120918B0630918C06409104
:1053B0008D0650918E06883008F4F0C06091260862
:1053C0007091270880912808909129080E94B13196
:1053D00020E030E048EC52E40E94DA330E940833C7
:1053E0000E949532709396066093950620918F06E1
:1053F000309190064091910650919206609122085A
:105400007091230880912408909125080E94B13161
:1054100020E030E048EC52E40E94DA330E94083386
:105420000E9495327093980660939706F801E25FA8
:10543000FE4F20813181409195065091960657FF8D
:1054400003C05195419551094217530724F4109216
:10545000960610929506AB0177FF04C044275527A6
:10546000461B570B4217530724F4109298061092CC
:105470009706809195069091960620919F0621307F
:1054800009F095C0209197063091980631952195A5
:1054900031093093960620939506A4C01082B0CEB1
:1054A000213009F0D7CEFC01E450FF4F40815181FB
:1054B0004F505109052E000C660B770B441655060C
:1054C0006606770608F0C6CE895E9E4FFC016081B5
:1054D00080915207909153070E94B91A10925C076D
:1054E000B9CE213009F0DFCEFC01E250FF4F408100
:1054F0005181465F5F4F052E000C660B770B4415FC
:1055000055056605770508F0CECE895E9E4FFC01F5
:10551000608180915207909153070E94B91A1092AE
:105520005D07C1CE092C000CAA08BB0884149504A1
:10553000A604B70428F05092590740925807D2CEDB
:10554000C301B201681979098A099B090E94CB320B
:1055500020915407309155074091560750915707B5
:105560000E94DA332B013C01C501B4010E94CD3207
:105570009B01AC01C301B2010E94B2310E9495327D
:10558000709359076093580780E094E09093610707
:1055900080936007A7CE10929E06FBCE60911E08F6
:1055A00070911F0880912008909121080FCF223020
:1055B00061F4919581959109909396068093950653
:1055C00080919706909198060AC0233081F420912B
:1055D00097063091980630939606209395069195FC
:1055E0008195910990939806809397060AC024307C
:1055F00009F017C191958195910990939606809332
:10560000950680919D0650919506409196068111D0
:105610001DC1F801E05FFE4F20813181852F942F5D
:1056200097FF03C09195819591092817390764F078
:10563000809197069091980697FF03C09195819568
:105640009109281739076CF4F801E85EFE4F608174
:1056500080919306909194060E94DE1A81E08093D7
:105660009D064091950650919606809199069091DD
:105670009A0684179507D9F0809193069091940625
:10568000052E000C660B770BDC014D935D936D933B
:105690007C931397D2962C9121110E94D51880915A
:1056A00095069091960690939A068093990640915C
:1056B00097065091980680919B0690919C068417BE
:1056C0009507C9F08091930690919406052E000CE1
:1056D000660B770BFC01448355836683778322A98D
:1056E00021110E94D5188091970690919806909369
:1056F0009C0680939B060E94D2056B017C01E09181
:10570000A006F091A106E45EFE4F8081833009F48B
:1057100034C108F0C8C0813009F40DC1823009F4E9
:1057200015C100913706109138060E94D2052B0151
:105730003C0165E0C62ED12C7801E2EBEE1AEEEFCB
:10574000FE0AD7018C918E3308F0C6C18F5F8C930F
:10575000D7016C91862F90E0D801ED91FC911197C3
:10576000E80FF91F47ADA80FB91F53962C914217A8
:1057700040F5E354FF4F2081222319F1FC01EE0F85
:10578000FF1FEE0FFF1FE00FF11FEE5AFF4F80814A
:105790009181A281B38153014201881A990AAA0A10
:1057A000BB0AB4E62B9FC0011124092E000CAA0BE2
:1057B000BB0B88169906AA06BB061CF0C8010E94FE
:1057C0005A10E1E0CE1AD10809F0BBCF29E0C22E71
:1057D000D12C7724739437E0A32E8CE093E00E94C1
:1057E0009B03892B09F48EC18CE093E00E9459033E
:1057F0002091450630914606F901EB5DF94F868B05
:105800002115310509F06BC190913B068091280666
:1058100098136FC12F5F3F4F309346062093450684
:105820006CC1253041F4209197063091980631954E
:1058300021953109D0CE263009F4C2CE273009F0A7
:10584000E0CE209197063091980623CE813009F062
:1058500008CFF801E05FFE4F20813181852F942F22
:1058600097FF03C0919581959109821793070CF0DA
:10587000F8CE809197069091980697FF03C0919576
:1058800081959109821793070CF0EBCEF801E85E41
:10589000FE4F608180919306909194060E94B91A00
:1058A00010929D06DECE853009F4F0C008F4C2C027
:1058B000863009F036CF0E94C70100912A0710E018
:1058C000C8018056994F5C017724739480912B070F
:1058D0008017110609F00CF4A4C0E091A006F09125
:1058E000A106E00FF11F808182508230F0F4F501B3
:1058F000E85BFF4FD50119968C9190912907208183
:10590000213009F0E3C09101291B310982171306E8
:105910000CF4D8C01082D50119964C91602F80915B
:10592000A2069091A3060E945A100F5F1F4FBFEF6F
:10593000AB1ABB0ACBCFC092A506D092A606E092C6
:10594000A706F092A80685E08083EBCE0E94EA10BD
:1059500080912C07882309F4E4CEC092A506D0924A
:10596000A606E092A706F092A806E091A006F091A4
:10597000A106E45EFE4F83E0E7CF8091A5069091FB
:10598000A606A091A706B091A806A7019601281B1C
:10599000390B4A0B5B0BDA01C90181329E44A10528
:1059A000B1050CF4BECE0E94C70100912A0710E099
:1059B00080912B078017110639F134F1E091A00690
:1059C000F091A106E00FF11F808182508230C8F46F
:1059D0000E94283160E071E00E945834B82E482FB0
:1059E000602F8091A2069091A3060E945A10F801A0
:1059F000E056F94FDF01A85BBF4F8B2D81708C9370
:105A0000B1860F5F1F4FD4CF80912C07882309F4F4
:105A100088CEE091A006F091A106E45EFE4F86E0FC
:105A20008083C092A506D092A606E092A706F092C7
:105A3000A80677CE0E94C70100912A0710E0809146
:105A40002B0780171106A9F0A4F0E091A006F091B1
:105A5000A106E00FF11F8081823041F44FEF602FEB
:105A60008091A2069091A3060E945A100F5F1F4FCB
:105A7000E6CF80912C07882309F453CEE091A0064D
:105A8000F091A106E45EFE4F87E0CACF8091A506A3
:105A90009091A606A091A706B091A806C81AD90AA7
:105AA000EA0AFB0A41E1C41647E2D406E104F10424
:105AB0000CF437CE0E94EA1080912C07882309F459
:105AC00030CE53CF890FF501818725CF981710F07D
:105AD000708221CF891BF7CFF701108239CE213098
