:100000000C945D010C9485010C9485010C94850180
:100010000C9485010C9485010C9485010C94850148
:100020000C9485010C9485010C9488150C94ED15A5
:100030000C9485010C9485010C9485010C94850128
:100040000C9485010C9485010C9485010C94850118
:100050000C9485010C9485010C9485010C94011776
:100060000C9485010C9485010C9485010C948501F8
:100070000C9485010C9485010C9485010C948501E8
:100080000C9485010C9485010C9485010C948501D8
:100090000C944B170C9485010C9485010C948501EC
:1000A0000C9485010C9485010C94850100000000DE
:1000B000240027002A002D00300000000000250049
:1000C00028002B002E00310009029900040100A035
:1000D000FA0904000002FF5D010011210001012561
:1000E00081140000000013020800000705810320AE
:1000F0000004070502032000080904010004FF5D55
:1001000003001B210001010183400104201685002A
:100110000000000000160500000000000007058335
:1001200003200002070504032000040705850320BF
:100130000040070505032000100904020001FF5DCF
:10014000020009210001012286070007058603201D
:1001500000100904030000FFFD1304064100010123
:10016000030403090412010002FFFFFF405E048E36
:100170000214010102030158626F78205365637510
:1001800072697479204D6574686F6420332C205631
:10019000657273696F6E20312E30302C20A92032A9
:1001A000303035204D6963726F736F667420436F12
:1001B00072706F726174696F6E2E20416C6C207268
:1001C00069676874732072657365727665642E0062
:1001D000436C6576536F66742058496E7075742051
:1001E0004156520030783065386600436C6576536E
:1001F0006F6674205820496E70757400000000000E
:100200002300260029002C002F000404040404030A
:1002100004050202020204030202020206060606A6
:1002200006060404020202040404080201104080CD
:1002300040102040804080080204018040201002CD
:1002400001108010204040200D0A002C00422C009C
:100250000D0A002C004F2C000D0A00502C000D0A36
:10026000002C002C002C00412C00450D0A00432CD2
:1002700000522C530D0A00522C450D0A00562C3109
:100280002E31372E300D0A002C002C0007060504F5
:100290000100080A0B0C0D090000000200090F0004
:1002A00000030401000C000000000000000000003A
:1002B00000000000000000006A1811241FBECFEFEC
:1002C000DAE0DEBFCDBF12E0A0E0B1E0E8E3F9E59F
:1002D00002C005900D92A635B107D9F728E0A6E532
:1002E000B2E001C01D92A932B207E1F711E0CDE5FD
:1002F000D1E004C02197FE010E945B2BCC35D107D1
:10030000C9F70E940F1B0C949A2C0C9400008031AA
:1003100081F028F48F3051F090E080E00895813131
:1003200059F08231C9F78CE693E0089584E593E0B3
:1003300008958CE593E0089584E693E00895089588
:10034000089581E090E008959C0190E080E0F9013B
:10035000E80FF91FE491EE2311F00196F8CF08950C
:10036000CA010895E1E9F2E0E49190917B008E2FBB
:10037000880F880F80729F7D892B80937B00E770A8
:10038000E064E0937C0080917A00806480937A003E
:1003900080917A0086FDFCCF809178009091790061
:1003A0000895809149078823A9F08091440780939C
:1003B000470710924907809147078B5F8093480752
:1003C00090914507891728F09093480781E0809322
:1003D00049070895809147078B5F80934707EBCFCC
:1003E0000F931F93CF93DF93CDB7DEB728970FB648
:1003F000F894DEBF0FBECDBF8091B3020FEF1FEFA9
:100400008823B9F12FB7F89482E08093E9008091B6
:10041000F200082F10E00930110514F008E010E098
:10042000902FFE01319644E6915038F0289A40937F
:10043000B0023091F1003193F7CF882339F09091D9
:10044000F200911103C09BE69093E8002FBF833028
:1004500080F08981811119C09C8190934F039D8107
:1004600090935003E0915203F0915303309709F0B9
:100470000995C80128960FB6F894DEBF0FBECDBF10
:10048000DF91CF911F910F910895813059F79B8192
:100490009E3040F790935103E0915103EA3010F7FA
:1004A000F0E0EB5AFD4F0C945B2B5F025F0262029F
:1004B000660268026A026202660268026A021092BA
:1004C0004E03D0CF91E090934E03CCCF92E0FBCF80
:1004D00093E0F9CF94E0F7CF9FB7F89482E0809350
:1004E000E9008091F2009FBF81110C94F001089502
:1004F00092E0423009F496E090628093E90081E056
:100500008093EB006093EC009093ED008091EE00FF
:10051000881F8827881F089508954091A40250914C
:10052000A5022091A2023091A30242175307B4F40E
:100530009091E8009570E1F39091E80092FD19C068
:100540008093F1008091A4029091A50201968F738F
:100550009927892B19F48EEF8093E8008091A402EB
:100560009091A50201969093A5028093A40281E048
:10057000089580E00895EF92FF921F93CF93DF9349
:10058000F82E192FE62E81E0860F880F0E948D022B
:1005900083E00E948D02CF2DD12FEC0EFD2EF11C99
:1005A000CE15DF0591F0FE0184910E948D02182F77
:1005B00080E00E948D02812321968111F1CFDF918D
:1005C000CF911F91FF90EF90089581E0F8CFEF92C7
:1005D000FF920F931F93CF93DF938B01EC017C016C
:1005E000E60EF71ECE15DF0549F0FE0184910E944C
:1005F0008D0221968111F6CF0FEF1FEFC801DF9119
:10060000CF911F910F91FF90EF900895089590E082
:1006100080E008958FEF9FEF089581508F3008F0AC
:1006200047C0E82FF0E0E95EFC4F0C945B2B3403ED
:10063000380326032C0330035803580358033B03A5
:100640004103450349034F0358035303809180003E
:100650008F77809380000895809180008F7DF9CFFF
:1006600080918000877FF5CF84B58F7784BD089512
:1006700084B58F7DFBCF809190008F778093900021
:100680000895809190008F7DF9CF80919000877FB1
:10069000F5CF8091C0008F778093C000089580913E
:1006A000C0008F7DF9CF8091C200877F8093C20008
:1006B00008951F93CF93DF93282F30E0F901E85678
:1006C000FD4F8491F901E75DFD4FD491F901E65F9B
:1006D000FD4FC491CC23A9F0162F81110E940D0368
:1006E000EC2FF0E0EE0FFF1FE654FF4FA591B49101
:1006F0008FB7F894EC91111108C0D095DE23DC93EC
:100700008FBFDF91CF911F910895DE2BF8CFCF934C
:10071000DF9390E0FC01E75DFD4F2491865F9D4FE4
:10072000FC0184918823C9F090E0880F991FFC0197
:10073000E455FF4FA591B491FC01E654FF4FC591DC
:10074000D49161110DC09FB7F8948C9120958223AC
:100750008C938881282328839FBFDF91CF910895B0
:10076000623051F49FB7F8943C91822F8095832397
:100770008C93E8812E2BEFCF8FB7F894EC912E2B32
:100780002C938FBFEACF8230910538F0880F991FE4
:10079000880F991F05970197F1F708953FB7F894CF
:1007A00080919E0290919F02A091A002B091A1021F
:1007B00026B5A89B05C02F3F19F00196A11DB11DBC
:1007C0003FBFBA2FA92F982F8827BC01CD01620FF8
:1007D000711D811D911D42E0660F771F881F991FB3
:1007E0004A95D1F708958F929F92AF92BF92CF9280
:1007F000DF92EF92FF924B015C010E94CE036B01EE
:100800007C010E94CE036C197D098E099F09683E08
:10081000734081059105A8F321E0821A9108A1088F
:10082000B10888EEC80E83E0D81EE11CF11C8114CB
:100830009104A104B10429F7FF90EF90DF90CF90CD
:10084000BF90AF909F908F900895BF92CF92DF920C
:10085000EF92FF920F931F93CF93DF9380914C03FE
:10086000882309F483C010924C038091B302811154
:100870000CC08FEF9FEFDF91CF911F910F91FF90F1
:10088000EF90DF90CF90BF9008958091B20280FFEB
:1008900005C08091E00082608093E00088E3E82E4C
:1008A00083E0F82E0AEF10E0C4E1D0E0DD24D39419
:1008B00090E4B92E2AE3C22E9FB7F894D092E900B3
:1008C0008091E80085FD1EC09FBF015091F261E05C
:1008D00070E080E090E00E94F303209769F7111127
:1008E000EBCF5D9A84E68093B10281E08093E900CA
:1008F0008091F200882319F08AE38093E80084E174
:1009000090E0B9CF8091F2002B2D281B822F9FBF42
:100910002223D9F22C171D0611F00CF08C2F9FB753
:10092000F894D092E9002091E80025FD02C09FBF15
:10093000D4CF282F30E0C21BD30BF701815020F019
:1009400041914093F100FACFE20EF31E112321F002
:10095000C092E80010E0EBCF8091E80085FDE7CF82
:10096000C092E80011E0209711F3F4CF90E080E00E
:1009700082CF80914D0381110C94250408952FB7E7
:10098000F89460919A0270919B0280919C029091E0
:100990009D022FBF08958F929F92AF92BF92CF92E8
:1009A000DF92EF92FF9280919204811121C00E9408
:1009B000BF044B015C010E94BF046B017C01C8189D
:1009C000D908EA08FB0888E8C81683E1D806E104DC
:1009D000F1045CF40E94BF046B017C0162E370E0EF
:1009E00080E090E00E94F303EACF81E080939204DC
:1009F00080E0FF90EF90DF90CF90BF90AF909F90FE
:100A00008F9008950F931F93CF93DF93162F082F86
:100A1000EC010E94CB0489938C2F801B8117C8F3B3
:100A2000DF91CF911F910F910895CF930E94CB0436
:100A3000C82F0E94CB042C2F30E0322F2227820FA8
:100A4000932F911DCF910895CF92DF92EF92FF9255
:100A50000F931F93CF93DF9300917404109175044B
:100A6000CDE6D7E08091720490917304B801681BC1
:100A7000790B072E000C880B990B0E94092A6B0139
:100A80007C016091700470917104601B710B072EE2
:100A9000000C880B990B0E94092A9B01AC01C7012D
:100AA000B6010E945F296A837B838C839D830E94A9
:100AB000BF046A8B7B8B8C8B9D8BDF91CF911F91B9
:100AC0000F91FF90EF90DF90CF900895FC01838508
:100AD0008F3F19F061E00C9459030895FC01808167
:100AE0009181892B39F0A281B3819C9111968C91CF
:100AF0009CBD8DBD83858F3F19F060E00C94590338
:100B00000895AF92BF92CF92DF92EF92FF920F9330
:100B10001F93CF93DF93EC0188819981892B89F012
:100B20006EBD0DB407FEFDCFBEB48B2DDF91CF910E
:100B30001F910F91FF90EF90DF90CF90BF90AF90FB
:100B400008958885998511E0892B09F010E8AA2479
:100B5000A394862F812309F0A12C062F2C813D819F
:100B60004E815F8160E271EA87E090E00E94BC28DC
:100B7000F22EB02EE12CC22ED12CFF2019F0C6018E
:100B80000E94C3038A85877F09F042C08D858F3F0D
:100B900089F0902F912381E009F480E08A1551F0CB
:100BA000EF85F8898F89992369F19081892B80835A
:100BB000AA24A394E989FA898081998D892B80835D
:100BC000FF2019F0C6010E94C3038E858F3F39F0C4
:100BD000EB89FC898081988D892309F0E12AE989D4
:100BE000FA899081898D8095892380838E858F3FB6
:100BF00009F0BE2C88859985892BB9F5110F111143
:100C0000BCCF93CF9081809589238083A12CD2CFB4
:100C1000E989FA898081998D892B8083FF2019F0D9
:100C2000C6010E94C3038D858F3F49F0EF85F88987
:100C30008F89902F9123A9F09081892B8083E98956
:100C4000FA899081898D8095892380838E858F3F55
:100C500069F2EB89FC898081988D892339F2E12A38
:100C6000C5CF908180958923E9CF1695C8CF8F9203
:100C70009F92AF92BF92CF92DF92EF92FF920F932B
:100C80001F93CF93DF937C014B016A01B22EA32EF9
:100C90000E946E05E401C80CD91CCC15DD0569F471
:100CA000CB2DDA2D0C0F1D1FC017D10759F06FEF98
:100CB000C7010E9481058993F7CF6991C7010E94FE
:100CC0008105EBCFC7010E94660581E0DF91CF91DE
:100CD0001F910F91FF90EF90DF90CF90BF90AF905A
:100CE0009F908F9008958F929F92AF92BF92CF92D4
:100CF000DF92EF92FF920F931F93CF93DF937C01CC
:100D0000B62EA72E6A0149010E946E05E401080D66
:100D1000191DC017D10761F4CB2DDA2DCC0EDD1EC5
:100D2000CC15DD0551F06991C7010E948105F8CF0E
:100D30006991C7010E948105ECCFC7010E94660539
:100D400081E0DF91CF911F910F91FF90EF90DF90A5
:100D5000CF90BF90AF909F908F9008954F925F92E9
:100D60006F927F928F929F92AF92BF92CF92DF92BB
:100D7000EF92FF92CF93DF9300D000D0CDB7DEB7D4
:100D80006B017C01F901DA018D909D90AD90BC90D2
:100D900013978C149D04AE04BF04BCF06081718174
:100DA000828193810F900F900F900F90DF91CF91E0
:100DB000FF90EF90DF90CF90BF90AF909F908F907B
:100DC0007F906F905F904F90089514968D919D91B4
:100DD0000D90BC91A02D89839A83AB83BC836481E1
:100DE00075818681978129813A814B815C81C21608
:100DF000D306E406F506B4F6408051806280738025
:100E000084149504A604B70429F426173707480765
:100E10005907E9F0A7019601281939094A095B0920
:100E200064197509860997090E942B2B29813A813B
:100E30004B815C81281939094A095B090E948A287B
:100E4000CA01B901640D751D861D971DABCFC70181
:100E5000B601A8CFCF92DF92EF92FF920F931F932C
:100E6000CF93DF93182F6A017B01022FC6E0D2E0F7
:100E7000823111F0CAE0D2E0812F0E9487012EE07A
:100E800032E0AC01C701B6010E94AE06002331F08A
:100E900060957095072E000C880B990BA6E0B2E0C8
:100EA000123111F0AAE0B2E01396EC911397F0E042
:100EB000E85CFC4F00811296EC91F0E0E85CFC4F9E
:100EC0002081102F022F012E000C220B330B06174E
:100ED000170728073907B9F0EA81F0E0E85CFC4F12
:100EE0006083EB81F0E0E85CFC4F708381E08093ED
:100EF0004C03DF91CF911F910F91FF90EF90DF9006
:100F0000CF900C94B904DF91CF911F910F91FF9076
:100F1000EF90DF90CF9008958F3041F0803119F439
:100F200085EB91E0089590E080E0089586EB91E0F4
:100F30000895CF92DF92EF92FF920F931F93CF937A
:100F4000DF93833168F5E82FF0E0EE0FFF1FE052EA
:100F5000FE4FA081B181109719F1EC91F0E0E85CAF
:100F6000FC4F908111968C91392F382321E009F4A0
:100F700020E0621709F444C0662379F0892B80834E
:100F800081E080934C03DF91CF911F910F91FF90EF
:100F9000EF90DF90CF900C94B90480958923EFCF28
:100FA000D62FC82F0E9487018C01009749F1FC01C0
:100FB000DD2309F1C480D580E680F7808C2F0E9464
:100FC0008C07EC01892BE1F028ED31E0A801C70185
:100FD000B6010E94AE06E881F0E0E85CFC4F20819B
:100FE000022F10E030E020E06017710782079307BE
:100FF00039F06083C5CFC080D180E280F380DECF3E
:10100000DF91CF911F910F91FF90EF90DF90CF90E4
:101010000895662361F0813240F4E82FF0E0E9544E
:10102000FE4F808161E00C94990780E0FBCF813214
:1010300038F4E82FF0E0E954FE4F808160E0F3CF10
:1010400080E0FCCFDC01ED91FC910190F081E02D7E
:10105000099420917602260F3327331F2132310560
:10106000ECF420912403FC0190E080E0243069F04E
:1010700082E00895A09176022191AC014A5A5D4F19
:10108000A40FB52FB11D2C930196861798F380916C
:101090007602680F6093760280E0089581E00895FB
:1010A0001092240381E0809303031092FE0261E01A
:1010B00082E00E94590361E083E00E945903E9EB5A
:1010C000F0E080818E7F808380818D7F808388E4C3
:1010D0008093B80085E48093BC0008951092B90213
:1010E0001092B8021092BB021092DD020E945008CA
:1010F0008FE991E09093B7028093B60280EA91E085
:101100009093B5028093B4020895CF93DF9391E05A
:101110009093A7028823B9F0C091B800D091BA008B
:101120008091BC008A7B8093BC0060E082E00E94DA
:10113000590360E083E00E9459030E945008D09355
:10114000BA00C093B800DF91CF9108958F929F921B
:10115000AF92BF92CF92DF92EF92FF920F931F93C5
:10116000CF93DF93D82FC62F142F613208F09CC085
:101170000E94CE036B017C018091240381116FC01A
:1011800081E080932403109303039FEF9093020365
:10119000109201039C0F909300038093FF028091B3
:1011A000FF02DD0FD82BD093FF028091FE02813029
:1011B00009F07CC01092FE020E94CE036B017C01FC
:1011C0008091FF028093BB008091260390912703BA
:1011D000A0912803B0912903892B8A2B8B2BA1F096
:1011E0000E94CE030091260310912703209128032B
:1011F000309129036C197D098E099F09061717077D
:101200002807390708F44CC08091BC0083FDD8CF73
:1012100085EC8093BC000E94CE036B017C01809121
:101220002403813009F444C0809101038C1710F429
:10123000C0910103EEEDF2E0A4E0B3E080E08C1396
:1012400059C08C2FDF91CF911F910F91FF90EF909C
:10125000DF90CF90BF90AF909F908F900895809136
:10126000260390912703A0912803B0912903892B8D
:101270008A2B8B2B09F480CF0E94CE03809026030B
:1012800090902703A0902803B09029036C197D0942
:101290008E099F0986169706A806B90608F06CCF36
:1012A000809125030E948508C0E0CBCF85EEB1CFA9
:1012B0008091260390912703A0912803B0912903E0
:1012C000892B8A2B8B2B09F4AACF0E94CE03009185
:1012D00026031091270320912803309129036C19CC
:1012E0007D098E099F09061717072807390708F097
:1012F00096CFD6CF91919D938F5FA1CF8F929F92E2
:10130000AF92BF92CF92DF92EF92FF920F931F9313
:10131000CF93DF93D091DD02D13208F0D7C0182FE0
:10132000C091DC020E94CE036B017C0180912403FA
:1013300081116BC082E080932403109303038FEF2D
:101340008093020310920103D0930003ACEBB2E050
:10135000EEEDF2E080E0D81391C01092FF02809190
:10136000FF02CC0FC82BC093FF028091FE02813098
:1013700009F088C01092FE020E94CE036B017C012E
:101380008091FF028093BB008091260390912703F8
:10139000A0912803B0912903892B8A2B8B2BA1F0D4
:1013A0000E94CE0300912603109127032091280369
:1013B000309129036C197D098E099F0906171707BB
:1013C0002807390708F442C08091BC0083FDD8CFBC
:1013D00085EC8093BC000E94CE036B017C01809160
:1013E0002403823009F450C0809102038F3F09F436
:1013F0006FC080910203803209F46CC080910203B7
:10140000803309F469C084E026C08091260390915E
:101410002703A0912803B0912903892B8A2B8B2BBA
:1014200009F484CF0E94CE03809026039090270376
:10143000A0902803B09029036C197D098E099F099B
:1014400086169706A806B90608F070CF8091250386
:101450000E94850885E01092BB021092DD02109276
:10146000BA02DF91CF911F910F91FF90EF90DF9023
:10147000CF90BF90AF909F908F9008959D91919342
:101480008F5F69CF85EEA5CF8091260390912703CA
:10149000A0912803B0912903892B8A2B8B2B09F467
:1014A0009ECF0E94CE030091260310912703209126
:1014B0002803309129036C197D098E099F090617AD
:1014C00017072807390708F08ACFC0CF81E0C3CFBC
:1014D00080E0C1CF82E0BFCF83E0BDCF1F93CF9329
:1014E000DF93EA01122FDC0111968D919C91DC01B2
:1014F000ED91FC910280F381E02D0995C817D90781
:1015000029F4812F0E947E0991E0811190E0892FBA
:10151000DF91CF911F910895AF92BF92CF92DF924A
:10152000EF92FF920F931F93CF93DF9300D0CDB72D
:10153000DEB7DC01211103C018962C9118972530D5
:1015400008F043C01F964D935D936D937C93529723
:1015500090E080E0E22EF12C8E159F05B4F41A96EF
:101560002C911A9721110AC0FD01E80FF91F43873A
:10157000452F562F672F77270196EECFF701E81BEF
:10158000F90BEA0FFB1F4287F3CF6D018BE0C80E0A
:10159000D11C16969C91169717968C911797998344
:1015A0008A83AD90BC901197A114B10409F441C095
:1015B00019960C9110E098012E0D3F1DD50114963F
:1015C0008D919C918217930710F480E016C0F5016D
:1015D00081819281208131E03093BA022093DC0234
:1015E0001092BB021092DD020115110599F421E061
:1015F000A701B601C5010E946E0A0F900F90DF91FE
:10160000CF911F910F91FF90EF90DF90CF90BF90FF
:10161000AF900895DC01ED91FC910280F381E02D03
:10162000A801BE016F5F7F4F09950817190769F67A
:10163000DECF1296ED91FC911397309731F214960C
:101640002D913C91159719960C9110E0233031059E
:1016500071F48E7F89839A830F5F1F4F9E012F5FE6
:101660003F4FA701B601CF010E947306C6CF2115D7
:10167000310519F49F779983F1CF2230310511F4A8
:101680009068F9CF2130310549F79F779064F3CF07
:10169000CF93DF93EC018B818823A1F0888191E0C7
:1016A0009093BA028093DC021092BB021092DD028A
:1016B00081E00E947E0991E0811190E0892FDF9105
:1016C000CF9108950E946E0881E08B83CE010E9425
:1016D000480B982F8111E2CFF1CF1F93CF93DF9367
:1016E000EC01142F89819A81288131E03093BA026C
:1016F0002093DC021092BB021092DD02DC01ED911E
:10170000FC910190F081E02D099589819A81DC019D
:10171000ED91FC910190F081E02D612F099581E020
:10172000DF91CF911F910C947E09EF92FF920F935E
:101730001F93CF93DF93EC01E42E052FF22E132F8E
:1017400089819A81288131E03093BA022093DC02AA
:101750001092BB021092DD0224E0629FB0011124BE
:101760006A5F7F4FDC01ED91FC910190F081E02DEB
:1017700009956E2D702F89819A810E942208602F11
:1017800070E089819A810E9422086F2D712F8981D2
:101790009A810E942208612F70E089819A810E94BB
:1017A000220881E0DF91CF911F910F91FF90EF9080
:1017B0000C947E099A01803130F4AB01682F8CE0E3
:1017C00098E00C94950B90EF980F903128F4AB01B2
:1017D000692F85E098E0F5CF8052803128F4AB0185
:1017E000682F8EEF97E0EDCF0895CF92DF92EF92C2
:1017F000FF920F931F93CF93DF93182FC62FE82EDE
:10180000F12CC70181509B4F6C01FC01618B662359
:1018100069F00E94BF04F701EE0FFF1FEE0FFF1FDC
:10182000E15BFA4F60837183828393831F3008F0FA
:10183000B4C0F601D281153008F0ACC00C2F10E016
:1018400061E08D2F0E9487030115110511F460E0FE
:1018500004C00F3F110561F461E08D2FDF91CF913E
:101860001F910F91FF90EF90DF90CF900C94590350
:10187000ED2FF0E0E856FD4FE491E150EF3008F035
:1018800084C0F0E0EA5BF34F0C945B2B550C620CC8
:10189000670C710C7B0CC50CC50CC50C850C8F0C32
:1018A000990CA30CB00CC50CB80C84B5806884BD31
:1018B000C7BDDF91CF911F910F91FF90EF90DF9007
:1018C000CF90089584B5806284BDC8BDF2CF809169
:1018D00080008068809380001093890000938800C6
:1018E000E8CF8091800080628093800010938B000D
:1018F00000938A00DECF8091800088608093800012
:1019000010938D0000938C00D4CF8091900080685C
:10191000809390001093990000939800CACF809113
:10192000900080628093900010939B0000939A0037
:10193000C0CF8091900088608093900010939D00AC
:1019400000939C00B6CF8091C00080688093C00057
:101950008091C0008F7B8093C000C093CF00A9CF3F
:101960008091C00080628093C000C093D000A1CF5E
:101970008091C20088608093C2008091C2008B7FFA
:101980008093C200C093D20094CF003811050CF0B0
:1019900063CF5DCFC7FF5BCF5FCF1F3108F4C0952A
:1019A00081EF810F50E040E060E070E1CF3F61F0F7
:1019B00040E050E170E060E0CC2331F0F0E1CF9FF7
:1019C000A001112461E070E0DF91CF911F910F9190
:1019D000FF90EF90DF90CF900C94DA0BCF92DF92D4
:1019E000EF92FF920F931F93CF93C82F282F30E0D1
:1019F000F901EC58FC4FDF01A258BF4F8C916817DA
:101A000008F4862F908140919304442331F0913063
:101A100011F09430F9F480E01DC09430D9F488239B
:101A2000C9F021503B4FF9019189992399F0A4E71E
:101A3000B3E030E020E09D91943009F04EC0F90110
:101A4000E150FB4F9189911148C0C22FE35BFE4FDB
:101A500091E090832C2F30E0F901EC58FC4F9081FD
:101A6000943009F041C081113FC0CA30E8F5245BD1
:101A7000394FF9018081811125C084E7C82E83E0A8
:101A8000D82E10E000E0F60181916F018430A9F4B6
:101A9000F801E150FB4F8189882379F07F0183EBC6
:101AA000E81A8EEFF80AF7018081882331F060E0B0
:101AB000802F0E94F50BF70110820F5F1F4F093036
:101AC000110509F760E08C2FCF911F910F91FF90C6
:101AD000EF90DF90CF900C94F50B2F5F3F4F2930A4
:101AE000310509F0A8CFB6CF682FEDCFCF92DF92A6
:101AF000EF92FF920F931F93CF93DF93D82FC62FB0
:101B000021E02093F30430918E04832F68E10E943A
:101B10003B2B9D1304C03831E8F4C0939304ED2EA1
:101B2000F12CF701EB54FB4F8081882311F1C11197
:101B300049C09091ED048917A8F48F5F8083C1E0BC
:101B40008C2FDF91CF911F910F91FF90EF90DF903D
:101B5000CF900895CC2319F380919304822780932A
:101B60009304DDCF81E0808380916C078150809366
:101B70006C078CEF8D0F883000F5C11116C08701FE
:101B8000025A184FF8018281882379F0E09191047C
:101B9000F0E0E65BF84F8281811107C060E084E1EC
:101BA0008D0F0E940908F8011282E0919104F0E083
:101BB000E65BF84F8281811109C0D0934A076C2FF0
:101BC0008D2F19C080916C078F5FD1CF84E18D0F6D
:101BD00080934A07E82FF0E0E65BF84FC2836C2F52
:101BE0000E940908C11109C060E08D2F0E940908F8
:101BF00060E080914A070E94090806E714E08AE73E
:101C0000C82E84E0D82EF80181918F01CC2379F081
:101C1000882349F08150990BE816F90621F4838155
:101C20006FEF81110FC0C016D10669F789CF8823E5
:101C3000D1F38150990BE816F906A9F7838188231F
:101C400091F360E081500E94EE0CEDCFCF93DF93D3
:101C50000E94D101C0914707D0E0809148078C17BE
:101C60001D0681F07CF0FE01EC58FC4F80816CE396
:101C7000823019F0833021F46FEF8C2F0E94EE0C2C
:101C80002196EBCFDF91CF910895E091B902809139
:101C9000B802E81730F4F0E0EC5FFC4F808190E090
:101CA00008958FEF9FEF08959091B9028091B80247
:101CB0002FEF3FEF981748F4E92FF0E0EC5FFC4F6F
:101CC000208130E09F5F9093B902C901089580910F
:101CD000B8029091B902891B990B0895CF92DF92B7
:101CE000EF92FF920F931F93CF93DF937C01CB0171
:101CF0008A012091BA02222389F0EB016B01C40E04
:101D0000D51ECC15DD0569F06991D701ED91FC91E7
:101D10000190F081E02DC7010995F3CF642F0E9457
:101D20002908C801DF91CF911F910F91FF90EF908B
:101D3000DF90CF900895CF93DF931F92CDB7DEB79A
:101D400069832091BA022223F9F02091DD0220322A
:101D500058F021E030E0FC013383228390E080E002
:101D60000F90DF91CF9108958091BB02E82FF0E0B2
:101D7000E454FD4F998190838F5F8093BB028093E1
:101D8000DD0281E090E0ECCF61E0CE0101960E949F
:101D90002908F7CF8F929F92AF92BF920F931F9314
:101DA000CF93DF93CDB7DEB7A1970FB6F894DEBF20
:101DB0000FBECDBF19A2423008F44AE08E010F5D7C
:101DC0001F4F842E912CB12CA12CA50194010E94AF
:101DD000BC28E62FB901CA01EA301CF5E05DD80144
:101DE000EE938D01232B242B252B79F790E080E0B7
:101DF000109741F0FD0101900020E9F73197CF01E4
:101E00008A1B9B0BA1960FB6F894DEBF0FBECDBF09
:101E1000DF91CF911F910F91BF90AF909F908F90C6
:101E20000895E95CDCCFBC01990F880B990B97FFF3
:101E30000CC090958095709561957F4F8F4F9F4F07
:101E40004AE00E94CA0E019608954AE00C94CA0E18
:101E50000E94130F88E892E00C94A401682F70E0B0
:101E600090E080E04AE00E94CA0E8AE892E00C947A
:101E7000A4010F931F93CF93DF93162F082FEC012C
:101E800089910E942E0F8C2F801B8117C8F3DF9140
:101E9000CF911F910F9108953F924F925F926F9251
:101EA0007F928F929F92AF92BF92CF92DF92EF92EA
:101EB000FF920F931F93CF93DF9300D0CDB7DEB780
:101EC000FC014B01042F9681878199838A83C0800E
:101ED000D180C114D10409F479C0418550E0D60104
:101EE00014968D919C9184179507B0F4312C832D15
:101EF0000F900F90DF91CF911F910F91FF90EF9076
:101F0000DF90CF90BF90AF909F908F907F906F9019
:101F10005F904F903F900895F601808191E09093FB
:101F2000BA028093DC021092BB021092DD0220E024
:101F3000BE016F5F7F4FC6010E946E0A382E882354
:101F4000A9F210E0B12CA12CA016B10680F6D601A2
:101F500014968D919C917801EA18FB088E159F05C7
:101F600008F47C0141E0C8018E199F09A816B90642
:101F700008F440E06E2D613208F060E2F6018081E5
:101F80000E94A6081092B9028093B8028E151F0411
:101F900009F0ACCF34016A0C7B1C2301C201861905
:101FA00097098E159F0578F4D60111968D919C9115
:101FB000DC01ED91FC910284F385E02D0995F2019D
:101FC00081932F01EBCFAE0CBF1CBECFA281B3819A
:101FD000109709F48BCF2481358110E0418550E0C2
:101FE0002330310571F4816089839A834F5F5F4F9D
:101FF0009401BE016F5F7F4FCD010E943706382EDE
:1020000076CF2115310519F490689983F1CF2230EC
:10201000310511F49F77F9CF2130310549F7906CE4
:10202000F4CF0F931F93CF93DF93CDB7DEB7A19774
:102030000FB6F894DEBF0FBECDBF0BE118E0F8017C
:1020400080859185188A198A1A8A1B8A9A838983BE
:102050001C821B8281E08A878BE390E098878F83C4
:102060001B868EE089874EE0BE016C5E7F4FCE01FD
:1020700001960E944C0F8C899D8998278927982763
:10208000F801918380838E899F89982789279827D3
:1020900093838283888D998D9827892798279583A4
:1020A0008483A1960FB6F894DEBF0FBECDBFDF913B
:1020B000CF911F910F9108954F925F926F927F92EF
:1020C0008F929F92AF92BF92CF92DF92EF92FF9248
:1020D000CF9360E971E080E090E00E94F3031092FA
:1020E000AF061092AE061092B1061092B006CAE08A
:1020F000812C912C5401C12CD12C76010E941110FD
:1021000080917E04883008F441C080911F0890912E
:102110002008092E000CAA0BBB0BC80ED91EEA1E04
:10212000FB1E80911D0890911E08092E000CAA0B21
:10213000BB0B880E991EAA1EBB1EC150F9F68AE081
:10214000482E512C612C712CC701B601A3019201BC
:102150000E948A283093AF062093AE06C501B401D1
:10216000A30192010E948A283093B1062093B00601
:10217000CF91FF90EF90DF90CF90BF90AF909F9066
:102180008F907F906F905F904F90089580911B0883
:1021900090911C08BECFCF93DF93EC01BC01655F2B
:1021A0007F4F48850E944C0F882301F1488550E0FD
:1021B00030E020E060E070E0CB0124173507CCF47C
:1021C000982F872F762F6627EA85E1110AC0FA013A
:1021D000E21BF30BEC0FFD1FE2856E2B2F5F3F4FD1
:1021E000ECCFFE01E20FF31FE385F7CF6FEF7FEF38
:1021F000CB01DF91CF9108958F929F92AF92BF92C2
:10220000CF92DF92EF92FF920F931F93CF93DF93C2
:10221000EC014A015B01888199810E94CB102A81DF
:1022200001E010E002C0000F111F2A95E2F70150F3
:102230001109012E000C220B330BAB8168017901CF
:102240000A2E04C0CC0CDD1CEE1CFF1C0A94D2F735
:10225000C094D094E094F094C622D722E822F922C8
:10226000E881F981B901A801482159216A217B211E
:1022700004C0440F551F661F771FAA95D2F74C293B
:102280005D296E297F292085CF01DF91CF911F9194
:102290000F91FF90EF90DF90CF90BF90AF909F9005
:1022A0008F900C948C0ACF93DF93CDB7DEB76797EE
:1022B0000FB6F894DEBF0FBECDBFEBE1F8E020858E
:1022C0003185188A198A1A8A1B8A3A8329831C82C3
:1022D0001B8291E09A872CE130E038872F831B86A0
:1022E00099879E012F5F3F4F3D8B2C8B92E09E8BF9
:1022F00093E09F8B282F30E037832683482F50E0D0
:1023000070E060E0CE0144960E94FC1067960FB624
:10231000F894DEBF0FBECDBFDF91CF9108958091BD
:102320007E04883008F088508093BB068091880432
:10233000909189049093BD068093BC0680918A0495
:1023400090918B049093BF068093BE068091810488
:102350000E9453110C945C10EF92FF920F931F9305
:10236000CF93DF93CDB7DEB7C154D1090FB6F89440
:10237000DEBF0FBECDBF8BE1E82E88E0F82EF7015F
:10238000808591851EAA1FAA18AE19AE98A78FA3A3
:102390001AA619A611E018AB89E190E09EA78DA7B7
:1023A00019AA1FA720E040E050E0BA01CE018796AD
:1023B0000E948C0AF701808591851BA21CA21DA298
:1023C0001EA29D8B8C8B1F8A1E8A1D8F8AE190E036
:1023D0009B8F8A8F1E8E1C8FCE0144969FAF8EAF2F
:1023E00003E021960FAF219722961FAE229746E079
:1023F00050E060E070E08A960E94FC10F701808552
:102400009185188A198A1A8A1B8A9A8389831C8261
:102410001B821A878CE190E098878F831B8619872F
:10242000CE0101969BAF8AAF0CAF1DAE44E050E0E9
:1024300060E070E0C9960E94FC10CF5BDF4F0FB6E2
:10244000F894DEBF0FBECDBFDF91CF911F910F91EA
:10245000FF90EF900895EF92FF920F931F93CF9309
:10246000DF93CDB7DEB7ED970FB6F894DEBF0FBEA2
:10247000CDBF8091230890912408009711F00E940D
:10248000112C64E670E080E090E00E94F30386E0A7
:1024900090E00E94752B8C0188E6F801808382EF22
:1024A00097E092838183138280E290E09583848316
:1024B00010932408009323080E946E08FF24F394CD
:1024C000F801F382C8010E94480BE82E882309F422
:1024D0009AC080912308909124081EAA1FAA18AEC2
:1024E00019AE98A78FA31AA619A6F8AA2BE630E072
:1024F0003EA72DA719AAFFA61BA21CA21DA21EA2C1
:102500009D8B8C8B1F8A1E8AFD8E88E690E09B8FA8
:102510008A8F1E8EFC8ECE0187969BAF8AAFFCAE53
:1025200087E08DAF41E050E060E070E0CE01CA96F8
:102530000E94FC1001E010E08AAD9BAD0E94CB1020
:10254000AB01BC018CAD980102C0220F331F8A95EC
:10255000E2F7C9010197092E000CAA0BBB0B2DADA8
:1025600004C076956795579547952A95D2F78423A9
:102570009523A623B7230197A105B10539F461E09E
:1025800070E080E090E00E94F303D6CF64E670E054
:1025900080E090E00E94F30320E047E050E060E03C
:1025A00070E0CE0144960E948C0A64E670E080E000
:1025B00090E00E94F3030E94AC1180E00E9453114E
:1025C0008091230890912408188A198A1A8A1B8AF4
:1025D0009A8389831C821B8281E08A872BE630E004
:1025E00038872F831B86898720E041E050E060E038
:1025F00070E0CE0101960E948C0A64E670E080E0F3
:1026000090E00E94F3038E2DED960FB6F894DEBF96
:102610000FBECDBFDF91CF911F910F91FF90EF9033
:1026200008958F929F92AF92BF92CF92DF92EF92D6
:10263000FF921F93CF93DF93EC016A017B0120E0AF
:1026400030E040E85FE3CB01B6010E945A2987FDE4
:10265000A3C020E030EC4AE555E4C701B6010E9472
:10266000B92A18163CF4C12C30ECD32E3AE5E32EEF
:1026700035E4F32E6B817C818D819E810E94072A37
:102680004B015C0120E030E040E855E4C701B601B1
:102690000E94BE2A9B01AC01C501B4010E945F29C2
:1026A00020E030E040E05FE30E94EE2820E030E0F0
:1026B00040E85FE30E94ED286B017C0120E030E000
:1026C00040E450E40E945A2987FD6DC020E030E0CC
:1026D0004FE753E4C701B6010E94B92A181634F433
:1026E000C12CD12C9FE7E92E93E4F92E89819A81A0
:1026F000288131E03093BA022093DC021092BB02B1
:102700001092DD02DC01ED91FC910190F081E02D51
:1027100060E0099581E00E947E0941E061E08881E6
:102720000E94A6081092B9028093B80289819A810A
:10273000DC01ED91FC910284F385E02D0995182FC1
:10274000482F4F76406160E0CE010E946D0BC701BB
:10275000B6010E94D829462F6EEFCE010E946D0B64
:10276000412F60E0CE010E946D0B65E070E080E0DB
:1027700090E00E94F303412F406A60E0CE01DF91B8
:10278000CF911F91FF90EF90DF90CF90BF90AF90CF
:102790009F908F900C946D0BC12CD12C20E8E22ED1
:1027A0002FE3F22E67CFC12CD12C80E4E82EFE2C33
:1027B0009DCFCF93DF93EC010E946E0840E860E06C
:1027C000CE010E946D0B6AE070E080E090E00E9414
:1027D000F30340E050E06AE774E4CE010E94111375
:1027E00080E498E7ADE7B1E08B839C83AD83BE8343
:1027F000DF91CF910895CF93DF93EB010E9474286E
:102800008883CE01DF91CF9108950F931F93CF93CB
:102810008C010E947428C82FC80101960E94742858
:102820002C2F30E0322F2227820F932F911DCF9132
:102830001F910F910895CF93DF93EB010E947428AD
:102840008883CE01DF91CF91089585ED8093BC0000
:102850008091260390912703A0912803B09129032A
:102860000796A11DB11D23E0B695A795979587956D
:102870002A95D1F72091BC0024FD03C010922403B7
:102880000895409126035091270360912803709189
:102890002903452B462B472B69F30097A105B1056A
:1028A00041F02AE22A95F1F700C00197A109B10988
:1028B000E1CF809125030C9485080C947C281F930C
:1028C000CF93DF93EC01162F672F0E945D14612FC9
:1028D000CE010196DF91CF911F910C945D14EF9280
:1028E000FF920F931F93CF93DF9384E7E82E83E04B
:1028F000F82E02EF13E0D0E0C0E0F70161917F0114
:10290000CE010E945D14F70166ADCE018C599F4F38
:102910000E945D14F80161918F01CE0188539F4F91
:102920000E945D14F80166ADCE01845D9E4F0E9449
:102930005D142196CF33D10501F760917004709139
:10294000710481E991E00E945F14609172047091BA
:10295000730483E991E00E945F14609174047091A4
:10296000750485E991E00E945F1406E714E0C7E969
:10297000D1E0F80161918F01CE010E945D14219692
:10298000CB39F1E0DF07A9F70AE714E0C1EAD1E0AB
:10299000F80161918F01CE010E945D142196C53A24
:1029A000F1E0DF07A9F760917E048AEA91E00E94D6
:1029B0005D14609180048BEA91E00E945D14609147
:1029C000810482EC91E00E945D1460918204709118
:1029D000830484EC91E00E945F1460918C0486EC87
:1029E00091E00E945D14609184047091850487ECED
:1029F00091E00E945F14609188047091890489ECD1
:102A000091E00E945F1460918D048BEC91E00E9434
:102A10005D1460918E048CEC91E00E945D146091D5
:102A20008F048DEC91E00E945D14609190048EEC17
:102A300091E00E945D14609191048FEC91E00E94FE
:102A40005D146091F50480ED91E00E945D14609149
:102A5000F60481ED91E00E945D146091F70482ED2F
:102A600091E00E945D146091F80483ED91E00E9472
:102A70005D14609186047091870484ED91E00E945A
:102A80005F1460918A0470918B0486ED91E00E943E
:102A90005F1405E914E0C4EFD1E0F80161918F0102
:102AA000CE010E945D142196C431F2E0DF07A9F740
:102AB00005EB14E0F80161918F01CE010E945D14D5
:102AC0002196CC32F2E0DF07A9F76091ED0484E3B0
:102AD00092E00E945D146091F90485E392E00E9407
:102AE0005D146091FA0486E392E00E945D146091A7
:102AF000FB0487E392E00E945D1465E688EE93E0B4
:102B0000DF91CF911F910F91FF90EF900C945D1486
:102B10001F920F920FB60F9211248F939F93809163
:102B2000E1009091E100937F9093E10083FF0FC05B
:102B30001092E90091E09093EB001092EC0092E388
:102B40009093ED001092B30298E09093F00082FF12
:102B500018C09091B102992341F09091B102915027
:102B60009093B102911101C05D989091B0029923A8
:102B700041F09091B00291509093B002911101C038
:102B8000289884FF18C08091E2008E7E8160809337
:102B9000E2008091E1008F7E8093E1008091B2029B
:102BA0008E7E80618093B2029F918F910F900FBEB5
:102BB0000F901F90189580FFF7CF8091E2008E7ED6
:102BC00080618093E2008091E1008E7E8093E1003D
:102BD0008091B2028E7E8160E5CF1F920F920FB678
:102BE0000F9211242F933F934F935F936F937F9393
:102BF0008F939F93AF93BF93EF93FF93CF93DF9305
:102C0000CDB7DEB72897DEBFCDBF82E08093E90065
:102C10008091E80082FF0CC08091E8008B7F809358
:102C2000E800E0913603F0913703309709F00995F9
:102C30001092E9008091E80083FF2CC089E0FE013A
:102C40003196815021F09091F1009083F9CF289A2C
:102C500084E68093B00282EF8093E800898187FF49
:102C600032C09091E80090FFFCCF982F907679F4D5
:102C70009A814B815C813B812C8191112BC08038E2
:102C800031F58091A6028093F1001092F1008EEF51
:102C90008093E80028960FB6F894DEBF0FBECDBF34
:102CA000DF91CF91FF91EF91BF91AF919F918F9164
:102CB0007F916F915F914F913F912F910F900FBE38
:102CC0000F901F9018959EEF9093E800CECF109232
:102CD000F100DBCF913059F48111D9CF413051054A
:102CE000B1F68091A6028D7F8093A602D0CF93305B
:102CF00049F48111CCCF4130510549F68091A602AB
:102D00008260F2CF953041F48091E80080FFFCCFE3
:102D100030683093E300BBCF9630D9F58F8198852A
:102D20001092E9001092A5021092A4029093A302BF
:102D30008093A20269E970E088EC90E0223009F407
:102D40005AC0213009F452C0233069F48B818823A2
:102D500009F454C0823059F460E18BEE91E00E9496
:102D6000BB02811194CF81E28093EB0093CF81303D
:102D700021F466E084EE91E0F2CF833021F463E148
:102D800080ED91E0ECCF843071F768E587E791E062
:102D9000E6CF973041F3983021F481E08093F10041
:102DA00076CF993009F073CF8370E9F641E061EC9A
:102DB00081E00E94780242E060EC82E00E947802AA
:102DC00041E061EC85E00E9478028EE78093EA00A2
:102DD0001092EA0082E08093E9008091F000846024
:102DE0008093F0008B818093B30251CF85E691E010
:102DF000FC01649170E00E94E70249CF81E691E016
:102E0000F7CF1F920F920FB60F9211242F933F937B
:102E10008F939F93AF93BF9380919A0290919B025F
:102E2000A0919C02B0919D023091990223E0230F62
:102E30002D3758F50196A11DB11D2093990280935D
:102E40009A0290939B02A0939C02B0939D02809162
:102E50009E0290919F02A091A002B091A1020196C2
:102E6000A11DB11D80939E0290939F02A093A0028A
:102E7000B093A102BF91AF919F918F913F912F91FC
:102E80000F900FBE0F901F90189526E8230F029603
:102E9000A11DB11DD2CF1F920F920FB60F92112418
:102EA0002F933F934F935F936F937F938F939F9352
:102EB000AF93BF93EF93FF938091B900887F8036E3
:102EC00009F44AC0F0F5883209F4A7C018F580313A
:102ED00009F49BC0B8F4882309F4F9C0883009F4D8
:102EE00094C0FF91EF91BF91AF919F918F917F918E
:102EF0006F915F914F913F912F910F900FBE0F9067
:102F00001F901895883109F488C0803251F780935A
:102F1000020314C0803409F49DC040F48033B9F337
:102F20008833F9F68093020385ECB0C0803509F44C
:102F300085C0883509F496C0883499F60E94251416
:102F4000D0CF883909F48CC038F5883729F050F48F
:102F5000883611F0803729F683E08093240310929D
:102F6000980257C0883809F47BC0803919F080383E
:102F700009F0B7CF80919802803208F071C0E091DB
:102F8000980281E08E0F809398028091BB00F0E060
:102F9000E858FD4F80833DC0803B39F0E0F4803A33
:102FA00009F479C0883A09F09CCF84E08093240327
:102FB0001092770210927602E091B602F091B70279
:102FC00009958091760281110FC081E0809376028D
:102FD0001092560209C0803C09F4A6CF883C09F43F
:102FE000A3CF883B09F07DCFE091770281E08E0F7F
:102FF00080937702F0E0EA5AFD4F80818093BB0016
:10300000909177028091760229C08091FF0280938F
:10301000BB0085EC8093BC0064CF9091010380914C
:103020000003981758F5E091010381E08E0F80931B
:103030000103F0E0E252FD4F8081E9CFE09101030E
:1030400081E08E0F809301038091BB00F0E0E2529B
:10305000FD4F808390910103809100039817C8F27F
:1030600085E8D8CFE091010381E08E0F80930103C2
:103070008091BB00F0E0E252FD4F8083809103031A
:1030800081115CCF81E08093FE0284EA8093BC00D2
:103090001092240326CF85EC8093BC001092240369
:1030A00080919802803230F4E0919802F0E0E85884
:1030B000FD4F10826091980270E0E091B402F091AF
:1030C000B50288E792E00995109298020ACF109213
:1030D000020334CFCF93DF9310922D0310922C0371
:1030E00088EE93E0A0E0B0E080932E0390932F034E
:1030F000A0933003B09331038AE192E090932B03C5
:1031000080932A03E8E3F3E01192B3E0EC34FB0789
:10311000D9F710924F031092500380914F03909172
:103120005003EAE3F3E082E1DF011D928A95E9F7BB
:10313000C1E0C0934C030E94B9041092380384E1AB
:103140008093390310924E031092500310924F0354
:10315000109251031092540310925503109256038B
:10316000109257038FEF90E0A0E0B0E080935803F7
:1031700090935903A0935A03B0935B0310925C039E
:1031800010925D0310925E0310925F0380936003C0
:1031900090936103A0936203B093630340E050E80F
:1031A0006FEF7FEF40936403509365036093660372
:1031B000709367038FEF9FE7A0E0B0E08093680310
:1031C00090936903A0936A03B0936B0340936C03DD
:1031D00050936D0360936E0370936F03809370033D
:1031E00090937103A0937203B093730310925303EF
:1031F00010925203C0934D038CE692E090933703F4
:1032000080933603C2E09FB7F894C093E9008091A1
:10321000F2009FBF81110CC11092F5071092F407C4
:1032200088EE93E0A0E0B0E08093F6079093F70774
:10323000A093F807B093F9078CE292E09093F3071C
:103240008093F20710926D0710926E071092770725
:10325000109278071092790710927A0710927B07E4
:1032600010927C0710927D0710927E0710928307C0
:10327000109284071092850710928607E7E8F7E01E
:1032800086E4DF011D928A95E9F7EDECF7E083E231
:10329000DF011D928A95E9F71092F0071092F1076D
:1032A00062E087E10E9487030E94BF0460937F076A
:1032B00070938007809381079093820710924A074A
:1032C00010924B07ECE4F7E080E2DF011D928A9553
:1032D000E9F710926C0761E084E00E94870361E0E7
:1032E00081E00E94870360E080E00E94870361E044
:1032F00081E00E9487031092C1068FE3E6ECF6E0BE
:10330000DF01382F1D923A95E9F7E5E0F7E0DF019C
:10331000382F1D923A95E9F710924407109245070D
:1033200095E090934607109247071092480791E066
:10333000909349071092AD061092AF061092AE0618
:103340001092B1061092B0061092B7061092B6060F
:103350001092B9061092B8061092BA061092BB06E7
:103360001092BD061092BC061092BF061092BE06C7
:103370001092C006109256062AE332E030935806A7
:10338000209357061092590698EC90935A069AEF9C
:1033900090935B069BEF90935C062CEF20935D0669
:1033A0009DEF90935E069FEF90935F0610926B06E1
:1033B00010926A0610926D0610926C06EEE6F6E028
:1033C000DF01382F1D923A95E9F71092FF049FE034
:1033D00090930005EAE0F1E0A1E0B5E001900D92E4
:1033E0009A95E1F7E0E1F5E0DF011D928A95E9F7B2
:1033F000EFE4F5E0DF011D922A95E9F710924B0604
:10340000ECE4F6E08AE0DF011D928A95E9F7CFEF60
:10341000D4E0CE018F5F94402196209100052817BB
:10342000190661F05CF061E089810E948703F1CFA9
:103430000E94F001892B09F0E6CEEECE8FE3E9E1A0
:10344000F1E0A4E7B3E001900D928A95E1F78FE3F4
:10345000E3EBF3E0DF01382F1D923A95E9F79AE1AB
:103460009093D103E8E5F1E0A2EFB3E0982F01904B
:103470000D929A95E1F7E1E3F4E0DF011D928A9560
:10348000E9F788EC80934F048AE493E09093710409
:10349000809370048DE390E09093730480937204A2
:1034A0008BEC90E0909375048093740410927604F2
:1034B00010927704109278041092790410927A0492
:1034C00010927B0410927C0410927D0410927E0472
:1034D00010927F0481E080938004109281042EE199
:1034E00030E030938304209382042AEF30E030935D
:1034F000850420938404309387042093860428E174
:1035000031E0309389042093880430938B04209316
:103510008A0410928C049AE090938D042EE02093FC
:103520008E0427E120938F0426E12093900422E06B
:103530002093910410929204109293048093940427
:1035400020E2E5E9F4E0DF01322F1D923A95E9F738
:10355000E5EBF4E038E1DF011D923A95E9F7EDEC97
:10356000F4E0DF011D922A95E9F71092ED04109224
:10357000EE0440EA50E060E070E04093EF045093C6
:10358000F0046093F1047093F2041092F30410922B
:10359000F4048093F5048093F6048093F7048093F9
:1035A000F8048093F9049093FA048093FB049093B9
:1035B000FC048093FD041092FE0480E480930C08C8
:1035C00082EF97E090930E0880930D0821E42093FA
:1035D0000508909307088093060822E42093FE07CD
:1035E000909300088093FF0710921308109214081C
:1035F00010921508109216081092170810921808C9
:103600001092190810921A0810922208109221089C
:103610001092240810922308DF91CF910895CF9340
:10362000DF9300D0CDB7DEB7789484B5826084BDD7
:1036300084B5816084BD85B5826085BD85B58160B6
:1036400085BD80916E00816080936E001092810034
:1036500080918100826080938100809181008160EF
:1036600080938100809180008160809380008091B0
:10367000910082608093910080919100816080939D
:103680009100809190008160809390008091C100B2
:1036900084608093C1008091C10082608093C100EA
:1036A0008091C10081608093C1008091C3008160DE
:1036B0008093C3008091C00082608093C00080919D
:1036C000C20081608093C20080917A008460809300
:1036D0007A0080917A00826080937A0080917A00EB
:1036E000816080937A0080917A00806880937A006C
:1036F0001092B3021092A6021092B2028091D700EB
:1037000081608093D70080EA8093D80089B580617A
:1037100089BD89B5826089BD89B5282F21702A832A
:1037200080FFFACF61E070E080E090E00E94F30358
:103730008091D8008F7C80618093D8008091E000D8
:10374000807F8093E0008091E1008E7E8093E10095
:103750008DE08093E200559A209A5D98289868EE53
:1037600073E080E090E00E94F30368EE73E080E095
:1037700090E00E94F30310924D0381E89FEFAFEFBA
:10378000BFEF80936C0390936D03A0936E03B0938F
:103790006F038FE790E0A0E0B0E080937003909318
:1037A0007103A0937203B093730381E090E8AFEFCD
:1037B000BFEF8093640390936503A0936603B09377
:1037C00067038FEF9FE7A0E0B0E0809368039093DA
:1037D0006903A0936A03B0936B03BE016F5F7F4FD1
:1037E00088EE93E00E94FB138981853609F077C249
:1037F00010E000E0B8016C587C4FC8010E94FB1338
:10380000B8016D547C4FC8018C599F4F0E94FB1327
:10381000B8016E507C4FC80188539F4F0E94FB1324
:10382000B8016F5C7B4FC801845D9E4F0E94FB1303
:103830000F5F1F4F0F331105E9F681E991E00E94F8
:103840000514909371048093700483E991E00E94C1
:103850000514909373048093720485E991E00E94AB
:103860000514909375048093740466E774E087E907
:1038700091E00E94FB136AE774E081EA91E00E9404
:10388000FB1367E774E088E991E00E94FB136BE7A4
:1038900074E082EA91E00E94FB1368E774E089E932
:1038A00091E00E94FB136CE774E083EA91E00E94D0
:1038B000FB1369E774E08AE991E00E94FB136DE76E
:1038C00074E084EA91E00E94FB136EE774E08AEAF8
:1038D00091E00E94FB1360E874E08BEA91E00E94A3
:1038E000FB138091800480937F0461E874E082EC94
:1038F00091E00E94FB1384EC91E00E9405149093E8
:103900008304809382046CE874E086EC91E00E946A
:10391000FB1387EC91E00E9405149093850480933B
:10392000840489EC91E00E940514909389048093AB
:1039300088046DE874E08BEC91E00E94FB136EE864
:1039400074E08CEC91E00E94FB136FE874E08DEC66
:1039500091E00E94FB1360E974E08EEC91E00E941C
:10396000FB1361E974E08FEC91E00E94FB1365EFBB
:1039700074E080ED91E00E941B1466EF74E081ED2D
:1039800091E00E94FB1367EF74E082ED91E00E94EA
:103990001B1468EF74E083ED91E00E941B1484ED2A
:1039A00091E00E940514909387048093860486ED2D
:1039B00091E00E94051490938B0480938A0404EF95
:1039C00011E0B8016F557D4FC8010E94FB130F5FD6
:1039D0001F4F043132E01307A1F7B8016F557D4F37
:1039E000C8010E94FB130F5F1F4F0C3242E0140707
:1039F000A1F76DEE74E084E392E00E94FB1369EF9F
:103A000074E085E392E00E941B146AEF74E086E3A1
:103A100092E00E94FB136BEF74E087E392E00E9458
:103A20001B148CE098E00E94D91320ECC22E2CEFDE
:103A3000D22E2BE9E22EFF24F394C0920F08D092ED
:103A40001008E0921108F092120840E050E064EB98
:103A500072E48CE098E00E94111385E098E00E94E7
:103A6000D913C0920808D0920908E0920A08F0928F
:103A70000B0840E050E064EB72E485E098E00E94BF
:103A800011138EEF97E00E94D913C0920108D092D3
:103A90000208E0920308F092040840E050E064EB72
:103AA00072E48EEF97E00E9411138CE08093B800CF
:103AB0001092A70288EB9BE0A0E0B0E08093260381
:103AC00090932703A0932803B093290381E0809368
:103AD000250310E060E0812F0E94EE0C1F5F1E3373
:103AE000C9F70E9424050E94BF0460938307709366
:103AF00084078093850790938607909144073091BF
:103B00004507E4E7F3E08A8121912250223030F426
:103B10002FEF280F911101C0922F382F8F5F8F3315
:103B200099F7309345079093440780918004882348
:103B3000E1F00E942B12811106C068EE73E080E074
:103B400090E00E94F30310E00E942B128111CCC080
:103B500064E670E080E090E00E94F3031B3009F01F
:103B6000C1C01092800410927F0493E2292E312C60
:103B70000E94BF042B013C01809117089091180806
:103B8000A0911908B0911A08809313089093140813
:103B9000A0931508B093160861E081E00E945903D4
:103BA00060E084E00E94590361E084E00E945903D0
:103BB00060E081E00E94590307E110E0812C912C24
:103BC0005401E8E9F2E08491E9E2F2E0E490EAE00D
:103BD000F2E0F490FF2009F48FC081110E940D03E0
:103BE000EF2DF0E0EE0FFF1FE450FE4FA591B491D2
:103BF0008C91E82231E020E009F430E0832F922F0D
:103C0000092E000CAA0BBB0B002E04C0880F991FB5
:103C1000AA1FBB1F0A94D2F7882A992AAA2ABB2A6C
:103C200061E081E00E94590360E081E00E94590355
:103C30000150110908F0C5CF80921708909218081A
:103C4000A0921908B0921A08809113089091140854
:103C5000A0911508B091160888159905AA05BB050D
:103C600009F04DC080916C07811149C08091B2026A
:103C7000282F2170B22E80FDBBC080914F03109180
:103C80005003823008F0C6C08111DCC08091AC02C4
:103C90009091AD02A091AE02B091AF021816190634
:103CA0001A061B060CF0CEC0A3019201281B390B8B
:103CB0004A0B5B0BDA01C90185369105A105B105F7
:103CC0000CF4C0C060E080E00E94EE0C1092AC02E8
:103CD0001092AD021092AE021092AF02B3C00E94D9
:103CE0006F149FCE1F5F30CF1B3009F43ECF0E9470
:103CF000AC110E948F1139CF90E080E081CFAAE40F
:103D0000EA2EA7E0FA2E10E000E0C12CB2E0DB2E94
:103D1000202F8091170890911808A0911908B09150
:103D20001A08002E04C0B695A795979587950A9412
:103D3000D2F7AC01BD014095509560957095642F08
:103D40006170F7013281631781F080FF05C0F2E0F6
:103D5000DF1203C0D12C01C0DA80822F0E94760DC1
:103D6000D70112968C93CC24C3940F5F1F4FBFEFE3
:103D7000EB1AFB0A0831110559F680914C078111A5
:103D800028C080914D07811124C080914E0788235F
:103D900001F180914F078823E1F08091500788233B
:103DA000C1F0809151078823A1F0809152078823A8
:103DB00081F080915307882361F080915407882314
:103DC00041F061E08BE00E94870360E08BE00E949D
:103DD0005903E1E0DE1216C080919404833011F0A3
:103DE000863019F484E080939404CC2009F43ECF0B
:103DF0000E94250480E090E0892B09F4B9CE0E944E
:103E00000000B6CED110F1CF80919404873069F7CD
:103E100082E0E9CF8091AC029091AD02A091AE0218
:103E2000B091AF02892B8A2B8B2B61F46FEF80E06E
:103E30000E94EE0C4092AC025092AD026092AE0233
:103E40007092AF02123008F496C08091A80290914F
:103E5000A902A091AA02B091AB02892B8A2B8B2BCD
:103E600061F46FEF81E00E94EE0C4092A802509244
:103E7000A9026092AA027092AB028091F9048111AA
:103E8000A2C020E040E050E0BA0182E10E942A078F
:103E900080917F04882309F41FC48091EE04882355
:103EA00021F08091F504811117C48091940486302B
:103EB00009F0F8C28091BA06811105C00E945C1019
:103EC00081E08093BA060E94111080917E042091B7
:103ED000AE063091AF06883008F4E7C280911F0823
:103EE00090912008821B930B9093B3068093B206A7
:103EF00080911D0890911E082091B0063091B10666
:103F0000821B930B9093B5068093B4064091820474
:103F1000509183042091B2063091B30637FF03C05D
:103F20003195219531092417350724F41092B306F1
:103F30001092B20697FF03C091958195910984175D
:103F4000950724F41092B5061092B4068091B2063B
:103F50009091B3062091BB06213009F0ABC22091AD
:103F6000B4063091B5063195219531093093B306E9
:103F70002093B206BAC2111180CF8091A80290910D
:103F8000A902A091AA02B091AB02181619061A064E
:103F90001B060CF072CF481A590A6A0A7B0A35E6EA
:103FA00043165104610471040CF467CF60E081E0B2
:103FB0000E94EE0C1092A8021092A9021092AA027E
:103FC0001092AB025ACFF5E08F2E912C412C512C40
:103FD000320110E000E00E94B20140917B07509155
:103FE0007C0760917D0770917E076C01990FEE0848
:103FF000FF08DB01CA010996A11DB11D8C159D05A5
:10400000AE05BF057CF04950510961097109C4161C
:10401000D506E606F70634F00F5F1F4F4C0C5D1C0B
:104020006E1C7F1C41E0841A9108A9F60115110548
:1040300051F09801110F440B550BC301B2010E94BE
:104040008A2869017A018091EE04811104C080916F
:10405000F704811121C010E000E020918D0430E0D0
:10406000021713076CF40E94B201092E000CAA0B70
:10407000BB0BC80ED91EEA1EFB1E0F5F1F4FEDCFF4
:104080002F5F3F4F032E000C440B550BC701B601A9
:104090000E948A2869017A01C0927B07D0927C072E
:1040A000E0927D07F0927E070E94BF042B013C0145
:1040B0008091740490917504AC014E5C5F4F052EA5
:1040C000000C660B770BC416D506E606F70654F40B
:1040D000C297092E000CAA0BBB0B8C159D05AE05D3
:1040E000BF0544F05FEDC51653E0D506E104F104C9
:1040F0000CF40FC180917F0790918007A0918107F8
:10410000B0918207B301A201481B590B6A0B7B0BCC
:104110008091EF049091F004A091F104B091F20429
:10412000481759076A077B0710F01092EE04809138
:104130008C048D7F8130A1F4809175078111F5C0C9
:1041400080917004909171044497092E000CAA0B81
:10415000BB0B61E0C816D906EA06FB060CF0F8C0F6
:1041600080918C048230A0F0809176078111FDC08F
:1041700080917204909173040A96092E000CAA0B88
:10418000BB0B61E08C159D05AE05BF050CF000C1B1
:104190000091740410917504C801012E000CAA0B43
:1041A000BB0B8C159D05AE05BF050CF405C18090B9
:1041B000720490907304C401092C000CAA0BBB0B71
:1041C000A7019601281B390B4A0B5B0BCA01B901E9
:1041D0000E94092A6B017C01B80168197909072E30
:1041E000000C880B990B0E94092A9B01AC01C701A6
:1041F000B6010E945F299B01AC0160E070E080E89D
:104200009FE30E94ED2820E030E040E053EC0E9464
:10421000BE2A0E94D129062E000C770B6536710547
:104220000CF0C3C070937407609373078091730799
:10423000E091F604EE2379F090916D072091EE0461
:104240002111CDC6992309F4E8C010926D0781E0D1
:104250008093F30480E0C82E082E000CDD08EE08E1
:10426000FF08409177075091780760917907709126
:104270007A074C155D056E057F0519F19091EE04E6
:10428000992309F4F5C02091730730917407121631
:10429000130634F490916D07911102C08093F107D9
:1042A00081E08093F30421E0B701A60182E10E943E
:1042B0002A07C0927707D0927807E0927907F092A8
:1042C0007A078091F007282F082E000C330BF90194
:1042D000EE0FFF1FE957F84F409173075091740795
:1042E000518340832353384F90918307442D491BBA
:1042F000D9014C9382320CF0D2C08F5F8093F007CB
:1043000040928307509284076092850770928607D7
:10431000BFCD40927F0750928007609281077092D4
:10432000820781E08093EE0402CF813009F018CF3C
:1043300080917004909171044497092E000CAA0B8F
:10434000BB0BC816D906EA06FB060CF009CF60E0E5
:1043500080918F040E94760D80937507E0918F0401
:10436000F0E0E353FB4F8083FBCE813009F010CFA8
:1043700080917204909173040A96092E000CAA0B86
:10438000BB0B8C159D05AE05BF050CF001CF60E0A1
:1043900080918F040E94760D80937607E0918F04C0
:1043A000F0E0E353FB4F8083F3CE81E89FEF9093DF
:1043B0007407809373073ACFA7019601281B390B26
:1043C0004A0B5B0BCA01B9010E94092A6B017C01EF
:1043D0006091700470917104601B710B072E000CCA
:1043E000880B990B0E94092A9B01AC01C701B601F9
:1043F0000E945F2920E030E040E053E40E94BE2AA2
:104400000E94D129062E000C770B6C393FEF730701
:104410000CF008CF8FE790E0CACF2091F00782E23E
:1044200090E0222329F0822F022E000C990B019795
:1044300010E000E0F0E0022E000C330B0E171F0717
:1044400080F42817390769F0DC01A353B84F4C9169
:10445000040F111D47FD1A958296B1010E94472B4A
:10446000EDCF880F991FFC01E957F84F8081F3CEFB
:104470001092F10710926D078091F704882329F0BC
:1044800020E040E050E0BA0111CF21E0B701A601E1
:1044900082E10E942A0781E08093F3040ACF109200
:1044A000F0072ECF1092BA060ECD80911B08909186
:1044B0001C0818CD223061F4919581959109909353
:1044C000B3068093B2068091B4069091B5060AC0F7
:1044D000233081F42091B4063091B5063093B306B1
:1044E0002093B2069195819591099093B50680939A
:1044F000B40609C0243079F491958195910990937F
:10450000B3068093B2068091C0068823B9F081502B
:104510008093C00646C0253041F42091B406309106
:10452000B506319521953109D9CF263061F2273072
:1045300051F72091B4063091B50618CD80919004C2
:10454000082F10E02091B2063091B30637FF03C068
:1045500031952195310940918404509185040C587E
:104560001C4FF801E75AFE4F9081911137C1421755
:10457000530784F02091B4063091B50637FF03C08D
:104580003195219531094091860450918704421755
:1045900053073CF461E00E94760DF801E75AFE4FA4
:1045A00080836091B2067091B3068091B6069091B7
:1045B000B7068617970709F451C0072E000C880B21
:1045C000990B0E94092A6B017C016091BC067091D5
:1045D000BD06072E000C880B990B0E94092A9B012F
:1045E000AC01C701B6010E945F2920E03EEF4FEF0A
:1045F00056E40E94BE2A0E94D129072E000C880B87
:10460000990B2EE032E044E653E00E94AE0660953E
:1046100070958B01770F220B330B80913E039091A5
:104620003F03092E000CAA0BBB0B081719072A071A
:104630003B0749F060933E0310933F0381E0809372
:104640004C030E94B9048091B2069091B3069093F6
:10465000B7068093B60681E08093F3046091B406B8
:104660007091B5068091B8069091B90686179707A4
:1046700099F1072E000C880B990B0E94092A6B01F7
:104680007C016091BE067091BF06072E000C880B5E
:10469000990B0E94092A9B01AC01C701B6010E9437
:1046A0005F2920E03EEF4FEF56E40E94BE2A0E94B1
:1046B000D129AB01770F660B770B21E081E10E94D6
:1046C0002A078091B4069091B5069093B90680931D
:1046D000B80681E08093F3040E94BF042B013C01E3
:1046E00080919404833009F4F7C008F096C08130BB
:1046F00009F4D5C0823009F4DEC08091F304882328
:1047000021F00E9425041092F3040E94BF046B0163
:104710007C0105E010E064E6962E80914B068E3316
:1047200008F075C18F5F80934B0680914B06282F50
:1047300030E0F901EC58FC4F67ADD901A150BB4FF7
:1047400051969C91691730F5E354FF4F908199235E
:1047500009F1220F331F220F331FF901E15BFA4FDA
:104760004080518062807380A70196012419350929
:104770004609570929013A01999D90011124032EF8
:10478000000C440B550B421653066406750614F0D4
:104790000E94EE0C0150110909F0BFCF39E0C32E81
:1047A000D12C77247A946624639447E0842E8091F8
:1047B0006A0690916B06FC01EA5AF94F72860097DF
:1047C00009F028C1309160062091590632132DC19D
:1047D000019690936B0680936A062BC124173507C8
:1047E0000CF0DFCE2091B4063091B50637FF03C040
:1047F0003195219531094091860450918704241701
:1048000035070CF0CECE60E00E94760DF801E75A35
:10481000FE4F80838091FA047BCE853009F4D1C0AD
:1048200008F4B0C0863009F068CF0E94D101009131
:10483000470710E0C8018F53994F7C01DD24D394C2
:10484000809148078017110609F00CF492C0F80116
:10485000EC58FC4F808182508230D8F4F701EC5B39
:10486000FF4FD70115968C919091460720812130FA
:1048700009F0C7C02FEF30E0291B3109821713065A
:104880000CF4BBC01082D70115966C91802F0E944A
:10489000EE0C0F5F1F4FBFEFEB1AFB0AD1CF409218
:1048A000C2065092C3066092C4067092C50685E0A7
:1048B0008093940422CF0E94260E8091490788237A
:1048C00009F41BCF4092C2065092C3066092C40600
:1048D0007092C50683E0ECCF8091C2069091C3062A
:1048E000A091C406B091C506A3019201281B390B03
:1048F0004A0B5B0BDA01C90181329E44A105B10567
:104900000CF4FBCE8091FB04882309F4F6CE0E94C0
:10491000D1010091470710E08091480780171106E8
:1049200001F1FCF0F801EC58FC4F8081825082309C
:10493000A8F40E94642860E071E00E94472BF82EE2
:10494000682F802F0E94EE0CF801EF53F94FDF0122
:10495000AC5BBF4F8F2D81708C93F5820F5F1F4F23
:10496000DBCF80914907882309F4C7CE86E0809386
:1049700094044092C2065092C3066092C40670929C
:10498000C506BBCE0E94D1010091470710E080917F
:1049900048078017110671F06CF0F801EC58FC4FD5
:1049A0008081823021F46FEF802F0E94EE0C0F5F28
:1049B0001F4FEDCF80914907882309F49ECE87E0F1
:1049C000D6CF8091C2069091C306A091C406B09143
:1049D000C506481A590A6A0A7B0A41E1441647E2A9
:1049E0005406610471040CF488CE0E94260E809156
:1049F0004907882309F481CE6DCF890FF70185839C
:104A000042CF981710F0D0823ECF891BF7CF10927B
:104A10004B068BCE8130910509F052C03091610672
:104A200020915A06321708F0D3CE10926B061092DE
:104A30006A0621E0C21AD10809F0B9CE80916C064D
:104A400090916D06181619060CF0D4C962E370E057
:104A500080E090E00E94F30380916C0690916D06D7
:104A60008530910509F43DC10CF0DFC0823091051D
:104A700009F404C10CF096C0019709F0BBC98DE49C
:104A800092E00E94A4018CE4E82E87E0F82E0BE669
:104A900017E0D7018D917D0190E00E94130F8BE408
:104AA00092E00E94A4010E151F0599F780916307FB
:104AB00090E00E94130F88E492E00E94A4019AC93A
:104AC0008830910509F084CE8091610690915B0653
:104AD00089130AC0109294048091620690E090932A
:104AE0006D0680936C06A1CF90915C06891709F43E
:104AF0009CCF90915D06891307C0609163068091F9
:104B000062060E94EE0C91CF809194048530B9F03A
:104B10000091440710E0809145078017110679F055
:104B200074F0F801EC58FC4F80818250823020F400
:104B300060E0802F0E94EE0C0F5F1F4FECCF609261
:104B400094048091610690915A06982E991A989C27
:104B5000902C1124891B990B889E8001899E100D31
:104B600011240A5A194F96E5E92E96E0F92E27E00E
:104B7000522E590CD7011C966C91F801808D861726
:104B800041F0892D0E94EE0CD7011C968C91F80102
:104B9000808F0F5F1F4FFFEFEF1AFF0A939459109A
:104BA000E9CF43CF8330910509F48BC0049709F016
:104BB00021C987E692E00E94A40180917E042091A1
:104BC000AE063091AF06883008F486C080911F0889
:104BD00090912008821B930B0E94130F85E692E0B0
:104BE0000E94A40180911D0890911E082091B0069A
:104BF0003091B106821B930B0E94130F83E692E063
:104C00000E94A4018091B2069091B3060E94130FF6
:104C100081E692E00E94A4018091B4069091B506CD
:104C20000E94130F8EE592E048CF8B30910509F476
:104C3000C8C164F48630910509F4F8C0089709F0FA
:104C4000D9C810926D0610926C06D4C88C309105AC
:104C500009F4BAC18F3F910509F0CCC810926D06D6
:104C600010926C0681E08093940460E08B2D0E948A
:104C7000EE0CB3943EE3B312F8CFBCC885E592E0E6
:104C80000E94A40100E115E0F80161918F0170E03C
:104C900090E080E04AE00E94CA0E83E592E00E9424
:104CA000A4012EE435E02017310771F760914E051D
:104CB00070E090E080E04AE00E94CA0E80E592E059
:104CC000FCCE8BE592E00E94A4010E94B2010E94FA
:104CD000130F88E592E0F1CE80911B0890911C089B
:104CE00079CF8EE692E00E94A4016FE384E793E01F
:104CF0000E94390F6FE383EB93E00E94390F6FE35B
:104D000082EF93E00E94390F6FE381E394E00E9409
:104D1000390F80917004909171040E94280F809146
:104D20007204909173040E94280F809174049091F2
:104D300075040E94280F64E086E794E00E94390F12
:104D400064E08AE794E00E94390F80917E040E941B
:104D50002E0F809180040E942E0F809181040E946A
:104D60002E0F80918204909183040E94280F8091DD
:104D70008C040E942E0F80918404909185040E94DF
:104D8000280F80918804909189040E94280F8091B7
:104D90008D040E942E0F80918E040E942E0F809110
:104DA0008F040E942E0F809190040E942E0F8091FC
:104DB00091040E942E0F60E285E994E00E94390F71
:104DC0008091F5040E942E0F8091F6040E942E0F10
:104DD0008091F7040E942E0F8091F8040E942E0FFC
:104DE00080918604909187040E94280F80918A0404
:104DF00090918B040E94280F68E185EB94E00E945B
:104E0000390F8091ED040E942E0F8091F9040E94C9
:104E10002E0F8091FA040E942E0F8091FB040E94B5
:104E20002E0F8AE692E00E94A4010BCF109292040A
:104E30006FE384E793E00E9402056FE383EB93E066
:104E40000E9402056FE382EF93E00E9402056FE388
:104E500081E394E00E9402050E941505909371047D
:104E6000809370040E9415059093730480937204DC
:104E70000E941505909375048093740464E086E79E
:104E800094E00E94020564E08AE794E00E94020533
:104E90000E94CB0480937E040E94CB048093800404
:104EA0000E94CB04809381040E9415059093830493
:104EB000809382040E94CB0480938C040E94150589
:104EC00090938504809384040E941505909389042F
:104ED000809388040E94CB0480938D040E94CB04AD
:104EE00080938E040E94CB0480938F040E94CB0495
:104EF000809390040E94CB048093910460E285E942
:104F000094E00E9402050E94CB0491E0811101C04F
:104F100090E09093F5040E94CB048093F6040E94E5
:104F2000CB0491E0811101C090E09093F7040E94BE
:104F3000CB0491E0811101C090E09093F8040E94AD
:104F4000150590938704809386040E94150590931D
:104F50008B0480938A0468E185EB94E00E9402054B
:104F60000E94CB048093ED040E94CB0491E0811158
:104F700001C090E09093F9040E94CB048093FA045E
:104F80000E94CB0491E0811101C090E09093FB045A
:104F90000E94CB048A3219F081E0809392048091C0
:104FA0009204882349F087E792E00E94A4010E94BE
:104FB00024050E948F1145CE0E946F1481E792E074
:104FC000F4CF8DE792E02FCF88E198E00FB6F89408
:104FD000A895809360000FBE9093600032CE87FF4B
:104FE00011C08091F10718166CF440917B07509125
:104FF0007C0760917D0770917E0743335105610501
:1050000071051CF4992309F408CA80918F04082FB4
:1050100010E00C581C4F61E0911160E00E94760D89
:10502000F801E75AFE4F808381E080936D0712C933
:105030008F929F92AF92BF92CF92DF92EF92FF92A8
:10504000CF93DF93EC01688179818A819B8161151F
:1050500071058105910521F464E279ED8BE597E016
:105060002DE133EF41E050E00E948A2849015A01C6
:105070009B01AC01A7EAB1E40E94A9286B017C0165
:10508000ACEEB4EFA50194010E94B728DC01CB017E
:105090008C0D9D1DAE1DBF1DB7FF03C00197A1095B
:1050A000B04888839983AA83BB839F77DF91CF9190
:1050B000FF90EF90DF90CF90BF90AF909F908F9038
:1050C00008950E941828089580E091E00E94182811
:1050D0000895B0E0A0E08093000190930101A093B7
:1050E0000201B09303010895F999FECF92BD81BDED
:1050F000F89A992780B50895262FF999FECF1FBAFF
:1051000092BD81BD20BD0FB6F894FA9AF99A0FBEF0
:1051100001960895052E97FB1EF400940E94A12885
:1051200057FD07D00E94BC2807FC03D04EF40C9416
:10513000A12850954095309521953F4F4F4F5F4F97
:10514000089590958095709561957F4F8F4F9F4FF3
:1051500008950E94DE28A59F900DB49F900DA49FF6
:10516000800D911D11240895B7FF0C94A9280E9469
:10517000A928821B930B0895A1E21A2EAA1BBB1B20
:10518000FD010DC0AA1FBB1FEE1FFF1FA217B30713
:10519000E407F50720F0A21BB30BE40BF50B661F29
:1051A000771F881F991F1A9469F7609570958095ED
:1051B00090959B01AC01BD01CF010895A29FB00164
:1051C000B39FC001A39F700D811D1124911DB29F3B
:1051D000700D811D1124911D08955058BB27AA27D9
:1051E0000E9405290C947F2A0E94712A38F00E949F
:1051F000782A20F039F49F3F19F426F40C946E2A93
:105200000EF4E095E7FB0C94682AE92F0E94902A9F
:1052100058F3BA17620773078407950720F079F4EB
:10522000A6F50C94B22A0EF4E0950B2EBA2FA02D01
:105230000B01B90190010C01CA01A0011124FF2743
:10524000591B99F0593F50F4503E68F11A16F0403E
:10525000A22F232F342F4427585FF3CF469537953D
:105260002795A795F0405395C9F77EF41F16BA0B02
:10527000620B730B840BBAF09150A1F0FF0FBB1FB0
:10528000661F771F881FC2F70EC0BA0F621F731FF9
:10529000841F48F4879577956795B795F7959E3F56
:1052A00008F0B0CF9395880F08F09927EE0F9795E7
:1052B000879508950E94442A08F481E008950E9489
:1052C00073290C947F2A0E94782A58F00E94712A30
:1052D00040F029F45F3F29F00C94682A51110C9496
:1052E000B32A0C946E2A0E94902A68F39923B1F392
:1052F000552391F3951B550BBB27AA2762177307FC
:10530000840738F09F5F5F4F220F331F441FAA1F8F
:10531000A9F335D00E2E3AF0E0E832D0915050404B
:10532000E695001CCAF72BD0FE2F29D0660F771FF9
:10533000881FBB1F261737074807AB07B0E809F0DF
:10534000BB0B802DBF01FF2793585F4F3AF09E3F64
:10535000510578F00C94682A0C94B32A5F3FE4F36B
:10536000983ED4F3869577956795B795F7959F5FA7
:10537000C9F7880F911D9695879597F90895E1E0F3
:10538000660F771F881FBB1F621773078407BA0752
:1053900020F0621B730B840BBA0BEE1F88F7E095AD
:1053A00008950E94D8296894B1110C94B32A0895E5
:1053B0000E94982A88F09F5798F0B92F9927B751E3
:1053C000B0F0E1F0660F771F881F991F1AF0BA95A9
:1053D000C9F714C0B13091F00E94B22AB1E008952B
:1053E0000C94B22A672F782F8827B85F39F0B93F1D
:1053F000CCF3869577956795B395D9F73EF490955C
:105400008095709561957F4F8F4F9F4F0895E894D9
:1054100009C097FB3EF490958095709561957F4FFC
:105420008F4F9F4F9923A9F0F92F96E9BB279395AA
:10543000F695879577956795B795F111F8CFFAF4BA
:10544000BB0F11F460FF1BC06F5F7F4F8F4F9F4FEB
:1054500016C0882311F096E911C0772321F09EE849
:10546000872F762F05C0662371F096E8862F70E0AF
:1054700060E02AF09A95660F771F881FDAF7880F89
:105480009695879597F90895990F0008550FAA0BDF
:10549000E0E8FEEF16161706E807F907C0F0121647
:1054A0001306E407F50798F0621B730B840B950B4A
:1054B00039F40A2661F0232B242B252B21F408959F
:1054C0000A2609F4A140A6958FEF811D811D08953C
:1054D00097F99F6780E870E060E008959FEF80ECA7
:1054E000089500240A94161617061806090608954A
:1054F00000240A9412161306140605060895092EB0
:105500000394000C11F4882352F0BB0F40F4BF2B1E
:1055100011F460FF04C06F5F7F4F8F4F9F4F08955E
:1055200057FD9058440F551F59F05F3F71F0479554
:10553000880F97FB991F61F09F3F79F08795089539
:10554000121613061406551FF2CF4695F1DF08C058
:10555000161617061806991FF1CF86957105610575
:1055600008940895E894BB2766277727CB0197F91D
:1055700008950E94442A08F48FEF08950E94D12ACA
:105580000C947F2A0E94712A38F00E94782A20F019
:10559000952311F00C94682A0C946E2A11240C9413
:1055A000B32A0E94902A70F3959FC1F3950F50E0A3
:1055B000551F629FF001729FBB27F00DB11D639FC5
:1055C000AA27F00DB11DAA1F649F6627B00DA11D6B
:1055D000661F829F2227B00DA11D621F739FB00D11
:1055E000A11D621F839FA00D611D221F749F332781
:1055F000A00D611D231F849F600D211D822F762F1A
:105600006A2F11249F5750409AF0F1F088234AF0F6
:10561000EE0FFF1FBB1F661F771F881F9150504062
:10562000A9F79E3F510580F00C94682A0C94B32A88
:105630005F3FE4F3983ED4F3869577956795B795E9
:10564000F795E7959F5FC1F7FE2B880F911D969503
:10565000879597F90895DB018F939F930E94A9285E
:10566000BF91AF91A29F800D911DA39F900DB29FFE
:10567000900D11240895991B79E004C0991F961785
:1056800008F0961B881F7A95C9F78095089597FBB7
:10569000072E16F4009407D077FD09D00E94612BE5
:1056A00007FC05D03EF4909581959F4F0895709525
:1056B00061957F4F0895EE0FFF1F0590F491E02D47
:1056C0000994AA1BBB1B51E107C0AA1FBB1FA61749
:1056D000B70710F0A61BB70B881F991F5A95A9F79B
:1056E00080959095BC01CD0108950F931F93CF93A2
:1056F000DF938230910510F482E090E0E09127087A
:10570000F091280830E020E0B0E0A0E0309799F474
:105710002115310509F44AC0281B390B2430310505
:10572000D8F58A819B816115710589F1FB0193830D
:105730008283FE0111C0408151810281138148178B
:105740005907E0F04817590799F4109761F012963D
:105750000C93129713961C933296CF01DF91CF9141
:105760001F910F9108950093270810932808F4CFF4
:105770002115310551F04217530738F0A901DB011B
:105780009A01BD01DF01F801C1CFEF01F9CF90937C
:10579000280880932708CDCFFE01E20FF31F8193E5
:1057A00091932250310939832883D7CF209125083E
:1057B00030912608232B41F42091060130910701F6
:1057C000309326082093250820910401309105018B
:1057D0002115310541F42DB73EB740910801509194
:1057E0000901241B350BE0912508F0912608E217EA
:1057F000F307A0F42E1B3F0B2817390778F0AC01F4
:105800004E5F5F4F2417350748F04E0F5F1F5093D0
:10581000260840932508819391939FCFF0E0E0E024
:105820009CCFCF93DF930097E9F0FC01329713826E
:105830001282A0912708B0912808ED0130E020E005
:105840001097A1F420813181820F931F20912508A8
:10585000309126082817390709F061C0F09326080F
:10586000E0932508DF91CF910895EA01CE17DF0775
:10587000E8F54A815B819E0141155105B1F7E901C7
:10588000FB83EA8349915991C40FD51FEC17FD079B
:1058900061F4808191810296840F951FE9019983BB
:1058A0008883828193819B838A83F0E0E0E0129673
:1058B0008D919C9113970097B9F52D913C9111977B
:1058C000CD010296820F931F209125083091260862
:1058D0002817390739F6309751F510922808109299
:1058E0002708B0932608A0932508BCCFD383C28392
:1058F00040815181840F951FC817D90761F44E5F0D
:105900005F4F88819981480F591F518340838A8155
:105910009B81938382832115310509F0B0CFF093E9
:105920002808E09327089ECFFD01DC01C0CF138239
:085930001282D7CFF894FFCFDB
:105938000100000000002908800005060A09080780
:105948000C12131415160E0F1001010101010101AB
:10595800010101000000000002020202020202022C
:10596800020202020202020200000000000000001F
:10597800000000000000000000000000000000001F
:105988000000000000000000FFFFFFFFFFFFFFFF17
:10599800FFFFFFFFFFFFFFFFFFFFFFFFFFFFFFFF0F
:1059A800FFFFFFFFFFFFFFFFFFFFFFFFFFFFFFFFFF
:1059B800FFFFFFFFFFFFFFFFFFFFFFFFFFFFFFFFEF
:1059C800FFFFFFFFFFFFFF020802040202020102BD
:1059D80080024002100220030203010380034003F7
:1059E800200310030405040610050F040103020830
:1059F800090A000D0E0F1011121314151617180BA3
:105A08000C0D0E071818181800000000FF00000001
:105A1800B301B101AF01AD01AB01A901A701A50116
:105A2800A301A1019F019D019B019901970100001C
:105A38000000A1019F010A0B0C0D06070809008050
:105A4800FFFFFF7F000000000000A101B001070375
:105A580006030A030A030A03000000009B0E6E0EE9
:105A680007038C02670E540E450E44454255472CD9
:105A780043534420426F61726420436F6E6E6563C6
:065A88007465640D0A00C4
:00000001FF
