:100000000C9450020C9478020C9478020C947802B0
:100010000C9478020C9478020C9478020C94780278
:100020000C9478020C9478020C94FD1A0C946C1BBE
:100030000C9478020C9478020C9478020C94780258
:100040000C9478020C9478020C9478020C94780248
:100050000C9478020C9478020C9478020C94981DFD
:100060000C9478020C9478020C9478020C94780228
:100070000C9478020C9478020C9478020C94780218
:100080000C9478020C9478020C9478020C94780208
:100090000C94E21D0C9478020C9478020C94780273
:1000A0000C9478020C9478020C9478020000000002
:1000B0000000000000000000000000002A002B00EB
:1000C0002800000000000000000000000000000008
:1000D0000000000000000000000000000000000020
:1000E0000000000000000000000000002C001E02C4
:1000F00034022002210222022402340026022702B6
:1001000025022E0236002D003700380027001E0081
:100110001F002000210022002300240025002600CB
:100120003302330036022E00370238021F02040267
:10013000050206020702080209020A020B020C026B
:100140000D020E020F02100211021202130214021B
:10015000150216021702180219021A021B021C02CB
:100160001D022F003100300023022D023500040053
:10017000050006000700080009000A000B000C003B
:100180000D000E000F0010001100120013001400EB
:10019000150016001700180019001A001B001C009B
:1001A0001D002F0231023002350200000000000065
:1001B000000000000000000000000000000000003F
:1001C000000000000000000000000000000000002F
:1001D000000000000000000000000000000000001F
:1001E000000000000000000000000000000000000F
:1001F00000000000000000000000000000000000FF
:1002000000000000000000000000000000000000EE
:1002100000000000000000000000000000000000DE
:1002200000000000000000000000000000000000CE
:1002300000000000000000000000000000000000BE
:1002400000000000000000000000000000000000AE
:10025000000000000000000000000000000000009E
:10026000000000000000000000000000000000008E
:10027000000000000000000000000000000000007E
:10028000000000000000000000000000000000006E
:10029000000000000000000000000000000000005E
:1002A0000000000000000000000000000501090639
:1002B000A101050719E029E7150025017501950839
:1002C0008102050C95017508150026FF001900290B
:1002D000FF8100050819012908950875019102059B
:1002E0000795067508150026E700190029E7810023
:1002F000C0050C0901A101150026FF0319002AFF02
:1003000003950475108100C005010904A1010509C8
:10031000190129201500250175019520810205018B
:10032000A100093009310933093416008026FF7F06
:10033000751095048102093209351580257F7508ED
:1003400095028102C0050109390939150125089571
:100350000275048102C000000000240027002A006A
:100360002D00300000000000250028002B002E008A
:100370003100080B00020202000009040000010223
:1003800002000005240010010524010101042402DB
:100390000605240600010705810310004009040139
:1003A00000020A0000000705020240000007058362
:1003B000024000000403090412010002EF020140A0
:1003C0008F0E0692000101020301556E6B6E6F776E
:1003D0006E00436C657620536F66742050696E4FD3
:1003E0006E6500000000002300260029002C002F6D
:1003F00000040404040403040502020202040302CC
:1004000002020206060606060604040202020404AC
:100410000408020110408040102040804080080203
:100420000401804020100201108010204040200D67
:100430000A002C00422C000D0A002C004F2C000D4D
:100440000A00502C000D0A002C002C002C00412C1E
:1004500000450D0A00432C00522C530D0A00522C6B
:10046000450D0A00562C312E31322E300D0A002C4B
:10047000002C00070605040100080A0B0C0D0900FA
:1004800000000200090F0000030401000C0000003E
:100490000000000000000000000000000000491FF4
:1004A00011241FBECFEFDAE0DEBFCDBF12E0A0E027
:1004B000B1E0E4EDF3E602C005900D92A834B10777
:1004C000D9F727E0A8E4B2E001C01D92AE3CB20724
:1004D000E1F712E0C0E5D2E004C02197FE010E94DE
:1004E000A930CF34D107C9F70E948C210C94E83190
:1004F0000C94000008950895E8E7F4E0E4919091E9
:100500007B008E2F880F880F80729F7D892B8093B0
:100510007B00E770E064E0937C0080917A00806467
:1005200080937A0080917A0086FDFCCF80917800DC
:10053000909179000895FC018091AA02882311F11D
:100540003FB7F89482E08093E9002091F200822F77
:1005500090E01816190614F481E090E0882339F031
:10056000289844E64093A9024091F1004083222359
:1005700039F02091F200211103C02BE62093E8000E
:100580003FBF08958FEF9FEF0895CF92DF92EF92D4
:10059000FF92CF93DF93C091C404D091C5048091A2
:1005A000C2049091C304BE01681B790B072E000C96
:1005B000880B990B0E940A2F6B017C016091C0048B
:1005C0007091C1046C1B7D0B072E000C880B990BDE
:1005D0000E940A2F9B01AC01C701B6010E94602E48
:1005E00060937B0770937C0780937D0790937E07D1
:1005F000DF91CF91FF90EF90DF90CF9008958091A1
:1006000057078823A9F080915207809355071092CD
:100610005707809155078B5F80935607909153073A
:10062000891728F09093560781E080935707089523
:10063000809155078B5F80935507EBCF4091A202C5
:100640005091A3022091A0023091A10242175307BA
:10065000B4F49091E8009570E1F39091E80092FD78
:1006600019C08093F1008091A2029091A30201969B
:100670008F739927892B19F48EEF8093E80080916E
:10068000A2029091A30201969093A3028093A202EA
:1006900081E0089580E00895EF92FF920F931F93F9
:1006A000CF93DF93F82E192FE62E042F81E0860FCB
:1006B000880F0E941E0383E00E941E03CF2DD12FBE
:1006C000EC0EFD2EF11CCE15DF05B9F007FF13C0AF
:1006D000FE0184910E941E03182F80E00E941E03D9
:1006E000812321968111EFCFDF91CF911F910F913F
:1006F000FF90EF9008958881EDCF81E0F5CFDF92F4
:10070000EF92FF920F931F93CF93DF93D82E8A011E
:10071000EB017B01E40EF51ECE15DF0559F0D7FE87
:1007200012C0FE0184910E941E0321968111F4CF14
:100730000FEF1FEFC801DF91CF911F910F91FF9035
:10074000EF90DF9008958881EECF2FB7F8948770EF
:100750008093E9009091E800892F807295FF04C092
:100760009091F20080E4891B2FBF0895615030F012
:100770002091F100FC0120830196F8CF289884E6AF
:100780008093A9020895AF92BF92DF92EF92FF92F9
:100790000F931F93CF93DF935C018B01EB019BEFD2
:1007A000D92E2097C1F07E01C134D1051CF080E420
:1007B000E82EF12C8091E80082FFFCCFC8018C1B51
:1007C0009D0B6E2D8A0D9B1D0E94B603D092E800F2
:1007D000CE19DF09E6CFC801DF91CF911F910F91AC
:1007E000FF90EF90DF90BF90AF900895AF92BF92CF
:1007F000CF92DF92EF92FF920F931F93CF93DF93ED
:100800006C017B018B01040F151FEB015E01AE181B
:10081000BF08C017D10759F06991D601ED91FC913D
:100820000190F081E02DC6010995892B79F7C5016A
:10083000DF91CF911F910F91FF90EF90DF90CF90BC
:10084000BF90AF9008958091980281110DC082E011
:100850008093940284E08093950210929702109204
:10086000960281E08093980284E992E008950F93C4
:100870001F93CF93DF931F92CDB7DEB782E08983BA
:1008800042E450E062E773E080E80E947F030E9448
:100890002304DC0112960D911C910115110589F0BC
:1008A000D801ED91FC910280F381E02DBE016F5FD4
:1008B0007F4FC801099597FD04C0F8010085118597
:1008C000ECCF89810F90DF91CF911F910F91089507
:1008D000CF93DF931F92CDB7DEB76983DC01ED9133
:1008E000FC910280F381E02D41E050E0BE016F5F9A
:1008F0007F4F09950F90DF91CF9108950F931F932C
:10090000CF93DF938C01D0E0C0E0F801EC0FFD1F26
:100910006491662341F081E293E00E946804892B90
:1009200011F02196F2CFCE01DF91CF911F910F915F
:10093000089583E08093E9008091F200882319F004
:100940008AE38093E800089583E00E94A50390E085
:100950000895CF93DF931F92CDB7DEB7FC01848556
:10096000958597FD08C02FEF3FEF358724870F90BF
:10097000DF91CF910895CE0101960E949B020197CD
:1009800019F4898190E0F3CF8FEF9FEFF0CF0F93B1
:100990001F93CF93DF931F92CDB7DEB78C01FC017D
:1009A0008485958597FF0BC0CE0101960E949B021E
:1009B000019771F4898190E0F80195878487F801A7
:1009C000848595850F90DF91CF911F910F910895A8
:1009D0008FEF9FEFF1CFFC018485958597FD0BC0CC
:1009E0009FB7F89482E08093E9008091F2009FBF66
:1009F00090E0019608959FB7F89482E08093E90013
:100A00008091F2009FBF90E0089581508F3008F0F0
:100A100047C0E82FF0E0E15FFA4F0C94A9302C05B5
:100A200030051E05240528055005500550053305E1
:100A300039053D054105470550054B05809180006E
:100A40008F77809380000895809180008F7DF9CF0B
:100A500080918000877FF5CF84B58F7784BD08951E
:100A600084B58F7DFBCF809190008F77809390002D
:100A70000895809190008F7DF9CF80919000877FBD
:100A8000F5CF8091C0008F778093C000089580914A
:100A9000C0008F7DF9CF8091C200877F8093C20014
:100AA00008951F93CF93DF93282F30E0F901E15889
:100AB000FB4F8491F901E05FFB4FD491F901EF50B6
:100AC000FC4FC491CC23A9F0162F81110E9405057B
:100AD000EC2FF0E0EE0FFF1FEC59FC4FA591B49105
:100AE0008FB7F894EC91111108C0D095DE23DC93F8
:100AF0008FBFDF91CF911F910895DE2BF8CFCF9359
:100B0000DF9390E0FC01E05FFB4F24918F509C4FFE
:100B1000FC0184918823C9F090E0880F991FFC01A3
:100B2000EA5AFC4FA591B491FC01EC59FC4FC591D8
:100B3000D49161110DC09FB7F8948C9120958223B8
:100B40008C938881282328839FBFDF91CF910895BC
:100B5000623051F49FB7F8943C91822F80958323A3
:100B60008C93E8812E2BEFCF8FB7F894EC912E2B3E
:100B70002C938FBFEACF8230910538F0880F991FF0
:100B8000880F991F05970197F1F708953FB7F894DB
:100B90008091900290919102A0919202B091930263
:100BA00026B5A89B05C02F3F19F00196A11DB11DC8
:100BB0003FBFBA2FA92F982F8827BC01CD01620F04
:100BC000711D811D911D42E0660F771F881F991FBF
:100BD0004A95D1F708958F929F92AF92BF92CF928C
:100BE000DF92EF92FF924B015C010E94C6056B0100
:100BF0007C010E94C6056C197D098E099F09683E1B
:100C0000734081059105A8F321E0821A9108A1089B
:100C1000B10888EEC80E83E0D81EE11CF11C8114D7
:100C20009104A104B10429F7FF90EF90DF90CF90D9
:100C3000BF90AF909F908F9008957F928F929F92D8
:100C4000AF92BF92CF92DF92EF92FF920F931F93DA
:100C5000CF93DF93C82E8B017A018091AA02811174
:100C600010C08FEF9FEFDF91CF911F910F91FF90F9
:100C7000EF90DF90CF90BF90AF909F908F907F903C
:100C800008958091A80280FF05C08091E0008260F5
:100C90008093E000CE2DDF2DD12C8AEFB82E8C2D45
:100CA0008770982E8C2D8072882E8C2D8074782ED3
:100CB0009AE3A92E209719F4DD2009F452C08C2D57
:100CC0000E94A50381110AC0BA94BB2051F261E0D1
:100CD00070E080E090E00E94EB05ECCF8C171D06E1
:100CE00011F00CF08C2F9FB7F8949092E9002091AE
:100CF000E80025FD02C09FBFDDCF282F30E0C21BDA
:100D0000D30B882029F08150A0F01092F100FBCF86
:100D1000F801C7FC0AC0815050F041914093F100A6
:100D2000FACF44914093F10031968150D0F7020FF1
:100D3000131FDD2021F0A092E800D12CDCCF8091A0
:100D4000E80085FD07C0A092E800DD24D394209739
:100D500091F2F3CF209779F6772069F2A092E8001C
:100D6000CACF5D9884E68093A502C7017CCFCF935C
:100D7000DF93EC0180911201882331F083E00E941F
:100D80001D061816190634F081E090E09B838A83D3
:100D900080E090E0DF91CF9108952FB7F8946091B3
:100DA0008C0270918D0280918E0290918F022FBFE4
:100DB00008958F929F92AF92BF92CF92DF92EF925F
:100DC000FF92CF93C091DE04C11139C00E94CD06BD
:100DD0004B015C010E94CD066B017C01C818D9084B
:100DE000EA08FB0888E8C81683E1D806E104F104A4
:100DF00014F581E293E00E94EB041816190684F4BE
:100E000081E293E00E94A904C82F8C2FCF91FF901C
:100E1000EF90DF90CF90BF90AF909F908F9008950C
:100E20000E94CD066B017C0162E370E080E090E0FF
:100E30000E94EB05D3CF81E08093DE04E6CFC0E0D3
:100E4000E4CF0F931F93CF93DF93162F082FEC015E
:100E50000E94D90689938C2F801B8117C8F3DF91DC
:100E6000CF911F910F910895CF930E94D906C82F5B
:100E70000E94D9062C2F30E0322F2227820F932F89
:100E8000911DCF910895FC0183858F3F19F061E09A
:100E90000C9451050895FC0180819181892B39F0D2
:100EA000A281B3819C9111968C919CBD8DBD83854F
:100EB0008F3F19F060E00C9451050895AF92BF92F6
:100EC000CF92DF92EF92FF920F931F93CF93DF9316
:100ED000EC0188819981892B89F06EBD0DB407FEE4
:100EE000FDCFBEB48B2DDF91CF911F910F91FF905D
:100EF000EF90DF90CF90BF90AF900895888599854F
:100F000011E0892B09F010E8AA24A394862F8123ED
:100F100009F0A12C062F2C813D814E815F8160E27A
:100F200071EA87E090E00E94BD2DF22EB02EE12CF8
:100F3000C22ED12CFF2019F0C6010E94BB058A8564
:100F4000877F09F042C08D858F3F89F0902F9123D4
:100F500081E009F480E08A1551F0EF85F8898F89E6
:100F6000992369F19081892B8083AA24A394E9892C
:100F7000FA898081998D892B8083FF2019F0C60121
:100F80000E94BB058E858F3F39F0EB89FC898081FB
:100F9000988D892309F0E12AE989FA899081898D60
:100FA0008095892380838E858F3F09F0BE2C8885AC
:100FB0009985892BB9F5110F1111BCCF93CF908171
:100FC000809589238083A12CD2CFE989FA898081F9
:100FD000998D892B8083FF2019F0C6010E94BB05E3
:100FE0008D858F3F49F0EF85F8898F89902F912368
:100FF000A9F09081892B8083E989FA899081898D74
:101000008095892380838E858F3F69F2EB89FC89E7
:101010008081988D892339F2E12AC5CF908180950E
:101020008923E9CF1695C8CF8F929F92AF92BF9236
:10103000CF92DF92EF92FF920F931F93CF93DF93A4
:101040007C014B016A01B22EA32E0E944B07E401E2
:10105000C80CD91CCC15DD0569F4CB2DDA2D0C0F8D
:101060001D1FC017D10759F06FEFC7010E945E071F
:101070008993F7CF6991C7010E945E07EBCFC70143
:101080000E94430781E0DF91CF911F910F91FF9064
:10109000EF90DF90CF90BF90AF909F908F9008958A
:1010A0008F929F92AF92BF92CF92DF92EF92FF9278
:1010B0000F931F93CF93DF937C01B62EA72E6A0167
:1010C00049010E944B07E401080D191DC017D10703
:1010D00061F4CB2DDA2DCC0EDD1ECC15DD0551F0E3
:1010E0006991C7010E945E07F8CF6991C7010E940C
:1010F0005E07ECCFC7010E94430781E0DF91CF91EB
:101100001F910F91FF90EF90DF90CF90BF90AF9025
:101110009F908F900895DC01ED91FC910190F081FA
:10112000E02D099420916802260F3327331F2132C6
:101130003105ECF420911B03FC0190E080E02430A9
:1011400069F082E00895A09168022191AC01485BAA
:101150005D4FA40FB52FB11D2C930196861798F300
:1011600080916802680F6093680280E0089581E0D2
:10117000089510921B0381E08093FA021092F50209
:1011800061E082E00E94510561E083E00E94510528
:10119000E9EBF0E080818E7F808380818D7F80838A
:1011A00088E48093B80085E48093BC000895109291
:1011B000B0021092AF021092B2021092D4020E94BA
:1011C000B9088AE792E09093AE028093AD028BE774
:1011D00092E09093AC028093AB020895CF93DF939B
:1011E00091E09093A7028823B9F0C091B800D09104
:1011F000BA008091BC008A7B8093BC0060E082E0F2
:101200000E94510560E083E00E9451050E94B908E8
:10121000D093BA00C093B800DF91CF9108958F9218
:101220009F92AF92BF92CF92DF92EF92FF920F9375
:101230001F93CF93DF93D82FC62F142F613208F05E
:101240009CC00E94C6056B017C0180911B0381112B
:101250006FC081E080931B031093FA029FEF90937D
:10126000F9021092F8029C0F9093F7028093F60215
:101270008091F602DD0FD82BD093F6028091F50213
:10128000813009F07CC01092F5020E94C6056B0106
:101290007C018091F6028093BB0080911D039091A8
:1012A0001E03A0911F03B0912003892B8A2B8B2B47
:1012B000A1F00E94C60500911D0310911E0320910C
:1012C0001F03309120036C197D098E099F090617B1
:1012D00017072807390708F44CC08091BC0083FD2C
:1012E000D8CF85EC8093BC000E94C6056B017C01C1
:1012F00080911B03813009F444C08091F8028C175F
:1013000010F4C091F802E5EDF2E0ABEFB2E080E05E
:101310008C1359C08C2FDF91CF911F910F91FF90AB
:10132000EF90DF90CF90BF90AF909F908F900895F7
:1013300080911D0390911E03A0911F03B091200383
:10134000892B8A2B8B2B09F480CF0E94C6058090B5
:101350001D0390901E03A0901F03B09020036C19F2
:101360007D098E099F0986169706A806B90608F01A
:101370006CCF80911C030E94EE08C0E0CBCF85EEBD
:10138000B1CF80911D0390911E03A0911F03B091D6
:101390002003892B8A2B8B2B09F4AACF0E94C60528
:1013A00000911D0310911E0320911F033091200313
:1013B0006C197D098E099F09061717072807390739
:1013C00008F096CFD6CF91919D938F5FA1CF8F924A
:1013D0009F92AF92BF92CF92DF92EF92FF920F93C4
:1013E0001F93CF93DF93D091D402D13208F0D7C0AE
:1013F000182FC091D3020E94C6056B017C01809119
:101400001B0381116BC082E080931B031093FA02CF
:101410008FEF8093F9021092F802D093F702A3EBBA
:10142000B2E0E5EDF2E080E0D81391C01092F60250
:101430008091F602CC0FC82BC093F6028091F50282
:10144000813009F088C01092F5020E94C6056B0138
:101450007C018091F6028093BB0080911D039091E6
:101460001E03A0911F03B0912003892B8A2B8B2B85
:10147000A1F00E94C60500911D0310911E0320914A
:101480001F03309120036C197D098E099F090617EF
:1014900017072807390708F442C08091BC0083FD74
:1014A000D8CF85EC8093BC000E94C6056B017C01FF
:1014B00080911B03823009F450C08091F9028F3F64
:1014C00009F46FC08091F902803209F46CC08091F8
:1014D000F902803309F469C084E026C080911D03BD
:1014E00090911E03A0911F03B0912003892B8A2B9A
:1014F0008B2B09F484CF0E94C60580901D03909029
:101500001E03A0901F03B09020036C197D098E0963
:101510009F0986169706A806B90608F070CF809135
:101520001C030E94EE0885E01092B2021092D402D1
:101530001092B102DF91CF911F910F91FF90EF9028
:10154000DF90CF90BF90AF909F908F9008959D9126
:1015500091938F5F69CF85EEA5CF80911D03909108
:101560001E03A0911F03B0912003892B8A2B8B2B84
:1015700009F49ECF0E94C60500911D0310911E0321
:1015800020911F03309120036C197D098E099F095A
:10159000061717072807390708F08ACFC0CF81E060
:1015A000C3CF80E0C1CF82E0BFCF83E0BDCF1F9328
:1015B000CF93DF93EA01122FDC0111968D919C915C
:1015C000DC01ED91FC910280F381E02D0995C817B3
:1015D000D90729F4812F0E94E70991E0811190E059
:1015E000892FDF91CF911F910895AF92BF92CF9233
:1015F000DF92EF92FF920F931F93CF93DF9300D070
:10160000CDB7DEB7DC01211103C018962C911897D5
:10161000253008F043C01F964D935D936D937C93E6
:10162000529790E080E0E22EF12C8E159F05B4F4E5
:101630001A962C911A9721110AC0FD01E80FF91F83
:101640004387452F562F672F77270196EECFF70157
:10165000E81BF90BEA0FFB1F4287F3CF6D018BE00C
:10166000C80ED11C16969C91169717968C911797B9
:1016700099838A83AD90BC901197A114B10409F4A9
:1016800041C019960C9110E098012E0D3F1DD50117
:1016900014968D919C918217930710F480E016C0E8
:1016A000F50181819281208131E03093B102209354
:1016B000D3021092B2021092D4020115110599F4CE
:1016C00021E0A701B601C5010E94D70A0F900F9033
:1016D000DF91CF911F910F91FF90EF90DF90CF900E
:1016E000BF90AF900895DC01ED91FC910280F381F1
:1016F000E02DA801BE016F5F7F4F099508171907FC
:1017000069F6DECF1296ED91FC911397309731F286
:1017100014962D913C91159719960C9110E0233059
:10172000310571F48E7F89839A830F5F1F4F9E016D
:101730002F5F3F4FA701B601CF010E945008C6CFCF
:101740002115310519F49F779983F1CF22303105A6
:1017500011F49068F9CF2130310549F79F779064F3
:10176000F3CFCF93DF93EC018B818823A1F08881A5
:1017700091E09093B1028093D3021092B202109242
:10178000D40281E00E94E70991E0811190E0892F65
:10179000DF91CF9108950E94D70881E08B83CE011D
:1017A0000E94B10B982F8111E2CFF1CF1F93CF93FD
:1017B000DF93EC01142F89819A81288131E03093E5
:1017C000B1022093D3021092B2021092D402DC0133
:1017D000ED91FC910190F081E02D099589819A812C
:1017E000DC01ED91FC910190F081E02D612F0995D4
:1017F00081E0DF91CF911F910C94E709EF92FF9266
:101800000F931F93CF93DF93EC01E42E052FF22E5D
:10181000132F89819A81288131E03093B10220937E
:10182000D3021092B2021092D40224E0629FB0015F
:1018300011246A5F7F4FDC01ED91FC910190F081F2
:10184000E02D09956E2D702F89819A810E948B0859
:10185000602F70E089819A810E948B086F2D712F13
:1018600089819A810E948B08612F70E089819A8119
:101870000E948B0881E0DF91CF911F910F91FF9023
:10188000EF900C94E7099A01803130F4AB01682F96
:1018900085EA97E00C94FE0B90EF980F903128F4B6
:1018A000AB01692F8EE997E0F5CF8052803128F4A3
:1018B000AB01682F87E997E0EDCF0895CF92DF92D3
:1018C000EF92FF920F931F93CF93DF93182FC62FA2
:1018D000E82EF12CC701875F9A4F6C01FC01618BE8
:1018E000662369F00E94CD06F701EE0FFF1FEE0F91
:1018F000FF1FE75AFA4F60837183828393831F30FF
:1019000008F0B4C0F601D281153008F0ACC00C2F3D
:1019100010E061E08D2F0E947F050115110511F483
:1019200060E004C00F3F110561F461E08D2FDF918D
:10193000CF911F910F91FF90EF90DF90CF900C947B
:101940005105ED2FF0E0E158FB4FE491E150EF300D
:1019500008F084C0F0E0E155F34F0C94A930BE0CC0
:10196000CB0CD00CDA0CE40C2E0D2E0D2E0DEE0C43
:10197000F80C020D0C0D190D2E0D210D84B580688B
:1019800084BDC7BDDF91CF911F910F91FF90EF9064
:10199000DF90CF90089584B5806284BDC8BDF2CF3A
:1019A000809180008068809380001093890000936C
:1019B0008800E8CF8091800080628093800010933F
:1019C0008B0000938A00DECF809180008860809336
:1019D000800010938D0000938C00D4CF80919000F4
:1019E0008068809390001093990000939800CACF6C
:1019F0008091900080628093900010939B000093F0
:101A00009A00C0CF809190008860809390001093DE
:101A10009D0000939C00B6CF8091C00080688093A9
:101A2000C0008091C0008F7B8093C000C093CF0026
:101A3000A9CF8091C00080628093C000C093D00085
:101A4000A1CF8091C20088608093C2008091C200C3
:101A50008B7F8093C200C093D20094CF00381105D1
:101A60000CF063CF5DCFC7FF5BCF5FCF1F3108F4B2
:101A7000C09581EF810F50E040E060E070E1CF3F22
:101A800061F040E050E170E060E0CC2331F0F0E143
:101A9000CF9FA001112461E070E0DF91CF911F91F1
:101AA0000F91FF90EF90DF90CF900C94430CCF926A
:101AB000DF92EF92FF920F931F93CF93C82F282F9F
:101AC00030E0F901EC53FC4FDF01A258BF4F8C917D
:101AD000681708F4862F90814091DF04442331F089
:101AE000913011F09430F9F480E01DC09430D9F4B5
:101AF0008823C9F0275F3A4FF9019189992399F01A
:101B0000A4ECB3E030E020E09D91943009F04EC0A9
:101B1000F901E75FFA4F9189911148C0C22FE35B49
:101B2000FE4F91E090832C2F30E0F901EC53FC4FF5
:101B30009081943009F041C081113FC0CA30E8F56E
:101B40002A5A394FF9018081811125C084ECC82EB1
:101B500083E0D82E10E000E0F60181916F0184301F
:101B6000A9F4F801E75FFA4F8189882379F07F01B2
:101B700083EBE81A8EEFF80AF7018081882331F0B1
:101B800060E0802F0E945E0CF70110820F5F1F4FF4
:101B90000930110509F760E08C2FCF911F910F914B
:101BA000FF90EF90DF90CF900C945E0C2F5F3F4F33
:101BB0002930310509F0A8CFB6CF682FEDCFCF93EC
:101BC000DF930E94FF02C0915507D0E08091560735
:101BD0008C171D0681F07CF0FE01EC53FC4F8081D8
:101BE0006CE3823019F0833021F46FEF8C2F0E9468
:101BF000570D2196EBCFDF91CF9108950895E09195
:101C0000B0028091AF02E81730F4F0E0E550FD4FEC
:101C1000808190E008958FEF9FEF08959091B0023A
:101C20008091AF022FEF3FEF981748F4E92FF0E0D3
:101C3000E550FD4F208130E09F5F9093B002C901D5
:101C400008958091AF029091B002891B990B08957D
:101C5000CF92DF92EF92FF920F931F93CF93DF9378
:101C60007C01CB018A012091B102222389F0EB0192
:101C70006B01C40ED51ECC15DD0569F06991D70145
:101C8000ED91FC910190F081E02DC7010995F3CF12
:101C9000642F0E949208C801DF91CF911F910F918C
:101CA000FF90EF90DF90CF900895CF93DF931F9236
:101CB000CDB7DEB769832091B1022223F9F02091DC
:101CC000D402203258F021E030E0FC01338322833B
:101CD00090E080E00F90DF91CF9108958091B20263
:101CE000E82FF0E0ED54FD4F998190838F5F809352
:101CF000B2028093D40281E090E0ECCF61E0CE01AB
:101D000001960E949208F7CFDC01FB0112962C91FC
:101D10001297848195812817190641F49181808159
:101D2000813A31F49D7F81E0913009F080E008959F
:101D30008132E1F79B3029F482815C968C9381E0BB
:101D400008959A3099F783815D968C93F8CFFB01C3
:101D500020812138B1F42381223299F4DC011296DA
:101D60004C911297248135814217130651F421E0DA
:101D70005C962C934EE450E068E073E080E80C94AD
:101D80007F0390E080E00895CF93DF93CDB7DEB777
:101D900069970FB6F894DEBF0FBECDBFFC01DB0123
:101DA0009C919F5F9C939E012D5F3F4F81E1D901E4
:101DB0001D928A95E9F729E0298384E08A8391E0DE
:101DC0009D8383E08E832A8721E22B879C879D87D2
:101DD0009F8722E2288B2EE4298B27E02B8B25E09E
:101DE0002C8B8E8B20E430E0388F2F8B998F828163
:101DF0008B83838180688D8B49E150E0BE016F5FEA
:101E00007F4F80E00E947F0369960FB6F894DEBF93
:101E10000FBECDBFDF91CF910895FC018381806417
:101E20000C941D060A970C940D0FEFE8F3E024853F
:101E300035852817390711F415861486329623E064
:101E4000E739F207A1F748E050E06BE973E089E970
:101E500093E00C94120FEBE9F3E030E020E04191C5
:101E600051912F5F3F4F452B79F4220F331FF9011A
:101E7000E157FC4F9387828748E050E06BE973E0BD
:101E800089E993E00C94120F2430310541F7F4CF27
:101E9000DC01FB0112962C91129784819581281701
:101EA000190641F491818081813A31F49D7F81E06E
:101EB000913009F080E008958132E1F79B3029F4F8
:101EC000828155968C9381E008959A3099F78381A9
:101ED00056968C93F8CFFB0120812138B1F42381F1
:101EE000223299F4DC0112964C91129724813581AB
:101EF0004217130651F421E055962C9347E150E028
:101F000061EF72E080E80C947F0390E080E0089538
:101F1000CF93DF93CDB7DEB769970FB6F894DEBFE6
:101F20000FBECDBFFC01DB019C919F5F9C939E0186
:101F30002D5F3F4F81E1D9011D928A95E9F729E094
:101F4000298384E08A8391E09D8383E08E832A87BE
:101F500021E22B879C879D879F8722E2288B27E1A0
:101F6000298B27E02B8B25E02C8B8E8B20E430E017
:101F7000388F2F8B998F82818B83838180688D8BA3
:101F800049E150E0BE016F5F7F4F80E00E947F0318
:101F900069960FB6F894DEBF0FBECDBFDF91CF912B
:101FA0000895CF93DF93EC01FB012A818481958111
:101FB0002817190609F04BC081819081913A79F474
:101FC000813029F0833039F48F898093F10081E0EA
:101FD000DF91CF9108958230D1F5888DF6CF91327F
:101FE000B1F58B3019F482818F8BF1CF8A3019F4DF
:101FF0008381888FECCF893051F566817781838129
:10200000833079F48C8D9D8D6817790701F58A8D61
:102010009B8D0E94C3038C8D9D8D90689D8F8C8FAE
:10202000D6CF823051F46130710589F461E070E0FF
:10203000CE0149960E94C303CACF813041F4683073
:10204000710529F468E070E0CE010E96F3CF80E0D0
:10205000BFCFCF93DF93CDB7DEB729970FB6F894F4
:10206000DEBF0FBECDBFFC014281FB012481358163
:102070004217130659F52081213841F52381213279
:10208000D1F489E0EDE1F1E0DE01119601900D92CD
:102090008A95E1F749E050E0BE016F5F7F4F80E035
:1020A0000E947F0329960FB6F894DEBF0FBECDBF06
:1020B000DF91CF910895223249F421E0FC01278B72
:1020C00045E450E06CEA72E080E8EACF90E080E01E
:1020D000E9CFCF93DF93CDB7DEB769970FB6F8940A
:1020E000DEBF0FBECDBFFC01DB019C919F5F9C93C7
:1020F0009E012D5F3F4F81E1D9011D928A95E9F73D
:1021000029E0298384E08A8391E09D8383E08E83A4
:102110009F8398872A8721E22B879C879D879F87AB
:1021200022E2288B25E4298B27E02B8B25E02C8BC2
:102130008E8B20E430E0388F2F8B998F82818B83B8
:10214000838180688D8B49E150E0BE016F5F7F4FD6
:1021500080E00E947F0369960FB6F894DEBF0FBE41
:10216000CDBFDF91CF910895CF92DF92FF920F9371
:102170001F93CF93DF938C01F42EE62FF0E0EE0F48
:10218000FF1FE455FF4FC590D490D801ED91FC910D
:102190000484F585E02D6C2DC8010995EC01892B8F
:1021A00011F4F11070C0D0FE0CC0D801ED91FC917B
:1021B0000484F585E02D4F2D60EEC8010995C82BEC
:1021C000D92BD1FE0CC0D801ED91FC910484F5858A
:1021D000E02D4F2D61EEC8010995C82BD92BD2FEF9
:1021E0000CC0D801ED91FC910484F585E02D4F2DB4
:1021F00062EEC8010995C82BD92BD3FE0CC0D801BB
:10220000ED91FC910484F585E02D4F2D63EEC8011E
:102210000995C82BD92BD4FE0CC0D801ED91FC91A7
:102220000484F585E02D4F2D64EEC8010995C82B77
:10223000D92BD5FE0CC0D801ED91FC910484F58515
:10224000E02D4F2D65EEC8010995C82BD92BD6FE80
:102250000CC0D801ED91FC910484F585E02D4F2D43
:1022600066EEC8010995C82BD92BD7FE0CC0D80142
:10227000ED91FC910484F585E02D4F2D67EEC801AA
:102280000995C82BD92BCE01DF91CF911F910F91CA
:10229000FF90DF90CF900895FF920F931F93CF93FD
:1022A000DF93EC01F62E41E00E94B4108C01892BE3
:1022B000A9F0E881F9810284F385E02DCE0109952A
:1022C00040E06F2DCE010E94B410892B39F0E881D7
:1022D000F9810284F385E02DCE010995C801DF91D3
:1022E000CF911F910F91FF900895FC0182818F5B28
:1022F000FB01808381E00895089590E080E00895D7
:10230000FC019C01285F3F4F90E080E04481411137
:10231000019614823196E217F307C1F70895CF931F
:10232000DF93DC0190E2960F9830B0F414968C9114
:10233000149721E030E001C0220F9A95EAF7442378
:1023400041F0282B14962C9381E090E0DF91CF91FF
:10235000089520952823F6CFFD0136964423D1F029
:10236000CD010C96EF012991621771F3C817D907B7
:10237000D1F790E080E02191211105C0A80FB91F8D
:1023800016966C93E1CF019686309105A1F790E007
:1023900080E0DCCF90E080E02191621305C0A80FBF
:1023A000B91F16961C92D0CF019686309105A1F7E1
:1023B000EECFCF92DF92EF92FF920F931F93CF93C6
:1023C000DF93082F162F21E0209303053091DA04C4
:1023D000832F68E10E948930901305C0383108F0DE
:1023E00087C01093DF048CEF800F883008F089C01D
:1023F000E091DD04F0E0E85AF84F8281882309F487
:1024000080C084E180935807C02FD0E080915807A6
:102410009E012C533C4F7901F901E80FF11DE35E59
:10242000FE4F60816623D9F0112309F485C06C3F0B
:1024300008F475C06C3F09F067C082EE90E00E941E
:102440002B0F80915807E80EF11CF701E35EFE4F59
:102450009081992321F090910705911124C0C0909B
:102460007D03D0907E03E0907F03F0908003282FBF
:10247000200F81E090E0A0E0B0E004C0880F991F39
:10248000AA1FBB1F2A95D2F7112309F46BC08C2910
:102490009D29AE29BF2980937D0390937E03A0934D
:1024A0007F03B093800386ECE82E84E0F82E9AEC4C
:1024B000C92E94E0D92EF70181917F01112309F4EF
:1024C0005AC0882349F08150990BC817D90721F4C5
:1024D00083816FEF81115DC0CE14DF0461F7DF915E
:1024E000CF911F910F91FF90EF90DF90CF900895C3
:1024F000112309F478CF8091DF0482278093DF04D1
:1025000072CF1092580780CF6D3F19F48AEE90E099
:1025100096CF6E3F09F09FCF89EE90E090CF41E0DB
:1025200080EB93E00E948F11892B09F48ACF80EB16
:1025300093E00E94162D85CF6C3F90F06C3F29F4FC
:1025400082EE90E00E94150F7CCF6D3F19F48AEE69
:1025500090E0F8CF6E3F09F07ECF89EE90E0F2CFA9
:1025600040E0DECF80959095A095B0958C219D217F
:10257000AE21BF2190CF882309F4AECF8150990BB3
:10258000C817D90709F0A8CF8381882309F4A4CFFD
:1025900060E081500E94570D9FCFFC010190002008
:1025A000E9F73197AF01481B590BBC0181E293E079
:1025B0000C94B7068F929F92AF92BF920F931F9386
:1025C000CF93DF93CDB7DEB7A1970FB6F894DEBFF8
:1025D0000FBECDBF19A2423008F44AE08E010F5D54
:1025E0001F4F842E912CB12CA12CA50194010E9487
:1025F000BD2DE62FB901CA01EA30F4F4E05DD8013F
:10260000EE938D01232B242B252B79F790E080E08E
:10261000109719F0CD010E94CD12A1960FB6F89433
:10262000DEBF0FBECDBFDF91CF911F910F91BF9045
:10263000AF909F908F900895E95CE1CFCF92DF92A9
:10264000EF92FF92CF93DF936C01990FEE08FF0892
:10265000F7FE19C06DE281E293E00E946804EC018C
:1026600066277727CB016C197D098E099F094AE0FF
:102670000E94DA128C0F9D1FDF91CF91FF90EF9097
:10268000DF90CF9008954AE0C701B601DF91CF9166
:10269000FF90EF90DF90CF900C94DA120E941E13FF
:1026A0008FE694E00C947E044F925F926F927F923B
:1026B0008F929F92AF92BF92CF92DF92EF92FF9252
:1026C0000F931F93CF936B017C01742EAC019B0180
:1026D0000E948430882399F08FE192E0CF911F917E
:1026E0000F91FF90EF90DF90CF90BF90AF909F90B1
:1026F0008F907F906F905F904F900C94CD12460119
:102700005701E894B7F82FEF3FEF4FE75FE7C501B8
:10271000B4010E94843081110DC02FEF3FEF4FE7CD
:102720005FE7C501B4010E945B2E18161CF483E21A
:1027300092E0D4CF2FEF3FEF4FE75FE4C701B60140
:102740000E94123018161CF487E292E0C7CF2FEFD8
:102750003FEF4FE75FECC701B6010E945B2E87FD9C
:10276000F3CF20E030E0A901C701B6010E945B2E43
:1027700010E000E087FF0AC06DE281E293E00E9472
:1027800068048C01F7FAF094F7F8F094C0E060E088
:1027900070E080E09FE37C1641F020E030E040E212
:1027A00051E40E94602ECF5FF6CFA70196010E94F0
:1027B000EF2D2B013C010E94D92E4B015C014AE018
:1027C0000E94DA127C01E00EF11ECC23C1F1C5019A
:1027D000B4010E94082F9B01AC01C301B2010E9409
:1027E000EE2D4B015C016EE281E293E00E946804F1
:1027F000E80EF91EC15018F120E030E040E251E44B
:10280000C501B4010E9417302B013C010E94D92E52
:102810004B01B12CA12C4AE0C501B4010E94DA128F
:10282000E80EF91EC501B4010E94082F9B01AC01FE
:10283000C301B2010E94EE2D4B015C01DBCFC70149
:10284000CF911F910F91FF90EF90DF90CF90BF90AD
:10285000AF909F908F907F906F905F904F90089572
:10286000682F70E090E080E04AE00E94DA1281E791
:1028700094E00C947E040F931F93CF93DF93162F55
:10288000082FEC0189910E9430148C2F801B811736
:10289000C8F3DF91CF911F910F9108953F924F920E
:1028A0005F926F927F928F929F92AF92BF92CF92E0
:1028B000DF92EF92FF920F931F93CF93DF9300D09D
:1028C000CDB7DEB7FC014B01042F96818781998338
:1028D0008A83C080D180C114D10409F479C04185B4
:1028E00050E0D60114968D919C9184179507B0F411
:1028F000312C832D0F900F90DF91CF911F910F916D
:10290000FF90EF90DF90CF90BF90AF909F908F900F
:102910007F906F905F904F903F900895F601808177
:1029200091E09093B1028093D3021092B202109280
:10293000D40220E0BE016F5F7F4FC6010E94D70A1C
:10294000382E8823A9F210E0B12CA12CA016B106D4
:1029500080F6D60114968D919C917801EA18FB08B7
:102960008E159F0508F47C0141E0C8018E199F096E
:10297000A816B90608F440E06E2D613208F060E256
:10298000F60180810E940F091092B0028093AF027D
:102990008E151F0409F0ACCF34016A0C7B1C230197
:1029A000C201861997098E159F0578F4D6011196F4
:1029B0008D919C91DC01ED91FC910284F385E02DD9
:1029C0000995F20181932F01EBCFAE0CBF1CBECF56
:1029D000A281B381109709F48BCF2481358110E057
:1029E000418550E02330310571F4816089839A83F9
:1029F0004F5F5F4F9401BE016F5F7F4FCD010E941B
:102A00001408382E76CF2115310519F49068998372
:102A1000F1CF2230310511F49F77F9CF2130310504
:102A200049F7906CF4CFAF92BF92CF92DF92EF92C2
:102A3000FF920F931F93CF93DF93CDB7DEB7A1978C
:102A40000FB6F894DEBF0FBECDBF8091C80790913E
:102A5000C907188A198A1A8A1B8A9A8389831C8251
:102A60001B8281E08A878BE390E098878F831B86A7
:102A70008EE089874EE0BE016C5E7F4FCE010196ED
:102A80000E944E146C897D8976276727762770937C
:102A9000C1076093C007AE88BF88BA24AB24BA24AC
:102AA000B092C307A092C207088D198D1027012785
:102AB00010271093C5070093C4078091C607909113
:102AC000C707C12CD12CE12C35E4F32E83309105BE
:102AD00001F1C12CD12C20E8E22E25E4F22E823027
:102AE0009105B9F08130910579F0C12CD12C40E8E5
:102AF000E42E4FE3F42E892B61F4C12CD12C80E815
:102B0000E82E86E4F82E05C0C12CD12CE12C96E4E9
:102B1000F92E072E000C880B990B0E940A2FA70193
:102B200096010E94602E2AE038EE4CE151E40E94AA
:102B300017306093B4077093B5078093B6079093EE
:102B4000B707B501BB0C880B990B0E940A2FA70190
:102B500096010E94602E2AE038EE4CE151E40E947A
:102B600017306093B8077093B9078093BA079093B2
:102B7000BB07B801110F880B990B0E940A2FA70100
:102B800096010E94602E2AE038EE4CE151E40E944A
:102B900017306093BC077093BD078093BE07909376
:102BA000BF07A1960FB6F894DEBF0FBECDBFDF9171
:102BB000CF911F910F91FF90EF90DF90CF90BF903A
:102BC000AF900895CF92DF92EF92FF92CF9360E99A
:102BD00071E080E090E00E94EB051092B806109240
:102BE000B9061092BA061092BB061092BC0610925B
:102BF000BD061092BE061092BF06C2E30E941315D6
:102C00008091CE04883008F465C02091BC073091D3
:102C1000BD074091BE075091BF076091B806709103
:102C2000B9068091BA069091BB060E94EF2D609381
:102C3000B8067093B9068093BA069093BB062091AC
:102C4000B8073091B9074091BA075091BB0760911E
:102C5000BC067091BD068091BE069091BF060E9491
:102C6000EF2D6B017C01C092BC06D092BD06E092B4
:102C7000BE06F092BF06C15009F0C0CF20E030E0A0
:102C800048E452E46091B8067091B9068091BA06A2
:102C90009091BB060E94602E6093B8067093B906AF
:102CA0008093BA069093BB0620E030E048E452E4FB
:102CB000C701B6010E94602E6093BC067093BD06EA
:102CC0008093BE069093BF06CF91FF90EF90DF9068
:102CD000CF9008952091B4073091B5074091B60781
:102CE0005091B7079ACFCF93DF93EC01BC01655F9A
:102CF0007F4F48850E944E14882301F1488550E09B
:102D000030E020E060E070E0CB0124173507CCF420
:102D1000982F872F762F6627EA85E1110AC0FA01DE
:102D2000E21BF30BEC0FFD1FE2856E2B2F5F3F4F75
:102D3000ECCFFE01E20FF31FE385F7CF6FEF7FEFDC
:102D4000CB01DF91CF9108958F929F92AF92BF9266
:102D5000CF92DF92EF92FF920F931F93CF93DF9367
:102D6000EC014A015B01888199810E9473162A81D6
:102D700001E010E002C0000F111F2A95E2F7015098
:102D80001109012E000C220B330BAB816801790174
:102D90000A2E04C0CC0CDD1CEE1CFF1C0A94D2F7DA
:102DA000C094D094E094F094C622D722E822F9226D
:102DB000E881F981B901A801482159216A217B21C3
:102DC00004C0440F551F661F771FAA95D2F74C29E0
:102DD0005D296E297F292085CF01DF91CF911F9139
:102DE0000F91FF90EF90DF90CF90BF90AF909F90AA
:102DF0008F900C94F50ACF93DF93CDB7DEB767972A
:102E00000FB6F894DEBF0FBECDBFE4EBF7E0248928
:102E10003589188A198A1A8A1B8A3A8329831C825F
:102E20001B8291E09A872CE130E038872F831B8644
:102E300099879E012F5F3F4F3D8B2C8B92E09E8B9D
:102E400093E09F8B282F30E0338B228B482F50E06C
:102E500070E060E0CE0144960E94A41667960FB61B
:102E6000F894DEBF0FBECDBFDF91CF910895809162
:102E7000CE04883008F088508093CA066091D6044A
:102E80007091D704072E000C880B990B0E940A2F13
:102E90006093CB067093CC068093CD069093CE06BC
:102EA0008091D1040E94FB160C94E215EF92FF92E0
:102EB0000F931F93CF93DF93CDB7DEB7C154D109E2
:102EC0000FB6F894DEBF0FBECDBF84EBE82E87E0CF
:102ED000F82EF701848995891EAA1FAA18AE19AE8B
:102EE00098A78FA31AA619A611E018AB89E190E064
:102EF0009EA78DA719AA1FA720E040E050E0BA01C5
:102F0000CE0187960E94F50AF701848995891BA254
:102F10001CA21DA21EA29D8B8C8B1F8A1E8A1D8F38
:102F20008AE190E09B8F8A8F1E8E1C8FCE01449683
:102F30009FAF8EAF03E021960FAF219722961FAE71
:102F4000229746E050E060E070E08A960E94A41666
:102F5000F70184899589188A198A1A8A1B8A9A83A3
:102F600089831C821B821A878CE190E098878F836B
:102F70001B861987CE0101969BAF8AAF0CAF1DAEA1
:102F800044E050E060E070E0C9960E94A416CF5B78
:102F9000DF4F0FB6F894DEBF0FBECDBFDF91CF91EC
:102FA0001F910F91FF90EF900895EF92FF920F9372
:102FB0001F93CF93DF93CDB7DEB7ED970FB6F8949D
:102FC000DEBF0FBECDBF8091C8079091C9070097A3
:102FD00011F00E945F3164E670E080E090E00E94B2
:102FE000EB0586E090E00E94C3308C0188E6F80192
:102FF00080838BE897E092838183138280E290E064
:10300000958384831093C9070093C8070E94D7084B
:10301000FF24F394F801F382C8010E94B10BE82E5B
:10302000882309F49AC08091C8079091C9071EAA05
:103030001FAA18AE19AE98A78FA31AA619A6F8AAA8
:103040002BE630E03EA72DA719AAFFA61BA21CA2C3
:103050001DA21EA29D8B8C8B1F8A1E8AFD8E88E668
:1030600090E09B8F8A8F1E8EFC8ECE0187969BAF41
:103070008AAFFCAE87E08DAF41E050E060E070E0E9
:10308000CE01CA960E94A41601E010E08AAD9BAD65
:103090000E947316AB01BC018CAD980102C0220FD7
:1030A000331F8A95E2F7C9010197092E000CAA0B7C
:1030B000BB0B2DAD04C076956795579547952A951E
:1030C000D2F784239523A623B7230197A105B10541
:1030D00039F461E070E080E090E00E94EB05D6CF2B
:1030E00064E670E080E090E00E94EB0520E047E0BD
:1030F00050E060E070E0CE0144960E94F50A64E67C
:1031000070E080E090E00E94EB050E94561780E09E
:103110000E94FB168091C8079091C907188A198AE6
:103120001A8A1B8A9A8389831C821B8281E08A8780
:103130002BE630E038872F831B86898720E041E02B
:1031400050E060E070E0CE0101960E94F50A64E66E
:1031500070E080E090E00E94EB058E2DED960FB6BA
:10316000F894DEBF0FBECDBFDF91CF911F910F91BD
:10317000FF90EF9008958F929F92AF92BF92CF925F
:10318000DF92EF92FF921F93CF93DF93EC016A01DE
:103190007B0120E030E040E85FE3CB01B6010E9414
:1031A0005B2E87FDA3C020E030EC4AE555E4C70163
:1031B000B6010E94123018163CF4C12C30ECD32E0C
:1031C0003AE5E32E35E4F32E6B817C818D819E817F
:1031D0000E94082F4B015C0120E030E040E855E4FC
:1031E000C701B6010E9417309B01AC01C501B401B3
:1031F0000E94602E20E030E040E05FE30E94EF2D6F
:1032000020E030E040E85FE30E94EE2D6B017C019E
:1032100020E030E040E450E40E945B2E87FD6DC06A
:1032200020E030E04FE753E4C701B6010E941230BE
:10323000181634F4C12CD12C9FE7E92E93E4F92E13
:1032400089819A81288131E03093B1022093D302A1
:103250001092B2021092D402DC01ED91FC91019027
:10326000F081E02D60E0099581E00E94E70941E0EE
:1032700061E088810E940F091092B0028093AF0232
:1032800089819A81DC01ED91FC910284F385E02D26
:103290000995182F482F4F76406160E0CE010E94BB
:1032A000D60BC701B6010E94D92E462F6EEFCE0174
:1032B0000E94D60B412F60E0CE010E94D60B65E044
:1032C00070E080E090E00E94EB05412F406A60E0F2
:1032D000CE01DF91CF911F91FF90EF90DF90CF90C3
:1032E000BF90AF909F908F900C94D60BC12CD12C97
:1032F00020E8E22E2FE3F22E67CFC12CD12C80E400
:10330000E82EFE2C9DCFCF93DF93EC010E94D708CF
:1033100040E860E0CE010E94D60B6AE070E080E0F9
:1033200090E00E94EB0540E050E06AE774E4CE01D3
:103330000E94BB1880E498E7ADE7B1E08B839C83E3
:10334000AD83BE83DF91CF910895CF93DF93EB01DF
:103350000E94752D8883CE01DF91CF9108950F9340
:103360001F93CF938C010E94752DC82FC801019621
:103370000E94752D2C2F30E0322F2227820F932FA1
:10338000911DCF911F910F910895CF93DF93EB0182
:103390000E94752D8883CE01DF91CF91089585ED30
:1033A0008093BC0080911D0390911E03A0911F0388
:1033B000B09120030796A11DB11D23E0B695A795F6
:1033C000979587952A95D1F72091BC0024FD03C0DD
:1033D00010921B03089540911D0350911E036091AC
:1033E0001F0370912003452B462B472B69F3009751
:1033F000A105B10541F025E32A95F1F700000197F9
:10340000A109B109E1CF80911C030C94EE080C9442
:103410007D2D1F93CF93DF93EC01162F672F0E9412
:10342000071A612FCE010196DF91CF911F910C9465
:10343000071AEF92FF920F931F93CF93DF9384ECC1
:10344000E82E83E0F82E02E414E0D0E0C0E0F701BB
:1034500061917F01CE010E94071AF70166ADCE018E
:103460008C599F4F0E94071AF80161918F01CE017C
:1034700088539F4F0E94071AF80166ADCE01845D04
:103480009E4F0E94071A2196CF33D10501F7609114
:10349000C0047091C10481E991E00E94091A609111
:1034A000C2047091C30483E991E00E94091A6091FB
:1034B000C4047091C50485E991E00E94091A06ECE4
:1034C00014E0C7E9D1E0F80161918F01CE010E94BB
:1034D000071A2196CB39F1E0DF07A9F70AEC14E0CF
:1034E000C1EAD1E0F80161918F01CE010E94071A73
:1034F0002196C53AF1E0DF07A9F76091CE048AEA88
:1035000091E00E94071A6091D0048BEA91E00E943A
:10351000071A6091D10482EC91E00E94071A609131
:10352000D2047091D30484EC91E00E94091A609156
:10353000D80486EC91E00E94071A6091D40470913F
:10354000D50487EC91E00E94091A6091D60470912D
:10355000D70489EC91E00E94091A6091D9048BECA0
:1035600091E00E94071A6091DA048CEC91E00E94CD
:10357000071A6091DB048DEC91E00E94071A6091BC
:10358000DC048EEC91E00E94071A6091DD048FEC60
:1035900091E00E94071A6091040580ED91E00E947D
:1035A000071A6091050581ED91E00E94071A60916C
:1035B000060582ED91E00E94071A6091070583EDF0
:1035C00091E00E94071A01EE14E0C4EFD1E0F80187
:1035D00061918F01CE010E94071A2196C331F2E05A
:1035E000DF07A9F765E688EE93E0DF91CF911F91A1
:1035F0000F91FF90EF900C94071A1F920F920FB645
:103600000F9211248F939F938091E1009091E1009C
:10361000937F9093E10083FF0FC01092E90091E047
:103620009093EB001092EC0092E39093ED001092D7
:10363000AA0298E09093F00082FF22C093E090935A
:10364000E9009091F200992319F09AE39093E80031
:103650009091A502992341F09091A50291509093E9
:10366000A502911101C05D9A9091A902992341F0A0
:103670009091A90291509093A902911101C0289AAA
:1036800084FF18C08091E2008E7E81608093E2000A
:103690008091E1008F7E8093E1008091A8028E7E70
:1036A00080618093A8029F918F910F900FBE0F9021
:1036B0001F90189580FFF7CF8091E2008E7E806189
:1036C0008093E2008091E1008E7E8093E100809102
:1036D000A8028E7E8160E5CF1F920F920FB60F92E7
:1036E0001124CF92DF92EF92FF920F931F932F93AB
:1036F0003F934F935F936F937F938F939F93AF937A
:10370000BF93EF93FF93CF93DF93CDB7DEB76C9763
:10371000DEBFCDBF1092E9008091E80083FF25C095
:1037200068E0CE0145960E94B60382EF8093E800E0
:103730008D8987FF39C09091E80090FFFCCF982FCA
:10374000907609F034C19E894F89588D2F89F88C65
:10375000911131C0803861F58091A6028093F1000B
:103760001092F1008EEF8093E8006C960FB6F894FB
:10377000DEBF0FBECDBFDF91CF91FF91EF91BF9123
:10378000AF919F918F917F916F915F914F913F91F9
:103790002F911F910F91FF90EF90DF90CF900F909E
:1037A0000FBE0F901F9018959EEF9093E800C7CF23
:1037B0001092F100D5CF913059F48111D3CF41301F
:1037C000510581F68091A6028D7F8093A602CACF13
:1037D000933049F48111C6CF4130510519F68091DB
:1037E000A6028260F2CF953041F48091E80080FF1C
:1037F000FCCF20682093E300B5CF963009F0A9C034
:103800000B8D1C8D22E01092E9001092A302109201
:10381000A202F2122EC01092A1021092A0020E94E7
:1038200037041F8299E09983FA8291E09E8390EA9F
:1038300098879AEF99872091A2023091A302275F7F
:103840003F4F3C832B838D831092E9001092A3029B
:103850001092A2021093A1020093A00249E050E04E
:10386000BE016F5F7F4F80E00E947F030E9437049C
:1038700079CF1093A1020093A0020E942304DC01DF
:1038800012960D911C910115110509F44BC1D80137
:10389000ED91FC910480F581E02DBE016B5E7F4FC0
:1038A000C8010995009709F038C1F8010085118514
:1038B000EACFF3E0FF120EC08F89882309F440C0DD
:1038C000823061F440E860E182ED93E00E944C03B5
:1038D000811148CF81E28093EB0047CF813029F4FA
:1038E00040E867E08AEC93E0F1CF833099F70E94DB
:1038F0002304DC011296ED90FC908E010F5F1F4FA8
:103900006801E114F10479F0D701ED91FC91068092
:10391000F781E02DB801C7010995080F111DF701C6
:10392000E084F184EECFD8011C92F60101900020D2
:10393000E9F73197BF016C197D0940E0C601C6CF98
:1039400064EB73E0FB01449150E080E80E947F0348
:1039500009CF973009F4BECF983021F481E08093ED
:10396000F10000CF993009F0FDCE837009F0B2CF9D
:10397000E1E0F1E081E031E096E32191222371F072
:103980008093E9003093EB00DF0111972C91209395
:10399000EC009093ED008F5F873079F78EE780938E
:1039A000EA001092EA008F898093AA02DBCE8B8D09
:1039B0009C8D1092E9001092A3021092A2029093A3
:1039C000A1028093A002898D81118CC08E899D896E
:1039D000913A49F4813209F07DCF47E050E06BE045
:1039E00071E080E0B3CF913209F074CF833269F493
:1039F0008F89988DB0E0A0E0809307019093080133
:103A0000A0930901B0930A01ADCE803239F467E08A
:103A100070E08BE091E00E94C303A4CE823209F0F3
:103A2000A1CE8F8980931201EEEFFFE785919491EB
:103A30008B3F9C4D51F1E0E0F8E080910B019091BB
:103A40000C01A0910D01B0910E01803B9440A105A5
:103A5000B105F1F48091120180FD1AC0EE3F8AE0B9
:103A6000F80789F587E797E7918380838091600065
:103A70008093A40288E19BE00FB6F894A895809308
:103A800060000FBE909360006DCEEEEFFAE0D5CFF0
:103A9000808191818737974709F064CEA8958091FE
:103AA00060008861809360008091A4028093600030
:103AB000EE3F2AE0F20789F08091FE0A9091FF0A1A
:103AC000918380834FCE808191818737980751F20F
:103AD0009093FF0A8093FE0AC5CF1092FF0A1092BE
:103AE000FE0A40CE0E942304DC0112960D911C9127
:103AF0000115110509F4EECED801ED91FC9101906C
:103B0000F081E02DBE016B5E7F4FC80109958111E8
:103B100029CEF80100851185EBCF181619060CF493
:103B200021CED8CEF1E0FF12C4CE68EB73E00ACF0D
:103B30001F920F920FB60F9211242F933F938F93E2
:103B40009F93AF93BF9380918C0290918D02A0912F
:103B50008E02B0918F0230918B0223E0230F2D371C
:103B600058F50196A11DB11D20938B0280938C0204
:103B700090938D02A0938E02B0938F028091900259
:103B800090919102A0919202B09193020196A11D91
:103B9000B11D8093900290939102A0939202B093F2
:103BA0009302BF91AF919F918F913F912F910F9071
:103BB0000FBE0F901F90189526E8230F0296A11DA7
:103BC000B11DD2CF1F920F920FB60F9211242F93D7
:103BD0003F934F935F936F937F938F939F93AF9395
:103BE000BF93EF93FF938091B900887F803609F4EB
:103BF0004AC0F0F5883209F4A7C018F5803109F4FD
:103C00009BC0B8F4882309F4F9C0883009F494C043
:103C1000FF91EF91BF91AF919F918F917F916F91A4
:103C20005F914F913F912F910F900FBE0F901F907A
:103C30001895883109F488C0803251F78093F902D1
:103C400014C0803409F49DC040F48033B9F3883344
:103C5000F9F68093F90285ECB0C0803509F485C08F
:103C6000883509F496C0883499F60E94CF19D0CFD0
:103C7000883909F48CC038F5883729F050F4883633
:103C800011F0803729F683E080931B0310928A029B
:103C900057C0883809F47BC0803919F0803809F0A2
:103CA000B7CF80918A02803208F071C0E0918A0219
:103CB00081E08E0F80938A028091BB00F0E0E6598C
:103CC000FD4F80833DC0803B39F0E0F4803A09F439
:103CD00079C0883A09F09CCF84E080931B0310924E
:103CE000690210926802E091AD02F091AE0209956E
:103CF0008091680281110FC081E080936802109268
:103D0000480209C0803C09F4A6CF883C09F4A3CF3F
:103D1000883B09F07DCFE091690281E08E0F8093AE
:103D20006902F0E0E85BFD4F80818093BB009091D9
:103D300069028091680229C08091F6028093BB00DD
:103D400085EC8093BC0064CF9091F8028091F702DB
:103D5000981758F5E091F80281E08E0F8093F802F1
:103D6000F0E0EB52FD4F8081E9CFE091F80281E075
:103D70008E0F8093F8028091BB00F0E0EB52FD4F74
:103D800080839091F8028091F7029817C8F285E835
:103D9000D8CFE091F80281E08E0F8093F8028091F5
:103DA000BB00F0E0EB52FD4F80838091FA0281115D
:103DB0005CCF81E08093F50284EA8093BC0010928E
:103DC0001B0326CF85EC8093BC0010921B038091CF
:103DD0008A02803230F4E0918A02F0E0E659FD4F29
:103DE000108260918A0270E0E091AB02F091AC0227
:103DF0008AE692E0099510928A020ACF1092F9029F
:103E000034CFCF93DF93FC01DB01818114963C9189
:103E10001497682F630F7727771F683071059CF51B
:103E2000C281D381209739F5B383A2839081129602
:103E30009C93129713968C93139715968C911597C4
:103E4000890F808390E080E0831708F52181C22FDD
:103E5000D0E0BE0160507F4F16964D915C91179750
:103E6000480F591FEA014881EB0148832F5F2183E6
:103E70000196EACFEA014885598541155105D1F7E8
:103E8000B987A887D3CF80E0DF91CF91089581E0F3
:103E9000FBCFCF93DF93109224031092230388EE7D
:103EA00093E0A0E0B0E08093250390932603A093D5
:103EB0002703B093280327EB31E0309322032093AC
:103EC00021032FEF3FEF30932E0320932D03109209
:103ED0008E0710928D0780938F0790939007A09381
:103EE0009107B093920789EC91E090938C078093AF
:103EF0008B07C1E0C0937503C09376038CE893E011
:103F0000909378038093770310927A031092790349
:103F10008BED91E0909372038093710389EE91E0B1
:103F200090937C0380937B03C0938D03C0938E0397
:103F3000D1ECD0938C030E94230461E773E00E94CC
:103F4000011FC0939303C093940383EA93E090937B
:103F500096038093950310929803109297038FEE27
:103F600091E09093900380938F038DEF91E0909375
:103F70009A0380939903C093A403C093A503D0939D
:103F8000A3030E9423046FE873E00E94011FC09303
:103F9000AA03C093AB038CEB93E09093AD038093A3
:103FA000AC031092AF031092AE031092B3031092C1
:103FB000B20383E092E09093A7038093A60381E18C
:103FC00092E09093B1038093B003C093BD03C0937C
:103FD000BE031092BF031092C1031092C00310924F
:103FE000C3031092C203D093BC030E94230466EA69
:103FF00073E00E94011F10927A07109283071092BB
:1040000084071092850710928607109287071092F6
:1040100088071092890710928A0762E087E10E9460
:104020007F051092580710925907EAE5F7E080E201
:10403000DF011D928A95E9F761E084E00E947F0527
:1040400061E081E00E947F0560E080E00E947F05E2
:1040500061E081E00E947F051092CF068FE3E4EDDE
:10406000F6E0DF01982F1D929A95E9F7E3E1F7E07A
:10407000DF01982F1D929A95E9F71092520710923E
:10408000530795E0909354071092550710925607E6
:10409000C09357071092B7061092B8061092B9064F
:1040A0001092BA061092BB061092BC061092BD0682
:1040B0001092BE061092BF061092C5061092C4065A
:1040C0001092C7061092C6061092C9061092CA0630
:1040D0001092CB061092CC061092CD061092CE060E
:1040E000109260062BE232E0309362062093610664
:1040F0001092630698EC909364069AEF909365068D
:104100009BEF909366062CEF209367069DEF9093AC
:1041100068069FEF909369061092750610927406D8
:104120001092770610927606E8E7F6E0DF01982F06
:104130001D929A95E9F7109209059FE090930A0560
:10414000E6E2F1E0ABE0B5E001900D929A95E1F77F
:10415000EAE1F5E0DF011D928A95E9F7E9E5F5E08E
:10416000DF011D922A95E9F710925506E6E5F6E083
:104170008AE0DF011D928A95E9F7C9E0D5E0CE011A
:1041800089509540219620910A052817190631F08B
:104190002CF061E089810E947F05F1CF8FE3E5E398
:1041A000F1E0A4ECB3E001900D928A95E1F78FE382
:1041B000E3E0F4E0DF01982F1D929A95E9F7E4E738
:1041C000F1E0A2E4B4E0982F01900D929A95E1F706
:1041D000E1E8F4E0DF011D928A95E9F78AE493E0D3
:1041E0009093C1048093C0048DE390E09093C30446
:1041F0008093C2048BEC90E09093C5048093C40438
:104200001092C6041092C7041092C8041092C904F8
:104210001092CA041092CB041092CC041092CD04D8
:104220001092CE041092CF0481E08093D0041092BB
:10423000D1042EE130E03093D3042093D20420E265
:1042400033E03093D5042093D40428EE33E0309348
:10425000D7042093D6041092D8049AE09093D904FE
:104260009EE09093DA0497E19093DB0496E19093BB
:10427000DC0492E09093DD041092DE041092DF04DF
:104280008093E004E1EEF4E090E2DF011D929A9564
:10429000E9F790E5909301059093020510920305CC
:1042A0008093040510920505809306058093070509
:1042B0001092080580E48093A5078BE897E090931F
:1042C000A7078093A60721E420939E079093A00759
:1042D00080939F0722E420939707909399078093F8
:1042E00098071092AC071092AD071092AE0710928B
:1042F000AF071092B0071092B1071092B207109258
:10430000B3071092C7071092C6071092C907109200
:10431000C807DF91CF910895CF93DF931F92CDB758
:10432000DEB7789484B5826084BD84B5816084BD35
:1043300085B5826085BD85B5816085BD80916E0043
:10434000816080936E001092810080918100826074
:1043500080938100809181008160809381008091B1
:1043600080008160809380008091910082608093C2
:1043700091008091910081608093910080919000E4
:104380008160809390008091C10084608093C1001F
:104390008091C10082608093C1008091C1008160E2
:1043A0008093C1008091C30081608093C30080919D
:1043B000C00082608093C0008091C20081608093C1
:1043C000C20080917A00846080937A0080917A00A4
:1043D000826080937A0080917A00816080937A0075
:1043E00080917A00806880937A001092AA021092DD
:1043F000A6021092A8028091D70081608093D70016
:1044000080EA8093D80089B5806189BD89B58260D2
:1044100089BD89B5282F2170922E80FFFACF61E0E7
:1044200070E080E090E00E94EB058091D8008F7CE6
:1044300080618093D8008091E000807F8093E000CD
:104440008091E1008E7E8093E1008DE08093E20018
:10445000559A209A8FEF9FEF90932E0380932D0310
:1044600068EE73E080E090E00E94EB0568EE73E098
:1044700080E090E00E94EB05EDE7F3E08FE0DF01E4
:104480001D928A95E9F74FE050E0BF0181E793E084
:104490000E94042DBE016F5F7F4F88EE93E00E9463
:1044A000C5198981853609F043C210E000E0B801E2
:1044B0006C537C4FC8010E94C519B8016D5F7B4FDA
:1044C000C8018C599F4F0E94C519B8016E5B7B4F84
:1044D000C80188539F4F0E94C519B8016F577B4F81
:1044E000C801845D9E4F0E94C5190F5F1F4F0F3397
:1044F0001105E9F681E991E00E94AF199093C1049A
:104500008093C00483E991E00E94AF199093C304A3
:104510008093C20485E991E00E94AF199093C5048D
:104520008093C40466EC74E087E991E00E94C519A9
:104530006AEC74E081EA91E00E94C51967EC74E0CE
:1045400088E991E00E94C5196BEC74E082EA91E081
:104550000E94C51968EC74E089E991E00E94C519D0
:104560006CEC74E083EA91E00E94C51969EC74E098
:104570008AE991E00E94C5196DEC74E084EA91E04B
:104580000E94C5196EEC74E08AEA91E00E94C51998
:1045900060ED74E08BEA91E00E94C5198091D0042F
:1045A0008093CF0461ED74E082EC91E00E94C51924
:1045B00084EC91E00E94AF199093D3048093D204CD
:1045C00068ED74E086EC91E00E94C51987EC91E0FB
:1045D0000E94AF199093D5048093D40489EC91E0A4
:1045E0000E94AF199093D7048093D60469ED74E0CC
:1045F0008BEC91E00E94C5196AED74E08CEC91E0BF
:104600000E94C5196BED74E08DEC91E00E94C51914
:104610006CED74E08EEC91E00E94C5196DED74E0D4
:104620008FEC91E00E94C51964E075E080ED91E0A7
:104630000E94A51965E075E081ED91E00E94A51941
:1046400066E075E082ED91E00E94A51967E075E0F3
:1046500083ED91E00E94A51904EF11E0B8016351C8
:104660007D4FC8010E94C5190F5F1F4F0331B2E093
:104670001B07A1F785EA97E00E94831920ECC22E60
:104680002CEFD22E2BE9E22EFF24F394C092A80740
:10469000D092A907E092AA07F092AB0740E050E061
:1046A00064EB72E485EA97E00E94BB188EE997E01C
:1046B0000E948319C092A107D092A207E092A3079B
:1046C000F092A40740E050E064EB72E48EE997E0DA
:1046D0000E94BB1887E997E00E948319C0929A074D
:1046E000D0929B07E0929C07F0929D0740E050E03B
:1046F00064EB72E487E997E00E94BB188CE080933A
:10470000B8001092A70288EB9BE0A0E0B0E0809395
:104710001D0390931E03A0931F03B093200381E019
:1047200080931C0310E060E0812F0E94570D1F5FF3
:104730001E33C9F780EB93E00E94801180EB93E079
:104740000E94162DEBE9F3E088E0DF011D928A95C7
:10475000E9F748E050E0BF0189E993E00E94120FB9
:104760000E94C5029091520730915307E4ECF3E0A8
:10477000892D21912250223030F42FEF280F9111F2
:1047800001C0922F382F8F5F8F3399F730935307E3
:10479000909352078091D0048823E1F00E94D517AE
:1047A000811106C068EE73E080E090E00E94EB05A6
:1047B00010E00E94D5178111C0C064E670E080E06F
:1047C00090E00E94EB051B3009F0B5C01092D004B8
:1047D0001092CF0422242A949FE7392E8091B007AB
:1047E0009091B107A091B207B091B3078093AC0745
:1047F0009093AD07A093AE07B093AF0761E081E05F
:104800000E94510560E084E00E94510561E084E06F
:104810000E94510560E081E00E94510507E110E02F
:10482000412C512C3201B0E1CB2EB4E0DB2E81EFD4
:10483000A82E83E0B82EEFE7F4E08491F601E4902F
:10484000F501F490FF2009F480C081110E94050554
:10485000EF2DF0E0EE0FFF1FED51FC4FA591B4914D
:104860008C91E82231E020E009F430E0832F922F90
:10487000092E000CAA0BBB0B002E04C0880F991F39
:10488000AA1FBB1F0A94D2F7482A592A6A2A7B2AF0
:1048900061E081E00E94510560E081E00E945105E5
:1048A0000150110908F0C7CF4092B0075092B107EC
:1048B0006092B2077092B3078091AC079091AD07F8
:1048C000A091AE07B091AF0784159505A605B70571
:1048D00009F459C0E8E5EE2EE7E0FE2E10E000E016
:1048E000F2E0DF2E802F4091B0075091B107609128
:1048F000B2077091B307002E04C07695679557955F
:1049000047950A94D2F72A013B0140945094609451
:104910007094242D2170422ED70112969C91291754
:10492000E9F040FF15C0B2E0DB1213C0D12C11C07A
:104930000E94191A9FCE1F5F3CCF1B3009F44ACF4B
:104940000E9456170E94371745CF90E080E090CF25
:10495000D92C642D0E94D911F70142820F5F1F4F9D
:10496000FFEFEF1AFF0A0831110509F0BBCF21E074
:10497000D2126FC08091E004833011F0863019F4B8
:1049800084E08093E0048091A802382F3170832E58
:1049900080FD6BC575E0A72EB12C412C512C320146
:1049A00010E000E00E947C02409187075091880748
:1049B0006091890770918A076C01990FEE08FF08D2
:1049C000DB01CA010996A11DB11D8C159D05AE051F
:1049D000BF057CF04950510961097109C416D5061B
:1049E000E606F70634F00F5F1F4F4C0C5D1C6E1C83
:1049F0007F1C41E0A41AB108A9F60115110551F078
:104A00009801110F440B550BC301B2010E948B2D6D
:104A100069017A019091010580910205981720F0B3
:104A20008091060581112AC010E000E02091D90490
:104A300030E002171307B4F40E947C02092E000C28
:104A4000AA0BBB0BC80ED91EEA1EFB1E0F5F1F4F21
:104A5000EDCFD11098CF8091E004873009F093CF4B
:104A600082E08FCF2F5F3F4F032E000C440B550B7E
:104A7000C701B6010E948B2D69017A018091C4049F
:104A80009091C504AC014E5C5F4F052E000C660B87
:104A9000770BC416D506E606F70654F4C297092E1E
:104AA000000CAA0BBB0B8C159D05AE05BF0544F091
:104AB0005FEDC51653E0D506E104F1040CF4C6C061
:104AC0008091010590910205891718F48F5F8093FA
:104AD00001052091D8042D7F2130C9F480918107F0
:104AE0008111B7C08091C0049091C1044497092EF0
:104AF000000CAA0BBB0BC816D906EA06FB063CF055
:104B00002093810761E08091DB040E94D91180919C
:104B1000D8048230D0F0809182078111D8C0809172
:104B2000C2049091C3040A96092E000CAA0BBB0B79
:104B30008C159D05AE05BF0544F081E0809382078A
:104B400061E08091DB040E94D9110091C4041091AE
:104B5000C504C801012E000CAA0BBB0B8C159D05CA
:104B6000AE05BF050CF4D0C0A090C204B090C30441
:104B7000C5010B2C000CAA0BBB0BA7019601281B2F
:104B8000390B4A0B5B0BCA01B9010E940A2F2B019A
:104B90003C01B8016A197B09072E000C880B990BA0
:104BA0000E940A2F9B01AC01C301B2010E94602E3A
:104BB0009B01AC0160E070E080E89FE30E94EE2D75
:104BC00020E030E040E053EC0E9417300E94D22EEB
:104BD000062E000C770B653671050CF08EC07093B5
:104BE000800760937F078091830790918407A0914D
:104BF0008507B0918607C816D906EA06FB0609F4B0
:104C0000C3C03091010520910205321708F056C14A
:104C10008C199D09AE09BF0920917F07309180074B
:104C200084319105A105B1050CF49FC037FFA7C0E1
:104C300081E08093030520938903C0928307D0927B
:104C40008407E0928507F09286079EC010920105C6
:104C500040CF813009F05BCF8091C0049091C104B6
:104C60004497092E000CAA0BBB0BC816D906EA06FE
:104C7000FB060CF04CCF8091DB04A82FA150BB0B9E
:104C800041E050E060E070E004C0440F551F661F33
:104C9000771FAA95D2F74095509560957095009131
:104CA0007D0310917E0320917F0330918003402388
:104CB00051236223732340937D0350937E036093BB
:104CC0007F03709380031092810760E01ECF8130D4
:104CD00009F03BCF8091C2049091C3040A96092E3B
:104CE000000CAA0BBB0B8C159D05AE05BF050CF087
:104CF0002CCF1092820760E024CF81E89FEF909341
:104D0000800780937F076FCFA7019601281B390B7F
:104D10004A0B5B0BCA01B9010E940A2F2B013C010F
:104D20006091C0047091C104601B710B072E000CD0
:104D3000880B990B0E940A2F9B01AC01C301B201A1
:104D40000E94602E20E030E040E053E40E941730E3
:104D50000E94D22E062E000C770B6C393FEF7307A2
:104D60000CF03DCF8FE790E0CACF893D9F4FAF4F0A
:104D7000BF4F0CF05DCF2A3031050CF459CF809134
:104D80000505882309F454CF8091CF04882309F4C2
:104D900074C19091010580910205981721F08091CE
:104DA000040581116AC18091E004863009F0A7C032
:104DB0008091C906811105C00E94E21581E08093AF
:104DC000C9060E9413158091CE042091B806309137
:104DD000B9064091BA065091BB06883008F492C0DB
:104DE0006091BC077091BD078091BE079091BF078D
:104DF0000E94EE2D20E030E048EC52E40E94173093
:104E00000E94452F0E94D22E7093C1066093C00667
:104E10002091BC063091BD064091BE065091BF0660
:104E20006091B8077091B9078091BA079091BB075C
:104E30000E94EE2D20E030E048EC52E40E94173052
:104E40000E94452F0E94D22E7093C3066093C20623
:104E50002091D2043091D3044091C0065091C106F4
:104E600057FF03C05195419551094217530724F448
:104E70001092C1061092C006AB0177FF04C0442710
:104E80005527461B570B4217530724F41092C306AD
:104E90001092C2068091C0069091C1062091CA0668
:104EA0002130C9F52091C2063091C3063195219574
:104EB00031093093C1062093C00648C0321364CF35
:104EC00080910605882399F010928903C092830788
:104ED000D0928407E0928507F0928607C0928707F8
:104EE000D0928807E0928907F0928A074DCF80918F
:104EF0007F078093890381E080930305E7CF1092B9
:104F0000C9065FCF6091B4077091B5078091B6076D
:104F10009091B7076DCF223061F4919581959109F9
:104F20009093C1068093C0068091C2069091C306FB
:104F30000AC0233081F42091C2063091C306309319
:104F4000C1062093C0069195819591099093C3065F
:104F50008093C2060AC0243009F024C1919581953E
:104F600091099093C1068093C0068091C806509124
:104F7000C0064091C10681112AC12091D40430910C
:104F8000D504852F942F97FF03C0919581959109A2
:104F90002817390764F08091C2069091C30697FFE5
:104FA00003C09195819591092817390744F481E050
:104FB0008093C80661E08091DC040E94D9110091C1
:104FC000C0061091C1068091C4069091C506801755
:104FD000910721F1B801012E000C880B990B0E945A
:104FE0000A2F2091CB063091CC064091CD065091EE
:104FF000CE060E94602E20E03EEF4FEF56E40E9466
:1050000017300E94D22E7093820360938103109315
:10501000C5060093C40681E0809303050091C20693
:105020001091C3068091C6069091C706801791071C
:1050300021F1B801012E000C880B990B0E940A2F58
:105040002091CB063091CC064091CD065091CE06F2
:105050000E94602E20E03EEF4FEF56E40E94173092
:105060000E94D22E70938403609383031093C7062B
:105070000093C60681E0809303050E94CD062B01B4
:105080003C018091E004833009F423C108F0C2C0E0
:10509000813009F401C1823009F40AC1809103050D
:1050A000882351F04FE050E06DE773E081E793E033
:1050B0000E94042D109203050E94CD066B017C0115
:1050C00005E010E064E6B62E809155068E3308F0B8
:1050D00096C18F5F8093550680915506282F30E04A
:1050E000F901EC53FC4F67ADD901A75FBA4F519658
:1050F0009C91691730F5E354FF4F9081992309F192
:10510000220F331F220F331FF901E75AFA4F408055
:10511000518062807380A7019601241935094609E0
:10512000570929013A019B9D90011124032E000C7F
:10513000440B550B421653066406750614F00E9484
:10514000570D0150110909F0BFCF39E0C32ED12C02
:105150007724739447E0642E55245A9481E293E0B7
:105160000E94EB04892B09F460C181E293E00E9464
:10517000A9042091740630917506F901E05AF94F9F
:1051800082872115310509F03DC190916A06809111
:105190006306981341C12F5F3F4F309375062093EC
:1051A00074063EC1253041F42091C2063091C306F9
:1051B000319521953109C3CE263009F4B5CE27307B
:1051C00009F0D3CE2091C2063091C30672CE813051
:1051D00009F0F5CE2091D4043091D504852F942F79
:1051E00097FF03C0919581959109821793070CF061
:1051F000E6CE8091C2069091C30697FF03C09195B9
:1052000081959109821793070CF0D9CE1092C806A8
:1052100060E0D1CE853009F4CCC008F4ABC0863054
:1052200009F03CCF0E94FF020091550710E0C80131
:105230008153994F7C01DD24D394809156078017C8
:10524000110609F00CF48DC0F801EC53FC4F80817D
:1052500082508230D8F4F701EC5BFF4FD7011596EE
:105260008C91909154072081213009F0C2C02FEF1A
:1052700030E0291B3109821713060CF4B6C01082E6
:10528000D70115966C91802F0E94570D0F5F1F4F0D
:10529000BFEFEB1AFB0AD1CF4092D0065092D10655
:1052A0006092D2067092D30685E08093E004F6CE39
:1052B0000E94DF0D80915707882309F4EFCE4092BA
:1052C000D0065092D1066092D2067092D30683E047
:1052D000ECCF8091D0069091D106A091D206B091EA
:1052E000D306A3019201281B390B4A0B5B0BDA0191
:1052F000C90181329E44A105B1050CF4CFCE0E94B4
:10530000FF020091550710E08091560780171106A3
:1053100001F1FCF0F801EC53FC4F808182508230A7
:10532000A8F40E94652D60E071E00E949530F82E8F
:10533000682F802F0E94570DF801E153F94FDF01CC
:10534000AC5BBF4F8F2D81708C93F5820F5F1F4F29
:10535000DBCF80915707882309F4A0CE86E08093A5
:10536000E0044092D0065092D1066092D20670922C
:10537000D30694CE0E94FF020091550710E0809161
:1053800056078017110671F06CF0F801EC53FC4FD2
:105390008081823021F46FEF802F0E94570D0F5FC4
:1053A0001F4FEDCF80915707882309F477CE87E010
:1053B000D6CF8091D0069091D106A091D206B0911F
:1053C000D306481A590A6A0A7B0A41E1441647E2A1
:1053D0005406610471040CF461CE0E94DF0D8091CB
:1053E0005707882309F45ACE72CF890FF7018583B6
:1053F00047CF981710F0D08243CF891BF7CF109278
:1054000055066ACE21303105C1F590916B06809129
:105410006406981708F0BFCE1092750610927406B5
:10542000F1E0CF1AD10809F099CE809176069091DB
:10543000770618161906CCF462E370E080E090E07D
:105440000E94EB0580917606909177068530910554
:1054500009F444C20CF028C18230910509F405C258
:105460000CF0CDC0019709F4DFC180E090E0892BFA
:1054700009F4B4C90E940000B1C92830310509F00F
:105480008ACE80916B069091650689130AC01092AE
:10549000E00480916C0690E0909377068093760606
:1054A000BBCF9091660689130AC0809161069091E6
:1054B0006206009709F4B0CF0E94CD12ADCF909153
:1054C0006706891307C060916D0680916C060E9483
:1054D000570DA2CF90916806891341C080916C0648
:1054E0008E3171F198F48C31C9F08D3121F161E088
:1054F0000E94D91164EF71E080E090E00E94EB051A
:1055000060E080916C060E94D9110EC0803221F1BA
:10551000F0F0813261F75092890306C041E050E813
:10552000509382034093810364EF71E080E090E048
:105530000E94EB0571CF3092820320928103F4CF59
:1055400081E090E89093840380938303EDCF3092C1
:10555000840320928303E8CF70928903E5CF809182
:10556000E0048530B9F00091520710E080915307B4
:105570008017110679F074F0F801EC53FC4F80812C
:105580008250823020F460E0802F0E94570D0F5F20
:105590001F4FECCF7092E00480916B0690916406EF
:1055A000182F191B169D102D1124891B990B689E0D
:1055B0009001699E300D1124D901A05AB94F7D0187
:1055C00020E6A22E26E0B22E07E0010FF501648549
:1055D000D70158968C91861741F0812F0E94570D64
:1055E000F5018485D70158968C93BFEFEB1AFB0A1F
:1055F000EFEFAE1ABE0A1F5F0113E8CF0DCF833065
:10560000910509F457C1049709F02FCF8EE494E077
:105610000E947E048091CE042091B8063091B90694
:105620004091BA065091BB06883008F44EC1609193
:10563000BC077091BD078091BE079091BF070E9483
:10564000EE2D42E00E9454138CE494E00E947E040C
:105650002091BC063091BD064091BE065091BF0618
:105660006091B8077091B9078091BA079091BB0714
:105670000E94EE2D42E00E9454138AE494E00E94BE
:105680007E048091C0069091C1060E941E1388E49A
:1056900094E00E947E048091C2069091C3060E940D
:1056A0001E1385E494E0DEC08830910509F49FC1A3
:1056B0000CF0A2C0069709F0D8CE1092DE046FE37A
:1056C00084EC93E00E9421076FE383E094E00E9462
:1056D00021076FE382E494E00E9421076FE381E8F1
:1056E00094E00E9421070E9434079093C1048093A4
:1056F000C0040E9434079093C3048093C2040E94A4
:1057000034079093C5048093C40464E086EC94E06D
:105710000E94210764E08AEC94E00E9421070E9425
:10572000D9068093CE040E94D9068093D0040E94AB
:10573000D9068093D1040E9434079093D3048093B8
:10574000D2040E94D9068093D8040E943407909313
:10575000D5048093D4040E9434079093D704809397
:10576000D6040E94D9068093D9040E94D90680935A
:10577000DA040E94D9068093DB040E94D906809344
:10578000DC040E94D9068093DD0460E281EE94E09F
:105790000E9421070E94D90691E0811101C090E08A
:1057A000909304050E94D90691E0811101C090E018
:1057B000909305050E94D90691E0811101C090E007
:1057C000909306050E94D90691E0811101C090E0F6
:1057D000909307058091DE04882309F403C18EE5C8
:1057E00094E00E947E040E94C5020E943717109226
:1057F00077061092760639CE8B30910509F401C1F7
:105800008F3F910509F031CE1092770610927606FF
:1058100081E08093E00460E0882D0E94570D83941E
:10582000FEE38F12F8CF21CE84E394E00E947E0441
:105830000AE517E099E7E92E97E0F92ED8018D9156
:105840008D0190E00E941E1382E394E00E947E048A
:10585000E016F10699F78091710790E00E941E13FF
:105860008FE294E00E947E0400CE8CE394E00E94DC
:105870007E040AE115E088E5E82E85E0F82EF801BF
:1058800061918F0170E090E080E04AE00E94DA12BE
:105890008AE394E00E947E04E016F10681F76091AD
:1058A000580570E090E080E04AE00E94DA1287E359
:1058B00094E0D8CF82E494E00E947E040E947C02AF
:1058C0000E941E138FE394E0CDCF6091B4077091D6
:1058D000B5078091B6079091B707B1CE85E594E002
:1058E0000E947E046FE384EC93E00E943B146FE31C
:1058F00083E094E00E943B146FE382E494E00E9412
:105900003B146FE381E894E00E943B148091C00453
:105910009091C1040E944E138091C2049091C304DF
:105920000E944E138091C4049091C5040E944E13AE
:1059300064E086EC94E00E943B1464E08AEC94E01E
:105940000E943B148091CE040E9430148091D004B8
:105950000E9430148091D1040E9430148091D204AE
:105960009091D3040E944E138091D8040E94301469
:105970008091D4049091D5040E944E138091D60456
:105980009091D7040E944E138091D9040E94301444
:105990008091DA040E9430148091DB040E9430145C
:1059A0008091DC040E9430148091DD040E94301448
:1059B00060E281EE94E00E943B14809104050E9415
:1059C0003014809105050E943014809106050E94D4
:1059D0003014809107050E94301481E594E00E9404
:1059E0007E0405CF0E94191A88E594E0FACE8091D2
:1059F000610690916206009709F4F9CE0E94CD12DB
:105A0000F6CE84E694E0EBCFFC01838180640C94B5
:105A10001D060A970C94042DBC01625F7F4FFC01A8
:105A2000838148E050E080640C941D060A970C9432
:105A30000C2D8F929F92AF92BF92CF92DF92EF92F6
:105A4000FF92CF93DF93EC01688179818A819B81FA
:105A5000611571058105910521F464E279ED8BE50D
:105A600097E02DE133EF41E050E00E948B2D49019A
:105A70005A019B01AC01A7EAB1E40E94AA2D6B0177
:105A80007C01ACEEB4EFA50194010E94B82DDC01BD
:105A9000CB018C0D9D1DAE1DBF1DB7FF03C001972F
:105AA000A109B04888839983AA83BB839F77DF913C
:105AB000CF91FF90EF90DF90CF90BF90AF909F90ED
:105AC0008F9008950E94192D089583E191E00E941E
:105AD000192D0895B0E0A0E0809313019093140174
