:100000000C94FA000C9422010C9422010C9422010D
:100010000C9422010C9422010C9422010C942201D4
:100020000C9422010C9422010C948C1C0C94FB1C4B
:100030000C9422010C9422010C9422010C942201B4
:100040000C9422010C9422010C9422010C942201A4
:100050000C9422010C9422010C9422010C942D1F6B
:100060000C9422010C9422010C9422010C94220184
:100070000C9422010C9422010C9422010C94220174
:100080000C9422010C9422010C9422010C94220164
:100090000C94771F0C9422010C9422010C942201E1
:1000A0000C9422010C9422010C9422010000000007
:1000B000240027002A002D00300000000000250049
:1000C00028002B002E003100080B00020202000065
:1000D00009040000010202000005240010010524AB
:1000E000010101042402060524060001070581031D
:1000F00010004009040100020A0000000705020286
:1001000040000007058302400000040309041201B7
:100110000002EF0201408F0E06920001010203016E
:10012000556E6B6E6F776E00436C657620536F660D
:10013000742050696E4F6E65000000000023002699
:100140000029002C002F0004040404040304050209
:100150000202020403020202020606060606060462
:10016000040202020404040802011040804010202E
:10017000408040800802040180402010020110806D
:1001800010204040200000000200090F000003047E
:1001900001000C0000000000000000000000000052
:1001A000000000522C450D0A00522C530D0A004548
:1001B0000D0A00432C000D0A002C002C002C0041DD
:1001C0002C00502C000D0A002C004F2C000D0A00B2
:1001D0002C00422C00562C312E382E300D0A0007F0
:1001E0000605040100080A0B0C0D092C002C000068
:1001F0009620C73111241FBECFEFDAE0DEBFCDBF9E
:1002000012E0A0E0B1E0E2E7FEE602C005900D9248
:10021000A035B107D9F727E0A0E5B2E001C01D92F3
:10022000A23FB207E1F710E0C9EFD0E004C0219788
:10023000FE010E94D535C83FD107C9F70E9432247C
:100240000C942C370C94000008950895FC018091C3
:10025000CD02882311F13FB7F89482E08093E90042
:100260002091F200822F90E01816190614F481E014
:1002700090E0882339F0289844E64093CC024091DE
:10028000F1004083222339F02091F200211103C0B4
:100290002BE62093E8003FBF08958FEF9FEF08956E
:1002A000E4EEF1E0E49190917B008E2F880F880FAF
:1002B00080729F7D892B80937B00E770E064E093E0
:1002C0007C0080917A00806480937A0080917A002B
:1002D00086FDFCCF809178009091790008958091FF
:1002E000C7068823A9F08091C2068093C5061092A4
:1002F000C7068091C5068B5F8093C6069091C306A2
:10030000891728F09093C60681E08093C706089568
:100310008091C5068B5F8093C506EBCF4091C302E9
:100320005091C4022091C1023091C202421753077A
:10033000B4F49091E8009570E1F39091E80092FD9B
:1003400019C08093F1008091C3029091C40201967C
:100350008F739927892B19F48EEF8093E800809191
:10036000C3029091C40201969093C4028093C30289
:1003700081E0089580E00895EF92FF920F931F931C
:10038000CF93DF93F82E192FE62E042F81E0860FEE
:10039000880F0E948E0183E00E948E01CF2DD12F05
:1003A000EC0EFD2EF11CCE15DF05B9F007FF13C0D2
:1003B000FE0184910E948E01182F80E00E948E0120
:1003C000812321968111EFCFDF91CF911F910F9162
:1003D000FF90EF9008958881EDCF81E0F5CFDF9217
:1003E000EF92FF920F931F93CF93DF93D82E8A0142
:1003F000EB017B01E40EF51ECE15DF0559F0D7FEAB
:1004000012C0FE0184910E948E0121968111F4CFC9
:100410000FEF1FEFC801DF91CF911F910F91FF9058
:10042000EF90DF9008958881EECF2FB7F894877012
:100430008093E9009091E800892F807295FF04C0B5
:100440009091F20080E4891B2FBF0895615030F035
:100450002091F100FC0120830196F8CF289884E6D2
:100460008093CC0208958091B90281110DC082E081
:100470008093B50284E08093B6021092B802109285
:10048000B70281E08093B90285EB92E008950F9363
:100490001F93CF93DF931F92CDB7DEB782E089839E
:1004A00042E450E068EC70E080E80E94EF010E94B6
:1004B0003302DC0112960D911C910115110589F092
:1004C000D801ED91FC910280F381E02DBE016F5FB8
:1004D0007F4FC801099597FD04C0F801008511857B
:1004E000ECCF89810F90DF91CF911F910F910895EB
:1004F000CF93DF931F92CDB7DEB76983DC01ED9117
:10050000FC910280F381E02D41E050E0BE016F5F7D
:100510007F4F09950F90DF91CF9108950F931F930F
:10052000CF93DF938C01D0E0C0E0F801EC0FFD1F0A
:100530006491662341F084E493E00E947802892B61
:1005400011F02196F2CFCE01DF91CF911F910F9143
:10055000089583E08093E9008091F200882319F0E8
:100560008AE38093E800089583E00E94150290E0FA
:100570000895CF93DF931F92CDB7DEB7FC0184853A
:10058000958597FD08C02FEF3FEF358724870F90A3
:10059000DF91CF910895CE0101960E942601019727
:1005A00019F4898190E0F3CF8FEF9FEFF0CF0F9395
:1005B0001F93CF93DF931F92CDB7DEB78C01FC0161
:1005C0008485958597FF0BC0CE0101960E94260178
:1005D000019771F4898190E0F80195878487F8018B
:1005E000848595850F90DF91CF911F910F9108958C
:1005F0008FEF9FEFF1CFFC018485958597FD0BC0B0
:100600009FB7F89482E08093E9008091F2009FBF49
:1006100090E0019608959FB7F89482E08093E900F6
:100620008091F2009FBF90E0089581508F3008F0D4
:1006300047C0E82FF0E0E15EFC4F0C94D5353C0359
:1006400040032E0334033803600360036003430355
:1006500049034D035103570360035B0380918000FE
:100660008F77809380000895809180008F7DF9CFEF
:1006700080918000877FF5CF84B58F7784BD089502
:1006800084B58F7DFBCF809190008F778093900011
:100690000895809190008F7DF9CF80919000877FA1
:1006A000F5CF8091C0008F778093C000089580912E
:1006B000C0008F7DF9CF8091C200877F8093C200F8
:1006C00008951F93CF93DF93282F30E0F901EB5764
:1006D000FE4F8491F901EA59FE4FD491F901E95B8B
:1006E000FE4FC491CC23A9F0162F81110E9415034F
:1006F000EC2FF0E0EE0FFF1FE654FF4FA591B491F1
:100700008FB7F894EC91111108C0D095DE23DC93DB
:100710008FBFDF91CF911F910895DE2BF8CFCF933C
:10072000DF9390E0FC01EA59FE4F2491895B9E4FD4
:10073000FC0184918823C9F090E0880F991FFC0187
:10074000E455FF4FA591B491FC01E654FF4FC591CC
:10075000D49161110DC09FB7F8948C91209582239C
:100760008C938881282328839FBFDF91CF910895A0
:10077000623051F49FB7F8943C91822F8095832387
:100780008C93E8812E2BEFCF8FB7F894EC912E2B22
:100790002C938FBFEACF8230910538F0880F991FD4
:1007A000880F991F05970197F1F708953FB7F894BF
:1007B0008091B1029091B202A091B302B091B402C3
:1007C00026B5A89B05C02F3F19F00196A11DB11DAC
:1007D0003FBFBA2FA92F982F8827BC01CD01620FE8
:1007E000711D811D911D42E0660F771F881F991FA3
:1007F0004A95D1F708958F929F92AF92BF92CF9270
:10080000DF92EF92FF924B015C010E94D6036B01D5
:100810007C010E94D6036C197D098E099F09683EF0
:10082000734081059105A8F321E0821A9108A1087F
:10083000B10888EEC80E83E0D81EE11CF11C8114BB
:100840009104A104B10429F7FF90EF90DF90CF90BD
:10085000BF90AF909F908F9008957F928F929F92BC
:10086000AF92BF92CF92DF92EF92FF920F931F93BE
:10087000CF93DF93C82E8B017A018091CD02811135
:1008800010C08FEF9FEFDF91CF911F910F91FF90DD
:10089000EF90DF90CF90BF90AF909F908F907F9020
:1008A00008958091C70280FF05C08091E0008260BA
:1008B0008093E000CE2DDF2DD12C8AEFB82E8C2D29
:1008C0008770982E8C2D8072882E8C2D8074782EB7
:1008D0009AE3A92E209719F4DD2009F452C08C2D3B
:1008E0000E94150281110AC0BA94BB2051F261E046
:1008F00070E080E090E00E94FB03ECCF8C171D06B7
:1009000011F00CF08C2F9FB7F8949092E900209191
:10091000E80025FD02C09FBFDDCF282F30E0C21BBD
:10092000D30B882029F08150A0F01092F100FBCF6A
:10093000F801C7FC0AC0815050F041914093F1008A
:10094000FACF44914093F10031968150D0F7020FD5
:10095000131FDD2021F0A092E800D12CDCCF809184
:10096000E80085FD07C0A092E800DD24D39420971D
:1009700091F2F3CF209779F6772069F2A092E80000
:10098000CACF5D9884E68093C602C7017CCFCF931F
:10099000DF93EC0180911201882331F083E00E9403
:1009A0002D041816190634F081E090E09B838A83A9
:1009B00080E090E0DF91CF9108952FB7F894609197
:1009C000AD027091AE028091AF029091B0022FBF44
:1009D0000895FC0183858F3F19F061E00C94610359
:1009E0000895FC0180819181892B39F0A281B38126
:1009F0009C9111968C919CBD8DBD83858F3F19F084
:100A000060E00C9461030895AF92BF92CF92DF92A1
:100A1000EF92FF920F931F93CF93DF93EC018881A6
:100A20009981892B89F06EBD0DB407FEFDCFBEB450
:100A30008B2DDF91CF911F910F91FF90EF90DF9061
:100A4000CF90BF90AF9008958885998511E0892B4C
:100A500009F010E8AA24A394862F812309F0A12C81
:100A6000062F2C813D814E815F8160E271EA87E033
:100A700090E00E94E932F22EB02EE12CC22ED12C51
:100A8000FF2019F0C6010E94CB038A85877F09F0F9
:100A900042C08D858F3F89F0902F912381E009F42A
:100AA00080E08A1551F0EF85F8898F89992369F1E3
:100AB0009081892B8083AA24A394E989FA89808173
:100AC000998D892B8083FF2019F0C6010E94CB03EA
:100AD0008E858F3F39F0EB89FC898081988D892341
:100AE00009F0E12AE989FA899081898D8095892325
:100AF00080838E858F3F09F0BE2C88859985892B50
:100B0000B9F5110F1111BCCF93CF90818095892336
:100B10008083A12CD2CFE989FA898081998D892B94
:100B20008083FF2019F0C6010E94CB038D858F3F83
:100B300049F0EF85F8898F89902F9123A9F0908152
:100B4000892B8083E989FA899081898D8095892311
:100B500080838E858F3F69F2EB89FC898081988D37
:100B6000892339F2E12AC5CF908180958923E9CF85
:100B70001695C8CF8F929F92AF92BF92CF92DF927D
:100B8000EF92FF920F931F93CF93DF937C014B0162
:100B90006A01B22EA32E0E94F104E401C80CD91CF4
:100BA000CC15DD0569F4CB2DDA2D0C0F1D1FC017F8
:100BB000D10759F06FEFC7010E9404058993F7CF61
:100BC0006991C7010E940405EBCFC7010E94E904A7
:100BD00081E0DF91CF911F910F91FF90EF90DF9017
:100BE000CF90BF90AF909F908F9008958F929F92DB
:100BF000AF92BF92CF92DF92EF92FF920F931F932B
:100C0000CF93DF937C01B62EA72E6A0149010E9483
:100C1000F104E401080D191DC017D10761F4CB2DB3
:100C2000DA2DCC0EDD1ECC15DD0551F06991C70122
:100C30000E940405F8CF6991C7010E940405ECCF1A
:100C4000C7010E94E90481E0DF91CF911F910F91CC
:100C5000FF90EF90DF90CF90BF90AF909F908F90DC
:100C600008950895089520918902260F3327331F90
:100C700021323105ECF420911A03FC0190E080E070
:100C8000243069F082E00895A09189022191AC019D
:100C900047595D4FA40FB52FB11D2C9301968617B0
:100CA00098F380918902680F6093890280E008952B
:100CB00081E0089510921A0381E080931903109245
:100CC000F40261E082E00E94610361E083E00E943F
:100CD0006103E9EBF0E080818E7F808380818D7FEE
:100CE000808388E48093B80085E48093BC000895F5
:100CF0001092D3021092D202109221031092430359
:100D00000E945A0684E291E09093D1028093D0022F
:100D100085E291E09093CF028093CE020895CF9325
:100D2000DF9391E09093C9028823B9F0C091B80095
:100D3000D091BA008091BC008A7B8093BC0060E0B7
:100D400082E00E94610360E083E00E9461030E94F0
:100D50005A06D093BA00C093B800DF91CF9108959E
:100D60008F929F92AF92BF92CF92DF92EF92FF92BB
:100D70000F931F93CF93DF93D0914303D13208F0A9
:100D8000D7C0182FC09142030E94D6036B017C018B
:100D900080911A0381116BC082E080931A03109333
:100DA00019038FEF8093180310921703D093160343
:100DB000A2E2B3E0E6EFF2E080E0D81391C0109237
:100DC000F5028091F502CC0FC82BC093F5028091FB
:100DD000F402813009F088C01092F4020E94D60318
:100DE0006B017C018091F5028093BB0080911C0314
:100DF00090911D03A0911E03B0911F03892B8A2B94
:100E00008B2BA1F00E94D60300911C0310911D03AF
:100E100020911E0330911F036C197D098E099F09D3
:100E2000061717072807390708F442C08091BC004D
:100E300083FDD8CF85EC8093BC000E94D6036B0164
:100E40007C0180911A03823009F450C0809118030C
:100E50008F3F09F46FC080911803803209F46CC091
:100E600080911803803309F469C084E026C0809122
:100E70001C0390911D03A0911E03B0911F03892BA9
:100E80008A2B8B2B09F484CF0E94D60380901C03FD
:100E900090901D03A0901E03B0901F036C197D0954
:100EA0008E099F0986169706A806B90608F070CF26
:100EB00080911B030E948F0685E0109221031092FF
:100EC000430310922003DF91CF911F910F91FF9068
:100ED000EF90DF90CF90BF90AF909F908F9008954C
:100EE0009D9191938F5F69CF85EEA5CF80911C0373
:100EF00090911D03A0911E03B0911F03892B8A2B93
:100F00008B2B09F49ECF0E94D60300911C031091F5
:100F10001D0320911E0330911F036C197D098E095A
:100F20009F09061717072807390708F08ACFC0CF8F
:100F300081E0C3CF80E0C1CF82E0BFCF83E0BDCFEF
:100F40001F93CF93DF93EA01122FDC0111968D914D
:100F50009C91DC01ED91FC910280F381E02D0995DB
:100F6000C817D90729F4812F0E94B00691E081119A
:100F700090E0892FDF91CF911F910895AF92BF929A
:100F8000CF92DF92EF92FF920F931F93CF93DF9355
:100F900000D0CDB7DEB7DC01211103C018962C912B
:100FA0001897253008F043C01F964D935D936D93BD
:100FB0007C93529790E080E0E22EF12C8E159F05F5
:100FC000B4F41A962C911A9721110AC0FD01E80F6A
:100FD000F91F4387452F562F672F77270196EECFAE
:100FE000F701E81BF90BEA0FFB1F4287F3CF6D01F6
:100FF0008BE0C80ED11C16969C91169717968C9173
:10100000179799838A83AD90BC901197A114B1046E
:1010100009F441C019960C9110E098012E0D3F1D66
:10102000D50114968D919C918217930710F480E05E
:1010300016C0F50181819281208131E03093200337
:1010400020934203109221031092430301151105CE
:1010500099F421E0A701B601C5010E94A0070F90F5
:101060000F90DF91CF911F910F91FF90EF90DF9044
:10107000CF90BF90AF900895DC01ED91FC9102807C
:10108000F381E02DA801BE016F5F7F4F099508171E
:10109000190769F6DECF1296ED91FC911397309700
:1010A00031F214962D913C91159719960C9110E000
:1010B0002330310571F48E7F89839A830F5F1F4F30
:1010C0009E012F5F3F4FA701B601CF010E94F60599
:1010D000C6CF2115310519F49F779983F1CF2230BE
:1010E000310511F49068F9CF2130310549F79F7728
:1010F0009064F3CFCF93DF93EC018B818823A1F031
:10110000888191E090932003809342031092210301
:101110001092430381E00E94B00691E0811190E0BB
:10112000892FDF91CF9108950E94780681E08B830B
:10113000CE010E947A08982F8111E2CFF1CF8F92D1
:101140009F92AF92BF92CF92DF92EF92FF920F9356
:101150001F93CF93DF93D82FC62F142F613208F03F
:101160009CC00E94D6036B017C0180911A038111FF
:101170006FC081E080931A03109319039FEF90933F
:101180001803109217039C0F909316038093F50297
:101190008091F502DD0FD82BD093F5028091F402F7
:1011A000813009F07CC01092F4020E94D6036B01DA
:1011B0007C018091F5028093BB0080911C0390918B
:1011C0001D03A0911E03B0911F03892B8A2B8B2B2B
:1011D000A1F00E94D60300911C0310911D032091E1
:1011E0001E0330911F036C197D098E099F09061794
:1011F00017072807390708F44CC08091BC0083FD0D
:10120000D8CF85EC8093BC000E94D6036B017C0193
:1012100080911A03813009F444C0809117038C1720
:1012200010F4C0911703E6EFF2E0A4EDB2E080E025
:101230008C1359C08C2FDF91CF911F910F91FF908C
:10124000EF90DF90CF90BF90AF909F908F900895D8
:1012500080911C0390911D03A0911E03B0911F0368
:10126000892B8A2B8B2B09F480CF0E94D603809088
:101270001C0390901D03A0901E03B0901F036C19D7
:101280007D098E099F0986169706A806B90608F0FB
:101290006CCF80911B030E948F06C0E0CBCF85EE00
:1012A000B1CF80911C0390911D03A0911E03B091BA
:1012B0001F03892B8A2B8B2B09F4AACF0E94D603FC
:1012C00000911C0310911D0320911E0330911F03F8
:1012D0006C197D098E099F0906171707280739071A
:1012E00008F096CFD6CF91919D938F5FA1CF0895AF
:1012F000E091D3028091D202E81730F4F0E0EC5292
:10130000FD4F808190E008958FEF9FEF08959091B9
:10131000D3028091D2022FEF3FEF981748F4E92FC4
:10132000F0E0EC52FD4F208130E09F5F9093D302BC
:10133000C90108958091D2029091D302891B990B23
:101340000895CF92DF92EF92FF920F931F93CF9366
:10135000DF937C01CB018A0120912003222389F0B5
:10136000EB016B01C40ED51ECC15DD0569F069914A
:10137000D701ED91FC910190F081E02DC701099515
:10138000F3CF642F0E943306C801DF91CF911F91E4
:101390000F91FF90EF90DF90CF900895CF93DF9360
:1013A0001F92CDB7DEB76983209120032223F9F085
:1013B00020914303203258F021E030E0FC013383D8
:1013C000228390E080E00F90DF91CF91089580918B
:1013D0002103E82FF0E0EE5DFC4F998190838F5F51
:1013E000809321038093430381E090E0ECCF61E0A0
:1013F000CE0101960E943306F7CF90E080E0089579
:101400001F93CF93DF93EC01142F89819A81288158
:1014100031E0309320032093420310922103109275
:101420004303DC01ED91FC910190F081E02D0995E1
:1014300089819A81DC01ED91FC910190F081E02D90
:10144000612F099581E0DF91CF911F910C94B00637
:10145000DC01ED91FC910190F081E02D0994EF9277
:10146000FF920F931F93CF93DF93EC01E42E052F90
:10147000F22E132F89819A81288131E03093200345
:1014800020934203109221031092430324E0629FB1
:10149000B00111246A5F7F4FDC01ED91FC91019056
:1014A000F081E02D09956E2D702F89819A810E941F
:1014B000280A602F70E089819A810E94280A6F2D86
:1014C000712F89819A810E94280A612F70E0898199
:1014D0009A810E94280A81E0DF91CF911F910F919C
:1014E000FF90EF900C94B0069A01803130F4AB017C
:1014F000682F85EA97E00C942F0A90EF980F9031AF
:1015000028F4AB01692F8EE997E0F5CF8052803146
:1015100028F4AB01682F87E997E0EDCF0895DC014F
:10152000FB0112962C911297848195812817190638
:1015300041F491818081813A31F49D7F81E0913045
:1015400009F080E008958132E1F79B3029F482812F
:101550001F968C9381E008959A3099F78281509676
:101560008C93F8CFDC01FB0188E4808389E48183DC
:1015700084E482831D969C911D979F709F5B93834B
:101580001D968D919C9124E0969587952A95E1F77B
:101590008F708F5B848385E00895EF92FF920F93A5
:1015A0001F93CF93DF93FB012081213889F523819D
:1015B000223271F5DC0112964C912481358142175B
:1015C000130631F58C01FC01C385D485F12CE12C87
:1015D000209791F04C815D816A817B818E818111A0
:1015E00080E80E94EF018F3F980759F0E80EF91E3E
:1015F0000990D881C02DECCF81E0D8011F968C9343
:10160000C701DF91CF911F910F91FF90EF90089547
:1016100090E080E0F6CFCF93DF93CDB7DEB7699748
:101620000FB6F894DEBF0FBECDBFFC01DB018C917D
:101630008F5F8C939E012D5F3F4F8DE0D9011D92EE
:101640008A95E9F729E0298384E08A8391E09D83E4
:1016500083E08E832A8721E22B879C879D879F8743
:1016600022E2288B27E02B8B25E02C8B8E8B20E42D
:1016700030E0388F2F8B998F82818B83958586857B
:10168000998B8A8B838180688D8B49E150E0BE0104
:101690006F5F7F4F80E00E94EF0169960FB6F8946C
:1016A000DEBF0FBECDBFDF91CF910895CF93DF9303
:1016B00080916102811167C081E080935402809320
:1016C00055022AE532E030935702209356021092D9
:1016D0005902109258022EEA31E0309351022093C1
:1016E000500210925C0210925B0210925E02109205
:1016F0005D0280935F028093600281EC80935A02C6
:101700000E943302FC01818190915402482F490FBD
:101710005527551F483051059CF5A281B38110977C
:1017200009F520E532E033832283208120935202A1
:101730008093530280915502820F8083209156023C
:10174000A22FB09157028A2F821B8917C8F481817A
:101750003D91C82FD0E0C050DF4F38838F5F818329
:10176000F2CFD90118962D913C9119972115310589
:10177000C1F720E532E019963C932E931897D5CF08
:1017800081E08093610280E592E0DF91CF9108953E
:101790004F925F926F927F928F929F92AF92BF9281
:1017A000CF92DF92EF92FF920F931F93CF93DF932D
:1017B000CDB7DEB72C970FB6F894DEBF0FBECDBF06
:1017C000EA14FB040C051D050CF07FC0270138014D
:1017D000A982BA82CB82DC8290E080E0662309F4A1
:1017E0005DC02D833E834F8358872D813E814F817D
:1017F0005885241535054605570524F44D825E822B
:101800006F82788689819A81AB81BC8189879A872A
:10181000AB87BC872D813E814F81588528173907BA
:101820004A075B0724F429873A874B875C87AE1405
:10183000BF04C006D106B4F449815A816B817C8112
:1018400089859A85AB85BC85481B590B6A0B7B0B38
:10185000DB01CA01840D951DA61DB71D89879A87D6
:10186000AB87BC8729853A854B855C85241935096A
:1018700046095709AFEFBFEF0E94D63229813A815E
:101880004B815C8124193509460957090E94B732FA
:10189000D4012C9311963C9382E090E02C960FB6E5
:1018A000F894DEBF0FBECDBFDF91CF911F910F9196
:1018B000FF90EF90DF90CF90BF90AF909F908F9070
:1018C0007F906F905F904F90089525013601E982D7
:1018D000FA820B831C8380CF6F927F928F929F92AC
:1018E000AF92BF92CF92DF92EF92FF920F931F932E
:1018F000CF93DF938C01FC01C185D2856E01D39417
:10190000F60160817181072E000C880B990B0E94F3
:1019100036344B015C017E01FCEFEF0EF11CF70148
:1019200060817181072E000C880B990B0E94363460
:101930009B01AC01C501B4010E948C334B015C01D9
:10194000F80183829482A582B68261807280F6015A
:1019500000811181F70160817181601B710B072E7D
:10196000000C880B990B0E943634A50194010E944B
:1019700043356B017C01B801110F880B990B0E9454
:1019800036349B01AC01C701B6010E941B330E9493
:10199000FE33F301E85BFF4FC250DF4F28813981EE
:1019A0008901330F220B330B00831183228333838E
:1019B00034966083718382839383DF91CF911F91EB
:1019C0000F91FF90EF90DF90CF90BF90AF909F90DE
:1019D0008F907F906F900895AF92BF92CF92DF92D9
:1019E000EF92FF920F931F93CF93DF937C01162FFB
:1019F000C42FA62EB12C6C01CA0CDB1CF601438B44
:101A0000442379F00E94DD04F501EE0FFF1FEE0F75
:101A1000FF1FEE0DFF1DEE5AFF4F6083718382831F
:101A200093831F3008F0B8C0F601D481153008F058
:101A3000B0C00C2F10E061E08D2F0E948F030115C4
:101A4000110511F460E004C00F3F110571F461E06D
:101A50008D2FDF91CF911F910F91FF90EF90DF902D
:101A6000CF90BF90AF900C946103ED2FF0E0EB5757
:101A7000FE4FE491E150EF3008F086C0F0E0ED5BFE
:101A8000F24F0C94D535520D610D660D700D7A0D27
:101A9000C40DC40DC40D840D8E0D980DA20DAF0D97
:101AA000C40DB70D84B5806884BDC7BDDF91CF91EB
:101AB0001F910F91FF90EF90DF90CF90BF90AF906C
:101AC000089584B5806284BDC8BDF0CF8091800048
:101AD0008068809380001093890000938800E6CF8F
:101AE0008091800080628093800010938B0000932F
:101AF0008A00DCCF80918000886080938000109302
:101B00008D0000938C00D2CF8091900080688093EC
:101B100090001093990000939800C8CF8091900096
:101B200080628093900010939B0000939A00BECF38
:101B30008091900088608093900010939D000093A6
:101B40009C00B4CF8091C00080688093C0008091D9
:101B5000C0008F7B8093C000C093CF00A7CF80913F
:101B6000C00080628093C000C093D0009FCF80915E
:101B7000C20088608093C2008091C2008B7F8093F6
:101B8000C200C093D20092CF003811050CF05FCF95
:101B900059CFC7FF57CF5BCF1F3108F4C09581EFF6
:101BA000810F50E040E060E070E1CF3F61F040E045
:101BB00050E170E060E0CC2331F0F0E1CF9FA00174
:101BC000112461E070E0DF91CF911F910F91FF90A0
:101BD000EF90DF90CF90BF90AF900C94740A0F936A
:101BE0001F93CF93DF93EC0128813981062F10E0FA
:101BF000D901A00FB11FCD0182589F4FFC018081F8
:101C0000481708F4842F9C91D901A55EBE4F4C91D2
:101C1000442339F0913009F44EC09430C1F480E08F
:101C200002C09430A1F4F801EC0FFD1F93899923B1
:101C300071F0F90150E040E09191943071F5DE01CE
:101C4000A40FB51F53969C91911127C0642F260FA6
:101C5000311DF9019081943031F5811124C010E0DB
:101C600000E0E881F981E00FF11F8081843059F4B0
:101C7000FE01E00FF11F8389882329F040E0602FE7
:101C8000CE010E94EC0C0F5F1F4F0930110549F780
:101C9000DF91CF911F910F9108954F5F5F4F4930B2
:101CA000510551F6D4CF482FCE01DF91CF911F912E
:101CB0000F910C94EC0C80E0CACFCF93DF930E947D
:101CC0006F01C091C506D0E08091C6068C171D0635
:101CD000B9F0B4F0E0913B06F0913C06EC0FFD1F2B
:101CE00080814CE3823019F0833041F44FEF6C2F48
:101CF00080913D0690913E060E94EF0D2196E4CF23
:101D0000DF91CF9108958F929F92AF92BF92CF9221
:101D1000DF92EF92FF920F931F93CF938C01065E99
:101D20001E4FF801C081C1113BC00E94DD044B0170
:101D30005C010E94DD046B017C01C818D908EA0827
:101D4000FB08F8E8CF16F3E1DF06E104F10424F51F
:101D500084E493E00E94FB021816190694F484E4CC
:101D600093E00E94B902C82F8C2FCF911F910F9141
:101D7000FF90EF90DF90CF90BF90AF909F908F90AB
:101D800008950E94DD046B017C0162E370E080E055
:101D900090E00E94FB03D1CF81E0F8018083E4CF83
:101DA000C0E0E2CFEF92FF920F931F93CF93DF93A8
:101DB0007C01142F062FEB01C7010E94830E89932B
:101DC0008C2F801B8117C0F3DF91CF911F910F9152
:101DD000FF90EF9008950F931F93CF938C010E9473
:101DE000830EC82FC8010E94830E2C2F30E0322FA3
:101DF0002227820F932F911DCF911F910F9108954C
:101E00000C948B360C948B360C948B36FC01019021
:101E10000020E9F73197AF01481B590BBC0184E45E
:101E200093E00C94C7048F929F92AF92BF920F934E
:101E30001F93CF93DF93CDB7DEB7A1970FB6F8947A
:101E4000DEBF0FBECDBF19A2423008F44AE08E01BA
:101E50000F5D1F4F842E912CB12CA12CA501940154
:101E60000E94E932E62FB901CA01EA30F4F4E05DDC
:101E7000D801EE938D01232B242B252B79F790E0AD
:101E800080E0109719F0CD010E94060FA1960FB6C1
:101E9000F894DEBF0FBECDBFDF91CF911F910F91A0
:101EA000BF90AF909F908F900895E95CE1CFCF9263
:101EB000DF92EF92FF92CF93DF936C01990FEE08C0
:101EC000FF08F7FE19C06DE284E493E00E947802F7
:101ED000EC0166277727CB016C197D098E099F09D4
:101EE0004AE00E94130F8C0F9D1FDF91CF91FF904E
:101EF000EF90DF90CF9008954AE0C701B601DF91DF
:101F0000CF91FF90EF90DF90CF900C94130F0E9431
:101F1000570F8BEE91E00C948E024F925F926F926E
:101F20007F928F929F92AF92BF92CF92DF92EF9269
:101F3000FF920F931F93CF936B017C01742EAC0122
:101F40009B010E94B035882399F08AE092E0CF91FE
:101F50001F910F91FF90EF90DF90CF90BF90AF90C7
:101F60009F908F907F906F905F904F900C94060F92
:101F700046015701E894B7F82FEF3FEF4FE75FE7CF
:101F8000C501B4010E94B03581110DC02FEF3FEFA4
:101F90004FE75FE7C501B4010E94873318161CF4B0
:101FA0008EE092E0D4CF2FEF3FEF4FE75FE4C70121
:101FB000B6010E943E3518161CF482E192E0C7CFAC
:101FC0002FEF3FEF4FE75FECC701B6010E94873369
:101FD00087FDF3CF20E030E0A901C701B6010E94E0
:101FE000873310E000E087FF0AC06DE284E493E0ED
:101FF0000E9478028C01F7FAF094F7F8F094C0E0B0
:1020000060E070E080E09FE37C1641F020E030E08B
:1020100040E251E40E948C33CF5FF6CFA7019601D6
:102020000E941B332B013C010E9405344B015C01D3
:102030004AE00E94130F7C01E00EF11ECC23C1F197
:10204000C501B4010E9434349B01AC01C301B2014B
:102050000E941A334B015C016EE284E493E00E941B
:102060007802E80EF91EC15018F120E030E040E29D
:1020700051E4C501B4010E9443352B013C010E948B
:1020800005344B01B12CA12C4AE0C501B4010E94DA
:10209000130FE80EF91EC501B4010E9434349B01F0
:1020A000AC01C301B2010E941A334B015C01DBCFCA
:1020B000C701CF911F910F91FF90EF90DF90CF90CC
:1020C000BF90AF909F908F907F906F905F904F9058
:1020D0000895682F70E090E080E04AE00E94130FBE
:1020E0008DEE91E00C948E020F931F93CF93DF93AC
:1020F000142F062FEB0189910E9469108C2F801BF1
:102100008117C8F3DF91CF911F910F9108953F92EE
:102110004F925F926F927F928F929F92AF92BF92F7
:10212000CF92DF92EF92FF920F931F93CF93DF93A3
:1021300000D0CDB7DEB7FC014B01042F968187811B
:1021400099838A83C080D180C114D10409F479C0F5
:10215000418550E0D60114968D919C918417950786
:10216000B0F4312C832D0F900F90DF91CF911F9100
:102170000F91FF90EF90DF90CF90BF90AF909F9026
:102180008F907F906F905F904F903F900895F601F1
:10219000808191E090932003809342031092210369
:1021A0001092430320E0BE016F5F7F4FC6010E9483
:1021B000A007382E8823A9F210E0B12CA12CA0167C
:1021C000B10680F6D60114968D919C917801EA189B
:1021D000FB088E159F0508F47C0141E0C8018E19AB
:1021E0009F09A816B90608F440E06E2D613208F088
:1021F00060E2F60180810E949F081092D3028093D2
:10220000D2028E151F0409F0ACCF34016A0C7B1C7E
:102210002301C201861997098E159F0578F4D6010E
:1022200011968D919C91DC01ED91FC910284F385D6
:10223000E02D0995F20181932F01EBCFAE0CBF1C6D
:10224000BECFA281B381109709F48BCF2481358151
:1022500010E0418550E02330310571F481608983BD
:102260009A834F5F5F4F9401BE016F5F7F4FCD0137
:102270000E94BA05382E76CF2115310519F49068E1
:102280009983F1CF2230310511F49F77F9CF2130B6
:10229000310549F7906CF4CFCF93DF93EC01BC018B
:1022A000655F7F4F48850E948710882301F148852C
:1022B00050E030E020E060E070E0CB01241735070B
:1022C000CCF4982F872F762F6627EA85E1110AC074
:1022D000FA01E21BF30BEC0FFD1FE2856E2B2F5F63
:1022E0003F4FECCFFE01E20FF31FE385F7CF6FEF17
:1022F0007FEFCB01DF91CF9108958F929F92AF92A4
:10230000BF92CF92DF92EF92FF920F931F93CF93E2
:10231000DF93EC014A015B01888199810E944C1195
:102320002A8101E010E002C0000F111F2A95E2F798
:1023300001501109012E000C220B330BAB816801F7
:1023400079010A2E04C0CC0CDD1CEE1CFF1C0A9483
:10235000D2F7C094D094E094F094C622D722E82219
:10236000F922E881F981B901A801482159216A219E
:102370007B2104C0440F551F661F771FAA95D2F713
:102380004C295D296E297F292085CF01DF91CF91CE
:102390001F910F91FF90EF90DF90CF90BF90AF9083
:1023A0009F908F900C94BE070F931F93CF93DF9352
:1023B000CDB7DEB767970FB6F894DEBF0FBECDBFBF
:1023C000DC011B96ED91FC911C9711968D919C91CF
:1023D000DC01AE5EBE4F4D915C9111970027112735
:1023E000041B150B012E000C220B330B00AF11AF99
:1023F00022AF33AF052E000C660B770B44AF55AF01
:1024000066AF77AF4D915C91DF01A05CBF4F0027B5
:102410001127041B150B012E000C220B330B0D93FF
:102420001D932D933C931397EC5BFF4F052E000CEF
:10243000660B770B4083518362837383835F9E4F68
:10244000FC0140818091D2079091D307188A198AA4
:102450001A8A1B8A9A8389831C821B8281E08A875D
:102460002CE130E038872F831B868987CE010196C7
:102470009D8B8C8B82E08E8B83E08F8B50E070E0A5
:1024800060E0CE0144960E947D1167960FB6F894E5
:10249000DEBF0FBECDBFDF91CF911F910F91089589
:1024A0000F931F93CF93DF93EC01888199810E9452
:1024B0004C11AB01BC012A8181E090E002C0880F81
:1024C000991F2A95E2F70197092E000CAA0BBB0B66
:1024D0002B8104C076956795579547952A95D2F735
:1024E0008C019D010423152326233723C901B8013C
:1024F000DF91CF911F910F9108959F92AF92BF925C
:10250000CF92DF92EF92FF920F931F93CF93DF93BF
:10251000CDB7DEB7AA970FB6F894DEBF0FBECDBF1A
:102520008C01DC0197965C934E939697CA010196B5
:1025300099969C938E9398974E5F5F4F9B965C9372
:102540004E939A975E962D913C911BA21CA21DA2C0
:102550001EA23D8B2C8B1F8A1E8A81E08D8F4BE63D
:1025600050E05B8F4A8F1E8E8C8F188A198A1A8AC8
:102570001B8A3A8329831C821B828A8728E630E0E3
:1025800038872F831B8689875E01B4E1AB0EB11CAF
:10259000B8A6AFA289A787E08AA741E050E060E033
:1025A00070E0CE0187960E947D11CE0187960E9431
:1025B0005012613071058105910539F461E070E0D8
:1025C00080E090E00E94FB03F0CF64E670E080E0E2
:1025D00090E00E94FB0320E047E050E060E070E004
:1025E000FE0131966F01CF010E94BE0764E670E0E4
:1025F00080E090E00E94FB03D8015E968D919C9153
:10260000188A198A1A8A1B8A9A8389831C821B82D8
:10261000FF24F394FA8689E190E098878F831B86E4
:10262000F98620E040E050E0BA01C6010E94BE07F2
:10263000F801868D978D188A198A1A8A1B8A9A83BF
:1026400089831C821B82FA868AE190E098878F83B7
:102650001B86F986DD8ACC8A83E0E82EEE8A1F8A03
:1026600040E050E0BA01C5010E947D11D8015E969C
:102670008D919C91188A198A1A8A1B8A9A83898358
:102680001C821B82FA868BE190E098878F831B86E1
:10269000F986DD8ACC8A92E0992E9E8AEF8A41E003
:1026A00050E060E070E0C5010E947D11F801868D68
:1026B000978D188A198A1A8A1B8A9A8389831C82A1
:1026C0001B82FA868CE190E098878F831B86F986BF
:1026D000DD8ACC8A9E8AEF8A40E050E0BA01C501CB
:1026E0000E947D11D8015E968D919C91188A198A5D
:1026F0001A8A1B8A9A8389831C821B82FA868BE63C
:1027000090E098878F831B86F98620E041E050E0B7
:1027100060E070E0C6010E94BE0764E670E080E001
:1027200090E00E94FB03F80180A191A1009739F08D
:10273000DC01ED91FC910280F381E02D0995F80117
:1027400082A193A1009739F0DC01ED91FC91028008
:10275000F381E02D0995F80184A195A1009739F046
:10276000DC01ED91FC910280F381E02D099587E079
:1027700090E00E94EF35FC0186ED91E0918380832B
:1027800080E596E09483838316830583D801919630
:10279000FC93EE93909787E090E00E94EF35FC0168
:1027A00088EC91E09183808381E596E09483838334
:1027B00016830583D8019396FC93EE93929787E056
:1027C00090E00E94EF35FC018AEB91E091838083D9
:1027D00082E596E09483838316830583D8019596DA
:1027E000FC93EE93949781E0AA960FB6F894DEBF1F
:1027F0000FBECDBFDF91CF911F910F91FF90EF9052
:10280000DF90CF90BF90AF909F900895CF92DF92CE
:10281000FF920F931F93CF93DF93CDB7DEB76397EC
:102820000FB6F894DEBF0FBECDBF8091D207909156
:10283000D307009711F00E948B3686E090E00E944B
:10284000EF35FC0188E680838BE897E092838183F3
:10285000138280E290E095838483F093D307E09322
:10286000D20785E0F82E01E0C090D207D090D307C0
:102870000E947806F6010383C6010E947A08182F89
:10288000811118C06AE070E080E090E00E94FB03D4
:10289000FA94F110E9CF812F63960FB6F894DEBF5A
:1028A0000FBECDBFDF91CF911F910F91FF90DF90B1
:1028B000CF9008958091D2079091D307188A198AF2
:1028C0001A8A1B8A9A8389831C821B820A8785E75E
:1028D00090E098878F831B860987CE0101960E941E
:1028E0004C1110E06836710581059105A1F640E0B4
:1028F00050E0BA0184EB97E00E947D12182FCBCFF5
:10290000AF92BF92CF92DF92EF92FF920F931F93FD
:10291000CF93DF93CDB7DEB7E8970FB6F894DEBF5D
:102920000FBECDBF8C01FC01868D978D1BA21CA212
:102930001DA21EA29D8B8C8B1F8A1E8AFF24F394DE
:10294000FD8E8BE390E09B8F8A8F1E8E8EE08C8FA6
:102950004EE0BE01695D7F4FCE0144960E94871014
:102960008FA198A5982789279827F80195A784A76C
:1029700089A59AA598278927982797A786A78BA521
:102980009CA598278927982791AB80AB6DA57EA53C
:1029900076276727762773AB62AB8FA598A9982710
:1029A0008927982795AB84AB89A99AA99827892765
:1029B000982797AB86AB8BA99CA99827892798273E
:1029C00091AF80AF072E000C880B990B0E94363414
:1029D00020E030E04AEA53E40E948C3328EB3EE1E9
:1029E00042E152E40E941B33F801628373838483C3
:1029F0009583868D978D188A198A1A8A1B8A9A83DD
:102A000089831C821B82FA868CE190E098878F83F1
:102A10001B86F986CE0101965C019EAB8DAB82E0F0
:102A20008FAB83E088AFCE01C5960E945012C12CB7
:102A3000D12CE12CE5E4FE2E63307105E1F062302B
:102A4000710599F06130710509F4D6C0C12CD12C03
:102A5000F0E8EF2EFFE3FF2E672B69F4C12CD12C99
:102A600050E8E52E56E4F52E06C0C12CD12C70E8B6
:102A7000E72E75E4F72EF80164A575A5072E000C66
:102A8000880B990B0E943634A70196010E948C3363
:102A9000F801668377838087918766A577A5072EDF
:102AA000000C880B990B0E943634A70196010E94F6
:102AB0008C33F801628773878487958760A971A931
:102AC000072E000C880B990B0E943634A701960143
:102AD0000E948C33F80166877787808B918B868D77
:102AE000978D188A198A1A8A1B8A9A8389831C826D
:102AF0001B8281E08A872BE130E038872F831B8699
:102B00008987BEAAADAA82E08FAB83E088AFCE01F1
:102B1000C5960E945012C12CD12C33E0E32E33E431
:102B2000F32E6115710519F1C12CD12C23E8E22E89
:102B300022E4F22E61307105D1F093E3C92EDC2C32
:102B400093E0E92E92E4F92E6230710581F0C12CF8
:102B5000D12C40E8E42E4FE3F42E6330710539F4B4
:102B600083E3C82EDC2C83E8E82E81E4F82EF801FC
:102B700064A975A9072E000C880B990B0E943634A6
:102B8000A70196010E948C33F801628B738B848BB2
:102B9000958B66A977A9072E000C880B990B0E94CC
:102BA0003634A70196010E948C33F801668B778B2F
:102BB000808F918F60AD71AD072E000C880B990B43
:102BC0000E943634A70196010E948C33F801628F6F
:102BD000738F848F958FE8960FB6F894DEBF0FBE83
:102BE000CDBFDF91CF911F910F91FF90EF90DF90BC
:102BF000CF90BF90AF900895C12CD12CE12C66E40A
:102C0000F62E39CF8F929F92AF92BF92CF92DF92E2
:102C1000EF92FF921F93CF93DF93EC016A017B0148
:102C200020E030E040E85FE3CB01B6010E9487334B
:102C300087FDA3C020E030EC4AE555E4C701B601AA
:102C40000E943E3518163CF4C12C30ECD32E3AE5E8
:102C5000E32E35E4F32E6B817C818D819E810E9471
:102C600034344B015C0120E030E040E855E4C7011A
:102C7000B6010E9443359B01AC01C501B4010E941D
:102C80008C3320E030E040E05FE30E941B3320E023
:102C900030E040E85FE30E941A336B017C0120E0E2
:102CA00030E040E450E40E94873387FD6DC020E0AF
:102CB00030E04FE753E4C701B6010E943E351816D5
:102CC00034F4C12CD12C9FE7E92E93E4F92E8981AD
:102CD0009A81288131E0309320032093420310929F
:102CE000210310924303DC01ED91FC910190F081EE
:102CF000E02D60E0099581E00E94B00641E061E0CE
:102D000088810E949F081092D3028093D202898109
:102D10009A81DC01ED91FC910284F385E02D099507
:102D2000182F482F4F76406160E0CE010E94000AC4
:102D3000C701B6010E940534462F6EEFCE010E94F6
:102D4000000A412F60E0CE010E94000A65E070E0B9
:102D500080E090E00E94FB03412F406A60E0CE01DA
:102D6000DF91CF911F91FF90EF90DF90CF90BF90B8
:102D7000AF909F908F900C94000AC12CD12C20E82A
:102D8000E22E2FE3F22E67CFC12CD12C80E4E82E67
:102D9000FE2C9DCFCF93DF93EC010E94780640E894
:102DA00060E0CE010E94000A6AE070E080E090E0FE
:102DB0000E94FB0340E050E06AE774E4CE010E9409
:102DC000021680E498E7ADE7B1E08B839C83AD8386
:102DD000BE83DF91CF910895CF93DF93EB010E94E3
:102DE000A1328883CE01DF91CF9108950F931F9375
:102DF000CF938C010E94A132C82FC80101960E9476
:102E0000A1322C2F30E0322F2227820F932F911DD9
:102E1000CF911F910F9108950F931F93CF93DF933D
:102E20008C01EB01DC0115968D919C910E94801420
:102E3000F801058116810E94DD04AB01BC01FE0191
:102E4000349680E2DF011D928A95E9F784E290E0F2
:102E5000A0E0B0E088839983AA83BB83F80182A5B0
:102E600093A5B0E0A0E08C839D83AE83BF838DE00B
:102E700090E0A0E0B0E088879987AA87BB87488B5D
:102E8000598B6A8B7B8B82819381A481B5818C8BDA
:102E90009D8BAE8BBF8B81E0DF91CF911F910F9106
:102EA00008958F929F92AF92BF92CF92DF92EF924E
:102EB000FF920F931F93CF93DF938C01EB01DC0103
:102EC00015968D919C910E948014F80105811681C0
:102ED0000E94DD04FE01349620E2DF011D922A9556
:102EE000E9F7C12CD12C7601C394C882D982EA8239
:102EF000FB82F80126A137A14901B12CA12C8C82BB
:102F00009D82AE82BF82C886D986EA86FB86688BA0
:102F1000798B8A8B9B8B2AE038EE4CE151E46681F9
:102F20007781808591850E9443356C8B7D8B8E8B5C
:102F30009F8B2AE038EE4CE151E4D8011A966D914E
:102F40007D918D919C911D970E944335688F798F5B
:102F50008A8F9B8F2AE038EE4CE151E4F8016685B8
:102F60007785808991890E9443356C8F7D8F8E8F04
:102F70009F8F81E0DF91CF911F910F91FF90EF9094
:102F8000DF90CF90BF90AF909F908F9008950F9358
:102F90001F93CF93DF938C01EB01DC0115968D918C
:102FA0009C910E948014F801058116810E94DD0425
:102FB000AB01BC01FE01349680E2DF011D928A95CF
:102FC000E9F781E090E0A0E0B0E088839983AA83EC
:102FD000BB83F80180A591A5B0E0A0E08C839D8320
:102FE000AE83BF8384E090E0A0E0B0E0888799875B
:102FF000AA87BB87488B598B6A8B7B8B25E33AEF7B
:103000004EE85CE362897389848995890E9443351F
:103010006C8B7D8B8E8B9F8B25E33AEF4EE85CE3C8
:10302000D80156966D917D918D919C9159970E94F2
:103030004335688F798F8A8F9B8F25E33AEF4EE86F
:103040005CE3F801628D738D848D958D0E9443350C
:103050006C8F7D8F8E8F9F8F81E0DF91CF911F913D
:103060000F9108950F931F93CF93DF938C01EB0182
:1030700088E2FB0111928A95E9F74BE050E066E1A6
:1030800072E0CE010E941D371B8681E090E0A0E037
:10309000B0E08C879D87AE87BF87F80183819481DC
:1030A000092E000CAA0BBB0B888B998BAA8BBB8BB0
:1030B0008DE090E0A0E0B0E08C8B9D8BAE8BBF8B61
:1030C0001CA21DA21EA21FA280E090E0A0E2B2EC12
:1030D0008C8F9D8FAE8FBF8F80E090E0A2EDB2E429
:1030E000888F998FAA8FBB8F84E09DEAA0E4BBE311
:1030F00088A399A3AAA3BBA3DF91CF911F910F919E
:1031000008950F931F93CF93DF938C01EB0188E217
:10311000FB0111928A95E9F74BE050E060E272E022
:10312000CE010E941D371B8641E050E060E070E058
:103130004C875D876E877F87F80183819481092E94
:10314000000CAA0BBB0B888B998BAA8BBB8B4C8B6F
:103150005D8B6E8B7F8B1CA21DA21EA21FA28AE01C
:1031600098EEACE1B3EC8C8F9D8FAE8FBF8F8AE071
:1031700098EEACE1B3E4888F998FAA8FBB8F83E27E
:103180009BEDA9E7BDE388A399A3AAA3BBA3DF9105
:10319000CF911F910F9108950F931F93CF93DF93BA
:1031A0008C01EB0188E2FB0111928A95E9F74BE073
:1031B00050E06AE272E0CE010E941D371B8681E07A
:1031C00090E0A0E0B0E08C879D87AE87BF87F801D4
:1031D00083819481092E000CAA0BBB0B888B998BE1
:1031E000AA8BBB8B84E090E0A0E0B0E08C8B9D8B41
:1031F000AE8BBF8B1CA21DA21EA21FA287ED93EA5D
:10320000ABE0B2EC8C8F9D8FAE8FBF8F87ED93EAD2
:10321000ABE0B2E4888F998FAA8FBB8F8AE99BEAD3
:10322000ABE0B9E388A399A3AAA3BBA3DF91CF9195
:103230001F910F91089585ED8093BC0080911C0330
:1032400090911D03A0911E03B0911F030796A11D2D
:10325000B11D23E0B695A795979587952A95D1F747
:103260002091BC0024FD03C010921A0308954091E0
:103270001C0350911D0360911E0370911F03452B89
:10328000462B472B69F30097A105B10541F025E3D3
:103290002A95F1F700000197A109B109E1CF8091CA
:1032A0001B030C948F062F923F924F925F926F9266
:1032B0007F928F929F92AF92BF92CF92DF92EF92C6
:1032C000FF920F931F93CF93DF9300D000D0CDB721
:1032D000DEB73C012DB73EB73C832B838F569F4F03
:1032E0009A838983FC018081281B31090FB6F894E9
:1032F0003EBF0FBE2DBF8DB79EB701962C01F301C7
:1033000024A8312CDC0190E080E0F30182159305C4
:103310004CF420A931A9F901E80FF91F20812D9360
:103320000196F3CF85A9882341F184A595A528E0CE
:1033300097FD09C068E671E00E94C1356DE270E05A
:103340000E94C135262FF30186A597A568E097FD59
:1033500008C068E671E00E94C1356DE270E00E942D
:10336000C135F201E20DF31D30E1639FB00111247C
:10337000262B2083C10101961C014201820C931C63
:10338000F301A4ACB5ACC6ACD7ACE0ACF1AC02ADCB
:1033900013AD208131814281538166A96170C301DF
:1033A0000E94C80B280E391E4201820C931CF301A7
:1033B000EC5BFF4FA080B180C280D3803497E08067
:1033C000F18002811381F301248135814681578187
:1033D00066A966956170C3010E94C80B280E391E4C
:1033E0004201820C931CF301E45BFF4FA080B1808B
:1033F000C280D3803497E080F18002811381F30191
:10340000208531854285538566A962FB662760F970
:10341000C3010E94C80B280E391E4201820C931C66
:10342000F301EC5AFF4FA080B180C280D380349763
:10343000E080F18002811381F30124853585468582
:10344000578566A963FB662760F9C3010E94C80B14
:10345000280E391E4201820C931CF301E45AFF4FDF
:10346000A080B180C280D3803497E080F180028157
:103470001381F301208931894289538966A96295B4
:103480006170C3010E94C80B280E391E4201820CD4
:10349000931CF301EC59FF4FA080B180C280D38010
:1034A0003497E080F18002811381F301248935890A
:1034B0004689578966A965FB662760F9C3010E94A2
:1034C000C80B280E391E4201820C931CF301E459EB
:1034D000FF4FA080B180C280D3803497E080F1801C
:1034E00002811381F301248D358D468D578D67A997
:1034F0006170C3010E94C80B280E391E4201820C64
:10350000931CF301EC58FF4FA080B180C280D380A0
:103510003497E080F18002811381F301208D318D99
:10352000428D538D67A966956170C3010E94C80BD7
:10353000280E391E4201820C931CF301E458FF4F00
:10354000A080B180C280D3803497E080F180028176
:103550001381F30120A131A142A153A167A962FB0C
:10356000662760F9C3010E94C80B280E391E42016C
:10357000820C931CF301EC57FF4FA080B180C280F6
:10358000D3803497E080F18002811381F30124A17C
:1035900035A146A157A167A963FB662760F9C3015E
:1035A0000E94C80B280E391E4201820C931CF301A5
:1035B000E457FF4FA080B180C280D3803497E08071
:1035C000F18002811381F30120A531A542A553A505
:1035D00067A962956170C3010E94C80B0E94560BD7
:1035E0004C01E981FA814081F301E057FF4F80816E
:1035F00050E03A01FFEF6F1A7F0A2DB73EB7261948
:1036000037090FB6F8943EBF0FBE2DBF0DB71EB7DA
:103610000F5F1F4FEDB7FEB78183B201C80101965E
:103620000E941437F4018381A301B80180640E94D1
:103630002D042B813C810FB6F8943EBF0FBE2DBFE9
:103640000F900F900F900F90DF91CF911F910F91DE
:10365000FF90EF90DF90CF90BF90AF909F908F90B2
:103660007F906F905F904F903F902F900895FC0156
:1036700083A9681700F5A62FA695A695A69580A9FB
:1036800091A9A80FB92FB11D962F977041E050E076
:1036900060E070E004C0440F551F661F771F9A95C5
:1036A000D2F740958C9148234C9382A9882319F036
:1036B000CF010C9453190895CF92DF92EF92FF92AD
:1036C0000F931F93DC01D3962C91D397621740F58B
:1036D000E62FE695E695E695D0962D913C91D1970B
:1036E000E20FF32FF11D677001E010E020E030E001
:1036F0006801790104C0CC0CDD1CEE1CFF1C6A952E
:10370000D2F720812C292083D2962C91222341F0BC
:103710001F910F91FF90EF90DF90CF900C94531971
:103720001F910F91FF90EF90DF90CF9008950C9430
:10373000A9321F93CF93DF93EC01162F672F0E94BE
:10374000971B612FCE010196DF91CF911F910C94B1
:10375000971BCF92DF92EF92FF920F931F93CF931D
:10376000DF93EC016C017C018EE7E80EF11C10E0A8
:1037700000E0F60161916F01C8010E94971BF601FC
:1037800066ADC8018C599F4F0E94971BF70161914C
:103790007F01C80188539F4F0E94971BF70166ADB8
:1037A000C801845D9E4F0E94971B0F5F1F4F0F3310
:1037B0001105F9F6FE01E450FF4F6081718181E946
:1037C00091E00E94991BFE01E250FF4F60817181E0
:1037D00083E991E00E94991BFE01F395608171815C
:1037E00085E991E00E94991B7E01FEEFEF1AFF0A26
:1037F00007E911E0F70161917F01C8010E94971B61
:103800000F5F1F4F0B39F1E01F07A1F77E018AEF11
:10381000E81A8EEFF80A01EA11E0F70161917F01E1
:10382000C8010E94971B0F5F1F4F053AF1E01F0769
:10383000A1F7FE01E65FFE4F60818AEA91E00E94F7
:10384000971BFE01E45FFE4F60818BEA91E00E94CE
:10385000971BFE01E35FFE4F608182EC91E00E94C6
:10386000971BFE01E25FFE4F6081718184EC91E065
:103870000E94991BFE01EC5EFE4F608186EC91E098
:103880000E94971BFE01E05FFE4F6081718187EC13
:1038900091E00E94991BFE01EE5EFE4F60817181F6
:1038A00089EC91E00E94991BFE01EB5EFE4F608166
:1038B0008BEC91E00E94971BFE01EA5EFE4F608157
:1038C0008CEC91E00E94971BFE01E95EFE4F608147
:1038D0008DEC91E00E94971BFE01E85EFE4F608137
:1038E0008EEC91E00E94971BC75EDE4F68818FECE3
:1038F00091E00E94971B65E688EE93E00E94971B7B
:1039000089EA91E0DF91CF911F910F91FF90EF90A5
:10391000DF90CF900C948E021F920F920FB60F92F1
:1039200011248F939F938091E1009091E100937F08
:103930009093E10083FF0FC01092E90091E0909313
:10394000EB001092EC0092E39093ED001092CD0208
:1039500098E09093F00082FF22C093E09093E900FA
:103960009091F200992319F09AE39093E8009091D6
:10397000C602992341F09091C60291509093C602DD
:10398000911101C05D9A9091CC02992341F09091E0
:10399000CC0291509093CC02911101C0289A84FFDF
:1039A00018C08091E2008E7E81608093E200809159
:1039B000E1008F7E8093E1008091C7028E7E80615E
:1039C0008093C7029F918F910F900FBE0F901F9011
:1039D000189580FFF7CF8091E2008E7E8061809302
:1039E000E2008091E1008E7E8093E1008091C70229
:1039F0008E7E8160E5CF1F920F920FB60F92112439
:103A0000CF92DF92EF92FF920F931F932F933F93EA
:103A10004F935F936F937F938F939F93AF93BF93D6
:103A2000EF93FF93CF93DF93CDB7DEB76C97DEBFF5
:103A3000CDBF1092E9008091E80083FF25C068E0C7
:103A4000CE0145960E94260282EF8093E8008D8980
:103A500087FF39C09091E80090FFFCCF982F9076B7
:103A600009F034C19E894F89588D2F89F88C9111A6
:103A700031C0803861F58091C8028093F1001092C6
:103A8000F1008EEF8093E8006C960FB6F894DEBFDD
:103A90000FBECDBFDF91CF91FF91EF91BF91AF915D
:103AA0009F918F917F916F915F914F913F912F9156
:103AB0001F910F91FF90EF90DF90CF900F900FBE6E
:103AC0000F901F9018959EEF9093E800C7CF10922B
:103AD000F100D5CF913059F48111D3CF4130510548
:103AE00081F68091C8028D7F8093C802CACF93303F
:103AF00049F48111C6CF4130510519F68091C802B1
:103B00008260F2CF953041F48091E80080FFFCCFD5
:103B100020682093E300B5CF963009F0A9C00B8D43
:103B20001C8D22E01092E9001092C4021092C30290
:103B3000F2122EC01092C2021092C1020E944702DD
:103B40001F8299E09983FA8291E09E8390EA988798
:103B50009AEF99872091C3023091C402275F3F4FAB
:103B60003C832B838D831092E9001092C402109243
:103B7000C3021093C2020093C10249E050E0BE01AB
:103B80006F5F7F4F80E00E94EF010E94470279CF74
:103B90001093C2020093C1020E943302DC0112960C
:103BA0000D911C910115110509F451C1D801ED9138
:103BB000FC910480F581E02DBE016B5E7F4FC80152
:103BC0000995009709F03EC1F80100851185EACFFB
:103BD000F3E0FF120EC08F89882309F440C08230C1
:103BE00061F440E860E188E291E00E94BC0181114B
:103BF00048CF81E28093EB0047CF813029F440E841
:103C000067E080E291E0F1CF833099F70E943302C0
:103C1000DC011296ED90FC908E010F5F1F4F680142
:103C2000E114F10479F0D701ED91FC910680F78160
:103C3000E02DB801C7010995080F111DF701E084B7
:103C4000F184EECFD8011C92F60101900020E9F733
:103C50003197BF016C197D0940E0C601C6CF6AE00B
:103C600071E0FB01449150E080E80E94EF0109CF30
:103C7000973009F4BECF983021F481E08093F100B1
:103C800000CF993009F0FDCE837009F0B2CFE1E0AA
:103C9000F1E081E031E096E32191222371F08093FD
:103CA000E9003093EB00DF0111972C912093EC0099
:103CB0009093ED008F5F873079F78EE78093EA006D
:103CC0001092EA008F898093CD02DBCE8B8D9C8D84
:103CD0001092E9001092C4021092C3029093C202A3
:103CE0008093C102898D811192C08E899D89913AFC
:103CF00049F4813209F07DCF47E050E06BE071E09C
:103D000080E0B3CF913209F074CF833269F48F89A8
:103D1000988DB0E0A0E08093070190930801A093F4
:103D20000901B0930A01ADCE803269F48091E800B8
:103D300082FFFCCF67E08BE091E00E9426028BEFD0
:103D40008093E8009ECE823209F09BCE8F898093CB
:103D50001201EEEFFFE7859194918B3F9C4D51F15D
:103D6000E0E0F8E080910B0190910C01A0910D0131
:103D7000B0910E01803B9440A105B105F1F4809112
:103D8000120180FD1AC0EE3F8AE0F80789F587E747
:103D900097E791838083809160008093C50288E1DA
:103DA0009BE00FB6F894A895809360000FBE9093A7
:103DB000600067CEEEEFFAE0D5CF80819181873742
:103DC000974709F05ECEA895809160008861809346
:103DD00060008091C50280936000EE3F2AE0F20708
:103DE00089F08091FE0A9091FF0A9183808349CEE9
:103DF000808191818737980751F29093FF0A8093D1
:103E0000FE0AC5CF1092FF0A1092FE0A3ACE0E9417
:103E10003302DC0112960D911C910115110509F474
:103E2000E8CED801ED91FC910190F081E02DBE012A
:103E30006B5E7F4FC8010995811123CEF801008583
:103E40001185EBCF181619060CF41BCED2CEF1E07B
:103E5000FF12BECE6EE071E004CF1F920F920FB63C
:103E60000F9211242F933F938F939F93AF93BF9300
:103E70008091AD029091AE02A091AF02B091B002DC
:103E80003091AC0223E0230F2D3758F50196A11D88
:103E9000B11D2093AC028093AD029093AE02A0932B
:103EA000AF02B093B0028091B1029091B202A091A2
:103EB000B302B091B4020196A11DB11D8093B1026D
:103EC0009093B202A093B302B093B402BF91AF91AA
:103ED0009F918F913F912F910F900FBE0F901F9048
:103EE000189526E8230F0296A11DB11DD2CF1F926F
:103EF0000F920FB60F9211242F933F934F935F931E
:103F00006F937F938F939F93AF93BF93EF93FF93A1
:103F10008091B900887F803609F44AC0F0F5883274
:103F200009F4A7C018F5803109F49BC0B8F48823C0
:103F300009F4F9C0883009F494C0FF91EF91BF9162
:103F4000AF919F918F917F916F915F914F913F9131
:103F50002F910F900FBE0F901F901895883109F484
:103F600088C0803251F78093180314C0803409F45C
:103F70009DC040F48033B9F38833F9F68093180379
:103F800085ECB0C0803509F485C0883509F496C049
:103F9000883499F60E941B19D0CF883909F48CC057
:103FA00038F5883729F050F4883611F0803729F633
:103FB00083E080931A031092AB0257C0883809F44B
:103FC0007BC0803919F0803809F0B7CF8091AB02FF
:103FD000803208F071C0E091AB0281E08E0F8093D7
:103FE000AB028091BB00F0E0E557FD4F80833DC000
:103FF000803B39F0E0F4803A09F479C0883A09F05E
:104000009CCF84E080931A0310928A021092890256
:10401000E091D002F091D10209958091890281113D
:104020000FC081E0809389021092690209C0803C30
:1040300009F4A6CF883C09F4A3CF883B09F07DCFD3
:10404000E0918A0281E08E0F80938A02F0E0E759C6
:10405000FD4F80818093BB0090918A0280918902FC
:1040600029C08091F5028093BB0085EC8093BC0051
:1040700064CF9091170380911603981758F5E0913B
:10408000170381E08E0F80931703F0E0EA50FD4F95
:104090008081E9CFE091170381E08E0F80931703B1
:1040A0008091BB00F0E0EA50FD4F808390911703B0
:1040B000809116039817C8F285E8D8CFE0911703CE
:1040C00081E08E0F809317038091BB00F0E0EA50EF
:1040D000FD4F80838091190381115CCF81E0809333
:1040E000F40284EA8093BC0010921A0326CF85EC78
:1040F0008093BC0010921A038091AB02803230F49E
:10410000E091AB02F0E0E557FD4F10826091AB0209
:1041100070E0E091CE02F091CF028BE892E0099539
:104120001092AB020ACF1092180334CFEF92FF9295
:104130000F931F93CF93DF93CDB7DEB7C659D10945
:104140000FB6F894DEBF0FBECDBF1092470310929A
:10415000460388EE93E0A0E0B0E08093480390939C
:104160004903A0934A03B0934B0324EE31E030930C
:104170004503209344032FEF3FEF309351032093E7
:10418000500310928E0710928D0780938F079093A3
:104190009007A0939107B093920786EF91E09093D8
:1041A0008C0780938B0710922A0710922907109290
:1041B0002D07109231071092320710923307109298
:1041C00034078FEF93E0A0E0B0E080933507909341
:1041D0003607A0933707B09338071092390710922B
:1041E0003A0710923B0710923C0780933D0790934B
:1041F0003E07A0933F07B0934007109241071092EB
:10420000420710924307109244078093450790930A
:104210004607A0934707B0934807109249071092AA
:104220004A0710924B0710924C0780934D079093CA
:104230004E07A0934F07B09350071092510710926A
:10424000520710925307109254078093550790938A
:104250005607A0935707B09358071092590710922A
:104260005A0710925B0710925C0780935D0790934A
:104270005E07A0935F07B0936007109261071092EA
:10428000620710926307109264078093650790930A
:104290006607A0936707B0936807109269071092AA
:1042A0006A0710926B0710926C0780936D079093CA
:1042B0006E07A0936F07B09370071092710710926A
:1042C000720710927307109274078093750790938A
:1042D0007607A0937707B09378071092790710922A
:1042E0007A0710927B0710927C0780937D0790934A
:1042F0007E07A0937F07B0938007109281071092EA
:104300008207109283071092840780938507909309
:104310008607A0938707B093880723E02093890737
:104320004CE140932C0710922E0787E080932F07D3
:104330001092300735E0398381E08A8399E09B83CE
:104340003C83E1EAED838E8355E85F8328873987D4
:104350009A8759E15B878C8759E25D874E87F5E143
:10436000FF87188A55E2598B8A8B65E76B8B8C8B9C
:1043700055E95D8B4E8B45E54F8B188E45E6498F91
:104380001A8E41E84B8F72E07C8F6D8F8E8F5F8F1E
:10439000A4E0A8A349A32AA33BA38CA39DA38EA317
:1043A000FFA318A687E289A78FEF8AA78BA71CA671
:1043B0001DA66EA780E18FA758AB29ABEAAB1BAA5D
:1043C0009CAB80E38DAB9EAB81E38FAB98AF82E378
:1043D00089AF4AAF7BAF80EC8CAF8DAF8DE390E0BF
:1043E0000E94EF357C018DE3FE013196D7010190EB
:1043F0000D928A95E1F787E090E00E94EF358C01FD
:10440000DC0111961C921E921396FC92EE9212976A
:104410008DE390E015969C938E93149716961C92BC
:104420000E94560BFC01A385B485109709F09FC02C
:104430001487038785859685D80114962D913C9124
:10444000820F931F9687858790912C07892F8695D9
:1044500086958695977009F092C080932D071091EC
:104460002D07812F90E00E94EF3590932A078093CB
:10447000290781E090912E07911101C080E01A5F19
:10448000810F80938A071092F9061092FA06109213
:10449000FB061092FC061092FD061092FE0610928A
:1044A000FF06109200071092010710920207109267
:1044B0000307109204071092050710920607109246
:1044C0000707109208071092090710920A07109226
:1044D0000B0710920C0710920D0710920E07109206
:1044E0000F071092100710921107109212071092E6
:1044F00013071092140710921507109216071092C6
:104500001707109218071092190710921A071092A5
:104510001B0710921C0710921D0710921E07109285
:104520001F07109220071092210710922207109265
:104530002307109224078FEF9FEF90932607809315
:104540002507909328078093270790E080E020912B
:104550002D0728171906A9F0A4F0E0912907F0917A
:104560002A07E80FF91F10820196F1CFDC018D9127
:104570009C9111970097D1F70D931C935BCF8F5FA0
:104580006CCF1092EC0662E087E10E948F031092DC
:10459000C8061092C906EAECF6E08CE1DF011D9234
:1045A0008A95E9F761E084E00E948F0361E081E091
:1045B0000E948F0360E080E00E948F0361E081E051
:1045C0000E948F0310923F068FE3E4E4F6E0DF01E0
:1045D000982F1D929A95E9F7E3E8F6E0DF01982F0E
:1045E0001D929A95E9F71092C2061092C30695E0C3
:1045F0009093C4061092C5061092C60691E090935F
:10460000C7061092290610922C0610922D061092C1
:104610002E0610922F06109230061092310610923C
:104620003206109233061092010624E332E03093F2
:104630000306209302061092040698EC9093050658
:104640009AEF909306069BEF909307062CEF20932A
:1046500008069DEF909309069FEF90930A0640E0AD
:1046600050E060E87FE340930B0650930C066093A4
:104670000D0670930E0610922606109225061092D3
:104680002806109227061092B4049FE09093B50478
:10469000EDE1F1E0A6EBB4E001900D929A95E1F71F
:1046A000E5ECF4E0DF011D928A95E9F7E4E0F5E03E
:1046B000DF011D922A95E9F71092000602EB14E043
:1046C000C801825B94400F5F1F4F2091B5042817EB
:1046D000190639F034F061E0F80183810E948F03FC
:1046E000EFCF8FE3ECE2F1E0A4E9B3E001900D92AB
:1046F0008A95E1F78FE3E3EDF3E0DF01982F1D9258
:104700009A95E9F7EBE6F1E0A2E1B4E0982F019089
:104710000D929A95E1F7E1E5F4E0DF011D928A95AB
:10472000E9F78AE493E090939104809390048DE3F9
:1047300090E090939304809392048BEC90E090939C
:10474000950480939404109296041092970410920A
:1047500098041092990410929A0410929B0410925B
:104760009C0410929D0410929E0410929F0481E07C
:104770008093A0041092A1042EE130E03093A304B2
:104780002093A20420E233E03093A5042093A404F4
:1047900028EE33E03093A7042093A6041092A804D7
:1047A0009AE09093A9049EE09093AA0497E19093D5
:1047B000AB0496E19093AC0492E09093AD04109218
:1047C000AE041092AF048093B0041092B10480E460
:1047D0008093A5078BE897E09093A7078093A6079F
:1047E00021E420939E079093A00780939F0722E4E3
:1047F0002093970790939907809398071092AC079E
:104800001092AD071092AE071092AF071092B0074A
:104810001092B1071092B2071092B30788E092E0AD
:104820009093B5078093B4071092D3071092D207E4
:104830001092D5071092D4071092D7071092D6077E
:104840001092D9071092D807CA56DF4F0FB6F894C6
:10485000DEBF0FBECDBFDF91CF911F910F91FF90B3
:10486000EF900895CF93DF93CDB7DEB7A8970FB63B
:10487000F894DEBF0FBECDBF789484B5826084BD4E
:1048800084B5816084BD85B5826085BD85B5816054
:1048900085BD80916E00816080936E0010928100D2
:1048A000809181008260809381008091810081608D
:1048B000809381008091800081608093800080914E
:1048C000910082608093910080919100816080933B
:1048D0009100809190008160809390008091C10050
:1048E00084608093C1008091C10082608093C10088
:1048F0008091C10081608093C1008091C30081607C
:104900008093C3008091C00082608093C00080913A
:10491000C20081608093C20080917A00846080939D
:104920007A0080917A00826080937A0080917A0088
:10493000816080937A0080917A00806880937A0009
:104940001092CD021092C8021092C7028091D70037
:1049500081608093D70080EA8093D80089B5806118
:1049600089BD89B5826089BD09B400FEFDCF61E0D3
:1049700070E080E090E00E94FB038091D8008F7C83
:1049800080618093D8008091E000807F8093E00078
:104990008091E1008E7E8093E1008DE08093E200C3
:1049A000559A209A8FEF9FEF909351038093500375
:1049B00068EE73E080E090E00E94FB0368EE73E035
:1049C00080E090E00E94FB039E012F5F3F4F1901A2
:1049D000B90188EE93E00E94EC168981853609F0D2
:1049E00091C210E000E0B8016C567C4FC8010E94F3
:1049F000EC16B8016D527C4FC8018C599F4F0E9434
:104A0000EC16B8016E5E7B4FC80188539F4F0E9421
:104A1000EC16B8016F5A7B4FC801845D9E4F0E940F
:104A2000EC160F5F1F4F0F331105E9F681E991E096
:104A30000E94F616909391048093900483E991E08C
:104A40000E94F616909393048093920485E991E076
:104A50000E94F616909395048093940466E974E09E
:104A600087E991E00E94EC166AE974E081EA91E03E
:104A70000E94EC1667E974E088E991E00E94EC1668
:104A80006BE974E082EA91E00E94EC1668E974E058
:104A900089E991E00E94EC166CE974E083EA91E008
:104AA0000E94EC1669E974E08AE991E00E94EC1634
:104AB0006DE974E084EA91E00E94EC166EE974E01E
:104AC0008AEA91E00E94EC1660EA74E08BEA91E0D9
:104AD0000E94EC168091A00480939F0461EA74E028
:104AE00082EC91E00E94EC1684EC91E00E94F616B4
:104AF0009093A3048093A20468EA74E086EC91E0AA
:104B00000E94EC1687EC91E00E94F6169093A504A3
:104B10008093A40489EC91E00E94F6169093A70478
:104B20008093A60469EA74E08BEC91E00E94EC1695
:104B30006AEA74E08CEC91E00E94EC166BEA74E097
:104B40008DEC91E00E94EC166CEA74E08EEC91E042
:104B50000E94EC166DEA74E08FEC91E00E94EC1676
:104B600084E993E09093B3048093B20485EA97E0DC
:104B70000E94CA1630ECC32E3CEFD32E3BE9E32E45
:104B8000FF24F394C092A807D092A907E092AA0745
:104B9000F092AB0740E050E064EB72E485EA97E006
:104BA0000E9402168EE997E00E94CA16C092A107E1
:104BB000D092A207E092A307F092A40740E050E051
:104BC00064EB72E48EE997E00E94021687E997E0B1
:104BD0000E94CA16C0929A07D0929B07E0929C0747
:104BE000F0929D0740E050E064EB72E487E997E0C3
:104BF0000E9402168CE08093B8001092C90288EBE4
:104C00009BE0A0E0B0E080931C0390931D03A09371
:104C10001E03B0931F0381E080931B0310E040E06C
:104C2000612F82EB94E00E94EF0D1F5F1E33B9F7F6
:104C300099EFC92E96E0D92E81E080932B07C6010B
:104C40000E945319D092E706C092E60604E913E0E9
:104C50001093E9060093E80622EBE22E24E0F22E00
:104C6000F092EB06E092EA061093F6060093F50642
:104C7000D092EE06C092ED068CEE96E00E946C0C8F
:104C800010933C0600933B06F0923E06E0923D06F0
:104C90009091C2063091C306F80181E02191225023
:104CA000223030F42FEF280F911101C0922F382FAE
:104CB0008F5F8F3399F79093C2063093C30680912C
:104CC000A004882381F189EF96E0909335068093C4
:104CD000340684E993E090932B0680932A060E9481
:104CE0000614811106C068EE73E080E090E00E9437
:104CF000FB0310E00E94061481110BC164E670E012
:104D000080E090E00E94FB031B3009F000C180911D
:104D10002A0690912B06FC01E45FFE4F1082855F0E
:104D20009E4FDC011C9282EB94E0909318068093D6
:104D300017068CEE96E0909312068093110689E296
:104D400096E09093100680930F0688EC96E090937F
:104D500014068093130684E993E0909316068093DB
:104D6000150689EF96E090931A06809319068091B4
:104D7000B0079091B107A091B207B091B3078093AB
:104D8000AC079093AD07A093AE07B093AF0761E077
:104D900081E00E94610360E084E00E94610361E0C1
:104DA00084E00E94610360E081E00E946103B7E15A
:104DB000EB2EF12C412C512C320116E6C12E11E0C4
:104DC000D12E07E4A02E01E0B02EE5E8F1E08491B9
:104DD000F6010491F5011491112309F4E4C1811144
:104DE0000E941503E12FF0E0EE0FFF1FE75CFE4F7E
:104DF000A591B4918C91082331E020E009F430E0D2
:104E0000832F922F092E000CAA0BBB0B0E2C04C073
:104E1000880F991FAA1FBB1F0A94D2F7482A592A44
:104E20006A2A7B2A61E081E00E94610360E081E000
:104E30000E946103F1E0EF1AF10808F0C6CF40923A
:104E4000B0075092B1076092B2077092B307809199
:104E5000AC079091AD07A091AE07B091AF07841554
:104E60009505A605B70509F41DC258EC652E56E058
:104E7000752E62E0D62E10E000E078E1472EE4E1E6
:104E80005E2ECC24C3948090B0079090B107A09080
:104E9000B207B090B307002E04C0B694A7949794BD
:104EA00087940A94D2F7D501C40180959095A09576
:104EB000B095382F3170F32ED30112968C9138179C
:104EC00009F4D7C1B1E08B229924AA24BB24E09134
:104ED000E806F091E906DF01AA5EBE4F2C91822F11
:104EE000642D0E94B5359017110629F4283108F079
:104EF0005DC115963C9381149104A104B10409F499
:104F000065C159C184E993E00E94A91B29CE1F5FA6
:104F1000F1CE1B3009F407CF8091D2079091D307CF
:104F2000188A198A1A8A1B8A9A8389831C821B828F
:104F300011E01A878AE190E098878F831B86198792
:104F40003EA22DA203E00FA318A646E050E060E0C9
:104F500070E0CE0185960E947D118091D2079091DC
:104F6000D307188A198A1A8A1B8A9A8389831C8212
:104F70001B821A878CE190E098878F831B861987A4
:104F80003EA22DA20FA318A644E050E060E070E01E
:104F9000CE0185960E947D118091D2079091D30712
:104FA000188A198A1A8A1B8A9A8389831C821B820F
:104FB0001A878FE190E098878F831B86198720E0FE
:104FC00041E050E060E070E0C1010E94BE078091C6
:104FD000D2079091D307188A198A1A8A1B8A9A8352
:104FE00089831C821B821A8780E290E098878F83D6
:104FF0001B86198720E044E150E060E070E0C101C9
:105000000E94BE078091D2079091D307188A198A0F
:105010001A8A1B8A9A8389831C821B821A8787E3D8
:10502000E82EF12CF886EF821B8619873EA22DA26E
:105030001FA385E088A741E050E060E070E0CE016A
:1050400085960E947D118091D2079091D307188A8E
:10505000198A1A8A1B8A9A8389831C821B821A875F
:10506000F886EF821B8619873EA22DA21FA387E038
:1050700088A741E050E060E070E0CE0185960E9494
:105080007D118091D2079091D307188A198A1A8AC4
:105090001B8A9A8389831C821B821A8788E390E08B
:1050A00098878F831B8619873EA22DA21FA386E0B7
:1050B00088A741E050E060E070E0CE0185960E9454
:1050C0007D1189E296E00E94D4118091D6079091DB
:1050D000D7079093CB028093CA0264E670E080E029
:1050E00090E00E94FB031AE08091CA029091CB02EB
:1050F000DC01ED91FC910680F781E02DB10109956D
:105100002D893E894F89588D60912C0670912D060E
:1051100080912E0690912F060E941B334B015C015B
:1051200080922C0690922D06A0922E06B0922F0609
:10513000298D3A8D4B8D5C8D6091300670913106D2
:1051400080913206909133060E941B336B017C01E3
:10515000C0923006D0923106E0923206F0923306C9
:10516000115011F620E030E040E251E4C501B401F5
:105170000E948C3360932C0670932D0680932E062C
:1051800090932F0620E030E040E251E4C701B601E1
:105190000E948C3360933006709331068093320600
:1051A00090933306C0CD90E080E02CCE8114910422
:1051B000A104B10429F022E0D2120AC0D12C08C007
:1051C000DF01A55EBE4F8C918C258C93DD24D3949A
:1051D000C8010497049708F087C0E75EFE4FE0819E
:1051E000F0E0E853F94F8281882309F47DC05092A2
:1051F000C8068091E6069091E7066091C806600FA8
:1052000081149104A104B10409F471C00E94371BF8
:10521000D3011296FC92F12CE12C8091E80690913A
:10522000E9068E0D9F1DFC01EE5FFE4F208181146B
:105230009104A104B10409F05DC0222399F021502A
:10524000330B2017310771F48A5F9E4FFC01608198
:10525000662341F061504FEF8091EA069091EB0692
:105260000E94EF0DBFEFEB1AFB0AE4E0EE16F1042B
:10527000A1F60F5F1F4FFFEF6F1A7F0A083111056C
:1052800009F001CE21E0D21248C0E091E806F09189
:10529000E906E45EFE4F8081833011F0863011F420
:1052A00084E080830E9450014C01990FAA08BB083A
:1052B000F12CE12C0091F5061091F606F801EB5E59
:1052C000FE4F208130E0E216F306ACF50E9450015B
:1052D000092E000CAA0BBB0B880E991EAA1EBB1E22
:1052E0003FEFE31AF30AE6CF1092C80682CF0E947E
:1052F0005C1B8ECF222309F4B5CF2150330B20172E
:10530000310709F0AFCF8A5F9E4FDC016C916623B5
:1053100009F4A8CF615040E09FCFD110C3CFE091F6
:10532000E806F091E906E45EFE4F8081873009F0DF
:10533000B9CF82E0B6CF2F5F3F4F032E000C440B56
:10534000550BC501B4010E94E93269017A01F801E7
:10535000EC5EFE4F8081B82EE894B1F841E0B412C3
:105360001CC08091ED069091EE062091F706211168
:10537000F0C07897408151814F505109052E000CA3
:10538000660B770BC416D506E606F70630F07B965B
:1053900060810E945C1BB092F7062091F506309167
:1053A000F606F901EC5EFE4F80818230F8F08091C4
:1053B000ED069091EE064091F8064111E5C0769712
:1053C00040815181465F5F4F052E000C660B770BC5
:1053D0004C155D056E057F0548F0295E3E4FD901ED
:1053E0006C910E945C1B81E08093F806E091F506C9
:1053F000F091F606F39580809180092C000CAA08A4
:10540000BB088C149D04AE04BF0408F4DAC0D0922B
:10541000F406C092F3068091ED069091EE0640915D
:10542000F3065091F406052E000C660B770BDC0199
:1054300018964D935D936D937C931B97D2962C9108
:1054400021110E94531980919F04882309F465C19A
:105450008091CA029091CB02DC01ED91FC91068013
:10546000F781E02DB101099520912C0630912D0690
:1054700040912E0650912F066D897E898F89988DD7
:105480000E941A3320E030E048EC52E40E94433599
:105490000E9471340E94FE336B0170933706609353
:1054A00036062091300630913106409132065091F7
:1054B0003306698D7A8D8B8D9C8D0E941A3320E086
:1054C00030E048EC52E40E9443350E9471340E945F
:1054D000FE33709339066093380620912A06309186
:1054E0002B06F901E25FFE4F40815181F601D7FEA4
:1054F00004C0EE27FF27EC19FD09E417F50724F493
:105500001092370610923606FB0177FF04C0EE2793
:10551000FF27E61BF70BE417F50724F41092390672
:10552000109238068091360690913706F901E65FB1
:10553000FE4F4081413009F069C0409138065091DA
:1055400039065195419551095093370640933606D7
:1055500078C0213009F021CFF801E450FF4F40819D
:1055600051814F505109052E000C660B770BC41664
:10557000D506E606F70608F010CF7B9660810E94FC
:10558000371B1092F70609CF413009F02FCFF901F0
:10559000E250FF4F40815181465F5F4F052E000C66
:1055A000660B770B4C155D056E057F0508F01ECF69
:1055B000295E3E4FF90160810E94371B1092F80668
:1055C00015CFC701B601681979098A099B090E949C
:1055D00034342091EF063091F0064091F10650915D
:1055E000F2060E9443356B017C01C501B4010E94A3
:1055F00036349B01AC01C701B6010E941B330E94E7
:10560000FE337093F4066093F30605CF423061F4E5
:1056100091958195910990933706809336068091F4
:105620003806909139060AC0433081F4409138061B
:1056300050913906509337064093360691958195DF
:10564000910990933906809338060AC0443009F0D6
:10565000F9C091958195910990933706809336060C
:1056600040913A06F0913606E09137068091340673
:10567000909135064111FBC0D901A05FBE4F6D91DD
:105680007C914F2F5E2F57FF03C0519541955109D3
:105690006417750764F0409138065091390657FF3A
:1056A00003C0519541955109641775074CF4285E64
:1056B0003E4FF90160810E945C1B81E080933A06B5
:1056C0008091340690913506409136065091370608
:1056D000052E000C660B770BFC014083518362831F
:1056E000738322A921110E9453198091340690914D
:1056F00035064091380650913906052E000C660B90
:10570000770BDC0114964D935D936D937C93179703
:10571000D2962C9121110E9453190E94DD046B0135
:105720007C01E0913B06F0913C06E45EFE4F8081F7
:10573000833009F430C108F0C3C0813009F409C1D5
:10574000823009F411C100911706109118060E94C9
:10575000DD044B015C0145E0C42ED12C7801E2EB65
:10576000EE1AEEEFFE0AD7018C918E3308F0C4C119
:105770008F5F8C93D7016C91862F90E0D801ED91CB
:10578000FC911197E80FF91F47ADA80FB91F539669
:105790002C91421740F5E354FF4F2081222319F149
:1057A000FC01EE0FFF1FEE0FFF1FE00FF11FEE5A7F
:1057B000FF4F80819181A281B38124013501481A74
:1057C000590A6A0A7B0AB4E62B9FC0011124092EEC
:1057D000000CAA0BBB0B481659066A067B061CF088
:1057E000C8010E94EF0DE1E0CE1AD10809F0BBCF4D
:1057F00009E010E0CC24C39427E0B22E84E493E0C7
:105800000E94FB02892B09F48CC184E493E00E947E
:10581000B9022091250630912606F901EF5FF94F74
:10582000828F2115310509F06AC190911B06809184
:10583000040698136EC12F5F3F4F309326062093C6
:1058400025066BC1453041F4409138065091390628
:10585000519541955109EECE463009F4E0CE4730DE
:1058600009F0FECE40913806509139066DCE413098
:1058700009F026CFD901A05FBE4F6D917C914F2FCB
:105880005E2F57FF03C051954195510946175707A1
:105890000CF016CF409138065091390657FF03C0DF
:1058A000519541955109461757070CF009CF285ECD
:1058B0003E4FD9016C910E94371B10923A0600CFDF
:1058C000853009F4F3C008F4C5C0863009F03BCF39
:1058D0000E946F010091C50610E0C801855C994FD8
:1058E0005C01992493948091C6068017110609F0F3
:1058F0000CF4A7C0E0913B06F0913C06E00FF11FCD
:10590000808182508230F8F4F501E85BFF4FD501C9
:1059100019968C919091C4062081213009F0E6C03F
:105920002FEF30E0291B3109821713060CF4DAC07F
:105930001082D50119964C91602F80913D0690916F
:105940003E060E94EF0D0F5F1F4FBFEFAB1ABB0A61
:10595000CACFC0924006D0924106E0924206F09231
:10596000430685E08083EFCE0E945D0E8091C706DE
:10597000882309F4E8CEC0924006D0924106E09216
:105980004206F0924306E0913B06F0913C06E45E4D
:10599000FE4F83E0E7CF8091400690914106A091B1
:1059A0004206B0914306A7019601281B390B4A0B0A
:1059B0005B0BDA01C90181329E44A105B1050CF4EB
:1059C000C2CE0E946F010091C50610E08091C6060C
:1059D0008017110649F144F1E0913B06F0913C0635
:1059E000E00FF11F808182508230D8F40E9449324A
:1059F00020E031E040E050E00E94B732B62E462F62
:105A0000602F80913D0690913E060E94EF0DF801B7
:105A1000E55CF94FDF01A85BBF4F8B2D81708C9344
:105A2000B1860F5F1F4FD2CF8091C706882309F43C
:105A30008ACEE0913B06F0913C06E45EFE4F86E0A4
:105A40008083C0924006D0924106E0924206F092D6
:105A5000430679CE0E946F010091C50610E0809147
:105A6000C60680171106A9F0A4F0E0913B06F0915C
:105A70003C06E00FF11F8081823041F44FEF602F30
:105A800080913D0690913E060E94EF0D0F5F1F4FE3
:105A9000E6CF8091C706882309F455CEE0913B06F6
:105AA000F0913C06E45EFE4F87E0CACF809140064D
:105AB00090914106A0914206B0914306C81AD90AB6
:105AC000EA0AFB0A41E1C41647E2D406E104F10404
:105AD0000CF439CE0E945D0E8091C706882309F42C
