:100000000C944F020C9477020C9477020C947702B4
:100010000C9477020C9477020C9477020C9477027C
:100020000C9477020C9477020C94121A0C94811A97
:100030000C9477020C9477020C9477020C9477025C
:100040000C9477020C9477020C9477020C9477024C
:100050000C9477020C9477020C9477020C94AD1CEC
:100060000C9477020C9477020C9477020C9477022C
:100070000C9477020C9477020C9477020C9477021C
:100080000C9477020C9477020C9477020C9477020C
:100090000C94F71C0C9477020C9477020C94770262
:1000A0000C9477020C9477020C9477020000000005
:1000B0000000000000000000000000002A002B00EB
:1000C0002800000000000000000000000000000008
:1000D0000000000000000000000000000000000020
:1000E0000000000000000000000000002C001E02C4
:1000F00034022002210222022402340026022702B6
:1001000025022E0236002D003700380027001E0081
:100110001F002000210022002300240025002600CB
:100120003302330036022E00370238021F02040267
:10013000050206020702080209020A020B020C026B
:100140000D020E020F02100211021202130214021B
:10015000150216021702180219021A021B021C02CB
:100160001D022F003100300023022D023500040053
:10017000050006000700080009000A000B000C003B
:100180000D000E000F0010001100120013001400EB
:10019000150016001700180019001A001B001C009B
:1001A0001D002F0231023002350200000000000065
:1001B000000000000000000000000000000000003F
:1001C000000000000000000000000000000000002F
:1001D000000000000000000000000000000000001F
:1001E000000000000000000000000000000000000F
:1001F00000000000000000000000000000000000FF
:1002000000000000000000000000000000000000EE
:1002100000000000000000000000000000000000DE
:1002200000000000000000000000000000000000CE
:1002300000000000000000000000000000000000BE
:1002400000000000000000000000000000000000AE
:10025000000000000000000000000000000000009E
:10026000000000000000000000000000000000008E
:10027000000000000000000000000000000000007E
:10028000000000000000000000000000000000006E
:10029000000000000000000000000000000000005E
:1002A0000000000000000000000000000501090639
:1002B000A101050719E029E7150025017501950839
:1002C0008102050C95017508150026FF001900290B
:1002D000FF8100050819012908950875019102059B
:1002E0000795067508150026E700190029E7810023
:1002F000C0050C0901A101150026FF0319002AFF02
:1003000003950475108100C005010904A1010509C8
:10031000190129201500250175019520810205018B
:10032000A100093009310933093416008026FF7F06
:10033000751095048102093209351580257F7508ED
:1003400095028102C0050109390939150125089571
:100350000275048102C000000000240027002A006A
:100360002D00300000000000250028002B002E008A
:100370003100080B00020202000009040000010223
:1003800002000005240010010524010101042402DB
:100390000605240600010705810310004009040139
:1003A00000020A0000000705020240000007058362
:1003B000024000000403090412010002EF020140A0
:1003C0008F0E079200010102030130783065386614
:1003D00000436C657620536F66742050696E4F6ED3
:1003E0006500522C530D0A00522C450D0A00450D94
:1003F0000A00432C000D0A002C002C002C00412C7C
:10040000000D0A00502C000D0A002C004F2C000D8E
:100410000A002C00422C00562C312E31392E310D81
:100420000A00000000002300260029002C002F00F5
:100430000404040404030405020202020403020289
:10044000020206060606060604040202020404046A
:1004500008020110408040102040804080080204C3
:10046000018040201002011080102040402007062B
:1004700005040100080A0B0C0D092C002C000000DB
:10048000000200090F0000030401000C000000003E
:100490000000000000000000000000005E1E1124AB
:1004A0001FBECFEFDAE0DEBFCDBF12E0A0E0B1E0CB
:1004B000E6E3F5E602C005900D92AC33B107D9F73B
:1004C00028E0ACE3B2E001C01D92A335B207E1F72A
:1004D00012E0CFE4D2E004C02197FE010E945A311D
:1004E000CE34D107C9F70E94FD200C9499320C94A8
:1004F000000008950895FC0180919F02882311F166
:100500003FB7F89482E08093E9002091F200822FB7
:1005100090E01816190614F481E090E0882339F071
:10052000289844E640939E024091F10040832223A4
:1005300039F02091F200211103C02BE62093E8004E
:100540003FBF08958FEF9FEF0895E3E7F4E0E49154
:1005500090917B008E2F880F880F80729F7D892B52
:1005600080937B00E770E064E0937C0080917A00E8
:10057000806480937A0080917A0086FDFCCF809120
:10058000780090917900089580918F078823A9F0D1
:1005900080918A0780938D0710928F0780918D0735
:1005A0008B5F80938E0790918B07891728F090932B
:1005B0008E0781E080938F07089580918D078B5F70
:1005C00080938D07EBCF4091960250919702209136
:1005D00094023091950242175307B4F49091E800C9
:1005E0009570E1F39091E80092FD19C08093F100BD
:1005F000809196029091970201968F739927892B8B
:1006000019F48EEF8093E800809196029091970202
:100610000196909397028093960281E0089580E07E
:100620000895EF92FF920F931F93CF93DF93F82ECD
:10063000192FE62E042F81E0860F880F0E94E30217
:1006400083E00E94E302CF2DD12FEC0EFD2EF11C92
:10065000CE15DF05B9F007FF13C0FE0184910E949B
:10066000E302182F80E00E94E3028123219681118A
:10067000EFCFDF91CF911F910F91FF90EF900895F1
:100680008881EDCF81E0F5CFDF92EF92FF920F935B
:100690001F93CF93DF93D82E8A01EB017B01E40EE9
:1006A000F51ECE15DF0559F0D7FE12C0FE0184916C
:1006B0000E94E30221968111F4CF0FEF1FEFC801D2
:1006C000DF91CF911F910F91FF90EF90DF900895F0
:1006D0008881EECF2FB7F89487708093E9009091CE
:1006E000E800892F807295FF04C09091F20080E4A9
:1006F000891B2FBF0895615030F02091F100FC015B
:1007000020830196F8CF289884E680939E0208956E
:10071000AF92BF92DF92EF92FF920F931F93CF930E
:10072000DF935C018B01EB019BEFD92E2097C1F089
:100730007E01C134D1051CF080E4E82EF12C8091BB
:10074000E80082FFFCCFC8018C1B9D0B6E2D8A0D2B
:100750009B1D0E947B03D092E800CE19DF09E6CFF3
:10076000C801DF91CF911F910F91FF90EF90DF9023
:10077000BF90AF900895AF92BF92CF92DF92EF9269
:10078000FF920F931F93CF93DF936C017B018B013B
:10079000040F151FEB015E01AE18BF08C017D1078B
:1007A00059F06991D601ED91FC910190F081E02D15
:1007B000C6010995892B79F7C501DF91CF911F916A
:1007C0000F91FF90EF90DF90CF90BF90AF90089582
:1007D00080918C0281110DC082E08093880284E0B8
:1007E0008093890210928B0210928A0281E080939A
:1007F0008C0288E892E008950F931F93CF93DF93C4
:100800001F92CDB7DEB782E0898342E450E062E711
:1008100073E080E80E9444030E94E803DC01129622
:100820000D911C910115110589F0D801ED91FC91F4
:100830000280F381E02DBE016F5F7F4FC8010995F3
:1008400097FD04C0F80100851185ECCF89810F90D8
:10085000DF91CF911F910F910895CF93DF931F9256
:10086000CDB7DEB76983DC01ED91FC910280F381A5
:10087000E02D41E050E0BE016F5F7F4F09950F9082
:10088000DF91CF9108950F931F93CF93DF938C0146
:10089000D0E0C0E0F801EC0FFD1F6491662341F049
:1008A00086E193E00E942D04892B11F02196F2CF6E
:1008B000CE01DF91CF911F910F91089583E0809336
:1008C000E9008091F200882319F08AE38093E80020
:1008D000089583E00E946A0390E00895CF93DF9328
:1008E0001F92CDB7DEB7FC018485958597FD08C0C2
:1008F0002FEF3FEF358724870F90DF91CF91089539
:10090000CE0101960E947B02019719F4898190E043
:10091000F3CF8FEF9FEFF0CF0F931F93CF93DF9322
:100920001F92CDB7DEB78C01FC018485958597FFBA
:100930000BC0CE0101960E947B02019771F4898160
:1009400090E0F80195878487F801848595850F905C
:10095000DF91CF911F910F9108958FEF9FEFF1CF0E
:10096000FC018485958597FD0BC09FB7F89482E0C4
:100970008093E9008091F2009FBF90E00196089576
:100980009FB7F89482E08093E9008091F2009FBFC6
:1009900090E0089581508F3008F047C0E82FF0E0D4
:1009A000EC52FB4F0C945A31F104F504E304E904D2
:1009B000ED04150515051505F804FE0402050605E8
:1009C0000C0515051005809180008F7780938000BD
:1009D0000895809180008F7DF9CF80918000877F7E
:1009E000F5CF84B58F7784BD089584B58F7DFBCF17
:1009F000809190008F77809390000895809190006F
:100A00008F7DF9CF80919000877FF5CF8091C000D6
:100A10008F778093C00008958091C0008F7DF9CFBB
:100A20008091C200877F8093C20008951F93CF9367
:100A3000DF93282F30E0F901E258FB4F8491F90150
:100A4000E15BFB4FD491F901E05DFB4FC491CC23F6
:100A5000A9F0162F81110E94CA04EC2FF0E0EE0FCE
:100A6000FF1FEC59FC4FA591B4918FB7F894EC910E
:100A7000111108C0D095DE23DC938FBFDF91CF9199
:100A80001F910895DE2BF8CFCF93DF9390E0FC0108
:100A9000E15BFB4F2491805D9B4FFC018491882397
:100AA000C9F090E0880F991FFC01EA5AFC4FA5910C
:100AB000B491FC01EC59FC4FC591D49161110DC06A
:100AC0009FB7F8948C91209582238C93888128235A
:100AD00028839FBFDF91CF910895623051F49FB773
:100AE000F8943C91822F809583238C93E8812E2B60
:100AF000EFCF8FB7F894EC912E2B2C938FBFEACFCA
:100B00008230910538F0880F991F880F991F05973B
:100B10000197F1F708953FB7F8948091840290917E
:100B20008502A0918602B091870226B5A89B05C0D8
:100B30002F3F19F00196A11DB11D3FBFBA2FA92F5C
:100B4000982F8827BC01CD01620F711D811D911D59
:100B500042E0660F771F881F991F4A95D1F70895C5
:100B60008F929F92AF92BF92CF92DF92EF92FF92BD
:100B70004B015C010E948B056B017C010E948B057F
:100B80006C197D098E099F09683E734081059105A6
:100B9000A8F321E0821A9108A108B10888EEC80ED6
:100BA00083E0D81EE11CF11C81149104A104B1045E
:100BB00029F7FF90EF90DF90CF90BF90AF909F907C
:100BC0008F9008957F928F929F92AF92BF92CF9213
:100BD000DF92EF92FF920F931F93CF93DF93C82E74
:100BE0008B017A0180919F02811110C08FEF9FEFDE
:100BF000DF91CF911F910F91FF90EF90DF90CF90F9
:100C0000BF90AF909F908F907F90089580919C02AD
:100C100080FF05C08091E00082608093E000CE2DCF
:100C2000DF2DD12C8AEFB82E8C2D8770982E8C2D2D
:100C30008072882E8C2D8074782E9AE3A92E2097AE
:100C400019F4DD2009F452C08C2D0E946A03811131
:100C50000AC0BA94BB2051F261E070E080E090E0FD
:100C60000E94B005ECCF8C171D0611F00CF08C2FF4
:100C70009FB7F8949092E9002091E80025FD02C00A
:100C80009FBFDDCF282F30E0C21BD30B882029F077
:100C90008150A0F01092F100FBCFF801C7FC0AC010
:100CA000815050F041914093F100FACF449140932C
:100CB000F10031968150D0F7020F131FDD2021F093
:100CC000A092E800D12CDCCF8091E80085FD07C020
:100CD000A092E800DD24D394209791F2F3CF2097DF
:100CE00079F6772069F2A092E800CACF5D9884E691
:100CF00080939902C7017CCFCF93DF93EC01809161
:100D00001201882331F083E00E94E20518161906CB
:100D100034F081E090E09B838A8380E090E0DF9173
:100D2000CF9108952FB7F89460918002709181025D
:100D300080918202909183022FBF0895CF92DF921B
:100D4000EF92FF920F931F93CF93DF930091B9041B
:100D50001091BA04C7E9D7E08091B7049091B80424
:100D6000B801681B790B072E000C880B990B0E94A9
:100D700018306B017C016091B5047091B604601B62
:100D8000710B072E000C880B990B0E9418309B01E9
:100D9000AC01C701B6010E946E2F6A837B838C83EE
:100DA0009D830E9492066A8B7B8B8C8B9D8BDF913F
:100DB000CF911F910F91FF90EF90DF90CF9008950A
:100DC0008F929F92AF92BF92CF92DF92EF92FF925B
:100DD000CF93C091D704C11139C00E9492064B0134
:100DE0005C010E9492066B017C01C818D908EA08D0
:100DF000FB0888E8C81683E1D806E104F10414F57D
:100E000086E193E00E94B0041816190684F486E186
:100E100093E00E946E04C82F8C2FCF91FF90EF902B
:100E2000DF90CF90BF90AF909F908F9008950E94D9
:100E300092066B017C0162E370E080E090E00E942A
:100E4000B005D3CF81E08093D704E6CFC0E0E4CFF4
:100E50000F931F93CF93DF93162F082FEC010E945F
:100E6000E00689938C2F801B8117C8F3DF91CF9107
:100E70001F910F910895CF930E94E006C82F0E9402
:100E8000E0062C2F30E0322F2227820F932F911D66
:100E9000CF910895FC0183858F3F19F061E00C9498
:100EA00016050895FC0180819181892B39F0A2817A
:100EB000B3819C9111968C919CBD8DBD83858F3F94
:100EC00019F060E00C9416050895AF92BF92CF928E
:100ED000DF92EF92FF920F931F93CF93DF93EC017A
:100EE00088819981892B89F06EBD0DB407FEFDCFF5
:100EF000BEB48B2DDF91CF911F910F91FF90EF909A
:100F0000DF90CF90BF90AF9008958885998511E0CC
:100F1000892B09F010E8AA24A394862F812309F0D5
:100F2000A12C062F2C813D814E815F8160E271EA08
:100F300087E090E00E94CB2EF22EB02EE12CC22E44
:100F4000D12CFF2019F0C6010E9480058A85877F79
:100F500009F042C08D858F3F89F0902F912381E069
:100F600009F480E08A1551F0EF85F8898F8999237B
:100F700069F19081892B8083AA24A394E989FA8955
:100F80008081998D892B8083FF2019F0C6010E94F2
:100F900080058E858F3F39F0EB89FC898081988DA3
:100FA000892309F0E12AE989FA899081898D809560
:100FB000892380838E858F3F09F0BE2C8885998593
:100FC000892BB9F5110F1111BCCF93CF908180956A
:100FD00089238083A12CD2CFE989FA898081998DD8
:100FE000892B8083FF2019F0C6010E9480058D8522
:100FF0008F3F49F0EF85F8898F89902F9123A9F0D1
:101000009081892B8083E989FA899081898D8095E7
:10101000892380838E858F3F69F2EB89FC898081EB
:10102000988D892339F2E12AC5CF90818095892353
:10103000E9CF1695C8CF8F929F92AF92BF92CF9271
:10104000DF92EF92FF920F931F93CF93DF937C0178
:101050004B016A01B22EA32E0E945207E401C80C74
:10106000D91CCC15DD0569F4CB2DDA2D0C0F1D1F15
:10107000C017D10759F06FEFC7010E946507899328
:10108000F7CF6991C7010E946507EBCFC7010E94A6
:101090004A0781E0DF91CF911F910F91FF90EF9070
:1010A000DF90CF90BF90AF909F908F9008958F92D8
:1010B0009F92AF92BF92CF92DF92EF92FF920F93E7
:1010C0001F93CF93DF937C01B62EA72E6A014901AF
:1010D0000E945207E401080D191DC017D10761F4E1
:1010E000CB2DDA2DCC0EDD1ECC15DD0551F069912E
:1010F000C7010E946507F8CF6991C7010E94650783
:10110000ECCFC7010E944A0781E0DF91CF911F9188
:101110000F91FF90EF90DF90CF90BF90AF909F9096
:101120008F900895DC01ED91FC910190F081E02D0C
:10113000099420915C02260F3327331F2132310599
:10114000ECF420911003FC0190E080E0243069F081
:1011500082E00895A0915C022191AC01445C5D4F56
:10116000A40FB52FB11D2C930196861798F380918B
:101170005C02680F60935C0280E0089581E008954E
:101180001092100381E08093EF021092EA0261E076
:1011900082E00E94160561E083E00E941605E9EBFB
:1011A000F0E080818E7F808380818D7F808388E4E2
:1011B0008093B80085E48093BC0008951092A50246
:1011C0001092A4021092A7021092C9020E94C008B5
:1011D00089E792E09093A3028093A2028AE792E0CB
:1011E0009093A1028093A0020895CF93DF9391E0A2
:1011F00090939B028823B9F0C091B800D091BA00B7
:101200008091BC008A7B8093BC0060E082E00E94F9
:10121000160560E083E00E9416050E94C008D09386
:10122000BA00C093B800DF91CF9108958F929F923A
:10123000AF92BF92CF92DF92EF92FF920F931F93E4
:10124000CF93DF93D82FC62F142F613208F09CC0A4
:101250000E948B056B017C018091100381116FC08E
:1012600081E0809310031093EF029FEF9093EE02C2
:101270001092ED029C0F9093EC028093EB02809110
:10128000EB02DD0FD82BD093EB028091EA02813084
:1012900009F07CC01092EA020E948B056B017C0170
:1012A0008091EB028093BB00809112039091130315
:1012B000A0911403B0911503892B8A2B8B2BA1F0DD
:1012C0000E948B05009112031091130320911403C7
:1012D000309115036C197D098E099F0906171707B0
:1012E0002807390708F44CC08091BC0083FDD8CF93
:1012F00085EC8093BC000E948B056B017C01809182
:101300001003813009F444C08091ED028C1710F471
:10131000C091ED02EAECF2E0A0EFB2E080E08C13C5
:1013200059C08C2FDF91CF911F910F91FF90EF90BB
:10133000DF90CF90BF90AF909F908F900895809155
:10134000120390911303A0911403B0911503892BFC
:101350008A2B8B2B09F480CF0E948B05809012037F
:1013600090901303A0901403B09015036C197D099D
:101370008E099F0986169706A806B90608F06CCF55
:10138000809111030E94F508C0E0CBCF85EEB1CF6C
:101390008091120390911303A0911403B09115034F
:1013A000892B8A2B8B2B09F4AACF0E948B050091E5
:1013B00012031091130320911403309115036C193B
:1013C0007D098E099F09061717072807390708F0B6
:1013D00096CFD6CF91919D938F5FA1CF8F929F9201
:1013E000AF92BF92CF92DF92EF92FF920F931F9333
:1013F000CF93DF93D091C902D13208F0D7C0182F14
:10140000C091C8020E948B056B017C018091100382
:1014100081116BC082E0809310031093EF028FEF75
:101420008093EE021092ED02D093EC02A8EAB2E0B3
:10143000EAECF2E080E0D81391C01092EB028091C8
:10144000EB02CC0FC82BC093EB028091EA028130F3
:1014500009F088C01092EA020E948B056B017C01A2
:101460008091EB028093BB00809112039091130353
:10147000A0911403B0911503892B8A2B8B2BA1F01B
:101480000E948B0500911203109113032091140305
:10149000309115036C197D098E099F0906171707EE
:1014A0002807390708F442C08091BC0083FDD8CFDB
:1014B00085EC8093BC000E948B056B017C018091C0
:1014C0001003823009F450C08091EE028F3F09F47E
:1014D0006FC08091EE02803209F46CC08091EE0200
:1014E000803309F469C084E026C080911203909192
:1014F0001303A0911403B0911503892B8A2B8B2B16
:1015000009F484CF0E948B058090120390901303FE
:10151000A0901403B09015036C197D098E099F09E2
:1015200086169706A806B90608F070CF80911103B9
:101530000E94F50885E01092A7021092C90210924D
:10154000A602DF91CF911F910F91FF90EF90DF9056
:10155000CF90BF90AF909F908F9008959D91919361
:101560008F5F69CF85EEA5CF809112039091130311
:10157000A0911403B0911503892B8A2B8B2B09F4AE
:101580009ECF0E948B0500911203109113032091AE
:101590001403309115036C197D098E099F090617F4
:1015A00017072807390708F08ACFC0CF81E0C3CFDB
:1015B00080E0C1CF82E0BFCF83E0BDCF1F93CF9348
:1015C000DF93EA01122FDC0111968D919C91DC01D1
:1015D000ED91FC910280F381E02D0995C817D907A0
:1015E00029F4812F0E94EE0991E0811190E0892F6A
:1015F000DF91CF911F910895AF92BF92CF92DF926A
:10160000EF92FF920F931F93CF93DF9300D0CDB74C
:10161000DEB7DC01211103C018962C9118972530F4
:1016200008F043C01F964D935D936D937C93529742
:1016300090E080E0E22EF12C8E159F05B4F41A960E
:101640002C911A9721110AC0FD01E80FF91F438759
:10165000452F562F672F77270196EECFF701E81B0E
:10166000F90BEA0FFB1F4287F3CF6D018BE0C80E29
:10167000D11C16969C91169717968C911797998363
:101680008A83AD90BC901197A114B10409F441C0B4
:1016900019960C9110E098012E0D3F1DD50114965E
:1016A0008D919C918217930710F480E016C0F5018C
:1016B00081819281208131E03093A6022093C8027B
:1016C0001092A7021092C9020115110599F421E0A8
:1016D000A701B601C5010E94DE0A0F900F90DF91AD
:1016E000CF911F910F91FF90EF90DF90CF90BF901F
:1016F000AF900895DC01ED91FC910280F381E02D23
:10170000A801BE016F5F7F4F09950817190769F699
:10171000DECF1296ED91FC911397309731F214962B
:101720002D913C91159719960C9110E023303105BD
:1017300071F48E7F89839A830F5F1F4F9E012F5F05
:101740003F4FA701B601CF010E945708C6CF211510
:10175000310519F49F779983F1CF2230310511F4C7
:101760009068F9CF2130310549F79F779064F3CF26
:10177000CF93DF93EC018B818823A1F0888191E0E6
:101780009093A6028093C8021092A7021092C902F9
:1017900081E00E94EE0991E0811190E0892FDF91B4
:1017A000CF9108950E94DE0881E08B83CE010E94D4
:1017B000B80B982F8111E2CFF1CF1F93CF93DF9316
:1017C000EC01142F89819A81288131E03093A6029F
:1017D0002093C8021092A7021092C902DC01ED9179
:1017E000FC910190F081E02D099589819A81DC01BD
:1017F000ED91FC910190F081E02D612F099581E040
:10180000DF91CF911F910C94EE09EF92FF920F930D
:101810001F93CF93DF93EC01E42E052FF22E132FAD
:1018200089819A81288131E03093A6022093C802F1
:101830001092A7021092C90224E0629FB001112405
:101840006A5F7F4FDC01ED91FC910190F081E02D0A
:1018500009956E2D702F89819A810E949208602FC0
:1018600070E089819A810E9492086F2D712F898181
:101870009A810E949208612F70E089819A810E946A
:10188000920881E0DF91CF911F910F91FF90EF902F
:101890000C94EE099A01803130F4AB01682F86E395
:1018A00098E00C94050C90EF980F903128F4AB0160
:1018B000692F8FE298E0F5CF8052803128F4AB0198
:1018C000682F88E298E0EDCF0895CF92DF92EF92F3
:1018D000FF920F931F93CF93DF93182FC62FE82EFD
:1018E000F12CC7018C5B9A4F6C01FC01618B662364
:1018F00069F00E949206F701EE0FFF1FEE0FFF1F27
:10190000EC56FA4F60837183828393831F3008F013
:10191000B4C0F601D281153008F0ACC00C2F10E035
:1019200061E08D2F0E9444050115110511F460E05E
:1019300004C00F3F110561F461E08D2FDF91CF915D
:101940001F910F91FF90EF90DF90CF900C941605B0
:10195000ED2FF0E0E258FB4FE491E150EF3008F05A
:1019600084C0F0E0EA54F34F0C945A31C50CD20C09
:10197000D70CE10CEB0C350D350D350DF50CFF0CCE
:10198000090D130D200D350D280D84B5806884BD1B
:10199000C7BDDF91CF911F910F91FF90EF90DF9026
:1019A000CF90089584B5806284BDC8BDF2CF809188
:1019B00080008068809380001093890000938800E5
:1019C000E8CF8091800080628093800010938B002C
:1019D00000938A00DECF8091800088608093800031
:1019E00010938D0000938C00D4CF8091900080687C
:1019F000809390001093990000939800CACF809133
:101A0000900080628093900010939B0000939A0056
:101A1000C0CF8091900088608093900010939D00CB
:101A200000939C00B6CF8091C00080688093C00076
:101A30008091C0008F7B8093C000C093CF00A9CF5E
:101A40008091C00080628093C000C093D000A1CF7D
:101A50008091C20088608093C2008091C2008B7F19
:101A60008093C200C093D20094CF003811050CF0CF
:101A700063CF5DCFC7FF5BCF5FCF1F3120F4809175
:101A800042058111C09581EF810F50E040E060E098
:101A900070E1CF3F61F040E050E170E060E0CC23C6
:101AA00031F0F0E1CF9FA001112461E070E0DF91FF
:101AB000CF911F910F91FF90EF90DF90CF900C94FA
:101AC0004A0CCF92DF92EF92FF920F931F93CF9326
:101AD000C82F282F30E0F901E754FC4FDF01A2584E
:101AE000BF4F8C91681708F4862F90814091D804DD
:101AF000442331F0913011F09430F9F480E01DC0AE
:101B00009430D9F48823C9F02C5B3A4FF9019189BC
:101B1000992399F0A9EBB3E030E020E09D91943057
:101B200009F04EC0F901EC5BFA4F9189911148C060
:101B3000C22FE35BFE4F91E090832C2F30E0F90140
:101B4000E754FC4F9081943009F041C081113FC0AF
:101B5000CA30E8F52F56394FF9018081811125C02F
:101B600089EBC82E83E0D82E10E000E0F6018191C9
:101B70006F018430A9F4F801EC5BFA4F8189882366
:101B800079F07F0183EBE81A8EEFF80AF701808184
:101B9000882331F060E0802F0E94650CF7011082ED
:101BA0000F5F1F4F0930110509F760E08C2FCF91AF
:101BB0001F910F91FF90EF90DF90CF900C94650CE8
:101BC0002F5F3F4F2930310509F0A8CFB6CF682FDE
:101BD000EDCFCF93DF930E94C402C0918D07D0E078
:101BE00080918E078C171D0681F07CF0FE01E75472
:101BF000FC4F80816CE3823019F0833021F46FEF69
:101C00008C2F0E94610D2196EBCFDF91CF9108952B
:101C10000895E091A5028091A402E81730F4F0E065
:101C2000E051FD4F808190E008958FEF9FEF089580
:101C30009091A5028091A4022FEF3FEF981748F4EE
:101C4000E92FF0E0E051FD4F208130E09F5F90935D
:101C5000A502C90108958091A4029091A502891B53
:101C6000990B0895CF92DF92EF92FF920F931F93FB
:101C7000CF93DF937C01CB018A012091A60222231E
:101C800089F0EB016B01C40ED51ECC15DD0569F0A2
:101C90006991D701ED91FC910190F081E02DC70190
:101CA0000995F3CF642F0E949908C801DF91CF9165
:101CB0001F910F91FF90EF90DF90CF900895CF93F9
:101CC000DF931F92CDB7DEB769832091A60222234E
:101CD000F9F02091C902203258F021E030E0FC01F7
:101CE0003383228390E080E00F90DF91CF910895BD
:101CF0008091A702E82FF0E0E855FD4F998190838D
:101D00008F5F8093A7028093C90281E090E0ECCFBF
:101D100061E0CE0101960E949908F7CF4FE050E0B4
:101D200062E773E086E693E00C94122EDC01FB017F
:101D300012962C911297848195812817190641F4E7
:101D400091818081813A31F49D7F81E0913009F069
:101D500080E008958132E1F79B3029F482815C961E
:101D60008C9381E008959A3099F783815D968C93E6
:101D7000F8CFFB0120812138B1F42381223299F47C
:101D8000DC0112964C91129724813581421713067B
:101D900051F421E05C962C934EE450E068E073E04F
:101DA00080E80C94440390E080E00895CF93DF93A3
:101DB000CDB7DEB769970FB6F894DEBF0FBECDBFC3
:101DC000FC01DB019C919F5F9C939E012D5F3F4F27
:101DD00081E1D9011D928A95E9F729E0298384E000
:101DE0008A8391E09D8383E08E832A8721E22B877B
:101DF0009C879D879F8722E2288B2EE4298B27E0F2
:101E00002B8B25E02C8B8E8B20E430E0388F2F8BB2
:101E1000998F82818B83838180688D8B49E150E02B
:101E2000BE016F5F7F4F80E00E94440369960FB64A
:101E3000F894DEBF0FBECDBFDF91CF910895FC01B6
:101E4000838180640C94E2050A970C941F0FE4E8E8
:101E5000F3E0248535852817390711F41586148693
:101E6000329623E0EC38F207A1F748E050E060E951
:101E700073E08EE893E00C94240FE0E9F3E030E0A7
:101E800020E0419151912F5F3F4F452B79F4220F74
:101E9000331FF901EC57FC4F9387828748E050E0ED
:101EA00060E973E08EE893E00C94240F2430310550
:101EB00041F7F4CFDC01FB0112962C91129784813B
:101EC00095812817190641F491818081813A31F476
:101ED0009D7F81E0913009F080E008958132E1F743
:101EE0009B3029F4828155968C9381E008959A3035
:101EF00099F7838156968C93F8CFFB012081213886
:101F0000B1F42381223299F4DC0112964C9112979C
:101F1000248135814217130651F421E055962C9304
:101F200047E150E061EF72E080E80C94440390E0F8
:101F300080E00895CF93DF93CDB7DEB769970FB6F2
:101F4000F894DEBF0FBECDBFFC01DB019C919F5F0B
:101F50009C939E012D5F3F4F81E1D9011D928A958F
:101F6000E9F729E0298384E08A8391E09D8383E077
:101F70008E832A8721E22B879C879D879F8722E279
:101F8000288B27E1298B27E02B8B25E02C8B8E8B50
:101F900020E430E0388F2F8B998F82818B8383816F
:101FA00080688D8B49E150E0BE016F5F7F4F80E01C
:101FB0000E94440369960FB6F894DEBF0FBECDBFF2
:101FC000DF91CF910895CF93DF93EC01FB012A813C
:101FD000848195812817190609F04BC08181908171
:101FE000913A79F4813029F0833039F48F898093E4
:101FF000F10081E0DF91CF9108958230D1F5888D95
:10200000F6CF9132B1F58B3019F482818F8BF1CFFD
:102010008A3019F48381888FECCF893051F566813D
:1020200077818381833079F48C8D9D8D6817790752
:1020300001F58A8D9B8D0E9488038C8D9D8D906803
:102040009D8F8C8FD6CF823051F46130710589F429
:1020500061E070E0CE0149960E948803CACF8130CA
:1020600041F46830710529F468E070E0CE010E9605
:10207000F3CF80E0BFCFCF93DF93CDB7DEB7299703
:102080000FB6F894DEBF0FBECDBFFC014281FB014D
:10209000248135814217130659F52081213841F5F5
:1020A00023812132D1F489E0EDE1F1E0DE011196E6
:1020B00001900D928A95E1F749E050E0BE016F5F13
:1020C0007F4F80E00E94440329960FB6F894DEBF4C
:1020D0000FBECDBFDF91CF910895223249F421E0A8
:1020E000FC01278B45E450E06CEA72E080E8EACF1F
:1020F00090E080E0E9CFCF93DF93CDB7DEB769976B
:102100000FB6F894DEBF0FBECDBFFC01DB019C9182
:102110009F5F9C939E012D5F3F4F81E1D9011D92EE
:102120008A95E9F729E0298384E08A8391E09D83F9
:1021300083E08E839F8398872A8721E22B879C8761
:102140009D879F8722E2288B25E4298B27E02B8B14
:1021500025E02C8B8E8B20E430E0388F2F8B998FED
:1021600082818B83838180688D8B49E150E0BE0141
:102170006F5F7F4F80E00E94440369960FB6F8942A
:10218000DEBF0FBECDBFDF91CF910895CF92DF921A
:10219000FF920F931F93CF93DF938C01F42EE62FC2
:1021A000F0E0EE0FFF1FE455FF4FC590D490D8012B
:1021B000ED91FC910484F585E02D6C2DC801099505
:1021C000EC01892B11F4F11070C0D0FE0CC0D801C5
:1021D000ED91FC910484F585E02D4F2D60EEC80152
:1021E0000995C82BD92BD1FE0CC0D801ED91FC91DB
:1021F0000484F585E02D4F2D61EEC8010995C82BAB
:10220000D92BD2FE0CC0D801ED91FC910484F58548
:10221000E02D4F2D62EEC8010995C82BD92BD3FEB6
:102220000CC0D801ED91FC910484F585E02D4F2D73
:1022300063EEC8010995C82BD92BD4FE0CC0D80178
:10224000ED91FC910484F585E02D4F2D64EEC801DD
:102250000995C82BD92BD5FE0CC0D801ED91FC9166
:102260000484F585E02D4F2D65EEC8010995C82B36
:10227000D92BD6FE0CC0D801ED91FC910484F585D4
:10228000E02D4F2D66EEC8010995C82BD92BD7FE3E
:102290000CC0D801ED91FC910484F585E02D4F2D03
:1022A00067EEC8010995C82BD92BCE01DF91CF91DC
:1022B0001F910F91FF90DF90CF900895FF920F93A1
:1022C0001F93CF93DF93EC01F62E41E00E94C610DE
:1022D0008C01892BA9F0E881F9810284F385E02D36
:1022E000CE01099540E06F2DCE010E94C610892BCA
:1022F00039F0E881F9810284F385E02DCE0109955A
:10230000C801DF91CF911F910F91FF900895FC01BB
:1023100082818F5BFB01808381E00895089590E0C6
:1023200080E00895FC019C01285F3F4F90E080E031
:1023300044814111019614823196E217F307C1F7E7
:102340000895CF93DF93DC0190E2960F9830B0F4BC
:1023500014968C91149721E030E001C0220F9A95D9
:10236000EAF7442341F0282B14962C9381E090E067
:10237000DF91CF91089520952823F6CFFD01369661
:102380004423D1F0CD010C96EF012991621771F32E
:10239000C817D907D1F790E080E02191211105C03D
:1023A000A80FB91F16966C93E1CF01968630910560
:1023B000A1F790E080E0DCCF90E080E02191621313
:1023C00005C0A80FB91F16961C92D0CF0196863073
:1023D0009105A1F7EECF0F931F93CF93DF93082FB3
:1023E000162FC82FD0E0C754DC4FFE01EF5DFE4F23
:1023F00060816623A1F0112309F44CC06C3FF0F119
:1024000082EE90E06C3F21F06D3F59F58AEE90E04E
:102410000E943D0FCF5DDE4F8881811126C0409123
:10242000720350917303609174037091750381E09E
:1024300090E0A0E0B0E004C0880F991FAA1FBB1F66
:102440000A95D2F71123C9F1842B952BA62BB72B14
:102450008093720390937303A0937403B0937503F6
:1024600008C089EE90E06E3F99F280913D05882387
:10247000B1F2DF91CF911F910F91089541E085EA6C
:1024800093E00E94A111892B29F285EA93E00E9432
:10249000242EC0CF6C3F78F082EE90E06C3F41F08C
:1024A0008AEE90E06D3F21F06E3FF9F689EE90E004
:1024B0000E94270FAFCF40E0E2CF80959095A09586
:1024C000B09584239523A623B723C2CFCF92DF9262
:1024D000EF92FF920F931F93CF93DF93D82FC62FC6
:1024E00021E0209338053091D304832F68E10E94C6
:1024F0003A319D1304C03831E8F4C093D804ED2E6E
:10250000F12CF701E650FB4F8081882311F1C111B6
:1025100049C0909132058917A8F48F5F8083C1E08C
:102520008C2FDF91CF911F910F91FF90EF90DF9053
:10253000CF900895CC2319F38091D80482278093FB
:10254000D804DDCF81E0808380919407815080930F
:1025500094078CEF8D0F883000F5C11116C08701EC
:102560000A5D1A4FF8018081882379F0E091D60442
:10257000F0E0EE5EFA4F8081811107C060E084E1F7
:102580008D0F0E94EB11F8011082E091D604F0E06B
:10259000EE5EFA4F8081811109C0D09395076C2FB0
:1025A0008D2F19C0809194078F5FD1CF84E18D0F5B
:1025B00080939507E82FF0E0EE5EFA4FC0836C2F12
:1025C0000E94EB11C11109C060E08D2F0E94EB1138
:1025D00060E0809195070E94EB110BEB14E08FEB0C
:1025E000C82E84E0D82EF80181918F01CC2379F098
:1025F000882349F08150990BE816F90621F483816C
:102600006FEF81110FC0C016D10669F789CF8823FB
:10261000D1F38150990BE816F906A9F78381882335
:1026200091F360E081500E94610DEDCF8F929F92F7
:10263000AF92BF920F931F93CF93DF93CDB7DEB7C7
:10264000A1970FB6F894DEBF0FBECDBF19A24230DE
:1026500008F44AE08E010F5D1F4F842E912CB12C9F
:10266000A12CA50194010E94CB2EE62FB901CA012D
:10267000EA3044F5E05DD801EE938D01232B242B45
:10268000252B79F790E080E0109769F0FD0101902B
:102690000020E9F73197AF014A1B5B0BBD0186E1D2
:1026A00093E00E947C06A1960FB6F894DEBF0FBEA1
:1026B000CDBFDF91CF911F910F91BF90AF909F90B1
:1026C0008F900895E95CD7CF009769F0FC010190E5
:1026D0000020E9F73197AF01481B590BBC0186E197
:1026E00093E00C947C0690E080E00895CF92DF9216
:1026F000EF92FF92CF93DF936C01990FEE08FF08E2
:10270000F7FE19C06DE286E193E00E942D04EC0112
:1027100066277727CB016C197D098E099F094AE04E
:102720000E9416138C0F9D1FDF91CF91FF90EF90A9
:10273000DF90CF9008954AE0C701B601DF91CF91B5
:10274000FF90EF90DF90CF900C9416130E947613B9
:102750008AE794E00C944304682F70E090E080E0F6
:102760004AE00E9416138CE794E00C9443040F9304
:102770001F93CF93DF93162F082FEC0189910E94AE
:10278000AC138C2F801B8117C8F3DF91CF911F9161
:102790000F9108953F924F925F926F927F928F9226
:1027A0009F92AF92BF92CF92DF92EF92FF920F93E0
:1027B0001F93CF93DF9300D0CDB7DEB7FC014B0161
:1027C000042F9681878199838A83C080D180C11428
:1027D000D10409F479C0418550E0D60114968D9159
:1027E0009C9184179507B0F4312C832D0F900F9096
:1027F000DF91CF911F910F91FF90EF90DF90CF90DD
:10280000BF90AF909F908F907F906F905F904F9010
:102810003F900895F601808191E09093A602809305
:10282000C8021092A7021092C90220E0BE016F5F99
:102830007F4FC6010E94DE0A382E8823A9F210E0DD
:10284000B12CA12CA016B10680F6D60114968D915C
:102850009C917801EA18FB088E159F0508F47C010D
:1028600041E0C8018E199F09A816B90608F440E096
:102870006E2D613208F060E2F60180810E94160937
:102880001092A5028093A4028E151F0409F0ACCF0C
:1028900034016A0C7B1C2301C201861997098E152D
:1028A0009F0578F4D60111968D919C91DC01ED91F4
:1028B000FC910284F385E02D0995F20181932F01AB
:1028C000EBCFAE0CBF1CBECFA281B381109709F431
:1028D0008BCF2481358110E0418550E023303105D4
:1028E00071F4816089839A834F5F5F4F9401BE01C9
:1028F0006F5F7F4FCD010E941B08382E76CF2115C8
:10290000310519F490689983F1CF2230310511F423
:102910009F77F9CF2130310549F7906CF4CF0F93B1
:102920001F93CF93DF93CDB7DEB7A1970FB6F8947F
:10293000DEBF0FBECDBF05E418E0F80180859185AC
:10294000188A198A1A8A1B8A9A8389831C821B8295
:1029500081E08A878BE390E098878F831B868EE0E7
:1029600089874EE0BE016C5E7F4FCE0101960E94CA
:10297000CA138C899D89982789279827F801918304
:1029800080838E899F8998278927982793838283BC
:10299000888D998D98278927982795838483A19678
:1029A0000FB6F894DEBF0FBECDBFDF91CF911F9160
:1029B0000F9108954F925F926F927F928F929F92A4
:1029C000AF92BF92CF92DF92EF92FF92CF9360E9E6
:1029D00071E080E090E00E94B0051092F506109240
:1029E000F4061092F7061092F606CAE0812C912C9C
:1029F0005401C12CD12C76010E948F148091C30404
:102A0000883008F441C08091490890914A08092E05
:102A1000000CAA0BBB0BC80ED91EEA1EFB1E809130
:102A2000470890914808092E000CAA0BBB0B880E92
:102A3000991EAA1EBB1EC150F9F68AE0482E512CE1
:102A4000612C712CC701B601A30192010E94992E3D
:102A50003093F5062093F406C501B401A301920159
:102A60000E94992E3093F7062093F606CF91FF909F
:102A7000EF90DF90CF90BF90AF909F908F907F901E
:102A80006F905F904F90089580914508909146080F
:102A9000BECFCF93DF93EC01BC01655F7F4F4885CC
:102AA0000E94CA13882301F1488550E030E020E0FD
:102AB00060E070E0CB0124173507CCF4982F872F06
:102AC000762F6627EA85E1110AC0FA01E21BF30BB3
:102AD000EC0FFD1FE2856E2B2F5F3F4FECCFFE0109
:102AE000E20FF31FE385F7CF6FEF7FEFCB01DF91AD
:102AF000CF9108958F929F92AF92BF92CF92DF9223
:102B0000EF92FF920F931F93CF93DF93EC014A0153
:102B10005B01888199810E9449152A8101E010E0BA
:102B200002C0000F111F2A95E2F701501109012E72
:102B3000000C220B330BAB81680179010A2E04C013
:102B4000CC0CDD1CEE1CFF1C0A94D2F7C094D09470
:102B5000E094F094C622D722E822F922E881F98194
:102B6000B901A801482159216A217B2104C0440FE1
:102B7000551F661F771FAA95D2F74C295D296E292C
:102B80007F292085CF01DF91CF911F910F91FF9079
:102B9000EF90DF90CF90BF90AF909F908F900C946C
:102BA000FC0ACF93DF93CDB7DEB767970FB6F894E3
:102BB000DEBF0FBECDBFE5E4F8E020853185188A81
:102BC000198A1A8A1B8A3A8329831C821B8291E004
:102BD0009A872CE130E038872F831B8699879E01E6
:102BE0002F5F3F4F3D8B2C8B92E09E8B93E09F8B12
:102BF000282F30E037832683482F50E070E060E0D4
:102C0000CE0144960E947A1567960FB6F894DEBFFF
:102C10000FBECDBFDF91CF9108958091C30488305E
:102C200008F08850809301078091CD049091CE04E4
:102C300090930307809302078091CF049091D00472
:102C400090930507809304078091C6040E94D115D4
:102C50000C94DA14EF92FF920F931F93CF93DF93AC
:102C6000CDB7DEB7C154D1090FB6F894DEBF0FBEA1
:102C7000CDBF85E4E82E88E0F82EF70180859185A8
:102C80001EAA1FAA18AE19AE98A78FA31AA619A636
:102C900011E018AB89E190E09EA78DA719AA1FA7A4
:102CA00020E040E050E0BA01CE0187960E94FC0A85
:102CB000F701808591851BA21CA21DA21EA29D8BDF
:102CC0008C8B1F8A1E8A1D8F8AE190E09B8F8A8FD2
:102CD0001E8E1C8FCE0144969FAF8EAF03E02196CF
:102CE0000FAF219722961FAE229746E050E060E09A
:102CF00070E08A960E947A15F70180859185188A7E
:102D0000198A1A8A1B8A9A8389831C821B821A87D2
:102D10008CE190E098878F831B861987CE010196FE
:102D20009BAF8AAF0CAF1DAE44E050E060E070E0B6
:102D3000C9960E947A15CF5BDF4F0FB6F894DEBFBD
:102D40000FBECDBFDF91CF911F910F91FF90EF90FC
:102D50000895EF92FF920F931F93CF93DF93CDB718
:102D6000DEB7ED970FB6F894DEBF0FBECDBF8091F2
:102D70004D0890914E08009711F00E94103264E6C1
:102D800070E080E090E00E94B00586E090E00E9454
:102D900074318C0188E6F80180838CE198E092839D
:102DA0008183138280E290E09583848310934E08A0
:102DB00000934D080E94DE08FF24F394F801F3828B
:102DC000C8010E94B80BE82E882309F49AC08091AC
:102DD0004D0890914E081EAA1FAA18AE19AE98A7CA
:102DE0008FA31AA619A6F8AA2BE630E03EA72DA7B6
:102DF00019AAFFA61BA21CA21DA21EA29D8B8C8B32
:102E00001F8A1E8AFD8E88E690E09B8F8A8F1E8E19
:102E1000FC8ECE0187969BAF8AAFFCAE87E08DAF6C
:102E200041E050E060E070E0CE01CA960E947A1561
:102E300001E010E08AAD9BAD0E944915AB01BC01D9
:102E40008CAD980102C0220F331F8A95E2F7C901A9
:102E50000197092E000CAA0BBB0B2DAD04C0769573
:102E60006795579547952A95D2F784239523A623EE
:102E7000B7230197A105B10539F461E070E080E066
:102E800090E00E94B005D6CF64E670E080E090E06C
:102E90000E94B00520E047E050E060E070E0CE0125
:102EA00044960E94FC0A64E670E080E090E00E9494
:102EB000B0050E942A1680E00E94D11580914D082D
:102EC00090914E08188A198A1A8A1B8A9A838983D4
:102ED0001C821B8281E08A872BE630E038872F83B3
:102EE0001B86898720E041E050E060E070E0CE0181
:102EF00001960E94FC0A64E670E080E090E00E9487
:102F0000B0058E2DED960FB6F894DEBF0FBECDBF87
:102F1000DF91CF911F910F91FF90EF9008958F92C5
:102F20009F92AF92BF92CF92DF92EF92FF921F9348
:102F3000CF93DF93EC016A017B0120E030E040E8B1
:102F40005FE3CB01B6010E94692F87FDA3C020E09B
:102F500030EC4AE555E4C701B6010E94C8301816A6
:102F60003CF4C12C30ECD32E3AE5E32E35E4F32EBD
:102F70006B817C818D819E810E9416304B015C01AA
:102F800020E030E040E855E4C701B6010E94CD30B2
:102F90009B01AC01C501B4010E946E2F20E030E01E
:102FA00040E05FE30E94FD2E20E030E040E85FE378
:102FB0000E94FC2E6B017C0120E030E040E450E4F4
:102FC0000E94692F87FD6DC020E030E04FE753E499
:102FD000C701B6010E94C830181634F4C12CD12C98
:102FE0009FE7E92E93E4F92E89819A81288131E0C7
:102FF0003093A6022093C8021092A7021092C90231
:10300000DC01ED91FC910190F081E02D60E00995EB
:1030100081E00E94EE0941E061E088810E9416098A
:103020001092A5028093A40289819A81DC01ED911E
:10303000FC910284F385E02D0995182F482F4F76D7
:10304000406160E0CE010E94DD0BC701B6010E9425
:10305000E72F462F6EEFCE010E94DD0B412F60E07F
:10306000CE010E94DD0B65E070E080E090E00E9400
:10307000B005412F406A60E0CE01DF91CF911F91F2
:10308000FF90EF90DF90CF90BF90AF909F908F9088
:103090000C94DD0BC12CD12C20E8E22E2FE3F22E74
:1030A00067CFC12CD12C80E4E82EFE2C9DCFCF938E
:1030B000DF93EC010E94DE0840E860E0CE010E9450
:1030C000DD0B6AE070E080E090E00E94B00540E037
:1030D00050E06AE774E4CE010E948F1780E498E71D
:1030E000ADE7B1E08B839C83AD83BE83DF91CF914D
:1030F0000895CF93DF93EB010E94832E8883CE0146
:10310000DF91CF9108950F931F93CF938C010E946D
:10311000832EC82FC80101960E94832E2C2F30E0E9
:10312000322F2227820F932F911DCF911F910F9144
:103130000895CF93DF93EB010E94832E8883CE0105
:10314000DF91CF91089585ED8093BC0080911203AB
:1031500090911303A0911403B09115030796A11D3C
:10316000B11D23E0B695A795979587952A95D1F738
:103170002091BC0024FD03C01092100308954091DB
:103180001203509113036091140370911503452BA2
:10319000462B472B69F30097A105B10541F02AE2C0
:1031A0002A95F1F700C00197A109B109E1CF8091FB
:1031B00011030C94F5080C948B2E1F93CF93DF937F
:1031C000EC01162F672F0E94DB18612FCE010196AC
:1031D000DF91CF911F910C94DB18EF92FF920F9328
:1031E0001F93CF93DF9389EBE82E83E0F82E07E35C
:1031F00014E0D0E0C0E0F70161917F01CE010E94B0
:10320000DB18F70166ADCE018C599F4F0E94DB1889
:10321000F80161918F01CE0188539F4F0E94DB1806
:10322000F80166ADCE01845D9E4F0E94DB182196A9
:10323000CF33D10501F76091B5047091B60481E9EF
:1032400091E00E94DD186091B7047091B80483E9A1
:1032500091E00E94DD186091B9047091BA0485E98B
:1032600091E00E94DD180BEB14E0C7E9D1E0F80112
:1032700061918F01CE010E94DB182196CB39F1E0DC
:10328000DF07A9F70FEB14E0C1EAD1E0F801619183
:103290008F01CE010E94DB182196C53AF1E0DF07CD
:1032A000A9F76091C3048AEA91E00E94DB1860915B
:1032B000C5048BEA91E00E94DB186091C60482ECA1
:1032C00091E00E94DB186091C7047091C80484ECFF
:1032D00091E00E94DD186091D10486EC91E00E949B
:1032E000DB186091C9047091CA0487EC91E00E94D8
:1032F000DD186091CD047091CE0489EC91E00E94BC
:10330000DD186091D2048BEC91E00E94DB18609193
:10331000D3048CEC91E00E94DB186091D4048DEC16
:1033200091E00E94DB186091D5048EEC91E00E9440
:10333000DB186091D6048FEC91E00E94DB1860915D
:103340003A0580ED91E00E94DB1860913B0581ED2C
:1033500091E00E94DB1860913C0582ED91E00E94B3
:10336000DB1860913D0583ED91E00E94DB186091D0
:10337000CB047091CC0484ED91E00E94DD18609143
:10338000CF047091D00486ED91E00E94DD180AED23
:1033900014E0C4EFD1E0F80161918F01CE010E94E9
:1033A000DB182196C431F2E0DF07A9F70AEF14E039
:1033B000F80161918F01CE010E94DB182196CC3279
:1033C000F2E0DF07A9F76091320584E392E00E9402
:1033D000DB1860913E0585E392E00E94DB18609166
:1033E0003F0586E392E00E94DB186091400587E389
:1033F00092E00E94DB186091410588E392E00E9410
:10340000DB186091420589E392E00E94DB1865E6D3
:1034100088EE93E0DF91CF911F910F91FF90EF9095
:103420000C94DB181F920F920FB60F9211248F93FA
:103430009F938091E1009091E100937F9093E10050
:1034400083FF0FC01092E90091E09093EB0010927F
:10345000EC0092E39093ED0010929F0298E090931D
:10346000F00082FF22C093E09093E9009091F20077
:10347000992319F09AE39093E80090919902992387
:1034800041F090919902915090939902911101C04D
:103490005D9A90919E02992341F090919E029150E5
:1034A00090939E02911101C0289A84FF18C08091C8
:1034B000E2008E7E81608093E2008091E1008F7E49
:1034C0008093E10080919C028E7E806180939C02BB
:1034D0009F918F910F900FBE0F901F90189580FFB6
:1034E000F7CF8091E2008E7E80618093E200809130
:1034F000E1008E7E8093E10080919C028E7E81604F
:10350000E5CF1F920F920FB60F921124CF92DF9248
:10351000EF92FF920F931F932F933F934F935F93DD
:103520006F937F938F939F93AF93BF93EF93FF938B
:10353000CF93DF93CDB7DEB76C97DEBFCDBF1092D0
:10354000E9008091E80083FF25C068E0CE01459640
:103550000E947B0382EF8093E8008D8987FF39C04A
:103560009091E80090FFFCCF982F907609F034C13D
:103570009E894F89588D2F89F88C911131C08038E0
:1035800061F580919A028093F1001092F1008EEF24
:103590008093E8006C960FB6F894DEBF0FBECDBFE7
:1035A000DF91CF91FF91EF91BF91AF919F918F915B
:1035B0007F916F915F914F913F912F911F910F914B
:1035C000FF90EF90DF90CF900F900FBE0F901F9065
:1035D00018959EEF9093E800C7CF1092F100D5CFD9
:1035E000913059F48111D3CF4130510581F680914A
:1035F0009A028D7F80939A02CACF933049F4811149
:10360000C6CF4130510519F680919A028260F2CFFF
:10361000953041F48091E80080FFFCCF2068209332
:10362000E300B5CF963009F0A9C00B8D1C8D22E0C8
:103630001092E9001092970210929602F2122EC098
:1036400010929502109294020E94FC031F8299E04E
:103650009983FA8291E09E8390EA98879AEF9987FE
:103660002091960230919702275F3F4F3C832B8336
:103670008D831092E9001092970210929602109397
:1036800095020093940249E050E0BE016F5F7F4FC6
:1036900080E00E9444030E94FC0379CF10939502BE
:1036A000009394020E94E803DC0112960D911C9194
:1036B0000115110509F44BC1D801ED91FC9104806D
:1036C000F581E02DBE016B5E7F4FC8010995009723
:1036D00009F038C1F80100851185EACFF3E0FF1247
:1036E0000EC08F89882309F440C0823061F440E81D
:1036F00060E181ED93E00E941103811148CF81E2E6
:103700008093EB0047CF813029F440E866E08AECF3
:1037100093E0F1CF833099F70E94E803DC01129621
:10372000ED90FC908E010F5F1F4F6801E114F104D2
:1037300079F0D701ED91FC910680F781E02DB80179
:10374000C7010995080F111DF701E084F184EECF40
:10375000D8011C92F60101900020E9F73197BF01D2
:103760006C197D0940E0C601C6CF64EB73E0FB0134
:10377000449150E080E80E94440309CF973009F457
:10378000BECF983021F481E08093F10000CF9930D2
:1037900009F0FDCE837009F0B2CFE1E0F1E081E005
:1037A00031E096E32191222371F08093E900309378
:1037B000EB00DF0111972C912093EC009093ED002A
:1037C0008F5F873079F78EE78093EA001092EA00E6
:1037D0008F8980939F02DBCE8B8D9C8D1092E900A8
:1037E0001092970210929602909395028093940201
:1037F000898D81118CC08E899D89913A49F48132DD
:1038000009F07DCF47E050E06BE071E080E0B3CF9E
:10381000913209F074CF833269F48F89988DB0E0CA
:10382000A0E08093070190930801A0930901B09351
:103830000A01ADCE803239F467E070E08BE091E0B0
:103840000E948803A4CE823209F0A1CE8F89809392
:103850001201EEEFFFE7859194918B3F9C4D51F162
:10386000E0E0F8E080910B0190910C01A0910D0136
:10387000B0910E01803B9440A105B105F1F4809117
:10388000120180FD1AC0EE3F8AE0F80789F587E74C
:1038900097E791838083809160008093980288E10C
:1038A0009BE00FB6F894A895809360000FBE9093AC
:1038B00060006DCEEEEFFAE0D5CF80819181873741
:1038C000974709F064CEA895809160008861809345
:1038D00060008091980280936000EE3F2AE0F2073A
:1038E00089F08091FE0A9091FF0A918380834FCEE8
:1038F000808191818737980751F29093FF0A8093D6
:10390000FE0AC5CF1092FF0A1092FE0A40CE0E9416
:10391000E803DC0112960D911C910115110509F4C3
:10392000EECED801ED91FC910190F081E02DBE0129
:103930006B5E7F4FC8010995811129CEF801008582
:103940001185EBCF181619060CF421CED8CEF1E074
:10395000FF12C4CE68EB73E00ACF1F920F920FB62E
:103960000F9211242F933F938F939F93AF93BF9305
:103970008091800290918102A0918202B091830295
:1039800030917F0223E0230F2D3758F50196A11DBA
:10399000B11D20937F028093800290938102A093B7
:1039A0008202B09383028091840290918502A0915B
:1039B0008602B09187020196A11DB11D80938402F9
:1039C00090938502A0938602B0938702BF91AF9136
:1039D0009F918F913F912F910F900FBE0F901F904D
:1039E000189526E8230F0296A11DB11DD2CF1F9274
:1039F0000F920FB60F9211242F933F934F935F9323
:103A00006F937F938F939F93AF93BF93EF93FF93A6
:103A10008091B900887F803609F44AC0F0F5883279
:103A200009F4A7C018F5803109F49BC0B8F48823C5
:103A300009F4F9C0883009F494C0FF91EF91BF9167
:103A4000AF919F918F917F916F915F914F913F9136
:103A50002F910F900FBE0F901F901895883109F489
:103A600088C0803251F78093EE0214C0803409F48C
:103A70009DC040F48033B9F38833F9F68093EE02A9
:103A800085ECB0C0803509F485C0883509F496C04E
:103A9000883499F60E94A318D0CF883909F48CC0D5
:103AA00038F5883729F050F4883611F0803729F638
:103AB00083E08093100310927E0257C0883809F487
:103AC0007BC0803919F0803809F0B7CF80917E0231
:103AD000803208F071C0E0917E0281E08E0F809309
:103AE0007E028091BB00F0E0E25AFD4F80833DC032
:103AF000803B39F0E0F4803A09F479C0883A09F063
:103B00009CCF84E08093100310925D0210925C02BF
:103B1000E091A202F091A302099580915C028111CB
:103B20000FC081E080935C0210923C0209C0803C8F
:103B300009F4A6CF883C09F4A3CF883B09F07DCFD8
:103B4000E0915D0281E08E0F80935D02F0E0E45C25
:103B5000FD4F80818093BB0090915D0280915C025B
:103B600029C08091EB028093BB0085EC8093BC0060
:103B700064CF9091ED028091EC02981758F5E09196
:103B8000ED0281E08E0F8093ED02F0E0E653FD4FF1
:103B90008081E9CFE091ED0281E08E0F8093ED020C
:103BA0008091BB00F0E0E653FD4F80839091ED02E1
:103BB0008091EC029817C8F285E8D8CFE091ED0229
:103BC00081E08E0F8093ED028091BB00F0E0E65320
:103BD000FD4F80838091EF0281115CCF81E0809363
:103BE000EA0284EA8093BC001092100326CF85EC91
:103BF0008093BC001092100380917E02803230F4DA
:103C0000E0917E02F0E0E25AFD4F108260917E0268
:103C100070E0E091A002F091A1028EE592E009959A
:103C200010927E020ACF1092EE0234CFCF93DF9330
:103C3000FC01DB01818114963C911497682F630F7E
:103C40007727771F683071059CF5C281D381209753
:103C500039F5B383A283908112969C9312971396A1
:103C60008C93139715968C911597890F808390E00C
:103C700080E0831708F52181C22FD0E0BE0160509B
:103C80007F4F16964D915C911797480F591FEA0187
:103C90004881EB0148832F5F21830196EACFEA0137
:103CA0004885598541155105D1F7B987A887D3CFE4
:103CB00080E0DF91CF91089581E0FBCFCF93DF9338
:103CC000109219031092180388EE93E0A0E0B0E080
:103CD00080931A0390931B03A0931C03B0931D03BE
:103CE00027EB31E030931703209316032FEF3FEFBC
:103CF000309323032093220310921F0810921E0872
:103D00008093200890932108A0932208B093230861
:103D100089EC91E090931D0880931C08C1E0C0934A
:103D20006A03C0936B0381E893E090936D038093E3
:103D30006C0310926F0310926E038BED91E09093E1
:103D400067038093660389EE91E0909371038093FB
:103D50007003C0938203C0938303D1ECD09381039B
:103D60000E94E80366E673E00E94161EC093880373
:103D7000C093890388E993E090938B0380938A032F
:103D800010928D0310928C038FEE91E09093850337
:103D9000809384038DEF91E090938F0380938E0343
:103DA000C0939903C0939A03D09398030E94E803A9
:103DB00064E873E00E94161EC0939F03C093A003A3
:103DC00081EB93E09093A2038093A1031092A4034C
:103DD0001092A3031092A8031092A70383E092E02D
:103DE00090939C0380939B0381E192E09093A603C0
:103DF0008093A503C093B203C093B3031092B4039E
:103E00001092B6031092B5031092B8031092B70344
:103E1000D093B1030E94E8036BE973E00E94161E81
:103E200010929707109298071092A1071092A2077C
:103E30001092A3071092A4071092A5071092A6074C
:103E40001092A7071092A8071092AD071092AE0724
:103E50001092AF071092B007E1EBF7E086E4DF01C4
:103E60001D928A95E9F7E7EFF7E083E2DF011D9203
:103E70008A95E9F710921A0810921B0862E087E110
:103E80000E9444050E9492066093A9077093AA07B6
:103E90008093AB079093AC0710929407109295070C
:103EA0001092960761E084E00E94440561E081E0A1
:103EB0000E94440560E080E00E94440561E081E0EA
:103EC0000E944405109207078FE3ECE0F7E0DF0162
:103ED000382F1D923A95E9F7EBE4F7E0DF01382F30
:103EE0001D923A95E9F710928A0710928B0795E098
:103EF00090938C0710928D0710928E07C0938F07B6
:103F000040E157E260E070E04093900750939107E2
:103F100060939207709393071092F3061092F50640
:103F20001092F4061092F7061092F6061092FD0613
:103F30001092FC061092FF061092FE0610920007E7
:103F400010920107109203071092020710920507C2
:103F5000109204071092060710929B062FE132E0A0
:103F600030939D0620939C0610929E0698EC9093A9
:103F70009F069AEF9093A0069BEF9093A1062CEFDB
:103F80002093A2069DEF9093A3069FEF9093A40623
:103F90001092A5061092B1061092B0061092B306C8
:103FA0001092B206E4EBF6E0DF01382F1D923A954D
:103FB000E9F7109244059FE090934505E6E2F1E0B1
:103FC000A6E4B5E001900D929A95E1F7E5E5F5E0FC
:103FD000DF011D928A95E9F7E4E9F5E0DF011D9222
:103FE0002A95E9F710929006E1E9F6E08AE0DF0110
:103FF0001D928A95E9F7C4E4D5E0CE01845495403A
:104000002196209145052817190631F02CF061E022
:1040100089810E944405F1CF8FE3E5E3F1E0A9EB4C
:10402000B3E001900D928A95E1F78FE3E8EFF3E0BA
:10403000DF01382F1D923A95E9F79AE19093160423
:10404000E4E7F1E0A7E3B4E0982F01900D929A9590
:10405000E1F7E6E7F4E0DF011D928A95E9F788ECE5
:10406000809394048AE493E09093B6048093B5041B
:104070008DE390E09093B8048093B7048BEC90E0CC
:104080009093BA048093B9041092BB041092BC04BC
:104090001092BD041092BE041092BF041092C0048E
:1040A0001092C1041092C2041092C3041092C4046E
:1040B00081E08093C5041092C6042EE130E0309375
:1040C000C8042093C7042AEF30E03093CA04209339
:1040D000C9043093CC042093CB0428E131E0309321
:1040E000CE042093CD043093D0042093CF041092BB
:1040F000D1049AE09093D2042EE02093D30427E1D8
:104100002093D40426E12093D50422E02093D60402
:104110001092D7041092D8048093D90420E2EAEDDB
:10412000F4E0DF01322F1D923A95E9F7EAEFF4E06F
:1041300038E1DF011D923A95E9F7E2E1F5E0DF01B0
:104140001D922A95E9F7109232051092330540EA44
:1041500050E060E070E04093340550933505609383
:104160003605709337051092380510923905809303
:104170003A0580933B0580933C0580933D058093F1
:104180003E0590933F0580934005909341058093B1
:1041900042051092430580E4809336088CE198E054
:1041A000909338088093370821E420932F08909348
:1041B00031088093300822E42093280890932A083D
:1041C0008093290810923D0810923E0810923F08F3
:1041D0001092400810924108109242081092430831
:1041E0001092440810924C0810924B0810924E08FE
:1041F00010924D08DF91CF910895CF93DF9300D0B7
:10420000CDB7DEB7789484B5826084BD84B5816013
:1042100084BD85B5826085BD85B5816085BD809191
:104220006E00816080936E00109281008091810009
:104230008260809381008091810081608093810001
:1042400080918000816080938000809191008260E5
:104250008093910080919100816080939100809182
:1042600090008160809390008091C1008460809371
:10427000C1008091C10082608093C1008091C10023
:1042800081608093C1008091C30081608093C300EE
:104290008091C00082608093C0008091C2008160E4
:1042A0008093C20080917A00846080937A0080912C
:1042B0007A00826080937A0080917A008160809396
:1042C0007A0080917A00806880937A0010929F0231
:1042D00010929A0210929C028091D7008160809384
:1042E000D70080EA8093D80089B5806189BD89B5FF
:1042F000826089BD89B5282F21702A8380FFFACF7B
:1043000061E070E080E090E00E94B0058091D8000C
:104310008F7C80618093D8008091E000807F8093C3
:10432000E0008091E1008E7E8093E1008DE080933B
:10433000E200559A209A8FEF9FEF9093230380938A
:10434000220368EE73E080E090E00E94B00568EE22
:1043500073E080E090E00E94B005E2E7F3E08FE0D8
:10436000DF011D928A95E9F74FE050E0BF0186E634
:1043700093E00E94122EBE016F5F7F4F88EE93E0A4
:104380000E9499188981853609F0E2C210E000E0A8
:10439000B80167547C4FC8010E949918B801685051
:1043A0007C4FC8018C599F4F0E949918B801695CD5
:1043B0007B4FC80188539F4F0E949918B8016A58D3
:1043C0007B4FC801845D9E4F0E9499180F5F1F4F5D
:1043D0000F331105E9F681E991E00E94831890936B
:1043E000B6048093B50483E991E00E94831890930A
:1043F000B8048093B70485E991E00E9483189093F4
:10440000BA048093B9046BEB74E087E991E00E94F1
:1044100099186FEB74E081EA91E00E9499186CEBB7
:1044200074E088E991E00E94991860EC74E082EAF7
:1044300091E00E9499186DEB74E089E991E00E9487
:10444000991861EC74E083EA91E00E9499186EEB90
:1044500074E08AE991E00E94991862EC74E084EAC1
:1044600091E00E94991863EC74E08AEA91E00E945E
:10447000991865EC74E08BEA91E00E94991880919C
:10448000C5048093C40466EC74E082EC91E00E9461
:10449000991884EC91E00E9483189093C80480934B
:1044A000C70461ED74E086EC91E00E94991887ECF6
:1044B00091E00E9483189093CA048093C90489EC08
:1044C00091E00E9483189093CE048093CD0462ED16
:1044D00074E08BEC91E00E94991863ED74E08CEC31
:1044E00091E00E94991864ED74E08DEC91E00E94D7
:1044F000991865ED74E08EEC91E00E94991866EDD4
:1045000074E08FEC91E00E9499186AE375E080ED09
:1045100091E00E9479186BE375E081ED91E00E94D3
:1045200099186CE375E082ED91E00E9479186DE3D3
:1045300075E083ED91E00E94791884ED91E00E948E
:1045400083189093CC048093CB0486ED91E00E9475
:1045500083189093D0048093CF0404EF11E0B80146
:104560006A517D4FC8010E9499180F5F1F4F043197
:10457000B2E01B07A1F7B8016A517D4FC8010E9444
:1045800099180F5F1F4F0C32E2E01E07A1F762E39C
:1045900075E084E392E00E9499186EE375E085E38C
:1045A00092E00E9479186FE375E086E392E00E9442
:1045B000991860E475E087E392E00E94791861E45D
:1045C00075E088E392E00E94991862E475E089E35F
:1045D00092E00E94791886E398E00E94571880ECD8
:1045E000C82E8CEFD82E8BE9E82EFF24F394C092CE
:1045F0003908D0923A08E0923B08F0923C0840E03B
:1046000050E064EB72E486E398E00E948F178FE23B
:1046100098E00E945718C0923208D0923308E09276
:104620003408F092350840E050E064EB72E48FE229
:1046300098E00E948F1788E298E00E945718C09275
:104640002B08D0922C08E0922D08F0922E0840E022
:1046500050E064EB72E488E298E00E948F178CE0EF
:104660008093B80010929B0288EB9BE0A0E0B0E042
:104670008093120390931303A0931403B093150334
:1046800081E08093110310E060E0812F0E94610DB2
:104690001F5F1E33C9F785EA93E00E94921185EAF5
:1046A00093E00E94242EE0E9F3E088E0DF011D9210
:1046B0008A95E9F748E050E0BF018EE893E00E9458
:1046C000240F0E949E060E9492066093AD0770938D
:1046D000AE078093AF079093B00790918A078091BF
:1046E0008B0749EB53E067EF73E0FA01342F309505
:1046F00021912250223038F48E2F232F2E0F91112A
:1047000001C0922F841B6E177F0791F780938B0750
:1047100090938A072091410530E0A8EEB3E00E9413
:10472000ED2E60939007709391078093920790937A
:1047300093078091C5048823E1F00E94A916811196
:1047400006C068EE73E080E090E00E94B00510E0E3
:104750000E94A916811101C164E670E080E090E03A
:104760000E94B0051B3009F0F6C01092C5041092EB
:10477000C4042224239400E8302E80919C02B82F98
:10478000B170FB2E80FD13C080919D0281114FC33B
:1047900080913E058111E9C010927E0380919D02B7
:1047A0008F5F843010F00C94AA2D80939D0280912D
:1047B0003905811186C08091410890914208A091ED
:1047C0004308B091440880933D0890933E08A0931D
:1047D0003F08B093400861E081E00E94160560E068
:1047E00084E00E94160561E084E00E94160560E006
:1047F00081E00E94160537E1E32EF12C412C512C6B
:1048000032014EE7C42E44E0D42E5FE4A52E54E0DE
:10481000B52E60E3862E64E0962EF6018491F501B4
:104820000491F4011491112311F40C94AE2D811113
:104830000E94CA04E12FF0E0EE0FFF1FEE5DFB4F78
:10484000A591B4918C91082331E020E009F430E087
:10485000832F922F092E000CAA0BBB0B0E2C04C029
:10486000880F991FAA1FBB1F0A94D2F7482A592AFA
:104870006A2A7B2A61E081E00E94160560E081E0FF
:104880000E941605F1E0EF1AF10808F0C6CF409239
:104890004108509242086092430870924408809107
:1048A0003D0890913E08A0913F08B09140088415C2
:1048B0009505A605B70529F081E080933905809319
:1048C000380580913805811106C0809194078823AE
:1048D00011F40C94D12D80913905811106C080917D
:1048E0009407882311F40C94CB2D82E1E82E85E007
:1048F000F82E10E000E092E0D92E802F8090410841
:1049000090904208A0904308B0904408002E04C044
:10491000B694A794979487940A94D2F7B501A4010A
:104920004095509560957095642F6170D7019D9169
:104930007D01691711F40C94B82D80FC02C00C9411
:10494000B22DB2E0DB120C94B32DD12C0C94B32D0C
:104950000E94ED1840CE1F5FFBCE1B3009F409CF3B
:104960000E942A160E940D1604CF15E0E12EF12CAC
:10497000412C512C320110E000E00E94A502409130
:10498000A5075091A6076091A7077091A8074C0151
:10499000990FAA08BB08DB01CA010996A11DB11D28
:1049A00088159905AA05BB057CF049505109610994
:1049B000710984169506A606B70634F00F5F1F4FDF
:1049C000480C591C6A1C7B1CE1E0EE1AF108A9F6A0
:1049D0000115110551F09801110F440B550BC3013E
:1049E000B2010E94992E49015A018091330581112B
:1049F00004C080913C05811121C010E000E02091AD
:104A0000D20430E0021713076CF40E94A502092EAD
:104A1000000CAA0BBB0B880E991EAA1EBB1E0F5FB3
:104A20001F4FEDCF2F5F3F4F032E000C440B550B54
:104A3000C501B4010E94992E49015A018092A5072F
:104A40009092A607A092A707B092A8070E9492068C
:104A50002B013C018091B9049091BA04AC014E5CE9
:104A60005F4F052E000C660B770B84169506A60685
:104A7000B70654F4C297092E000CAA0BBB0B88157D
:104A80009905AA05BB0544F0FFED8F16F3E09F06DC
:104A9000A104B1040CF408C18091A9079091AA0760
:104AA000A091AB07B091AC07B301A201481B590B11
:104AB0006A0B7B0B8091340590913505A0913605EA
:104AC000B0913705481759076A077B0710F0109215
:104AD00033058091D1048D7F8130A1F480919F07AF
:104AE0008111EEC08091B5049091B6044497092ECF
:104AF000000CAA0BBB0B61E088169906AA06BB0640
:104B00000CF0F1C08091D1048230A0F08091A00718
:104B10008111F6C08091B7049091B8040A96092ECD
:104B2000000CAA0BBB0B61E088159905AA05BB0513
:104B30000CF0F9C00091B9041091BA04C801012E1B
:104B4000000CAA0BBB0B88159905AA05BB050CF434
:104B5000FEC0E090B704F090B804C7010F2C000C21
:104B6000AA0BBB0BA5019401281B390B4A0B5B0B4D
:104B7000CA01B9010E9418304B015C01B8016E19DD
:104B80007F09072E000C880B990B0E9418309B019F
:104B9000AC01C501B4010E946E2F9B01AC0160E025
:104BA00070E080E89FE30E94FC2E20E030E040E0CF
:104BB00053EC0E94CD300E94E02F062E000C770BA4
:104BC000653671050CF0BCC070939E0760939D071D
:104BD000E0919D0720913B05222381F0909197075A
:104BE0008091330581110C94E32D992309F4E0C0E1
:104BF0001092970781E080933805E0E08E2F0E2E0B
:104C0000000C990BAA0BBB0B20919D0730919E07BE
:104C10004091A1075091A2076091A3077091A4074A
:104C2000481759076A077B07D9F040913305442399
:104C300009F4E9C01216130634F4409197074111A4
:104C400002C0E0931B0841E040933805E0937E03E7
:104C50008093A1079093A207A093A307B093A40702
:104C600080911A08482F082E000C550BFA01EE0F00
:104C7000FF1FEF54F84F318320834950584F9091D4
:104C8000AD07A42DA91BFA01A08382320CF0CCC081
:104C90008F5F80931A084092AD075092AE076092E2
:104CA000AF077092B0077ACD4092A9075092AA0739
:104CB0006092AB077092AC0781E08093330509CF17
:104CC000813009F01FCF8091B5049091B6044497CC
:104CD000092E000CAA0BBB0B88169906AA06BB0668
:104CE0000CF010CF60E08091D4040E946612809393
:104CF0009F07E091D404F0E0EE5EFA4F808302CF8C
:104D0000813009F017CF8091B7049091B8040A96CA
:104D1000092E000CAA0BBB0B88159905AA05BB052B
:104D20000CF008CF60E08091D4040E94661280935A
:104D3000A007E091D404F0E0EE5EFA4F8083FACE53
:104D400081E89FEF90939E0780939D0741CFA50137
:104D50009401281B390B4A0B5B0BCA01B9010E9455
:104D600018306B017C016091B5047091B604601B32
:104D7000710B072E000C880B990B0E9418309B01B9
:104D8000AC01C701B6010E946E2F20E030E040E088
:104D900053E40E94CD300E94E02F062E000C770BCA
:104DA0006C393FEF73070CF00FCF8FE790E0CACF5D
:104DB00080911A08082F082E000C110B8823C9F0C7
:104DC000C8010197F0E0E0E030E0E217F307A0F45B
:104DD0008017910789F0DC01A950B84F4C91E40F7E
:104DE000F11D47FDFA95829663E270E00E9446311C
:104DF000ECCF82E290E0E6CF880F991FFC01EF54E0
:104E0000F84FE081FBCE10921B081092970740915B
:104E10003C05442319F010927E031ACFE0937E03E1
:104E200041E04093380514CF10921A0834CF8130F6
:104E300009F080C18091C404882309F4EEC68091F2
:104E40003305882321F080913A058111E6C68091CF
:104E5000D904863009F060C080910007811105C037
:104E60000E94DA1481E0809300070E948F148091E1
:104E7000C3042091F4063091F506883008F44FC041
:104E80008091490890914A08821B930B9093F906F0
:104E90008093F80680914708909148082091F60683
:104EA0003091F706821B930B9093FB068093FA06D2
:104EB0004091C7045091C8042091F8063091F9063A
:104EC00037FF03C03195219531092417350724F4A4
:104ED0001092F9061092F80697FF03C091958195FC
:104EE00091098417950724F41092FB061092FA0694
:104EF0008091F8069091F906209101072130A1F4E4
:104F00002091FA063091FB063195219531093093B5
:104F1000F9062093F80623C010920007A6CF8091CF
:104F2000450890914608B0CF223061F49195819563
:104F300091099093F9068093F8068091FA06909172
:104F4000FB060AC0233081F42091FA063091FB065B
:104F50003093F9062093F8069195819591099093E5
:104F6000FB068093FA0609C0243079F49195819567
:104F700091099093F9068093F8068091060788239B
:104F8000B9F081508093060746C0253041F4209146
:104F9000FA063091FB06319521953109D9CF26309B
:104FA00061F2273051F72091FA063091FB06AFCF1E
:104FB0008091D504082F10E02091F8063091F90671
:104FC00037FF03C03195219531094091C9045091B3
:104FD000CA0407541C4FF801E75AFE4F9081911103
:104FE0008AC04217530784F02091FA063091FB06DD
:104FF00037FF03C03195219531094091CB04509181
:10500000CC04421753073CF461E00E946612F80199
:10501000E75AFE4F80830091F8061091F9068091BF
:10502000FC069091FD068017910761F1B801012EF1
:10503000000C880B990B0E9418306B017C01609169
:10504000020770910307072E000C880B990B0E9432
:1050500018309B01AC01C701B6010E946E2F20E001
:105060003EEF4FEF56E40E94CD300E94E02F709348
:105070007703609376031093FD060093FC0681E0AE
:10508000809338050091FA061091FB068091FE0688
:105090009091FF068017910709F480CBB801012E8B
:1050A000000C880B990B0E9418306B017C016091F9
:1050B000040770910507072E000C880B990B0E94BE
:1050C00018309B01AC01C701B6010E946E2F20E091
:1050D0003EEF4FEF56E40E94CD300E94E02F7093D8
:1050E0007903609378031093FF060093FE0681E036
:1050F0008093380553CB241735070CF08CCF2091C3
:10510000FA063091FB0637FF03C03195219531092E
:105110004091CB045091CC04241735070CF07BCF81
:1051200060E00E946612F801E75AFE4F808380918A
:105130003F0528CF823009F01AC10E9492064B0128
:105140005C018091D904833009F466C0B8F48130E1
:1051500009F456C0823009F021CB0E94E90D8091FC
:105160008F07882309F41ACB8092080790920907C9
:10517000A0920A07B0920B0783E04BC0853009F478
:10518000CAC008F4A9C0863009F008CB0E94C40246
:1051900000918D0710E09801295F384F7901DD24D7
:1051A000D39480918E078017110609F00CF48BC000
:1051B000F801E754FC4F808182508230D8F4F70127
:1051C000EC5BFF4FD70115968C9190918C07208155
:1051D000213009F0C6C02FEF30E0291B31098217BA
:1051E00013060CF4BAC01082D70115966C91802F6B
:1051F0000E94610D0F5F1F4FBFEFEB1AFB0AD1CF6B
:105200008092080790920907A0920A07B0920B07B4
:1052100085E08093D904C2CA80910807909109075C
:10522000A0910A07B0910B07B501A401481B590BC7
:105230006A0B7B0B8091900790919107A091920748
:10524000B0919307880F991FAA1FBB1F841795075A
:10525000A607B7070CF0E1C480914005882309F444
:10526000DCC40E94C40200918D0710E080918E077B
:105270008017110601F1FCF0F801E754FC4F808122
:1052800082508230A8F40E94732E60E071E00E9488
:105290004631F82E682F802F0E94610DF801E95FDA
:1052A000F84FDF01AC5BBF4F8F2D81708C93F5827F
:1052B0000F5F1F4FDBCF80918F07882309F46ECAE1
:1052C00086E08093D9048092080790920907A09203
:1052D0000A07B0920B0762CA0E94C40200918D07B0
:1052E00010E080918E078017110671F06CF0F801C4
:1052F000E754FC4F8081823021F46FEF802F0E94B1
:10530000610D0F5F1F4FEDCF80918F07882309F448
:1053100045CA87E0D6CF8091080790910907A091F0
:105320000A07B0910B07881A990AAA0ABB0A80914A
:10533000900790919107A0919207B09193078815DB
:105340009905AA05BB050CF068C40E94E90D80917F
:105350008F07882309F422CA0FCF890FF7018583AD
:1053600043CF981710F0D0823FCF891BF7CF8330FF
:1053700009F014CA0E9492064B015C0105E010E09E
:1053800054E6E52E809190068E3308F069C08F5F59
:105390008093900680919006282F30E0F901E75421
:1053A000FC4F67ADD901AC5BBA4F51969C91691720
:1053B00030F5E354FF4F9081992309F1220F331FF9
:1053C000220F331FF901EC56FA4F40805180628062
:1053D0007380A5019401241935094609570929014B
:1053E0003A019E9D90011124032E000C440B550B95
:1053F000421653066406750614F00E94610D0150B2
:10540000110909F0BFCFA9E0CA2ED12C9924939499
:10541000B7E0EB2E11E8812E0FE7702E86E193E0C6
:105420000E94B004892B81F186E193E00E946E0412
:105430002091B0063091B106F901E556F94F838706
:105440002115310581F49091A60680919E0698134E
:1054500013C02F5F3F4F3093B1062093B00610C0AA
:105460001092900697CF2130310571F59091A706E3
:1054700080919F06981768F71092B1061092B006B7
:1054800021E0C21AD10851F68091B2069091B3067C
:10549000181619060CF082C98530910509F4BBC1B4
:1054A0000CF029C18230910509F474C10CF0D9C007
:1054B000019709F073C98091A506843108F046C1AF
:1054C0008F5F8093A5066AC92830310509F0C1CFE6
:1054D0008091A7069091A00689130AC01092D90462
:1054E0008091A80690E09093B3068093B206C4CF53
:1054F0009091A106891307C080919C0690919D060A
:105500000E946413B9CF9091A206891307C06091DD
:10551000A9068091A8060E94610DAECF9091A306C6
:10552000891351C08091A8068E31F1F1A8F48C3115
:10553000D9F08D3191F161E00E9466120E948E0EC9
:1055400064EF71E080E090E00E94B00560E080913F
:10555000A8060E9466120CC0803291F150F181328F
:1055600051F770927E0304C0309277032092760345
:105570000E948E0E64EF71E080E090E00E94B00522
:1055800010927703109276031092790310927803A9
:1055900010927E030E948E0E6FCF4FEF5FE7509305
:1055A000770340937603E4CF309279032092780317
:1055B000DFCF8FEF9FE79093790380937803D8CF65
:1055C00080927E03D5CF8091D9048530B9F00091C7
:1055D0008A0710E080918B078017110679F074F02C
:1055E000F801E754FC4F80818250823020F460E063
:1055F000802F0E94610D0F5F1F4FECCF9092D90456
:105600008091A70690919F06682E691A6E9C602C67
:105610001124891B990BE89E8001E99E100D11242D
:105620000556194FEBE9AE2EE6E0BE2EF7E05F2EF1
:10563000560CD5011D966C91F801818D861741F0AD
:10564000862D0E94610DD5011D968C91F801818FE8
:105650000F5F1F4FFFEFAF1ABF0A63945610E9CFD9
:105660000BCF8330910509F4BFC0049709F096C8A9
:105670008091A506843108F423CF1092A5068EEF01
:1056800093E00E9443048091C3042091F40630917A
:10569000F506883008F4BAC08091490890914A080C
:1056A000821B930B0E9476138CEF93E00E944304BD
:1056B00080914708909148082091F6063091F706AE
:1056C000821B930B0E9476138AEF93E00E9443049F
:1056D0008091F8069091F9060E94761388EF93E086
:1056E0000E9443048091FA069091FB060E94761373
:1056F00085EF93E04BC08B30910509F415C274F42B
:105700008630910509F434C1089709F047C88091A3
:105710009C0690919D060E946413FBC18C309105FC
:1057200009F405C28F3F910509F038C81092B306FD
:105730001092B20681E08093D90460E08F2D0E9420
:10574000610DF3943EE3F312F8CF28C81092A5063A
:1057500084E194E00E94430472E1E72E75E0F72EA5
:1057600001E315E0D7018D917D0190E00E94761351
:1057700082E194E00E9443040E151F0599F7809181
:10578000310590E00E9476138FE094E00E9443047C
:105790000C94CE238091A506843108F491CE10920A
:1057A000A5068CE094E00E94430405E515E0F801AD
:1057B00061918F0170E090E080E04AE00E94161352
:1057C0008AE094E00E94430423E935E02017310782
:1057D00071F76091930570E090E080E04AE00E94EC
:1057E000161387E094E0D2CF8091A506843108F4A7
:1057F00067CE1092A50684E094E00E9443040E94C4
:10580000A5020E94761381E094E0C0CF8091450804
:105810009091460845CF82EF93E00E9443046FE3E6
:1058200089EB93E00E94B7136FE388EF93E00E9447
:10583000B7136FE387E394E00E94B7136FE386E743
:1058400094E00E94B7138091B5049091B6040E9431
:10585000A6138091B7049091B8040E94A61380917A
:10586000B9049091BA040E94A61364E08BEB94E013
:105870000E94B71364E08FEB94E00E94B71380910D
:10588000C3040E94AC138091C5040E94AC138091A4
:10589000C6040E94AC138091C7049091C8040E9472
:1058A000A6138091D1040E94AC138091C9049091F9
:1058B000CA040E94A6138091CD049091CE040E9448
:1058C000A6138091D2040E94AC138091D3040E944D
:1058D000AC138091D4040E94AC138091D5040E9433
:1058E000AC138091D6040E94AC1360E28AED94E080
:1058F0000E94B71380913A050E94AC1380913B053A
:105900000E94AC1380913C050E94AC1380913D0530
:105910000E94AC138091CB049091CC040E94A613FA
:105920008091CF049091D0040E94A61368E18AEF81
:1059300094E00E94B713809132050E94AC138091CD
:105940003E050E94AC1380913F050E94AC138091EC
:1059500040050E94AC13809141050E94AC138091D8
:1059600042050E94AC138EEE93E00E944304D1C026
:105970001092D7046FE389EB93E00E9428076FE34E
:1059800088EF93E00E9428076FE387E394E00E948A
:1059900028076FE386E794E00E9428070E943B07F0
:1059A0009093B6048093B5040E943B079093B8048B
:1059B0008093B7040E943B079093BA048093B90484
:1059C00064E08BEB94E00E94280764E08FEB94E0A6
:1059D0000E9428070E94E0068093C3040E94E0060C
:1059E0008093C5040E94E0068093C6040E943B0792
:1059F0009093C8048093C7040E94E0068093D1046A
:105A00000E943B079093CA048093C9040E943B07FD
:105A10009093CE048093CD040E94E0068093D2043C
:105A20000E94E0068093D3040E94E0068093D40491
:105A30000E94E0068093D5040E94E0068093D6047D
:105A400060E28AED94E00E9428070E94E00691E05F
:105A5000811101C090E090933A050E94E006809386
:105A60003B050E94E00691E0811101C090E0909317
:105A70003C050E94E00691E0811101C090E0909306
:105A80003D050E943B079093CC048093CB040E9479
:105A90003B079093D0048093CF0468E18AEF94E0B1
:105AA0000E9428070E94E006809332050E94E006CB
:105AB00091E0811101C090E090933E050E94E006C4
:105AC00080933F050E94E00691E0811101C090E0C3
:105AD000909340050E94E006809341050E94E006F5
