:100000000C94FD000C9425010C9425010C94250101
:100010000C9425010C9425010C9425010C942501C8
:100020000C9425010C9425010C942F1C0C949E1CFF
:100030000C9425010C9425010C9425010C942501A8
:100040000C9425010C9425010C9425010C94250198
:100050000C9425010C9425010C9425010C94D01EC0
:100060000C9425010C9425010C9425010C94250178
:100070000C9425010C9425010C9425010C94250168
:100080000C9425010C9425010C9425010C94250158
:100090000C941A1F0C9425010C9425010C94250135
:1000A0000C9425010C9425010C94250100000000FE
:1000B000240027002A002D00300000000000250049
:1000C00028002B002E003100080B00020202000065
:1000D00009040000010202000005240010010524AB
:1000E000010101042402060524060001070581031D
:1000F00010004009040100020A0000000705020286
:1001000040000007058302400000040309041201B7
:100110000002EF0201408F0E06920001010203016E
:10012000556E6B6E6F776E00436C657620536F660D
:10013000742050696E4F6E65000000000023002699
:100140000029002C002F0004040404040304050209
:100150000202020403020202020606060606060462
:10016000040202020404040802011040804010202E
:10017000408040800802040180402010020110806D
:1001800010204040200000000200090F000003047E
:1001900001000C0000000000000000000000000052
:1001A0000000000D0A002C004F2C00502C000D0AFE
:1001B000002C002C002C00412C00450D0A00432C83
:1001C00000522C450D0A00522C530D0A0056455280
:1001D00053494F4E2C312E362E300D0A000D0A0099
:1001E0002C00422C002C002C0007060504010008FE
:1001F0000A0B0C0D090039202B3111241FBECFEF43
:10020000DAE0DEBFCDBF12E0A0E0B1E0EAE3FDE658
:1002100002C005900D92A035B107D9F727E0A0E5FF
:10022000B2E001C01D92A13FB207E1F710E0CCEFB0
:10023000D0E004C02197FE010E943935CB3FD107A1
:10024000C9F70E94DC230C9490360C9400000895AA
:100250000895EEEEF1E0E49190917B008E2F880FEF
:10026000880F80729F7D892B80937B00E770E0640C
:10027000E0937C0080917A00806480937A00809182
:100280007A0086FDFCCF80917800909179000895E6
:10029000FC018091CD02882311F13FB7F89482E0F0
:1002A0008093E9002091F200822F90E01816190641
:1002B00014F481E090E0882339F0289844E64093D4
:1002C000CC024091F1004083222339F02091F200CA
:1002D000211103C02BE62093E8003FBF08958FEF64
:1002E0009FEF08958091C3068823A9F08091BE06F0
:1002F0008093C1061092C3068091C1068B5F8093E4
:10030000C2069091BF06891728F09093C20681E03B
:100310008093C30608958091C1068B5F8093C106C8
:10032000EBCF4091C3025091C4022091C1023091A1
:10033000C20242175307B4F49091E8009570E1F3BC
:100340009091E80092FD19C08093F1008091C30262
:100350009091C40201968F739927892B19F48EEF1F
:100360008093E8008091C3029091C402019690931B
:10037000C4028093C30281E0089580E00895EF9263
:10038000FF920F931F93CF93DF93F82E192FE62E32
:10039000042F81E0860F880F0E94910183E00E9464
:1003A0009101CF2DD12FEC0EFD2EF11CCE15DF05C6
:1003B000B9F007FF13C0FE0184910E949101182F2C
:1003C00080E00E949101812321968111EFCFDF917E
:1003D000CF911F910F91FF90EF9008958881EDCFFD
:1003E00081E0F5CFDF92EF92FF920F931F93CF93AF
:1003F000DF93D82E8A01EB017B01E40EF51ECE15AA
:10040000DF0559F0D7FE12C0FE0184910E949101D0
:1004100021968111F4CF0FEF1FEFC801DF91CF912B
:100420001F910F91FF90EF90DF9008958881EECF9C
:100430002FB7F89487708093E9009091E800892F96
:10044000807295FF04C09091F20080E4891B2FBF59
:100450000895615030F02091F100FC012083019655
:10046000F8CF289884E68093CC0208958091B90251
:1004700081110DC082E08093B50284E08093B602C2
:100480001092B8021092B70281E08093B90285EB16
:1004900092E008950F931F93CF93DF931F92CDB7F0
:1004A000DEB782E0898342E450E068EC70E080E8E7
:1004B0000E94F2010E943602DC0112960D911C91FD
:1004C0000115110589F0D801ED91FC910280F381AD
:1004D000E02DBE016F5F7F4FC801099597FD04C0F5
:1004E000F80100851185ECCF89810F90DF91CF91C4
:1004F0001F910F910895CF93DF931F92CDB7DEB771
:100500006983DC01ED91FC910280F381E02D41E0F3
:1005100050E0BE016F5F7F4F09950F90DF91CF9143
:1005200008950F931F93CF93DF938C01D0E0C0E029
:10053000F801EC0FFD1F6491662341F084E493E021
:100540000E947B02892B11F02196F2CFCE01DF9120
:10055000CF911F910F91089583E08093E9008091DE
:10056000F200882319F08AE38093E800089583E07D
:100570000E94180290E00895CF93DF931F92CDB7A9
:10058000DEB7FC018485958597FD08C02FEF3FEF0E
:10059000358724870F90DF91CF910895CE01019682
:1005A0000E944801019719F4898190E0F3CF8FEF01
:1005B0009FEFF0CF0F931F93CF93DF931F92CDB791
:1005C000DEB78C01FC018485958597FF0BC0CE01B9
:1005D00001960E944801019771F4898190E0F80129
:1005E00095878487F801848595850F90DF91CF9159
:1005F0001F910F9108958FEF9FEFF1CFFC0184853C
:10060000958597FD0BC09FB7F89482E08093E90031
:100610008091F2009FBF90E0019608959FB7F894F3
:1006200082E08093E9008091F2009FBF90E00895FE
:1006300081508F3008F047C0E82FF0E0EE5DFC4FAE
:100640000C9439353F034303310337033B03630302
:100650006303630346034C03500354035A036303C9
:100660005E03809180008F77809380000895809151
:1006700080008F7DF9CF80918000877FF5CF84B592
:100680008F7784BD089584B58F7DFBCF80919000D6
:100690008F77809390000895809190008F7DF9CF9F
:1006A00080919000877FF5CF8091C0008F778093F5
:1006B000C00008958091C0008F7DF9CF8091C20065
:1006C000877F8093C20008951F93CF93DF93282FD5
:1006D00030E0F901EB57FE4F8491F901EA59FE4FE2
:1006E000D491F901E95BFE4FC491CC23A9F0162FF8
:1006F00081110E941803EC2FF0E0EE0FFF1FE6546B
:10070000FF4FA591B4918FB7F894EC91111108C0E7
:10071000D095DE23DC938FBFDF91CF911F91089599
:10072000DE2BF8CFCF93DF9390E0FC01EA59FE4F28
:100730002491895B9E4FFC0184918823C9F090E04D
:10074000880F991FFC01E455FF4FA591B491FC015E
:10075000E654FF4FC591D49161110DC09FB7F89435
:100760008C91209582238C938881282328839FBF96
:10077000DF91CF910895623051F49FB7F8943C9186
:10078000822F809583238C93E8812E2BEFCF8FB718
:10079000F894EC912E2B2C938FBFEACF82309105E9
:1007A00038F0880F991F880F991F05970197F1F767
:1007B00008953FB7F8948091B1029091B202A09150
:1007C000B302B091B40226B5A89B05C02F3F19F023
:1007D0000196A11DB11D3FBFBA2FA92F982F8827C1
:1007E000BC01CD01620F711D811D911D42E0660F9C
:1007F000771F881F991F4A95D1F708958F929F926E
:10080000AF92BF92CF92DF92EF92FF924B015C01C9
:100810000E94D9036B017C010E94D9036C197D09E8
:100820008E099F09683E734081059105A8F321E078
:10083000821A9108A108B10888EEC80E83E0D81E7C
:10084000E11CF11C81149104A104B10429F7FF906B
:10085000EF90DF90CF90BF90AF909F908F900895D2
:100860007F928F929F92AF92BF92CF92DF92EF9240
:10087000FF920F931F93CF93DF93C82E8B017A01C2
:100880008091CD02811110C08FEF9FEFDF91CF914A
:100890001F910F91FF90EF90DF90CF90BF90AF909E
:1008A0009F908F907F9008958091C70280FF05C030
:1008B0008091E00082608093E000CE2DDF2DD12C6E
:1008C0008AEFB82E8C2D8770982E8C2D8072882EF2
:1008D0008C2D8074782E9AE3A92E209719F4DD20B0
:1008E00009F452C08C2D0E94180281110AC0BA94DA
:1008F000BB2051F261E070E080E090E00E94FE03D6
:10090000ECCF8C171D0611F00CF08C2F9FB7F894CC
:100910009092E9002091E80025FD02C09FBFDDCF45
:10092000282F30E0C21BD30B882029F08150A0F083
:100930001092F100FBCFF801C7FC0AC0815050F0C3
:1009400041914093F100FACF44914093F1003196E8
:100950008150D0F7020F131FDD2021F0A092E80094
:10096000D12CDCCF8091E80085FD07C0A092E80083
:10097000DD24D394209791F2F3CF209779F6772056
:1009800069F2A092E800CACF5D9884E68093C6021F
:10099000C7017CCFCF93DF93EC01809112018823B4
:1009A00031F083E00E9430041816190634F081E01B
:1009B00090E09B838A8380E090E0DF91CF9108955F
:1009C0002FB7F8946091AD027091AE028091AF02A2
:1009D0009091B0022FBF0895FC0183858F3F19F0DD
:1009E00061E00C9464030895FC0180819181892B5E
:1009F00039F0A281B3819C9111968C919CBD8DBDE3
:100A000083858F3F19F060E00C9464030895AF92E2
:100A1000BF92CF92DF92EF92FF920F931F93CF93EB
:100A2000DF93EC0188819981892B89F06EBD0DB42B
:100A300007FEFDCFBEB48B2DDF91CF911F910F919B
:100A4000FF90EF90DF90CF90BF90AF900895888592
:100A5000998511E0892B09F010E8AA24A394862F28
:100A6000812309F0A12C062F2C813D814E815F81CD
:100A700060E271EA87E090E00E944D32F22EB02EE3
:100A8000E12CC22ED12CFF2019F0C6010E94CE030A
:100A90008A85877F09F042C08D858F3F89F0902F2E
:100AA000912381E009F480E08A1551F0EF85F889FF
:100AB0008F89992369F19081892B8083AA24A3943B
:100AC000E989FA898081998D892B8083FF2019F02B
:100AD000C6010E94CE038E858F3F39F0EB89FC89D9
:100AE0008081988D892309F0E12AE989FA8990812A
:100AF000898D8095892380838E858F3F09F0BE2C58
:100B000088859985892BB9F5110F1111BCCF93CF29
:100B10009081809589238083A12CD2CFE989FA899D
:100B20008081998D892B8083FF2019F0C6010E9456
:100B3000CE038D858F3F49F0EF85F8898F89902FFF
:100B40009123A9F09081892B8083E989FA8990818A
:100B5000898D8095892380838E858F3F69F2EB890B
:100B6000FC898081988D892339F2E12AC5CF908153
:100B700080958923E9CF1695C8CF8F929F92AF9227
:100B8000BF92CF92DF92EF92FF920F931F93CF937A
:100B9000DF937C014B016A01B22EA32E0E94F40464
:100BA000E401C80CD91CCC15DD0569F4CB2DDA2D78
:100BB0000C0F1D1FC017D10759F06FEFC7010E941E
:100BC00007058993F7CF6991C7010E940705EBCF0D
:100BD000C7010E94EC0481E0DF91CF911F910F913A
:100BE000FF90EF90DF90CF90BF90AF909F908F904D
:100BF00008958F929F92AF92BF92CF92DF92EF9221
:100C0000FF920F931F93CF93DF937C01B62EA72EF5
:100C10006A0149010E94F404E401080D191DC0177E
:100C2000D10761F4CB2DDA2DCC0EDD1ECC15DD0500
:100C300051F06991C7010E940705F8CF6991C7017A
:100C40000E940705ECCFC7010E94EC0481E0DF9110
:100C5000CF911F910F91FF90EF90DF90CF90BF90B9
:100C6000AF909F908F9008950895089520918902E4
:100C7000260F3327331F21323105ECF420911A035C
:100C8000FC0190E080E0243069F082E00895A091BA
:100C900089022191AC0147595D4FA40FB52FB11DB9
:100CA0002C930196861798F380918902680F6093C0
:100CB000890280E0089581E0089510921A0381E08E
:100CC000809319031092F40261E082E00E946403B1
:100CD00061E083E00E946403E9EBF0E080818E7FB5
:100CE000808380818D7F808388E48093B80085E451
:100CF0008093BC0008951092D3021092D2021092F9
:100D00002103109243030E945D0687E291E09093D5
:100D1000D1028093D00288E291E09093CF02809339
:100D2000CE020895CF93DF9391E09093C902882378
:100D3000B9F0C091B800D091BA008091BC008A7B14
:100D40008093BC0060E082E00E94640360E083E086
:100D50000E9464030E945D06D093BA00C093B8005D
:100D6000DF91CF9108958F929F92AF92BF92CF92D1
:100D7000DF92EF92FF920F931F93CF93DF93D09167
:100D80004303D13208F0D7C0182FC09142030E940C
:100D9000D9036B017C0180911A0381116BC082E041
:100DA00080931A03109319038FEF80931803109206
:100DB0001703D0931603A2E2B3E0E6EFF2E080E07F
:100DC000D81391C01092F5028091F502CC0FC82B78
:100DD000C093F5028091F402813009F088C010922E
:100DE000F4020E94D9036B017C018091F50280938B
:100DF000BB0080911C0390911D03A0911E03B09134
:100E00001F03892B8A2B8B2BA1F00E94D903009101
:100E10001C0310911D0320911E0330911F036C19B8
:100E20007D098E099F09061717072807390708F457
:100E300042C08091BC0083FDD8CF85EC8093BC007C
:100E40000E94D9036B017C0180911A03823009F45E
:100E500050C0809118038F3F09F46FC08091180330
:100E6000803209F46CC080911803803309F469C0A2
:100E700084E026C080911C0390911D03A0911E0365
:100E8000B0911F03892B8A2B8B2B09F484CF0E94EE
:100E9000D90380901C0390901D03A0901E03B09076
:100EA0001F036C197D098E099F0986169706A806EF
:100EB000B90608F070CF80911B030E94920685E06E
:100EC000109221031092430310922003DF91CF91DF
:100ED0001F910F91FF90EF90DF90CF90BF90AF9058
:100EE0009F908F9008959D9191938F5F69CF85EE2C
:100EF000A5CF80911C0390911D03A0911E03B0917A
:100F00001F03892B8A2B8B2B09F49ECF0E94D903B8
:100F100000911C0310911D0320911E0330911F03AB
:100F20006C197D098E099F090617170728073907CD
:100F300008F08ACFC0CF81E0C3CF80E0C1CF82E08C
:100F4000BFCF83E0BDCF1F93CF93DF93EA01122F72
:100F5000DC0111968D919C91DC01ED91FC91028058
:100F6000F381E02D0995C817D90729F4812F0E9434
:100F7000B30691E0811190E0892FDF91CF911F910D
:100F80000895AF92BF92CF92DF92EF92FF920F93AC
:100F90001F93CF93DF9300D0CDB7DEB7DC012111D3
:100FA00003C018962C911897253008F043C01F965F
:100FB0004D935D936D937C93529790E080E0E22E89
:100FC000F12C8E159F05B4F41A962C911A972111C5
:100FD0000AC0FD01E80FF91F4387452F562F672FE1
:100FE00077270196EECFF701E81BF90BEA0FFB1FFD
:100FF0004287F3CF6D018BE0C80ED11C16969C91F1
:10100000169717968C91179799838A83AD90BC9009
:101010001197A114B10409F441C019960C9110E084
:1010200098012E0D3F1DD50114968D919C9182172C
:10103000930710F480E016C0F50181819281208130
:1010400031E0309320032093420310922103109249
:1010500043030115110599F421E0A701B601C5016B
:101060000E94A3070F900F90DF91CF911F910F91D6
:10107000FF90EF90DF90CF90BF90AF900895DC018C
:10108000ED91FC910280F381E02DA801BE016F5F1C
:101090007F4F09950817190769F6DECF1296ED9173
:1010A000FC911397309731F214962D913C9115973E
:1010B00019960C9110E02330310571F48E7F8983ED
:1010C0009A830F5F1F4F9E012F5F3F4FA701B6010D
:1010D000CF010E94F905C6CF2115310519F49F777C
:1010E0009983F1CF2230310511F49068F9CF213086
:1010F000310549F79F779064F3CFCF93DF93EC01ED
:101100008B818823A1F0888191E0909320038093C4
:101110004203109221031092430381E00E94B30620
:1011200091E0811190E0892FDF91CF9108950E9485
:101130007B0681E08B83CE010E947D08982F811170
:10114000E2CFF1CF8F929F92AF92BF92CF92DF9278
:10115000EF92FF920F931F93CF93DF93D82FC62F59
:10116000142F613208F09CC00E94D9036B017C01EE
:1011700080911A0381116FC081E080931A0310934C
:1011800019039FEF90931803109217039C0F9093ED
:1011900016038093F5028091F502DD0FD82BD093D2
:1011A000F5028091F402813009F07CC01092F402C3
:1011B0000E94D9036B017C018091F5028093BB00F2
:1011C00080911C0390911D03A0911E03B0911F03F9
:1011D000892B8A2B8B2BA1F00E94D90300911C0331
:1011E00010911D0320911E0330911F036C197D097E
:1011F0008E099F09061717072807390708F44CC0FE
:101200008091BC0083FDD8CF85EC8093BC000E9408
:10121000D9036B017C0180911A03813009F444C029
:10122000809117038C1710F4C0911703E6EFF2E0DA
:10123000A4EDB2E080E08C1359C08C2FDF91CF91E8
:101240001F910F91FF90EF90DF90CF90BF90AF90E4
:101250009F908F90089580911C0390911D03A09101
:101260001E03B0911F03892B8A2B8B2B09F480CF8F
:101270000E94D90380901C0390901D03A0901E0330
:10128000B0901F036C197D098E099F098616970679
:10129000A806B90608F06CCF80911B030E94920645
:1012A000C0E0CBCF85EEB1CF80911C0390911D03A0
:1012B000A0911E03B0911F03892B8A2B8B2B09F45D
:1012C000AACF0E94D90300911C0310911D03209105
:1012D0001E0330911F036C197D098E099F090617A3
:1012E00017072807390708F096CFD6CF91919D931D
:1012F0008F5FA1CF0895E091D3028091D202E817C9
:1013000030F4F0E0EC52FD4F808190E008958FEFD3
:101310009FEF08959091D3028091D2022FEF3FEF7B
:10132000981748F4E92FF0E0EC52FD4F208130E0AF
:101330009F5F9093D302C90108958091D20290914A
:10134000D302891B990B0895CF92DF92EF92FF92FF
:101350000F931F93CF93DF937C01CB018A012091E0
:101360002003222389F0EB016B01C40ED51ECC159E
:10137000DD0569F06991D701ED91FC910190F08153
:10138000E02DC7010995F3CF642F0E943606C801EE
:10139000DF91CF911F910F91FF90EF90DF90CF9051
:1013A0000895CF93DF931F92CDB7DEB76983209165
:1013B00020032223F9F020914303203258F021E04A
:1013C00030E0FC013383228390E080E00F90DF91D6
:1013D000CF91089580912103E82FF0E0EE5DFC4F5E
:1013E000998190838F5F809321038093430381E0F1
:1013F00090E0ECCF61E0CE0101960E943606F7CF77
:1014000090E080E008951F93CF93DF93EC01142FB9
:1014100089819A81288131E030932003209342030F
:101420001092210310924303DC01ED91FC91019095
:10143000F081E02D099589819A81DC01ED91FC9183
:101440000190F081E02D612F099581E0DF91CF912E
:101450001F910C94B306DC01ED91FC910190F08199
:10146000E02D0994EF92FF920F931F93CF93DF9398
:10147000EC01E42E052FF22E132F89819A81288109
:1014800031E0309320032093420310922103109205
:10149000430324E0629FB00111246A5F7F4FDC01A7
:1014A000ED91FC910190F081E02D09956E2D702F4A
:1014B00089819A810E942B0A602F70E089819A812C
:1014C0000E942B0A6F2D712F89819A810E942B0A0D
:1014D000612F70E089819A810E942B0A81E0DF915F
:1014E000CF911F910F91FF90EF900C94B3069A014A
:1014F000803130F4AB01682F8EE997E00C94320A0A
:1015000090EF980F903128F4AB01692F87E997E0AD
:10151000F5CF8052803128F4AB01682F80E997E045
:10152000EDCF0895DC01FB0112962C911297848176
:1015300095812817190641F491818081813A31F40F
:101540009D7F81E0913009F080E008958132E1F7DC
:101550009B3029F482811F968C9381E008959A3004
:1015600099F7828150968C93F8CFDC01FB0188E4D7
:10157000808389E4818384E482831D969C911D97F6
:101580009F709F5B93831D968D919C9124E096950F
:1015900087952A95E1F78F708F5B848385E00895A6
:1015A000EF92FF920F931F93CF93DF93FB01208164
:1015B000213889F52381223271F5DC0112964C9194
:1015C000248135814217130631F58C01FC01C38556
:1015D000D485F12CE12C209791F04C815D816A81BA
:1015E0007B818E81811180E80E94F2018F3F9807F4
:1015F00059F0E80EF91E0990D881C02DECCF81E09A
:10160000D8011F968C93C701DF91CF911F910F9145
:10161000FF90EF90089590E080E0F6CFCF93DF93B6
:10162000CDB7DEB769970FB6F894DEBF0FBECDBF5A
:10163000FC01DB018C918F5F8C939E012D5F3F4FEE
:101640008DE0D9011D928A95E9F729E0298384E08C
:101650008A8391E09D8383E08E832A8721E22B8712
:101660009C879D879F8722E2288B27E02B8B25E094
:101670002C8B8E8B20E430E0388F2F8B998F8281DA
:101680008B8395858685998B8A8B838180688D8BEA
:1016900049E150E0BE016F5F7F4F80E00E94F201A0
:1016A00069960FB6F894DEBF0FBECDBFDF91CF9124
:1016B0000895CF93DF9380916102811167C081E02B
:1016C00080935402809355022AE532E0309357020A
:1016D0002093560210925902109258022EEA31E0DD
:1016E000309351022093500210925C0210925B02E0
:1016F00010925E0210925D0280935F0280936002FE
:1017000081EC80935A020E943602FC018181909103
:101710005402482F490F5527551F483051059CF555
:10172000A281B381109709F520E532E0338322834B
:101730002081209352028093530280915502820FA0
:10174000808320915602A22FB09157028A2F821BCC
:101750008917C8F481813D91C82FD0E0C050DF4F78
:1017600038838F5F8183F2CFD90118962D913C91F8
:10177000199721153105C1F720E532E019963C9300
:101780002E931897D5CF81E08093610280E592E097
:10179000DF91CF9108954F925F926F927F928F92D7
:1017A0009F92AF92BF92CF92DF92EF92FF920F93F0
:1017B0001F93CF93DF93CDB7DEB72C970FB6F89476
:1017C000DEBF0FBECDBFEA14FB040C051D050CF0F7
:1017D0007FC027013801A982BA82CB82DC8290E0E7
:1017E00080E0662309F45DC02D833E834F835887D4
:1017F0002D813E814F8158852415350546055705B5
:1018000024F44D825E826F82788689819A81AB81D1
:10181000BC8189879A87AB87BC872D813E814F81A8
:101820005885281739074A075B0724F429873A8720
:101830004B875C87AE14BF04C006D106B4F449815F
:101840005A816B817C8189859A85AB85BC85481BD3
:10185000590B6A0B7B0BDB01CA01840D951DA61D7C
:10186000B71D89879A87AB87BC8729853A854B85C1
:101870005C852419350946095709AFEFBFEF0E946F
:101880003A3229813A814B815C8124193509460914
:1018900057090E941B32D4012C9311963C9382E08D
:1018A00090E02C960FB6F894DEBF0FBECDBFDF914F
:1018B000CF911F910F91FF90EF90DF90CF90BF904D
:1018C000AF909F908F907F906F905F904F90089512
:1018D00025013601E982FA820B831C8380CF6F9247
:1018E0007F928F929F92AF92BF92CF92DF92EF92B0
:1018F000FF920F931F93CF93DF938C01FC01C1855F
:10190000D2856E01D394F60160817181072E000C9F
:10191000880B990B0E949A334B015C017E01FCEF0E
:10192000EF0EF11CF70160817181072E000C880B0E
:10193000990B0E949A339B01AC01C501B4010E942E
:10194000F0324B015C01F80183829482A582B68259
:1019500061807280F60100811181F70160817181DF
:10196000601B710B072E000C880B990B0E949A3399
:10197000A50194010E94A7346B017C01B801110FED
:10198000880B990B0E949A339B01AC01C701B601E9
:101990000E947F320E946233F301E85BFF4FC25026
:1019A000DF4F288139818901330F220B330B0083EC
:1019B000118322833383349660837183828393837C
:1019C000DF91CF911F910F91FF90EF90DF90CF901B
:1019D000BF90AF909F908F907F906F900895AF923F
:1019E000BF92CF92DF92EF92FF920F931F93CF930C
:1019F000DF937C01162FDC018D919C91A62EB12CDA
:101A0000FC01EA0DFB1DDF01A258BF4FCC914C1722
:101A100008F4C42F865E9E4FDC018C916701CA0CCE
:101A2000DB1C8823C1F0808180FF15C0F601138A7A
:101A3000C0E01F3008F0CCC0F601D481153008F0AA
:101A4000C4C00C2F10E061E08D2F0E949203C111E1
:101A500017C060E019C0D6015396CC93CC2349F34C
:101A60000E94E004F501EE0FFF1FEE0FFF1FEE0DC9
:101A7000FF1DEE5AFF4F6083718382839383D9CF1A
:101A80000F3F110571F461E08D2FDF91CF911F9110
:101A90000F91FF90EF90DF90CF90BF90AF900C949C
:101AA0006403ED2FF0E0EB57FE4FE491E150EF308F
:101AB00008F086C0F0E0E15AF24F0C9439356E0D13
:101AC0007D0D820D8C0D960DE00DE00DE00DA00D4D
:101AD000AA0DB40DBE0DCB0DE00DD30D84B58068FD
:101AE00084BDC7BDDF91CF911F910F91FF90EF9003
:101AF000DF90CF90BF90AF90089584B5806284BD91
:101B0000C8BDF0CF809180008068809380001093E2
:101B1000890000938800E6CF8091800080628093E6
:101B2000800010938B0000938A00DCCF80918000AE
:101B300088608093800010938D0000938C00D2CF3A
:101B4000809190008068809390001093990000939A
:101B50009800C8CF8091900080628093900010938D
:101B60009B0000939A00BECF809190008860809384
:101B7000900010939D0000939C00B4CF8091C00012
:101B800080688093C0008091C0008F7B8093C000EC
:101B9000C093CF00A7CF8091C00080628093C00027
:101BA000C093D0009FCF8091C20088608093C20014
:101BB0008091C2008B7F8093C200C093D20092CFED
:101BC000003811050CF05FCF44CFC7FF42CF5BCF89
:101BD0001F3108F4C09581EF810F50E040E060E0D4
:101BE00070E1CF3F61F040E050E170E060E0CC2375
:101BF00031F0F0E1CF9FA001112461E070E0DF91AE
:101C0000CF911F910F91FF90EF90DF90CF90BF90F9
:101C1000AF900C94770ACF93DF930E947201C0912A
:101C2000C106D0E08091C2068C171D06A1F09CF081
:101C3000E0913706F0913806EC0FFD1F808182306D
:101C400041F44CE36C2F8091390690913A060E9442
:101C5000EF0C2196E7CFDF91CF9108958F929F925D
:101C6000AF92BF92CF92DF92EF92FF920F931F93AA
:101C7000CF938C01075E1E4FF801C081C1113BC09C
:101C80000E94E0044B015C010E94E0046B017C01B6
:101C9000C818D908EA08FB08F8E8CF16F3E1DF0610
:101CA000E104F10424F584E493E00E94FE02181696
:101CB000190694F484E493E00E94BC02C82F8C2F90
:101CC000CF911F910F91FF90EF90DF90CF90BF9039
:101CD000AF909F908F9008950E94E0046B017C016B
:101CE00062E370E080E090E00E94FE03D1CF81E0EB
:101CF000F8018083E4CFC0E0E2CFEF92FF920F9330
:101D00001F93CF93DF937C01142F062FEB01C701A4
:101D10000E942E0E89938C2F801B8117C0F3DF91B8
:101D2000CF911F910F91FF90EF9008950F931F9304
:101D3000CF938C010E942E0EC82FC8010E942E0E38
:101D40002C2F30E0322F2227820F932F911DCF911D
:101D50001F910F9108950C94EF350C94EF350C946E
:101D6000EF35FC0101900020E9F73197AF01481BE6
:101D7000590BBC0184E493E00C94CA048F929F92A7
:101D8000AF92BF920F931F93CF93DF93CDB7DEB780
:101D9000A1970FB6F894DEBF0FBECDBF19A2423097
:101DA00008F44AE08E010F5D1F4F842E912CB12C58
:101DB000A12CA50194010E944D32E62FB901CA0160
:101DC000EA30F4F4E05DD801EE938D01232B242B4F
:101DD000252B79F790E080E0109719F0CD010E9453
:101DE000B10EA1960FB6F894DEBF0FBECDBFDF9146
:101DF000CF911F910F91BF90AF909F908F900895BA
:101E0000E95CE1CFCF92DF92EF92FF92CF93DF9325
:101E10006C01990FEE08FF08F7FE19C06DE284E42B
:101E200093E00E947B02EC0166277727CB016C19B7
:101E30007D098E099F094AE00E94BE0E8C0F9D1FEE
:101E4000DF91CF91FF90EF90DF90CF9008954AE01F
:101E5000C701B601DF91CF91FF90EF90DF90CF9057
:101E60000C94BE0E0E94020F85EE91E00C9491023C
:101E70004F925F926F927F928F929F92AF92BF929A
:101E8000CF92DF92EF92FF920F931F93CF936B014C
:101E90007C01742EAC019B010E941435882399F0BB
:101EA0008AE092E0CF911F910F91FF90EF90DF9029
:101EB000CF90BF90AF909F908F907F906F905F90EA
:101EC0004F900C94B10E46015701E894B7F82FEFEC
:101ED0003FEF4FE75FE7C501B4010E941435811160
:101EE0000DC02FEF3FEF4FE75FE7C501B4010E9440
:101EF000EB3218161CF48EE092E0D4CF2FEF3FEFB8
:101F00004FE75FE4C701B6010E94A23418161CF423
:101F100082E192E0C7CF2FEF3FEF4FE75FECC701C1
:101F2000B6010E94EB3287FDF3CF20E030E0A9013B
:101F3000C701B6010E94EB3210E000E087FF0AC043
:101F40006DE284E493E00E947B028C01F7FAF09446
:101F5000F7F8F094C0E060E070E080E09FE37C166A
:101F600041F020E030E040E251E40E94F032CF5FE7
:101F7000F6CFA70196010E947F322B013C010E94FF
:101F800069334B015C014AE00E94BE0E7C01E00E09
:101F9000F11ECC23C1F1C501B4010E9498339B010D
:101FA000AC01C301B2010E947E324B015C016EE2C2
:101FB00084E493E00E947B02E80EF91EC15018F100
:101FC00020E030E040E251E4C501B4010E94A734B2
:101FD0002B013C010E9469334B01B12CA12C4AE03A
:101FE000C501B4010E94BE0EE80EF91EC501B40180
:101FF0000E9498339B01AC01C301B2010E947E3262
:102000004B015C01DBCFC701CF911F910F91FF9076
:10201000EF90DF90CF90BF90AF909F908F907F9088
:102020006F905F904F900895682F70E090E080E08F
:102030004AE00E94BE0E87EE91E00C9491020F934D
:102040001F93CF93DF93142F062FEB0189910E94EA
:1020500014108C2F801B8117C8F3DF91CF911F9133
:102060000F9108953F924F925F926F927F928F925D
:102070009F92AF92BF92CF92DF92EF92FF920F9317
:102080001F93CF93DF9300D0CDB7DEB7FC014B0198
:10209000042F9681878199838A83C080D180C1145F
:1020A000D10409F479C0418550E0D60114968D9190
:1020B0009C9184179507B0F4312C832D0F900F90CD
:1020C000DF91CF911F910F91FF90EF90DF90CF9014
:1020D000BF90AF909F908F907F906F905F904F9048
:1020E0003F900895F601808191E0909320038093C2
:1020F0004203109221031092430320E0BE016F5F60
:102100007F4FC6010E94A307382E8823A9F210E052
:10211000B12CA12CA016B10680F6D60114968D9193
:102120009C917801EA18FB088E159F0508F47C0144
:1021300041E0C8018E199F09A816B90608F440E0CD
:102140006E2D613208F060E2F60180810E94A208E3
:102150001092D3028093D2028E151F0409F0ACCFE7
:1021600034016A0C7B1C2301C201861997098E1564
:102170009F0578F4D60111968D919C91DC01ED912B
:10218000FC910284F385E02D0995F20181932F01E2
:10219000EBCFAE0CBF1CBECFA281B381109709F468
:1021A0008BCF2481358110E0418550E0233031050B
:1021B00071F4816089839A834F5F5F4F9401BE0100
:1021C0006F5F7F4FCD010E94BD05382E76CF211560
:1021D000310519F490689983F1CF2230310511F45B
:1021E0009F77F9CF2130310549F7906CF4CFCF9329
:1021F000DF93EC01BC01655F7F4F48850E94321080
:10220000882301F1488550E030E020E060E070E094
:10221000CB0124173507CCF4982F872F762F66270C
:10222000EA85E1110AC0FA01E21BF30BEC0FFD1F76
:10223000E2856E2B2F5F3F4FECCFFE01E20FF31FC5
:10224000E385F7CF6FEF7FEFCB01DF91CF9108955B
:102250008F929F92AF92BF92CF92DF92EF92FF92B6
:102260000F931F93CF93DF93EC014A015B018881A9
:1022700099810E94F7102A8101E010E002C0000F4E
:10228000111F2A95E2F701501109012E000C220BB3
:10229000330BAB81680179010A2E04C0CC0CDD1C24
:1022A000EE1CFF1C0A94D2F7C094D094E094F094F2
:1022B000C622D722E822F922E881F981B901A801D2
:1022C000482159216A217B2104C0440F551F661FF4
:1022D000771FAA95D2F74C295D296E297F29208581
:1022E000CF01DF91CF911F910F91FF90EF90DF9081
:1022F000CF90BF90AF909F908F900C94C1070F9399
:102300001F93CF93DF93CDB7DEB767970FB6F894DF
:10231000DEBF0FBECDBFDC011B96ED91FC911C977B
:1023200011968D919C91DC01AE5EBE4F4D915C91FA
:10233000119700271127041B150B012E000C220BEF
:10234000330B00AF11AF22AF33AF052E000C660B7D
:10235000770B44AF55AF66AF77AF4D915C91DF011E
:10236000A05CBF4F00271127041B150B012E000C8A
:10237000220B330B0D931D932D933C931397EC5B22
:10238000FF4F052E000C660B770B40835183628351
:102390007383835F9E4FFC0140818091D1079091B0
:1023A000D207188A198A1A8A1B8A9A8389831C82FF
:1023B0001B8281E08A872CE130E038872F831B86DF
:1023C0008987CE0101969D8B8C8B82E08E8B83E07A
:1023D0008F8B50E070E060E0CE0144960E9428119F
:1023E00067960FB6F894DEBF0FBECDBFDF91CF91D9
:1023F0001F910F9108950F931F93CF93DF93EC01DB
:10240000888199810E94F710AB01BC012A8181E08B
:1024100090E002C0880F991F2A95E2F70197092ED4
:10242000000CAA0BBB0B2B8104C0769567955795C2
:1024300047952A95D2F78C019D0104231523262365
:102440003723C901B801DF91CF911F910F910895F2
:102450009F92AF92BF92CF92DF92EF92FF920F9333
:102460001F93CF93DF93CDB7DEB7AA970FB6F8943B
:10247000DEBF0FBECDBF8C01DC0197965C934E93FF
:102480009697CA01019699969C938E9398974E5F62
:102490005F4F9B965C934E939A975E962D913C91DD
:1024A0001BA21CA21DA21EA23D8B2C8B1F8A1E8A62
:1024B00081E08D8F4BE650E05B8F4A8F1E8E8C8FB4
:1024C000188A198A1A8A1B8A3A8329831C821B82DA
:1024D0008A8728E630E038872F831B8689875E014C
:1024E000B4E1AB0EB11CB8A6AFA289A787E08AA75A
:1024F00041E050E060E070E0CE0187960E94281134
:10250000CE0187960E94FB1161307105810591050E
:1025100039F461E070E080E090E00E94FE03F0CFCB
:1025200064E670E080E090E00E94FE0320E047E077
:1025300050E060E070E0FE0131966F01CF010E9433
:10254000C10764E670E080E090E00E94FE03D801DD
:102550005E968D919C91188A198A1A8A1B8A9A8391
:1025600089831C821B82FF24F394FA8689E190E020
:1025700098878F831B86F98620E040E050E0BA01FF
:10258000C6010E94C107F801868D978D188A198AA5
:102590001A8A1B8A9A8389831C821B82FA868AE1A3
:1025A00090E098878F831B86F986DD8ACC8A83E04A
:1025B000E82EEE8A1F8A40E050E0BA01C5010E9471
:1025C0002811D8015E968D919C91188A198A1A8AD1
:1025D0001B8A9A8389831C821B82FA868BE190E096
:1025E00098878F831B86F986DD8ACC8A92E0992EA4
:1025F0009E8AEF8A41E050E060E070E0C5010E94F1
:102600002811F801868D978D188A198A1A8A1B8AD3
:102610009A8389831C821B82FA868CE190E09887DA
:102620008F831B86F986DD8ACC8A9E8AEF8A40E0FA
:1026300050E0BA01C5010E942811D8015E968D9123
:102640009C91188A198A1A8A1B8A9A8389831C8208
:102650001B82FA868BE690E098878F831B86F9862B
:1026600020E041E050E060E070E0C6010E94C10758
:1026700064E670E080E090E00E94FE03F80180A133
:1026800091A1009739F0DC01ED91FC910280F3817A
:10269000E02D0995F80182A193A1009739F0DC01A2
:1026A000ED91FC910280F381E02D0995F80184A160
:1026B00095A1009739F0DC01ED91FC910280F38146
:1026C000E02D099587E090E00E945335FC0186EDEE
:1026D00091E09183808380E596E0948383831683E1
:1026E0000583D8019196FC93EE93909787E090E054
:1026F0000E945335FC0188EC91E09183808381E551
:1027000096E09483838316830583D8019396FC9384
:10271000EE93929787E090E00E945335FC018AEB9C
:1027200091E09183808382E596E09483838316838E
:102730000583D8019596FC93EE93949781E0AA9631
:102740000FB6F894DEBF0FBECDBFDF91CF911F91C2
:102750000F91FF90EF90DF90CF90BF90AF909F9040
:102760000895CF92DF92FF920F931F93CF93DF9341
:10277000CDB7DEB763970FB6F894DEBF0FBECDBFFF
:102780008091D1079091D207009711F00E94EF3508
:1027900086E090E00E945335FC0188E6808384E85F
:1027A00097E092838183138280E290E09583848313
:1027B000F093D207E093D10785E0F82E01E0C090B6
:1027C000D107D090D2070E947B06F6010383C60191
:1027D0000E947D08182F811118C06AE070E080E027
:1027E00090E00E94FE03FA94F110E9CF812F6396E6
:1027F0000FB6F894DEBF0FBECDBFDF91CF911F9112
:102800000F91FF90DF90CF9008958091D107909124
:10281000D207188A198A1A8A1B8A9A8389831C828A
:102820001B820A8785E790E098878F831B8609873C
:10283000CE0101960E94F71010E0683671058105FF
:102840009105A1F640E050E0BA0183EB97E00E94C9
:102850002812182FCBCFAF92BF92CF92DF92EF9278
:10286000FF920F931F93CF93DF93CDB7DEB7E89717
:102870000FB6F894DEBF0FBECDBF8C01FC01868D74
:10288000978D1BA21CA21DA21EA29D8B8C8B1F8A42
:102890001E8AFF24F394FD8E8BE390E09B8F8A8F3A
:1028A0001E8E8EE08C8F4EE0BE01695D7F4FCE01A3
:1028B00044960E9432108FA198A5982789279827BF
:1028C000F80195A784A789A59AA59827892798270D
:1028D00097A786A78BA59CA598278927982791ABB2
:1028E00080AB6DA57EA576276727762773AB62AB95
:1028F0008FA598A998278927982795AB84AB89A994
:102900009AA998278927982797AB86AB8BA99CA96A
:1029100098278927982791AF80AF072E000C880B46
:10292000990B0E949A3320E030E04AEA53E40E9477
:10293000F03228EB3EE142E152E40E947F32F8019E
:102940006283738384839583868D978D188A198A11
:102950001A8A1B8A9A8389831C821B82FA868CE1DD
:1029600090E098878F831B86F986CE0101965C01E3
:102970009EAB8DAB82E08FAB83E088AFCE01C59676
:102980000E94FB11C12CD12CE12CE5E4FE2E63301A
:102990007105E1F06230710599F06130710509F45B
:1029A000D6C0C12CD12CF0E8EF2EFFE3FF2E672B11
:1029B00069F4C12CD12C50E8E52E56E4F52E06C062
:1029C000C12CD12C70E8E72E75E4F72EF80164A530
:1029D00075A5072E000C880B990B0E949A33A7014E
:1029E00096010E94F032F801668377838087918791
:1029F00066A577A5072E000C880B990B0E949A33C9
:102A0000A70196010E94F032F801628773878487DC
:102A1000958760A971A9072E000C880B990B0E945D
:102A20009A33A70196010E94F032F80166877787F2
:102A3000808B918B868D978D188A198A1A8A1B8AAA
:102A40009A8389831C821B8281E08A872BE130E094
:102A500038872F831B868987BEAAADAA82E08FABF9
:102A600083E088AFCE01C5960E94FB11C12CD12C0A
:102A700033E0E32E33E4F32E6115710519F1C12C17
:102A8000D12C23E8E22E22E4F22E61307105D1F040
:102A900093E3C92EDC2C93E0E92E92E4F92E623008
:102AA000710581F0C12CD12C40E8E42E4FE3F42EC7
:102AB0006330710539F483E3C82EDC2C83E8E82EFB
:102AC00081E4F82EF80164A975A9072E000C880B83
:102AD000990B0E949A33A70196010E94F032F801E7
:102AE000628B738B848B958B66A977A9072E000C5C
:102AF000880B990B0E949A33A70196010E94F0322D
:102B0000F801668B778B808F918F60AD71AD072E4A
:102B1000000C880B990B0E949A33A70196010E9422
:102B2000F032F801628F738F848F958FE8960FB61D
:102B3000F894DEBF0FBECDBFDF91CF911F910F91F3
:102B4000FF90EF90DF90CF90BF90AF900895C12C91
:102B5000D12CE12C66E4F62E39CF8F929F92AF9262
:102B6000BF92CF92DF92EF92FF921F93CF93DF93AA
:102B7000EC016A017B0120E030E040E85FE3CB013B
:102B8000B6010E94EB3287FDA3C020E030EC4AE59D
:102B900055E4C701B6010E94A23418163CF4C12CBA
:102BA00030ECD32E3AE5E32E35E4F32E6B817C81B5
:102BB0008D819E810E9498334B015C0120E030E0C2
:102BC00040E855E4C701B6010E94A7349B01AC015F
:102BD000C501B4010E94F03220E030E040E05FE344
:102BE0000E947F3220E030E040E85FE30E947E32C6
:102BF0006B017C0120E030E040E450E40E94EB32C5
:102C000087FD6DC020E030E04FE753E4C701B60117
:102C10000E94A234181634F4C12CD12C9FE7E92E5F
:102C200093E4F92E89819A81288131E03093200341
:102C3000209342031092210310924303DC01ED9193
:102C4000FC910190F081E02D60E0099581E00E9407
:102C5000B30641E061E088810E94A2081092D3028D
:102C60008093D20289819A81DC01ED91FC910284EA
:102C7000F385E02D0995182F482F4F76406160E0CD
:102C8000CE010E94030AC701B6010E946933462F94
:102C90006EEFCE010E94030A412F60E0CE010E9438
:102CA000030A65E070E080E090E00E94FE03412F9F
:102CB000406A60E0CE01DF91CF911F91FF90EF90CD
:102CC000DF90CF90BF90AF909F908F900C94030AAD
:102CD000C12CD12C20E8E22E2FE3F22E67CFC12C9D
:102CE000D12C80E4E82EFE2C9DCFCF93DF93EC0116
:102CF0000E947B0640E860E0CE010E94030A6AE081
:102D000070E080E090E00E94FE0340E050E06AE75F
:102D100074E4CE010E94AD1580E498E7ADE7B1E020
:102D20008B839C83AD83BE83DF91CF910895CF9336
:102D3000DF93EB010E9405328883CE01DF91CF91B2
:102D400008950F931F93CF938C010E940532C82FD3
:102D5000C80101960E9405322C2F30E0322F222725
:102D6000820F932F911DCF911F910F9108950F9373
:102D70001F93CF93DF938C01EB01DC0115968D91AE
:102D80009C910E942B14F801058116810E94E00499
:102D9000AB01BC01FE01349680E2DF011D928A95F1
:102DA000E9F784E290E0A0E0B0E088839983AA8309
:102DB000BB83F80182A593A5B0E0A0E08C839D833E
:102DC000AE83BF838DE090E0A0E0B0E08887998774
:102DD000AA87BB87488B598B6A8B7B8B82819381B7
:102DE000A481B5818C8B9D8BAE8BBF8B81E0DF91F5
:102DF000CF911F910F9108958F929F92AF92BF92A2
:102E0000CF92DF92EF92FF920F931F93CF93DF93B6
:102E10008C01EB01DC0115968D919C910E942B1485
:102E2000F801058116810E94E004FE01349620E23B
:102E3000DF011D922A95E9F7C12CD12C7601C394AC
:102E4000C882D982EA82FB82F80126A137A1490112
:102E5000B12CA12C8C829D82AE82BF82C886D9867D
:102E6000EA86FB86688B798B8A8B9B8B2AE038EE0F
:102E70004CE151E466817781808591850E94A73479
:102E80006C8B7D8B8E8B9F8B2AE038EE4CE151E46E
:102E9000D8011A966D917D918D919C911D970E94FC
:102EA000A734688F798F8A8F9B8F2AE038EE4CE1A8
:102EB00051E4F80166857785808991890E94A7345D
:102EC0006C8F7D8F8E8F9F8F81E0DF91CF911F91CF
:102ED0000F91FF90EF90DF90CF90BF90AF909F90B9
:102EE0008F9008950F931F93CF93DF938C01EB0185
:102EF000DC0115968D919C910E942B14F80105819F
:102F000016810E94E004AB01BC01FE01349680E210
:102F1000DF011D928A95E9F781E090E0A0E0B0E042
:102F200088839983AA83BB83F80180A591A5B0E02B
:102F3000A0E08C839D83AE83BF8384E090E0A0E01B
:102F4000B0E088879987AA87BB87488B598B6A8BA3
:102F50007B8B25E33AEF4EE85CE3628973898489D1
:102F600095890E94A7346C8B7D8B8E8B9F8B25E37C
:102F70003AEF4EE85CE3D80156966D917D918D91C4
:102F80009C9159970E94A734688F798F8A8F9B8F65
:102F900025E33AEF4EE85CE3F801628D738D848D92
:102FA000958D0E94A7346C8F7D8F8E8F9F8F81E0CF
:102FB000DF91CF911F910F9108950F931F93CF939E
:102FC000DF938C01EB0188E2FB0111928A95E9F70E
:102FD0004BE050E066E172E0CE010E9481361B8634
:102FE00081E090E0A0E0B0E08C879D87AE87BF874E
:102FF000F80183819481092E000CAA0BBB0B888BEE
:10300000998BAA8BBB8B8DE090E0A0E0B0E08C8B1D
:103010009D8BAE8BBF8B1CA21DA21EA21FA280E0A7
:1030200090E0A0E2B2EC8C8F9D8FAE8FBF8F80E0DE
:1030300090E0A2EDB2E4888F998FAA8FBB8F84E0D5
:103040009DEAA0E4BBE388A399A3AAA3BBA3DF9155
:10305000CF911F910F9108950F931F93CF93DF93FB
:103060008C01EB0188E2FB0111928A95E9F74BE0B4
:1030700050E060E272E0CE010E9481361B8641E0A2
:1030800050E060E070E04C875D876E877F87F801D5
:1030900083819481092E000CAA0BBB0B888B998B22
:1030A000AA8BBB8B4C8B5D8B6E8B7F8B1CA21DA266
:1030B0001EA21FA28AE098EEACE1B3EC8C8F9D8F2C
:1030C000AE8FBF8F8AE098EEACE1B3E4888F998F22
:1030D000AA8FBB8F83E29BEDA9E7BDE388A399A3E9
:1030E000AAA3BBA3DF91CF911F910F9108950F93D6
:1030F0001F93CF93DF938C01EB0188E2FB011192C8
:103100008A95E9F74BE050E06AE272E0CE010E9456
:1031100081361B8681E090E0A0E0B0E08C879D873F
:10312000AE87BF87F80183819481092E000CAA0B1A
:10313000BB0B888B998BAA8BBB8B84E090E0A0E0C3
:10314000B0E08C8B9D8BAE8BBF8B1CA21DA21EA2F0
:103150001FA287ED93EAABE0B2EC8C8F9D8FAE8F10
:10316000BF8F87ED93EAABE0B2E4888F998FAA8F87
:10317000BB8F8AE99BEAABE0B9E388A399A3AAA332
:10318000BBA3DF91CF911F910F91089585ED80939F
:10319000BC0080911C0390911D03A0911E03B0916F
:1031A0001F030796A11DB11D23E0B695A79597951E
:1031B00087952A95D1F72091BC0024FD03C0109279
:1031C0001A03089540911C0350911D0360911E0342
:1031D00070911F03452B462B472B69F30097A105E0
:1031E000B10541F025E32A95F1F700000197A10907
:1031F000B109E1CF80911B030C9492062F923F926C
:103200004F925F926F927F928F929F92AF92BF92F6
:10321000CF92DF92EF92FF920F931F93CF93DF93A2
:1032200000D000D0CDB7DEB73C012DB73EB73C8310
:103230002B838F569F4F9A838983FC018081281BA3
:1032400031090FB6F8943EBF0FBE2DBF8DB79EB7A4
:1032500001962C01F30124A8312CDC0190E080E0E0
:10326000F301821593054CF420A931A9F901E80F67
:10327000F91F20812D930196F3CF85A9882341F171
:1032800084A595A528E097FD09C068E671E00E9435
:1032900025356DE270E00E942535262FF30186A5C5
:1032A00097A568E097FD08C068E671E00E942535A3
:1032B0006DE270E00E942535F201E20DF31D30E170
:1032C000639FB0011124262B2083C10101961C01AC
:1032D0004201820C931CF301A4ACB5ACC6ACD7ACD4
:1032E000E0ACF1AC02AD13AD20813181428153815C
:1032F00066A96170C3010E94CB0B280E391E4201E2
:10330000820C931CF301EC5BFF4FA080B180C28064
:10331000D3803497E080F18002811381F30124810E
:1033200035814681578166A966956170C3010E9407
:10333000CB0B280E391E4201820C931CF301E45B77
:10334000FF4FA080B180C280D3803497E080F180AD
:1033500002811381F301208531854285538566A959
:1033600062FB662760F9C3010E94CB0B280E391E51
:103370004201820C931CF301EC5AFF4FA080B180F4
:10338000C280D3803497E080F18002811381F30101
:10339000248535854685578566A963FB662760F9D0
:1033A000C3010E94CB0B280E391E4201820C931CD4
:1033B000F301E45AFF4FA080B180C280D3803497DC
:1033C000E080F18002811381F301208931894289F3
:1033D000538966A962956170C3010E94CB0B280EC8
:1033E000391E4201820C931CF301EC59FF4FA0805F
:1033F000B180C280D3803497E080F1800281138154
:10340000F301248935894689578966A965FB6627B2
:1034100060F9C3010E94CB0B280E391E4201820CB9
:10342000931CF301E459FF4FA080B180C280D38088
:103430003497E080F18002811381F301248D358D72
:10344000468D578D67A96170C3010E94CB0B280E72
:10345000391E4201820C931CF301EC58FF4FA080EF
:10346000B180C280D3803497E080F18002811381E3
:10347000F301208D318D428D538D67A96695617062
:10348000C3010E94CB0B280E391E4201820C931CF3
:10349000F301E458FF4FA080B180C280D3803497FD
:1034A000E080F18002811381F30120A131A142A1CA
:1034B00053A167A962FB662760F9C3010E94CB0B89
:1034C000280E391E4201820C931CF301EC57FF4F6A
:1034D000A080B180C280D3803497E080F1800281E7
:1034E0001381F30124A135A146A157A167A963FB6C
:1034F000662760F9C3010E94CB0B280E391E4201DA
:10350000820C931CF301E457FF4FA080B180C2806E
:10351000D3803497E080F18002811381F30120A5EC
:1035200031A542A553A567A962956170C3010E94A8
:10353000CB0B0E94590B4C01E981FA814081F301C8
:10354000E057FF4F808150E03A01FFEF6F1A7F0A8A
:103550002DB73EB7261937090FB6F8943EBF0FBEF8
:103560002DBF0DB71EB70F5F1F4FEDB7FEB781839D
:10357000B201C80101960E947836F4018381A3014B
:10358000B80180640E9430042B813C810FB6F8940E
:103590003EBF0FBE2DBF0F900F900F900F90DF9189
:1035A000CF911F910F91FF90EF90DF90CF90BF9040
:1035B000AF909F908F907F906F905F904F903F90D3
:1035C0002F900895FC0183A9681700F5A62FA695F2
:1035D000A695A69580A991A9A80FB92FB11D962FE0
:1035E000977041E050E060E070E004C0440F551F68
:1035F000661F771F9A95D2F740958C9148234C937C
:1036000082A9882319F0CF010C94FE180895CF9257
:10361000DF92EF92FF920F931F93DC01D3962C91D0
:10362000D397621740F5E62FE695E695E695D09696
:103630002D913C91D197E20FF32FF11D677001E0BE
:1036400010E020E030E06801790104C0CC0CDD1C02
:10365000EE1CFF1C6A95D2F720812C292083D2967C
:103660002C91222341F01F910F91FF90EF90DF905A
:10367000CF900C94FE181F910F91FF90EF90DF9068
:10368000CF9008950C940D321F93CF93DF93EC01EC
:10369000162F672F0E94421B612FCE010196DF91EA
:1036A000CF911F910C94421BCF92DF92EF92FF9229
:1036B0000F931F93CF93DF93EC016C017C018EE796
:1036C000E80EF11C10E000E0F60161916F01C80105
:1036D0000E94421BF60166ADC8018C599F4F0E94A3
:1036E000421BF70161917F01C80188539F4F0E94DF
:1036F000421BF70166ADC801845D9E4F0E94421BCC
:103700000F5F1F4F0F331105F9F6FE01E450FF4F15
:103710006081718181E991E00E94441BFE01E250C9
:10372000FF4F6081718183E991E00E94441BFE019B
:10373000F3956081718185E991E00E94441B7E01CF
:10374000FEEFEF1AFF0A07E911E0F70161917F012F
:10375000C8010E94421B0F5F1F4F0B39F1E01F078A
:10376000A1F77E018AEFE81A8EEFF80A01EA11E06C
:10377000F70161917F01C8010E94421B0F5F1F4F3B
:10378000053AF1E01F07A1F7FE01E65FFE4F6081F9
:103790008AEA91E00E94421BFE01E45FFE4F6081D5
:1037A0008BEA91E00E94421BFE01E35FFE4F6081C5
:1037B00082EC91E00E94421BFE01E25FFE4F6081BD
:1037C000718184EC91E00E94441BFE01EC5EFE4F8F
:1037D000608186EC91E00E94421BFE01E05FFE4F9B
:1037E0006081718187EC91E00E94441BFE01EE5ED6
:1037F000FE4F6081718189EC91E00E94441BFE01C3
:10380000EB5EFE4F60818BEC91E00E94421BFE015B
:10381000EA5EFE4F60818CEC91E00E94421BFE014B
:10382000E95EFE4F60818DEC91E00E94421BC85E14
:10383000DE4F68818EEC91E00E94421B65E688EEC7
:1038400093E00E94421B87EC91E0DF91CF911F91A2
:103850000F91FF90EF90DF90CF900C9491021F9208
:103860000F920FB60F9211248F939F938091E100D6
:103870009091E100937F9093E10083FF0FC010923D
:10388000E90091E09093EB001092EC0092E39093AA
:10389000ED001092CD0298E09093F00082FF22C0DC
:1038A00093E09093E9009091F200992319F09AE344
:1038B0009093E8009091C602992341F09091C6023E
:1038C00091509093C602911101C05D9A9091CC02E3
:1038D000992341F09091CC0291509093CC02911198
:1038E00001C0289A84FF18C08091E2008E7E81601A
:1038F0008093E2008091E1008F7E8093E1008091CF
:10390000C7028E7E80618093C7029F918F910F9036
:103910000FBE0F901F90189580FFF7CF8091E200A7
:103920008E7E80618093E2008091E1008E7E8093A4
:10393000E1008091C7028E7E8160E5CF1F920F92D9
:103940000FB60F921124CF92DF92EF92FF920F9356
:103950001F932F933F934F935F936F937F938F9317
:103960009F93AF93BF93EF93FF93CF93DF93CDB725
:10397000DEB76C97DEBFCDBF1092E9008091E80002
:1039800083FF25C068E0CE0145960E94290282EFA0
:103990008093E8008D8987FF39C09091E80090FFFF
:1039A000FCCF982F907609F034C19E894F89588DAD
:1039B0002F89F88C911131C0803861F58091C8024F
:1039C0008093F1001092F1008EEF8093E8006C96E6
:1039D0000FB6F894DEBF0FBECDBFDF91CF91FF9140
:1039E000EF91BF91AF919F918F917F916F915F9177
:1039F0004F913F912F911F910F91FF90EF90DF908A
:103A0000CF900F900FBE0F901F9018959EEF909340
:103A1000E800C7CF1092F100D5CF913059F4811151
:103A2000D3CF4130510581F68091C8028D7F8093BC
:103A3000C802CACF933049F48111C6CF4130510535
:103A400019F68091C8028260F2CF953041F48091DE
:103A5000E80080FFFCCF20682093E300B5CF9630CC
:103A600009F0A9C00B8D1C8D22E01092E900109284
:103A7000C4021092C302F2122EC01092C20210921F
:103A8000C1020E944A021F8299E09983FA8291E062
:103A90009E8390EA98879AEF99872091C30230918C
:103AA000C402275F3F4F3C832B838D831092E90034
:103AB0001092C4021092C3021093C2020093C1027A
:103AC00049E050E0BE016F5F7F4F80E00E94F2014D
:103AD0000E944A0279CF1093C2020093C1020E9451
:103AE0003602DC0112960D911C910115110509F4A5
:103AF00051C1D801ED91FC910480F581E02DBE010A
:103B00006B5E7F4FC8010995009709F03EC1F8012F
:103B100000851185EACFF3E0FF120EC08F8988235C
:103B200009F440C0823061F440E860E188E291E04D
:103B30000E94BF01811148CF81E28093EB0047CF03
:103B4000813029F440E867E080E291E0F1CF8330F2
:103B500099F70E943602DC011296ED90FC908E01DE
:103B60000F5F1F4F6801E114F10479F0D701ED9167
:103B7000FC910680F781E02DB801C7010995080F77
:103B8000111DF701E084F184EECFD8011C92F601FB
:103B900001900020E9F73197BF016C197D0940E0E1
:103BA000C601C6CF6AE071E0FB01449150E080E8B5
:103BB0000E94F20109CF973009F4BECF983021F46A
:103BC00081E08093F10000CF993009F0FDCE837041
:103BD00009F0B2CFE1E0F1E081E031E096E321913C
:103BE000222371F08093E9003093EB00DF011197FD
:103BF0002C912093EC009093ED008F5F873079F744
:103C00008EE78093EA001092EA008F898093CD02BC
:103C1000DBCE8B8D9C8D1092E9001092C402109225
:103C2000C3029093C2028093C102898D811192C018
:103C30008E899D89913A49F4813209F07DCF47E020
:103C400050E06BE071E080E0B3CF913209F074CFC7
:103C5000833269F48F89988DB0E0A0E080930701EA
:103C600090930801A0930901B0930A01ADCE803270
:103C700069F48091E80082FFFCCF67E08BE091E07F
:103C80000E9429028BEF8093E8009ECE823209F0D9
:103C90009BCE8F8980931201EEEFFFE7859194917F
:103CA0008B3F9C4D51F1E0E0F8E080910B01909149
:103CB0000C01A0910D01B0910E01803B9440A10533
:103CC000B105F1F48091120180FD1AC0EE3F8AE047
:103CD000F80789F587E797E79183808380916000F3
:103CE0008093C50288E19BE00FB6F894A895809375
:103CF00060000FBE9093600067CEEEEFFAE0D5CF84
:103D0000808191818737974709F05ECEA895809191
:103D100060008861809360008091C502809360009C
:103D2000EE3F2AE0F20789F08091FE0A9091FF0AA7
:103D30009183808349CE808191818737980751F2A2
:103D40009093FF0A8093FE0AC5CF1092FF0A10924B
:103D5000FE0A3ACE0E943602DC0112960D911C91A9
:103D60000115110509F4E8CED801ED91FC910190FF
:103D7000F081E02DBE016B5E7F4FC8010995811176
:103D800023CEF80100851185EBCF181619060CF427
:103D90001BCED2CEF1E0FF12BECE6EE071E004CFBA
:103DA0001F920F920FB60F9211242F933F938F9370
:103DB0009F93AF93BF938091AD029091AE02A0917B
:103DC000AF02B091B0023091AC0223E0230F2D3747
:103DD00058F50196A11DB11D2093AC028093AD0250
:103DE0009093AE02A093AF02B093B0028091B10263
:103DF0009091B202A091B302B091B4020196A11DBC
:103E0000B11D8093B1029093B202A093B302B0931C
:103E1000B402BF91AF919F918F913F912F910F90DD
:103E20000FBE0F901F90189526E8230F0296A11D34
:103E3000B11DD2CF1F920F920FB60F9211242F9364
:103E40003F934F935F936F937F938F939F93AF9322
:103E5000BF93EF93FF938091B900887F803609F478
:103E60004AC0F0F5883209F4A7C018F5803109F48A
:103E70009BC0B8F4882309F4F9C0883009F494C0D1
:103E8000FF91EF91BF91AF919F918F917F916F9132
:103E90005F914F913F912F910F900FBE0F901F9008
:103EA0001895883109F488C0803251F7809318033F
:103EB00014C0803409F49DC040F48033B9F38833D2
:103EC000F9F68093180385ECB0C0803509F485C0FD
:103ED000883509F496C0883499F60E94C618D0CF68
:103EE000883909F48CC038F5883729F050F48836C1
:103EF00011F0803729F683E080931A031092AB0209
:103F000057C0883809F47BC0803919F0803809F02F
:103F1000B7CF8091AB02803208F071C0E091AB0264
:103F200081E08E0F8093AB028091BB00F0E0E557FB
:103F3000FD4F80833DC0803B39F0E0F4803A09F4C6
:103F400079C0883A09F09CCF84E080931A031092DC
:103F50008A0210928902E091D002F091D102099573
:103F60008091890281110FC081E0809389021092B3
:103F7000690209C0803C09F4A6CF883C09F4A3CFAC
:103F8000883B09F07DCFE0918A0281E08E0F80931B
:103F90008A02F0E0E759FD4F80818093BB00909149
:103FA0008A028091890229C08091F5028093BB002A
:103FB00085EC8093BC0064CF909117038091160329
:103FC000981758F5E091170381E08E0F809317033F
:103FD000F0E0EA50FD4F8081E9CFE091170381E0E6
:103FE0008E0F809317038091BB00F0E0EA50FD4FE5
:103FF000808390911703809116039817C8F285E883
:10400000D8CFE091170381E08E0F80931703809142
:10401000BB00F0E0EA50FD4F8083809119038111CD
:104020005CCF81E08093F40284EA8093BC0010921C
:104030001A0326CF85EC8093BC0010921A0380915E
:10404000AB02803230F4E091AB02F0E0E557FD4F77
:1040500010826091AB0270E0E091CE02F091CF024D
:104060008BE892E009951092AB020ACF10921803E8
:1040700034CFEF92FF920F931F93CF93DF93CDB77F
:10408000DEB7C659D1090FB6F894DEBF0FBECDBF5B
:10409000109247031092460388EE93E0A0E0B0E050
:1040A0008093480390934903A0934A03B0934B0332
:1040B00024EE31E030934503209344032FEF3FEF8C
:1040C0003093510320935003109287071092860774
:1040D0008093880790938907A0938A07B0938B07F2
:1040E00086EF91E0909385078093840710922307D1
:1040F000109222071092260710922A0710922B077F
:1041000010922C0710922D078FEF93E0A0E0B0E003
:1041100080932E0790932F07A0933007B093310719
:10412000109232071092330710923407109235071D
:104130008093360790933707A0933807B0933907D9
:1041400010923A0710923B0710923C0710923D07DD
:1041500080933E0790933F07A0934007B093410799
:10416000109242071092430710924407109245079D
:104170008093460790934707A0934807B093490759
:1041800010924A0710924B0710924C0710924D075D
:1041900080934E0790934F07A0935007B093510719
:1041A000109252071092530710925407109255071D
:1041B0008093560790935707A0935807B0935907D9
:1041C00010925A0710925B0710925C0710925D07DD
:1041D00080935E0790935F07A0936007B093610799
:1041E000109262071092630710926407109265079D
:1041F0008093660790936707A0936807B093690759
:1042000010926A0710926B0710926C0710926D075C
:1042100080936E0790936F07A0937007B093710718
:10422000109272071092730710927407109275071C
:104230008093760790937707A0937807B0937907D8
:1042400010927A0710927B0710927C0710927D07DC
:1042500080937E0790937F07A0938007B093810798
:1042600033E03093820748E14093250710922707F7
:1042700087E0809328071092290725E0298381E0B1
:104280008A8399E09B832C8361EA6D838E8355E852
:104290005F83388729879A8759E15B878C8759E242
:1042A0005D874E87F5E1FF87188A55E2598B8A8B27
:1042B000E5E7EB8B8C8B75E97D8B4E8B45E54F8B62
:1042C000188E45E6498F1A8E51E85B8F42E04C8F7D
:1042D0002D8F8E8F9F8F88A3F9A31AA287E28BA3BD
:1042E0008FEF8CA38DA31EA21FA2E8A780E189A750
:1042F0007AA73BA76CA71DA69EA780E38FA798ABC4
:1043000081E389AB9AAB82E38BAB5CAB4DAB80ECCA
:104310008EAB8FAB87E390E00E9453357C0187E33F
:10432000FE013196D70101900D928A95E1F787E061
:1043300090E00E9453358C01DC0111961C921E9274
:104340001396FC92EE92129787E390E015969C9359
:104350008E93149716961C920E94590BFC01A3850C
:10436000B485109709F09FC01487038785859685CB
:10437000D80114962D913C91820F931F96878587C3
:1043800090912507892F869586958695977009F0D7
:1043900092C08093260710912607812F90E00E94FB
:1043A0005335909323078093220781E0909127074C
:1043B000911101C080E01A5F810F809383071092F2
:1043C000F2061092F3061092F4061092F50610927F
:1043D000F6061092F7061092F8061092F90610925F
:1043E000FA061092FB061092FC061092FD0610923F
:1043F000FE061092FF06109200071092010710921D
:1044000002071092030710920407109205071092FA
:1044100006071092070710920807109209071092DA
:104420000A0710920B0710920C0710920D071092BA
:104430000E0710920F07109210071092110710929A
:10444000120710921307109214071092150710927A
:10445000160710921707109218071092190710925A
:104460001A0710921B0710921C0710921D078FEF5E
:104470009FEF90931F0780931E07909321078093CF
:10448000200790E080E02091260728171906A9F060
:10449000A4F0E0912207F0912307E80FF91F1082A2
:1044A0000196F1CFDC018D919C9111970097D1F786
:1044B0000D931C935BCF8F5F6CCF1092E50662E08B
:1044C00087E10E9492031092C40688E190E09093E5
:1044D000C6068093C506E7ECF6E0DF011D928A95DB
:1044E000E9F784E08093A50761E00E94920311E060
:1044F0001093A60761E081E00E9492031092A70743
:1045000060E080E00E9492031093A60761E081E0E2
:104510000E94920310923B068FE3E0E4F6E0DF0195
:10452000982F1D929A95E9F7EFE7F6E0DF01982FB3
:104530001D929A95E9F71092BE061092BF0695E07B
:104540009093C0061092C1061092C2061093C30643
:1045500010922506109228061092290610922A061B
:1045600010922B0610922C0610922D0610922E06F9
:1045700010922F061092000624E332E030930206D8
:10458000209301061092030698EC909304069AEF8C
:10459000909305069BEF909306062CEF2093070659
:1045A0009FEF9093080640E050E060E87FE340937F
:1045B000090650930A0660930B0670930C0610923E
:1045C00022061092210610922406109223061092C1
:1045D000B3049FE09093B404EDE1F1E0A5EBB4E007
:1045E00001900D929A95E1F7E4ECF4E0DF011D9261
:1045F0008A95E9F7E3E0F5E0DF011D922A95E9F7F6
:104600001092FF0501EB14E0C801815B94400F5F3D
:104610001F4F2091B4042817190639F034F061E0D7
:10462000F80183810E949203EFCF8FE3ECE2F1E087
:10463000A4E9B3E001900D928A95E1F78FE3E3EDF1
:10464000F3E0DF01982F1D929A95E9F7EBE6F1E090
:10465000A2E1B4E0982F01900D929A95E1F7E1E57F
:10466000F4E0DF011D928A95E9F78AE493E09093E4
:104670009104809390048DE390E090939304809351
:1046800092048BEC90E090939504809394041092A4
:104690009604109297041092980410929904109224
:1046A0009A0410929B0410929C0410929D04109204
:1046B0009E0410929F0481E08093A0041092A104B4
:1046C0002EE130E03093A3042093A20420E233E0F3
:1046D0003093A5042093A40428EE33E03093A7047C
:1046E0002093A6041092A8049AE09093A9049EE057
:1046F0009093AA0497E19093AB0496E19093AC0455
:104700001092AD041092AE048093AF041092B004E6
:1047100080E480939E0784E897E09093A0078093BD
:104720009F0721E420939707909399078093980718
:1047300022E420939007909392078093910788E159
:1047400090E09093A9078093A80785E08093AA073B
:104750001092AB071092AC071092AD071092AE0703
:104760001092AF071092B0071092B1071092B207E3
:1047700088E092E09093B4078093B3071092D20739
:104780001092D1071092D4071092D3071092D60737
:104790001092D5071092D8071092D707CA56DF4F4C
:1047A0000FB6F894DEBF0FBECDBFDF91CF911F9142
:1047B0000F91FF90EF900895CF93DF93CDB7DEB7C1
:1047C000A8970FB6F894DEBF0FBECDBF789484B51E
:1047D000826084BD84B5816084BD85B5826085BDFD
:1047E00085B5816085BD80916E00816080936E008B
:1047F000109281008091810082608093810080917D
:10480000810081608093810080918000816080932D
:10481000800080919100826080939100809191004E
:1048200081608093910080919000816080939000DE
:104830008091C10084608093C1008091C10082603A
:104840008093C1008091C10081608093C1008091FC
:10485000C30081608093C3008091C0008260809318
:10486000C0008091C20081608093C20080917A0074
:10487000846080937A0080917A00826080937A00CD
:1048800080917A00816080937A0080917A008068BC
:1048900080937A001092CD021092C8021092C70243
:1048A0008091D70081608093D70080EA8093D80000
:1048B00089B5806189BD89B5826089BD09B400FE72
:1048C000FDCF61E070E080E090E00E94FE03809107
:1048D000D8008F7C80618093D8008091E000807F39
:1048E0008093E0008091E1008E7E8093E1008DE076
:1048F0008093E200559A209A8FEF9FEF9093510397
:104900008093500368EE73E080E090E00E94FE0325
:1049100068EE73E080E090E00E94FE039E012F5F4E
:104920003F4F1901B90188EE93E00E9497168981E3
:10493000853609F041C210E000E0B8016C567C4FAA
:10494000C8010E949716B8016D527C4FC8018C595E
:104950009F4F0E949716B8016E5E7B4FC801885327
:104960009F4F0E949716B8016F5A7B4FC801845D14
:104970009E4F0E9497160F5F1F4F0F331105E9F6E8
:1049800081E991E00E94A116909391048093900494
:1049900083E991E00E94A11690939304809392047E
:1049A00085E991E00E94A116909395048093940468
:1049B00066E974E087E991E00E9497166AE974E07D
:1049C00081EA91E00E94971667E974E088E991E036
:1049D0000E9497166BE974E082EA91E00E949716B4
:1049E00068E974E089E991E00E9497166CE974E047
:1049F00083EA91E00E94971669E974E08AE991E000
:104A00000E9497166DE974E084EA91E00E9497167F
:104A10006EE974E08AEA91E00E94971660EA74E019
:104A20008BEA91E00E9497168091A00480939F04E6
:104A300061EA74E082EC91E00E94971684EC91E0C8
:104A40000E94A1169093A3048093A20468EA74E0E4
:104A500086EC91E00E94971687EC91E00E94A116E7
:104A60009093A5048093A40489EC91E00E94A11680
:104A70009093A7048093A60469EA74E08BEC91E01C
:104A80000E9497166AEA74E08CEC91E00E949716F7
:104A90006BEA74E08DEC91E00E9497166CEA74E08A
:104AA0008EEC91E00E94971684E993E09093B20413
:104AB0008093B1048EE997E00E947516B0ECCB2E7E
:104AC000BCEFDB2EBBE9EB2EFF24F394C092A107D1
:104AD000D092A207E092A307F092A40740E050E032
:104AE00064EB72E48EE997E00E94AD1587E997E0E8
:104AF0000E947516C0929A07D0929B07E0929C077D
:104B0000F0929D0740E050E064EB72E487E997E0A3
:104B10000E94AD1580E997E00E947516C092930738
:104B2000D0929407E0929507F092960740E050E00B
:104B300064EB72E480E997E00E94AD158CE080930D
:104B4000B8001092C90288EB9BE0A0E0B0E080932F
:104B50001C0390931D03A0931E03B0931F0381E0D9
:104B600080931B0310E040E0612F81EB94E00E94F2
:104B7000EF0C1F5F1E33B9F7F2EFCF2EF6E0DF2EFA
:104B800081E080932407C6010E94FE18D092E006BF
:104B9000C092DF0604E913E01093E2060093E106F9
:104BA000A1EBEA2EA4E0FA2EF092E406E092E306EE
:104BB0001093EF060093EE06D092E706C092E60649
:104BC00085EE96E00E946F0C10933806009337062E
:104BD000F0923A06E09239069091BE068091BF06A7
:104BE0009801F801402F40955191523039F48E2FA1
:104BF000542F5E0F911101C0952F821B53E0E23DAF
:104C0000F50791F79093BE068093BF068091A004AC
:104C1000882381F182EF96E09093310680933006ED
:104C200084E993E090932706809326060E94B113AF
:104C3000811106C068EE73E080E090E00E94FE0300
:104C400010E00E94B1138111BEC064E670E080E004
:104C500090E00E94FE031B3009F0B3C0809126064D
:104C600090912706FC01E45FFE4F1082855F9E4F06
:104C7000DC011C9281EB94E090931606809315065C
:104C800085EE96E09093100680930F0685E296E0FD
:104C900090930E0680930D0684EC96E09093120696
:104CA0008093110684E993E0909314068093130691
:104CB0008091AF079091B007A091B107B091B20772
:104CC0008093AB079093AC07A093AD07B093AE076A
:104CD00061E08091A6070E94640360E08091A507CF
:104CE0000E9464038091AA0790E00E94CE0361E0D5
:104CF0008091A5070E94640360E08091A6070E944E
:104D0000640310E000E0812C912C54018091A807ED
:104D10009091A9070817190708F0A2C12091A707C9
:104D200030E0F901EB57FE4F8491F901EA59FE4F4B
:104D3000E490F901E95BFE4FF490FF2009F48DC186
:104D400081110E941803EF2DF0E0EE0FFF1FE75CCA
:104D5000FE4FA591B491EC91EE2231E020E009F4F0
:104D600030E0832F922F092E000CAA0BBB0B209151
:104D7000A8073091A90721503109201B310B04C02D
:104D8000880F991FAA1FBB1F2A95D2F7882A992A34
:104D9000AA2ABB2A61E08091A6070E946403809141
:104DA000AA0790E00E94CE0360E08091A6070E94CF
:104DB00064030F5F1F4FAACF84E993E00E94541B46
:104DC00073CE1F5F3ECF1B3009F454CF8091D107C3
:104DD0009091D207188A198A1A8A1B8A9A83898322
:104DE0001C821B8211E01A878AE190E098878F83EA
:104DF0001B8619873EA22DA203E00FA318A646E04A
:104E000050E060E070E0CE0185960E94281180910C
:104E1000D1079091D207188A198A1A8A1B8A9A8315
:104E200089831C821B821A878CE190E098878F838C
:104E30001B8619873EA22DA20FA318A644E050E0BE
:104E400060E070E0CE0185960E9428118091D10724
:104E50009091D207188A198A1A8A1B8A9A838983A1
:104E60001C821B821A878FE190E098878F831B86B4
:104E7000198720E041E050E060E070E0C1010E944D
:104E8000C1078091D1079091D207188A198A1A8A8E
:104E90001B8A9A8389831C821B821A8780E290E096
:104EA00098878F831B86198720E044E150E060E0FB
:104EB00070E0C1010E94C1078091D1079091D20793
:104EC000188A198A1A8A1B8A9A8389831C821B82F0
:104ED0001A87E7E3EE2EF12CF886EF821B861987FE
:104EE0003EA22DA21FA385E088A741E050E060E02C
:104EF00070E0CE0185960E9428118091D107909193
:104F0000D207188A198A1A8A1B8A9A8389831C8273
:104F10001B821A87F886EF821B8619873EA22DA274
:104F20001FA387E088A741E050E060E070E0CE0179
:104F300085960E9428118091D1079091D207188AF6
:104F4000198A1A8A1B8A9A8389831C821B821A8770
:104F500088E390E098878F831B8619873EA22DA255
:104F60001FA386E088A741E050E060E070E0CE013A
:104F700085960E94281185E296E00E947F1180911B
:104F8000D5079091D6079093CB028093CA0264E62E
:104F900070E080E090E00E94FE031AE08091CA0277
:104FA0009091CB02DC01ED91FC910680F781E02D20
:104FB000B10109952D893E894F89588D6091280648
:104FC0007091290680912A0690912B060E947F32CB
:104FD0004B015C018092280690922906A0922A0635
:104FE000B0922B06298D3A8D4B8D5C8D60912C06ED
:104FF00070912D0680912E0690912F060E947F328F
:105000006B017C01C0922C06D0922D06E0922E06F8
:10501000F0922F06115011F620E030E040E251E40A
:10502000C501B4010E94F0326093280670932906EE
:1050300080932A0690932B0620E030E040E251E472
:10504000C701B6010E94F03260932C0670932D06C2
:1050500080932E0690932F060DCE90E080E083CEB5
:105060008092AF079092B007A092B107B092B207BA
:105070008091AB079091AC07A091AD07B091AE07BE
:1050800088159905AA05BB0509F4CBC054ECE52E9B
:1050900056E0F52E10E000E062E0762E6624639480
:1050A0008091A8079091A9070817190708F0A9C0CF
:1050B0008090AF079090B007A090B107B090B20772
:1050C000002E04C0B694A794979487940A94D2F7BC
:1050D000D501C40180959095A095B095E82FE17019
:1050E000DE2ED70113968C91E81709F474C0B1E055
:1050F0008B229924AA24BB242091E1063091E20658
:10510000F901EA5EFE4F4081842F68E10E94193563
:105110009017110631F44831D0F4265E3E4FF90164
:10512000D08281149104A104B104E1F042E08091A5
:10513000DF069091E006602F741206C0602F809108
:10514000DF069091E006712C0E94E21A14C08114CF
:105150009104A104B10451F7F901E65EFE4F80818C
:1051600086258083602F8091DF069091E0060E9463
:10517000071B77247394D7011396DC92D12CC12C92
:105180008091E1069091E2068C0D9D1DFC01EE5F81
:10519000FE4F208181149104A104B10411F5222352
:1051A00099F02150330B0217130771F48A5F9E4F59
:1051B000FC016081662341F061504FEF8091E3066E
:1051C0009091E4060E94EF0CBFEFCB1ADB0AE4E0FB
:1051D000CE16D104A9F60F5F1F4FFFEFEF1AFF0A9B
:1051E0005FCF222389F32150330B0217130761F796
:1051F0008A5F9E4FDC016C91662331F3615040E081
:10520000DDCF21E072122FC0E091E106F091E206BD
:10521000E55EFE4F8081833011F0863011F484E02A
:1052200080830E9429014C01990FAA08BB08F12C28
:10523000E12C0091EE061091EF06F801EB5EFE4FB7
:10524000208130E0E216F306DCF40E942901092EE9
:10525000000CAA0BBB0B880E991EAA1EBB1E3FEFAB
:10526000E31AF30AE6CF7110DCCFE091E106F0918A
:10527000E206E55EFE4F8081873099F682E0D0CF6E
:105280002F5F3F4F032E000C440B550BC501B4019B
:105290000E944D3269017A01F801EC5EFE4F808177
:1052A000B82EE894B1F841E0B4121CC08091E60633
:1052B0009091E7062091F0062111F0C07897408187
:1052C00051814F505109052E000C660B770BC41607
:1052D000D506E606F70630F07B9660810E94071B34
:1052E000B092F0062091EE063091EF06F901EC5EE7
:1052F000FE4F80818230F8F08091E6069091E706BB
:105300004091F1064111E5C0769740815181465F99
:105310005F4F052E000C660B770B4C155D056E0577
:105320007F0548F0295E3E4FD9016C910E94071B12
:1053300081E08093F106E091EE06F091EF06F3959F
:1053400080809180092C000CAA08BB088C149D0455
:10535000AE04BF0408F4DAC0D092ED06C092EC06A9
:105360008091E6069091E7064091EC065091ED069B
:10537000052E000C660B770BDC0118964D935D93A0
:105380006D937C931B97D2962C9121110E94FE184D
:1053900080919F04882309F465C18091CA0290918D
:1053A000CB02DC01ED91FC910680F781E02DB1018B
:1053B0000995209128063091290640912A0650919E
:1053C0002B066D897E898F89988D0E947E3220E020
:1053D00030E048EC52E40E94A7340E94D5330E948A
:1053E00062336B01709333066093320620912C0672
:1053F00030912D0640912E0650912F06698D7A8DA1
:105400008B8D9C8D0E947E3220E030E048EC52E48F
:105410000E94A7340E94D5330E94623370933506F0
:10542000609334062091260630912706F901E25F49
:10543000FE4F40815181F601D7FE04C0EE27FF27C1
:10544000EC19FD09E417F50724F4109233061092C5
:105450003206FB0177FF04C0EE27FF27E61BF70BA0
:10546000E417F50724F41092350610923406809163
:10547000320690913306F901E65FFE4F40814130DC
:1054800009F069C040913406509135065195419517
:105490005109509333064093320678C0213009F009
:1054A00021CFF801E450FF4F408151814F50510905
:1054B000052E000C660B770BC416D506E606F7061C
:1054C00008F010CF7B9660810E94E21A1092F006DD
:1054D00009CF413009F02FCFF901E250FF4F408151
:1054E0005181465F5F4F052E000C660B770B4C1504
:1054F0005D056E057F0508F01ECF295E3E4FF90160
:1055000060810E94E21A1092F10615CFC701B60120
:10551000681979098A099B090E9498332091E80645
:105520003091E9064091EA065091EB060E94A734BB
:105530006B017C01C501B4010E949A339B01AC014F
:10554000C701B6010E947F320E9462337093ED065C
:105550006093EC0605CF423061F4919581959109F5
:1055600090933306809332068091340690913506ED
:105570000AC0433081F4409134065091350650936F
:1055800033064093320691958195910990933506A3
:10559000809334060AC0443009F0F9C09195819592
:1055A0009109909333068093320640913606F0912C
:1055B0003206E09133068091300690913106411118
:1055C000FBC0D901A05FBE4F6D917C914F2F5E2F24
:1055D00057FF03C05195419551096417750764F051
:1055E000409134065091350657FF03C051954195BF
:1055F0005109641775074CF4285E3E4FF90160812C
:105600000E94071B81E080933606809130069091BE
:1056100031064091320650913306052E000C660B80
:10562000770BFC01408351836283738322A921118C
:105630000E94FE1880913006909131064091340608
:1056400050913506052E000C660B770BDC01149685
:105650004D935D936D937C931797D2962C91211166
:105660000E94FE180E94E0046B017C01E091370665
:10567000F0913806E55EFE4F8081833009F42FC13A
:1056800008F0C3C0813009F408C1823009F410C1A8
:1056900000911506109116060E94E0044B015C0172
:1056A00045E0E42EF12C6801E2EBCE1AEEEFDE0AC3
:1056B000D6018C918E3308F0C2C18F5F8C93D601D6
:1056C0006C91862F90E0D801ED91FC911197E80F35
:1056D000F91F47ADA80FB91F53962C91421740F5FB
:1056E000E354FF4F2081222319F1FC01EE0FFF1F2D
:1056F000EE0FFF1FE00FF11FEE5AFF4F80819181E7
:10570000A281B38124013501481A590A6A0A7B0A29
:10571000B4E62B9FC0011124092E000CAA0BBB0B71
:10572000481659066A067B061CF0C8010E94EF0C59
:10573000E1E0EE1AF10809F0BBCF09E010E0CC245B
:10574000C39427E0B22E84E493E00E94FE02892BEA
:1057500009F48BC184E493E00E94BC0220912106ED
:1057600030912206F901E050FA4F878B211531055F
:1057700009F068C1909117068091030698136DC1D6
:105780002F5F3F4F30932206209321066AC1453098
:1057900041F4409134065091350651954195510997
:1057A000EECE463009F4E0CE473009F0FECE40910F
:1057B0003406509135066DCE413009F026CFD9011F
:1057C000A05FBE4F6D917C914F2F5E2F57FF03C09E
:1057D000519541955109461757070CF016CF409146
:1057E00034065091350657FF03C051954195510934
:1057F000461757070CF009CF285E3E4FD9016C9130
:105800000E94E21A1092360600CF853009F4F1C0EA
:1058100008F4C3C0863009F03BCF0E9472010091AA
:10582000C10610E0C801895C994F5C0199249394EA
:105830008091C2068017110609F00CF4A5C0E09112
:105840003706F0913806E00FF11F80818230F9F4BD
:10585000F501E85BFF4FD50119968C919091C00638
:105860002081213009F0E5C02FEF30E0291B3109FC
:10587000821713060CF4D9C01082D50119964C91E9
:10588000602F8091390690913A060E94EF0C0F5FCD
:105890001F4FBFEFAB1ABB0ACBCFC0923C06D092D2
:1058A0003D06E0923E06F0923F0685E08083F0CE12
:1058B0000E940B0E8091C306882309F4E9CEC092A2
:1058C0003C06D0923D06E0923E06F0923F06E09103
:1058D0003706F0913806E55EFE4F83E0E7CF809112
:1058E0003C0690913D06A0913E06B0913F06A7016F
:1058F0009601281B390B4A0B5B0BDA01C901813277
:105900009E44A105B1050CF4C3CE0E947201009122
:10591000C10610E08091C2068017110641F13CF1EA
:10592000E0913706F0913806E00FF11F8081823058
:10593000D9F40E94AD3120E031E040E050E00E9417
:105940001B32B62E462F602F8091390690913A0671
:105950000E94EF0CF801E95CF94FDF01A85BBF4F33
:105960008B2D81708C93B1860F5F1F4FD3CF8091A9
:10597000C306882309F48CCEE0913706F0913806EF
:10598000E55EFE4F86E08083C0923C06D0923D06E5
:10599000E0923E06F0923F067BCE0E94720100919B
:1059A000C10610E08091C20680171106A9F0A4F08C
:1059B000E0913706F0913806E00FF11F80818230C8
:1059C00041F44FEF602F8091390690913A060E9482
:1059D000EF0C0F5F1F4FE6CF8091C306882309F4B9
:1059E00057CEE0913706F0913806E55EFE4F87E02E
:1059F000CACF80913C0690913D06A0913E06B091A1
:105A00003F06C81AD90AEA0AFB0A41E1C41647E26E
:105A1000D406E104F1040CF43BCE0E940B0E8091FD
:105A2000C306882309F434CE52CF890FF50181874C
:105A300024CF981710F0908220CF891BF7CFF60162
:105A400010823DCE2130310509F03FC390911806F8
:105A500080910406981708F093CE109222061092B7
:105A600021060150110909F06ECE80912306909114
:105A70002406181619060CF01EC3019731F5009183
:105A800011061091120682EE91E00E9491027801B7
:105A9000B3E0EB0EF11C6801EAE1CE0ED11CD70198
:105AA0008D917D0190E00E94020F80EE91E00E94B6
:105AB0009102CE14DF0499F7F801828D90E00E94E4
:105AC000020F8DED91E00E9491028091230690914A
:105AD0002406029751F5009115061091160688EAE2
