:100000000C9479010C94A1010C94A1010C94A10110
:100010000C94A1010C94A1010C94A1010C94A101D8
:100020000C94A1010C94A1010C94B71B0C94261CF8
:100030000C94A1010C94A1010C94A1010C94A101B8
:100040000C94A1010C94A1010C94A1010C94A101A8
:100050000C94A1010C94A1010C94A1010C94581EC4
:100060000C94A1010C94A1010C94A1010C94A10188
:100070000C94A1010C94A1010C94A1010C94A10178
:100080000C94A1010C94A1010C94A1010C94A10168
:100090000C94A21E0C94A1010C94A1010C94A1013A
:1000A0000C94A1010C94A1010C94A1015245535050
:1000B0004F4E53452C436F6E6669672073617665BA
:1000C0006420696E746F20454550524F4D0D0A00F3
:1000D00000000000240027002A002D00300000004E
:1000E0000000250028002B002E003100080B000224
:1000F00002020000090400000102020000052400C1
:100100001001052401010104240206052406000152
:100110000705810310004009040100020A000000E5
:1001200007050202400000070583024000000403A7
:10013000090412010002EF0201408F0E0692000135
:1001400001020301556E6B6E6F776E00436C65762E
:1001500020536F66742050696E4F6E65000000007A
:10016000002300260029002C002F000404040404AE
:10017000030405020202020403020202020606064A
:1001800006060604040202020404040802011040E8
:1001900080401020408040800802040180402010F0
:1001A0000201108010204040200000000200090FD2
:1001B0000000030401000C0000000000000000002B
:1001C000000000000000000D0A002C004F555450A4
:1001D0005554532C00504C554E4745522C000D0A97
:1001E000002C002C002C00414343454C2C00454E74
:1001F00044204F4620444154410D0A002C002C005D
:100200002C002C002C002C002C002C002C002C008E
:100210002C002C002C002C002C002C00434F4E46B0
:1002200049472C00524553504F4E53452C5341568D
:100230004520434F4E46494720535543434553536A
:100240000D0A00524553504F4E53452C53415645CD
:1002500020434F4E46494720535543434553530D82
:100260000A00524553504F4E53452C53415645209A
:10027000434F4E46494720535543434553530D0A78
:100280000044454255472C43534420426F617264F9
:1002900020436F6E6E65637465640D0A000D0A007D
:1002A0002C00425554544F4E532C00444542554760
:1002B0002C43534420426F61726420436F6E6E651D
:1002C000637465640D0A000D0A00524553504F4E89
:1002D00053452C6572726F722072656164696E6736
:1002E0002000070605040100080A0B0C0D09C11FB8
:1002F000A43011241FBECFEFDAE0DEBFCDBF12E085
:10030000A0E0B1E0E4E1FCE602C005900D92A83364
:10031000B107D9F727E0A8E3B2E001C01D92A03DE4
:10032000B207E1F711E0C8E7D1E004C02197FE0170
:100330000E94A634C737D107C9F70E944A230C94FC
:10034000FD350C94000008950895E7EEF2E0E49185
:1003500090917B008E2F880F880F80729F7D892B54
:1003600080937B00E770E064E0937C0080917A00EA
:10037000806480937A0080917A0086FDFCCF809122
:100380007800909179000895FC018091B50288234E
:1003900011F13FB7F89482E08093E9002091F200D8
:1003A000822F90E01816190614F481E090E088235B
:1003B00039F0289844E64093B4024091F10040831C
:1003C000222339F02091F200211103C02BE6209363
:1003D000E8003FBF08958FEF9FEF08954091AC0272
:1003E0005091AD022091AA023091AB0242175307FF
:1003F000B4F49091E8009570E1F39091E80092FDDB
:1004000019C08093F1008091AC029091AD020196E9
:100410008F739927892B19F48EEF8093E8008091D0
:10042000AC029091AD0201969093AD028093AC0224
:1004300081E0089580E00895EF92FF920F931F935B
:10044000CF93DF93F82E192FE62E042F81E0860F2D
:10045000880F0E94EE0183E00E94EE01CF2DD12F84
:10046000EC0EFD2EF11CCE15DF05B9F007FF13C011
:10047000FE0184910E94EE01182F80E00E94EE019F
:10048000812321968111EFCFDF91CF911F910F91A1
:10049000FF90EF9008958881EDCF81E0F5CFDF9256
:1004A000EF92FF920F931F93CF93DF93D82E8A0181
:1004B000EB017B01E40EF51ECE15DF0559F0D7FEEA
:1004C00012C0FE0184910E94EE0121968111F4CFA9
:1004D0000FEF1FEFC801DF91CF911F910F91FF9098
:1004E000EF90DF9008958881EECF2FB7F894877052
:1004F0008093E9009091E800892F807295FF04C0F5
:100500009091F20080E4891B2FBF0895615030F074
:100510002091F100FC0120830196F8CF289884E611
:100520008093B40208958091A20281110DC082E0EF
:1005300080939E0284E080939F021092A102109209
:10054000A00281E08093A2028EE992E008950F93C9
:100550001F93CF93DF931F92CDB7DEB782E08983DD
:1005600042E450E06CEE70E080E80E944F020E948E
:100570009302DC0112960D911C910115110589F071
:10058000D801ED91FC910280F381E02DBE016F5FF7
:100590007F4FC801099597FD04C0F80100851185BA
:1005A000ECCF89810F90DF91CF911F910F9108952A
:1005B000CF93DF931F92CDB7DEB76983DC01ED9156
:1005C000FC910280F381E02D41E050E0BE016F5FBD
:1005D0007F4F09950F90DF91CF9108950F931F934F
:1005E000CF93DF938C01D0E0C0E0F801EC0FFD1F4A
:1005F0006491662341F08CE293E00E94D802892B3B
:1006000011F02196F2CFCE01DF91CF911F910F9182
:10061000089583E08093E9008091F200882319F027
:100620008AE38093E800089583E00E94750290E0D9
:100630000895CF93DF931F92CDB7DEB7FC01848579
:10064000958597FD08C02FEF3FEF358724870F90E2
:10065000DF91CF910895CE0101960E94C4010197C8
:1006600019F4898190E0F3CF8FEF9FEFF0CF0F93D4
:100670001F93CF93DF931F92CDB7DEB78C01FC01A0
:100680008485958597FF0BC0CE0101960E94C40119
:10069000019771F4898190E0F80195878487F801CA
:1006A000848595850F90DF91CF911F910F910895CB
:1006B0008FEF9FEFF1CFFC018485958597FD0BC0EF
:1006C0009FB7F89482E08093E9008091F2009FBF89
:1006D00090E0019608959FB7F89482E08093E90036
:1006E0008091F2009FBF90E0089581508F3008F014
:1006F00047C0E82FF0E0E158FC4F0C94A6349C036F
:10070000A0038E0394039803C003C003C003A30394
:10071000A903AD03B103B703C003BB0380918000FD
:100720008F77809380000895809180008F7DF9CF2E
:1007300080918000877FF5CF84B58F7784BD089541
:1007400084B58F7DFBCF809190008F778093900050
:100750000895809190008F7DF9CF80919000877FE0
:10076000F5CF8091C0008F778093C000089580916D
:10077000C0008F7DF9CF8091C200877F8093C20037
:1007800008951F93CF93DF93282F30E0F901E755A9
:10079000FE4F8491F901E657FE4FD491F901E559D6
:1007A000FE4FC491CC23A9F0162F81110E9475032E
:1007B000EC2FF0E0EE0FFF1FE252FF4FA591B49136
:1007C0008FB7F894EC91111108C0D095DE23DC931B
:1007D0008FBFDF91CF911F910895DE2BF8CFCF937C
:1007E000DF9390E0FC01E657FE4F249185599E4F20
:1007F000FC0184918823C9F090E0880F991FFC01C7
:10080000E053FF4FA591B491FC01E252FF4FC59117
:10081000D49161110DC09FB7F8948C9120958223DB
:100820008C938881282328839FBFDF91CF910895DF
:10083000623051F49FB7F8943C91822F80958323C6
:100840008C93E8812E2BEFCF8FB7F894EC912E2B61
:100850002C938FBFEACF8230910538F0880F991F13
:10086000880F991F05970197F1F708953FB7F894FE
:1008700080919A0290919B02A0919C02B0919D025E
:1008800026B5A89B05C02F3F19F00196A11DB11DEB
:100890003FBFBA2FA92F982F8827BC01CD01620F27
:1008A000711D811D911D42E0660F771F881F991FE2
:1008B0004A95D1F708958F929F92AF92BF92CF92AF
:1008C000DF92EF92FF924B015C010E9436046B01B4
:1008D0007C010E9436046C197D098E099F09683ECF
:1008E000734081059105A8F321E0821A9108A108BF
:1008F000B10888EEC80E83E0D81EE11CF11C8114FB
:100900009104A104B10429F7FF90EF90DF90CF90FC
:10091000BF90AF909F908F9008957F928F929F92FB
:10092000AF92BF92CF92DF92EF92FF920F931F93FD
:10093000CF93DF93C82E8B017A018091B50281118C
:1009400010C08FEF9FEFDF91CF911F910F91FF901C
:10095000EF90DF90CF90BF90AF909F908F907F905F
:1009600008958091B00280FF05C08091E000826010
:100970008093E000CE2DDF2DD12C8AEFB82E8C2D68
:100980008770982E8C2D8072882E8C2D8074782EF6
:100990009AE3A92E209719F4DD2009F452C08C2D7A
:1009A0000E94750281110AC0BA94BB2051F261E025
:1009B00070E080E090E00E945B04ECCF8C171D0695
:1009C00011F00CF08C2F9FB7F8949092E9002091D1
:1009D000E80025FD02C09FBFDDCF282F30E0C21BFD
:1009E000D30B882029F08150A0F01092F100FBCFAA
:1009F000F801C7FC0AC0815050F041914093F100CA
:100A0000FACF44914093F10031968150D0F7020F14
:100A1000131FDD2021F0A092E800D12CDCCF8091C3
:100A2000E80085FD07C0A092E800DD24D39420975C
:100A300091F2F3CF209779F6772069F2A092E8003F
:100A4000CACF5D9884E68093AF02C7017CCFCF9375
:100A5000DF93EC0180911201882331F083E00E9442
:100A60008D041816190634F081E090E09B838A8388
:100A700080E090E0DF91CF9108952FB7F8946091D6
:100A800096027091970280919802909199022FBFDF
:100A90000895FC0183858F3F19F061E00C94C10338
:100AA0000895FC0180819181892B39F0A281B38165
:100AB0009C9111968C919CBD8DBD83858F3F19F0C3
:100AC00060E00C94C1030895AF92BF92CF92DF9281
:100AD000EF92FF920F931F93CF93DF93EC018881E6
:100AE0009981892B89F06EBD0DB407FEFDCFBEB490
:100AF0008B2DDF91CF911F910F91FF90EF90DF90A1
:100B0000CF90BF90AF9008958885998511E0892B8B
:100B100009F010E8AA24A394862F812309F0A12CC0
:100B2000062F2C813D814E815F8160E271EA87E072
:100B300090E00E94C631F22EB02EE12CC22ED12CB4
:100B4000FF2019F0C6010E942B048A85877F09F0D7
:100B500042C08D858F3F89F0902F912381E009F469
:100B600080E08A1551F0EF85F8898F89992369F122
:100B70009081892B8083AA24A394E989FA898081B2
:100B8000998D892B8083FF2019F0C6010E942B04C8
:100B90008E858F3F39F0EB89FC898081988D892380
:100BA00009F0E12AE989FA899081898D8095892364
:100BB00080838E858F3F09F0BE2C88859985892B8F
:100BC000B9F5110F1111BCCF93CF90818095892376
:100BD0008083A12CD2CFE989FA898081998D892BD4
:100BE0008083FF2019F0C6010E942B048D858F3F62
:100BF00049F0EF85F8898F89902F9123A9F0908192
:100C0000892B8083E989FA899081898D8095892350
:100C100080838E858F3F69F2EB89FC898081988D76
:100C2000892339F2E12AC5CF908180958923E9CFC4
:100C30001695C8CF8F929F92AF92BF92CF92DF92BC
:100C4000EF92FF920F931F93CF93DF937C014B01A1
:100C50006A01B22EA32E0E945105E401C80CD91CD2
:100C6000CC15DD0569F4CB2DDA2D0C0F1D1FC01737
:100C7000D10759F06FEFC7010E9464058993F7CF40
:100C80006991C7010E946405EBCFC7010E94490525
:100C900081E0DF91CF911F910F91FF90EF90DF9056
:100CA000CF90BF90AF909F908F9008958F929F921A
:100CB000AF92BF92CF92DF92EF92FF920F931F936A
:100CC000CF93DF937C01B62EA72E6A0149010E94C3
:100CD0005105E401080D191DC017D10761F4CB2D92
:100CE000DA2DCC0EDD1ECC15DD0551F06991C70162
:100CF0000E946405F8CF6991C7010E946405ECCF9A
:100D0000C7010E94490581E0DF91CF911F910F91AA
:100D1000FF90EF90DF90CF90BF90AF909F908F901B
:100D200008950895089520917202260F3327331FE6
:100D300021323105ECF420910203FC0190E080E0C7
:100D4000243069F082E00895A09172022191AC01F3
:100D50004E5A5D4FA40FB52FB11D2C9301968617E7
:100D600098F380917202680F6093720280E0089598
:100D700081E008951092020381E0809301031092B4
:100D8000DC0261E082E00E94C10361E083E00E9436
:100D9000C103E9EBF0E080818E7F808380818D7FCD
:100DA000808388E48093B80085E48093BC00089534
:100DB0001092BB021092BA021092090310922B03F8
:100DC0000E94BA0683EA91E09093B9028093B80238
:100DD00084EA91E09093B7028093B6020895CF938E
:100DE000DF9391E0909351028823B9F0C091B8004D
:100DF000D091BA008091BC008A7B8093BC0060E0F7
:100E000082E00E94C10360E083E00E94C1030E946F
:100E1000BA06D093BA00C093B800DF91CF9108957D
:100E20008F929F92AF92BF92CF92DF92EF92FF92FA
:100E30000F931F93CF93DF93D0912B03D13208F000
:100E4000D7C0182FC0912A030E9436046B017C0181
:100E50008091020381116BC082E0809302031093A2
:100E600001038FEF809300031092FF02D093FE02E4
:100E7000AAE0B3E0EEEDF2E080E0D81391C010926A
:100E8000DD028091DD02CC0FC82BC093DD02809182
:100E9000DC02813009F088C01092DC020E94360426
:100EA0006B017C018091DD028093BB008091040383
:100EB00090910503A0910603B0910703892B8A2B1B
:100EC0008B2BA1F00E9436040091040310910503BE
:100ED00020910603309107036C197D098E099F0943
:100EE000061717072807390708F442C08091BC008D
:100EF00083FDD8CF85EC8093BC000E9436046B0143
:100F00007C0180910203823009F450C0809100037B
:100F10008F3F09F46FC080910003803209F46CC0E8
:100F200080910003803309F469C084E026C0809179
:100F3000040390910503A0910603B0910703892B48
:100F40008A2B8B2B09F484CF0E94360480900403F3
:100F500090900503A0900603B09007036C197D09DB
:100F60008E099F0986169706A806B90608F070CF65
:100F7000809103030E94EF0685E01092090310920E
:100F80002B0310920803DF91CF911F910F91FF90D7
:100F9000EF90DF90CF90BF90AF909F908F9008958B
:100FA0009D9191938F5F69CF85EEA5CF80910403CA
:100FB00090910503A0910603B0910703892B8A2B1A
:100FC0008B2B09F49ECF0E943604009104031091EC
:100FD000050320910603309107036C197D098E09E2
:100FE0009F09061717072807390708F08ACFC0CFCF
:100FF00081E0C3CF80E0C1CF82E0BFCF83E0BDCF2F
:101000001F93CF93DF93EA01122FDC0111968D918C
:101010009C91DC01ED91FC910280F381E02D09951A
:10102000C817D90729F4812F0E94100791E0811178
:1010300090E0892FDF91CF911F910895AF92BF92D9
:10104000CF92DF92EF92FF920F931F93CF93DF9394
:1010500000D0CDB7DEB7DC01211103C018962C916A
:101060001897253008F043C01F964D935D936D93FC
:101070007C93529790E080E0E22EF12C8E159F0534
:10108000B4F41A962C911A9721110AC0FD01E80FA9
:10109000F91F4387452F562F672F77270196EECFED
:1010A000F701E81BF90BEA0FFB1F4287F3CF6D0135
:1010B0008BE0C80ED11C16969C91169717968C91B2
:1010C000179799838A83AD90BC901197A114B104AE
:1010D00009F441C019960C9110E098012E0D3F1DA6
:1010E000D50114968D919C918217930710F480E09E
:1010F00016C0F50181819281208131E0309308038F
:1011000020932A031092090310922B030115110555
:1011100099F421E0A701B601C5010E9400080F90D3
:101120000F90DF91CF911F910F91FF90EF90DF9083
:10113000CF90BF90AF900895DC01ED91FC910280BB
:10114000F381E02DA801BE016F5F7F4F099508175D
:10115000190769F6DECF1296ED91FC91139730973F
:1011600031F214962D913C91159719960C9110E03F
:101170002330310571F48E7F89839A830F5F1F4F6F
:101180009E012F5F3F4FA701B601CF010E94560677
:10119000C6CF2115310519F49F779983F1CF2230FD
:1011A000310511F49068F9CF2130310549F79F7767
:1011B0009064F3CFCF93DF93EC018B818823A1F070
:1011C000888191E09093080380932A031092090389
:1011D00010922B0381E00E94100791E0811190E0B2
:1011E000892FDF91CF9108950E94D80681E08B83EB
:1011F000CE010E94DA08982F8111E2CFF1CF8F92B1
:101200009F92AF92BF92CF92DF92EF92FF920F9395
:101210001F93CF93DF93D82FC62F142F613208F07E
:101220009CC00E9436046B017C01809102038111F5
:101230006FC081E080930203109301039FEF9093AE
:1012400000031092FF029C0F9093FE028093DD0238
:101250008091DD02DD0FD82BD093DD028091DC027E
:10126000813009F07CC01092DC020E9436046B01D0
:101270007C018091DD028093BB00809104039091FA
:101280000503A0910603B0910703892B8A2B8B2BB2
:10129000A1F00E94360400910403109105032091EF
:1012A0000603309107036C197D098E099F09061703
:1012B00017072807390708F44CC08091BC0083FD4C
:1012C000D8CF85EC8093BC000E9436046B017C0172
:1012D00080910203813009F444C08091FF028C1791
:1012E00010F4C091FF02EEEDF2E0ACEBB2E080E072
:1012F0008C1359C08C2FDF91CF911F910F91FF90CC
:10130000EF90DF90CF90BF90AF909F908F90089517
:101310008091040390910503A0910603B091070307
:10132000892B8A2B8B2B09F480CF0E943604809066
:10133000040390900503A0900603B09007036C1976
:101340007D098E099F0986169706A806B90608F03A
:101350006CCF809103030E94EF06C0E0CBCF85EEF7
:10136000B1CF8091040390910503A0910603B09141
:101370000703892B8A2B8B2B09F4AACF0E943604F2
:101380000091040310910503209106033091070397
:101390006C197D098E099F09061717072807390759
:1013A00008F096CFD6CF91919D938F5FA1CF0895EE
:1013B000E091BB028091BA02E81730F4F0E0E45407
:1013C000FD4F808190E008958FEF9FEF08959091F9
:1013D000BB028091BA022FEF3FEF981748F4E92F34
:1013E000F0E0E454FD4F208130E09F5F9093BB021A
:1013F000C90108958091BA029091BB02891B990B93
:101400000895CF92DF92EF92FF920F931F93CF93A5
:10141000DF937C01CB018A0120910803222389F00C
:10142000EB016B01C40ED51ECC15DD0569F0699189
:10143000D701ED91FC910190F081E02DC701099554
:10144000F3CF642F0E949306C801DF91CF911F91C3
:101450000F91FF90EF90DF90CF900895CF93DF939F
:101460001F92CDB7DEB76983209108032223F9F0DC
:1014700020912B03203258F021E030E0FC0133832F
:10148000228390E080E00F90DF91CF9108958091CA
:101490000903E82FF0E0E65FFC4F998190838F5FAE
:1014A0008093090380932B0381E090E0ECCF61E00F
:1014B000CE0101960E949306F7CF90E080E0089558
:1014C0001F93CF93DF93EC01142F89819A81288198
:1014D00031E03093080320932A03109209031092FD
:1014E0002B03DC01ED91FC910190F081E02D099539
:1014F00089819A81DC01ED91FC910190F081E02DD0
:10150000612F099581E0DF91CF911F910C94100715
:10151000DC01ED91FC910190F081E02D0994EF92B6
:10152000FF920F931F93CF93DF93EC01E42E052FCF
:10153000F22E132F89819A81288131E0309308039C
:1015400020932A031092090310922B0324E0629F38
:10155000B00111246A5F7F4FDC01ED91FC91019095
:10156000F081E02D09956E2D702F89819A810E945E
:10157000880A602F70E089819A810E94880A6F2D05
:10158000712F89819A810E94880A612F70E0898178
:101590009A810E94880A81E0DF91CF911F910F917B
:1015A000FF90EF900C9410079A01803130F4AB015A
:1015B000682F8DE797E00C948F0A90EF980F903189
:1015C00028F4AB01692F86E797E0F5CF8052803190
:1015D00028F4AB01682F8FE697E0EDCF0895DC018A
:1015E000FB0112962C911297848195812817190678
:1015F00041F491818081813A31F49D7F81E0913085
:1016000009F080E008958132E1F79B3029F482816E
:101610001F968C9381E008959A3099F782815096B5
:101620008C93F8CFDC01FB0188E4808389E481831B
:1016300084E482831D969C911D979F709F5B93838A
:101640001D968D919C9124E0969587952A95E1F7BA
:101650008F708F5B848385E00895EF92FF920F93E4
:101660001F93CF93DF93FB012081213889F52381DC
:10167000223271F5DC0112964C912481358142179A
:10168000130631F58C01FC01C385D485F12CE12CC6
:10169000209791F04C815D816A817B818E818111DF
:1016A00080E80E944F028F3F980759F0E80EF91E1C
:1016B0000990D881C02DECCF81E0D8011F968C9382
:1016C000C701DF91CF911F910F91FF90EF90089587
:1016D00090E080E0F6CFCF93DF93CDB7DEB7699788
:1016E0000FB6F894DEBF0FBECDBFFC01DB018C91BD
:1016F0008F5F8C939E012D5F3F4F8DE0D9011D922E
:101700008A95E9F729E0298384E08A8391E09D8323
:1017100083E08E832A8721E22B879C879D879F8782
:1017200022E2288B27E02B8B25E02C8B8E8B20E46C
:1017300030E0388F2F8B998F82818B8395858685BA
:10174000998B8A8B838180688D8B49E150E0BE0143
:101750006F5F7F4F80E00E944F0269960FB6F8944A
:10176000DEBF0FBECDBFDF91CF910895CF93DF9342
:1017700080914902811167C081E080933C0280938F
:101780003D0222E432E030933F0220933E02109269
:101790004102109240022EEA31E030933902209348
:1017A00038021092440210924302109246021092A4
:1017B0004502809347028093480281EC8093420265
:1017C0000E949302FC01818190913C02482F490FB5
:1017D0005527551F483051059CF5A281B3811097BC
:1017E00009F528E332E033832283208120933A02F3
:1017F00080933B0280913D02820F808320913E02C4
:10180000A22FB0913F028A2F821B8917C8F48181D1
:101810003D91C82FD0E0C050DF4F38838F5F818368
:10182000F2CFD90118962D913C91199721153105C8
:10183000C1F728E332E019963C932E931897D5CF41
:1018400081E08093490288E392E0DF91CF9108958F
:101850004F925F926F927F928F929F92AF92BF92C0
:10186000CF92DF92EF92FF920F931F93CF93DF936C
:10187000CDB7DEB72C970FB6F894DEBF0FBECDBF45
:10188000EA14FB040C051D050CF07FC0270138018C
:10189000A982BA82CB82DC8290E080E0662309F4E0
:1018A0005DC02D833E834F8358872D813E814F81BC
:1018B0005885241535054605570524F44D825E826A
:1018C0006F82788689819A81AB81BC8189879A876A
:1018D000AB87BC872D813E814F81588528173907FA
:1018E0004A075B0724F429873A874B875C87AE1445
:1018F000BF04C006D106B4F449815A816B817C8152
:1019000089859A85AB85BC85481B590B6A0B7B0B77
:10191000DB01CA01840D951DA61DB71D89879A8715
:10192000AB87BC8729853A854B855C8524193509A9
:1019300046095709AFEFBFEF0E94B33129813A81C1
:101940004B815C8124193509460957090E9494315D
:10195000D4012C9311963C9382E090E02C960FB624
:10196000F894DEBF0FBECDBFDF91CF911F910F91D5
:10197000FF90EF90DF90CF90BF90AF909F908F90AF
:101980007F906F905F904F90089525013601E98216
:10199000FA820B831C8380CF6F927F928F929F92EB
:1019A000AF92BF92CF92DF92EF92FF920F931F936D
:1019B000CF93DF938C01FC01C185D2856E01D39456
:1019C000F60160817181072E000C880B990B0E9433
:1019D00013334B015C017E01FCEFEF0EF11CF701AC
:1019E00060817181072E000C880B990B0E941333C4
:1019F0009B01AC01C501B4010E9469324B015C013D
:101A0000F80183829482A582B68261807280F60199
:101A100000811181F70160817181601B710B072EBC
:101A2000000C880B990B0E941333A50194010E94AE
:101A300020346B017C01B801110F880B990B0E94B7
:101A400013339B01AC01C701B6010E94F8310E941B
:101A5000DB32F301E85BFF4FC250DF4F2881398151
:101A60008901330F220B330B0083118322833383CD
:101A700034966083718382839383DF91CF911F912A
:101A80000F91FF90EF90DF90CF90BF90AF909F901D
:101A90008F907F906F900895AF92BF92CF92DF9218
:101AA000EF92FF920F931F93CF93DF937C01162F3A
:101AB000DC018D919C91A62EB12CFC01EA0DFB1D41
:101AC000DF01A258BF4FCC914C1708F4C42F8A5E97
:101AD0009E4FDC018C916701CA0CDB1C8823C1F08E
:101AE000808180FF15C0F601138AC0E01F3008F026
:101AF000CCC0F601D481153008F0C4C00C2F10E022
:101B000061E08D2F0E94EF03C11117C060E019C082
:101B1000D6015396CC93CC2349F30E943D05F501A1
:101B2000EE0FFF1FEE0FFF1FEE0DFF1DEE5AFF4FD2
:101B30006083718382839383D9CF0F3F110571F442
:101B400061E08D2FDF91CF911F910F91FF90EF906A
:101B5000DF90CF90BF90AF900C94C103ED2FF0E0D9
:101B6000E755FE4FE491E150EF3008F086C0F0E019
:101B7000E454F24F0C94A634CB0DDA0DDF0DE90DD1
:101B8000F30D3D0E3D0E3D0EFD0D070E110E1B0E0D
:101B9000280E3D0E300E84B5806884BDC7BDDF9130
:101BA000CF911F910F91FF90EF90DF90CF90BF905A
:101BB000AF90089584B5806284BDC8BDF0CF809198
:101BC00080008068809380001093890000938800D3
:101BD000E6CF8091800080628093800010938B001C
:101BE00000938A00DCCF8091800088608093800021
:101BF00010938D0000938C00D2CF8091900080686C
:101C0000809390001093990000939800C8CF809122
:101C1000900080628093900010939B0000939A0044
:101C2000BECF8091900088608093900010939D00BB
:101C300000939C00B4CF8091C00080688093C00066
:101C40008091C0008F7B8093C000C093CF00A7CF4E
:101C50008091C00080628093C000C093D0009FCF6D
:101C60008091C20088608093C2008091C2008B7F07
:101C70008093C200C093D20092CF003811050CF0BF
:101C80005FCF44CFC7FF42CF5BCF1F3108F4C09571
:101C900081EF810F50E040E060E070E1CF3F61F004
:101CA00040E050E170E060E0CC2331F0F0E1CF9F04
:101CB000A001112461E070E0DF91CF911F910F919D
:101CC000FF90EF90DF90CF90BF90AF900C94D40A2C
:101CD000CF93DF93C091A006D0E08091A1068C172E
:101CE0001D06A1F09CF0E0911906F0911A06EC0F88
:101CF000FD1F8081823041F44CE36C2F80911B06E4
:101D000090911C060E944C0D2196E7CFDF91CF9158
:101D100008958F929F92AF92BF92CF92DF92EF92EF
:101D2000FF920F931F93CF93DF938C010B5E1E4F97
:101D3000F801C081C1113CC0D62F0E943D054B0166
:101D40005C010E943D056B017C01C818D908EA08B6
:101D5000FB08F8E8CF16F3E1DF06E104F1042CF507
:101D60008CE293E00E945B03181619069CF48CE247
:101D700093E00E941903C82F8C2FDF91CF911F9100
:101D80000F91FF90EF90DF90CF90BF90AF909F901A
:101D90008F9008950E943D056B017C0162E370E025
:101DA00080E090E00E945B04D0CFF801D083E4CFC4
:101DB000C0E0E2CFFC0101900020E9F73197AF01CC
:101DC000481B590BBC018CE293E00C9427058F92C1
:101DD0009F92AF92BF920F931F93CF93DF93CDB794
:101DE000DEB7A1970FB6F894DEBF0FBECDBF19A224
:101DF000423008F44AE08E010F5D1F4F842E912C73
:101E0000B12CA12CA50194010E94C631E62FB90185
:101E1000CA01EA30F4F4E05DD801EE938D01232B82
:101E2000242B252B79F790E080E0109719F0CD0155
:101E30000E94DA0EA1960FB6F894DEBF0FBECDBF9A
:101E4000DF91CF911F910F91BF90AF909F908F9096
:101E50000895E95CE1CFCF92DF92EF92FF92CF93AA
:101E6000DF936C01990FEE08FF08F7FE19C06DE2D1
:101E70008CE293E00E94D802EC0166277727CB0121
:101E80006C197D098E099F094AE00E94E70E8C0FAC
:101E90009D1FDF91CF91FF90EF90DF90CF9008953D
:101EA0004AE0C701B601DF91CF91FF90EF90DF903C
:101EB000CF900C94E70ECF93DF93EC018AEC92E085
:101EC0000E94EE02CE010E942B0F87EC92E0DF9180
:101ED000CF910C94EE02682F70E090E080E04AE031
:101EE0000C94E70E4F925F926F927F928F929F9227
:101EF000AF92BF92CF92DF92EF92FF920F931F9318
:101F0000CF936B017C01742EAC019B010E948D3438
:101F1000882399F08AE092E0CF911F910F91FF9072
:101F2000EF90DF90CF90BF90AF909F908F907F9079
:101F30006F905F904F900C94DA0E46015701E89431
:101F4000B7F82FEF3FEF4FE75FE7C501B4010E94FD
:101F50008D3481110DC02FEF3FEF4FE75FE7C501D3
:101F6000B4010E94643218161CF48EE092E0D4CFC3
:101F70002FEF3FEF4FE75FE4C701B6010E941B342C
:101F800018161CF482E192E0C7CF2FEF3FEF4FE726
:101F90005FECC701B6010E94643287FDF3CF20E0F9
:101FA00030E0A901C701B6010E94643210E000E0F0
:101FB00087FF0AC06DE28CE293E00E94D8028C0198
:101FC000F7FAF094F7F8F094C0E060E070E080E099
:101FD0009FE37C1641F020E030E040E251E40E94B3
:101FE0006932CF5FF6CFA70196010E94F8312B012D
:101FF0003C010E94E2324B015C014AE00E94E70E84
:102000007C01E00EF11ECC23C1F1C501B4010E9498
:1020100011339B01AC01C301B2010E94F7314B01A6
:102020005C016EE28CE293E00E94D802E80EF91E99
:10203000C15018F120E030E040E251E4C501B401A4
:102040000E9420342B013C010E94E2324B01B12C52
:10205000A12C4AE0C501B4010E94E70EE80EF91E6A
:10206000C501B4010E9411339B01AC01C301B2014F
:102070000E94F7314B015C01DBCFC701CF911F916B
:102080000F91FF90EF90DF90CF90BF90AF909F9017
:102090008F907F906F905F904F9008953F924F92F6
:1020A0005F926F927F928F929F92AF92BF92CF92E8
:1020B000DF92EF92FF920F931F93CF93DF9300D0A5
:1020C000CDB7DEB7FC014B01042F96818781998340
:1020D0008A83C080D180C114D10409F479C04185BC
:1020E00050E0D60114968D919C9184179507B0F419
:1020F000312C832D0F900F90DF91CF911F910F9175
:10210000FF90EF90DF90CF90BF90AF909F908F9017
:102110007F906F905F904F903F900895F60180817F
:1021200091E09093080380932A0310920903109280
:102130002B0320E0BE016F5F7F4FC6010E940008A5
:10214000382E8823A9F210E0B12CA12CA016B106DC
:1021500080F6D60114968D919C917801EA18FB08BF
:102160008E159F0508F47C0141E0C8018E199F0976
:10217000A816B90608F440E06E2D613208F060E25E
:10218000F60180810E94FF081092BB028093BA0280
:102190008E151F0409F0ACCF34016A0C7B1C23019F
:1021A000C201861997098E159F0578F4D6011196FC
:1021B0008D919C91DC01ED91FC910284F385E02DE1
:1021C0000995F20181932F01EBCFAE0CBF1CBECF5E
:1021D000A281B381109709F48BCF2481358110E05F
:1021E000418550E02330310571F4816089839A8301
:1021F0004F5F5F4F9401BE016F5F7F4FCD010E9423
:102200001A06382E76CF2115310519F49068998376
:10221000F1CF2230310511F49F77F9CF213031050C
:1022200049F7906CF4CFCF93DF93EC01BC01655F6D
:102230007F4F48850E944E10882301F1488550E069
:1022400030E020E060E070E0CB0124173507CCF4EB
:10225000982F872F762F6627EA85E1110AC0FA01A9
:10226000E21BF30BEC0FFD1FE2856E2B2F5F3F4F40
:10227000ECCFFE01E20FF31FE385F7CF6FEF7FEFA7
:10228000CB01DF91CF9108958F929F92AF92BF9231
:10229000CF92DF92EF92FF920F931F93CF93DF9332
:1022A000EC014A015B01888199810E9413112A8106
:1022B00001E010E002C0000F111F2A95E2F7015063
:1022C0001109012E000C220B330BAB81680179013F
:1022D0000A2E04C0CC0CDD1CEE1CFF1C0A94D2F7A5
:1022E000C094D094E094F094C622D722E822F92238
:1022F000E881F981B901A801482159216A217B218E
:1023000004C0440F551F661F771FAA95D2F74C29AA
:102310005D296E297F292085CF01DF91CF911F9103
:102320000F91FF90EF90DF90CF90BF90AF909F9074
:102330008F900C941E080F931F93CF93DF93CDB70C
:10234000DEB767970FB6F894DEBF0FBECDBFDC01D6
:102350001B96ED91FC911C9711968D919C91DC013F
:10236000AE5EBE4F4D915C91119700271127041B63
:10237000150B012E000C220B330B00AF11AF22AF57
:1023800033AF052E000C660B770B44AF55AF66AF2D
:1023900077AF4D915C91DF01A05CBF4F0027112703
:1023A000041B150B012E000C220B330B0D931D93F8
:1023B0002D933C931397EC5BFF4F052E000C660B9F
:1023C000770B4083518362837383835F9E4FFC014D
:1023D00040818091B0079091B107188A198A1A8AB2
:1023E0001B8A9A8389831C821B8281E08A872CE165
:1023F00030E038872F831B868987CE0101969D8B1D
:102400008C8B82E08E8B83E08F8B50E070E060E0FD
:10241000CE0144960E94441167960FB6F894DEBF31
:102420000FBECDBFDF91CF911F910F9108950F93F4
:102430001F93CF93DF93EC01888199810E94131140
:10244000AB01BC012A8181E090E002C0880F991F96
:102450002A95E2F70197092E000CAA0BBB0B2B81E2
:1024600004C076956795579547952A95D2F78C01C4
:102470009D010423152326233723C901B801DF91C9
:10248000CF911F910F9108959F92AF92BF92CF92DB
:10249000DF92EF92FF920F931F93CF93DF93CDB70D
:1024A000DEB7AA970FB6F894DEBF0FBECDBF8C0182
:1024B000DC0197965C934E939697CA010196999684
:1024C0009C938E9398974E5F5F4F9B965C934E9331
:1024D0009A975E962D913C911BA21CA21DA21EA252
:1024E0003D8B2C8B1F8A1E8A81E08D8F4BE650E03E
:1024F0005B8F4A8F1E8E8C8F188A198A1A8A1B8AC4
:102500003A8329831C821B828A8728E630E0388739
:102510002F831B8689875E01B4E1AB0EB11CB8A680
:10252000AFA289A787E08AA741E050E060E070E0B1
:10253000CE0187960E944411CE0187960E94171201
:10254000613071058105910539F461E070E080E04A
:1025500090E00E945B04F0CF64E670E080E090E0E1
:102560000E945B0420E047E050E060E070E0FE0184
:1025700031966F01CF010E941E0864E670E080E092
:1025800090E00E945B04D8015E968D919C91188A20
:10259000198A1A8A1B8A9A8389831C821B82FF24C8
:1025A000F394FA8689E190E098878F831B86F986F9
:1025B00020E040E050E0BA01C6010E941E08F80188
:1025C000868D978D188A198A1A8A1B8A9A8389831D
:1025D0001C821B82FA868AE190E098878F831B8693
:1025E000F986DD8ACC8A83E0E82EEE8A1F8A40E0F5
:1025F00050E0BA01C5010E944411D8015E968D9148
:102600009C91188A198A1A8A1B8A9A8389831C8248
:102610001B82FA868BE190E098878F831B86F98670
:10262000DD8ACC8A92E0992E9E8AEF8A41E050E0C2
:1026300060E070E0C5010E944411F801868D978D1D
:10264000188A198A1A8A1B8A9A8389831C821B8298
:10265000FA868CE190E098878F831B86F986DD8A65
:10266000CC8A9E8AEF8A40E050E0BA01C5010E9400
:102670004411D8015E968D919C91188A198A1A8A04
:102680001B8A9A8389831C821B82FA868BE690E0E0
:1026900098878F831B86F98620E041E050E060E058
:1026A00070E0C6010E941E0864E670E080E090E0E1
:1026B0000E945B04F80180A191A1009739F0DC0130
:1026C000ED91FC910280F381E02D0995F80182A142
:1026D00093A1009739F0DC01ED91FC910280F38128
:1026E000E02D0995F80184A195A1009739F0DC014E
:1026F000ED91FC910280F381E02D099587E090E057
:102700000E94C034FC0186ED91E09183808380E5D6
:1027100096E09483838316830583D8019196FC9376
:10272000EE93909787E090E00E94C034FC0188EC23
:1027300091E09183808381E596E09483838316837F
:102740000583D8019396FC93EE93929787E090E0EF
:102750000E94C034FC018AEB91E09183808382E582
:1027600096E09483838316830583D8019596FC9322
:10277000EE93949781E0AA960FB6F894DEBF0FBE51
:10278000CDBFDF91CF911F910F91FF90EF90DF9020
:10279000CF90BF90AF909F900895AF92BF92CF928D
:1027A000DF92EF92FF920F931F93CF93DF93CDB7FA
:1027B000DEB7E8970FB6F894DEBF0FBECDBF8C0131
:1027C000FC01868D978D1BA21CA21DA21EA29D8BB3
:1027D0008C8B1F8A1E8AFF24F394FD8E8BE390E07E
:1027E0009B8F8A8F1E8E8EE08C8F4EE0BE01695DBE
:1027F0007F4FCE0144960E944E108FA198A5982736
:1028000089279827F80195A784A789A59AA59827CD
:102810008927982797A786A78BA59CA598278927FE
:10282000982791AB80AB6DA57EA576276727762785
:1028300073AB62AB8FA598A998278927982795AB8A
:1028400084AB89A99AA998278927982797AB86AB43
:102850008BA99CA998278927982791AF80AF072E2D
:10286000000C880B990B0E94133320E030E04AEAF9
:1028700053E40E94693228EB3EE142E152E40E94B7
:10288000F831F8016283738384839583868D978DF5
:10289000188A198A1A8A1B8A9A8389831C821B8246
:1028A000FA868CE190E098878F831B86F986CE01AB
:1028B00001965C019EAB8DAB82E08FAB83E088AF6D
:1028C000CE01C5960E941712C12CD12CE12CE5E453
:1028D000FE2E63307105E1F06230710599F06130D0
:1028E000710509F4D6C0C12CD12CF0E8EF2EFFE31E
:1028F000FF2E672B69F4C12CD12C50E8E52E56E44D
:10290000F52E06C0C12CD12C70E8E72E75E4F72E09
:10291000F80164A575A5072E000C880B990B0E9481
:102920001333A70196010E946932F8016683778309
:102930008087918766A577A5072E000C880B990BD9
:102940000E941333A70196010E946932F801628741
:1029500073878487958760A971A9072E000C880B5F
:10296000990B0E941333A70196010E946932F80166
:1029700066877787808B918B868D978D188A198AC9
:102980001A8A1B8A9A8389831C821B8281E08A8728
:102990002BE130E038872F831B868987BEAAADAA3A
:1029A00082E08FAB83E088AFCE01C5960E941712FC
:1029B000C12CD12C33E0E32E33E4F32E61157105E5
:1029C00019F1C12CD12C23E8E22E22E4F22E613041
:1029D0007105D1F093E3C92EDC2C93E0E92E92E44B
:1029E000F92E6230710581F0C12CD12C40E8E42E23
:1029F0004FE3F42E6330710539F483E3C82EDC2CE9
:102A000083E8E82E81E4F82EF80164A975A9072E61
:102A1000000C880B990B0E941333A70196010E94AA
:102A20006932F801628B738B848B958B66A977A9C9
:102A3000072E000C880B990B0E941333A7019601F7
:102A40000E946932F801668B778B808F918F60AD21
:102A500071AD072E000C880B990B0E941333A70150
:102A600096010E946932F801628F738F848F958F6F
:102A7000E8960FB6F894DEBF0FBECDBFDF91CF91C1
:102A80001F910F91FF90EF90DF90CF90BF90AF908C
:102A90000895C12CD12CE12C66E4F62E39CF8F920B
:102AA0009F92AF92BF92CF92DF92EF92FF921F93CD
:102AB000CF93DF93EC016A017B0120E030E040E836
:102AC0005FE3CB01B6010E94643287FDA3C020E022
:102AD00030EC4AE555E4C701B6010E941B341816D4
:102AE0003CF4C12C30ECD32E3AE5E32E35E4F32E42
:102AF0006B817C818D819E810E9411334B015C0131
:102B000020E030E040E855E4C701B6010E942034DF
:102B10009B01AC01C501B4010E94693220E030E0A4
:102B200040E05FE30E94F83120E030E040E85FE3FE
:102B30000E94F7316B017C0120E030E040E450E47A
:102B40000E94643287FD6DC020E030E04FE753E41F
:102B5000C701B6010E941B34181634F4C12CD12CC5
:102B60009FE7E92E93E4F92E89819A81288131E04B
:102B70003093080320932A031092090310922B0329
:102B8000DC01ED91FC910190F081E02D60E0099570
:102B900081E00E94100741E061E088810E94FF0807
:102BA0001092BB028093BA0289819A81DC01ED9177
:102BB000FC910284F385E02D0995182F482F4F765C
:102BC000406160E0CE010E94600AC701B6010E9428
:102BD000E232462F6EEFCE010E94600A412F60E084
:102BE000CE010E94600A65E070E080E090E00E9403
:102BF0005B04412F406A60E0CE01DF91CF911F91CD
:102C0000FF90EF90DF90CF90BF90AF909F908F900C
:102C10000C94600AC12CD12C20E8E22E2FE3F22E76
:102C200067CFC12CD12C80E4E82EFE2C9DCFCF9312
:102C3000DF93EC010E94D80640E860E0CE010E94DC
:102C4000600A6AE070E080E090E00E945B0440E08F
:102C500050E06AE774E4CE010E944F1580E498E7E3
:102C6000ADE7B1E08B839C83AD83BE83DF91CF91D1
:102C70000895CF93DF93EB010E947E318883CE01CC
:102C8000DF91CF9108950F931F93CF938C010E94F2
:102C90007E31C82FC80101960E947E312C2F30E072
:102CA000322F2227820F932F911DCF911F910F91C9
:102CB00008950C945C350C945C350C945C350F9342
:102CC0001F93CF93DF938C01EB01DC0115968D915F
:102CD0009C910E94CD13F801058116810E943D054B
:102CE000AB01BC01FE01349680E2DF011D928A95A2
:102CF000E9F784E290E0A0E0B0E088839983AA83BA
:102D0000BB83F80182A593A5B0E0A0E08C839D83EE
:102D1000AE83BF838DE090E0A0E0B0E08887998724
:102D2000AA87BB87488B598B6A8B7B8B8281938167
:102D3000A481B5818C8B9D8BAE8BBF8B81E0DF91A5
:102D4000CF911F910F9108958F929F92AF92BF9252
:102D5000CF92DF92EF92FF920F931F93CF93DF9367
:102D60008C01EB01DC0115968D919C910E94CD1395
:102D7000F801058116810E943D05FE01349620E28E
:102D8000DF011D922A95E9F7C12CD12C7601C3945D
:102D9000C882D982EA82FB82F80126A137A14901C3
:102DA000B12CA12C8C829D82AE82BF82C886D9862E
:102DB000EA86FB86688B798B8A8B9B8B2AE038EEC0
:102DC0004CE151E466817781808591850E942034B1
:102DD0006C8B7D8B8E8B9F8B2AE038EE4CE151E41F
:102DE000D8011A966D917D918D919C911D970E94AD
:102DF0002034688F798F8A8F9B8F2AE038EE4CE1E0
:102E000051E4F80166857785808991890E94203494
:102E10006C8F7D8F8E8F9F8F81E0DF91CF911F917F
:102E20000F91FF90EF90DF90CF90BF90AF909F9069
:102E30008F9008950F931F93CF93DF938C01EB0135
:102E4000DC0115968D919C910E94CD13F8010581AE
:102E500016810E943D05AB01BC01FE01349680E263
:102E6000DF011D928A95E9F781E090E0A0E0B0E0F3
:102E700088839983AA83BB83F80180A591A5B0E0DC
:102E8000A0E08C839D83AE83BF8384E090E0A0E0CC
:102E9000B0E088879987AA87BB87488B598B6A8B54
:102EA0007B8B25E33AEF4EE85CE362897389848982
:102EB00095890E9420346C8B7D8B8E8B9F8B25E3B4
:102EC0003AEF4EE85CE3D80156966D917D918D9175
:102ED0009C9159970E942034688F798F8A8F9B8F9D
:102EE00025E33AEF4EE85CE3F801628D738D848D43
:102EF000958D0E9420346C8F7D8F8E8F9F8F81E007
:102F0000DF91CF911F910F9108950F931F93CF934E
:102F1000DF938C01EB0188E2FB0111928A95E9F7BE
:102F20004BE050E066E172E0CE010E94EE351B8678
:102F300081E090E0A0E0B0E08C879D87AE87BF87FE
:102F4000F80183819481092E000CAA0BBB0B888B9E
:102F5000998BAA8BBB8B8DE090E0A0E0B0E08C8BCE
:102F60009D8BAE8BBF8B1CA21DA21EA21FA280E058
:102F700090E0A0E2B2EC8C8F9D8FAE8FBF8F80E08F
:102F800090E0A2EDB2E4888F998FAA8FBB8F84E086
:102F90009DEAA0E4BBE388A399A3AAA3BBA3DF9106
:102FA000CF911F910F9108950F931F93CF93DF93AC
:102FB0008C01EB0188E2FB0111928A95E9F74BE065
:102FC00050E060E272E0CE010E94EE351B8641E0E7
:102FD00050E060E070E04C875D876E877F87F80186
:102FE00083819481092E000CAA0BBB0B888B998BD3
:102FF000AA8BBB8B4C8B5D8B6E8B7F8B1CA21DA217
:103000001EA21FA28AE098EEACE1B3EC8C8F9D8FDC
:10301000AE8FBF8F8AE098EEACE1B3E4888F998FD2
:10302000AA8FBB8F83E29BEDA9E7BDE388A399A399
:10303000AAA3BBA3DF91CF911F910F9108950F9386
:103040001F93CF93DF938C01EB0188E2FB01119278
:103050008A95E9F74BE050E06AE272E0CE010E9407
:10306000EE351B8681E090E0A0E0B0E08C879D8784
:10307000AE87BF87F80183819481092E000CAA0BCB
:10308000BB0B888B998BAA8BBB8B84E090E0A0E074
:10309000B0E08C8B9D8BAE8BBF8B1CA21DA21EA2A1
:1030A0001FA287ED93EAABE0B2EC8C8F9D8FAE8FC1
:1030B000BF8F87ED93EAABE0B2E4888F998FAA8F38
:1030C000BB8F8AE99BEAABE0B9E388A399A3AAA3E3
:1030D000BBA3DF91CF911F910F91089585ED809350
:1030E000BC008091040390910503A0910603B09168
:1030F00007030796A11DB11D23E0B695A7959795E7
:1031000087952A95D1F72091BC0024FD03C0109229
:103110000203089540910403509105036091060352
:1031200070910703452B462B472B69F30097A105A8
:10313000B10541F025E32A95F1F700000197A109B7
:10314000B109E1CF809103030C94EF062F923F92D7
:103150004F925F926F927F928F929F92AF92BF92A7
:10316000CF92DF92EF92FF920F931F93CF93DF9353
:1031700000D000D0CDB7DEB73C012DB73EB73C83C1
:103180002B838F569F4F9A838983FC018081281B54
:1031900031090FB6F8943EBF0FBE2DBF8DB79EB755
:1031A00001962C01F30124A8312CDC0190E080E091
:1031B000F301821593054CF420A931A9F901E80F18
:1031C000F91F20812D930196F3CF85A9882341F122
:1031D00084A595A528E097FD09C068E671E00E94E6
:1031E00092346DE270E00E949234262FF30186A59E
:1031F00097A568E097FD08C068E671E00E949234E8
:103200006DE270E00E949234F201E20DF31D30E1B4
:10321000639FB0011124262B2083C10101961C015C
:103220004201820C931CF301A4ACB5ACC6ACD7AC84
:10323000E0ACF1AC02AD13AD20813181428153810C
:1032400066A96170C3010E94280C280E391E420134
:10325000820C931CF301EC5BFF4FA080B180C28015
:10326000D3803497E080F18002811381F3012481BF
:1032700035814681578166A966956170C3010E94B8
:10328000280C280E391E4201820C931CF301E45BCA
:10329000FF4FA080B180C280D3803497E080F1805E
:1032A00002811381F301208531854285538566A90A
:1032B00062FB662760F9C3010E94280C280E391EA4
:1032C0004201820C931CF301EC5AFF4FA080B180A5
:1032D000C280D3803497E080F18002811381F301B2
:1032E000248535854685578566A963FB662760F981
:1032F000C3010E94280C280E391E4201820C931C27
:10330000F301E45AFF4FA080B180C280D38034978C
:10331000E080F18002811381F301208931894289A3
:10332000538966A962956170C3010E94280C280E1A
:10333000391E4201820C931CF301EC59FF4FA0800F
:10334000B180C280D3803497E080F1800281138104
:10335000F301248935894689578966A965FB662763
:1033600060F9C3010E94280C280E391E4201820C0C
:10337000931CF301E459FF4FA080B180C280D38039
:103380003497E080F18002811381F301248D358D23
:10339000468D578D67A96170C3010E94280C280EC5
:1033A000391E4201820C931CF301EC58FF4FA080A0
:1033B000B180C280D3803497E080F1800281138194
:1033C000F301208D318D428D538D67A96695617013
:1033D000C3010E94280C280E391E4201820C931C46
:1033E000F301E458FF4FA080B180C280D3803497AE
:1033F000E080F18002811381F30120A131A142A17B
:1034000053A167A962FB662760F9C3010E94280CDB
:10341000280E391E4201820C931CF301EC57FF4F1A
:10342000A080B180C280D3803497E080F180028197
:103430001381F30124A135A146A157A167A963FB1C
:10344000662760F9C3010E94280C280E391E42012C
:10345000820C931CF301E457FF4FA080B180C2801F
:10346000D3803497E080F18002811381F30120A59D
:1034700031A542A553A567A962956170C3010E9459
:10348000280C0E94B60B4C01E981FA814081F301BE
:10349000E057FF4F808150E03A01FFEF6F1A7F0A3B
:1034A0002DB73EB7261937090FB6F8943EBF0FBEA9
:1034B0002DBF0DB71EB70F5F1F4FEDB7FEB781834E
:1034C000B201C80101960E94E535F4018381A30190
:1034D000B80180640E948D042B813C810FB6F89462
:1034E0003EBF0FBE2DBF0F900F900F900F90DF913A
:1034F000CF911F910F91FF90EF90DF90CF90BF90F1
:10350000AF909F908F907F906F905F904F903F9083
:103510002F900895FC0183A9681700F5A62FA695A2
:10352000A695A69580A991A9A80FB92FB11D962F90
:10353000977041E050E060E070E004C0440F551F18
:10354000661F771F9A95D2F740958C9148234C932C
:1035500082A9882319F0CF010C94A6180895CF9260
:10356000DF92EF92FF920F931F93DC01D3962C9181
:10357000D397621740F5E62FE695E695E695D09647
:103580002D913C91D197E20FF32FF11D677001E06F
:1035900010E020E030E06801790104C0CC0CDD1CB3
:1035A000EE1CFF1C6A95D2F720812C292083D2962D
:1035B0002C91222341F01F910F91FF90EF90DF900B
:1035C000CF900C94A6181F910F91FF90EF90DF9071
:1035D000CF9008950C9486311F93CF93DF93EC0125
:1035E000162F672F0E94EA1A612FCE010196DF91F4
:1035F000CF911F910C94EA1ACF92DF92EF92FF9233
:103600000F931F93CF93DF93EC016C017C018EE746
:10361000E80EF11C10E000E0F60161916F01C801B5
:103620000E94EA1AF60166ADC8018C599F4F0E94AC
:10363000EA1AF70161917F01C80188539F4F0E94E8
:10364000EA1AF70166ADC801845D9E4F0E94EA1A2E
:103650000F5F1F4F0F331105F9F6FE01E450FF4FC6
:103660006081718181E991E00E94EC1AFE01E250D3
:10367000FF4F6081718183E991E00E94EC1AFE01A5
:10368000F3956081718185E991E00E94EC1A7E01D9
:10369000FEEFEF1AFF0A07E911E0F70161917F01E0
:1036A000C8010E94EA1A0F5F1F4F0B39F1E01F0794
:1036B000A1F77E018AEFE81A8EEFF80A01EA11E01D
:1036C000F70161917F01C8010E94EA1A0F5F1F4F45
:1036D000053AF1E01F07A1F7FE01E65FFE4F6081AA
:1036E0008AEA91E00E94EA1AFE01E45FFE4F6081DF
:1036F0008BEA91E00E94EA1AFE01E35FFE4F6081CF
:1037000082EC91E00E94EA1AFE01E25FFE4F6081C6
:10371000718184EC91E00E94EC1AFE01EC5EFE4F98
:10372000608186EC91E00E94EA1AFE01E05FFE4FA4
:103730006081718187EC91E00E94EC1ACE5EDE4FD1
:103740006881798189EC91E00E94EC1A65E688EE47
:1037500093E00E94EA1A8CEA90E0DF91CF911F91EA
:103760000F91FF90EF90DF90CF900C94EE021F929C
:103770000F920FB60F9211248F939F938091E100C7
:103780009091E100937F9093E10083FF0FC010922E
:10379000E90091E09093EB001092EC0092E390939B
:1037A000ED001092B50298E09093F00082FF22C0E5
:1037B00093E09093E9009091F200992319F09AE335
:1037C0009093E8009091AF02992341F09091AF025D
:1037D00091509093AF02911101C05D9A9091B40203
:1037E000992341F09091B40291509093B4029111B9
:1037F00001C0289A84FF18C08091E2008E7E81600B
:103800008093E2008091E1008F7E8093E1008091BF
:10381000B0028E7E80618093B0029F918F910F9055
:103820000FBE0F901F90189580FFF7CF8091E20098
:103830008E7E80618093E2008091E1008E7E809395
:10384000E1008091B0028E7E8160E5CF1F920F92E1
:103850000FB60F921124CF92DF92EF92FF920F9347
:103860001F932F933F934F935F936F937F938F9308
:103870009F93AF93BF93EF93FF93CF93DF93CDB716
:10388000DEB76C97DEBFCDBF1092E9008091E800F3
:1038900083FF25C068E0CE0145960E94860282EF34
:1038A0008093E8008D8987FF39C09091E80090FFF0
:1038B000FCCF982F907609F034C19E894F89588D9E
:1038C0002F89F88C911131C0803861F58091B10257
:1038D0008093F1001092F1008EEF8093E8006C96D7
:1038E0000FB6F894DEBF0FBECDBFDF91CF91FF9131
:1038F000EF91BF91AF919F918F917F916F915F9168
:103900004F913F912F911F910F91FF90EF90DF907A
:10391000CF900F900FBE0F901F9018959EEF909331
:10392000E800C7CF1092F100D5CF913059F4811142
:10393000D3CF4130510581F68091B1028D7F8093C4
:10394000B102CACF933049F48111C6CF413051053D
:1039500019F68091B1028260F2CF953041F48091E6
:10396000E80080FFFCCF20682093E300B5CF9630BD
:1039700009F0A9C00B8D1C8D22E01092E900109275
:10398000AD021092AC02F2122EC01092AB02109255
:10399000AA020E94A7021F8299E09983FA8291E00D
:1039A0009E8390EA98879AEF99872091AC02309194
:1039B000AD02275F3F4F3C832B838D831092E9003C
:1039C0001092AD021092AC021093AB020093AA02C7
:1039D00049E050E0BE016F5F7F4F80E00E944F02E0
:1039E0000E94A70279CF1093AB020093AA020E9413
:1039F0009302DC0112960D911C910115110509F439
:103A000051C1D801ED91FC910480F581E02DBE01FA
:103A10006B5E7F4FC8010995009709F03EC1F80120
:103A200000851185EACFF3E0FF120EC08F8988234D
:103A300009F440C0823061F440E860E18CE491E038
:103A40000E941C02811148CF81E28093EB0047CF96
:103A5000813029F440E867E084E491E0F1CF8330DD
:103A600099F70E949302DC011296ED90FC908E0172
:103A70000F5F1F4F6801E114F10479F0D701ED9158
:103A8000FC910680F781E02DB801C7010995080F68
:103A9000111DF701E084F184EECFD8011C92F601EC
:103AA00001900020E9F73197BF016C197D0940E0D2
:103AB000C601C6CF6EE271E0FB01449150E080E8A0
:103AC0000E944F0209CF973009F4BECF983021F4FD
:103AD00081E08093F10000CF993009F0FDCE837032
:103AE00009F0B2CFE1E0F1E081E031E096E321912D
:103AF000222371F08093E9003093EB00DF011197EE
:103B00002C912093EC009093ED008F5F873079F734
:103B10008EE78093EA001092EA008F898093B502C5
:103B2000DBCE8B8D9C8D1092E9001092AD0210922D
:103B3000AC029093AB028093AA02898D811192C04E
:103B40008E899D89913A49F4813209F07DCF47E011
:103B500050E06BE071E080E0B3CF913209F074CFB8
:103B6000833269F48F89988DB0E0A0E080930701DB
:103B700090930801A0930901B0930A01ADCE803261
:103B800069F48091E80082FFFCCF67E08BE091E070
:103B90000E9486028BEF8093E8009ECE823209F06D
:103BA0009BCE8F8980931201EEEFFFE78591949170
:103BB0008B3F9C4D51F1E0E0F8E080910B0190913A
:103BC0000C01A0910D01B0910E01803B9440A10524
:103BD000B105F1F48091120180FD1AC0EE3F8AE038
:103BE000F80789F587E797E79183808380916000E4
:103BF0008093AE0288E19BE00FB6F894A89580937D
:103C000060000FBE9093600067CEEEEFFAE0D5CF74
:103C1000808191818737974709F05ECEA895809182
:103C200060008861809360008091AE0280936000A4
:103C3000EE3F2AE0F20789F08091FE0A9091FF0A98
:103C40009183808349CE808191818737980751F293
:103C50009093FF0A8093FE0AC5CF1092FF0A10923C
:103C6000FE0A3ACE0E949302DC0112960D911C913D
:103C70000115110509F4E8CED801ED91FC910190F0
:103C8000F081E02DBE016B5E7F4FC8010995811167
:103C900023CEF80100851185EBCF181619060CF418
:103CA0001BCED2CEF1E0FF12BECE62E371E004CFB4
:103CB0001F920F920FB60F9211242F933F938F9361
:103CC0009F93AF93BF938091960290919702A0919A
:103CD0009802B09199023091950223E0230F2D377D
:103CE00058F50196A11DB11D20939502809396026F
:103CF00090939702A0939802B093990280919A02B0
:103D000090919B02A0919C02B0919D020196A11DF1
:103D1000B11D80939A0290939B02A0939C02B09352
:103D20009D02BF91AF919F918F913F912F910F90E5
:103D30000FBE0F901F90189526E8230F0296A11D25
:103D4000B11DD2CF1F920F920FB60F9211242F9355
:103D50003F934F935F936F937F938F939F93AF9313
:103D6000BF93EF93FF938091B900887F803609F469
:103D70004AC0F0F5883209F4A7C018F5803109F47B
:103D80009BC0B8F4882309F4F9C0883009F494C0C2
:103D9000FF91EF91BF91AF919F918F917F916F9123
:103DA0005F914F913F912F910F900FBE0F901F90F9
:103DB0001895883109F488C0803251F78093000348
:103DC00014C0803409F49DC040F48033B9F38833C3
:103DD000F9F68093000385ECB0C0803509F485C006
:103DE000883509F496C0883499F60E946E18D0CFB1
:103DF000883909F48CC038F5883729F050F48836B2
:103E000011F0803729F683E0809302031092940228
:103E100057C0883809F47BC0803919F0803809F020
:103E2000B7CF80919402803208F071C0E091940283
:103E300081E08E0F809394028091BB00F0E0EC58FB
:103E4000FD4F80833DC0803B39F0E0F4803A09F4B7
:103E500079C0883A09F09CCF84E0809302031092E5
:103E6000730210927202E091B802F091B9020995C2
:103E70008091720281110FC081E0809372021092D2
:103E8000520209C0803C09F4A6CF883C09F4A3CFB4
:103E9000883B09F07DCFE091730281E08E0F809323
:103EA0007302F0E0EE5AFD4F80818093BB00909149
:103EB00073028091720229C08091DD028093BB0061
:103EC00085EC8093BC0064CF9091FF028091FE024C
:103ED000981758F5E091FF0281E08E0F8093FF0262
:103EE000F0E0E252FD4F8081E9CFE091FF0281E0F6
:103EF0008E0F8093FF028091BB00F0E0E252FD4FF5
:103F000080839091FF028091FE029817C8F285E8A5
:103F1000D8CFE091FF0281E08E0F8093FF02809165
:103F2000BB00F0E0E252FD4F8083809101038111DC
:103F30005CCF81E08093DC0284EA8093BC00109225
:103F4000020326CF85EC8093BC001092020380917F
:103F50009402803230F4E0919402F0E0EC58FD4F8E
:103F600010826091940270E0E091B602F091B70285
:103F700084E792E00995109294020ACF1092000310
:103F800034CFEF92FF920F931F93CF93DF93CDB770
:103F9000DEB7C659D1090FB6F894DEBF0FBECDBF4C
:103FA00010922F0310922E0388EE93E0A0E0B0E071
:103FB0008093300390933103A0933203B093330383
:103FC00024EE31E030932D0320932C032FEF3FEFAD
:103FD00030933903209338031092660710926507D7
:103FE0008093670790936807A0936907B0936A0767
:103FF00086EF91E090936407809363071092020725
:1040000010920107109205071092090710920A07F3
:1040100010920B0710920C078FEF93E0A0E0B0E036
:1040200080930D0790930E07A0930F07B09310078E
:104030001092110710921207109213071092140792
:104040008093150790931607A0931707B09318074E
:104050001092190710921A0710921B0710921C0752
:1040600080931D0790931E07A0931F07B09320070E
:104070001092210710922207109223071092240712
:104080008093250790932607A0932707B0932807CE
:104090001092290710922A0710922B0710922C07D2
:1040A00080932D0790932E07A0932F07B09330078E
:1040B0001092310710923207109233071092340792
:1040C0008093350790933607A0933707B09338074E
:1040D0001092390710923A0710923B0710923C0752
:1040E00080933D0790933E07A0933F07B09340070E
:1040F0001092410710924207109243071092440712
:104100008093450790934607A0934707B0934807CD
:104110001092490710924A0710924B0710924C07D1
:1041200080934D0790934E07A0934F07B09350078D
:104130001092510710925207109253071092540791
:104140008093550790935607A0935707B09358074D
:104150001092590710925A0710925B0710925C0751
:1041600080935D0790935E07A0935F07B09360070D
:1041700033E03093610748E140930407109206074B
:1041800087E0809307071092080725E0298381E0E4
:104190008A8399E09B832C8361EA6D838E8355E843
:1041A0005F83388729879A8759E15B878C8759E233
:1041B0005D874E87F5E1FF87188A55E2598B8A8B18
:1041C000E5E7EB8B8C8B75E97D8B4E8B45E54F8B53
:1041D000188E45E6498F1A8E51E85B8F42E04C8F6E
:1041E0002D8F8E8F9F8F88A3F9A31AA287E28BA3AE
:1041F0008FEF8CA38DA31EA21FA2E8A780E189A741
:104200007AA73BA76CA71DA69EA780E38FA798ABB4
:1042100081E389AB9AAB82E38BAB5CAB4DAB80ECBB
:104220008EAB8FAB87E390E00E94C0347C0187E3C4
:10423000FE013196D70101900D928A95E1F787E052
:1042400090E00E94C0348C01DC0111961C921E92F9
:104250001396FC92EE92129787E390E015969C934A
:104260008E93149716961C920E94B60BFC01A385A0
:10427000B485109709F09FC01487038785859685BC
:10428000D80114962D913C91820F931F96878587B4
:1042900090910407892F869586958695977009F0E9
:1042A00092C08093050710910507812F90E00E942E
:1042B000C034909302078093010781E09091060734
:1042C000911101C080E01A5F810F80936207109204
:1042D000D1061092D2061092D3061092D4061092F4
:1042E000D5061092D6061092D7061092D8061092D4
:1042F000D9061092DA061092DB061092DC061092B4
:10430000DD061092DE061092DF061092E006109293
:10431000E1061092E2061092E3061092E406109273
:10432000E5061092E6061092E7061092E806109253
:10433000E9061092EA061092EB061092EC06109233
:10434000ED061092EE061092EF061092F006109213
:10435000F1061092F2061092F3061092F4061092F3
:10436000F5061092F6061092F7061092F8061092D3
:10437000F9061092FA061092FB061092FC068FEFD7
:104380009FEF9093FE068093FD0690930007809325
:10439000FF0690E080E02091050728171906A9F094
:1043A000A4F0E0910107F0910207E80FF91F1082D5
:1043B0000196F1CFDC018D919C9111970097D1F777
:1043C0000D931C935BCF8F5F6CCF1092C40662E09D
:1043D00087E10E94EF031092A30688E190E090939A
:1043E000A5068093A406E6EAF6E0DF011D928A9511
:1043F000E9F784E08093840761E00E94EF0311E015
:104400001093850761E081E00E94EF031092860718
:1044100060E080E00E94EF031093850761E081E097
:104420000E94EF0310921D068FE3E2E2F6E0DF0147
:10443000982F1D929A95E9F7E1E6F6E0DF01982FB3
:104440001D929A95E9F71092A0061092A10695E0A8
:104450009093A2061092070610920A0610920B067D
:1044600010920C0610920D0610920E0610920F0676
:1044700010921006109211061092E4051092E505B4
:1044800098EC9093E6059AEF9093E7059BEF909355
:10449000E8052CEF2093E9059FEF9093EA0540E0B3
:1044A00050E060E87FE34093EB055093EC056093A8
:1044B000ED057093EE05109204061092030610921B
:1044C000060610920506109297049FE090939804B8
:1044D000EDE1F1E0A9E9B4E001900D929A95E1F7E0
:1044E000E8EAF4E0DF011D928A95E9F7E7EEF4E0EF
:1044F000DF011D922A95E9F71092E30505E914E022
:10450000C801855994400F5F1F4F209198042817C8
:10451000190639F034F061E0F80183810E94EF035D
:10452000EFCF8FE3ECE2F1E0ACE7B3E001900D9266
:104530008A95E1F78FE3EBEBF3E0DF01982F1D9213
:104540009A95E9F7EBE6F1E0AAEFB3E0982F019036
:104550000D929A95E1F7E9E3F4E0DF011D928A9567
:10456000E9F78AE792E090937904809378042AE04F
:1045700030E030937B0420937A0484E690E09093BB
:104580007D0480937C0410927E0410927F0410922C
:10459000800410928104109282041092830410927D
:1045A000840410928504109286041092870481E09E
:1045B000809388041092890430938B0420938A049A
:1045C00020E233E030938D0420938C0428EE33E016
:1045D00030938F0420938E041092900410929104D3
:1045E00010929204809393041092940480E4809338
:1045F0007D0783E697E090937F0780937E0721E411
:1046000020937607909378078093770722E420938E
:104610006F07909371078093700788E190E0909303
:1046200088078093870785E08093890710928A071F
:1046300010928B0710928C0710928D0710928E07A4
:1046400010928F07109290071092910788E092E0E5
:1046500090939307809392071092B1071092B0073E
:104660001092B3071092B2071092B5071092B407D8
:104670001092B7071092B607CA56DF4F0FB6F894DC
:10468000DEBF0FBECDBFDF91CF911F910F91FF9085
:10469000EF900895CF93DF93CDB7DEB7A8970FB60D
:1046A000F894DEBF0FBECDBF789484B5826084BD20
:1046B00084B5816084BD85B5826085BD85B5816026
:1046C00085BD80916E00816080936E0010928100A4
:1046D000809181008260809381008091810081605F
:1046E0008093810080918000816080938000809120
:1046F000910082608093910080919100816080930D
:104700009100809190008160809390008091C10021
:1047100084608093C1008091C10082608093C10059
:104720008091C10081608093C1008091C30081604D
:104730008093C3008091C00082608093C00080910C
:10474000C20081608093C20080917A00846080936F
:104750007A0080917A00826080937A0080917A005A
:10476000816080937A0080917A00806880937A00DB
:104770001092B5021092B1021092B0028091D7004F
:1047800081608093D70080EA8093D80089B58061EA
:1047900089BD89B5826089BD09B400FEFDCF61E0A5
:1047A00070E080E090E00E945B048091D8008F7CF4
:1047B00080618093D8008091E000807F8093E0004A
:1047C0008091E1008E7E8093E1008DE08093E20095
:1047D000559A209A8FEF9FEF909339038093380377
:1047E00068EE73E080E090E00E945B0468EE73E0A6
:1047F00080E090E00E945B049E012F5F3F4F3901F3
:10480000B90188EE93E00E9439168981853609F056
:104810009FC110E000E0B80164587C4FC8010E94BD
:104820003916B80165547C4FC8018C599F4F0E94BE
:104830003916B80166507C4FC80188539F4F0E94BB
:104840003916B801675C7B4FC801845D9E4F0E949A
:1048500039160F5F1F4F0F331105E9F681E991E01B
:104860000E944316909379048093780483E991E041
:104870000E94431690937B0480937A0485E991E02B
:104880000E94431690937D0480937C046EE774E04D
:1048900087E991E00E94391662E874E081EA91E0CC
:1048A0000E9439166FE774E088E991E00E9439169A
:1048B00063E874E082EA91E00E94391660E874E0EF
:1048C00089E991E00E94391664E874E083EA91E096
:1048D0000E94391661E874E08AE991E00E94391675
:1048E00065E874E084EA91E00E94391666E874E0B5
:1048F0008AEA91E00E94391668E874E08BEA91E058
:104900000E943916809188048093870469E874E0D6
:1049100082EC91E00E94391684EC91E00E944316EB
:1049200090938B0480938A0460E974E086EC91E0B4
:104930000E94391687EC91E00E94431690938D04F3
:1049400080938C0489EC91E00E94431690938F042D
:1049500080938E048CE793E0909396048093950463
:104960008DE797E00E941716F0ECCF2EFCEFDF2EBC
:10497000FBE9EF2EFF24F394C0928007D0928107C9
:10498000E0928207F092830740E050E068EC74E424
:104990008DE797E00E944F1586E797E00E94171673
:1049A000C0927907D0927A07E0927B07F0927C0759
:1049B00040E050E068EC74E486E797E00E944F1511
:1049C0008FE697E00E941716C0927207D092730785
:1049D000E0927407F092750740E050E068EC74E4F0
:1049E0008FE697E00E944F158CE08093B80010E0AE
:1049F00040E0612F85E994E00E944C0D1F5F1E335B
:104A0000B9F771EDC72E76E0D72E81E080930307CA
:104A1000C6010E94A618D092BF06C092BE060CE73F
:104A200013E01093C1060093C006E5E9EE2EE4E022
:104A3000FE2EF092C306E092C2061093CE060093BB
:104A4000CD06D092C606C092C50684EC96E00E94C0
:104A5000CC0C10931A0600931906F0921C06E092F3
:104A60001B068091A0069091A106F801202F2095A9
:104A70003191323029F4922F9E0F811101C0892F7C
:104A800033E0EA3BF307A1F79093A1068093A006D9
:104A900080918804882311F40C94F22F81ED96E024
:104AA00090931306809312068CE793E09093090687
:104AB0008093080648E6842E03E617E050E2E52ED0
:104AC000F12C9924939465E7C62ED12C8091B007E0
:104AD0009091B107009711F00E945C3586E090E05C
:104AE0000E94C034FC018082128301831382F5820C
:104AF000E4829093B1078093B00735E0532EA090E5
:104B0000B007B090B1070E94D806D50113969C92C9
:104B1000C5010E94DA0881110C94AB2E6AE070E0A6
:104B200080E090E00E945B045A945110E8CFE0913D
:104B30000806F0910906E45FFE4F808181110C9414
:104B4000D12E68E873E180E090E00E945B04BECF64
:104B50008CE793E00E94FC1AFDCE90E080E00C947C
:104B60006D3080928E0790928F07A0929007B0923E
:104B7000910780918A0790918B07A0918C07B09143
:104B80008D0788159905AA05BB0509F49AC013EA93
:104B9000E12E16E0F12E10E000E082E0582E809128
:104BA0008707909188070817190708F07AC0809046
:104BB0008E0790908F07A0909007B0909107002EDD
:104BC00004C0B694A794979487940A94D2F7D50119
:104BD000C40180959095A095B095E82FE170DE2EE8
:104BE000D70113968C91E81709F446C0B1E08B22E7
:104BF0009924AA24BB240531110511F00C94963098
:104C0000E091C006F091C106EA5EFE4FD08280912D
:104C1000BE069091BF06602F81149104A104B104D7
:104C2000A1F10E948A1AF701D382D12CC12C809164
:104C3000C0069091C1068C0D9D1DFC01EE5FFE4FDC
:104C4000208130E081149104A104B10409F5021718
:104C5000130759F48A5F9E4F4FEFDC016C918091EE
:104C6000C2069091C3060E944C0DFFEFCF1ADF0AD7
:104C700024E0C216D104D9F60F5F1F4F3FEFE31AAD
:104C8000F30A8DCF55245394C2CF0E94AF1ACBCFD5
:104C90000217130751F78A5F9E4F40E0FC016081C5
:104CA000DECF41E05412F4C1E091C006F091C1069C
:104CB000E95EFE4F8081833011F0863011F484E08C
:104CC00080830E94A5018C012091CD063091CE06F3
:104CD000F901EC5EFE4F8081F82EE894F1F851E086
:104CE000F51217C04091CF068091C5069091C60677
:104CF0004111DCC124503F4FD9012D913C912A50E4
:104D00003109021713072CF067E10E94AF1AF092E5
:104D1000CF062091CD063091CE06F901EC5EFE4F14
:104D200080818230C0F08091C5069091C606409186
:104D3000D0064111CFC122503F4FD9012D913C9156
:104D4000265F3F4F2017310734F067E10E94AF1A0A
:104D500081E08093D006E091CD06F091CE06F395E8
:104D6000E080F180E016F1060CF4C8C11093CC0687
:104D70000093CB068091C5069091C6064091CB0664
:104D80005091CC06052E000C660B770BDC011896B3
:104D90004D935D936D937C931B97D2962C9121112B
:104DA0000E94A61880918704882309F4DEC08091B0
:104DB000B2029091B302DC01ED91FC910680F78183
:104DC000E02DB301099520910A0630910B06409120
:104DD0000C0650910D066D897E898F89988D0E94F1
:104DE000F73120E030E048EC52E40E9420340E9489
:104DF0004E330E94DB326B017093150660931406EC
:104E000020910E0630910F06409110065091110628
:104E1000698D7A8D8B8D9C8D0E94F73120E030E07A
:104E200048EC52E40E9420340E944E330E94DB3250
:104E300070931706609316062091080630910906B4
:104E4000F901E25FFE4F40815181F601D7FE04C0B7
:104E5000EE27FF27EC19FD09E417F50724F410925B
:104E6000150610921406FB0177FF04C0EE27FF27FA
:104E7000E61BF70BE417F50724F4109217061092BF
:104E800016068091140690911506F901E65FFE4F13
:104E90004081413009F05AC14091160650911706E1
:104EA00051954195510950931506409314069093DE
:104EB00017068093160660911806509114064091CB
:104EC0001506809112069091130661115CC1205F56
:104ED0003E4FF90160817181252F342F37FF03C0C8
:104EE0003195219531096217730764F020911606F8
:104EF0003091170637FF03C03195219531096217AC
:104F0000730734F466E10E94AF1A81E080931806BB
:104F10008091120690911306409114065091150647
:104F2000052E000C660B770BFC01408351836283D6
:104F3000738322A921110E94A618809112069091D4
:104F400013064091160650911706052E000C660BAD
:104F5000770BDC0114964D935D936D937C931797BB
:104F6000D2962C9121110E94A6180E943D054B015A
:104F70005C01E0911906F0911A06E95EFE4F80810E
:104F8000833009F49EC108F024C1813009F47CC14A
:104F9000823009F484C10091F7051091F8050E9450
:104FA0003D054B015C01B5E0CB2ED12C7801E2EB45
:104FB000EE1AEEEFFE0AD7018C918E3308F023C271
:104FC0008F5F8C93D7016C91862F90E0D801ED9183
:104FD000FC911197E80FF91F47ADA80FB91F539621
:104FE0002C91421740F5E354FF4F2081222319F101
:104FF000FC01EE0FFF1FEE0FFF1FE00FF11FEE5A37
:10500000FF4F80819181A281B38114012501281A6B
:10501000390A4A0A5B0AB4E62B9FC0011124092E03
:10502000000CAA0BBB0B281639064A065B061CF0BF
:10503000C8010E944C0DE1E0CE1AD10809F0BBCFA7
:1050400009E010E0CC24C3948CE293E00E945B035F
:10505000892B09F4EEC18CE293E00E9419032091A0
:10506000030630910406F901EC51FA4F858B2115A6
:10507000310509F0CBC19091F9058091E5059813B0
:10508000D0C12F5F3F4F3093040620930306CDC15C
:10509000511017CEE091C006F091C106E95EFE4FB7
:1050A0008081873009F00DCE82E00ACE413009F0D0
:1050B00030CE24503F4FF901208131812A503109EF
:1050C000021713070CF025CE67E10E948A1A10928E
:1050D000CF061FCE413009F03ECE22503F4FF9019E
:1050E00020813181265F3F4F201731070CF033CEEE
:1050F00067E10E948A1A1092D0062DCEB8016E196F
:105100007F09072E000C880B990B0E941333209106
:10511000C7063091C8064091C9065091CA060E9440
:1051200020344B015C01B701FF0C880B990B0E94E6
:1051300013339B01AC01C501B4010E94F8310E94F8
:10514000DB327093CC066093CB0614CE423079F4F8
:1051500091958195910990931506809314068091FD
:10516000160690911706919581959109A0CE43302E
:1051700009F0A1CE409116065091170650931506DE
:1051800040931406F0CF613009F0C2CE205F3E4F4D
:10519000D9016D917C91252F342F37FF03C03195B4
:1051A00021953109261737070CF0B2CE209116064B
:1051B0003091170637FF03C0319521953109261725
:1051C00037070CF0A5CE66E10E948A1A10921806E5
:1051D0009FCE853009F4F6C008F4C8C0863009F0C7
:1051E000DACE80911E0690911F06A0912006B09104
:1051F0002106A5019401281B390B4A0B5B0BDA0130
:10520000C9010B97A105B1050CF4C5CE0091A0060C
:1052100010E0A801475E594F7A01DD24D3948091B4
:10522000A1068017110609F00CF497C0E091190649
:10523000F0911A06E00FF11F80818230F9F4F70136
:10524000E85BFF4FD70119968C919091A2062081BF
:10525000213009F0D2C02FEF30E0291B310982172D
:1052600013060CF4C6C01082D70119964C91602F1A
:1052700080911B0690911C060E944C0D0F5F1F4FE2
:10528000BFEFEB1AFB0ACBCF80921E0690921F064F
:10529000A0922006B092210685E080837CCE0E94F9
:1052A000680E80921E0690921F06A0922006B09271
:1052B0002106E0911906F0911A06E95EFE4F83E09F
:1052C000ECCF80911E0690911F06A0912006B09110
:1052D0002106A5019401281B390B4A0B5B0BDA014F
:1052E000C90181329E44A105B1050CF454CE009150
:1052F000A00610E08091190690911A062091A1064F
:105300002017110629F124F1800F911FDC018C91E7
:105310008230D9F40E94263120E031E040E050E0B4
:105320000E949431F62E462F602F80911B0690919B
:105330001C060E944C0DF801E75EF94FDF01A85BE7
:10534000BF4F8F2D81708C93F1860F5F1F4FD2CF8F
:10535000895E9E4F26E0FC01208380921E0690927B
:105360001F06A0922006B092210615CE0091A0063D
:1053700010E08091190690911A062091A10620173D
:10538000110691F08CF0800F911FDC018C9182301E
:1053900041F44FEF602F80911B0690911C060E94F4
:1053A0004C0D0F5F1F4FE5CF80921E0690921F0697
:1053B000A0922006B0922106895E9E4F27E0FC0154
:1053C0002083E9CD80911E0690911F06A0912006B2
:1053D000B0912106881A990AAA0ABB0A31E18316FC
:1053E00037E29306A104B1040CF4D5CD0E94680EF7
:1053F00060CF890FF701818737CF981710F0D082DF
:1054000033CF891BF7CFF7011082DCCD2130310576
:1054100009F0E3C39091FA058091E605981708F02A
:1054200030CE10920406109203060150110909F0C3
:105430000BCE8091050690910606181619060CF001
:10544000C4C3019731F50091F3051091F40582EA88
:1054500092E00E94EE027801B3E0EB0EF11C6801CD
:10546000EAE1CE0ED11CD7018D917D0190E00E9422
:105470002B0F80EA92E00E94EE02CE14DF0499F72F
:10548000F801828D90E00E942B0F8DE992E00E943E
:10549000EE028091050690910606029711F50091A3
:1054A000F7051091F8058CEC91E00E94EE0278016E
:1054B000F3E1EF0EF11C0F5A1F4FD7018D917D01C3
:1054C0000E946B0F8AEC91E00E94EE020E151F0500
:1054D000A1F7F80180810E946B0F87EC91E00E9498
:1054E000EE028091050690910606039761F485ED22
:1054F00091E00E94EE020E94A5010E942B0F84E31E
:1055000092E00E94DA0E80910506909106060497BB
:1055100009F04DC00091EF051091F0058091B202A5
:105520009091B302DC01ED91FC910680F781E02DB2
:10553000B301099587EE91E00E94EE02F801238104
:105540003481458156816D897E898F89988D0E942D
:10555000F73142E00E94720F85EE91E00E94EE0268
:10556000D80117962D913D914D915C911A97698DB7
:105570007A8D8B8D9C8D0E94F73142E00E94720FD4
:1055800083EE91E00E94EE02F801858596850E94E7
:105590002B0F81EE91E00E94EE02D8011F968D91B3
:1055A0009C910E942B0F8EED91E00E94EE02809163
:1055B000050690910606059709F0DCC00091F505F7
:1055C0001091F6058CE192E00E94EE026801BFE3C3
:1055D000CB0ED11C7801F70181917F010E946B0FE6
:1055E0008AE192E00E94EE02CE14DF04A1F7780176
:1055F000FEE7EF0EF11CD6018D916D010E946B0F3D
:1056000088E192E00E94EE02EC14FD04A1F768012B
:10561000BDEBCB0ED11CF70181917F010E946B0F76
:1056200086E192E00E94EE02EC14FD04A1F768010D
:10563000FCEFCF0ED11CD7018D917D010E946B0F25
:1056400084E192E00E94EE02CE14DF04A1F7F6019D
:10565000808191810E942B0F82E192E00E94EE02F4
:10566000F801E250FF4F808191810E942B0F80E171
:1056700092E00E94EE02F801F395808191810E94F0
:105680002B0F8EE092E00E94EE026801FEEFCF1A2F
:10569000DF0A78012AEFE21A2EEFF20AD6018D9185
:1056A0006D010E946B0F8CE092E00E94EE02EC1400
:1056B000FD04A1F76801B6EFCB1ABEEFDB0AF701D4
:1056C00081917F010E946B0F8AE092E00E94EE02BE
:1056D000CE14DF04A1F7D6018C910E946B0F88E0F5
:1056E00092E00E94EE02F801E45FFE4F80810E948A
:1056F0006B0F86E092E00E94EE02F801E35FFE4F3E
:1057000080810E946B0F84E092E00E94EE02F8011B
:10571000E25FFE4F808191810E942B0F82E092E038
:105720000E94EE02F801EC5EFE4F80810E946B0F3A
:1057300080E092E00E94EE02F801E05FFE4F80817F
:1057400091810E942B0F8EEF91E00E94EE02F801F2
:10575000EE5EFE4F808191810E942B0F8CEF91E0D5
:105760000E94EE028EEE91E00E94EE02109206067A
:10577000109205068091050690910606069709F09D
:105780000BC10091F5051091F6056801BBEECB1A2F
:10579000BEEFDB0AF60110825801FFE3AF0EB11C29
:1057A000780161E0C8010E94890ED7018D937D01C7
:1057B000AA15BB05B1F75801BEE7AB0EB11C62E0FC
:1057C000C8010E94890EF70181937F01EA15FB054C
:1057D000B1F75801FDEBAF0EB11C63E0C8010E94A8
:1057E000890ED7018D937D01AA15BB05B1F758012C
:1057F000BCEFAB0EB11C64E0C8010E94890EF7013A
:1058000081937F01EA15FB05B1F765E0C8010E94AD
:10581000890EB82E66E0C8010E94890E2B2D30E05B
:10582000322F2227820F932F911DD7018D939C93A6
:1058300067E0C8010E94890EF82E68E0C8010E9446
:10584000890EF801E250FF4F2F2D30E0322F222732
:10585000820F932F911D9183808369E0C8010E947C
:10586000890EF82E6AE0C8010E94890EF801F395AE
:105870002F2D30E0322F2227820F932F911D9183FD
:1058800080835801BEEFAB1ABB0A7801EAEFEE1A2B
:10589000EEEFFE0A6BE0C8010E94890ED5018D93E0
:1058A0005D01AE15BF05B1F77801B6EFEB1ABEEF9B
:1058B000FB0A6CE0C8010E94890EF50181935F012B
:1058C000EE16FF06B1F76DE0C8010E94890ED70100
:1058D0008C936EE0C8010E94890EF801E45FFE4FD0
:1058E00080836FE0C8010E94890EF801E35FFE4FDC
:1058F000808360E1C8010E94890EF82E61E1C80131
:105900000E94890EF801E25FFE4F2F2D30E0322F0A
:105910002227820F932F911D9183808362E1C8011A
:105920000E94890EF801EC5EFE4F808363E1C8019E
:105930000E94890EF82E64E1C8010E94890EF801C8
:10594000E05FFE4F2F2D30E0322F2227820F932F62
:10595000911D9183808365E1C8010E94890EF82E14
:1059600066E1C8010E94890EF801EE5EFE4F2F2D00
:1059700030E0322F2227820F932F911D9183808355
:10598000F6018081882309F493C190E00E945B0FA7
:105990001092060610920506809105069091060663
:1059A000079709F062C00091F5051091F6054801CE
:1059B000FBEE8F1AFEEF9F0AD4011C9262E3C8012E
:1059C0000E94890EF82E63E3C8010E94890E5801D7
:1059D000BCEFAB0EB11C2F2D30E0322F2227820FEF
:1059E000932F911DF5019183808364E3C8010E9488
:1059F000890EF82E65E3C8010E94890E6801FEEF4A
:105A0000CF0ED11C2F2D30E0322F2227820F932F63
:105A1000911DD6018D939C9366E3C8010E94890E67
:105A2000582E67E3C8010E94890E7801F394252D52
:105A300030E0322F2227820F932F911DF70191839F
:105A40008083D4018C91882309F437C190E00E94AF
:105A50005B0F8091F1059091F2050E94CC0C23E040
:105A600030E030930606209305068091050690915C
:105A700006060A9709F07AC00091F5051091F6051F
:105A800058013BEEA31A3EEFB30AD5011C9265E61E
:105A9000C8010E94890E6801B3EFCB1ABEEFDB0A82
:105AA000F601808366E6C8010E94890E982E67E69B
:105AB000C8010E94890E7801F2EFEF1AFEEFFF0A8B
:105AC000292D30E0322F2227820F932F911DD701ED
:105AD0008D939C9368E6C8010E94890E4801B6EF39
