:100000000C9450020C9478020C9478020C947802B0
:100010000C9478020C9478020C9478020C94780278
:100020000C9478020C9478020C94831B0C94F21BB1
:100030000C9478020C9478020C9478020C94780258
:100040000C9478020C9478020C9478020C94780248
:100050000C9478020C9478020C9478020C941E1E76
:100060000C9478020C9478020C9478020C94780228
:100070000C9478020C9478020C9478020C94780218
:100080000C9478020C9478020C9478020C94780208
:100090000C94681E0C9478020C9478020C947802EC
:1000A0000C9478020C9478020C9478020000000002
:1000B0000000000000000000000000002A002B00EB
:1000C0002800000000000000000000000000000008
:1000D0000000000000000000000000000000000020
:1000E0000000000000000000000000002C001E02C4
:1000F00034022002210222022402340026022702B6
:1001000025022E0236002D003700380027001E0081
:100110001F002000210022002300240025002600CB
:100120003302330036022E00370238021F02040267
:10013000050206020702080209020A020B020C026B
:100140000D020E020F02100211021202130214021B
:10015000150216021702180219021A021B021C02CB
:100160001D022F003100300023022D023500040053
:10017000050006000700080009000A000B000C003B
:100180000D000E000F0010001100120013001400EB
:10019000150016001700180019001A001B001C009B
:1001A0001D002F0231023002350200000000000065
:1001B000000000000000000000000000000000003F
:1001C000000000000000000000000000000000002F
:1001D000000000000000000000000000000000001F
:1001E000000000000000000000000000000000000F
:1001F00000000000000000000000000000000000FF
:1002000000000000000000000000000000000000EE
:1002100000000000000000000000000000000000DE
:1002200000000000000000000000000000000000CE
:1002300000000000000000000000000000000000BE
:1002400000000000000000000000000000000000AE
:10025000000000000000000000000000000000009E
:10026000000000000000000000000000000000008E
:10027000000000000000000000000000000000007E
:10028000000000000000000000000000000000006E
:10029000000000000000000000000000000000005E
:1002A0000000000000000000000000000501090639
:1002B000A101050719E029E7150025017501950839
:1002C0008102050C95017508150026FF001900290B
:1002D000FF8100050819012908950875019102059B
:1002E0000795067508150026E700190029E7810023
:1002F000C0050C0901A101150026FF0319002AFF02
:1003000003950475108100C005010904A1010509C8
:10031000190129201500250175019520810205018B
:10032000A100093009310933093416008026FF7F06
:10033000751095048102093209351580257F7508ED
:1003400095028102C0050109390939150125089571
:100350000275048102C000000000240027002A006A
:100360002D00300000000000250028002B002E008A
:100370003100080B00020202000009040000010223
:1003800002000005240010010524010101042402DB
:100390000605240600010705810310004009040139
:1003A00000020A0000000705020240000007058362
:1003B000024000000403090412010002EF020140A0
:1003C0008F0E0792000101020301556E6B6E6F776D
:1003D0006E00436C657620536F66742050696E4FD3
:1003E0006E6500000000002300260029002C002F6D
:1003F00000040404040403040502020202040302CC
:1004000002020206060606060604040202020404AC
:100410000408020110408040102040804080080203
:100420000401804020100201108010204040200D67
:100430000A002C00422C000D0A002C004F2C000D4D
:100440000A00502C000D0A002C002C002C00412C1E
:1004500000450D0A00432C00522C530D0A00522C6B
:10046000450D0A00562C312E31372E300D0A002C46
:10047000002C00070605040100080A0B0C0D0900FA
:1004800000000200090F0000030401000C0000003E
:100490000000000000000000000000000000CF1F6E
:1004A00011241FBECFEFDAE0DEBFCDBF12E0A0E027
:1004B000B1E0EAEEF6E602C005900D92A834B1076D
:1004C000D9F728E0A8E4B2E001C01D92AB35B2072D
:1004D000E1F712E0C0E5D2E004C02197FE010E94DE
:1004E0003432CF34D107C9F70E9442220C947333BF
:1004F0000C94000008950895E8E7F4E0E4919091E9
:100500007B008E2F880F880F80729F7D892B8093B0
:100510007B00E770E064E0937C0080917A00806467
:1005200080937A0080917A0086FDFCCF80917800DC
:10053000909179000895FC018091AA02882311F11D
:100540003FB7F89482E08093E9002091F200822F77
:1005500090E01816190614F481E090E0882339F031
:10056000289844E64093A9024091F1004083222359
:1005700039F02091F200211103C02BE62093E8000E
:100580003FBF08958FEF9FEF0895CF92DF92EF92D4
:10059000FF92CF93DF93C091C404D091C5048091A2
:1005A000C2049091C304BE01681B790B072E000C96
:1005B000880B990B0E9495306B017C016091C004FF
:1005C0007091C1046C1B7D0B072E000C880B990BDE
:1005D0000E9495309B01AC01C701B6010E94EB2F30
:1005E0006093A2077093A3078093A4079093A50735
:1005F000DF91CF91FF90EF90DF90CF9008958091A1
:100600007C078823A9F08091770780937A0710925E
:100610007C0780917A078B5F80937B0790917807A6
:10062000891728F090937B0781E080937C070895D9
:1006300080917A078B5F80937A07EBCF4091A2027B
:100640005091A3022091A0023091A10242175307BA
:10065000B4F49091E8009570E1F39091E80092FD78
:1006600019C08093F1008091A2029091A30201969B
:100670008F739927892B19F48EEF8093E80080916E
:10068000A2029091A30201969093A3028093A202EA
:1006900081E0089580E00895EF92FF920F931F93F9
:1006A000CF93DF93F82E192FE62E042F81E0860FCB
:1006B000880F0E941E0383E00E941E03CF2DD12FBE
:1006C000EC0EFD2EF11CCE15DF05B9F007FF13C0AF
:1006D000FE0184910E941E03182F80E00E941E03D9
:1006E000812321968111EFCFDF91CF911F910F913F
:1006F000FF90EF9008958881EDCF81E0F5CFDF92F4
:10070000EF92FF920F931F93CF93DF93D82E8A011E
:10071000EB017B01E40EF51ECE15DF0559F0D7FE87
:1007200012C0FE0184910E941E0321968111F4CF14
:100730000FEF1FEFC801DF91CF911F910F91FF9035
:10074000EF90DF9008958881EECF2FB7F8948770EF
:100750008093E9009091E800892F807295FF04C092
:100760009091F20080E4891B2FBF0895615030F012
:100770002091F100FC0120830196F8CF289884E6AF
:100780008093A9020895AF92BF92DF92EF92FF92F9
:100790000F931F93CF93DF935C018B01EB019BEFD2
:1007A000D92E2097C1F07E01C134D1051CF080E420
:1007B000E82EF12C8091E80082FFFCCFC8018C1B51
:1007C0009D0B6E2D8A0D9B1D0E94B603D092E800F2
:1007D000CE19DF09E6CFC801DF91CF911F910F91AC
:1007E000FF90EF90DF90BF90AF900895AF92BF92CF
:1007F000CF92DF92EF92FF920F931F93CF93DF93ED
:100800006C017B018B01040F151FEB015E01AE181B
:10081000BF08C017D10759F06991D601ED91FC913D
:100820000190F081E02DC6010995892B79F7C5016A
:10083000DF91CF911F910F91FF90EF90DF90CF90BC
:10084000BF90AF9008958091980281110DC082E011
:100850008093940284E08093950210929702109204
:10086000960281E08093980284E992E008950F93C4
:100870001F93CF93DF931F92CDB7DEB782E08983BA
:1008800042E450E062E773E080E80E947F030E9448
:100890002304DC0112960D911C910115110589F0BC
:1008A000D801ED91FC910280F381E02DBE016F5FD4
:1008B0007F4FC801099597FD04C0F8010085118597
:1008C000ECCF89810F90DF91CF911F910F91089507
:1008D000CF93DF931F92CDB7DEB76983DC01ED9133
:1008E000FC910280F381E02D41E050E0BE016F5F9A
:1008F0007F4F09950F90DF91CF9108950F931F932C
:10090000CF93DF938C01D0E0C0E0F801EC0FFD1F26
:100910006491662341F081E293E00E946804892B90
:1009200011F02196F2CFCE01DF91CF911F910F915F
:10093000089583E08093E9008091F200882319F004
:100940008AE38093E800089583E00E94A50390E085
:100950000895CF93DF931F92CDB7DEB7FC01848556
:10096000958597FD08C02FEF3FEF358724870F90BF
:10097000DF91CF910895CE0101960E949B020197CD
:1009800019F4898190E0F3CF8FEF9FEFF0CF0F93B1
:100990001F93CF93DF931F92CDB7DEB78C01FC017D
:1009A0008485958597FF0BC0CE0101960E949B021E
:1009B000019771F4898190E0F80195878487F801A7
:1009C000848595850F90DF91CF911F910F910895A8
:1009D0008FEF9FEFF1CFFC018485958597FD0BC0CC
:1009E0009FB7F89482E08093E9008091F2009FBF66
:1009F00090E0019608959FB7F89482E08093E90013
:100A00008091F2009FBF90E0089581508F3008F0F0
:100A100047C0E82FF0E0E15FFA4F0C9434322C0528
:100A200030051E05240528055005500550053305E1
:100A300039053D054105470550054B05809180006E
:100A40008F77809380000895809180008F7DF9CF0B
:100A500080918000877FF5CF84B58F7784BD08951E
:100A600084B58F7DFBCF809190008F77809390002D
:100A70000895809190008F7DF9CF80919000877FBD
:100A8000F5CF8091C0008F778093C000089580914A
:100A9000C0008F7DF9CF8091C200877F8093C20014
:100AA00008951F93CF93DF93282F30E0F901E15889
:100AB000FB4F8491F901E05FFB4FD491F901EF50B6
:100AC000FC4FC491CC23A9F0162F81110E9405057B
:100AD000EC2FF0E0EE0FFF1FEC59FC4FA591B49105
:100AE0008FB7F894EC91111108C0D095DE23DC93F8
:100AF0008FBFDF91CF911F910895DE2BF8CFCF9359
:100B0000DF9390E0FC01E05FFB4F24918F509C4FFE
:100B1000FC0184918823C9F090E0880F991FFC01A3
:100B2000EA5AFC4FA591B491FC01EC59FC4FC591D8
:100B3000D49161110DC09FB7F8948C9120958223B8
:100B40008C938881282328839FBFDF91CF910895BC
:100B5000623051F49FB7F8943C91822F80958323A3
:100B60008C93E8812E2BEFCF8FB7F894EC912E2B3E
:100B70002C938FBFEACF8230910538F0880F991FF0
:100B8000880F991F05970197F1F708953FB7F894DB
:100B90008091900290919102A0919202B091930263
:100BA00026B5A89B05C02F3F19F00196A11DB11DC8
:100BB0003FBFBA2FA92F982F8827BC01CD01620F04
:100BC000711D811D911D42E0660F771F881F991FBF
:100BD0004A95D1F708958F929F92AF92BF92CF928C
:100BE000DF92EF92FF924B015C010E94C6056B0100
:100BF0007C010E94C6056C197D098E099F09683E1B
:100C0000734081059105A8F321E0821A9108A1089B
:100C1000B10888EEC80E83E0D81EE11CF11C8114D7
:100C20009104A104B10429F7FF90EF90DF90CF90D9
:100C3000BF90AF909F908F9008957F928F929F92D8
:100C4000AF92BF92CF92DF92EF92FF920F931F93DA
:100C5000CF93DF93C82E8B017A018091AA02811174
:100C600010C08FEF9FEFDF91CF911F910F91FF90F9
:100C7000EF90DF90CF90BF90AF909F908F907F903C
:100C800008958091A80280FF05C08091E0008260F5
:100C90008093E000CE2DDF2DD12C8AEFB82E8C2D45
:100CA0008770982E8C2D8072882E8C2D8074782ED3
:100CB0009AE3A92E209719F4DD2009F452C08C2D57
:100CC0000E94A50381110AC0BA94BB2051F261E0D1
:100CD00070E080E090E00E94EB05ECCF8C171D06E1
:100CE00011F00CF08C2F9FB7F8949092E9002091AE
:100CF000E80025FD02C09FBFDDCF282F30E0C21BDA
:100D0000D30B882029F08150A0F01092F100FBCF86
:100D1000F801C7FC0AC0815050F041914093F100A6
:100D2000FACF44914093F10031968150D0F7020FF1
:100D3000131FDD2021F0A092E800D12CDCCF8091A0
:100D4000E80085FD07C0A092E800DD24D394209739
:100D500091F2F3CF209779F6772069F2A092E8001C
:100D6000CACF5D9884E68093A502C7017CCFCF935C
:100D7000DF93EC0180911201882331F083E00E941F
:100D80001D061816190634F081E090E09B838A83D3
:100D900080E090E0DF91CF9108952FB7F8946091B3
:100DA0008C0270918D0280918E0290918F022FBFE4
:100DB00008958F929F92AF92BF92CF92DF92EF925F
:100DC000FF92CF93C091E204C11139C00E94CD06B9
:100DD0004B015C010E94CD066B017C01C818D9084B
:100DE000EA08FB0888E8C81683E1D806E104F104A4
:100DF00014F581E293E00E94EB041816190684F4BE
:100E000081E293E00E94A904C82F8C2FCF91FF901C
:100E1000EF90DF90CF90BF90AF909F908F9008950C
:100E20000E94CD066B017C0162E370E080E090E0FF
:100E30000E94EB05D3CF81E08093E204E6CFC0E0CF
:100E4000E4CF0F931F93CF93DF93162F082FEC015E
:100E50000E94D90689938C2F801B8117C8F3DF91DC
:100E6000CF911F910F910895CF930E94D906C82F5B
:100E70000E94D9062C2F30E0322F2227820F932F89
:100E8000911DCF910895FC0183858F3F19F061E09A
:100E90000C9451050895FC0180819181892B39F0D2
:100EA000A281B3819C9111968C919CBD8DBD83854F
:100EB0008F3F19F060E00C9451050895AF92BF92F6
:100EC000CF92DF92EF92FF920F931F93CF93DF9316
:100ED000EC0188819981892B89F06EBD0DB407FEE4
:100EE000FDCFBEB48B2DDF91CF911F910F91FF905D
:100EF000EF90DF90CF90BF90AF900895888599854F
:100F000011E0892B09F010E8AA24A394862F8123ED
:100F100009F0A12C062F2C813D814E815F8160E27A
:100F200071EA87E090E00E94482FF22EB02EE12C6B
:100F3000C22ED12CFF2019F0C6010E94BB058A8564
:100F4000877F09F042C08D858F3F89F0902F9123D4
:100F500081E009F480E08A1551F0EF85F8898F89E6
:100F6000992369F19081892B8083AA24A394E9892C
:100F7000FA898081998D892B8083FF2019F0C60121
:100F80000E94BB058E858F3F39F0EB89FC898081FB
:100F9000988D892309F0E12AE989FA899081898D60
:100FA0008095892380838E858F3F09F0BE2C8885AC
:100FB0009985892BB9F5110F1111BCCF93CF908171
:100FC000809589238083A12CD2CFE989FA898081F9
:100FD000998D892B8083FF2019F0C6010E94BB05E3
:100FE0008D858F3F49F0EF85F8898F89902F912368
:100FF000A9F09081892B8083E989FA899081898D74
:101000008095892380838E858F3F69F2EB89FC89E7
:101010008081988D892339F2E12AC5CF908180950E
:101020008923E9CF1695C8CF8F929F92AF92BF9236
:10103000CF92DF92EF92FF920F931F93CF93DF93A4
:101040007C014B016A01B22EA32E0E944B07E401E2
:10105000C80CD91CCC15DD0569F4CB2DDA2D0C0F8D
:101060001D1FC017D10759F06FEFC7010E945E071F
:101070008993F7CF6991C7010E945E07EBCFC70143
:101080000E94430781E0DF91CF911F910F91FF9064
:10109000EF90DF90CF90BF90AF909F908F9008958A
:1010A0008F929F92AF92BF92CF92DF92EF92FF9278
:1010B0000F931F93CF93DF937C01B62EA72E6A0167
:1010C00049010E944B07E401080D191DC017D10703
:1010D00061F4CB2DDA2DCC0EDD1ECC15DD0551F0E3
:1010E0006991C7010E945E07F8CF6991C7010E940C
:1010F0005E07ECCFC7010E94430781E0DF91CF91EB
:101100001F910F91FF90EF90DF90CF90BF90AF9025
:101110009F908F900895DC01ED91FC910190F081FA
:10112000E02D099420916802260F3327331F2132C6
:101130003105ECF420911B03FC0190E080E02430A9
:1011400069F082E00895A09168022191AC01485BAA
:101150005D4FA40FB52FB11D2C930196861798F300
:1011600080916802680F6093680280E0089581E0D2
:10117000089510921B0381E08093FA021092F50209
:1011800061E082E00E94510561E083E00E94510528
:10119000E9EBF0E080818E7F808380818D7F80838A
:1011A00088E48093B80085E48093BC000895109291
:1011B000B0021092AF021092B2021092D4020E94BA
:1011C000B9088AE792E09093AE028093AD028BE774
:1011D00092E09093AC028093AB020895CF93DF939B
:1011E00091E09093A7028823B9F0C091B800D09104
:1011F000BA008091BC008A7B8093BC0060E082E0F2
:101200000E94510560E083E00E9451050E94B908E8
:10121000D093BA00C093B800DF91CF9108958F9218
:101220009F92AF92BF92CF92DF92EF92FF920F9375
:101230001F93CF93DF93D82FC62F142F613208F05E
:101240009CC00E94C6056B017C0180911B0381112B
:101250006FC081E080931B031093FA029FEF90937D
:10126000F9021092F8029C0F9093F7028093F60215
:101270008091F602DD0FD82BD093F6028091F50213
:10128000813009F07CC01092F5020E94C6056B0106
:101290007C018091F6028093BB0080911D039091A8
:1012A0001E03A0911F03B0912003892B8A2B8B2B47
:1012B000A1F00E94C60500911D0310911E0320910C
:1012C0001F03309120036C197D098E099F090617B1
:1012D00017072807390708F44CC08091BC0083FD2C
:1012E000D8CF85EC8093BC000E94C6056B017C01C1
:1012F00080911B03813009F444C08091F8028C175F
:1013000010F4C091F802E5EDF2E0ABEFB2E080E05E
:101310008C1359C08C2FDF91CF911F910F91FF90AB
:10132000EF90DF90CF90BF90AF909F908F900895F7
:1013300080911D0390911E03A0911F03B091200383
:10134000892B8A2B8B2B09F480CF0E94C6058090B5
:101350001D0390901E03A0901F03B09020036C19F2
:101360007D098E099F0986169706A806B90608F01A
:101370006CCF80911C030E94EE08C0E0CBCF85EEBD
:10138000B1CF80911D0390911E03A0911F03B091D6
:101390002003892B8A2B8B2B09F4AACF0E94C60528
:1013A00000911D0310911E0320911F033091200313
:1013B0006C197D098E099F09061717072807390739
:1013C00008F096CFD6CF91919D938F5FA1CF8F924A
:1013D0009F92AF92BF92CF92DF92EF92FF920F93C4
:1013E0001F93CF93DF93D091D402D13208F0D7C0AE
:1013F000182FC091D3020E94C6056B017C01809119
:101400001B0381116BC082E080931B031093FA02CF
:101410008FEF8093F9021092F802D093F702A3EBBA
:10142000B2E0E5EDF2E080E0D81391C01092F60250
:101430008091F602CC0FC82BC093F6028091F50282
:10144000813009F088C01092F5020E94C6056B0138
:101450007C018091F6028093BB0080911D039091E6
:101460001E03A0911F03B0912003892B8A2B8B2B85
:10147000A1F00E94C60500911D0310911E0320914A
:101480001F03309120036C197D098E099F090617EF
:1014900017072807390708F442C08091BC0083FD74
:1014A000D8CF85EC8093BC000E94C6056B017C01FF
:1014B00080911B03823009F450C08091F9028F3F64
:1014C00009F46FC08091F902803209F46CC08091F8
:1014D000F902803309F469C084E026C080911D03BD
:1014E00090911E03A0911F03B0912003892B8A2B9A
:1014F0008B2B09F484CF0E94C60580901D03909029
:101500001E03A0901F03B09020036C197D098E0963
:101510009F0986169706A806B90608F070CF809135
:101520001C030E94EE0885E01092B2021092D402D1
:101530001092B102DF91CF911F910F91FF90EF9028
:10154000DF90CF90BF90AF909F908F9008959D9126
:1015500091938F5F69CF85EEA5CF80911D03909108
:101560001E03A0911F03B0912003892B8A2B8B2B84
:1015700009F49ECF0E94C60500911D0310911E0321
:1015800020911F03309120036C197D098E099F095A
:10159000061717072807390708F08ACFC0CF81E060
:1015A000C3CF80E0C1CF82E0BFCF83E0BDCF1F9328
:1015B000CF93DF93EA01122FDC0111968D919C915C
:1015C000DC01ED91FC910280F381E02D0995C817B3
:1015D000D90729F4812F0E94E70991E0811190E059
:1015E000892FDF91CF911F910895AF92BF92CF9233
:1015F000DF92EF92FF920F931F93CF93DF9300D070
:10160000CDB7DEB7DC01211103C018962C911897D5
:10161000253008F043C01F964D935D936D937C93E6
:10162000529790E080E0E22EF12C8E159F05B4F4E5
:101630001A962C911A9721110AC0FD01E80FF91F83
:101640004387452F562F672F77270196EECFF70157
:10165000E81BF90BEA0FFB1F4287F3CF6D018BE00C
:10166000C80ED11C16969C91169717968C911797B9
:1016700099838A83AD90BC901197A114B10409F4A9
:1016800041C019960C9110E098012E0D3F1DD50117
:1016900014968D919C918217930710F480E016C0E8
:1016A000F50181819281208131E03093B102209354
:1016B000D3021092B2021092D4020115110599F4CE
:1016C00021E0A701B601C5010E94D70A0F900F9033
:1016D000DF91CF911F910F91FF90EF90DF90CF900E
:1016E000BF90AF900895DC01ED91FC910280F381F1
:1016F000E02DA801BE016F5F7F4F099508171907FC
:1017000069F6DECF1296ED91FC911397309731F286
:1017100014962D913C91159719960C9110E0233059
:10172000310571F48E7F89839A830F5F1F4F9E016D
:101730002F5F3F4FA701B601CF010E945008C6CFCF
:101740002115310519F49F779983F1CF22303105A6
:1017500011F49068F9CF2130310549F79F779064F3
:10176000F3CFCF93DF93EC018B818823A1F08881A5
:1017700091E09093B1028093D3021092B202109242
:10178000D40281E00E94E70991E0811190E0892F65
:10179000DF91CF9108950E94D70881E08B83CE011D
:1017A0000E94B10B982F8111E2CFF1CF1F93CF93FD
:1017B000DF93EC01142F89819A81288131E03093E5
:1017C000B1022093D3021092B2021092D402DC0133
:1017D000ED91FC910190F081E02D099589819A812C
:1017E000DC01ED91FC910190F081E02D612F0995D4
:1017F00081E0DF91CF911F910C94E709EF92FF9266
:101800000F931F93CF93DF93EC01E42E052FF22E5D
:10181000132F89819A81288131E03093B10220937E
:10182000D3021092B2021092D40224E0629FB0015F
:1018300011246A5F7F4FDC01ED91FC910190F081F2
:10184000E02D09956E2D702F89819A810E948B0859
:10185000602F70E089819A810E948B086F2D712F13
:1018600089819A810E948B08612F70E089819A8119
:101870000E948B0881E0DF91CF911F910F91FF9023
:10188000EF900C94E7099A01803130F4AB01682F96
:1018900082E398E00C94FE0B90EF980F903128F4BF
:1018A000AB01692F8BE298E0F5CF8052803128F4AC
:1018B000AB01682F84E298E0EDCF0895CF92DF92DC
:1018C000EF92FF920F931F93CF93DF93182FC62FA2
:1018D000E82EF12CC701875D9A4F6C01FC01618BEA
:1018E000662369F00E94CD06F701EE0FFF1FEE0F91
:1018F000FF1FE758FA4F60837183828393831F3001
:1019000008F0B4C0F601D281153008F0ACC00C2F3D
:1019100010E061E08D2F0E947F050115110511F483
:1019200060E004C00F3F110561F461E08D2FDF918D
:10193000CF911F910F91FF90EF90DF90CF900C947B
:101940005105ED2FF0E0E158FB4FE491E150EF300D
:1019500008F084C0F0E0E155F34F0C943432BE0C33
:10196000CB0CD00CDA0CE40C2E0D2E0D2E0DEE0C43
:10197000F80C020D0C0D190D2E0D210D84B580688B
:1019800084BDC7BDDF91CF911F910F91FF90EF9064
:10199000DF90CF90089584B5806284BDC8BDF2CF3A
:1019A000809180008068809380001093890000936C
:1019B0008800E8CF8091800080628093800010933F
:1019C0008B0000938A00DECF809180008860809336
:1019D000800010938D0000938C00D4CF80919000F4
:1019E0008068809390001093990000939800CACF6C
:1019F0008091900080628093900010939B000093F0
:101A00009A00C0CF809190008860809390001093DE
:101A10009D0000939C00B6CF8091C00080688093A9
:101A2000C0008091C0008F7B8093C000C093CF0026
:101A3000A9CF8091C00080628093C000C093D00085
:101A4000A1CF8091C20088608093C2008091C200C3
:101A50008B7F8093C200C093D20094CF00381105D1
:101A60000CF063CF5DCFC7FF5BCF5FCF1F3108F4B2
:101A7000C09581EF810F50E040E060E070E1CF3F22
:101A800061F040E050E170E060E0CC2331F0F0E143
:101A9000CF9FA001112461E070E0DF91CF911F91F1
:101AA0000F91FF90EF90DF90CF900C94430CCF926A
:101AB000DF92EF92FF920F931F93CF93C82F282F9F
:101AC00030E0F901EC53FC4FDF01A258BF4F8C917D
:101AD000681708F4862F90814091E304442331F085
:101AE000913011F09430F9F480E01DC09430D9F4B5
:101AF0008823C9F0275D3A4FF9019189992399F01C
:101B0000A4ECB3E030E020E09D91943009F04EC0A9
:101B1000F901E75DFA4F9189911148C0C22FE35B4B
:101B2000FE4F91E090832C2F30E0F901EC53FC4FF5
:101B30009081943009F041C081113FC0CA30E8F56E
:101B40002A58394FF9018081811125C084ECC82EB3
:101B500083E0D82E10E000E0F60181916F0184301F
:101B6000A9F4F801E75DFA4F8189882379F07F01B4
:101B700083EBE81A8EEFF80AF7018081882331F0B1
:101B800060E0802F0E945E0CF70110820F5F1F4FF4
:101B90000930110509F760E08C2FCF911F910F914B
:101BA000FF90EF90DF90CF900C945E0C2F5F3F4F33
:101BB0002930310509F0A8CFB6CF682FEDCFCF93EC
:101BC000DF930E94FF02C0917A07D0E080917B07EB
:101BD0008C171D0681F07CF0FE01EC53FC4F8081D8
:101BE0006CE3823019F0833021F46FEF8C2F0E9468
:101BF000570D2196EBCFDF91CF9108950895E09195
:101C0000B0028091AF02E81730F4F0E0E550FD4FEC
:101C1000808190E008958FEF9FEF08959091B0023A
:101C20008091AF022FEF3FEF981748F4E92FF0E0D3
:101C3000E550FD4F208130E09F5F9093B002C901D5
:101C400008958091AF029091B002891B990B08957D
:101C5000CF92DF92EF92FF920F931F93CF93DF9378
:101C60007C01CB018A012091B102222389F0EB0192
:101C70006B01C40ED51ECC15DD0569F06991D70145
:101C8000ED91FC910190F081E02DC7010995F3CF12
:101C9000642F0E949208C801DF91CF911F910F918C
:101CA000FF90EF90DF90CF900895CF93DF931F9236
:101CB000CDB7DEB769832091B1022223F9F02091DC
:101CC000D402203258F021E030E0FC01338322833B
:101CD00090E080E00F90DF91CF9108958091B20263
:101CE000E82FF0E0ED54FD4F998190838F5F809352
:101CF000B2028093D40281E090E0ECCF61E0CE01AB
:101D000001960E949208F7CF4FE050E06DE773E034
:101D100081E793E00C948F2EDC01FB0112962C914D
:101D20001297848195812817190641F49181808149
:101D3000813A31F49D7F81E0913009F080E008958F
:101D40008132E1F79B3029F482815C968C9381E0AB
:101D500008959A3099F783815D968C93F8CFFB01B3
:101D600020812138B1F42381223299F4DC011296CA
:101D70004C911297248135814217130651F421E0CA
:101D80005C962C934EE450E068E073E080E80C949D
:101D90007F0390E080E00895CF93DF93CDB7DEB767
:101DA00069970FB6F894DEBF0FBECDBFFC01DB0113
:101DB0009C919F5F9C939E012D5F3F4F81E1D901D4
:101DC0001D928A95E9F729E0298384E08A8391E0CE
:101DD0009D8383E08E832A8721E22B879C879D87C2
:101DE0009F8722E2288B2EE4298B27E02B8B25E08E
:101DF0002C8B8E8B20E430E0388F2F8B998F828153
:101E00008B83838180688D8B49E150E0BE016F5FD9
:101E10007F4F80E00E947F0369960FB6F894DEBF83
:101E20000FBECDBFDF91CF910895FC018381806407
:101E30000C941D060A970C94150FEFE8F3E0248527
:101E400035852817390711F415861486329623E054
:101E5000E739F207A1F748E050E06BE973E089E960
:101E600093E00C941A0FEBE9F3E030E020E04191AD
:101E700051912F5F3F4F452B79F4220F331FF9010A
:101E8000E157FC4F9387828748E050E06BE973E0AD
:101E900089E993E00C941A0F2430310541F7F4CF0F
:101EA000DC01FB0112962C911297848195812817F1
:101EB000190641F491818081813A31F49D7F81E05E
:101EC000913009F080E008958132E1F79B3029F4E8
:101ED000828155968C9381E008959A3099F7838199
:101EE00056968C93F8CFFB0120812138B1F42381E1
:101EF000223299F4DC0112964C911297248135819B
:101F00004217130651F421E055962C9347E150E017
:101F100061EF72E080E80C947F0390E080E0089528
:101F2000CF93DF93CDB7DEB769970FB6F894DEBFD6
:101F30000FBECDBFFC01DB019C919F5F9C939E0176
:101F40002D5F3F4F81E1D9011D928A95E9F729E084
:101F5000298384E08A8391E09D8383E08E832A87AE
:101F600021E22B879C879D879F8722E2288B27E190
:101F7000298B27E02B8B25E02C8B8E8B20E430E007
:101F8000388F2F8B998F82818B83838180688D8B93
:101F900049E150E0BE016F5F7F4F80E00E947F0308
:101FA00069960FB6F894DEBF0FBECDBFDF91CF911B
:101FB0000895CF93DF93EC01FB012A818481958101
:101FC0002817190609F04BC081819081913A79F464
:101FD000813029F0833039F48F898093F10081E0DA
:101FE000DF91CF9108958230D1F5888DF6CF91326F
:101FF000B1F58B3019F482818F8BF1CF8A3019F4CF
:102000008381888FECCF893051F566817781838118
:10201000833079F48C8D9D8D6817790701F58A8D51
:102020009B8D0E94C3038C8D9D8D90689D8F8C8F9E
:10203000D6CF823051F46130710589F461E070E0EF
:10204000CE0149960E94C303CACF813041F4683063
:10205000710529F468E070E0CE010E96F3CF80E0C0
:10206000BFCFCF93DF93CDB7DEB729970FB6F894E4
:10207000DEBF0FBECDBFFC014281FB012481358153
:102080004217130659F52081213841F52381213269
:10209000D1F489E0EDE1F1E0DE01119601900D92BD
:1020A0008A95E1F749E050E0BE016F5F7F4F80E025
:1020B0000E947F0329960FB6F894DEBF0FBECDBFF6
:1020C000DF91CF910895223249F421E0FC01278B62
:1020D00045E450E06CEA72E080E8EACF90E080E00E
:1020E000E9CFCF93DF93CDB7DEB769970FB6F894FA
:1020F000DEBF0FBECDBFFC01DB019C919F5F9C93B7
:102100009E012D5F3F4F81E1D9011D928A95E9F72C
:1021100029E0298384E08A8391E09D8383E08E8394
:102120009F8398872A8721E22B879C879D879F879B
:1021300022E2288B25E4298B27E02B8B25E02C8BB2
:102140008E8B20E430E0388F2F8B998F82818B83A8
:10215000838180688D8B49E150E0BE016F5F7F4FC6
:1021600080E00E947F0369960FB6F894DEBF0FBE31
:10217000CDBFDF91CF910895CF92DF92FF920F9361
:102180001F93CF93DF938C01F42EE62FF0E0EE0F38
:10219000FF1FE455FF4FC590D490D801ED91FC91FD
:1021A0000484F585E02D6C2DC8010995EC01892B7F
:1021B00011F4F11070C0D0FE0CC0D801ED91FC916B
:1021C0000484F585E02D4F2D60EEC8010995C82BDC
:1021D000D92BD1FE0CC0D801ED91FC910484F5857A
:1021E000E02D4F2D61EEC8010995C82BD92BD2FEE9
:1021F0000CC0D801ED91FC910484F585E02D4F2DA4
:1022000062EEC8010995C82BD92BD3FE0CC0D801AA
:10221000ED91FC910484F585E02D4F2D63EEC8010E
:102220000995C82BD92BD4FE0CC0D801ED91FC9197
:102230000484F585E02D4F2D64EEC8010995C82B67
:10224000D92BD5FE0CC0D801ED91FC910484F58505
:10225000E02D4F2D65EEC8010995C82BD92BD6FE70
:102260000CC0D801ED91FC910484F585E02D4F2D33
:1022700066EEC8010995C82BD92BD7FE0CC0D80132
:10228000ED91FC910484F585E02D4F2D67EEC8019A
:102290000995C82BD92BCE01DF91CF911F910F91BA
:1022A000FF90DF90CF900895FF920F931F93CF93ED
:1022B000DF93EC01F62E41E00E94BC108C01892BCB
:1022C000A9F0E881F9810284F385E02DCE0109951A
:1022D00040E06F2DCE010E94BC10892B39F0E881BF
:1022E000F9810284F385E02DCE010995C801DF91C3
:1022F000CF911F910F91FF900895FC0182818F5B18
:10230000FB01808381E00895089590E080E00895C6
:10231000FC019C01285F3F4F90E080E04481411127
:10232000019614823196E217F307C1F70895CF930F
:10233000DF93DC0190E2960F9830B0F414968C9104
:10234000149721E030E001C0220F9A95EAF7442368
:1023500041F0282B14962C9381E090E0DF91CF91EF
:10236000089520952823F6CFFD0136964423D1F019
:10237000CD010C96EF012991621771F3C817D907A7
:10238000D1F790E080E02191211105C0A80FB91F7D
:1023900016966C93E1CF019686309105A1F790E0F7
:1023A00080E0DCCF90E080E02191621305C0A80FAF
:1023B000B91F16961C92D0CF019686309105A1F7D1
:1023C000EECF0F931F93CF93DF93082F162FC82FB5
:1023D000D0E0CC53DC4FFE01EF5DFE4F6081662301
:1023E000A1F0112309F44CC06C3FF0F182EE90E0B3
:1023F0006C3F21F06D3F59F58AEE90E00E94330F5B
:10240000CF5DDE4F8881811126C040917D035091C0
:102410007E0360917F037091800381E090E0A0E0F3
:10242000B0E004C0880F991FAA1FBB1F0A95D2F7FE
:102430001123C9F1842B952BA62BB72B80937D03F9
:1024400090937E03A0937F03B093800308C089EE2E
:1024500090E06E3F99F2809124058823B1F2DF91DC
:10246000CF911F910F91089541E080EB93E00E947E
:102470009711892B29F280EB93E00E94A12EC0CF07
:102480006C3F78F082EE90E06C3F41F08AEE90E095
:102490006D3F21F06E3FF9F689EE90E00E941D0F2E
:1024A000AFCF40E0E2CF80959095A095B095842382
:1024B0009523A623B723C2CFCF92DF92EF92FF924C
:1024C0000F931F93CF93DF93D82FC62F21E0209334
:1024D00020053091DE04832F68E10E9414329D13A1
:1024E00004C03831E8F4C093E304ED2EF12CF70179
:1024F000EB5FFA4F8081882311F1C11149C090919F
:102500001D058917A8F48F5F8083C1E08C2FDF91B0
:10251000CF911F910F91FF90EF90DF90CF90089592
:10252000CC2319F38091E30482278093E304DDCF69
:1025300081E0808380919F07815080939F078CEF7B
:102540008D0F883000F5C11116C087010F56184F46
:10255000F8018281882379F0E091E104F0E0E3580A
:10256000F84F8281811107C060E084E18D0F0E94E5
:10257000E111F8011282E091E104F0E0E358F84F34
:102580008281811109C0D0937D076C2F8D2F19C0D6
:1025900080919F078F5FD1CF84E18D0F80937D075E
:1025A000E82FF0E0E358F84FC2836C2F0E94E1114E
:1025B000C11109C060E08D2F0E94E11160E080919F
:1025C0007D070E94E11106EC14E08AECC82E84E03D
:1025D000D82EF80181918F01CC2379F0882349F01E
:1025E0008150990BE816F90621F483816FEF811170
:1025F0000FC0C016D10669F789CF8823D1F3815067
:10260000990BE816F906A9F78381882391F360E016
:1026100081500E94570DEDCFFC0101900020E9F799
:102620003197AF01481B590BBC0181E293E00C9438
:10263000B7068F929F92AF92BF920F931F93CF9343
:10264000DF93CDB7DEB7A1970FB6F894DEBF0FBE0C
:10265000CDBF19A2423008F44AE08E010F5D1F4F32
:10266000842E912CB12CA12CA50194010E94482FFD
:10267000E62FB901CA01EA30F4F4E05DD801EE9327
:102680008D01232B242B252B79F790E080E01097E8
:1026900019F0CD010E940C13A1960FB6F894DEBF7D
:1026A0000FBECDBFDF91CF911F910F91BF90AF9023
:1026B0009F908F900895E95CE1CFCF92DF92EF92E7
:1026C000FF92CF93DF936C01990FEE08FF08F7FE9E
:1026D00019C06DE281E293E00E946804EC01662774
:1026E0007727CB016C197D098E099F094AE00E946A
:1026F00019138C0F9D1FDF91CF91FF90EF90DF900A
:10270000CF9008954AE0C701B601DF91CF91FF90C5
:10271000EF90DF90CF900C9419130E945D138FE619
:1027200094E00C947E044F925F926F927F928F920E
:102730009F92AF92BF92CF92DF92EF92FF920F9350
:102740001F93CF936B017C01742EAC019B010E94FF
:102750000F32882399F08FE192E0CF911F910F9172
:10276000FF90EF90DF90CF90BF90AF909F908F90B1
:102770007F906F905F904F900C940C13460157011F
:10278000E894B7F82FEF3FEF4FE75FE7C501B401DB
:102790000E940F3281110DC02FEF3FEF4FE75FE72F
:1027A000C501B4010E94E62F18161CF483E292E0E2
:1027B000D4CF2FEF3FEF4FE75FE4C701B6010E9490
:1027C0009D3118161CF487E292E0C7CF2FEF3FEF40
:1027D0004FE75FECC701B6010E94E62F87FDF3CFFC
:1027E00020E030E0A901C701B6010E94E62F10E009
:1027F00000E087FF0AC06DE281E293E00E94680476
:102800008C01F7FAF094F7F8F094C0E060E070E023
:1028100080E09FE37C1641F020E030E040E251E4AC
:102820000E94EB2FCF5FF6CFA70196010E947A2F6F
:102830002B013C010E9464304B015C014AE00E9484
:1028400019137C01E00EF11ECC23C1F1C501B401C6
:102850000E9493309B01AC01C301B2010E94792F09
:102860004B015C016EE281E293E00E946804E80E95
:10287000F91EC15018F120E030E040E251E4C501FA
:10288000B4010E94A2312B013C010E9464304B0133
:10289000B12CA12C4AE0C501B4010E941913E80E25
:1028A000F91EC501B4010E9493309B01AC01C30124
:1028B000B2010E94792F4B015C01DBCFC701CF91A0
:1028C0001F910F91FF90EF90DF90CF90BF90AF904E
:1028D0009F908F907F906F905F904F900895682F9A
:1028E00070E090E080E04AE00E94191381E794E0F4
:1028F0000C947E040F931F93CF93DF93162F082F12
:10290000EC0189910E946F148C2F801B8117C8F3F2
:10291000DF91CF911F910F9108953F924F925F9257
:102920006F927F928F929F92AF92BF92CF92DF92DF
:10293000EF92FF920F931F93CF93DF9300D0CDB709
:10294000DEB7FC014B01042F9681878199838A832E
:10295000C080D180C114D10409F479C0418550E010
:10296000D60114968D919C9184179507B0F4312C63
:10297000832D0F900F90DF91CF911F910F91FF90BA
:10298000EF90DF90CF90BF90AF909F908F907F900F
:102990006F905F904F903F900895F601808191E095
:1029A0009093B1028093D3021092B2021092D4029B
:1029B00020E0BE016F5F7F4FC6010E94D70A382E0C
:1029C0008823A9F210E0B12CA12CA016B10680F644
:1029D000D60114968D919C917801EA18FB088E150A
:1029E0009F0508F47C0141E0C8018E199F09A816D3
:1029F000B90608F440E06E2D613208F060E2F6019D
:102A000080810E940F091092B0028093AF028E1550
:102A10001F0409F0ACCF34016A0C7B1C2301C201F6
:102A2000861997098E159F0578F4D60111968D9118
:102A30009C91DC01ED91FC910284F385E02D0995D8
:102A4000F20181932F01EBCFAE0CBF1CBECFA28150
:102A5000B381109709F48BCF2481358110E0418533
:102A600050E02330310571F4816089839A834F5F90
:102A70005F4F9401BE016F5F7F4FCD010E9414082C
:102A8000382E76CF2115310519F490689983F1CF4E
:102A90002230310511F49F77F9CF2130310549F704
:102AA000906CF4CFAF92BF92CF92DF92EF92FF92F1
:102AB0000F931F93CF93DF93CDB7DEB7A1970FB6D8
:102AC000F894DEBF0FBECDBF809155089091560897
:102AD000188A198A1A8A1B8A9A8389831C821B8204
:102AE00081E08A878BE390E098878F831B868EE056
:102AF00089874EE0BE016C5E7F4FCE0101960E9439
:102B00008D146C897D8976276727762770934E0808
:102B100060934D08AE88BF88BA24AB24BA24B09223
:102B20005008A0924F08088D198D102701271027F3
:102B300010935208009351088091530890915408C3
:102B4000C12CD12CE12C35E4F32E8330910501F119
:102B5000C12CD12C20E8E22E25E4F22E8230910502
:102B6000B9F08130910579F0C12CD12C40E8E42EE8
:102B70004FE3F42E892B61F4C12CD12C80E8E82E90
:102B800086E4F82E05C0C12CD12CE12C96E4F92E58
:102B9000072E000C880B990B0E949530A701960117
:102BA0000E94EB2F2AE038EE4CE151E40E94A23162
:102BB00060934108709342088093430890934408BF
:102BC000B501BB0C880B990B0E949530A7019601AB
:102BD0000E94EB2F2AE038EE4CE151E40E94A23132
:102BE000609345087093460880934708909348087F
:102BF000B801110F880B990B0E949530A70196011F
:102C00000E94EB2F2AE038EE4CE151E40E94A23101
:102C10006093490870934A0880934B0890934C083E
:102C2000A1960FB6F894DEBF0FBECDBFDF91CF9156
:102C30001F910F91FF90EF90DF90CF90BF90AF90DA
:102C40000895CF92DF92EF92FF92CF9360E971E007
:102C500080E090E00E94EB051092D8061092D90611
:102C60001092DA061092DB061092DC061092DD0656
:102C70001092DE061092DF06C2E30E945215809188
:102C8000CE04883008F465C02091490830914A0884
:102C900040914B0850914C086091D8067091D9062C
:102CA0008091DA069091DB060E947A2F6093D80615
:102CB0007093D9068093DA069093DB06209145083D
:102CC0003091460840914708509148086091DC06D1
:102CD0007091DD068091DE069091DF060E947A2FCA
:102CE0006B017C01C092DC06D092DD06E092DE062C
:102CF000F092DF06C15009F0C0CF20E030E048E498
:102D000052E46091D8067091D9068091DA069091CC
:102D1000DB060E94EB2F6093D8067093D906809350
:102D2000DA069093DB0620E030E048E452E4C70185
:102D3000B6010E94EB2F6093DC067093DD06809352
:102D4000DE069093DF06CF91FF90EF90DF90CF905B
:102D500008952091410830914208409143085091D4
:102D600044089ACFCF93DF93EC01BC01655F7F4F9E
:102D700048850E948D14882301F1488550E030E099
:102D800020E060E070E0CB0124173507CCF4982FE9
:102D9000872F762F6627EA85E1110AC0FA01E21B28
:102DA000F30BEC0FFD1FE2856E2B2F5F3F4FECCF37
:102DB000FE01E20FF31FE385F7CF6FEF7FEFCB014B
:102DC000DF91CF9108958F929F92AF92BF92CF9251
:102DD000DF92EF92FF920F931F93CF93DF93EC015B
:102DE0004A015B01888199810E94B2162A8101E023
:102DF00010E002C0000F111F2A95E2F701501109DF
:102E0000012E000C220B330BAB81680179010A2ED5
:102E100004C0CC0CDD1CEE1CFF1C0A94D2F7C0943D
:102E2000D094E094F094C622D722E822F922E881D7
:102E3000F981B901A801482159216A217B2104C0E7
:102E4000440F551F661F771FAA95D2F74C295D299D
:102E50006E297F292085CF01DF91CF911F910F919E
:102E6000FF90EF90DF90CF90BF90AF909F908F90AA
:102E70000C94F50ACF93DF93CDB7DEB767970FB603
:102E8000F894DEBF0FBECDBFE1E4F8E024893589B8
:102E9000188A198A1A8A1B8A3A8329831C821B8200
:102EA00091E09A872CE130E038872F831B86998741
:102EB0009E012F5F3F4F3D8B2C8B92E09E8B93E0CA
:102EC0009F8B282F30E0338B228B482F50E070E00F
:102ED00060E0CE0144960E94E31667960FB6F89420
:102EE000DEBF0FBECDBFDF91CF9108958091CE049C
:102EF000883008F088508093EA066091D804709179
:102F0000D904072E000C880B990B0E949530609312
:102F1000EB067093EC068093ED069093EE066091BD
:102F2000DA047091DB04072E000C880B990B0E94C9
:102F300095306093EF067093F0068093F1069093BE
:102F4000F2068091D1040E943A170C942116EF9258
:102F5000FF920F931F93CF93DF93CDB7DEB7C1548A
:102F6000D1090FB6F894DEBF0FBECDBF81E4E82EC5
:102F700088E0F82EF701848995891EAA1FAA18AE49
:102F800019AE98A78FA31AA619A611E018AB89E16C
:102F900090E09EA78DA719AA1FA720E040E050E06F
:102FA000BA01CE0187960E94F50AF70184899589B6
:102FB0001BA21CA21DA21EA29D8B8C8B1F8A1E8A87
:102FC0001D8F8AE190E09B8F8A8F1E8E1C8FCE0111
:102FD00044969FAF8EAF03E021960FAF21972296C4
:102FE0001FAE229746E050E060E070E08A960E94B3
:102FF000E316F70184899589188A198A1A8A1B8A27
:103000009A8389831C821B821A878CE190E09887BF
:103010008F831B861987CE0101969BAF8AAF0CAFB9
:103020001DAE44E050E060E070E0C9960E94E316F7
:10303000CF5BDF4F0FB6F894DEBF0FBECDBFDF9181
:10304000CF911F910F91FF90EF900895EF92FF9213
:103050000F931F93CF93DF93CDB7DEB7ED970FB6E6
:10306000F894DEBF0FBECDBF8091550890915608F1
:10307000009711F00E94EA3264E670E080E090E090
:103080000E94EB0586E090E00E944E328C0188E6BB
:10309000F801808388E198E092838183138280E243
:1030A00090E09583848310935608009355080E94FE
:1030B000D708FF24F394F801F382C8010E94B10BF2
:1030C000E82E882309F49AC08091550890915608FB
:1030D0001EAA1FAA18AE19AE98A78FA31AA619A6E2
:1030E000F8AA2BE630E03EA72DA719AAFFA61BA23F
:1030F0001CA21DA21EA29D8B8C8B1F8A1E8AFD8E78
:1031000088E690E09B8F8A8F1E8EFC8ECE0187967C
:103110009BAF8AAFFCAE87E08DAF41E050E060E04E
:1031200070E0CE01CA960E94E31601E010E08AAD7D
:103130009BAD0E94B216AB01BC018CAD980102C0E0
:10314000220F331F8A95E2F7C9010197092E000C5F
:10315000AA0BBB0B2DAD04C0769567955795479587
:103160002A95D2F784239523A623B7230197A10597
:10317000B10539F461E070E080E090E00E94EB0579
:10318000D6CF64E670E080E090E00E94EB0520E09E
:1031900047E050E060E070E0CE0144960E94F50AFE
:1031A00064E670E080E090E00E94EB050E94A717C3
:1031B00080E00E943A178091550890915608188A2D
:1031C000198A1A8A1B8A9A8389831C821B8281E04E
:1031D0008A872BE630E038872F831B86898720E09B
:1031E00041E050E060E070E0CE0101960E94F50AF7
:1031F00064E670E080E090E00E94EB058E2DED9695
:103200000FB6F894DEBF0FBECDBFDF91CF911F91F7
:103210000F91FF90EF9008958F929F92AF92BF927F
:10322000CF92DF92EF92FF921F93CF93DF93EC0147
:103230006A017B0120E030E040E85FE3CB01B601AA
:103240000E94E62F87FDA3C020E030EC4AE555E45C
:10325000C701B6010E949D3118163CF4C12C30EC18
:10326000D32E3AE5E32E35E4F32E6B817C818D81FC
:103270009E810E9493304B015C0120E030E040E8E9
:1032800055E4C701B6010E94A2319B01AC01C50102
:10329000B4010E94EB2F20E030E040E05FE30E94A9
:1032A0007A2F20E030E040E85FE30E94792F6B0145
:1032B0007C0120E030E040E450E40E94E62F87FDEE
:1032C0006DC020E030E04FE753E4C701B6010E9433
:1032D0009D31181634F4C12CD12C9FE7E92E93E4CC
:1032E000F92E89819A81288131E03093B1022093AF
:1032F000D3021092B2021092D402DC01ED91FC9143
:103300000190F081E02D60E0099581E00E94E709DD
:1033100041E061E088810E940F091092B002809321
:10332000AF0289819A81DC01ED91FC910284F385E1
:10333000E02D0995182F482F4F76406160E0CE01AF
:103340000E94D60BC701B6010E946430462F6EEF73
:10335000CE010E94D60B412F60E0CE010E94D60B19
:1033600065E070E080E090E00E94EB05412F406A4C
:1033700060E0CE01DF91CF911F91FF90EF90DF9041
:10338000CF90BF90AF909F908F900C94D60BC12C94
:10339000D12C20E8E22E2FE3F22E67CFC12CD12CC6
:1033A00080E4E82EFE2C9DCFCF93DF93EC010E94AA
:1033B000D70840E860E0CE010E94D60B6AE070E0DA
:1033C00080E090E00E94EB0540E050E06AE774E4A2
:1033D000CE010E940C1980E498E7ADE7B1E08B8341
:1033E0009C83AD83BE83DF91CF910895CF93DF930C
:1033F000EB010E94002F8883CE01DF91CF910895C9
:103400000F931F93CF938C010E94002FC82FC801E8
:1034100001960E94002F2C2F30E0322F2227820F9E
:10342000932F911DCF911F910F910895CF93DF930B
:10343000EB010E94002F8883CE01DF91CF91089588
:1034400085ED8093BC0080911D0390911E03A09197
:103450001F03B09120030796A11DB11D23E0B6956F
:10346000A795979587952A95D1F72091BC0024FDC3
:1034700003C010921B03089540911D0350911E0339
:1034800060911F0370912003452B462B472B69F356
:103490000097A105B10541F025E32A95F1F7000059
:1034A0000197A109B109E1CF80911C030C94EE08AA
:1034B0000C94082F1F93CF93DF93EC01162F672FE7
:1034C0000E94581A612FCE010196DF91CF911F9172
:1034D0000C94581AEF92FF920F931F93CF93DF93A0
:1034E00084ECE82E83E0F82E02E414E0D0E0C0E0A3
:1034F000F70161917F01CE010E94581AF70166AD74
:10350000CE018C599F4F0E94581AF80161918F018A
:10351000CE0188539F4F0E94581AF80166ADCE0124
:10352000845D9E4F0E94581A2196CF33D10501F732
:103530006091C0047091C10481E991E00E945A1A1F
:103540006091C2047091C30483E991E00E945A1A09
:103550006091C4047091C50485E991E00E945A1AF3
:1035600006EC14E0C7E9D1E0F80161918F01CE01CA
:103570000E94581A2196CB39F1E0DF07A9F70AEC2F
:1035800014E0C1EAD1E0F80161918F01CE010E94FF
:10359000581A2196C53AF1E0DF07A9F76091CE04E9
:1035A0008AEA91E00E94581A6091D0048BEA91E077
:1035B0000E94581A6091D10482EC91E00E94581A3E
:1035C0006091D2047091D30484EC91E00E945A1A65
:1035D0006091DC0486EC91E00E94581A6091D4045A
:1035E0007091D50487EC91E00E945A1A6091D8043A
:1035F0007091D90489EC91E00E945A1A6091DD041F
:103600008BEC91E00E94581A6091DE048CEC91E002
:103610000E94581A6091DF048DEC91E00E94581AC4
:103620006091E0048EEC91E00E94581A6091E104F0
:103630008FEC91E00E94581A6091210580ED91E095
:103640000E94581A6091220581ED91E00E94581A5B
:103650006091230582ED91E00E94581A6091240543
:1036600083ED91E00E94581A6091D6047091D704BE
:1036700084ED91E00E945A1A6091DA047091DB04A3
:1036800086ED91E00E945A1A05EE14E0C4EFD1E0F5
:10369000F80161918F01CE010E94581A2196C43120
:1036A000F2E0DF07A9F705E015E0F80161918F016D
:1036B000CE010E94581A2196CC32F2E0DF07A9F71A
:1036C00060911D0584E392E00E94581A60912505DF
:1036D00085E392E00E94581A6091260586E392E005
:1036E0000E94581A6091270587E392E00E94581AB9
:1036F00065E688EE93E0DF91CF911F910F91FF90E7
:10370000EF900C94581A1F920F920FB60F9211243B
:103710008F939F938091E1009091E100937F90932C
:10372000E10083FF0FC01092E90091E09093EB005D
:103730001092EC0092E39093ED001092AA0298E0B0
:103740009093F00082FF22C093E09093E900909163
:10375000F200992319F09AE39093E8009091A50262
:10376000992341F09091A50291509093A502911157
:1037700001C05D9A9091A902992341F09091A9020C
:1037800091509093A902911101C0289A84FF18C00A
:103790008091E2008E7E81608093E2008091E10062
:1037A0008F7E8093E1008091A8028E7E806180935D
:1037B000A8029F918F910F900FBE0F901F901895A8
:1037C00080FFF7CF8091E2008E7E80618093E200DF
:1037D0008091E1008E7E8093E1008091A8028E7E30
:1037E0008160E5CF1F920F920FB60F921124CF92F6
:1037F000DF92EF92FF920F931F932F933F934F937C
:103800005F936F937F938F939F93AF93BF93EF9348
:10381000FF93CF93DF93CDB7DEB76C97DEBFCDBFFD
:103820001092E9008091E80083FF25C068E0CE0196
:1038300045960E94B60382EF8093E8008D8987FF4A
:1038400039C09091E80090FFFCCF982F907609F056
:1038500034C19E894F89588D2F89F88C911131C0C0
:10386000803861F58091A6028093F1001092F100FA
:103870008EEF8093E8006C960FB6F894DEBF0FBE13
:10388000CDBFDF91CF91FF91EF91BF91AF919F910C
:103890008F917F916F915F914F913F912F911F91E8
:1038A0000F91FF90EF90DF90CF900F900FBE0F9091
:1038B0001F9018959EEF9093E800C7CF1092F100EB
:1038C000D5CF913059F48111D3CF4130510581F6D4
:1038D0008091A6028D7F8093A602CACF933049F4CF
:1038E0008111C6CF4130510519F68091A602826040
:1038F000F2CF953041F48091E80080FFFCCF206842
:103900002093E300B5CF963009F0A9C00B8D1C8D34
:1039100022E01092E9001092A3021092A202F21289
:103920002EC01092A1021092A0020E9437041F82A2
:1039300099E09983FA8291E09E8390EA98879AEFC2
:1039400099872091A2023091A302275F3F4F3C83C9
:103950002B838D831092E9001092A3021092A20291
:103960001093A1020093A00249E050E0BE016F5FF6
:103970007F4F80E00E947F030E94370479CF10932D
:10398000A1020093A0020E942304DC0112960D9173
:103990001C910115110509F44BC1D801ED91FC9161
:1039A0000480F581E02DBE016B5E7F4FC801099553
:1039B000009709F038C1F80100851185EACFF3E0DE
:1039C000FF120EC08F89882309F440C0823061F451
:1039D00040E860E182ED93E00E944C03811148CF02
:1039E00081E28093EB0047CF813029F440E867E023
:1039F0008AEC93E0F1CF833099F70E942304DC0135
:103A00001296ED90FC908E010F5F1F4F6801E1143C
:103A1000F10479F0D701ED91FC910680F781E02D5A
:103A2000B801C7010995080F111DF701E084F18461
:103A3000EECFD8011C92F60101900020E9F73197F2
:103A4000BF016C197D0940E0C601C6CF64EB73E08D
:103A5000FB01449150E080E80E947F0309CF97303A
:103A600009F4BECF983021F481E08093F10000CFBB
:103A7000993009F0FDCE837009F0B2CFE1E0F1E0BA
:103A800081E031E096E32191222371F08093E900F7
:103A90003093EB00DF0111972C912093EC00909371
:103AA000ED008F5F873079F78EE78093EA00109200
:103AB000EA008F898093AA02DBCE8B8D9C8D1092B9
:103AC000E9001092A3021092A2029093A1028093A7
:103AD000A002898D81118CC08E899D89913A49F40B
:103AE000813209F07DCF47E050E06BE071E080E08B
:103AF000B3CF913209F074CF833269F48F89988DF6
:103B0000B0E0A0E08093070190930801A093090121
:103B1000B0930A01ADCE803239F467E070E08BE0FB
:103B200091E00E94C303A4CE823209F0A1CE8F8916
:103B300080931201EEEFFFE7859194918B3F9C4DAE
:103B400051F1E0E0F8E080910B0190910C01A0911F
:103B50000D01B0910E01803B9440A105B105F1F437
:103B60008091120180FD1AC0EE3F8AE0F80789F5C6
:103B700087E797E791838083809160008093A40218
:103B800088E19BE00FB6F894A895809360000FBE83
:103B9000909360006DCEEEEFFAE0D5CF80819181F9
:103BA0008737974709F064CEA895809160008861B7
:103BB000809360008091A40280936000EE3F2AE031
:103BC000F20789F08091FE0A9091FF0A9183808329
:103BD0004FCE808191818737980751F29093FF0AE9
:103BE0008093FE0AC5CF1092FF0A1092FE0A40CEC3
:103BF0000E942304DC0112960D911C910115110500
:103C000009F4EECED801ED91FC910190F081E02D08
:103C1000BE016B5E7F4FC8010995811129CEF80165
:103C200000851185EBCF181619060CF421CED8CEDD
:103C3000F1E0FF12C4CE68EB73E00ACF1F920F923F
:103C40000FB60F9211242F933F938F939F93AF93AF
:103C5000BF9380918C0290918D02A0918E02B091C1
:103C60008F0230918B0223E0230F2D3758F50196F8
:103C7000A11DB11D20938B0280938C0290938D0225
:103C8000A0938E02B0938F02809190029091910246
:103C9000A0919202B09193020196A11DB11D809353
:103CA000900290939102A0939202B0939302BF91DD
:103CB000AF919F918F913F912F910F900FBE0F90D9
:103CC0001F90189526E8230F0296A11DB11DD2CF93
:103CD0001F920F920FB60F9211242F933F934F9381
:103CE0005F936F937F938F939F93AF93BF93EF9364
:103CF000FF938091B900887F803609F44AC0F0F5BF
:103D0000883209F4A7C018F5803109F49BC0B8F4D3
:103D1000882309F4F9C0883009F494C0FF91EF9129
:103D2000BF91AF919F918F917F916F915F914F91D3
:103D30003F912F910F900FBE0F901F9018958831D3
:103D400009F488C0803251F78093F90214C080349E
:103D500009F49DC040F48033B9F38833F9F68093B9
:103D6000F90285ECB0C0803509F485C0883509F4C6
:103D700096C0883499F60E94201AD0CF883909F469
:103D80008CC038F5883729F050F4883611F0803728
:103D900029F683E080931B0310928A0257C088386B
:103DA00009F47BC0803919F0803809F0B7CF8091D1
:103DB0008A02803208F071C0E0918A0281E08E0FA1
:103DC00080938A028091BB00F0E0E659FD4F80832A
:103DD0003DC0803B39F0E0F4803A09F479C0883A7C
:103DE00009F09CCF84E080931B031092690210922B
:103DF0006802E091AD02F091AE02099580916802EF
:103E000081110FC081E0809368021092480209C0BE
:103E1000803C09F4A6CF883C09F4A3CF883B09F085
:103E20007DCFE091690281E08E0F80936902F0E01E
:103E3000E85BFD4F80818093BB0090916902809187
:103E4000680229C08091F6028093BB0085EC8093C4
:103E5000BC0064CF9091F8028091F702981758F552
:103E6000E091F80281E08E0F8093F802F0E0EB52CF
:103E7000FD4F8081E9CFE091F80281E08E0F8093C1
:103E8000F8028091BB00F0E0EB52FD4F80839091EF
:103E9000F8028091F7029817C8F285E8D8CFE09130
:103EA000F80281E08E0F8093F8028091BB00F0E071
:103EB000EB52FD4F80838091FA0281115CCF81E04B
:103EC0008093F50284EA8093BC0010921B0326CFF6
:103ED00085EC8093BC0010921B0380918A02803293
:103EE00030F4E0918A02F0E0E659FD4F10826091D3
:103EF0008A0270E0E091AB02F091AC028AE692E0B7
:103F0000099510928A020ACF1092F90234CFCF930A
:103F1000DF93FC01DB01818114963C911497682F9B
:103F2000630F7727771F683071059CF5C281D381B5
:103F3000209739F5B383A283908112969C931297B0
:103F400013968C93139715968C911597890F8083F0
:103F500090E080E0831708F52181C22FD0E0BE01F8
:103F600060507F4F16964D915C911797480F591FDF
:103F7000EA014881EB0148832F5F21830196EACF54
:103F8000EA014885598541155105D1F7B987A887B8
:103F9000D3CF80E0DF91CF91089581E0FBCFCF9325
:103FA000DF93109224031092230388EE93E0A0E0A5
:103FB000B0E08093250390932603A0932703B0934A
:103FC000280327EB31E030932203209321032FEFC6
:103FD0003FEF30932E0320932D0310921B08109275
:103FE0001A0880931C0890931D08A0931E08B09394
:103FF0001F0889EC91E09093190880931808C1E09C
:10400000C0937503C09376038CE893E09093780394
:104010008093770310927A03109279038BED91E0ED
:10402000909372038093710389EE91E090937C03E7
:1040300080937B03C0938D03C0938E03D1ECD09308
:104040008C030E94230461E773E00E94871FC093E2
:104050009303C093940383EA93E090939603809331
:10406000950310929803109297038FEE91E090932E
:10407000900380938F038DEF91E090939A03809348
:104080009903C093A403C093A503D093A3030E94F4
:1040900023046FE873E00E94871FC093AA03C093B4
:1040A000AB038CEB93E09093AD038093AC03109241
:1040B000AF031092AE031092B3031092B20383E0E9
:1040C00092E09093A7038093A60381E192E09093FE
:1040D000B1038093B003C093BD03C093BE0310929D
:1040E000BF031092C1031092C0031092C303109239
:1040F000C203D093BC030E94230466EA73E00E94CB
:10410000871F1092A0071092A1071092AA07109281
:10411000AB071092AC071092AD071092AE07109249
:10412000AF071092B0071092B107E2EBF7E084E618
:10413000DF011D928A95E9F7109216081092170870
:1041400062E087E10E947F0510927D0710927E0752
:10415000EFE7F7E080E2DF011D928A95E9F7109220
:104160009F0761E084E00E947F0561E081E00E949A
:104170007F0560E080E00E947F0561E081E00E94B1
:104180007F051092F4068FE3E9EFF6E0DF01982F48
:104190001D929A95E9F7E8E3F7E0DF01982F1D9269
:1041A0009A95E9F7109277071092780795E0909327
:1041B000790710927A0710927B07C0937C071092C0
:1041C000D7061092D8061092D9061092DA061092ED
:1041D000DB061092DC061092DD061092DE061092CD
:1041E000DF061092E5061092E4061092E7061092A0
:1041F000E6061092E9061092EA061092EB0610927B
:10420000EC061092ED061092EE061092EF06109258
:10421000F0061092F1061092F2061092F306109238
:1042200080062BE232E030938206209381061092C2
:10423000830698EC909384069AEF909385069BEF03
:10424000909386062CEF209387069DEF9093880627
:104250009FEF909389061092950610929406109203
:10426000970610929606E8E9F6E0DF01982F1D9276
:104270009A95E9F7109229059FE090932A05E6E2C6
:10428000F1E0ABE2B5E001900D929A95E1F7EAE337
:10429000F5E0DF011D928A95E9F7E9E7F5E0DF0136
:1042A0001D922A95E9F710927506E6E7F6E08AE096
:1042B000DF011D928A95E9F7C9E2D5E0CE01895266
:1042C0009540219620912A052817190631F02CF0E7
:1042D00061E089810E947F05F1CF8FE3E5E3F1E0A2
:1042E000A4ECB3E001900D928A95E1F78FE3E3E04F
:1042F000F4E0DF01982F1D929A95E9F7E4E7F1E0E9
:10430000A2E4B4E0982F01900D929A95E1F7E1E8CC
:10431000F4E0DF011D928A95E9F78AE493E0909337
:10432000C1048093C0048DE390E09093C304809314
:10433000C2048BEC90E09093C5048093C404109267
:10434000C6041092C7041092C8041092C9041092B7
:10435000CA041092CB041092CC041092CD04109297
:10436000CE041092CF0481E08093D0041092D10447
:104370002EE130E03093D3042093D2042AEF30E0D2
:104380003093D5042093D4043093D7042093D604DB
:1043900028E131E03093D9042093D8043093DB0432
:1043A0002093DA041092DC049AE09093DD042EE06E
:1043B0002093DE0427E12093DF0426E12093E0042C
:1043C00022E02093E1041092E2041092E30480932F
:1043D000E404E5EEF4E020E2DF011D922A95E9F71E
:1043E000E5E0F5E028E1DF011D922A95E9F710925A
:1043F0001D0520E520931E0520931F051092200522
:1044000080932105809322058093230580932405C2
:104410008093250590932605809327051092280503
:1044200080E48093320888E198E090933408809388
:10443000330821E420932B0890932D0880932C08B7
:1044400022E4209324089093260880932508109254
:10445000390810923A0810923B0810923C081092CA
:104460003D0810923E0810923F08109240081092AA
:104470005408109253081092560810925508DF9174
:10448000CF910895CF93DF931F92CDB7DEB7789485
:1044900084B5826084BD84B5816084BD85B5826049
:1044A00085BD85B5816085BD80916E0081608093FA
:1044B0006E00109281008091810082608093810063
:1044C0008091810081608093810080918000816073
:1044D0008093800080919100826080939100809110
:1044E0009100816080939100809190008160809321
:1044F00090008091C10084608093C1008091C100D0
:1045000082608093C1008091C10081608093C1006E
:104510008091C30081608093C3008091C00082605D
:104520008093C0008091C20081608093C20080911E
:104530007A00846080937A0080917A008260809310
:104540007A0080917A00816080937A0080917A006D
:10455000806880937A001092AA021092A6021092AC
:10456000A8028091D70081608093D70080EA809371
:10457000D80089B5806189BD89B5826089BD89B55A
:10458000282F2170A22E80FFFACF61E070E080E03A
:1045900090E00E94EB058091D8008F7C8061809331
:1045A000D8008091E000807F8093E0008091E1005E
:1045B0008E7E8093E1008DE08093E200559A209AF0
:1045C0008FEF9FEF90932E0380932D0368EE73E09F
:1045D00080E090E00E94EB0568EE73E080E090E000
:1045E0000E94EB05EDE7F3E08FE0DF011D928A9575
:1045F000E9F74FE050E0BF0181E793E00E948F2E82
:10460000BE016F5F7F4F88EE93E00E94161A89818A
:10461000853609F079C210E000E0B8016C537C4F98
:10462000C8010E94161AB8016D5F7B4FC8018C59F2
:104630009F4F0E94161AB8016E5B7B4FC8018853CA
:104640009F4F0E94161AB8016F577B4FC801845DB7
:104650009E4F0E94161A0F5F1F4F0F331105E9F688
:1046600081E991E00E94001A9093C1048093C004F4
:1046700083E991E00E94001A9093C3048093C204DE
:1046800085E991E00E94001A9093C5048093C404C8
:1046900066EC74E087E991E00E94161A6AEC74E017
:1046A00081EA91E00E94161A67EC74E088E991E0D3
:1046B0000E94161A6BEC74E082EA91E00E94161ACE
:1046C00068EC74E089E991E00E94161A6CEC74E0E1
:1046D00083EA91E00E94161A69EC74E08AE991E09D
:1046E0000E94161A6DEC74E084EA91E00E94161A9A
:1046F0006EEC74E08AEA91E00E94161A60ED74E0B4
:104700008BEA91E00E94161A8091D0048093CF0426
:1047100061ED74E082EC91E00E94161A84EC91E065
:104720000E94001A9093D3048093D2046CED74E03D
:1047300086EC91E00E94161A87EC91E00E94001A24
:104740009093D5048093D40489EC91E00E94001AE0
:104750009093D9048093D8046DED74E08BEC91E0D4
:104760000E94161A6EED74E08CEC91E00E94161A0D
:104770006FED74E08DEC91E00E94161A60EE74E02B
:104780008EEC91E00E94161A61EE74E08FEC91E0DD
:104790000E94161A61E275E080ED91E00E94F61920
:1047A00062E275E081ED91E00E94F61963E275E046
:1047B00082ED91E00E94F61964E275E083ED91E0EC
:1047C0000E94F61984ED91E00E94001A9093D7049C
:1047D0008093D60486ED91E00E94001A9093DB044A
:1047E0008093DA0404EF11E0B8016F507D4FC801E7
:1047F0000E94161A0F5F1F4F0431B2E01B07A1F78A
:10480000B8016F507D4FC8010E94161A0F5F1F4FED
:104810000C32E2E01E07A1F76DE175E084E392E05F
:104820000E94161A65E275E085E392E00E94F6198F
:1048300066E275E086E392E00E94161A67E275E090
:1048400087E392E00E94F61982E398E00E94D4196F
:1048500050ECC52E5CEFD52E5BE9E52EFF24F394DA
:10486000C0923508D0923608E0923708F0923808A6
:1048700040E050E064EB72E482E398E00E940C199F
:104880008BE298E00E94D419C0922E08D0922F0893
:10489000E0923008F092310840E050E064EB72E4BE
:1048A0008BE298E00E940C1984E298E00E94D419EF
:1048B000C0922708D0922808E0922908F0922A088E
:1048C00040E050E064EB72E484E298E00E940C194E
:1048D0008CE08093B8001092A70288EB9BE0A0E0E8
:1048E000B0E080931D0390931E03A0931F03B09329
:1048F000200381E080931C0310E060E0812F0E9480
:10490000570D1F5F1E33C9F780EB93E00E9488119B
:1049100080EB93E00E94A12EEBE9F3E088E0DF0159
:104920001D928A95E9F748E050E0BF0189E993E0DC
:104930000E941A0F0E94C502909177073091780764
:10494000E4ECF3E08A2D21912250223030F42FEF55
:10495000280F911101C0922F382F8F5F8F3399F755
:1049600030937807909377078091D0048823E1F003
:104970000E942618811106C068EE73E080E090E086
:104980000E94EB0510E00E9426188111C2C064E667
:1049900070E080E090E00E94EB051B3009F0B7C0AA
:1049A0001092D0041092CF0422242A944FE7342E80
:1049B00080913D0890913E08A0913F08B091400839
:1049C0008093390890933A08A0933B08B0933C0831
:1049D00061E081E00E94510560E084E00E945105A1
:1049E00061E084E00E94510560E081E00E94510591
:1049F00027E1E22EF12C412C512C320131EFC32E54
:104A000033E0D32EEFE7F4E08491E0E1F4E00491A9
:104A1000F6011491112309F484C081110E94050547
:104A2000E12FF0E0EE0FFF1FED51FC4FA591B49187
:104A30008C91082331E020E009F430E0832F922F9D
:104A4000092E000CAA0BBB0B0E2C04C0880F991F5B
:104A5000AA1FBB1F0A94D2F7482A592A6A2A7B2A1E
:104A600061E081E00E94510560E081E00E94510513
:104A7000F1E0EF1AF10808F0C5CF40923D085092DE
:104A80003E0860923F0870924008809139089091EA
:104A90003A08A0913B08B0913C0884159505A605FD
:104AA000B70529F480919F07882309F457C0BDE713
:104AB000EB2EB7E0FB2E10E000E082E0D82E802F36
:104AC00040903D0850903E0860903F08709040082C
:104AD000002E04C076946794579447940A94D2F7B2
:104AE000B301A2014095509560957095642F617057
:104AF000D70112969C916917E1F040FE15C0B2E013
:104B0000DB1213C0D12C11C00E946A1A9DCE1F5F08
:104B10003ACF1B3009F448CF0E94A7170E9476179E
:104B200043CF90E080E08CCFDA2C0E945C12F7013A
:104B300082830F5F1F4FFFEFEF1AFF0A0831110545
:104B400009F0BDCF21E0D212B1C08091E4048330DE
:104B500011F0863019F484E08093E4048091A80277
:104B6000382F3170B32E80FD9FC5809125058111AE
:104B7000A6C0109289038091CF04882309F4A6C3AC
:104B800090911E0580911F05981721F080912105B5
:104B900081119CC38091E404863009F0BCC28091ED
:104BA000E906811105C00E94211681E08093E90683
:104BB0000E9452158091CE042091D8063091D906DA
:104BC0004091DA065091DB06883008F4A7C2609164
:104BD000490870914A0880914B0890914C080E94B6
:104BE000792F20E030E048EC52E40E94A2310E948C
:104BF000D0300E945D307093E1066093E006209112
:104C0000DC063091DD064091DE065091DF066091B2
:104C100045087091460880914708909148080E9485
:104C2000792F20E030E048EC52E40E94A2310E944B
:104C3000D0300E945D307093E3066093E2062091CD
:104C4000D2043091D3044091E0065091E10657FF21
:104C500003C05195419551094217530724F410920E
:104C6000E1061092E006AB0177FF04C04427552708
:104C7000461B570B4217530724F41092E306109279
:104C8000E2068091E0069091E1062091EA0621304B
:104C900009F04DC22091E2063091E306319521954D
:104CA00031093093E1062093E0065CC2D11056CF63
:104CB0008091E404873009F051CF82E04DCFA5E028
:104CC0008A2E912C412C512C320110E000E00E94E0
:104CD0007C024091AE075091AF076091B007709190
:104CE000B1076C01990FEE08FF08DB01CA010996B4
:104CF000A11DB11D8C159D05AE05BF057CF0495069
:104D0000510961097109C416D506E606F70634F0A3
:104D10000F5F1F4F4C0C5D1C6E1C7F1C41E0841A02
:104D20009108A9F60115110551F09801110F440BD6
:104D3000550BC301B2010E94162F69017A019091AF
:104D40001E0580911F05981720F080912305811181
:104D500021C010E000E02091DD0430E002171307CD
:104D60006CF40E947C02092E000CAA0BBB0BC80E2F
:104D7000D91EEA1EFB1E0F5F1F4FEDCF2F5F3F4F67
:104D8000032E000C440B550BC701B6010E94162FD1
:104D900069017A01C092AE07D092AF07E092B007E6
:104DA000F092B1078091C4049091C504AC014E5CAF
:104DB0005F4F052E000C660B770BC416D506E60672
:104DC000F70654F4C297092E000CAA0BBB0B8C15E6
:104DD0009D05AE05BF0544F05FEDC51653E0D50651
:104DE000E104F1040CF4E3C080911E0590911F05CD
:104DF000891718F48F5F80931E058091DC048D7FE6
:104E00008130A1F48091A8078111D4C08091C004A1
:104E10009091C1044497092E000CAA0BBB0B61E0D2
:104E2000C816D906EA06FB060CF0D7C08091DC0450
:104E30008230A0F08091A9078111D6C08091C20470
:104E40009091C3040A96092E000CAA0BBB0B61E0DB
:104E50008C159D05AE05BF050CF0D9C00091C404AA
:104E60001091C504C801012E000CAA0BBB0B8C15B8
:104E70009D05AE05BF050CF4D8C08090C20490908B
:104E8000C304C401092C000CAA0BBB0BA70196019B
:104E9000281B390B4A0B5B0BCA01B9010E949530E4
:104EA0006B017C01B80168197909072E000C880B89
:104EB000990B0E9495309B01AC01C701B6010E947D
:104EC000EB2F9B01AC0160E070E080E89FE30E9463
:104ED000792F20E030E040E053EC0E94A2310E94A4
:104EE0005D30062E000C770B653671050CF096C010
:104EF0007093A7076093A6078091A607909122055B
:104F0000992389F030911E0520911F059091A007EB
:104F10003213BCC0992309F4DBC01092A00781E0D2
:104F20008093200580E0482F082E000C550B660B5F
:104F3000770B2091A6073091A707C090AA07D090C1
:104F4000AB07E090AC07F090AD07C416D506E606B7
:104F5000F706E9F0E0911E0590911F05E91708F0AA
:104F6000C4C01216130634F49091A007911102C028
:104F70008093170891E090932005809389034093D4
:104F8000AA075093AB076093AC077093AD0780916D
:104F90001608E82FEE0FFF0BEE54F84F31832083F5
:104FA00081330CF0B5C08F5F80931608E4CD10926A
:104FB0001E0523CF813009F039CF8091C004909134
:104FC000C1044497092E000CAA0BBB0BC816D906C6
:104FD000EA06FB060CF02ACF60E08091DF040E9415
:104FE0005C128093A80722CF813009F037CF8091DF
:104FF000C2049091C3040A96092E000CAA0BBB0BA5
:105000008C159D05AE05BF050CF028CF60E08091A2
:10501000DF040E945C128093A90720CF81E89FEFF4
:105020009093A7078093A60767CFA7019601281B37
:10503000390B4A0B5B0BCA01B9010E9495306B0119
:105040007C016091C0047091C104601B710B072E3C
:10505000000C880B990B0E9495309B01AC01C70195
:10506000B6010E94EB2F20E030E040E053E40E94C4
:10507000A2310E945D30062E000C770B6C393FEF99
:1050800073070CF035CF8FE790E0CACF87FF13C0CE
:10509000321788F48091170818166CF44091AE0707
:1050A0005091AF076091B0077091B107433351053C
:1050B0006105710514F4992359F08091DF0461E0D2
:1050C000911160E00E945C1281E08093A0072ACFDA
:1050D000E09116088091B207E13309F424CFEE0F76
:1050E000FF0BEC54F84F80811ECFE91350CF109284
:1050F00017081092A00790912305992319F0109298
:1051000089033DCF8093890381E08093200537CFC9
:105110001092160830CD1092E9064ACD60914108F0
:1051200070914208809143089091440858CD2230F4
:1051300061F49195819591099093E1068093E00641
:105140008091E2069091E3060AC0233081F4209119
:10515000E2063091E3063093E1062093E006919554
:10516000819591099093E3068093E20609C024306B
:1051700079F49195819591099093E1068093E006E9
:105180008091F3068823B9F081508093F30640C0E4
:10519000253041F42091E2063091E30631952195C6
:1051A0003109D9CF263061F2273051F72091E2063C
:1051B0003091E30676CD3091E0062091E1068091B2
:1051C000E806811114C1832F922F97FF03C0919598
:1051D000819591092091D4043091D504281739077D
:1051E00084F08091E2069091E30697FF03C09195C9
:1051F000819591092091D6043091D7042817390759
:105200003CF461E08091E0040E945C128093E80627
:105210000091E0061091E1068091E4069091E50688
:105220008017910721F1B801012E000C880B990B12
:105230000E9495302091EB063091EC064091ED06EE
:105240005091EE060E94EB2F20E03EEF4FEF56E428
:105250000E94A2310E945D307093820360938103AB
:105260001093E5060093E40681E080932005009109
:10527000E2061091E3068091E6069091E70680171A
:10528000910721F1B801012E000C880B990B0E94A7
:1052900095302091EF063091F0064091F106509143
:1052A000F2060E94EB2F20E03EEF4FEF56E40E9403
:1052B000A2310E945D307093840360938303109346
:1052C000E7060093E60681E0809320050E94CD0664
:1052D0002B013C018091E404833009F414C108F0EF
:1052E000B3C0813009F4F2C0823009F4FBC0809170
:1052F0002005882321F00E94840E109220050E9430
:10530000CD066B017C0105E010E0F4E69F2E809154
:1053100075068E3308F092C18F5F80937506809179
:105320007506282F30E0F901EC53FC4F67ADD90129
:10533000A75DBA4F51969C91691730F5E354FF4F22
:105340009081992309F1220F331F220F331FF90196
:10535000E758FA4F4080518062807380A701960120
:10536000241935094609570929013A01999D9001E7
:105370001124032E000C440B550B421653066406F1
:10538000750614F00E94570D0150110909F0BFCFA6
:1053900049E0E42EF12C8824839457E0952E61E8AF
:1053A000762E7FE7672E81E293E00E94EB04892B43
:1053B00009F45AC181E293E00E94A9042091940665
:1053C00030919506F901E058F94F82872115310592
:1053D00009F037C190918A068091830698133BC1EA
:1053E0002F5F3F4F309395062093940638C181304C
:1053F00009F00ECF832F922F97FF03C091958195CF
:1054000091092091D4043091D504821793070CF0B0
:10541000FFCE8091E2069091E30697FF03C091953D
:10542000819591092091D6043091D7048217930772
:105430000CF0EECE60E08091E0040E945C1280935C
:10544000E80680912605A1CE853009F4D1C008F484
:10545000B0C0863009F04BCF0E94FF0200917A075E
:1054600010E0C8018C50994F7C01DD24D3948091C9
:105470007B078017110609F00CF492C0F801EC5379
:10548000FC4F808182508230D8F4F701EC5BFF4FF3
:10549000D70115968C91909179072081213009F0E0
:1054A000C7C02FEF30E0291B3109821713060CF417
:1054B000BBC01082D70115966C91802F0E94570DAA
:1054C0000F5F1F4FBFEFEB1AFB0AD1CF4092F506DB
:1054D0005092F6066092F7067092F80685E0809387
:1054E000E40405CF0E94DF0D80917C07882309F436
:1054F000FECE4092F5065092F6066092F706709244
:10550000F80683E0ECCF8091F5069091F606A09125
:10551000F706B091F806A3019201281B390B4A0B3C
:105520005B0BDA01C90181329E44A105B1050CF47F
:10553000DECE80912705882309F4D9CE0E94FF0290
:1055400000917A0710E080917B078017110601F126
:10555000FCF0F801EC53FC4F808182508230A8F4BB
:105560000E94F02E60E071E00E942032F82E682F39
:10557000802F0E94570DF801EC50F94FDF01AC5B12
:10558000BF4F8F2D81708C93F5820F5F1F4FDBCF44
:1055900080917C07882309F4AACE86E08093E404F6
:1055A0004092F5065092F6066092F7067092F80661
:1055B0009ECE0E94FF0200917A0710E080917B0747
:1055C0008017110671F06CF0F801EC53FC4F8081EC
:1055D000823021F46FEF802F0E94570D0F5F1F4F15
:1055E000EDCF80917C07882309F481CE87E0D6CF68
:1055F0008091F5069091F606A091F706B091F80615
:10560000481A590A6A0A7B0A41E1441647E25406DD
:10561000610471040CF46BCE0E94DF0D80917C0755
:10562000882309F464CE6DCF890FF701858342CFBB
:10563000981710F0D0823ECF891BF7CF10927506D5
:105640006ECE21303105C1F590918B068091840694
:10565000981708F0C5CE109295061092940621E096
:10566000E21AF10809F09FCE809196069091970674
:1056700018161906CCF462E370E080E090E00E9416
:10568000EB0580919606909197068530910509F477
:10569000C0C10CF036C18230910509F481C10CF013
:1056A000DBC0019709F45BC180E090E0892B09F42D
:1056B0007FC90E9400007CC92830310509F090CED6
:1056C00080918B069091850689130AC01092E4049C
:1056D00080918C0690E09093970680939606BBCFBE
:1056E0009091860689130AC0809181069091820666
:1056F000009709F4B0CF0E940C13ADCF90918706AC
:10570000891307C060918D0680918C060E94570D09
:10571000A2CF90918806891351C080918C068E315A
:10572000F1F1A8F48C31D9F08D31A1F161E00E9442
:105730005C120E94840E64EF71E080E090E00E94B1
:10574000EB0560E080918C060E945C120EC08032F6
:1057500091F160F1813251F76092890306C041E016
:1057600050E850938203409381030E94840E64EFBB
:1057700071E080E090E00E94EB05109282031092AD
:1057800081031092840310928303109289030E9474
:10579000840E61CF3092820320928103E6CF81E0B4
:1057A00090E89093840380938303DFCF3092840347
:1057B00020928303DACF70928903D7CF8091E404DB
:1057C0008530B9F00091770710E080917807801755
:1057D000110679F074F0F801EC53FC4F808182508F
:1057E000823020F460E0802F0E94570D0F5F1F4F22
:1057F000ECCF8092E40480918B0690918406582E21
:10580000591A599C502C1124891B990B989E800180
:10581000999E100D11240058194F20E8C22E26E041
:10582000D22E37E0432E450CD6011C966C91F80120
:10583000808D861741F0852D0E94570DD6011C964C
:105840008C91F801808F0F5F1F4FFFEFCF1ADF0A97
:1058500053944510E9CFFFCE8330910509F4C5C0BC
:10586000049709F021CF8EE494E00E947E04809199
:10587000CE042091D8063091D9064091DA06509195
:10588000DB06883008F4BCC06091490870914A0872
:1058900080914B0890914C080E94792F42E00E9421
:1058A00093138CE494E00E947E042091DC063091F6
:1058B000DD064091DE065091DF066091450870914B
:1058C000460880914708909148080E94792F42E04D
:1058D0000E9493138AE494E00E947E048091E00683
:1058E0009091E1060E945D1388E494E00E947E049A
:1058F0008091E2069091E3060E945D1385E494E0B6
:105900004CC08B30910509F4FCC18CF486309105B4
:1059100009F424C1089709F0C7CE809181069091BF
:105920008206009709F4E3C10E940C13E0C18C3099
:10593000910509F4E9C18F3F910509F0B5CE1092A8
:1059400097061092960681E08093E40460E08B2D28
:105950000E94570DB394FEE3BF12F8CFA5CE84E3A7
:1059600094E00E947E049FE7E92E97E0F92E0EE96D
:1059700017E0D7018D917D0190E00E945D1382E3D5
:1059800094E00E947E040E151F0599F780919607FA
:1059900090E00E945D138FE294E00E947E0484CE2A
:1059A0008CE394E00E947E048AE3E82E85E0F82EE2
:1059B00008E715E0F70161917F0170E090E080E079
:1059C0004AE00E9419138AE394E00E947E040E15B7
:1059D0001F0581F76091780570E090E080E04AE073
:1059E0000E94191387E394E0D8CF82E494E00E94E8
:1059F0007E040E947C020E945D138FE394E0CDCF71
:105A00006091410870914208809143089091440848
:105A100043CF85E594E00E947E046FE384EC93E03D
:105A20000E947A146FE383E094E00E947A146FE39B
:105A300082E494E00E947A146FE381E894E00E948B
:105A40007A148091C0049091C1040E948D138091BA
:105A5000C2049091C3040E948D138091C40490915C
:105A6000C5040E948D1364E086EC94E00E947A14D1
:105A700064E08AEC94E00E947A148091CE040E9443
:105A80006F148091D0040E946F148091D1040E9401
:105A90006F148091D2049091D3040E948D13809151
:105AA000DC040E946F148091D4049091D5040E946C
:105AB0008D138091D8049091D9040E948D13809108
:105AC000DD040E946F148091DE040E946F148091A7
:105AD000DF040E946F148091E0040E946F14809193
