:100000000C945D010C9485010C9485010C94850180
:100010000C9485010C9485010C9485010C94850148
:100020000C9485010C9485010C94F3160C945817CC
:100030000C9485010C9485010C9485010C94850128
:100040000C9485010C9485010C9485010C94850118
:100050000C9485010C9485010C9485010C946C180A
:100060000C9485010C9485010C9485010C948501F8
:100070000C9485010C9485010C9485010C948501E8
:100080000C9485010C9485010C9485010C948501D8
:100090000C94B6180C9485010C9485010C94850180
:1000A0000C9485010C9485010C94850100000000DE
:1000B000240027002A002D00300000000000250049
:1000C00028002B002E00310009029900040100A035
:1000D000FA0904000002FF5D010011210001012561
:1000E00081140000000013020800000705810320AE
:1000F0000004070502032000080904010004FF5D55
:1001000003001B210001010183400104201685002A
:100110000000000000160500000000000007058335
:1001200003200002070504032000040705850320BF
:100130000040070505032000100904020001FF5DCF
:10014000020009210001012286070007058603201D
:1001500000100904030000FFFD1304064100010123
:10016000030403090412010002FFFFFF405E048E36
:100170000214010102030158626F78205365637510
:1001800072697479204D6574686F6420332C205631
:10019000657273696F6E20312E30302C20A92032A9
:1001A000303035204D6963726F736F667420436F12
:1001B00072706F726174696F6E2E20416C6C207268
:1001C00069676874732072657365727665642E0062
:1001D000436C6576536F66742058496E7075742051
:1001E0004156520030783065386600436C6576536E
:1001F0006F6674205820496E70757400000000000E
:100200002300260029002C002F000404040404030A
:1002100004050202020204030202020206060606A6
:1002200006060404020202040404080201104080CD
:1002300040102040804080080204018040201002CD
:1002400001108010204040200D0A002C00422C009C
:100250000D0A002C004F2C000D0A00502C000D0A36
:10026000002C002C002C00412C00450D0A00432CD2
:1002700000522C530D0A00522C450D0A00562C3109
:100280002E31372E300D0A002C002C0007060504F5
:100290000100080A0B0C0D090000000200090F0004
:1002A00000030401000C000000000000000000003A
:1002B0000000000000000000D51911241FBECFEF80
:1002C000DAE0DEBFCDBF12E0A0E0B1E0EEEEFBE58C
:1002D00002C005900D92A635B107D9F728E0A6E532
:1002E000B2E001C01D92AB30B207E1F711E0CDE5FD
:1002F000D1E004C02197FE010E94B62CCC35D10775
:10030000C9F70E94551C0C94F52D0C940000803107
:1003100081F028F48F3051F090E080E00895813131
:1003200059F08231C9F78CE693E0089584E593E0B3
:1003300008958CE593E0089584E693E00895089588
:10034000089581E090E008959C0190E080E0F9013B
:10035000E80FF91FE491EE2311F00196F8CF08950C
:10036000CA010895E1E9F2E0E49190917B008E2FBB
:10037000880F880F80729F7D892B80937B00E770A8
:10038000E064E0937C0080917A00806480937A003E
:1003900080917A0086FDFCCF809178009091790061
:1003A0000895CF92DF92EF92FF92CF93DF93C091A7
:1003B0007404D09175048091720490917304BE010D
:1003C000681B790B072E000C880B990B0E94072BDA
:1003D0006B017C0160917004709171046C1B7D0B4A
:1003E000072E000C880B990B0E94072B9B01AC0178
:1003F000C701B6010E945D2A6093520770935307AC
:100400008093540790935507DF91CF91FF90EF9021
:10041000DF90CF90089580912C078823A9F08091D8
:10042000270780932A0710922C0780912A078B5F59
:1004300080932B0790912807891728F090932B071A
:1004400081E080932C07089580912A078B5F809329
:100450002A07EBCF0F931F93CF93DF93CDB7DEB770
:1004600028970FB6F894DEBF0FBECDBF8091B902BA
:100470000FEF1FEF8823B9F12FB7F89482E0809334
:10048000E9008091F200082F10E00930110514F006
:1004900008E010E0902FFE01319644E6915038F0CC
:1004A000289A4093B0023091F1003193F7CF88231E
:1004B00039F09091F200911103C09BE69093E8000F
:1004C0002FBF833080F08981811119C09C81909366
:1004D0004F039D8190935003E0915203F091530399
:1004E000309709F00995C80128960FB6F894DEBF39
:1004F0000FBECDBFDF91CF911F910F910895813035
:1005000059F79B819E3040F790935103E09151033E
:10051000EA3010F7F0E0E157FD4F0C94B62C990249
:1005200099029C02A002A202A4029C02A002A202C2
:10053000A40210924E03D0CF91E090934E03CCCF03
:1005400092E0FBCF93E0F9CF94E0F7CF9FB7F89418
:1005500082E08093E9008091F2009FBF81110C94AA
:100560002A02089592E0423009F496E09062809366
:10057000E90081E08093EB006093EC009093ED0044
:100580008091EE00881F8827881F08950895409164
:10059000A4025091A5022091A2023091A302421719
:1005A0005307B4F49091E8009570E1F39091E8005E
:1005B00092FD19C08093F1008091A4029091A50250
:1005C00001968F739927892B19F48EEF8093E80099
:1005D0008091A4029091A50201969093A502809328
:1005E000A40281E0089580E00895EF92FF921F93A6
:1005F000CF93DF93F82E192FE62E81E0860F880F18
:100600000E94C70283E00E94C702CF2DD12FEC0EBB
:10061000FD2EF11CCE15DF0591F0FE0184910E94A4
:10062000C702182F80E00E94C70281232196811102
:10063000F1CFDF91CF911F91FF90EF90089581E06E
:10064000F8CFEF92FF920F931F93CF93DF938B011D
:10065000EC017C01E60EF71ECE15DF0549F0FE0128
:1006600084910E94C70221968111F6CF0FEF1FEFF0
:10067000C801DF91CF911F910F91FF90EF900895E6
:10068000089590E080E008958FEF9FEF08958150E6
:100690008F3008F047C0E82FF0E0EF5AFC4F0C9481
:1006A000B62C6E037203600366036A03920392031F
:1006B000920375037B037F038303890392038D03F6
:1006C000809180008F7780938000089580918000D2
:1006D0008F7DF9CF80918000877FF5CF84B58F77AC
:1006E00084BD089584B58F7DFBCF809190008F7776
:1006F000809390000895809190008F7DF9CF809134
:100700009000877FF5CF8091C0008F778093C000E5
:1007100008958091C0008F7DF9CF8091C200877FBE
:100720008093C20008951F93CF93DF93282F30E06A
:10073000F901E856FD4F8491F901E75DFD4FD49131
:10074000F901E65FFD4FC491CC23A9F0162F81116A
:100750000E944703EC2FF0E0EE0FFF1FE654FF4F1F
:10076000A591B4918FB7F894EC91111108C0D09570
:10077000DE23DC938FBFDF91CF911F910895DE2B95
:10078000F8CFCF93DF9390E0FC01E75DFD4F24911C
:10079000865F9D4FFC0184918823C9F090E0880F0B
:1007A000991FFC01E455FF4FA591B491FC01E6545B
:1007B000FF4FC591D49161110DC09FB7F8948C91F2
:1007C000209582238C938881282328839FBFDF91E3
:1007D000CF910895623051F49FB7F8943C91822FE5
:1007E000809583238C93E8812E2BEFCF8FB7F894DD
:1007F000EC912E2B2C938FBFEACF8230910538F0ED
:10080000880F991F880F991F05970197F1F7089591
:100810003FB7F89480919E0290919F02A091A00210
:10082000B091A10226B5A89B05C02F3F19F00196F3
:10083000A11DB11D3FBFBA2FA92F982F8827BC013A
:10084000CD01620F711D811D911D42E0660F771F62
:10085000881F991F4A95D1F708958F929F92AF9262
:10086000BF92CF92DF92EF92FF924B015C010E9408
:1008700008046B017C010E9408046C197D098E0933
:100880009F09683E734081059105A8F321E0821A13
:100890009108A108B10888EEC80E83E0D81EE11CBB
:1008A000F11C81149104A104B10429F7FF90EF9089
:1008B000DF90CF90BF90AF909F908F9008959F92C0
:1008C000AF92BF92CF92DF92EF92FF920F931F935E
:1008D000CF93DF936C018B018091B90281110EC01F
:1008E0008FEF9FEFDF91CF911F910F91FF90EF90CE
:1008F000DF90CF90BF90AF909F9008958091B80205
:1009000080FF05C08091E00082608093E000C02FEE
:10091000D12FF12C8AEFE82EBB24B39490E4992ECA
:100920002AE3A22E209719F4FF2009F447C08FB7BD
:10093000F894B092E9009091E80095FD0BC08FBF4C
:10094000EA94EE2069F261E070E080E090E00E94BD
:100950002D04E8CF9091F200292D291B8FBF22236F
:1009600079F32C171D0611F00CF02C2F8FB7F8948B
:10097000B092E9009091E80095FD02C08FBFD2CF00
:10098000422F50E0C41BD50BF601215020F091916D
:100990009093F100FACFC40ED51EFF2021F0A09253
:1009A000E800F12CEBCF9091E80095FDE7CFA09205
:1009B000E800FF24F394209709F3F3CF5D9A84E6CF
:1009C0008093B702C8018ECF80914D038823C9F070
:1009D00080914C038823A9F010924C0364E170E0ED
:1009E00088E393E00E945F041816190654F481E02E
:1009F0008093E9008091F200882319F08AE38093C4
:100A0000E80008952FB7F89460919A0270919B02C4
:100A100080919C0290919D022FBF08958F929F928A
:100A2000AF92BF92CF92DF92EF92FF9280919204A9
:100A3000811121C00E9402054B015C010E94020548
:100A40006B017C01C818D908EA08FB0888E8C816B9
:100A500083E1D806E104F1045CF40E9402056B0115
:100A60007C0162E370E080E090E00E942D04EACF18
:100A700081E08093920480E0FF90EF90DF90CF9030
:100A8000BF90AF909F908F9008950F931F93CF9337
:100A9000DF93162F082FEC010E940E0589938C2FEF
:100AA000801B8117C8F3DF91CF911F910F9108959B
:100AB000CF930E940E05C82F0E940E052C2F30E008
:100AC000322F2227820F932F911DCF910895FC0181
:100AD00083858F3F19F061E00C9493030895FC0126
:100AE00080819181892B39F0A281B3819C911196EB
:100AF0008C919CBD8DBD83858F3F19F060E00C9477
:100B000093030895AF92BF92CF92DF92EF92FF923C
:100B10000F931F93CF93DF93EC0188819981892BE9
:100B200089F06EBD0DB407FEFDCFBEB48B2DDF91F5
:100B3000CF911F910F91FF90EF90DF90CF90BF90DA
:100B4000AF9008958885998511E0892B09F010E808
:100B5000AA24A394862F812309F0A12C062F2C818F
:100B60003D814E815F8160E271EA87E090E00E9402
:100B7000BA29F22EB02EE12CC22ED12CFF2019F072
:100B8000C6010E94FD038A85877F09F042C08D85DA
:100B90008F3F89F0902F912381E009F480E08A153E
:100BA00051F0EF85F8898F89992369F19081892B1C
:100BB0008083AA24A394E989FA898081998D892B5D
:100BC0008083FF2019F0C6010E94FD038E858F3FB0
:100BD00039F0EB89FC898081988D892309F0E12A1D
:100BE000E989FA899081898D8095892380838E8512
:100BF0008F3F09F0BE2C88859985892BB9F5110F97
:100C00001111BCCF93CF9081809589238083A12C33
:100C1000D2CFE989FA898081998D892B8083FF2041
:100C200019F0C6010E94FD038D858F3F49F0EF85C5
:100C3000F8898F89902F9123A9F09081892B808347
:100C4000E989FA899081898D8095892380838E85B1
:100C50008F3F69F2EB89FC898081988D892339F275
:100C6000E12AC5CF908180958923E9CF1695C8CF19
:100C70008F929F92AF92BF92CF92DF92EF92FF92AC
:100C80000F931F93CF93DF937C014B016A01B22E28
:100C9000A32E0E946F05E401C80CD91CCC15DD05FC
:100CA00069F4CB2DDA2D0C0F1D1FC017D10759F099
:100CB0006FEFC7010E9482058993F7CF6991C70141
:100CC0000E948205EBCFC7010E94670581E0DF919A
:100CD000CF911F910F91FF90EF90DF90CF90BF9039
:100CE000AF909F908F9008958F929F92AF92BF92F6
:100CF000CF92DF92EF92FF920F931F93CF93DF93E8
:100D00007C01B62EA72E6A0149010E946F05E401FD
:100D1000080D191DC017D10761F4CB2DDA2DCC0EAB
:100D2000DD1ECC15DD0551F06991C7010E948205D9
:100D3000F8CF6991C7010E948205ECCFC7010E94DC
:100D4000670581E0DF91CF911F910F91FF90EF90A8
:100D5000DF90CF90BF90AF909F908F9008954F926B
:100D60005F926F927F928F929F92AF92BF92CF923B
:100D7000DF92EF92FF92CF93DF9300D000D0CDB7F8
:100D8000DEB76B017C01F901DA018D909D90AD9089
:100D9000BC9013978C149D04AE04BF04BCF060811A
:100DA0007181828193810F900F900F900F90DF914E
:100DB000CF91FF90EF90DF90CF90BF90AF909F903A
:100DC0008F907F906F905F904F90089514968D91C3
:100DD0009D910D90BC91A02D89839A83AB83BC8398
:100DE000648175818681978129813A814B815C81FB
:100DF000C216D306E406F506B4F640805180628040
:100E0000738084149504A604B70429F426173707C1
:100E100048075907E9F0A7019601281939094A0935
:100E20005B0964197509860997090E94862C298136
:100E30003A814B815C81281939094A095B090E9472
:100E40008829CA01B901640D751D861D971DABCF98
:100E5000C701B601A8CFCF92DF92EF92FF920F9316
:100E60001F93CF93DF93182F6A017B01022FC7EBEB
:100E7000D1E0823111F0CBEBD1E0812F0E948701CC
:100E80002FEB31E0AC01C701B6010E94AF06002391
:100E900031F060957095072E000C880B990BA7EB2D
:100EA000B1E0123111F0ABEBB1E01396EC91139776
:100EB000F0E0E85CFC4F00811296EC91F0E0E85C19
:100EC000FC4F2081102F022F012E000C220B330B20
:100ED0000617170728073907B9F0EA81F0E0E85C40
:100EE000FC4F6083EB81F0E0E85CFC4F708381E0B5
:100EF00080934C03DF91CF911F910F91FF90EF9062
:100F0000DF90CF900C94E404DF91CF911F910F916B
:100F1000FF90EF90DF90CF9008958F3041F08031B7
:100F200019F485EB91E0089590E080E0089586EB58
:100F300091E00895CF92DF92EF92FF920F931F936B
:100F4000CF93DF93833168F5E82FF0E0EE0FFF1FBA
:100F5000E051FE4FA081B181109719F1EC91F0E0C2
:100F6000E85CFC4F908111968C91392F382321E059
:100F700009F420E0621709F444C0662379F0892B54
:100F8000808381E080934C03DF91CF911F910F917B
:100F9000FF90EF90DF90CF900C94E404809589232C
:100FA000EFCFD62FC82F0E9487018C01009749F1FF
:100FB000FC01DD2309F1C480D580E680F7808C2F09
:100FC0000E948D07EC01892BE1F028EE31E0A801A9
:100FD000C701B6010E94AF06E881F0E0E85CFC4F73
:100FE0002081022F10E030E020E0601771078207B7
:100FF000930739F06083C5CFC080D180E280F38051
:10100000DECFDF91CF911F910F91FF90EF90DF9096
:10101000CF900895662361F0813240F4E82FF0E02C
:10102000E953FE4F808161E00C949A0780E0FBCF8A
:10103000813238F4E82FF0E0E953FE4F808160E020
:10104000F3CF80E0FCCFDC01ED91FC910190F081C9
:10105000E02D099420917602260F3327331F213289
:101060003105ECF420912403FC0190E080E0243071
:1010700069F082E00895A09176022191AC014A5A6C
:101080005D4FA40FB52FB11D2C930196861798F3D1
:1010900080917602680F6093760280E0089581E087
:1010A00008951092240381E0809303031092FE02BE
:1010B00061E082E00E94930361E083E00E94930379
:1010C000E9EBF0E080818E7F808380818D7F80835B
:1010D00088E48093B80085E48093BC000895109262
:1010E000B6021092B5021092BB021092DD020E946D
:1010F00051088FE991E09093B4028093B30280EAA3
:1011000091E09093B2028093B1020895CF93DF9360
:1011100091E09093A7028823B9F0C091B800D091D4
:10112000BA008091BC008A7B8093BC0060E082E0C2
:101130000E94930360E083E00E9493030E945108A1
:10114000D093BA00C093B800DF91CF9108958F92E9
:101150009F92AF92BF92CF92DF92EF92FF920F9346
:101160001F93CF93DF93D82FC62F142F613208F02F
:101170009CC00E9408046B017C01809124038111B2
:101180006FC081E080932403109303039FEF90933B
:101190000203109201039C0F909300038093FF02BF
:1011A0008091FF02DD0FD82BD093FF028091FE02C9
:1011B000813009F07CC01092FE020E9408046B018D
:1011C0007C018091FF028093BB0080912603909167
:1011D0002703A0912803B0912903892B8A2B8B2BFD
:1011E000A1F00E940804009126031091270320918A
:1011F0002803309129036C197D098E099F09061770
:1012000017072807390708F44CC08091BC0083FDFC
:10121000D8CF85EC8093BC000E9408046B017C0150
:1012200080912403813009F444C0809101038C171C
:1012300010F4C0910103EEEDF2E0A4E0B3E080E031
:101240008C1359C08C2FDF91CF911F910F91FF907C
:10125000EF90DF90CF90BF90AF909F908F900895C8
:101260008091260390912703A0912803B091290330
:10127000892B8A2B8B2B09F480CF0E940804809045
:10128000260390902703A0902803B09029036C199F
:101290007D098E099F0986169706A806B90608F0EB
:1012A0006CCF809125030E948608C0E0CBCF85EEED
:1012B000B1CF8091260390912703A0912803B0918C
:1012C0002903892B8A2B8B2B09F4AACF0E940804AF
:1012D00000912603109127032091280330912903C0
:1012E0006C197D098E099F0906171707280739070A
:1012F00008F096CFD6CF91919D938F5FA1CF8F921B
:101300009F92AF92BF92CF92DF92EF92FF920F9394
:101310001F93CF93DF93D091DD02D13208F0D7C075
:10132000182FC091DC020E9408046B017C0180919F
:10133000240381116BC082E0809324031093030384
:101340008FEF8093020310920103D0930003ACEB64
:10135000B2E0EEEDF2E080E0D81391C01092FF020F
:101360008091FF02CC0FC82BC093FF028091FE0238
:10137000813009F088C01092FE020E9408046B01BF
:101380007C018091FF028093BB00809126039091A5
:101390002703A0912803B0912903892B8A2B8B2B3B
:1013A000A1F00E94080400912603109127032091C8
:1013B0002803309129036C197D098E099F090617AE
:1013C00017072807390708F442C08091BC0083FD45
:1013D000D8CF85EC8093BC000E9408046B017C018F
:1013E00080912403823009F450C0809102038F3F22
:1013F00009F46FC080910203803209F46CC08091BF
:101400000203803309F469C084E026C0809126037A
:1014100090912703A0912803B0912903892B8A2B4F
:101420008B2B09F484CF0E940804809026039090AF
:101430002703A0902803B09029036C197D098E0919
:101440009F0986169706A806B90608F070CF809106
:1014500025030E94860885E01092BB021092DD02EF
:101460001092BA02DF91CF911F910F91FF90EF90F0
:10147000DF90CF90BF90AF909F908F9008959D91F7
:1014800091938F5F69CF85EEA5CF809126039091D0
:101490002703A0912803B0912903892B8A2B8B2B3A
:1014A00009F49ECF0E94080400912603109127039F
:1014B00020912803309129036C197D098E099F0919
:1014C000061717072807390708F08ACFC0CF81E031
:1014D000C3CF80E0C1CF82E0BFCF83E0BDCF1F93F9
:1014E000CF93DF93EA01122FDC0111968D919C912D
:1014F000DC01ED91FC910280F381E02D0995C81784
:10150000D90729F4812F0E947F0991E0811190E091
:10151000892FDF91CF911F910895AF92BF92CF9203
:10152000DF92EF92FF920F931F93CF93DF9300D040
:10153000CDB7DEB7DC01211103C018962C911897A6
:10154000253008F043C01F964D935D936D937C93B7
:10155000529790E080E0E22EF12C8E159F05B4F4B6
:101560001A962C911A9721110AC0FD01E80FF91F54
:101570004387452F562F672F77270196EECFF70128
:10158000E81BF90BEA0FFB1F4287F3CF6D018BE0DD
:10159000C80ED11C16969C91169717968C9117978A
:1015A00099838A83AD90BC901197A114B10409F47A
:1015B00041C019960C9110E098012E0D3F1DD501E8
:1015C00014968D919C918217930710F480E016C0B9
:1015D000F50181819281208131E03093BA0220931C
:1015E000DC021092BB021092DD020115110599F484
:1015F00021E0A701B601C5010E946F0A0F900F906C
:10160000DF91CF911F910F91FF90EF90DF90CF90DE
:10161000BF90AF900895DC01ED91FC910280F381C1
:10162000E02DA801BE016F5F7F4F099508171907CC
:1016300069F6DECF1296ED91FC911397309731F257
:1016400014962D913C91159719960C9110E023302A
:10165000310571F48E7F89839A830F5F1F4F9E013E
:101660002F5F3F4FA701B601CF010E947406C6CF7E
:101670002115310519F49F779983F1CF2230310577
:1016800011F49068F9CF2130310549F79F779064C4
:10169000F3CFCF93DF93EC018B818823A1F0888176
:1016A00091E09093BA028093DC021092BB021092F8
:1016B000DD0281E00E947F0991E0811190E0892F95
:1016C000DF91CF9108950E946F0881E08B83CE0156
:1016D0000E94490B982F8111E2CFF1CF1F93CF9336
:1016E000DF93EC01142F89819A81288131E03093B6
:1016F000BA022093DC021092BB021092DD02DC01E0
:10170000ED91FC910190F081E02D099589819A81FC
:10171000DC01ED91FC910190F081E02D612F0995A4
:1017200081E0DF91CF911F910C947F09EF92FF929E
:101730000F931F93CF93DF93EC01E42E052FF22E2E
:10174000132F89819A81288131E03093BA02209346
:10175000DC021092BB021092DD0224E0629FB00115
:1017600011246A5F7F4FDC01ED91FC910190F081C3
:10177000E02D09956E2D702F89819A810E94230892
:10178000602F70E089819A810E9423086F2D712F4C
:1017900089819A810E942308612F70E089819A8152
:1017A0000E94230881E0DF91CF911F910F91FF905C
:1017B000EF900C947F099A01803130F4AB01682FCF
:1017C00082EE97E00C94960B90EF980F903128F4EE
:1017D000AB01692F8BED97E0F5CF8052803128F473
:1017E000AB01682F84ED97E0EDCF0895CF92DF92A3
:1017F000EF92FF920F931F93CF93DF93182FC62F73
:10180000E82EF12CC70187529B4F6C01FC01618BC4
:10181000662369F00E940205F701EE0FFF1FEE0F2D
:10182000FF1FE75DFA4F60837183828393831F30CC
:1018300008F0B4C0F601D281153008F0ACC00C2F0E
:1018400010E061E08D2F0E94C1030115110511F414
:1018500060E004C00F3F110561F461E08D2FDF915E
:10186000CF911F910F91FF90EF90DF90CF900C944C
:101870009303ED2FF0E0E856FD4FE491E150EF3097
:1018800008F084C0F0E0E95BF34F0C94B62C560CE2
:10189000630C680C720C7C0CC60CC60CC60C860C57
:1018A000900C9A0CA40CB10CC60CB90C84B58068D1
:1018B00084BDC7BDDF91CF911F910F91FF90EF9035
:1018C000DF90CF90089584B5806284BDC8BDF2CF0B
:1018D000809180008068809380001093890000933D
:1018E0008800E8CF80918000806280938000109310
:1018F0008B0000938A00DECF809180008860809307
:10190000800010938D0000938C00D4CF80919000C4
:101910008068809390001093990000939800CACF3C
:101920008091900080628093900010939B000093C0
:101930009A00C0CF809190008860809390001093AF
:101940009D0000939C00B6CF8091C000806880937A
:10195000C0008091C0008F7B8093C000C093CF00F7
:10196000A9CF8091C00080628093C000C093D00056
:10197000A1CF8091C20088608093C2008091C20094
:101980008B7F8093C200C093D20094CF00381105A2
:101990000CF063CF5DCFC7FF5BCF5FCF1F3108F483
:1019A000C09581EF810F50E040E060E070E1CF3FF3
:1019B00061F040E050E170E060E0CC2331F0F0E114
:1019C000CF9FA001112461E070E0DF91CF911F91C2
:1019D0000F91FF90EF90DF90CF900C94DB0BCF92A4
:1019E000DF92EF92FF920F931F93CF93C82F282F70
:1019F00030E0F901EC58FC4FDF01A258BF4F8C9149
:101A0000681708F4862F908140919304442331F0A5
:101A1000913011F09430F9F480E01DC09430D9F485
:101A20008823C9F027523B4FF9019189992399F0F6
:101A3000A4E7B3E030E020E09D91943009F04EC07F
:101A4000F901E752FB4F9189911148C0C22FE35B26
:101A5000FE4F91E090832C2F30E0F901EC58FC4FC1
:101A60009081943009F041C081113FC0CA30E8F53F
:101A70002A5D394FF9018081811125C084E7C82E84
:101A800083E0D82E10E000E0F60181916F018430F0
:101A9000A9F4F801E752FB4F8189882379F07F018F
:101AA00083EBE81A8EEFF80AF7018081882331F082
:101AB00060E0802F0E94F60BF70110820F5F1F4F2E
:101AC0000930110509F760E08C2FCF911F910F911C
:101AD000FF90EF90DF90CF900C94F60B2F5F3F4F6D
:101AE0002930310509F0A8CFB6CF682FEDCFCF92BE
:101AF000DF92EF92FF920F931F93CF93DF93D82F34
:101B0000C62F21E02093D00430918E04832F68E10A
:101B10000E94962C9D1304C03831E8F4C0939304BE
:101B2000ED2EF12CF701EB54FB4F8081882311F14E
:101B3000C11149C09091CD048917A8F48F5F8083AB
:101B4000C1E08C2FDF91CF911F910F91FF90EF900B
:101B5000DF90CF900895CC2319F3809193048227CE
:101B600080939304DDCF81E0808380914F07815083
:101B700080934F078CEF8D0F883000F5C11116C090
:101B800087010F5B184FF8018281882379F0E0917B
:101B90009104F0E0E35DF84F8281811107C060E0BD
:101BA00084E18D0F0E940A08F8011282E0919104ED
:101BB000F0E0E35DF84F8281811109C0D0932D07D9
:101BC0006C2F8D2F19C080914F078F5FD1CF84E18B
:101BD0008D0F80932D07E82FF0E0E35DF84FC2836F
:101BE0006C2F0E940A08C11109C060E08D2F0E946D
:101BF0000A0860E080912D070E940A0806E714E0B9
:101C00008AE7C82E84E0D82EF80181918F01CC2379
:101C100079F0882349F08150990BE816F90621F4F0
:101C200083816FEF81110FC0C016D10669F789CF8C
:101C30008823D1F38150990BE816F906A9F783811F
:101C4000882391F360E081500E94EF0CEDCFCF9399
:101C5000DF930E940B02C0912A07D0E080912B07EE
:101C60008C171D0681F07CF0FE01EC58FC4F808142
:101C70006CE3823019F0833021F46FEF8C2F0E94D7
:101C8000EF0C2196EBCFDF91CF910895E091B60252
:101C90008091B502E81730F4F0E0EC5FFC4F8081F2
:101CA00090E008958FEF9FEF08959091B602809194
:101CB000B5022FEF3FEF981748F4E92FF0E0EC5F03
:101CC000FC4F208130E09F5F9093B602C9010895D8
:101CD0008091B5029091B602891B990B0895CF921D
:101CE000DF92EF92FF920F931F93CF93DF937C01CC
:101CF000CB018A012091BA02222389F0EB016B010A
:101D0000C40ED51ECC15DD0569F06991D701ED91A2
:101D1000FC910190F081E02DC7010995F3CF642F6C
:101D20000E942A08C801DF91CF911F910F91FF9067
:101D3000EF90DF90CF900895CF93DF931F92CDB7B0
:101D4000DEB769832091BA022223F9F02091DD02E7
:101D5000203258F021E030E0FC013383228390E010
:101D600080E00F90DF91CF9108958091BB02E82F22
:101D7000F0E0E454FD4F998190838F5F8093BB0224
:101D80008093DD0281E090E0ECCF61E0CE0101962E
:101D90000E942A08F7CF8F929F92AF92BF920F9323
:101DA0001F93CF93DF93CDB7DEB7A1970FB6F8940B
:101DB000DEBF0FBECDBF19A2423008F44AE08E014B
:101DC0000F5D1F4F842E912CB12CA12CA5019401E5
:101DD0000E94BA29E62FB901CA01EA301CF5E05D7C
:101DE000D801EE938D01232B242B252B79F790E03E
:101DF00080E0109741F0FD0101900020E9F7319754
:101E0000CF018A1B9B0BA1960FB6F894DEBF0FBEC5
:101E1000CDBFDF91CF911F910F91BF90AF909F9059
:101E20008F900895E95CDCCFBC01990F880B990B6A
:101E300097FF0CC090958095709561957F4F8F4F5F
:101E40009F4F4AE00E94CB0E019608954AE00C9401
:101E5000CB0E0E94140F88E892E00C94A4018F929C
:101E60009F92AF92BF92CF92DF92EF92FF920F9329
:101E70001F93CF93DF936B017C01042FAC019B0177
:101E80000E94812C81118BC046015701E894B7F85C
:101E90002FEF3FEF4FE75FE7C501B4010E94812CB0
:101EA00081110BC02FEF3FEF4FE75FE7C501B40192
:101EB0000E94582A18160CF472C02FEF3FEF4FE71C
:101EC0005FE4C701B6010E940F2C18160CF467C01E
:101ED0002FEF3FEF4FE75FECC701B6010E94582A92
:101EE00087FD5DC020E030E0A901C701B6010E9476
:101EF000582AD0E0C0E087FF06C0F7FAF094F7F860
:101F0000F094C1E0D0E010E060E070E080E09FE39A
:101F1000011741F020E030E040E251E40E945D2AE8
:101F20001F5FF6CFA70196010E94EC296B017C018F
:101F30000E94D62A4B015C014AE00E94CB0EC80FDA
:101F4000D91F112371F1C501B4010E94052B9B011A
:101F5000AC01C701B6010E94EB292196115008F18E
:101F600020E030E040E251E40E94142C4B015C017F
:101F70000E94D62A6B01F12CE12C4AE0C701B60180
:101F80000E94CB0EC80FD91FC701B6010E94052BB6
:101F90009B01AC01C501B4010E94EB29DFCFC3E076
:101FA000D0E0CE01DF91CF911F910F91FF90EF9084
:101FB000DF90CF90BF90AF909F908F900895682F43
:101FC00070E090E080E04AE00E94CB0E8AE892E068
:101FD0000C94A4010F931F93CF93DF93162F082F18
:101FE000EC0189910E94DF0F8C2F801B8117C8F3B1
:101FF000DF91CF911F910F9108953F924F925F9281
:102000006F927F928F929F92AF92BF92CF92DF9208
:10201000EF92FF920F931F93CF93DF9300D0CDB732
:10202000DEB7FC014B01042F9681878199838A8357
:10203000C080D180C114D10409F479C0418550E039
:10204000D60114968D919C9184179507B0F4312C8C
:10205000832D0F900F90DF91CF911F910F91FF90E3
:10206000EF90DF90CF90BF90AF909F908F907F9038
:102070006F905F904F903F900895F601808191E0BE
:102080009093BA028093DC021092BB021092DD02A0
:1020900020E0BE016F5F7F4FC6010E946F0A382E9D
:1020A0008823A9F210E0B12CA12CA016B10680F66D
:1020B000D60114968D919C917801EA18FB088E1533
:1020C0009F0508F47C0141E0C8018E199F09A816FC
:1020D000B90608F440E06E2D613208F060E2F601C6
:1020E00080810E94A7081092B6028093B5028E15D7
:1020F0001F0409F0ACCF34016A0C7B1C2301C20120
:10210000861997098E159F0578F4D60111968D9141
:102110009C91DC01ED91FC910284F385E02D099501
:10212000F20181932F01EBCFAE0CBF1CBECFA28179
:10213000B381109709F48BCF2481358110E041855C
:1021400050E02330310571F4816089839A834F5FB9
:102150005F4F9401BE016F5F7F4FCD010E94380633
:10216000382E76CF2115310519F490689983F1CF77
:102170002230310511F49F77F9CF2130310549F72D
:10218000906CF4CFAF92BF92CF92DF92EF92FF921A
:102190000F931F93CF93DF93CDB7DEB7A1970FB601
:1021A000F894DEBF0FBECDBF809105089091060860
:1021B000188A198A1A8A1B8A9A8389831C821B822D
:1021C00081E08A878BE390E098878F831B868EE07F
:1021D00089874EE0BE016C5E7F4FCE0101960E9462
:1021E000FD0F6C897D897627672776277093FE0718
:1021F0006093FD07AE88BF88BA24AB24BA24B0929E
:102200000008A092FF07088D198D102701271027BD
:10221000109302080093010880910308909104082C
:10222000C12CD12CE12C35E4F32E8330910501F142
:10223000C12CD12C20E8E22E25E4F22E823091052B
:10224000B9F08130910579F0C12CD12C40E8E42E11
:102250004FE3F42E892B61F4C12CD12C80E8E82EB9
:1022600086E4F82E05C0C12CD12CE12C96E4F92E81
:10227000072E000C880B990B0E94072BA7019601D3
:102280000E945D2A2AE038EE4CE151E40E94142CB1
:102290006093F1077093F2078093F3079093F4072C
:1022A000B501BB0C880B990B0E94072BA701960167
:1022B0000E945D2A2AE038EE4CE151E40E94142C81
:1022C0006093F5077093F6078093F7079093F807EC
:1022D000B801110F880B990B0E94072BA7019601DB
:1022E0000E945D2A2AE038EE4CE151E40E94142C51
:1022F0006093F9077093FA078093FB079093FC07AC
:10230000A1960FB6F894DEBF0FBECDBFDF91CF917F
:102310001F910F91FF90EF90DF90CF90BF90AF9003
:102320000895CF92DF92EF92FF92CF9360E971E030
:1023300080E090E00E942D04109288061092890699
:1023400010928A0610928B0610928C0610928D06BF
:1023500010928E0610928F06C2E30E94C2108091E6
:102360007E04883008F465C02091F9073091FA079F
:102370004091FB075091FC07609188067091890697
:1023800080918A0690918B060E94EC2960938806C2
:102390007093890680938A0690938B062091F507A7
:1023A0003091F6074091F7075091F80760918C063D
:1023B00070918D0680918E0690918F060E94EC2977
:1023C0006B017C01C0928C06D0928D06E0928E0645
:1023D000F0928F06C15009F0C0CF20E030E048E411
:1023E00052E4609188067091890680918A069091E6
:1023F0008B060E945D2A60938806709389068093FD
:102400008A0690938B0620E030E048E452E4C7014E
:10241000B6010E945D2A60938C0670938D068093AE
:102420008E0690938F06CF91FF90EF90DF90CF9024
:1024300008952091F1073091F2074091F3075091F0
:10244000F4079ACFCF93DF93EC01BC01655F7F4F18
:1024500048850E94FD0F882301F1488550E030E057
:1024600020E060E070E0CB0124173507CCF4982F12
:10247000872F762F6627EA85E1110AC0FA01E21B51
:10248000F30BEC0FFD1FE2856E2B2F5F3F4FECCF60
:10249000FE01E20FF31FE385F7CF6FEF7FEFCB0174
:1024A000DF91CF9108958F929F92AF92BF92CF927A
:1024B000DF92EF92FF920F931F93CF93DF93EC0184
:1024C0004A015B01888199810E9422122A8101E0E0
:1024D00010E002C0000F111F2A95E2F70150110908
:1024E000012E000C220B330BAB81680179010A2EFF
:1024F00004C0CC0CDD1CEE1CFF1C0A94D2F7C09467
:10250000D094E094F094C622D722E822F922E88100
:10251000F981B901A801482159216A217B2104C010
:10252000440F551F661F771FAA95D2F74C295D29C6
:102530006E297F292085CF01DF91CF911F910F91C7
:10254000FF90EF90DF90CF90BF90AF909F908F90D3
:102550000C948D0ACF93DF93CDB7DEB767970FB694
:10256000F894DEBF0FBECDBFE1EFF7E024893589D7
:10257000188A198A1A8A1B8A3A8329831C821B8229
:1025800091E09A872CE130E038872F831B8699876A
:102590009E012F5F3F4F3D8B2C8B92E09E8B93E0F3
:1025A0009F8B282F30E0338B228B482F50E070E038
:1025B00060E0CE0144960E94531267960FB6F894DD
:1025C000DEBF0FBECDBFDF91CF91089580917E0415
:1025D000883008F0885080939A0660918804709142
:1025E0008904072E000C880B990B0E94072B60931F
:1025F0009B0670939C0680939D0690939E06609127
:102600008A0470918B04072E000C880B990B0E9492
:10261000072B60939F067093A0068093A10690936A
:10262000A206809181040E94AA120C949111EF924B
:10263000FF920F931F93CF93DF93CDB7DEB7C154B3
:10264000D1090FB6F894DEBF0FBECDBF81EFE82EE3
:1026500087E0F82EF701848995891EAA1FAA18AE73
:1026600019AE98A78FA31AA619A611E018AB89E195
:1026700090E09EA78DA719AA1FA720E040E050E098
:10268000BA01CE0187960E948D0AF7018489958947
:102690001BA21CA21DA21EA29D8B8C8B1F8A1E8AB0
:1026A0001D8F8AE190E09B8F8A8F1E8E1C8FCE013A
:1026B00044969FAF8EAF03E021960FAF21972296ED
:1026C0001FAE229746E050E060E070E08A960E94DC
:1026D0005312F70184899589188A198A1A8A1B8AE4
:1026E0009A8389831C821B821A878CE190E09887E9
:1026F0008F831B861987CE0101969BAF8AAF0CAFE3
:102700001DAE44E050E060E070E0C9960E945312B4
:10271000CF5BDF4F0FB6F894DEBF0FBECDBFDF91AA
:10272000CF911F910F91FF90EF900895EF92FF923C
:102730000F931F93CF93DF93CDB7DEB7ED970FB60F
:10274000F894DEBF0FBECDBF8091050890910608BA
:10275000009711F00E946C2D64E670E080E090E03C
:102760000E942D0486E090E00E94D02C8C0188E627
:10277000F801808388EC97E092838183138280E262
:1027800090E09583848310930608009305080E94C7
:102790006F08FF24F394F801F382C8010E94490BEB
:1027A000E82E882309F49AC08091050890910608C4
:1027B0001EAA1FAA18AE19AE98A78FA31AA619A60B
:1027C000F8AA2BE630E03EA72DA719AAFFA61BA268
:1027D0001CA21DA21EA29D8B8C8B1F8A1E8AFD8EA1
:1027E00088E690E09B8F8A8F1E8EFC8ECE018796A6
:1027F0009BAF8AAFFCAE87E08DAF41E050E060E078
:1028000070E0CE01CA960E94531201E010E08AAD3A
:102810009BAD0E942212AB01BC018CAD980102C09D
:10282000220F331F8A95E2F7C9010197092E000C88
:10283000AA0BBB0B2DAD04C07695679557954795B0
:102840002A95D2F784239523A623B7230197A105C0
:10285000B10539F461E070E080E090E00E942D0461
:10286000D6CF64E670E080E090E00E942D0420E086
:1028700047E050E060E070E0CE0144960E948D0A8F
:1028800064E670E080E090E00E942D040E9417133F
:1028900080E00E94AA128091050890910608188A8B
:1028A000198A1A8A1B8A9A8389831C821B8281E077
:1028B0008A872BE630E038872F831B86898720E0C4
:1028C00041E050E060E070E0CE0101960E948D0A88
:1028D00064E670E080E090E00E942D048E2DED967D
:1028E0000FB6F894DEBF0FBECDBFDF91CF911F9121
:1028F0000F91FF90EF9008958F929F92AF92BF92A9
:10290000CF92DF92EF92FF921F93CF93DF93EC0170
:102910006A017B0120E030E040E85FE3CB01B601D3
:102920000E94582A87FDA3C020E030EC4AE555E418
:10293000C701B6010E940F2C18163CF4C12C30ECD4
:10294000D32E3AE5E32E35E4F32E6B817C818D8125
:102950009E810E94052B4B015C0120E030E040E8A5
:1029600055E4C701B6010E94142C9B01AC01C501BE
:10297000B4010E945D2A20E030E040E05FE30E9465
:10298000EC2920E030E040E85FE30E94EB296B0196
:102990007C0120E030E040E450E40E94582A87FDAA
:1029A0006DC020E030E04FE753E4C701B6010E945C
:1029B0000F2C181634F4C12CD12C9FE7E92E93E488
:1029C000F92E89819A81288131E03093BA022093CF
:1029D000DC021092BB021092DD02DC01ED91FC9151
:1029E0000190F081E02D60E0099581E00E947F096F
:1029F00041E061E088810E94A7081092B6028093AE
:102A0000B50289819A81DC01ED91FC910284F38504
:102A1000E02D0995182F482F4F76406160E0CE01D8
:102A20000E946E0BC701B6010E94D62A462F6EEF98
:102A3000CE010E946E0B412F60E0CE010E946E0B12
:102A400065E070E080E090E00E942D04412F406A34
:102A500060E0CE01DF91CF911F91FF90EF90DF906A
:102A6000CF90BF90AF909F908F900C946E0BC12C25
:102A7000D12C20E8E22E2FE3F22E67CFC12CD12CEF
:102A800080E4E82EFE2C9DCFCF93DF93EC010E94D3
:102A90006F0840E860E0CE010E946E0B6AE070E0D3
:102AA00080E090E00E942D0440E050E06AE774E48A
:102AB000CE010E947C1480E498E7ADE7B1E08B83FF
:102AC0009C83AD83BE83DF91CF910895CF93DF9335
:102AD000EB010E9472298883CE01DF91CF91089586
:102AE0000F931F93CF938C010E947229C82FC801A6
:102AF00001960E9472292C2F30E0322F2227820F5C
:102B0000932F911DCF911F910F910895CF93DF9334
:102B1000EB010E9472298883CE01DF91CF91089545
:102B200085ED8093BC008091260390912703A091AE
:102B30002803B09129030796A11DB11D23E0B69586
:102B4000A795979587952A95D1F72091BC0024FDEC
:102B500003C0109224030895409126035091270347
:102B60006091280370912903452B462B472B69F36D
:102B70000097A105B10541F02AE22A95F1F700C0BE
:102B80000197A109B109E1CF809125030C94860832
:102B90000C947A291F93CF93DF93EC01162F672FA4
:102BA0000E94C815612FCE010196DF91CF911F9130
:102BB0000C94C815EF92FF920F931F93CF93DF935E
:102BC00084E7E82E83E0F82E02EF13E0D0E0C0E0C7
:102BD000F70161917F01CE010E94C815F70166AD32
:102BE000CE018C599F4F0E94C815F80161918F0149
:102BF000CE0188539F4F0E94C815F80166ADCE01E3
:102C0000845D9E4F0E94C8152196CF33D10501F7F0
:102C1000609170047091710481E991E00E94CA157D
:102C2000609172047091730483E991E00E94CA1567
:102C3000609174047091750485E991E00E94CA1551
:102C400006E714E0C7E9D1E0F80161918F01CE01F8
:102C50000E94C8152196CB39F1E0DF07A9F70AE7F2
:102C600014E0C1EAD1E0F80161918F01CE010E9428
:102C7000C8152196C53AF1E0DF07A9F760917E04F7
:102C80008AEA91E00E94C815609180048BEA91E085
:102C90000E94C8156091810482EC91E00E94C815E1
:102CA000609182047091830484EC91E00E94CA15C3
:102CB00060918C0486EC91E00E94C81560918404B8
:102CC0007091850487EC91E00E94CA156091880498
:102CD0007091890489EC91E00E94CA1560918D047D
:102CE0008BEC91E00E94C81560918E048CEC91E011
:102CF0000E94C81560918F048DEC91E00E94C81568
:102D0000609190048EEC91E00E94C815609191044E
:102D10008FEC91E00E94C8156091D10480ED91E0A4
:102D20000E94C8156091D20481ED91E00E94C815FF
:102D30006091D30482ED91E00E94C8156091D404A3
:102D400083ED91E00E94C81560918604709187041C
:102D500084ED91E00E94CA1560918A0470918B0401
:102D600086ED91E00E94CA1505E914E0C4EFD1E0B8
:102D7000F80161918F01CE010E94C8152196C431DE
:102D8000F2E0DF07A9F705EB14E0F80161918F018C
:102D9000CE010E94C8152196CC32F2E0DF07A9F7D8
:102DA0006091CD0484E392E00E94C8156091D5043F
:102DB00085E392E00E94C8156091D60486E392E014
:102DC0000E94C8156091D70487E392E00E94C8155D
:102DD00065E688EE93E0DF91CF911F910F91FF9010
:102DE000EF900C94C8151F920F920FB60F921124FA
:102DF0008F939F938091E1009091E100937F909356
:102E0000E10083FF0FC01092E90091E09093EB0086
:102E10001092EC0092E39093ED001092B90298E0CA
:102E20009093F00082FF18C09091B702992341F06F
:102E30009091B70291509093B702911101C05D98A3
:102E40009091B002992341F09091B00291509093EB
:102E5000B002911101C0289884FF18C08091E2004F
:102E60008E7E81608093E2008091E1008F7E80936E
:102E7000E1008091B8028E7E80618093B8029F91BC
:102E80008F910F900FBE0F901F90189580FFF7CF76
:102E90008091E2008E7E80618093E2008091E1006B
:102EA0008E7E8093E1008091B8028E7E8160E5CFB6
:102EB0001F920F920FB60F9211242F933F934F93AF
:102EC0005F936F937F938F939F93AF93BF93EF9392
:102ED000FF93CF93DF93CDB7DEB72897DEBFCDBF8B
:102EE00082E08093E9008091E80082FF0CC080912D
:102EF000E8008B7F8093E800E0913603F091370380
:102F0000309709F009951092E9008091E80083FF5D
:102F10002CC089E0FE013196815021F09091F100A2
:102F20009083F9CF289A84E68093B00282EF809351
:102F3000E800898187FF32C09091E80090FFFCCFC4
:102F4000982F907679F49A814B815C813B812C811A
:102F500091112BC0803831F58091A6028093F10049
:102F60001092F1008EEF8093E80028960FB6F89447
:102F7000DEBF0FBECDBFDF91CF91FF91EF91BF912B
:102F8000AF919F918F917F916F915F914F913F9101
:102F90002F910F900FBE0F901F9018959EEF90935A
:102FA000E800CECF1092F100DBCF913059F48111BF
:102FB000D9CF41305105B1F68091A6028D7F809323
:102FC000A602D0CF933049F48111CCCF41305105C6
:102FD00049F68091A6028260F2CF953041F480914B
:102FE000E80080FFFCCF30683093E300BBCF963021
:102FF000D9F58F8198851092E9001092A502109260
:10300000A4029093A3028093A20269E970E088EC85
:1030100090E0223009F45AC0213009F452C0233024
:1030200069F48B81882309F454C0823059F460E13B
:103030008BEE91E00E94F502811194CF81E28093A2
:10304000EB0093CF813021F466E084EE91E0F2CF83
:10305000833021F463E180ED91E0ECCF843071F7AF
:1030600068E587E791E0E6CF973041F3983021F4A7
:1030700081E08093F10076CF993009F073CF8370AF
:10308000E9F641E061EC81E00E94B20242E060ECCE
:1030900082E00E94B20241E061EC85E00E94B2024F
:1030A0008EE78093EA001092EA0082E08093E900C4
:1030B0008091F00084608093F0008B818093B9024E
:1030C00051CF85E691E0FC01649170E00E942103FC
:1030D00049CF81E691E0F7CF1F920F920FB60F9282
:1030E00011242F933F938F939F93AF93BF9380911E
:1030F0009A0290919B02A0919C02B0919D02309106
:10310000990223E0230F2D3758F50196A11DB11D1B
:103110002093990280939A0290939B02A0939C0221
:10312000B0939D0280919E0290919F02A091A00277
:10313000B091A1020196A11DB11D80939E029093B2
:103140009F02A093A002B093A102BF91AF919F9163
:103150008F913F912F910F900FBE0F901F90189558
:1031600026E8230F0296A11DB11DD2CF1F920F9208
:103170000FB60F9211242F933F934F935F936F934A
:103180007F938F939F93AF93BF93EF93FF93809120
:10319000B900887F803609F44AC0F0F5883209F416
:1031A000A7C018F5803109F49BC0B8F4882309F44E
:1031B000F9C0883009F494C0FF91EF91BF91AF91AD
:1031C0009F918F917F916F915F914F913F912F913F
:1031D0000F900FBE0F901F901895883109F488C08A
:1031E000803251F78093020314C0803409F49DC0EB
:1031F00040F48033B9F38833F9F68093020385EC09
:10320000B0C0803509F485C0883509F496C088348B
:1032100099F60E949015D0CF883909F48CC038F502
:10322000883729F050F4883611F0803729F683E08A
:10323000809324031092980257C0883809F47BC009
:10324000803919F0803809F0B7CF80919802803228
:1032500008F071C0E091980281E08E0F809398028F
:103260008091BB00F0E0E858FD4F80833DC0803B7B
:1032700039F0E0F4803A09F479C0883A09F09CCF3B
:1032800084E0809324031092770210927602E091FA
:10329000B302F091B40209958091760281110FC0BA
:1032A00081E0809376021092560209C0803C09F4B6
:1032B000A6CF883C09F4A3CF883B09F07DCFE091ED
:1032C000770281E08E0F80937702F0E0EA5AFD4F9B
:1032D00080818093BB00909177028091760229C013
:1032E0008091FF028093BB0085EC8093BC0064CF8B
:1032F0009091010380910003981758F5E091010324
:1033000081E08E0F80930103F0E0E252FD4F808157
:10331000E9CFE091010381E08E0F8093010380915A
:10332000BB00F0E0E252FD4F808390910103809159
:1033300000039817C8F285E8D8CFE091010381E037
:103340008E0F809301038091BB00F0E0E252FD4FAD
:1033500080838091030381115CCF81E08093FE0222
:1033600084EA8093BC001092240326CF85EC8093DE
:10337000BC001092240380919802803230F4E091D6
:103380009802F0E0E858FD4F10826091980270E0DA
:10339000E091B102F091B20288E792E009951092B3
:1033A00098020ACF1092020334CFCF93DF9310928A
:1033B0002D0310922C0388EE93E0A0E0B0E0809300
:1033C0002E0390932F03A0933003B09331038AE12F
:1033D00092E090932B0380932A03E8E3F3E01192A9
:1033E000B3E0EC34FB07D9F710924F03109250036F
:1033F00080914F0390915003EAE3F3E082E1DF0113
:103400001D928A95E9F7C1E0C0934C030E94E40441
:103410001092380384E18093390310924E03109286
:10342000500310924F0310925103109254031092C4
:10343000550310925603109257038FEF90E0A0E0CF
:10344000B0E08093580390935903A0935A03B0932C
:103450005B0310925C0310925D0310925E03109266
:103460005F038093600390936103A0936203B09322
:10347000630340E050E86FEF7FEF409364035093A5
:10348000650360936603709367038FEF9FE7A0E087
:10349000B0E08093680390936903A0936A03B093AC
:1034A0006B0340936C0350936D0360936E037093B2
:1034B0006F038093700390937103A0937203B09392
:1034C00073031092530310925203C0934D0386EA84
:1034D00092E09093370380933603C2E09FB7F8944D
:1034E000C093E9008091F2009FBF811103C1109247
:1034F000CB071092CA0788EE93E0A0E0B0E080937B
:10350000CC079093CD07A093CE07B093CF078CE262
:1035100092E09093C9078093C807109250071092C9
:10352000510710925A0710925B0710925C07109295
:103530005D0710925E0710925F071092600710926D
:103540006107E2E6F7E084E6DF011D928A95E9F77C
:103550001092C6071092C70762E087E10E94C1037C
:1035600010922D0710922E07EFE2F7E080E2DF01C4
:103570001D928A95E9F710924F0761E084E00E945E
:10358000C10361E081E00E94C10360E080E00E942D
:10359000C10361E081E00E94C1031092A4068FE3A1
:1035A000E9EAF6E0DF01982F1D929A95E9F7E8EE37
:1035B000F6E0DF01982F1D929A95E9F71092270700
:1035C0001092280795E09093290710922A071092ED
:1035D0002B0791E090932C07109287061092880693
:1035E0001092890610928A0610928B0610928C0611
:1035F00010928D0610928E0610928F0610929506EC
:1036000010929406109297061092960610929906C0
:1036100010929A0610929B0610929C0610929D069C
:1036200010929E0610929F061092A0061092A1067C
:103630001092A2061092A306109230062AE332E0FE
:1036400030933206209331061092330698EC909313
:1036500034069AEF909335069BEF909336062CEF45
:10366000209337069DEF909338069FEF909339068D
:103670001092450610924406109247061092460694
:10368000E8E4F6E0DF01982F1D929A95E9F7109291
:10369000D9049FE09093DA04EAE0F1E0ABEDB4E006
:1036A00001900D929A95E1F7EAEEF4E0DF011D92A8
:1036B0008A95E9F7E9E2F5E0DF011D922A95E9F73D
:1036C00010922506E6E2F6E08AE0DF011D928A9577
:1036D000E9F7C9EDD4E0CE01895D944021962091AF
:1036E000DA042817190661F05CF061E089810E9414
:1036F000C103F1CF0E942A02892B09F0EFCEF7CE49
:103700008FE3E9E1F1E0A4E7B3E001900D928A953F
:10371000E1F78FE3E3EBF3E0DF01982F1D929A9539
:10372000E9F7E8E5F1E0A2EFB3E0982F01900D9200
:103730009A95E1F7E1E3F4E0DF011D928A95E9F75C
:103740008AE493E090937104809370048DE390E099
:1037500090937304809372048BEC90E090937504C3
:103760008093740410927604109277041092780477
:103770001092790410927A0410927B0410927C04C7
:1037800010927D0410927E0410927F0481E0809359
:103790008004109281042EE130E030938304209362
:1037A00082042AEF30E03093850420938404309320
:1037B00087042093860428E131E030938904209324
:1037C000880430938B0420938A0410928C049AE02E
:1037D00090938D042EE020938E0427E120938F0494
:1037E00026E12093900422E0209391041092920409
:1037F0001092930480939404E5E9F4E020E2DF0161
:103800001D922A95E9F7E5EBF4E028E1DF011D922E
:103810002A95E9F71092CD0420E52093CE04209359
:10382000CF041092D0048093D1048093D20480936B
:10383000D3048093D4048093D5049093D6048093CA
:10384000D7041092D80480E48093E20788EC97E0D4
:103850009093E4078093E30721E42093DB079093A0
:10386000DD078093DC0722E42093D4079093D607EA
:103870008093D5071092E9071092EA071092EB07A0
:103880001092EC071092ED071092EE071092EF07DE
:103890001092F00710920408109203081092060884
:1038A00010920508DF91CF910895CF93DF9300D058
:1038B000CDB7DEB7789484B5826084BD84B581606D
:1038C00084BD85B5826085BD85B5816085BD8091EB
:1038D0006E00816080936E00109281008091810063
:1038E000826080938100809181008160809381005B
:1038F000809180008160809380008091910082603F
:1039000080939100809191008160809391008091DB
:1039100090008160809390008091C10084608093CA
:10392000C1008091C10082608093C1008091C1007C
:1039300081608093C1008091C30081608093C30047
:103940008091C00082608093C0008091C20081603D
:103950008093C20080917A00846080937A00809185
:103960007A00826080937A0080917A0081608093EF
:103970007A0080917A00806880937A001092B90270
:103980001092A6021092B8028091D70081608093B5
:10399000D70080EA8093D80089B5806189BD89B558
:1039A000826089BD89B5282F21702A8380FFFACFD4
:1039B00061E070E080E090E00E942D048091D800EA
:1039C0008F7C80618093D8008091E000807F80931D
:1039D000E0008091E1008E7E8093E1008DE0809395
:1039E000E200559A209A5D98289868EE73E080E08E
:1039F00090E00E942D0468EE73E080E090E00E9469
:103A00002D0410924D0381E89FEFAFEFBFEF80933D
:103A10006C0390936D03A0936E03B0936F038FE7D5
:103A200090E0A0E0B0E08093700390937103A093C6
:103A30007203B093730381E090E8AFEFBFEF809320
:103A4000640390936503A0936603B09367038FEFBD
:103A50009FE7A0E0B0E08093680390936903A09390
:103A60006A03B0936B03BE016F5F7F4F88EE93E0F4
:103A70000E9486158981853609F060C210E000E059
:103A8000B8016C587C4FC8010E948615B8016D546E
:103A90007C4FC8018C599F4F0E948615B8016E500B
:103AA0007C4FC80188539F4F0E948615B8016F5CF8
:103AB0007B4FC801845D9E4F0E9486150F5F1F4F8C
:103AC0000F331105E9F681E991E00E94701590939A
:103AD00071048093700483E991E00E9470159093C3
:103AE00073048093720485E991E00E9470159093AD
:103AF00075048093740466E774E087E991E00E949E
:103B000086156AE774E081EA91E00E94861567E70E
:103B100074E088E991E00E9486156BE774E082EA20
:103B200091E00E94861568E774E089E991E00E94BF
:103B300086156CE774E083EA91E00E94861569E7D8
:103B400074E08AE991E00E9486156DE774E084EAEA
:103B500091E00E9486156EE774E08AEA91E00E9487
:103B6000861560E874E08BEA91E00E9486158091EA
:103B7000800480937F0461E874E082EC91E00E940D
:103B8000861584EC91E00E947015909383048093D5
:103B900082046CE874E086EC91E00E94861587EC64
:103BA00091E00E947015909385048093840489ECC1
:103BB00091E00E94701590938904809388046DE8C9
:103BC00074E08BEC91E00E9486156EE874E08CEC5A
:103BD00091E00E9486156FE874E08DEC91E00E9400
:103BE000861560E974E08EEC91E00E94861561E92B
:103BF00074E08FEC91E00E94861561ED74E080ED39
:103C000091E00E94661562ED74E081ED91E00E9402
:103C1000661563ED74E082ED91E00E94661564ED37
:103C200074E083ED91E00E94661584ED91E00E94BE
:103C30007015909387048093860486ED91E00E942E
:103C4000701590938B0480938A0404EF11E0B801FF
:103C50006F557D4FC8010E9486150F5F1F4F0431BD
:103C600032E01307A1F7B8016F557D4FC8010E94DC
:103C700086150F5F1F4F0C3242E01407A1F76DEC61
:103C800074E084E392E00E94861565ED74E085E3BC
:103C900092E00E94661566ED74E086E392E00E9471
:103CA000861567ED74E087E392E00E94661582EE68
:103CB00097E00E94441510ECC12E1CEFD12E1BE999
:103CC000E12EFF24F394C092E507D092E607E0923C
:103CD000E707F092E80740E050E064EB72E482EE20
:103CE00097E00E947C148BED97E00E944415C092EF
:103CF000DE07D092DF07E092E007F092E10740E0B4
:103D000050E064EB72E48BED97E00E947C1484ED4C
:103D100097E00E944415C092D707D092D807E0924E
:103D2000D907F092DA0740E050E064EB72E484EDEA
:103D300097E00E947C148CE08093B8001092A70258
:103D400088EB9BE0A0E0B0E08093260390932703EC
:103D5000A0932803B093290381E08093250310E00A
:103D600060E0812F0E94EF0C1F5F1E33C9F70E9495
:103D7000D1019091270730912807E4E7F3E08A8189
:103D800021912250223030F42FEF280F911101C0E1
:103D9000922F382F8F5F8F3399F7309328079093A6
:103DA0002707809180048823E1F00E9496138111F7
:103DB00006C068EE73E080E090E00E942D0410E001
:103DC0000E9496138111BFC064E670E080E090E02D
:103DD0000E942D041B3009F0B4C010928004109290
:103DE0007F0422242A94312C0E9402052B013C01DD
:103DF0008091ED079091EE07A091EF07B091F00749
:103E00008093E9079093EA07A093EB07B093EC0740
:103E100061E081E00E94930360E084E00E949303EC
:103E200061E084E00E94930360E081E00E949303DC
:103E300007E110E0812C912C5401E8E9F2E0849133
:103E4000E9E2F2E0E490EAE0F2E0F490FF2009F425
:103E500082C081110E944703EF2DF0E0EE0FFF1F9B
:103E6000E450FE4FA591B4918C91E82231E020E01E
:103E700009F430E0832F922F092E000CAA0BBB0B04
:103E8000002E04C0880F991FAA1FBB1F0A94D2F7E7
:103E9000882A992AAA2ABB2A61E081E00E9493031A
:103EA00060E081E00E9493030150110908F0C5CF42
:103EB0008092ED079092EE07A092EF07B092F00784
:103EC0008091E9079091EA07A091EB07B091EC0788
:103ED00088159905AA05BB0529F480914F07882309
:103EE00009F458C0EDE2EE2EE7E0FE2E10E000E00F
:103EF000F2E0DF2E202F8091ED079091EE07A09148
:103F0000EF07B091F007002E04C0B695A7959795DE
:103F100087950A94D2F7AC01BD0140955095609504
:103F20007095642F6170F70132816317F1F080FFA3
:103F300015C0F2E0DF1213C0D12C11C00E94DA15B7
:103F4000B6CE1F5F3DCF1B3009F44BCF0E94171335
:103F50000E94E61246CF90E080E08ECFDA80822F7A
:103F60000E94770DD70112968C930F5F1F4FBFEF02
:103F7000EB1AFB0A0831110509F0BCCFE1E0DE12B3
:103F8000F0C080919404833011F0863019F484E0FD
:103F9000809394048091B802F82FF170BF2E80FDB9
:103FA00073C680914F0310915003823008F4E2C031
:103FB0008091AC029091AD02A091AE02B091AF029F
:103FC000892B8A2B8B2B61F46FEF80E00E94EF0C22
:103FD0004092AC025092AD026092AE027092AF027B
:103FE000123008F4F2C08091A8029091A902A09129
:103FF000AA02B091AB02892B8A2B8B2B61F46FEF55
:1040000081E00E94EF0C4092A8025092A9026092B7
:10401000AA027092AB028091D5048111FEC020E00B
:1040200040E050E0BA0182E10E942B0780917F04BA
:10403000882309F434C49091CE048091CF0498175A
:1040400021F08091D10481112AC48091940486309A
:1040500009F01DC380919906811105C00E9491113C
:1040600081E0809399060E94C21080917E04209185
:1040700088063091890640918A0650918B068830D7
:1040800008F408C36091F9077091FA078091FB0763
:104090009091FC070E94EB2920E030E048EC52E4CC
:1040A0000E94142C0E94422B0E94CF2A70939106EA
:1040B0006093900620918C0630918D0640918E067B
:1040C00050918F066091F5077091F6078091F70780
:1040D0009091F8070E94EB2920E030E048EC52E490
:1040E0000E94142C0E94422B0E94CF2A70939306A8
:1040F000609392062091820430918304409190064F
:104100005091910657FF03C05195419551094217AF
:10411000530724F41092910610929006AB0177FF9A
:1041200004C044275527461B570B4217530724F456
:1041300010929306109292068091900690919106AB
:1041400020919A06213009F0AEC22091920630915A
:10415000930631952195310930939106209390066D
:10416000BDC2D11017CF80919404873009F012CFCF
:1041700082E00ECF811134CF8091AC029091AD02DC
:10418000A091AE02B091AF02181619061A061B06CE
:104190000CF026CFA3019201281B390B4A0B5B0BB5
:1041A000DA01C90185369105A105B1050CF418CFD6
:1041B00060E080E00E94EF0C1092AC021092AD0221
:1041C0001092AE021092AF020BCF111124CF80914A
:1041D000A8029091A902A091AA02B091AB02181670
:1041E00019061A061B060CF016CF481A590A6A0A55
:1041F0007B0A35E643165104610471040CF40BCFBD
:1042000060E081E00E94EF0C1092A8021092A902D7
:104210001092AA021092AB02FECE75E0872E912C6E
:10422000412C512C320110E000E00E94B20140917B
:104230005E0750915F0760916007709161076C01A4
:10424000990FEE08FF08DB01CA010996A11DB11DF7
:104250008C159D05AE05BF057CF0495051096109DB
:104260007109C416D506E606F70634F00F5F1F4F36
:104270004C0C5D1C6E1C7F1C41E0841A9108A9F651
:104280000115110551F09801110F440B550BC30195
:10429000B2010E94882969017A019091CE0480912F
:1042A000CF04981720F08091D304811121C010E031
:1042B00000E020918D0430E0021713076CF40E9497
:1042C000B201092E000CAA0BBB0BC80ED91EEA1EA8
:1042D000FB1E0F5F1F4FEDCF2F5F3F4F032E000CD4
:1042E000440B550BC701B6010E94882969017A0168
:1042F000C0925E07D0925F07E0926007F09261077C
:104300008091740490917504AC014E5C5F4F052E52
:10431000000C660B770BC416D506E606F70654F4B8
:10432000C297092E000CAA0BBB0B8C159D05AE0580
:10433000BF0544F05FEDC51653E0D506E104F10476
:104340000CF4EBC08091CE049091CF04891718F43F
:104350008F5F8093CE0480918C048D7F8130A1F497
:10436000809158078111DCC0809170049091710494
:104370004497092E000CAA0BBB0B61E0C816D906A6
:10438000EA06FB060CF0DFC080918C048230A0F0BE
:10439000809159078111DEC080917204909173045D
:1043A0000A96092E000CAA0BBB0B61E08C159D052B
:1043B000AE05BF050CF0E1C00091740410917504C6
:1043C000C801012E000CAA0BBB0B8C159D05AE0578
:1043D000BF050CF4E0C08090720490907304C40197
:1043E000092C000CAA0BBB0BA7019601281B390B4B
:1043F0004A0B5B0BCA01B9010E94072B6B017C01C0
:10440000B80168197909072E000C880B990B0E94D6
:10441000072B9B01AC01C701B6010E945D2A9B01DD
:10442000AC0160E070E080E89FE30E94EB2920E0AF
:1044300030E040E053EC0E94142C0E94CF2A062E5C
:10444000000C770B653671050CF09EC07093570712
:1044500060935607809156079091D204992389F072
:104460003091CE042091CF04909150073213C4C0F4
:10447000992309F4E3C01092500781E08093D0049F
:1044800080E0C82E082E000CDD08EE08FF084091E1
:104490005A0750915B0760915C0770915D074C155E
:1044A0005D056E057F0529F12091CE049091CF0422
:1044B000291708F0D0C020915607309157071216DF
:1044C000130634F490915007911102C08093C707EE
:1044D00081E08093D00421E0B701A60182E10E942F
:1044E0002B07C0925A07D0925B07E0925C07F092CC
:1044F0005D078091C607E82FEE0FFF0BEE59F84FCE
:1045000020915607309157073183208381330CF077
:10451000BBC08F5F8093C60789CD1092CE041BCF9E
:10452000813009F031CF80917004909171044497EB
:10453000092E000CAA0BBB0BC816D906EA06FB060F
:104540000CF022CF60E080918F040E94770D809361
:1045500058071ACF813009F02FCF809172049091C3
:1045600073040A96092E000CAA0BBB0B8C159D0533
:10457000AE05BF050CF020CF60E080918F040E9453
:10458000770D8093590718CF81E89FEF90935707D5
:10459000809356075FCFA7019601281B390B4A0B62
:1045A0005B0BCA01B9010E94072B6B017C01609172
:1045B000700470917104601B710B072E000C880B46
:1045C000990B0E94072B9B01AC01C701B6010E9409
:1045D0005D2A20E030E040E053E40E94142C0E9469
:1045E000CF2A062E000C770B6C393FEF73070CF0C7
:1045F0002DCF8FE790E0CACF87FF13C0321788F422
:104600008091C70718166CF440915E0750915F07C0
:104610006091600770916107433351056105710531
:1046200014F4992359F080918F0461E0911160E0B6
:104630000E94770D81E08093500722CFE091C6075A
:1046400080916207E13309F41CCFEE0FFF0BEC59A8
:10465000F84F808116CF29134CCF1092C7071092C4
:1046600050078091D304882329F020E040E050E0F7
:10467000BA0134CF21E0B701A60182E10E942B07E5
:1046800081E08093D0042DCF1092C607CFCC10923A
:104690009906E9CC6091F1077091F2078091F307D8
:1046A0009091F407F7CC223061F4919581959109AE
:1046B0009093910680939006809192069091930634
:1046C0000AC0233081F420919206309193063093F2
:1046D0009106209390069195819591099093930668
:1046E0008093920609C0243079F4919581959109BF
:1046F00090939106809390068091A3068823B9F049
:1047000081508093A30640C0253041F42091920649
:1047100030919306319521953109D9CF263061F238
:10472000273051F7209192063091930615CD3091A4
:1047300090062091910680919806811149C1832F9E
:10474000922F97FF03C09195819591092091840440
:10475000309185042817390784F080919206909152
:10476000930697FF03C09195819591092091860446
:1047700030918704281739073CF461E08091900458
:104780000E94770D80939806609190067091910633
:1047900080919406909195068617970709F449C071
:1047A000072E000C880B990B0E94072B20919B066B
:1047B00030919C0640919D0650919E060E945D2A74
:1047C00020E03EEF4FEF56E40E94142C0E94CF2AC7
:1047D000072E000C880B990B2FEB31E044E653E0D9
:1047E0000E94AF06609570958B01770F220B330BFB
:1047F00080913E0390913F03092E000CAA0BBB0B46
:10480000081719072A073B0749F060933E031093E6
:104810003F0381E080934C030E94E4048091900662
:1048200090919106909395068093940681E08093F1
:10483000D0046091920670919306809196069091B3
:1048400097068617970759F1072E000C880B990BCE
:104850000E94072B20919F063091A0064091A1064F
:104860005091A2060E945D2A20E03EEF4FEF56E4F1
:104870000E94142C0E94CF2AAB01770F660B770B96
:1048800021E081E10E942B0780919206909193068E
:10489000909397068093960681E08093D0040E94BF
:1048A00002052B013C0180919404833009F41BC163
:1048B00008F0BBC0813009F4F9C0823009F402C1AC
:1048C0008091D0048823D9F080914C038823A9F0EB
:1048D00010924C0364E170E088E393E00E945F046F
:1048E0001816190654F481E08093E9008091F200D3
:1048F000882319F08AE38093E8001092D0040E9484
:1049000002056B017C0105E010E064E6962E8091C3
:1049100025068E3308F082C18F5F80932506809133
:104920002506282F30E0F901EC58FC4F67ADD9017E
:10493000A752BB4F51969C91691730F5E354FF4F36
:104940009081992309F1220F331F220F331FF901A0
:10495000E75DFA4F4080518062807380A701960125
:10496000241935094609570929013A01999D9001F1
:104970001124032E000C440B550B421653066406FB
:10498000750614F00E94EF0C0150110909F0BFCF19
:1049900039E0C32ED12C77247A946624639447E0BF
:1049A000842E8091440690914506FC01E05DF94F0C
:1049B0007286009709F035C130913A06209133068E
:1049C000321339C10196909345068093440637C14E
:1049D000813009F0D9CE832F922F97FF03C0919594
:1049E0008195910920918404309185048217930761
:1049F0000CF0CACE809192069091930697FF03C067
:104A000091958195910920918604309187048217B0
:104A100093070CF0B9CE60E0809190040E94770D6E
:104A2000809398068091D6046CCE853009F4D0C06E
:104A300008F4AFC0863009F043CF0E940B0200910A
:104A40002A0710E0C8018C55994F7C01DD24D394CE
:104A500080912B078017110609F00CF491C0F80122
:104A6000EC58FC4F808182508230D0F4F701EC5B2F
:104A7000FF4FD70115968C91909129072081213005
:104A800009F0C6C09101291B3109821713060CF4E5
:104A9000BBC01082D70115966C91802F0E94EF0C3D
:104AA0000F5F1F4FBFEFEB1AFB0AD2CF4092A50654
:104AB0005092A6066092A7067092A80685E08093A1
:104AC0009404FECE0E94270E80912C07882309F4BF
:104AD000F7CE4092A5065092A6066092A706709265
:104AE000A80683E0ECCF8091A5069091A606A09140
:104AF000A706B091A806A3019201281B390B4A0B07
:104B00005B0BDA01C90181329E44A105B1050CF4A9
:104B1000D7CE8091D704882309F4D2CE0E940B020D
:104B200000912A0710E080912B078017110601F1F0
:104B3000FCF0F801EC58FC4F808182508230A8F4E0
:104B40000E94622960E071E00E94A22CF82E682F7A
:104B5000802F0E94EF0CF801EC55F94FDF01AC5BA0
:104B6000BF4F8F2D81708C93F5820F5F1F4FDBCF6E
:104B700080912C07882309F4A3CE86E080939404C7
:104B80004092A5065092A6066092A7067092A806CB
:104B900097CE0E940B0200912A0710E080912B070C
:104BA0008017110671F06CF0F801EC58FC4F808111
:104BB000823021F46FEF802F0E94EF0C0F5F1F4FA8
:104BC000EDCF80912C07882309F47ACE87E0D6CFE9
:104BD0008091A5069091A606A091A706B091A8067F
:104BE000481A590A6A0A7B0A41E1441647E2540608
:104BF000610471040CF464CE0E94270E80912C078E
:104C0000882309F45DCE6DCF890FF701858342CFEC
:104C1000981710F0D0823ECF891BF7CF109225064F
:104C20007ECE81309105C1F530913B06209134064E
:104C3000321708F0C7CE109245061092440621E0C4
:104C4000C21AD10809F0ADCE809146069091470670
:104C500018161906CCF462E370E080E090E00E9440
:104C60002D0480914606909147068530910509F400
:104C70005BC10CF0D8C08230910509F41EC10CF064
:104C80007DC0019709F4F8C080E090E0892B09F419
:104C9000ABC80E940000A8C88830910509F092CEE8
:104CA00080913B069091350689130AC010929404B6
:104CB00080913C0690E09093470680934606BBCFD8
:104CC00090913606891709F4B6CF9091370689136B
:104CD00007C060913D0680913C060E94EF0CABCF6F
:104CE000809194048530B9F00091270710E08091FD
:104CF00028078017110679F074F0F801EC58FC4F82
:104D000080818250823020F460E0802F0E94EF0C7E
:104D10000F5F1F4FECCF6092940480913B069091FF
:104D20003406982E991A989C902C1124891B990B63
:104D3000889E8001899E100D1124005D194F90E31B
:104D4000E92E96E0F92E27E0522E590CD7011C9639
:104D50006C91F801808D861741F0892D0E94EF0C2F
:104D6000D7011C968C91F801808F0F5F1F4FFFEFCA
:104D7000EF1AFF0A93945910E9CF5DCF8330910564
:104D800009F4BEC0049709F07FCF87E692E00E9445
:104D9000A40180917E04209188063091890640917B
:104DA0008A0650918B06883008F4B5C06091F907E7
:104DB0007091FA078091FB079091FC070E94EB2904
:104DC00042E00E942F0F85E692E00E94A40120910C
:104DD0008C0630918D0640918E0650918F06609121
:104DE000F5077091F6078091F7079091F8070E94F8
:104DF000EB2942E00E942F0F83E692E00E94A4017B
:104E000080919006909191060E94140F81E692E0A5
:104E10000E94A40180919206909193060E94140F23
:104E20008EE592E047C08B30910509F4F1C164F43E
:104E30008630910509F41DC1089709F025CF10921D
:104E400047061092460620CF8C30910509F4E3C145
:104E50008F3F910509F018CF109247061092460631
:104E600081E08093940460E08B2D0E94EF0CB3945A
:104E70003EE3B312F8CF08CF8DE492E00E94A40184
:104E80008FE2E82E87E0F82E0EE417E0D7018D912F
:104E90007D0190E00E94140F8BE492E00E94A40137
:104EA0000E151F0599F78091460790E00E94140F98
:104EB00088E492E00E94A401E7CE85E592E00E949A
:104EC000A4010AEE14E0F80161918F0170E090E016
:104ED00080E04AE00E94CB0E83E592E00E94A401AC
:104EE00028E235E02017310771F76091280570E05E
:104EF00090E080E04AE00E94CB0E80E592E0DACFBD
:104F00008BE592E00E94A4010E94B2010E94140F5E
:104F100088E592E0CFCF6091F1077091F207809120
:104F2000F3079091F4074ACF8EE692E00E94A40125
:104F30006FE384E793E00E94EA0F6FE383EB93E073
:104F40000E94EA0F6FE382EF93E00E94EA0F6FE3A3
:104F500081E394E00E94EA0F8091700490917104C3
:104F60000E94290F80917204909173040E94290F6E
:104F700080917404909175040E94290F64E086E783
:104F800094E00E94EA0F64E08AE794E00E94EA0F4E
:104F900080917E040E94DF0F809180040E94DF0FC9
:104FA000809181040E94DF0F80918204909183049C
:104FB0000E94290F80918C040E94DF0F809184044D
:104FC000909185040E94290F809188049091890412
:104FD0000E94290F80918D040E94DF0F80918E0422
:104FE0000E94DF0F80918F040E94DF0F8091900458
:104FF0000E94DF0F809191040E94DF0F60E285E93B
:1050000094E00E94EA0F8091D1040E94DF0F80910A
:10501000D2040E94DF0F8091D3040E94DF0F8091A1
:10502000D4040E94DF0F80918604909187040E942F
:10503000290F80918A0490918B040E94290F68E1C6
:1050400085EB94E00E94EA0F8091CD040E94DF0F6F
:105050008091D5040E94DF0F8091D6040E94DF0F5B
:105060008091D7040E94DF0F8AE692E00E94A4019B
:10507000E6CE109292046FE384E793E00E94450528
:105080006FE383EB93E00E9445056FE382EF93E0CB
:105090000E9445056FE381E394E00E9445050E946C
:1050A000580590937104809370040E945805909362
:1050B0007304809372040E94580590937504809342
:1050C000740464E086E794E00E94450564E08AE7A2
:1050D00094E00E9445050E940E0580937E040E9484
:1050E0000E05809380040E940E05809381040E9427
:1050F000580590938304809382040E940E05809348
:105100008C040E94580590938504809384040E9427
:10511000580590938904809388040E940E0580931B
:105120008D040E940E0580938E040E940E058093CC
:105130008F040E940E05809390040E940E058093B8
:10514000910460E285E994E00E9445050E940E0505
:1051500091E0811101C090E09093D1040E940E056E
:1051600091E0811101C090E09093D2040E940E055D
:1051700091E0811101C090E09093D3040E940E054C
:1051800091E0811101C090E09093D4040E945805F1
:1051900090938704809386040E94580590938B0413
:1051A00080938A0468E185EB94E00E9445050E94A3
:1051B0000E058093CD040E940E0591E0811101C07F
:1051C00090E09093D5040E940E058093D6040E942F
:1051D0000E0591E0811101C090E09093D7040E94E8
:1051E0000E058A3219F081E0809392048091920436
:1051F000882349F087E792E00E94A4010E94D10130
:105200000E94E6121CCE0E94DA1581E792E0F4CFEC
:105210008DE792E02BCF88E198E00FB6F894A8953F
:10522000809360000FBE9093600009CE8F929F9292
:10523000AF92BF92CF92DF92EF92FF92CF93DF9324
:10524000EC01688179818A819B81611571058105F5
:10525000910521F464E279ED8BE597E02DE133EFE0
:1052600041E050E00E94882949015A019B01AC01AC
:10527000A7EAB1E40E94A7296B017C01ACEEB4EF70
:10528000A50194010E94B529DC01CB018C0D9D1D67
:10529000AE1DBF1DB7FF03C00197A109B0488883A9
:1052A0009983AA83BB839F77DF91CF91FF90EF9083
:1052B000DF90CF90BF90AF909F908F9008950E9405
:1052C0001629089580E091E00E9416290895B0E023
:1052D000A0E08093000190930101A0930201B0939C
:1052E00003010895F999FECF92BD81BDF89A9927DF
:1052F00080B50895262FF999FECF1FBA92BD81BDC2
:1053000020BD0FB6F894FA9AF99A0FBE0196089547
:10531000052E97FB1EF400940E949F2957FD07D08D
:105320000E94BA2907FC03D04EF40C949F29509593
:105330004095309521953F4F4F4F5F4F0895909581
:105340008095709561957F4F8F4F9F4F08950E9474
:10535000DC29A59F900DB49F900DA49F800D911DF9
:1053600011240895B7FF0C94A7290E94A729821B36
:10537000930B0895A1E21A2EAA1BBB1BFD010DC0C1
:10538000AA1FBB1FEE1FFF1FA217B307E407F507F5
:1053900020F0A21BB30BE40BF50B661F771F881FD1
:1053A000991F1A9469F760957095809590959B0167
:1053B000AC01BD01CF010895A29FB001B39FC00110
:1053C000A39F700D811D1124911DB29F700D811D31
:1053D0001124911D08955058BB27AA270E94032A23
:1053E0000C94BD2B0E94AF2B38F00E94B62B20F0FE
:1053F00039F49F3F19F426F40C94AC2B0EF4E0958D
:10540000E7FB0C947D2BE92F0E94CE2B58F3BA17A3
:10541000620773078407950720F079F4A6F50C94CA
:10542000082C0EF4E0950B2EBA2FA02D0B01B9011C
:1054300090010C01CA01A0011124FF27591B99F00A
:10544000593F50F4503E68F11A16F040A22F232F16
:10545000342F4427585FF3CF469537952795A79566
:10546000F0405395C9F77EF41F16BA0B620B730B0D
:10547000840BBAF09150A1F0FF0FBB1F661F771F7E
:10548000881FC2F70EC0BA0F621F731F841F48F433
:10549000879577956795B795F7959E3F08F0B0CFBC
:1054A0009395880F08F09927EE0F979587950895A3
:1054B0000E94592B08F481E008950E94712A0C94EF
:1054C000BD2B0E94B62B58F00E94AF2B40F029F460
:1054D0005F3F29F00C947D2B51110C94092C0C94F6
:1054E000AC2B0E94CE2B68F39923B1F3552391F393
:1054F000951B550BBB27AA2762177307840738F043
:105500009F5F5F4F220F331F441FAA1FA9F335D09F
:105510000E2E3AF0E0E832D091505040E695001C53
:10552000CAF72BD0FE2F29D0660F771F881FBB1F0D
:10553000261737074807AB07B0E809F0BB0B802DEB
:10554000BF01FF2793585F4F3AF09E3F510578F017
:105550000C947D2B0C94092C5F3FE4F3983ED4F31C
:10556000869577956795B795F7959F5FC9F7880FEB
:10557000911D9695879597F90895E1E0660F771F3D
:10558000881FBB1F621773078407BA0720F0621BCE
:10559000730B840BBA0BEE1F88F7E09508950E94F9
:1055A000D62A6894B1110C94092C08950E94D62B28
:1055B00088F09F5798F0B92F9927B751B0F0E1F0D4
:1055C000660F771F881F991F1AF0BA95C9F714C084
:1055D000B13091F00E94082CB1E008950C94082C91
:1055E000672F782F8827B85F39F0B93FCCF38695BD
:1055F00077956795B395D9F73EF49095809570951A
:1056000061957F4F8F4F9F4F0895E89409C097FB96
:105610003EF490958095709561957F4F8F4F9F4F89
:105620009923A9F0F92F96E9BB279395F6958795CD
:1056300077956795B795F111F8CFFAF4BB0F11F490
:1056400060FF1BC06F5F7F4F8F4F9F4F16C0882337
:1056500011F096E911C0772321F09EE8872F762F6D
:1056600005C0662371F096E8862F70E060E02AF0AE
:105670009A95660F771F881FDAF7880F969587959A
:1056800097F908950E94F02B90F09F3748F49111FC
:1056900016F00C94092C60E070E080E89FEB089510
:1056A00026F41B16611D711D811D0C94832B0C9417
:1056B0009E2B990F0008550FAA0BE0E8FEEF161677
:1056C0001706E807F907C0F012161306E407F507F6
:1056D00098F0621B730B840B950B39F40A2661F06A
:1056E000232B242B252B21F408950A2609F4A1400D
:1056F000A6958FEF811D811D089597F99F6780E81A
:1057000070E060E00895882371F4772321F09850C9
:10571000872B762F07C0662311F499270DC090516F
:10572000862B70E060E02AF09A95660F771F881F3D
:10573000DAF7880F9695879597F908959F3F31F08E
:10574000915020F4879577956795B795880F911DAF
:105750009695879597F908959FEF80EC089500241A
:105760000A941616170618060906089500240A94C6
:1057700012161306140605060895092E0394000C4C
:1057800011F4882352F0BB0F40F4BF2B11F460FFDB
:1057900004C06F5F7F4F8F4F9F4F089557FD905804
:1057A000440F551F59F05F3F71F04795880F97FBE5
:1057B000991F61F09F3F79F087950895121613069F
:1057C0001406551FF2CF4695F1DF08C016161706CE
:1057D0001806991FF1CF8695710561050894089503
:1057E0000E94D62BA0F0BEE7B91788F4BB279F38DC
:1057F00060F41616B11D672F782F8827985FF7CFB2
:10580000869577956795B11D93959639C8F3089558
:10581000E894BB2766277727CB0197F908950E9464
:10582000592B08F48FEF08950E94272C0C94BD2B60
:105830000E94AF2B38F00E94B62B20F0952311F078
:105840000C947D2B0C94AC2B11240C94092C0E94ED
:10585000CE2B70F3959FC1F3950F50E0551F629FBB
:10586000F001729FBB27F00DB11D639FAA27F00DB9
:10587000B11DAA1F649F6627B00DA11D661F829FE0
:105880002227B00DA11D621F739FB00DA11D621FC5
:10589000839FA00D611D221F749F3327A00D611DE2
:1058A000231F849F600D211D822F762F6A2F1124C4
:1058B0009F5750409AF0F1F088234AF0EE0FFF1FF7
:1058C000BB1F661F771F881F91505040A9F79E3F4E
:1058D000510580F00C947D2B0C94092C5F3FE4F370
:1058E000983ED4F3869577956795B795F795E795A4
:1058F0009F5FC1F7FE2B880F911D9695879597F9AD
:1059000008950E94592B880B990B0895DB018F9302
:105910009F930E94A729BF91AF91A29F800D911DD7
:10592000A39F900DB29F900D11240895991B79E0CB
:1059300004C0991F961708F0961B881F7A95C9F71F
:105940008095089597FB072E16F4009407D077FDF5
:1059500009D00E94BC2C07FC05D03EF4909581959F
:105960009F4F0895709561957F4F0895EE0FFF1F2B
:105970000590F491E02D0994AA1BBB1B51E107C0CF
:10598000AA1FBB1FA617B70710F0A61BB70B881FCF
:10599000991F5A95A9F780959095BC01CD0108955E
:1059A0000F931F93CF93DF938230910510F482E021
:1059B00090E0E0910908F0910A0830E020E0B0E0C2
:1059C000A0E0309799F42115310509F44AC0281B4D
:1059D000390B24303105D8F58A819B816115710519
:1059E00089F1FB0193838283FE0111C040815181C3
:1059F0000281138148175907E0F04817590799F4B5
:105A0000109761F012960C93129713961C9332968E
:105A1000CF01DF91CF911F910F9108950093090855
:105A200010930A08F4CF2115310551F0421753079E
:105A300038F0A901DB019A01BD01DF01F801C1CFF6
:105A4000EF01F9CF90930A0880930908CDCFFE01AA
:105A5000E20FF31F819391932250310939832883F8
:105A6000D7CF2091070830910808232B41F42091CB
:105A70000601309107013093080820930708209110
:105A80000401309105012115310541F42DB73EB7D0
:105A90004091080150910901241B350BE091070842
:105AA000F0910808E217F307A0F42E1B3F0B28170C
:105AB000390778F0AC014E5F5F4F2417350748F087
:105AC0004E0F5F1F509308084093070881939193EE
:105AD0009FCFF0E0E0E09CCFCF93DF930097E9F019
