:100000000C944F020C9477020C9477020C947702B4
:100010000C9477020C9477020C9477020C9477027C
:100020000C9477020C9477020C943A1A0C94A91A47
:100030000C9477020C9477020C9477020C9477025C
:100040000C9477020C9477020C9477020C9477024C
:100050000C9477020C9477020C9477020C94D51CC4
:100060000C9477020C9477020C9477020C9477022C
:100070000C9477020C9477020C9477020C9477021C
:100080000C9477020C9477020C9477020C9477020C
:100090000C941F1D0C9477020C9477020C94770239
:1000A0000C9477020C9477020C9477020000000005
:1000B0000000000000000000000000002A002B00EB
:1000C0002800000000000000000000000000000008
:1000D0000000000000000000000000000000000020
:1000E0000000000000000000000000002C001E02C4
:1000F00034022002210222022402340026022702B6
:1001000025022E0236002D003700380027001E0081
:100110001F002000210022002300240025002600CB
:100120003302330036022E00370238021F02040267
:10013000050206020702080209020A020B020C026B
:100140000D020E020F02100211021202130214021B
:10015000150216021702180219021A021B021C02CB
:100160001D022F003100300023022D023500040053
:10017000050006000700080009000A000B000C003B
:100180000D000E000F0010001100120013001400EB
:10019000150016001700180019001A001B001C009B
:1001A0001D002F0231023002350200000000000065
:1001B000000000000000000000000000000000003F
:1001C000000000000000000000000000000000002F
:1001D000000000000000000000000000000000001F
:1001E000000000000000000000000000000000000F
:1001F00000000000000000000000000000000000FF
:1002000000000000000000000000000000000000EE
:1002100000000000000000000000000000000000DE
:1002200000000000000000000000000000000000CE
:1002300000000000000000000000000000000000BE
:1002400000000000000000000000000000000000AE
:10025000000000000000000000000000000000009E
:10026000000000000000000000000000000000008E
:10027000000000000000000000000000000000007E
:10028000000000000000000000000000000000006E
:10029000000000000000000000000000000000005E
:1002A0000000000000000000000000000501090639
:1002B000A101050719E029E7150025017501950839
:1002C0008102050C95017508150026FF001900290B
:1002D000FF8100050819012908950875019102059B
:1002E0000795067508150026E700190029E7810023
:1002F000C0050C0901A101150026FF0319002AFF02
:1003000003950475108100C005010904A1010509C8
:10031000190129201500250175019520810205018B
:10032000A100093009310933093416008026FF7F06
:10033000751095048102093209351580257F7508ED
:1003400095028102C0050109390939150125089571
:100350000275048102C000000000240027002A006A
:100360002D00300000000000250028002B002E008A
:100370003100080B00020202000009040000010223
:1003800002000005240010010524010101042402DB
:100390000605240600010705810310004009040139
:1003A00000020A0000000705020240000007058362
:1003B000024000000403090412010002EF020140A0
:1003C0008F0E079200010102030130783065386614
:1003D00000436C657620536F66742050696E4F6ED3
:1003E0006500522C530D0A00522C450D0A00450D94
:1003F0000A00432C000D0A002C002C002C00412C7C
:10040000000D0A00502C000D0A002C004F2C000D8E
:100410000A002C00422C00562C312E32302E300D8A
:100420000A00000000002300260029002C002F00F5
:100430000404040404030405020202020403020289
:10044000020206060606060604040202020404046A
:1004500008020110408040102040804080080204C3
:10046000018040201002011080102040402007062B
:1004700005040100080A0B0C0D092C002C000000DB
:10048000000200090F0000030401000C000000003E
:10049000000000000000000000000000861E112483
:1004A0001FBECFEFDAE0DEBFCDBF12E0A0E0B1E0CB
:1004B000E4ECF4E602C005900D92AC33B107D9F735
:1004C00028E0ACE3B2E001C01D92A435B207E1F729
:1004D00012E0CFE4D2E004C02197FE010E94213156
:1004E000CE34D107C9F70E9427210C9460320C94B6
:1004F000000008950895FC0180919F02882311F166
:100500003FB7F89482E08093E9002091F200822FB7
:1005100090E01816190614F481E090E0882339F071
:10052000289844E640939E024091F10040832223A4
:1005300039F02091F200211103C02BE62093E8004E
:100540003FBF08958FEF9FEF0895E3E7F4E0E49154
:1005500090917B008E2F880F880F80729F7D892B52
:1005600080937B00E770E064E0937C0080917A00E8
:10057000806480937A0080917A0086FDFCCF809120
:100580007800909179000895809190078823A9F0D0
:1005900080918B0780938E071092900780918E0731
:1005A0008B5F80938F0790918C07891728F0909329
:1005B0008F0781E080939007089580918E078B5F6D
:1005C00080938E07EBCF4091960250919702209135
:1005D00094023091950242175307B4F49091E800C9
:1005E0009570E1F39091E80092FD19C08093F100BD
:1005F000809196029091970201968F739927892B8B
:1006000019F48EEF8093E800809196029091970202
:100610000196909397028093960281E0089580E07E
:100620000895EF92FF920F931F93CF93DF93F82ECD
:10063000192FE62E042F81E0860F880F0E94E30217
:1006400083E00E94E302CF2DD12FEC0EFD2EF11C92
:10065000CE15DF05B9F007FF13C0FE0184910E949B
:10066000E302182F80E00E94E3028123219681118A
:10067000EFCFDF91CF911F910F91FF90EF900895F1
:100680008881EDCF81E0F5CFDF92EF92FF920F935B
:100690001F93CF93DF93D82E8A01EB017B01E40EE9
:1006A000F51ECE15DF0559F0D7FE12C0FE0184916C
:1006B0000E94E30221968111F4CF0FEF1FEFC801D2
:1006C000DF91CF911F910F91FF90EF90DF900895F0
:1006D0008881EECF2FB7F89487708093E9009091CE
:1006E000E800892F807295FF04C09091F20080E4A9
:1006F000891B2FBF0895615030F02091F100FC015B
:1007000020830196F8CF289884E680939E0208956E
:10071000AF92BF92DF92EF92FF920F931F93CF930E
:10072000DF935C018B01EB019BEFD92E2097C1F089
:100730007E01C134D1051CF080E4E82EF12C8091BB
:10074000E80082FFFCCFC8018C1B9D0B6E2D8A0D2B
:100750009B1D0E947B03D092E800CE19DF09E6CFF3
:10076000C801DF91CF911F910F91FF90EF90DF9023
:10077000BF90AF900895AF92BF92CF92DF92EF9269
:10078000FF920F931F93CF93DF936C017B018B013B
:10079000040F151FEB015E01AE18BF08C017D1078B
:1007A00059F06991D601ED91FC910190F081E02D15
:1007B000C6010995892B79F7C501DF91CF911F916A
:1007C0000F91FF90EF90DF90CF90BF90AF90089582
:1007D00080918C0281110DC082E08093880284E0B8
:1007E0008093890210928B0210928A0281E080939A
:1007F0008C0288E892E008950F931F93CF93DF93C4
:100800001F92CDB7DEB782E0898342E450E062E711
:1008100073E080E80E9444030E94E803DC01129622
:100820000D911C910115110589F0D801ED91FC91F4
:100830000280F381E02DBE016F5F7F4FC8010995F3
:1008400097FD04C0F80100851185ECCF89810F90D8
:10085000DF91CF911F910F910895CF93DF931F9256
:10086000CDB7DEB76983DC01ED91FC910280F381A5
:10087000E02D41E050E0BE016F5F7F4F09950F9082
:10088000DF91CF9108950F931F93CF93DF938C0146
:10089000D0E0C0E0F801EC0FFD1F6491662341F049
:1008A00086E193E00E942D04892B11F02196F2CF6E
:1008B000CE01DF91CF911F910F91089583E0809336
:1008C000E9008091F200882319F08AE38093E80020
:1008D000089583E00E946A0390E00895CF93DF9328
:1008E0001F92CDB7DEB7FC018485958597FD08C0C2
:1008F0002FEF3FEF358724870F90DF91CF91089539
:10090000CE0101960E947B02019719F4898190E043
:10091000F3CF8FEF9FEFF0CF0F931F93CF93DF9322
:100920001F92CDB7DEB78C01FC018485958597FFBA
:100930000BC0CE0101960E947B02019771F4898160
:1009400090E0F80195878487F801848595850F905C
:10095000DF91CF911F910F9108958FEF9FEFF1CF0E
:10096000FC018485958597FD0BC09FB7F89482E0C4
:100970008093E9008091F2009FBF90E00196089576
:100980009FB7F89482E08093E9008091F2009FBFC6
:1009900090E0089581508F3008F047C0E82FF0E0D4
:1009A000EC52FB4F0C942131F104F504E304E9040B
:1009B000ED04150515051505F804FE0402050605E8
:1009C0000C0515051005809180008F7780938000BD
:1009D0000895809180008F7DF9CF80918000877F7E
:1009E000F5CF84B58F7784BD089584B58F7DFBCF17
:1009F000809190008F77809390000895809190006F
:100A00008F7DF9CF80919000877FF5CF8091C000D6
:100A10008F778093C00008958091C0008F7DF9CFBB
:100A20008091C200877F8093C20008951F93CF9367
:100A3000DF93282F30E0F901E258FB4F8491F90150
:100A4000E15BFB4FD491F901E05DFB4FC491CC23F6
:100A5000A9F0162F81110E94CA04EC2FF0E0EE0FCE
:100A6000FF1FEC59FC4FA591B4918FB7F894EC910E
:100A7000111108C0D095DE23DC938FBFDF91CF9199
:100A80001F910895DE2BF8CFCF93DF9390E0FC0108
:100A9000E15BFB4F2491805D9B4FFC018491882397
:100AA000C9F090E0880F991FFC01EA5AFC4FA5910C
:100AB000B491FC01EC59FC4FC591D49161110DC06A
:100AC0009FB7F8948C91209582238C93888128235A
:100AD00028839FBFDF91CF910895623051F49FB773
:100AE000F8943C91822F809583238C93E8812E2B60
:100AF000EFCF8FB7F894EC912E2B2C938FBFEACFCA
:100B00008230910538F0880F991F880F991F05973B
:100B10000197F1F708953FB7F8948091840290917E
:100B20008502A0918602B091870226B5A89B05C0D8
:100B30002F3F19F00196A11DB11D3FBFBA2FA92F5C
:100B4000982F8827BC01CD01620F711D811D911D59
:100B500042E0660F771F881F991F4A95D1F70895C5
:100B60008F929F92AF92BF92CF92DF92EF92FF92BD
:100B70004B015C010E948B056B017C010E948B057F
:100B80006C197D098E099F09683E734081059105A6
:100B9000A8F321E0821A9108A108B10888EEC80ED6
:100BA00083E0D81EE11CF11C81149104A104B1045E
:100BB00029F7FF90EF90DF90CF90BF90AF909F907C
:100BC0008F9008957F928F929F92AF92BF92CF9213
:100BD000DF92EF92FF920F931F93CF93DF93C82E74
:100BE0008B017A0180919F02811110C08FEF9FEFDE
:100BF000DF91CF911F910F91FF90EF90DF90CF90F9
:100C0000BF90AF909F908F907F90089580919C02AD
:100C100080FF05C08091E00082608093E000CE2DCF
:100C2000DF2DD12C8AEFB82E8C2D8770982E8C2D2D
:100C30008072882E8C2D8074782E9AE3A92E2097AE
:100C400019F4DD2009F452C08C2D0E946A03811131
:100C50000AC0BA94BB2051F261E070E080E090E0FD
:100C60000E94B005ECCF8C171D0611F00CF08C2FF4
:100C70009FB7F8949092E9002091E80025FD02C00A
:100C80009FBFDDCF282F30E0C21BD30B882029F077
:100C90008150A0F01092F100FBCFF801C7FC0AC010
:100CA000815050F041914093F100FACF449140932C
:100CB000F10031968150D0F7020F131FDD2021F093
:100CC000A092E800D12CDCCF8091E80085FD07C020
:100CD000A092E800DD24D394209791F2F3CF2097DF
:100CE00079F6772069F2A092E800CACF5D9884E691
:100CF00080939902C7017CCFCF93DF93EC01809161
:100D00001201882331F083E00E94E20518161906CB
:100D100034F081E090E09B838A8380E090E0DF9173
:100D2000CF9108952FB7F89460918002709181025D
:100D300080918202909183022FBF0895CF92DF921B
:100D4000EF92FF920F931F93CF93DF930091B9041B
:100D50001091BA04C8E9D7E08091B7049091B80423
:100D6000B801681B790B072E000C880B990B0E94A9
:100D7000EB2F6B017C016091B5047091B604601B90
:100D8000710B072E000C880B990B0E94EB2F9B0117
:100D9000AC01C701B6010E94412F6A837B838C831B
:100DA0009D830E9492066A8B7B8B8C8B9D8BDF913F
:100DB000CF911F910F91FF90EF90DF90CF9008950A
:100DC0008F929F92AF92BF92CF92DF92EF92FF925B
:100DD000CF93C091D704C11139C00E9492064B0134
:100DE0005C010E9492066B017C01C818D908EA08D0
:100DF000FB0888E8C81683E1D806E104F10414F57D
:100E000086E193E00E94B0041816190684F486E186
:100E100093E00E946E04C82F8C2FCF91FF90EF902B
:100E2000DF90CF90BF90AF909F908F9008950E94D9
:100E300092066B017C0162E370E080E090E00E942A
:100E4000B005D3CF81E08093D704E6CFC0E0E4CFF4
:100E50000F931F93CF93DF93162F082FEC010E945F
:100E6000E00689938C2F801B8117C8F3DF91CF9107
:100E70001F910F910895CF930E94E006C82F0E9402
:100E8000E0062C2F30E0322F2227820F932F911D66
:100E9000CF910895FC0183858F3F19F061E00C9498
:100EA00016050895FC0180819181892B39F0A2817A
:100EB000B3819C9111968C919CBD8DBD83858F3F94
:100EC00019F060E00C9416050895AF92BF92CF928E
:100ED000DF92EF92FF920F931F93CF93DF93EC017A
:100EE00088819981892B89F06EBD0DB407FEFDCFF5
:100EF000BEB48B2DDF91CF911F910F91FF90EF909A
:100F0000DF90CF90BF90AF9008958885998511E0CC
:100F1000892B09F010E8AA24A394862F812309F0D5
:100F2000A12C062F2C813D814E815F8160E271EA08
:100F300087E090E00E949E2EF22EB02EE12CC22E71
:100F4000D12CFF2019F0C6010E9480058A85877F79
:100F500009F042C08D858F3F89F0902F912381E069
:100F600009F480E08A1551F0EF85F8898F8999237B
:100F700069F19081892B8083AA24A394E989FA8955
:100F80008081998D892B8083FF2019F0C6010E94F2
:100F900080058E858F3F39F0EB89FC898081988DA3
:100FA000892309F0E12AE989FA899081898D809560
:100FB000892380838E858F3F09F0BE2C8885998593
:100FC000892BB9F5110F1111BCCF93CF908180956A
:100FD00089238083A12CD2CFE989FA898081998DD8
:100FE000892B8083FF2019F0C6010E9480058D8522
:100FF0008F3F49F0EF85F8898F89902F9123A9F0D1
:101000009081892B8083E989FA899081898D8095E7
:10101000892380838E858F3F69F2EB89FC898081EB
:10102000988D892339F2E12AC5CF90818095892353
:10103000E9CF1695C8CF8F929F92AF92BF92CF9271
:10104000DF92EF92FF920F931F93CF93DF937C0178
:101050004B016A01B22EA32E0E945207E401C80C74
:10106000D91CCC15DD0569F4CB2DDA2D0C0F1D1F15
:10107000C017D10759F06FEFC7010E946507899328
:10108000F7CF6991C7010E946507EBCFC7010E94A6
:101090004A0781E0DF91CF911F910F91FF90EF9070
:1010A000DF90CF90BF90AF909F908F9008958F92D8
:1010B0009F92AF92BF92CF92DF92EF92FF920F93E7
:1010C0001F93CF93DF937C01B62EA72E6A014901AF
:1010D0000E945207E401080D191DC017D10761F4E1
:1010E000CB2DDA2DCC0EDD1ECC15DD0551F069912E
:1010F000C7010E946507F8CF6991C7010E94650783
:10110000ECCFC7010E944A0781E0DF91CF911F9188
:101110000F91FF90EF90DF90CF90BF90AF909F9096
:101120008F900895DC01ED91FC910190F081E02D0C
:10113000099420915C02260F3327331F2132310599
:10114000ECF420911003FC0190E080E0243069F081
:1011500082E00895A0915C022191AC01445C5D4F56
:10116000A40FB52FB11D2C930196861798F380918B
:101170005C02680F60935C0280E0089581E008954E
:101180001092100381E08093EF021092EA0261E076
:1011900082E00E94160561E083E00E941605E9EBFB
:1011A000F0E080818E7F808380818D7F808388E4E2
:1011B0008093B80085E48093BC0008951092A50246
:1011C0001092A4021092A7021092C9020E94C008B5
:1011D00089E792E09093A3028093A2028AE792E0CB
:1011E0009093A1028093A0020895CF93DF9391E0A2
:1011F00090939B028823B9F0C091B800D091BA00B7
:101200008091BC008A7B8093BC0060E082E00E94F9
:10121000160560E083E00E9416050E94C008D09386
:10122000BA00C093B800DF91CF9108958F929F923A
:10123000AF92BF92CF92DF92EF92FF920F931F93E4
:10124000CF93DF93D82FC62F142F613208F09CC0A4
:101250000E948B056B017C018091100381116FC08E
:1012600081E0809310031093EF029FEF9093EE02C2
:101270001092ED029C0F9093EC028093EB02809110
:10128000EB02DD0FD82BD093EB028091EA02813084
:1012900009F07CC01092EA020E948B056B017C0170
:1012A0008091EB028093BB00809112039091130315
:1012B000A0911403B0911503892B8A2B8B2BA1F0DD
:1012C0000E948B05009112031091130320911403C7
:1012D000309115036C197D098E099F0906171707B0
:1012E0002807390708F44CC08091BC0083FDD8CF93
:1012F00085EC8093BC000E948B056B017C01809182
:101300001003813009F444C08091ED028C1710F471
:10131000C091ED02EAECF2E0A0EFB2E080E08C13C5
:1013200059C08C2FDF91CF911F910F91FF90EF90BB
:10133000DF90CF90BF90AF909F908F900895809155
:10134000120390911303A0911403B0911503892BFC
:101350008A2B8B2B09F480CF0E948B05809012037F
:1013600090901303A0901403B09015036C197D099D
:101370008E099F0986169706A806B90608F06CCF55
:10138000809111030E94F508C0E0CBCF85EEB1CF6C
:101390008091120390911303A0911403B09115034F
:1013A000892B8A2B8B2B09F4AACF0E948B050091E5
:1013B00012031091130320911403309115036C193B
:1013C0007D098E099F09061717072807390708F0B6
:1013D00096CFD6CF91919D938F5FA1CF8F929F9201
:1013E000AF92BF92CF92DF92EF92FF920F931F9333
:1013F000CF93DF93D091C902D13208F0D7C0182F14
:10140000C091C8020E948B056B017C018091100382
:1014100081116BC082E0809310031093EF028FEF75
:101420008093EE021092ED02D093EC02A8EAB2E0B3
:10143000EAECF2E080E0D81391C01092EB028091C8
:10144000EB02CC0FC82BC093EB028091EA028130F3
:1014500009F088C01092EA020E948B056B017C01A2
:101460008091EB028093BB00809112039091130353
:10147000A0911403B0911503892B8A2B8B2BA1F01B
:101480000E948B0500911203109113032091140305
:10149000309115036C197D098E099F0906171707EE
:1014A0002807390708F442C08091BC0083FDD8CFDB
:1014B00085EC8093BC000E948B056B017C018091C0
:1014C0001003823009F450C08091EE028F3F09F47E
:1014D0006FC08091EE02803209F46CC08091EE0200
:1014E000803309F469C084E026C080911203909192
:1014F0001303A0911403B0911503892B8A2B8B2B16
:1015000009F484CF0E948B058090120390901303FE
:10151000A0901403B09015036C197D098E099F09E2
:1015200086169706A806B90608F070CF80911103B9
:101530000E94F50885E01092A7021092C90210924D
:10154000A602DF91CF911F910F91FF90EF90DF9056
:10155000CF90BF90AF909F908F9008959D91919361
:101560008F5F69CF85EEA5CF809112039091130311
:10157000A0911403B0911503892B8A2B8B2B09F4AE
:101580009ECF0E948B0500911203109113032091AE
:101590001403309115036C197D098E099F090617F4
:1015A00017072807390708F08ACFC0CF81E0C3CFDB
:1015B00080E0C1CF82E0BFCF83E0BDCF1F93CF9348
:1015C000DF93EA01122FDC0111968D919C91DC01D1
:1015D000ED91FC910280F381E02D0995C817D907A0
:1015E00029F4812F0E94EE0991E0811190E0892F6A
:1015F000DF91CF911F910895AF92BF92CF92DF926A
:10160000EF92FF920F931F93CF93DF9300D0CDB74C
:10161000DEB7DC01211103C018962C9118972530F4
:1016200008F043C01F964D935D936D937C93529742
:1016300090E080E0E22EF12C8E159F05B4F41A960E
:101640002C911A9721110AC0FD01E80FF91F438759
:10165000452F562F672F77270196EECFF701E81B0E
:10166000F90BEA0FFB1F4287F3CF6D018BE0C80E29
:10167000D11C16969C91169717968C911797998363
:101680008A83AD90BC901197A114B10409F441C0B4
:1016900019960C9110E098012E0D3F1DD50114965E
:1016A0008D919C918217930710F480E016C0F5018C
:1016B00081819281208131E03093A6022093C8027B
:1016C0001092A7021092C9020115110599F421E0A8
:1016D000A701B601C5010E94DE0A0F900F90DF91AD
:1016E000CF911F910F91FF90EF90DF90CF90BF901F
:1016F000AF900895DC01ED91FC910280F381E02D23
:10170000A801BE016F5F7F4F09950817190769F699
:10171000DECF1296ED91FC911397309731F214962B
:101720002D913C91159719960C9110E023303105BD
:1017300071F48E7F89839A830F5F1F4F9E012F5F05
:101740003F4FA701B601CF010E945708C6CF211510
:10175000310519F49F779983F1CF2230310511F4C7
:101760009068F9CF2130310549F79F779064F3CF26
:10177000CF93DF93EC018B818823A1F0888191E0E6
:101780009093A6028093C8021092A7021092C902F9
:1017900081E00E94EE0991E0811190E0892FDF91B4
:1017A000CF9108950E94DE0881E08B83CE010E94D4
:1017B000B80B982F8111E2CFF1CF1F93CF93DF9316
:1017C000EC01142F89819A81288131E03093A6029F
:1017D0002093C8021092A7021092C902DC01ED9179
:1017E000FC910190F081E02D099589819A81DC01BD
:1017F000ED91FC910190F081E02D612F099581E040
:10180000DF91CF911F910C94EE09EF92FF920F930D
:101810001F93CF93DF93EC01E42E052FF22E132FAD
:1018200089819A81288131E03093A6022093C802F1
:101830001092A7021092C90224E0629FB001112405
:101840006A5F7F4FDC01ED91FC910190F081E02D0A
:1018500009956E2D702F89819A810E949208602FC0
:1018600070E089819A810E9492086F2D712F898181
:101870009A810E949208612F70E089819A810E946A
:10188000920881E0DF91CF911F910F91FF90EF902F
:101890000C94EE099A01803130F4AB01682F87E394
:1018A00098E00C94050C90EF980F903128F4AB0160
:1018B000692F80E398E0F5CF8052803128F4AB01A6
:1018C000682F89E298E0EDCF0895CF92DF92EF92F2
:1018D000FF920F931F93CF93DF93182FC62FE82EFD
:1018E000F12CC7018B5B9A4F6C01FC01618B662365
:1018F00069F00E949206F701EE0FFF1FEE0FFF1F27
:10190000EB56FA4F60837183828393831F3008F014
:10191000B4C0F601D281153008F0ACC00C2F10E035
:1019200061E08D2F0E9444050115110511F460E05E
:1019300004C00F3F110561F461E08D2FDF91CF915D
:101940001F910F91FF90EF90DF90CF900C941605B0
:10195000ED2FF0E0E258FB4FE491E150EF3008F05A
:1019600084C0F0E0EA54F34F0C942131C50CD20C42
:10197000D70CE10CEB0C350D350D350DF50CFF0CCE
:10198000090D130D200D350D280D84B5806884BD1B
:10199000C7BDDF91CF911F910F91FF90EF90DF9026
:1019A000CF90089584B5806284BDC8BDF2CF809188
:1019B00080008068809380001093890000938800E5
:1019C000E8CF8091800080628093800010938B002C
:1019D00000938A00DECF8091800088608093800031
:1019E00010938D0000938C00D4CF8091900080687C
:1019F000809390001093990000939800CACF809133
:101A0000900080628093900010939B0000939A0056
:101A1000C0CF8091900088608093900010939D00CB
:101A200000939C00B6CF8091C00080688093C00076
:101A30008091C0008F7B8093C000C093CF00A9CF5E
:101A40008091C00080628093C000C093D000A1CF7D
:101A50008091C20088608093C2008091C2008B7F19
:101A60008093C200C093D20094CF003811050CF0CF
:101A700063CF5DCFC7FF5BCF5FCF1F3120F4809175
:101A800043058111C09581EF810F50E040E060E097
:101A900070E1CF3F61F040E050E170E060E0CC23C6
:101AA00031F0F0E1CF9FA001112461E070E0DF91FF
:101AB000CF911F910F91FF90EF90DF90CF900C94FA
:101AC0004A0CCF92DF92EF92FF920F931F93CF9326
:101AD000C82F282F30E0F901E754FC4FDF01A2584E
:101AE000BF4F8C91681708F4862F90814091D804DD
:101AF000442331F0913011F09430F9F480E01DC0AE
:101B00009430D9F48823C9F02B5B3A4FF9019189BD
:101B1000992399F0A9EBB3E030E020E09D91943057
:101B200009F04EC0F901EB5BFA4F9189911148C061
:101B3000C22FE35BFE4F91E090832C2F30E0F90140
:101B4000E754FC4F9081943009F041C081113FC0AF
:101B5000CA30E8F52E56394FF9018081811125C030
:101B600089EBC82E83E0D82E10E000E0F6018191C9
:101B70006F018430A9F4F801EB5BFA4F8189882367
:101B800079F07F0183EBE81A8EEFF80AF701808184
:101B9000882331F060E0802F0E94650CF7011082ED
:101BA0000F5F1F4F0930110509F760E08C2FCF91AF
:101BB0001F910F91FF90EF90DF90CF900C94650CE8
:101BC0002F5F3F4F2930310509F0A8CFB6CF682FDE
:101BD000EDCFCF93DF93C0918B07D0E080918C073E
:101BE0008C171D0671F06CF0FE01E754FC4F8081EC
:101BF0008250823020F460E08C2F0E94610D21968B
:101C0000EDCFDF91CF910895CF93DF930E94C4026F
:101C1000C0918E07D0E080918F078C171D0681F050
:101C20007CF0FE01E754FC4F80816CE3823019F0B8
:101C3000833021F46FEF8C2F0E94610D2196EBCF42
:101C4000DF91CF9108950895E091A5028091A402BB
:101C5000E81730F4F0E0E051FD4F808190E0089506
:101C60008FEF9FEF08959091A5028091A4022FEF2E
:101C70003FEF981748F4E92FF0E0E051FD4F208145
:101C800030E09F5F9093A502C90108958091A4025E
:101C90009091A502891B990B0895CF92DF92EF9244
:101CA000FF920F931F93CF93DF937C01CB018A01A7
:101CB0002091A602222389F0EB016B01C40ED51EF0
:101CC000CC15DD0569F06991D701ED91FC9101908A
:101CD000F081E02DC7010995F3CF642F0E94990888
:101CE000C801DF91CF911F910F91FF90EF90DF908E
:101CF000CF900895CF93DF931F92CDB7DEB769835E
:101D00002091A6022223F9F02091C902203258F036
:101D100021E030E0FC013383228390E080E00F90EB
:101D2000DF91CF9108958091A702E82FF0E0E85568
:101D3000FD4F998190838F5F8093A7028093C902A2
:101D400081E090E0ECCF61E0CE0101960E9499081D
:101D5000F7CFDC01FB0112962C91129784819581BB
:101D60002817190641F491818081813A31F49D7FD1
:101D700081E0913009F080E008958132E1F79B30F5
:101D800029F482815C968C9381E008959A3099F7CA
:101D900083815D968C93F8CFFB0120812138B1F4CB
:101DA0002381223299F4DC0112964C9112972481FE
:101DB00035814217130651F421E05C962C934EE4D2
:101DC00050E068E073E080E80C94440390E080E029
:101DD0000895CF93DF93CDB7DEB769970FB6F89428
:101DE000DEBF0FBECDBFFC01DB019C919F5F9C93CA
:101DF0009E012D5F3F4F81E1D9011D928A95E9F740
:101E000029E0298384E08A8391E09D8383E08E83A7
:101E10002A8721E22B879C879D879F8722E2288B38
:101E20002EE4298B27E02B8B25E02C8B8E8B20E456
:101E300030E0388F2F8B998F82818B8383818068EC
:101E40008D8B49E150E0BE016F5F7F4F80E00E94C3
:101E5000440369960FB6F894DEBF0FBECDBFDF9185
:101E6000CF910895FC01838180640C94E2050A9768
:101E70000C94320FE4E8F3E0248535852817390700
:101E800011F415861486329623E0EC38F207A1F798
:101E900048E050E060E973E08EE893E00C94370F7F
:101EA000E0E9F3E030E020E0419151912F5F3F4FB6
:101EB000452B79F4220F331FF901EC57FC4F938720
:101EC000828748E050E060E973E08EE893E00C948C
:101ED000370F2430310541F7F4CFDC01FB011296B6
:101EE0002C911297848195812817190641F49181CC
:101EF0008081813A31F49D7F81E0913009F080E06A
:101F000008958132E1F79B3029F4828155968C93B4
:101F100081E008959A3099F7838156968C93F8CF93
:101F2000FB0120812138B1F42381223299F4DC01B4
:101F300012964C911297248135814217130651F461
:101F400021E055962C9347E150E061EF72E080E884
:101F50000C94440390E080E00895CF93DF93CDB7D5
:101F6000DEB769970FB6F894DEBF0FBECDBFFC0198
:101F7000DB019C919F5F9C939E012D5F3F4F81E110
:101F8000D9011D928A95E9F729E0298384E08A83A3
:101F900091E09D8383E08E832A8721E22B879C87B3
:101FA0009D879F8722E2288B27E1298B27E02B8BB7
:101FB00025E02C8B8E8B20E430E0388F2F8B998F8F
:101FC00082818B83838180688D8B49E150E0BE01E3
:101FD0006F5F7F4F80E00E94440369960FB6F894CC
:101FE000DEBF0FBECDBFDF91CF910895CF93DF93BA
:101FF000EC01FB012A81848195812817190609F0DB
:102000004BC081819081913A79F4813029F08330FD
:1020100039F48F898093F10081E0DF91CF910895A9
:102020008230D1F5888DF6CF9132B1F58B3019F42D
:1020300082818F8BF1CF8A3019F48381888FECCF26
:10204000893051F5668177818381833079F48C8D75
:102050009D8D6817790701F58A8D9B8D0E948803F5
:102060008C8D9D8D90689D8F8C8FD6CF823051F452
:102070006130710589F461E070E0CE0149960E94FB
:102080008803CACF813041F46830710529F468E0D3
:1020900070E0CE010E96F3CF80E0BFCFCF93DF93F9
:1020A000CDB7DEB729970FB6F894DEBF0FBECDBF10
:1020B000FC014281FB01248135814217130659F549
:1020C0002081213841F523812132D1F489E0EDE1ED
:1020D000F1E0DE01119601900D928A95E1F749E059
:1020E00050E0BE016F5F7F4F80E00E94440329965D
:1020F0000FB6F894DEBF0FBECDBFDF91CF9108952C
:10210000223249F421E0FC01278B45E450E06CEADF
:1021100072E080E8EACF90E080E0E9CFCF93DF93F0
:10212000CDB7DEB769970FB6F894DEBF0FBECDBF4F
:10213000FC01DB019C919F5F9C939E012D5F3F4FB3
:1021400081E1D9011D928A95E9F729E0298384E08C
:102150008A8391E09D8383E08E839F8398872A877B
:1021600021E22B879C879D879F8722E2288B25E48D
:10217000298B27E02B8B25E02C8B8E8B20E430E005
:10218000388F2F8B998F82818B83838180688D8B91
:1021900049E150E0BE016F5F7F4F80E00E94440341
:1021A00069960FB6F894DEBF0FBECDBFDF91CF9119
:1021B0000895CF92DF92FF920F931F93CF93DF93F7
:1021C0008C01F42EE62FF0E0EE0FFF1FE455FF4FD9
:1021D000C590D490D801ED91FC910484F585E02D53
:1021E0006C2DC8010995EC01892B11F4F11070C018
:1021F000D0FE0CC0D801ED91FC910484F585E02D52
:102200004F2D60EEC8010995C82BD92BD1FE0CC00B
:10221000D801ED91FC910484F585E02D4F2D61EE00
:10222000C8010995C82BD92BD2FE0CC0D801ED915D
:10223000FC910484F585E02D4F2D62EEC8010995CF
:10224000C82BD92BD3FE0CC0D801ED91FC9104848E
:10225000F585E02D4F2D63EEC8010995C82BD92BCC
:10226000D4FE0CC0D801ED91FC910484F585E02DDD
:102270004F2D64EEC8010995C82BD92BD5FE0CC093
:10228000D801ED91FC910484F585E02D4F2D65EE8C
:10229000C8010995C82BD92BD6FE0CC0D801ED91E9
:1022A000FC910484F585E02D4F2D66EEC80109955B
:1022B000C82BD92BD7FE0CC0D801ED91FC9104841A
:1022C000F585E02D4F2D67EEC8010995C82BD92B58
:1022D000CE01DF91CF911F910F91FF90DF90CF90B2
:1022E0000895FF920F931F93CF93DF93EC01F62E87
:1022F00041E00E94D9108C01892BA9F0E881F98175
:102300000284F385E02DCE01099540E06F2DCE01CA
:102310000E94D910892B39F0E881F9810284F38574
:10232000E02DCE010995C801DF91CF911F910F914A
:10233000FF900895FC0182818F5BFB01808381E027
:102340000895089590E080E00895FC019C01285FC5
:102350003F4F90E080E04481411101961482319614
:10236000E217F307C1F70895CF93DF93DC0190E202
:10237000960F9830B0F414968C91149721E030E0C9
:1023800001C0220F9A95EAF7442341F0282B1496B6
:102390002C9381E090E0DF91CF9108952095282340
:1023A000F6CFFD0136964423D1F0CD010C96EF0116
:1023B0002991621771F3C817D907D1F790E080E02F
:1023C0002191211105C0A80FB91F16966C93E1CF7A
:1023D000019686309105A1F790E080E0DCCF90E097
:1023E00080E02191621305C0A80FB91F16961C92B8
:1023F000D0CF019686309105A1F7EECF0F931F93B2
:10240000CF93DF93082F162F8091D304803448F4A4
:10241000982F9F71901305C0803208F044C06093DC
:10242000D804C02FD0E0C754DC4FFE01EF5DFE4F53
:1024300060816623A9F0112309F459C06C3F08F4A8
:1024400049C082EE90E06C3F21F06D3FB1F58AEE1D
:1024500090E00E94500FCF5DDE4F8881811131C026
:1024600040917203509173036091740370917503EE
:1024700081E090E0A0E0B0E004C0880F991FAA1F9F
:10248000BB1F0A95D2F7112309F444C0842B952B66
:10249000A62BB72B8093720390937303A0937403BE
:1024A000B093750312C0662309F4BBCF8091D804A2
:1024B00091E089278093D804B4CF89EE90E06E3FF5
:1024C00041F280913E05882359F2DF91CF911F910F
:1024D0000F91089541E085EA93E00E94B411892BA1
:1024E00009F4B9CF85EA93E00E94F72DB4CF6C3F91
:1024F00078F082EE90E06C3F41F08AEE90E06D3F24
:1025000021F06E3FF1F689EE90E00E943A0FA3CFE2
:1025100040E0E1CF80959095A095B09584239523D8
:10252000A623B723B7CFCF92DF92EF92FF920F93FC
:102530001F93CF93182FC62F91E090933805E82E64
:10254000F12CF701E650FB4F80818823C1F0611127
:1025500076C020913205821760F48F5F8083C1E0DE
:102560008C2FCF911F910F91FF90EF90DF90CF9024
:102570000895908380919507815080939507E0910D
:10258000D604E831D8F48CEF810F8830B8F4C1114B
:1025900015C0C7018A5D9A4F6C01DC018C918823BC
:1025A00069F0F0E0EE5EFA4F8081811107C060E0D3
:1025B00084E1810F0E94FE11F6011082E091D604A1
:1025C000E83108F040C08CEF810F8830E0F5F0E092
:1025D000EE5EFA4F80818823B1F184E1810F809310
:1025E0009607E82FF0E0EE5EFA4FC0836C2F0E9452
:1025F000FE11C11109C060E0812F0E94FE1160E050
:10260000809196070E94FE110BEB14E08FEBC82E11
:1026100084E0D82ED8018D918D01CC23C9F0882378
:1026200051F08150990BE816F90629F413968C9114
:102630006FEF811119C0C016D10661F791CF80915B
:1026400095078F5F9ACF109396076C2F812FDACF63
:10265000882389F38150990BE816F90661F7FD018B
:102660008381882341F360E081500E94610DE3CFB4
:102670008F929F92AF92BF920F931F93CF93DF934E
:10268000CDB7DEB7A1970FB6F894DEBF0FBECDBFB2
:1026900019A2423008F44AE08E010F5D1F4F842ECC
:1026A000912CB12CA12CA50194010E949E2EE62F05
:1026B000B901CA01EA3044F5E05DD801EE938D011D
:1026C000232B242B252B79F790E080E0109769F0DD
:1026D000FD0101900020E9F73197AF014A1B5B0B28
:1026E000BD0186E193E00E947C06A1960FB6F894A6
:1026F000DEBF0FBECDBFDF91CF911F910F91BF9075
:10270000AF909F908F900895E95CD7CF009769F0C4
:10271000FC0101900020E9F73197AF01481B590BEC
:10272000BC0186E193E00C947C0690E080E0089583
:10273000CF92DF92EF92FF92CF93DF936C01990FCC
:10274000EE08FF08F7FE19C06DE286E193E00E94F3
:102750002D04EC0166277727CB016C197D098E09C2
:102760009F094AE00E9438138C0F9D1FDF91CF9183
:10277000FF90EF90DF90CF9008954AE0C701B60137
:10278000DF91CF91FF90EF90DF90CF900C943813B2
:102790000E9498138AE794E00C944304682F70E039
:1027A00090E080E04AE00E9438138CE794E00C94BB
:1027B00043040F931F93CF93DF93162F082FEC0141
:1027C00089910E94CE138C2F801B8117C8F3DF9153
:1027D000CF911F910F9108953F924F925F926F9208
:1027E0007F928F929F92AF92BF92CF92DF92EF92A1
:1027F000FF920F931F93CF93DF9300D0CDB7DEB737
:10280000FC014B01042F9681878199838A83C080C4
:10281000D180C114D10409F479C0418550E0D601BA
:1028200014968D919C9184179507B0F4312C832DCB
:102830000F900F90DF91CF911F910F91FF90EF902C
:10284000DF90CF90BF90AF909F908F907F906F90D0
:102850005F904F903F900895F601808191E09093B2
:10286000A6028093C8021092A7021092C90220E02B
:10287000BE016F5F7F4FC6010E94DE0A382E88239B
:10288000A9F210E0B12CA12CA016B10680F6D60159
:1028900014968D919C917801EA18FB088E159F057E
:1028A00008F47C0141E0C8018E199F09A816B906F9
:1028B00008F440E06E2D613208F060E2F60180819C
:1028C0000E9416091092A5028093A4028E151F047F
:1028D00009F0ACCF34016A0C7B1C2301C2018619BC
:1028E00097098E159F0578F4D60111968D919C91CC
:1028F000DC01ED91FC910284F385E02D0995F20154
:1029000081932F01EBCFAE0CBF1CBECFA281B38150
:10291000109709F48BCF2481358110E0418550E078
:102920002330310571F4816089839A834F5F5F4F53
:102930009401BE016F5F7F4FCD010E941B08382EAE
:1029400076CF2115310519F490689983F1CF2230A3
:10295000310511F49F77F9CF2130310549F7906C9B
:10296000F4CF0F931F93CF93DF93CDB7DEB7A1972B
:102970000FB6F894DEBF0FBECDBF06E418E0F80135
:1029800080859185188A198A1A8A1B8A9A83898375
:102990001C821B8281E08A878BE390E098878F837B
:1029A0001B868EE089874EE0BE016C5E7F4FCE01B4
:1029B00001960E94EC138C899D8998278927982776
:1029C000F801918380838E899F899827892798278A
:1029D00093838283888D998D98278927982795835B
:1029E0008483A1960FB6F894DEBF0FBECDBFDF91F2
:1029F000CF911F910F9108954F925F926F927F92A6
:102A00008F929F92AF92BF92CF92DF92EF92FF92FE
:102A1000CF9360E971E080E090E00E94B0051092F1
:102A2000F6061092F5061092F8061092F706CAE024
:102A3000812C912C5401C12CD12C76010E94B1140F
:102A40008091C304883008F441C080914A08909175
:102A50004B08092E000CAA0BBB0BC80ED91EEA1E90
:102A6000FB1E8091480890914908092E000CAA0B82
:102A7000BB0B880E991EAA1EBB1EC150F9F68AE038
:102A8000482E512C612C712CC701B601A301920173
:102A90000E946C2E3093F6062093F506C501B40112
:102AA000A30192010E946C2E3093F8062093F70642
:102AB000CF91FF90EF90DF90CF90BF90AF909F901D
:102AC0008F907F906F905F904F900895809146080F
:102AD00090914708BECFCF93DF93EC01BC01655FB7
:102AE0007F4F48850E94EC13882301F1488550E010
:102AF00030E020E060E070E0CB0124173507CCF433
:102B0000982F872F762F6627EA85E1110AC0FA01F0
:102B1000E21BF30BEC0FFD1FE2856E2B2F5F3F4F87
:102B2000ECCFFE01E20FF31FE385F7CF6FEF7FEFEE
:102B3000CB01DF91CF9108958F929F92AF92BF9278
:102B4000CF92DF92EF92FF920F931F93CF93DF9379
:102B5000EC014A015B01888199810E946B152A81F1
:102B600001E010E002C0000F111F2A95E2F70150AA
:102B70001109012E000C220B330BAB816801790186
:102B80000A2E04C0CC0CDD1CEE1CFF1C0A94D2F7EC
:102B9000C094D094E094F094C622D722E822F9227F
:102BA000E881F981B901A801482159216A217B21D5
:102BB00004C0440F551F661F771FAA95D2F74C29F2
:102BC0005D296E297F292085CF01DF91CF911F914B
:102BD0000F91FF90EF90DF90CF90BF90AF909F90BC
:102BE0008F900C94FC0ACF93DF93CDB7DEB7679735
:102BF0000FB6F894DEBF0FBECDBFE6E4F8E0208547
:102C00003185188A198A1A8A1B8A3A8329831C8279
:102C10001B8291E09A872CE130E038872F831B8656
:102C200099879E012F5F3F4F3D8B2C8B92E09E8BAF
:102C300093E09F8B282F30E037832683482F50E086
:102C400070E060E0CE0144960E949C1567960FB636
:102C5000F894DEBF0FBECDBFDF91CF910895809174
:102C6000C304883008F08850809302078091CD0417
:102C70009091CE0490930407809303078091CF0432
:102C80009091D00490930607809305078091C60425
:102C90000E94F3150C94FC14EF92FF920F931F9374
:102CA000CF93DF93CDB7DEB7C154D1090FB6F894F7
:102CB000DEBF0FBECDBF86E4E82E88E0F82EF70118
:102CC000808591851EAA1FAA18AE19AE98A78FA35A
:102CD0001AA619A611E018AB89E190E09EA78DA76E
:102CE00019AA1FA720E040E050E0BA01CE01879664
:102CF0000E94FC0AF701808591851BA21CA21DA2DF
:102D00001EA29D8B8C8B1F8A1E8A1D8F8AE190E0EC
:102D10009B8F8A8F1E8E1C8FCE0144969FAF8EAFE5
:102D200003E021960FAF219722961FAE229746E02F
:102D300050E060E070E08A960E949C15F701808563
:102D40009185188A198A1A8A1B8A9A8389831C8218
:102D50001B821A878CE190E098878F831B861987E6
:102D6000CE0101969BAF8AAF0CAF1DAE44E050E0A0
:102D700060E070E0C9960E949C15CF5BDF4F0FB6F4
:102D8000F894DEBF0FBECDBFDF91CF911F910F91A1
:102D9000FF90EF900895EF92FF920F931F93CF93C0
:102DA000DF93CDB7DEB7ED970FB6F894DEBF0FBE59
:102DB000CDBF80914E0890914F08009711F00E946E
:102DC000D73164E670E080E090E00E94B00586E0D4
:102DD00090E00E943B318C0188E6F80180838DE110
:102DE00098E092838183138280E290E095838483CC
:102DF00010934F0800934E080E94DE08FF24F394BE
:102E0000F801F382C8010E94B80BE82E882309F468
:102E10009AC080914E0890914F081EAA1FAA18AE22
:102E200019AE98A78FA31AA619A6F8AA2BE630E028
:102E30003EA72DA719AAFFA61BA21CA21DA21EA277
:102E40009D8B8C8B1F8A1E8AFD8E88E690E09B8F5F
:102E50008A8F1E8EFC8ECE0187969BAF8AAFFCAE0A
:102E600087E08DAF41E050E060E070E0CE01CA96AF
:102E70000E949C1501E010E08AAD9BAD0E946B158D
:102E8000AB01BC018CAD980102C0220F331F8A95A3
:102E9000E2F7C9010197092E000CAA0BBB0B2DAD5F
:102EA00004C076956795579547952A95D2F7842360
:102EB0009523A623B7230197A105B10539F461E055
:102EC00070E080E090E00E94B005D6CF64E670E04C
:102ED00080E090E00E94B00520E047E050E060E034
:102EE00070E0CE0144960E94FC0A64E670E080E047
:102EF00090E00E94B0050E944C1680E00E94F315FD
:102F000080914E0890914F08188A198A1A8A1B8A54
:102F10009A8389831C821B8281E08A872BE630E0BA
:102F200038872F831B86898720E041E050E060E0EE
:102F300070E0CE0101960E94FC0A64E670E080E039
:102F400090E00E94B0058E2DED960FB6F894DEBF8E
:102F50000FBECDBFDF91CF911F910F91FF90EF90EA
:102F600008958F929F92AF92BF92CF92DF92EF928D
:102F7000FF921F93CF93DF93EC016A017B0120E066
:102F800030E040E85FE3CB01B6010E943C2F87FDB3
:102F9000A3C020E030EC4AE555E4C701B6010E9429
:102FA0009B3018163CF4C12C30ECD32E3AE5E32EBE
:102FB00035E4F32E6B817C818D819E810E94E92F07
:102FC0004B015C0120E030E040E855E4C701B60168
:102FD0000E94A0309B01AC01C501B4010E94412FA9
:102FE00020E030E040E05FE30E94D02E20E030E0BF
:102FF00040E85FE30E94CF2E6B017C0120E030E0CF
:1030000040E450E40E943C2F87FD6DC020E030E09A
:103010004FE753E4C701B6010E949B30181634F401
:10302000C12CD12C9FE7E92E93E4F92E89819A8156
:10303000288131E03093A6022093C8021092A702A3
:103040001092C902DC01ED91FC910190F081E02D1C
:1030500060E0099581E00E94EE0941E061E088812D
:103060000E9416091092A5028093A40289819A8178
:10307000DC01ED91FC910284F385E02D0995182F78
:10308000482F4F76406160E0CE010E94DD0BC70102
:10309000B6010E94BA2F462F6EEFCE010E94DD0BC3
:1030A000412F60E0CE010E94DD0B65E070E080E022
:1030B00090E00E94B005412F406A60E0CE01DF91B0
:1030C000CF911F91FF90EF90DF90CF90BF90AF9086
:1030D0009F908F900C94DD0BC12CD12C20E8E22E18
:1030E0002FE3F22E67CFC12CD12C80E4E82EFE2CEA
:1030F0009DCFCF93DF93EC010E94DE0840E860E0B3
:10310000CE010E94DD0B6AE070E080E090E00E945A
:10311000B00540E050E06AE774E4CE010E94B117C8
:1031200080E498E7ADE7B1E08B839C83AD83BE83F9
:10313000DF91CF910895CF93DF93EB010E94562E3C
:103140008883CE01DF91CF9108950F931F93CF9382
:103150008C010E94562EC82FC80101960E94562E3F
:103160002C2F30E0322F2227820F932F911DCF91E9
:103170001F910F910895CF93DF93EB010E94562E7C
:103180008883CE01DF91CF91089585ED8093BC00B7
:103190008091120390911303A0911403B091150331
:1031A0000796A11DB11D23E0B695A7959795879524
:1031B0002A95D1F72091BC0024FD03C01092100382
:1031C000089540911203509113036091140370917C
:1031D0001503452B462B472B69F30097A105B10535
:1031E00041F02AE22A95F1F700C00197A109B1093F
:1031F000E1CF809111030C94F5080C945E2E1F937F
:10320000CF93DF93EC01162F672F0E94FD18612FDB
:10321000CE010196DF91CF911F910C94FD18EF9292
:10322000FF920F931F93CF93DF9389EBE82E83E0F8
:10323000F82E07E314E0D0E0C0E0F70161917F01D0
:10324000CE010E94FD18F70166ADCE018C599F4F4B
:103250000E94FD18F80161918F01CE0188539F4FA4
:103260000E94FD18F80166ADCE01845D9E4F0E945C
:10327000FD182196CF33D10501F76091B504709107
:10328000B60481E991E00E94FF186091B704709143
:10329000B80483E991E00E94FF186091B90470912D
:1032A000BA0485E991E00E94FF180BEB14E0C7E92E
:1032B000D1E0F80161918F01CE010E94FD182196A5
:1032C000CB39F1E0DF07A9F70FEB14E0C1EAD1E059
:1032D000F80161918F01CE010E94FD182196C53A37
:1032E000F1E0DF07A9F76091C3048AEA91E00E9448
:1032F000FD186091C5048BEA91E00E94FD18609171
:10330000C60482EC91E00E94FD186091C7047091A0
:10331000C80484EC91E00E94FF186091D10486EC0F
:1033200091E00E94FD186091C9047091CA0487EC75
:1033300091E00E94FF186091CD047091CE0489EC59
:1033400091E00E94FF186091D2048BEC91E00E9402
:10335000FD186091D3048CEC91E00E94FD186091FF
:10336000D4048DEC91E00E94FD186091D5048EECA0
:1033700091E00E94FD186091D6048FEC91E00E94CC
:10338000FD1860913B0580ED91E00E94FD18609171
:103390003C0581ED91E00E94FD1860913D0582EDB4
:1033A00091E00E94FD1860913E0583ED91E00E943E
:1033B000FD186091CB047091CC0484ED91E00E94E3
:1033C000FF186091CF047091D00486ED91E00E94C7
:1033D000FF180AED14E0C4EFD1E0F80161918F010C
:1033E000CE010E94FD182196C431F2E0DF07A9F753
:1033F0000AEF14E0F80161918F01CE010E94FD18DF
:103400002196CC32F2E0DF07A9F76091320584E320
:1034100092E00E94FD1860913F0585E392E00E94D2
:10342000FD186091400586E392E00E94FD186091CE
:10343000410587E392E00E94FD186091420588E310
:1034400092E00E94FD186091430589E392E00E949A
:10345000FD18609139058AE392E00E94FD1865E647
:1034600088EE93E0DF91CF911F910F91FF90EF9045
:103470000C94FD181F920F920FB60F9211248F9388
:103480009F938091E1009091E100937F9093E10000
:1034900083FF0FC01092E90091E09093EB0010922F
:1034A000EC0092E39093ED0010929F0298E09093CD
:1034B000F00082FF22C093E09093E9009091F20027
:1034C000992319F09AE39093E80090919902992337
:1034D00041F090919902915090939902911101C0FD
:1034E0005D9A90919E02992341F090919E02915095
:1034F00090939E02911101C0289A84FF18C0809178
:10350000E2008E7E81608093E2008091E1008F7EF8
:103510008093E10080919C028E7E806180939C026A
:103520009F918F910F900FBE0F901F90189580FF65
:10353000F7CF8091E2008E7E80618093E2008091DF
:10354000E1008E7E8093E10080919C028E7E8160FE
:10355000E5CF1F920F920FB60F921124CF92DF92F8
:10356000EF92FF920F931F932F933F934F935F938D
:103570006F937F938F939F93AF93BF93EF93FF933B
:10358000CF93DF93CDB7DEB76C97DEBFCDBF109280
:10359000E9008091E80083FF25C068E0CE014596F0
:1035A0000E947B0382EF8093E8008D8987FF39C0FA
:1035B0009091E80090FFFCCF982F907609F034C1ED
:1035C0009E894F89588D2F89F88C911131C0803890
:1035D00061F580919A028093F1001092F1008EEFD4
:1035E0008093E8006C960FB6F894DEBF0FBECDBF97
:1035F000DF91CF91FF91EF91BF91AF919F918F910B
:103600007F916F915F914F913F912F911F910F91FA
:10361000FF90EF90DF90CF900F900FBE0F901F9014
:1036200018959EEF9093E800C7CF1092F100D5CF88
:10363000913059F48111D3CF4130510581F68091F9
:103640009A028D7F80939A02CACF933049F48111F8
:10365000C6CF4130510519F680919A028260F2CFAF
:10366000953041F48091E80080FFFCCF20682093E2
:10367000E300B5CF963009F0A9C00B8D1C8D22E078
:103680001092E9001092970210929602F2122EC048
:1036900010929502109294020E94FC031F8299E0FE
:1036A0009983FA8291E09E8390EA98879AEF9987AE
:1036B0002091960230919702275F3F4F3C832B83E6
:1036C0008D831092E9001092970210929602109347
:1036D00095020093940249E050E0BE016F5F7F4F76
:1036E00080E00E9444030E94FC0379CF109395026E
:1036F000009394020E94E803DC0112960D911C9144
:103700000115110509F44BC1D801ED91FC9104801C
:10371000F581E02DBE016B5E7F4FC80109950097D2
:1037200009F038C1F80100851185EACFF3E0FF12F6
:103730000EC08F89882309F440C0823061F440E8CC
:1037400060E181ED93E00E941103811148CF81E295
:103750008093EB0047CF813029F440E866E08AECA3
:1037600093E0F1CF833099F70E94E803DC011296D1
:10377000ED90FC908E010F5F1F4F6801E114F10482
:1037800079F0D701ED91FC910680F781E02DB80129
:10379000C7010995080F111DF701E084F184EECFF0
:1037A000D8011C92F60101900020E9F73197BF0182
:1037B0006C197D0940E0C601C6CF64EB73E0FB01E4
:1037C000449150E080E80E94440309CF973009F407
:1037D000BECF983021F481E08093F10000CF993082
:1037E00009F0FDCE837009F0B2CFE1E0F1E081E0B5
:1037F00031E096E32191222371F08093E900309328
:10380000EB00DF0111972C912093EC009093ED00D9
:103810008F5F873079F78EE78093EA001092EA0095
:103820008F8980939F02DBCE8B8D9C8D1092E90057
:1038300010929702109296029093950280939402B0
:10384000898D81118CC08E899D89913A49F481328C
:1038500009F07DCF47E050E06BE071E080E0B3CF4E
:10386000913209F074CF833269F48F89988DB0E07A
:10387000A0E08093070190930801A0930901B09301
:103880000A01ADCE803239F467E070E08BE091E060
:103890000E948803A4CE823209F0A1CE8F89809342
:1038A0001201EEEFFFE7859194918B3F9C4D51F112
:1038B000E0E0F8E080910B0190910C01A0910D01E6
:1038C000B0910E01803B9440A105B105F1F48091C7
:1038D000120180FD1AC0EE3F8AE0F80789F587E7FC
:1038E00097E791838083809160008093980288E1BC
:1038F0009BE00FB6F894A895809360000FBE90935C
:1039000060006DCEEEEFFAE0D5CF808191818737F0
:10391000974709F064CEA8958091600088618093F4
:1039200060008091980280936000EE3F2AE0F207E9
:1039300089F08091FE0A9091FF0A918380834FCE97
:10394000808191818737980751F29093FF0A809385
:10395000FE0AC5CF1092FF0A1092FE0A40CE0E94C6
:10396000E803DC0112960D911C910115110509F473
:10397000EECED801ED91FC910190F081E02DBE01D9
:103980006B5E7F4FC8010995811129CEF801008532
:103990001185EBCF181619060CF421CED8CEF1E024
:1039A000FF12C4CE68EB73E00ACF1F920F920FB6DE
:1039B0000F9211242F933F938F939F93AF93BF93B5
:1039C0008091800290918102A0918202B091830245
:1039D00030917F0223E0230F2D3758F50196A11D6A
:1039E000B11D20937F028093800290938102A09367
:1039F0008202B09383028091840290918502A0910B
:103A00008602B09187020196A11DB11D80938402A8
:103A100090938502A0938602B0938702BF91AF91E5
:103A20009F918F913F912F910F900FBE0F901F90FC
:103A3000189526E8230F0296A11DB11DD2CF1F9223
:103A40000F920FB60F9211242F933F934F935F93D2
:103A50006F937F938F939F93AF93BF93EF93FF9356
:103A60008091B900887F803609F44AC0F0F5883229
:103A700009F4A7C018F5803109F49BC0B8F4882375
:103A800009F4F9C0883009F494C0FF91EF91BF9117
:103A9000AF919F918F917F916F915F914F913F91E6
:103AA0002F910F900FBE0F901F901895883109F439
:103AB00088C0803251F78093EE0214C0803409F43C
:103AC0009DC040F48033B9F38833F9F68093EE0259
:103AD00085ECB0C0803509F485C0883509F496C0FE
:103AE000883499F60E94C518D0CF883909F48CC063
:103AF00038F5883729F050F4883611F0803729F6E8
:103B000083E08093100310927E0257C0883809F436
:103B10007BC0803919F0803809F0B7CF80917E02E0
:103B2000803208F071C0E0917E0281E08E0F8093B8
:103B30007E028091BB00F0E0E25AFD4F80833DC0E1
:103B4000803B39F0E0F4803A09F479C0883A09F012
:103B50009CCF84E08093100310925D0210925C026F
:103B6000E091A202F091A302099580915C0281117B
:103B70000FC081E080935C0210923C0209C0803C3F
:103B800009F4A6CF883C09F4A3CF883B09F07DCF88
:103B9000E0915D0281E08E0F80935D02F0E0E45CD5
:103BA000FD4F80818093BB0090915D0280915C020B
:103BB00029C08091EB028093BB0085EC8093BC0010
:103BC00064CF9091ED028091EC02981758F5E09146
:103BD000ED0281E08E0F8093ED02F0E0E653FD4FA1
:103BE0008081E9CFE091ED0281E08E0F8093ED02BC
:103BF0008091BB00F0E0E653FD4F80839091ED0291
:103C00008091EC029817C8F285E8D8CFE091ED02D8
:103C100081E08E0F8093ED028091BB00F0E0E653CF
:103C2000FD4F80838091EF0281115CCF81E0809312
:103C3000EA0284EA8093BC001092100326CF85EC40
:103C40008093BC001092100380917E02803230F489
:103C5000E0917E02F0E0E25AFD4F108260917E0218
:103C600070E0E091A002F091A1028EE592E009954A
:103C700010927E020ACF1092EE0234CFCF93DF93E0
:103C8000FC01DB01818114963C911497682F630F2E
:103C90007727771F683071059CF5C281D381209703
:103CA00039F5B383A283908112969C931297139651
:103CB0008C93139715968C911597890F808390E0BC
:103CC00080E0831708F52181C22FD0E0BE0160504B
:103CD0007F4F16964D915C911797480F591FEA0137
:103CE0004881EB0148832F5F21830196EACFEA01E7
:103CF0004885598541155105D1F7B987A887D3CF94
:103D000080E0DF91CF91089581E0FBCFCF93DF93E7
:103D1000109219031092180388EE93E0A0E0B0E02F
:103D200080931A0390931B03A0931C03B0931D036D
:103D300027EB31E030931703209316032FEF3FEF6B
:103D400030932303209322031092200810921F081F
:103D50008093210890932208A0932308B09324080D
:103D600089EC91E090931E0880931D08C1E0C093F8
:103D70006A03C0936B0381E893E090936D03809393
:103D80006C0310926F0310926E038BED91E0909391
:103D900067038093660389EE91E0909371038093AB
:103DA0007003C0938203C0938303D1ECD09381034B
:103DB0000E94E80366E673E00E943E1EC0938803FB
:103DC000C093890388E993E090938B0380938A03DF
:103DD00010928D0310928C038FEE91E090938503E7
:103DE000809384038DEF91E090938F0380938E03F3
:103DF000C0939903C0939A03D09398030E94E80359
:103E000064E873E00E943E1EC0939F03C093A0032A
:103E100081EB93E09093A2038093A1031092A403FB
:103E20001092A3031092A8031092A70383E092E0DC
:103E300090939C0380939B0381E192E09093A6036F
:103E40008093A503C093B203C093B3031092B4034D
:103E50001092B6031092B5031092B8031092B703F4
:103E6000D093B1030E94E8036BE973E00E943E1E09
:103E700010929807109299071092A2071092A30728
:103E80001092A4071092A5071092A6071092A707F8
:103E90001092A8071092A9071092AE071092AF07D0
:103EA0001092B0071092B107E2EBF7E086E4DF0171
:103EB0001D928A95E9F7E8EFF7E083E2DF011D92B2
:103EC0008A95E9F710921B0810921C0862E087E1BE
:103ED0000E9444050E9492066093AA077093AB0764
:103EE0008093AC079093AD071092950710929607B8
:103EF0001092970761E084E00E94440561E081E050
:103F00000E94440560E080E00E94440561E081E099
:103F10000E944405109208078FE3EDE0F7E0DF010F
:103F2000382F1D923A95E9F7ECE4F7E0DF01382FDE
:103F30001D923A95E9F710928B0710928C0795E045
:103F400090938D0710928E0710928F07C093900761
:103F500040E157E260E070E0409391075093920790
:103F600060939307709394071092F4061092F606EC
:103F70001092F5061092F8061092F7061092FE06BF
:103F80001092FD06109200071092FF061092010792
:103F9000109202071092040710920307109206076E
:103FA000109205071092070710929C062FE132E04D
:103FB00030939E0620939D0610929F0698EC909356
:103FC000A0069AEF9093A1069BEF9093A2062CEF88
:103FD0002093A3069DEF9093A4069FEF9093A506D0
:103FE0001092A6061092B2061092B1061092B40674
:103FF0001092B306E5EBF6E0DF01382F1D923A95FB
:10400000E9F7109245059FE090934605E6E2F1E05E
:10401000A7E4B5E001900D929A95E1F7E6E5F5E0A9
:10402000DF011D928A95E9F7E5E9F5E0DF011D92D0
:104030002A95E9F710929106E2E9F6E08AE0DF01BD
:104040001D928A95E9F7C5E4D5E0CE0185549540E7
:104050002196209146052817190631F02CF061E0D1
:1040600089810E944405F1CF8FE3E5E3F1E0A9EBFC
:10407000B3E001900D928A95E1F78FE3E8EFF3E06A
:10408000DF01382F1D923A95E9F79AE190931604D3
:10409000E4E7F1E0A7E3B4E0982F01900D929A9540
:1040A000E1F7E6E7F4E0DF011D928A95E9F788EC95
:1040B000809394048AE493E09093B6048093B504CB
:1040C0008DE390E09093B8048093B7048BEC90E07C
:1040D0009093BA048093B9041092BB041092BC046C
:1040E0001092BD041092BE041092BF041092C0043E
:1040F0001092C1041092C2041092C3041092C4041E
:1041000081E08093C5041092C6042EE130E0309324
:10411000C8042093C7042AEF30E03093CA042093E8
:10412000C9043093CC042093CB0428E131E03093D0
:10413000CE042093CD043093D0042093CF0410926A
:10414000D1049AE09093D2042EE02093D30427E187
:104150002093D40426E12093D50422E02093D604B2
:104160001092D7041092D8048093D90420E2EAED8B
:10417000F4E0DF01322F1D923A95E9F7EAEFF4E01F
:1041800038E1DF011D923A95E9F7E2E1F5E0DF0160
:104190001D922A95E9F7109232051092330540EAF4
:1041A00050E060E070E04093340550933505609333
:1041B00036057093370510923805809339051092B3
:1041C0003A0580933B0580933C0580933D058093A1
:1041D0003E0580933F059093400580934105909361
:1041E0004205809343051092440580E4809337088C
:1041F0008DE198E0909339088093380821E420936A
:104200003008909332088093310822E420932908E3
:1042100090932B0880932A0810923E0810923F0832
:1042200010924008109241081092420810924308E0
:10423000109244081092450810924D0810924C08B4
:1042400010924F0810924E08DF91CF910895CF93AE
:10425000DF9300D0CDB7DEB7789484B5826084BD9B
:1042600084B5816084BD85B5826085BD85B581607A
:1042700085BD80916E00816080936E0010928100F8
:1042800080918100826080938100809181008160B3
:104290008093810080918000816080938000809174
:1042A0009100826080939100809191008160809361
:1042B0009100809190008160809390008091C10076
:1042C00084608093C1008091C10082608093C100AE
:1042D0008091C10081608093C1008091C3008160A2
:1042E0008093C3008091C00082608093C000809161
:1042F000C20081608093C20080917A0084608093C4
:104300007A0080917A00826080937A0080917A00AE
:10431000816080937A0080917A00806880937A002F
:1043200010929F0210929A0210929C028091D700E4
:1043300081608093D70080EA8093D80089B580613E
:1043400089BD89B5826089BD89B5282F21702A83EE
:1043500080FFFACF61E070E080E090E00E94B0055D
:104360008091D8008F7C80618093D8008091E0009C
:10437000807F8093E0008091E1008E7E8093E10059
:104380008DE08093E200559A209A8FEF9FEF9093F3
:1043900023038093220368EE73E080E090E00E94A4
:1043A000B00568EE73E080E090E00E94B005E2E7BF
:1043B000F3E08FE0DF011D928A95E9F74FE050E0CE
:1043C000BF0186E693E00E94E52DBE016F5F7F4F3F
:1043D00088EE93E00E949B188981853609F0D0C24F
:1043E00010E000E0B80167547C4FC8010E949B18A0
:1043F000B80168507C4FC8018C599F4F0E949B1890
:10440000B801695C7B4FC80188539F4F0E949B187D
:10441000B8016A587B4FC801845D9E4F0E949B186B
:104420000F5F1F4F0F331105E9F681E991E00E94FC
:10443000A5189093B6048093B50483E991E00E9497
:10444000A5189093B8048093B70485E991E00E9481
:10445000A5189093BA048093B9046BEB74E087E9D4
:1044600091E00E949B186FEB74E081EA91E00E945A
:104470009B186CEB74E088E991E00E949B1860EC5B
:1044800074E082EA91E00E949B186DEB74E089E988
:1044900091E00E949B1861EC74E083EA91E00E9435
:1044A0009B186EEB74E08AE991E00E949B1862EC25
:1044B00074E084EA91E00E949B1863EC74E08AEA5D
:1044C00091E00E949B1865EC74E08BEA91E00E94F9
:1044D0009B188091C5048093C40466EC74E082EC60
:1044E00091E00E949B1884EC91E00E94A5189093A3
:1044F000C8048093C70461ED74E086EC91E00E94EB
:104500009B1887EC91E00E94A5189093CA048093B1
:10451000C90489EC91E00E94A5189093CE04809381
:10452000CD0462ED74E08BEC91E00E949B1863ED8A
:1045300074E08CEC91E00E949B1864ED74E08DECCB
:1045400091E00E949B1865ED74E08EEC91E00E9472
:104550009B1866ED74E08FEC91E00E949B186BE372
:1045600075E080ED91E00E94BB186CE375E081ED91
:1045700091E00E949B186DE375E082ED91E00E944E
:10458000BB186EE375E083ED91E00E94BB1884EDEB
:1045900091E00E94A5189093CC048093CB0486ED03
:1045A00091E00E94A5189093D0048093CF0404EF6B
:1045B00011E0B8016A517D4FC8010E949B180F5F3E
:1045C0001F4F0431B2E01B07A1F7B8016A517D4FBC
:1045D000C8010E949B180F5F1F4F0C32E2E01E07BC
:1045E000A1F762E375E084E392E00E949B186FE319
:1045F00075E085E392E00E94BB1860E475E086E315
:1046000092E00E949B1861E475E087E392E00E94CB
:10461000BB1862E475E088E392E00E949B1863E4B3
:1046200075E089E392E00E94BB1887E398E00E945E
:10463000791860ECC62E6CEFD62E6BE9E62EFF24BF
:10464000F394C0923A08D0923B08E0923C08F09272
:104650003D0840E050E064EB72E487E398E00E949C
:10466000B11780E398E00E947918C0923308D09285
:104670003408E0923508F092360840E050E064EBF0
:1046800072E480E398E00E94B11789E298E00E940A
:104690007918C0922C08D0922D08E0922E08F09242
:1046A0002F0840E050E064EB72E489E298E00E9459
:1046B000B1178CE08093B80010929B0288EB9BE0CE
:1046C000A0E0B0E08093120390931303A09314032F
:1046D000B093150381E08093110310E060E0812F17
:1046E0000E94610D1F5F1E33C9F785EA93E00E94A7
:1046F000A51185EA93E00E94F72DE0E9F3E088E058
:10470000DF011D928A95E9F748E050E0BF018EE88D
:1047100093E00E94370F0E949E060E9492066093CB
:10472000AE077093AF078093B0079093B107909155
:104730008B0780918C0749EB53E067EF73E0FA0138
:10474000342F309521912250223038F48E2F232F90
:104750002E0F911101C0922F841B6E177F0791F7C6
:1047600090938B0780938C072091420530E0A8EE50
:10477000B3E00E94C02E60939107709392078093DC
:104780009307909394078091C5048823E1F00E94D9
:10479000CB16811106C068EE73E080E090E00E94C5
:1047A000B00510E00E94CB168111EFC064E670E006
:1047B00080E090E00E94B0051B3009F0E4C0109248
:1047C000C5041092C40447E0942E57E0852E8091D2
:1047D0009C0280FFE2C0809139058111DEC00E94F9
:1047E000E90D80913A05811184C080914208909131
:1047F0004308A0914408B091450880933E089093E7
:104800003F08A0934008B093410861E081E00E9416
:10481000160560E084E00E94160561E084E00E94D5
:10482000160560E081E00E94160507E110E0212CEA
:10483000312C21013EE7E32E34E0F32E4FE4C42E69
:1048400044E0D42E50E3A52E54E0B52EF701849118
:10485000F6016490F5017490772011F40C947C2D8E
:1048600081110E94CA04E72DF0E0EE0FFF1FEE5DFC
:10487000FB4FA591B4918C91682231E020E009F4BE
:1048800030E0832F922F092E000CAA0BBB0B002EB9
:1048900004C0880F991FAA1FBB1F0A94D2F7282AA9
:1048A000392A4A2A5B2A61E081E00E94160560E00D
:1048B00081E00E9416050150110908F0C7CF20922F
:1048C0004208309243084092440850924508809133
:1048D0003E0890913F08A0914008B0914108821590
:1048E0009305A405B50529F081E080933A058093EE
:1048F000380580913805811106C08091950788237D
:1049000011F40C94A52D80913A05811106C0809177
:104910009507882311F40C94992D82E1E82E85E007
:10492000F82E10E000E092E0D92E802F409042084F
:10493000509043086090440870904508002E04C0D1
:1049400076946794579447940A94D2F7B301A201DE
:104950004095509560957095642F6170D7019D9139
:104960007D01691711F40C94862D40FC02C00C9453
:10497000802DB2E0DB120C94812DD12C0C94812D72
:104980000E940F1952CE1F5F0DCF1B3009F41BCFB1
:104990000E944C160E942F1616CF80919D02811105
:1049A00071C280913F0581110CC010927E038091ED
:1049B0009D028F5F843010F00C94782D80939D02BF
:1049C00010CF35E0A32EB12C412C512C320110E038
:1049D00000E00E94A5024091A6075091A7076091B0
:1049E000A8077091A9076C01990FEE08FF08DB0179
:1049F000CA010996A11DB11D8C159D05AE05BF0507
:104A00007CF04950510961097109C416D506E606C2
:104A1000F70634F00F5F1F4F4C0C5D1C6E1C7F1CA3
:104A2000B1E0AB1AB108A9F60115110551F09801D2
:104A3000110F440B550BC301B2010E946C2E69018A
:104A40007A0180913305811104C080913D05811167
:104A500021C010E000E02091D20430E002171307DB
:104A60006CF40E94A502092E000CAA0BBB0BC80E09
:104A7000D91EEA1EFB1E0F5F1F4FEDCF2F5F3F4F6A
:104A8000032E000C440B550BC701B6010E946C2E7F
:104A900069017A01C092A607D092A707E092A80701
:104AA000F092A9070E9492062B013C018091B90463
:104AB0009091BA04AC014E5C5F4F052E000C660B62
:104AC000770BC416D506E606F70654F4C297092EEE
:104AD000000CAA0BBB0B8C159D05AE05BF0544F061
:104AE000EFEDCE16E3E0DE06E104F1040CF407C1BD
:104AF0008091AA079091AB07A091AC07B091AD0748
:104B0000B301A201481B590B6A0B7B0B8091340542
:104B100090913505A0913605B09137054817590792
:104B20006A077B0710F0109233058091D1048D7FC6
:104B30008130A1F48091A0078111EDC08091B5046E
:104B40009091B6044497092E000CAA0BBB0B61E0B0
:104B5000C816D906EA06FB060CF0F0C08091D10415
:104B60008230A0F08091A1078111F5C08091B70437
:104B70009091B8040A96092E000CAA0BBB0B61E0B9
:104B80008C159D05AE05BF050CF0F8C00091B90469
:104B90001091BA04C801012E000CAA0BBB0B8C1596
:104BA0009D05AE05BF050CF4FDC0A090B704B09004
:104BB000B804C5010B2C000CAA0BBB0BA701960176
:104BC000281B390B4A0B5B0BCA01B9010E94EB2F62
:104BD0006B017C01B8016A197B09072E000C880B58
:104BE000990B0E94EB2F9B01AC01C701B6010E94FB
:104BF000412F9B01AC0160E070E080E89FE30E94E0
:104C0000CF2E20E030E040E053EC0E94A0300E9424
:104C1000B32F062E000C770B653671050CF0BBC068
:104C200070939F0760939E07E0919E0720913C053B
:104C3000222379F09091980780913305811197C7CD
:104C4000992309F4E0C01092980781E08093380519
:104C5000E0E08E2F0E2E000C990BAA0BBB0B2091BF
:104C60009E0730919F074091A2075091A307609142
:104C7000A4077091A507481759076A077B07D9F061
:104C800040913305442309F4E9C01216130634F4A5
:104C900040919807411102C0E0931C0841E0409305
:104CA0003805E0937E038093A2079093A307A09317
:104CB000A407B093A50780911B08482F082E000C6D
:104CC000550BFA01EE0FFF1FEE54F84F318320838E
:104CD0004850584F9091AE07A42DA91BFA01A0830C
:104CE00082320CF0CCC08F5F80931B084092AE07DD
:104CF0005092AF076092B0077092B10758CE4092C1
:104D0000AA075092AB076092AC077092AD0781E0A2
:104D1000809333050ACF813009F020CF8091B5040C
:104D20009091B6044497092E000CAA0BBB0BC81631
:104D3000D906EA06FB060CF011CF60E08091D4049E
:104D40000E9493128093A007E091D404F0E0EE5EFD
:104D5000FA4F808303CF813009F018CF8091B704D8
:104D60009091B8040A96092E000CAA0BBB0B8C1567
:104D70009D05AE05BF050CF009CF60E08091D4041D
:104D80000E9493128093A107E091D404F0E0EE5EBC
:104D9000FA4F8083FBCE81E89FEF90939F0780932B
:104DA0009E0742CFA7019601281B390B4A0B5B0BCC
:104DB000CA01B9010E94EB2F6B017C016091B5041F
:104DC0007091B604601B710B072E000C880B990BB9
:104DD0000E94EB2F9B01AC01C701B6010E94412F3D
:104DE00020E030E040E053E40E94A0300E94B32F66
:104DF000062E000C770B6C393FEF73070CF010CFC9
:104E00008FE790E0CACF80911B08082F082E000C76
:104E1000110B8823C9F0C8010197F0E0E0E030E011
:104E2000E217F307A0F40817190789F0DC01A8506E
:104E3000B84F4C91E40FF11D47FDFA95829663E25D
:104E400070E00E940D31ECCF82E290E0E6CF880F57
:104E5000991FFC01EE54F84FE081FBCE10921C0824
:104E60001092980740913D05442319F010927E035B
:104E70001ACFE0937E0341E04093380514CF10929F
:104E80001B0834CF813009F089C18091C404882384
:104E900009F496C680913305882321F080913B0563
:104EA00081118EC68091D904863009F060C080914E
:104EB0000107811105C00E94FC1481E08093010765
:104EC0000E94B1148091C3042091F5063091F6063A
:104ED000883008F44FC080914A0890914B08821B9B
:104EE000930B9093FA068093F9068091480890916D
:104EF00049082091F7063091F806821B930B909396
:104F0000FC068093FB064091C7045091C804209191
:104F1000F9063091FA0637FF03C031952195310922
:104F20002417350724F41092FA061092F90697FF19
:104F300003C09195819591098417950724F41092E7
:104F4000FC061092FB068091F9069091FA062091DA
:104F500002072130A1F42091FB063091FC06319527
:104F6000219531093093FA062093F90623C0109257
:104F70000107A6CF8091460890914708B0CF223014
:104F800061F49195819591099093FA068093F906C1
:104F90008091FB069091FC060AC0233081F4209199
:104FA000FB063091FC063093FA062093F9069195A2
:104FB000819591099093FC068093FB060AC02430EA
:104FC00009F083C09195819591099093FA06809399
:104FD000F9068091D504883140F490910707992310
:104FE00009F488C09150909307070091F906109139
:104FF000FA068091FD069091FE068017910761F1F7
:10500000B801012E000C880B990B0E94EB2F6B014D
:105010007C016091030770910407072E000C880B38
:10502000990B0E94EB2F9B01AC01C701B6010E94B6
:10503000412F20E03EEF4FEF56E40E94A0300E9447
:10504000B32F70937703609376031093FE0600935B
:10505000FD0681E0809338050091FB061091FC0667
:105060008091FF06909100078017910709F49FCC6B
:10507000B801012E000C880B990B0E94EB2F6B01DD
:105080007C016091050770910607072E000C880BC4
:10509000990B0E94EB2F9B01AC01C701B6010E9446
:1050A000412F20E03EEF4FEF56E40E94A0300E94D7
:1050B000B32F7093790360937803109300070093E4
:1050C000FF0681E08093380572CC253041F42091B1
:1050D000FB063091FC0631952195310964CF2630CD
:1050E00009F456CF273009F074CF2091FB06309198
:1050F000FC0638CF082F10E02091F9063091FA060F
:1051000037FF03C03195219531094091C904509171
:10511000CA0407541C4FF801E75AFE4F90819111C1
:105120001CC0421753078CF02091FB063091FC06FF
:1051300037FF03C03195219531094091CB0450913F
:10514000CC04421753070CF050CF61E00E94931239
:10515000F801E75AFE4F808348CF241735070CF03B
:1051600044CF2091FB063091FC0637FF03C03195F8
:10517000219531094091CB045091CC042417350777
:105180000CF033CF60E00E949312F801E75AFE4F13
:105190008083809140058093070727CF823009F0F4
:1051A0001BC10E9492062B013C018091D9048330DF
:1051B00009F466C0B8F4813009F456C0823009F0B1
:1051C000F6CB0E94040E80919007882309F4EFCB60
:1051D0004092090750920A0760920B0770920C07E1
:1051E00083E04BC0853009F4CBC008F4A9C08630F9
:1051F00009F0DDCB0E94C40200918E0710E09801F7
:10520000285F384F7901DD24D39480918F07801770
:10521000110609F00CF48BC0F801E754FC4F8081B3
:1052200082508230D8F4F701EC5BFF4FD70115961E
:105230008C9190918D072081213009F0C7C02FEF0C
:1052400030E0291B3109821713060CF4BBC0108211
:10525000D70115966C91802F0E94610D0F5F1F4F33
:10526000BFEFEB1AFB0AD1CF4092090750920A0711
:1052700060920B0770920C0785E08093D90497CB5E
:105280008091090790910A07A0910B07B0910C0734
:10529000B301A201481B590B6A0B7B0B809191074C
:1052A00090919207A0919307B0919407880F991F4E
:1052B000AA1FBB1F84179507A607B7070CF080C469
:1052C00080914105882309F47BC40E94C4020091A7
:1052D0008E0710E080918F078017110601F1FCF016
:1052E000F801E754FC4F808182508230A8F40E947C
:1052F000462E60E071E00E940D31F82E682F802F5D
:105300000E94610DF801E85FF84FDF01AC5BBF4F11
:105310008F2D81708C93F5820F5F1F4FDBCF8091B3
:105320009007882309F443CB86E08093D904409208
:10533000090750920A0760920B0770920C0737CB4F
:105340000E94C40200918E0710E080918F078017A1
:10535000110671F06CF0F801E754FC4F8081823047
:1053600021F46FEF802F0E94610D0F5F1F4FEDCF73
:1053700080919007882309F41ACB8092D904D7CF63
:105380008091090790910A07A0910B07B0910C0733
:10539000481A590A6A0A7B0A8091910790919207EC
:1053A000A0919307B091940784159505A605B705BC
:1053B0000CF006C40E94040E80919007882309F423
:1053C000F6CA0ECF890FF701858342CF981710F0E8
:1053D000D0823ECF891BF7CF833009F0E8CA0E9404
:1053E00092066B017C0105E010E0A4E6BA2E8091E4
:1053F00091068E3308F063C08F5F80939106809191
:105400009106282F30E0F901E754FC4F67ADD90130
:10541000AB5BBA4F51969C91691730F5E354FF4F3F
:105420009081992309F1220F331F220F331FF901B5
:10543000EB56FA4F4080518062807380A70196013D
:10544000241935094609570929013A019B9D900104
:105450001124032E000C440B550B42165306640610
:10546000750614F00E94610D0150110909F0BFCFBB
:10547000E9E0CE2ED12CAA24A39486E193E00E94E9
:10548000B004892B81F186E193E00E946E042091A3
:10549000B1063091B206F901E456F94F8387211520
:1054A000310581F49091A70680919F06981313C04F
:1054B0002F5F3F4F3093B2062093B10610C0109279
:1054C00091069DCF2130310571F59091A80680910C
:1054D000A006981768F71092B2061092B10621E064
:1054E000C21AD10851F68091B3069091B4061816ED
:1054F00019060CF05CCA8530910509F44EC10CF018
:10550000BFC08230910509F407C10CF06FC001974C
:1055100009F04DCA8091A606843108F0DCC08F5F87
:105520008093A60644CA2830310509F0C1CF809186
:10553000A8069091A10689130AC01092D9048091FF
:10554000A90690E09093B4068093B306C4CF9091DF
:10555000A206891307C080919D0690919E060E9425
:105560008613B9CF9091A306891307C06091AA064C
:105570008091A9060E94610DAECF8091D90485303B
:1055800011F00E94E90DA092D9048091A806909193
:10559000A006B82EB91AB99CB02C1124891B990BFE
:1055A000989E8001999E100D11240456194F6CE9A4
:1055B000E62E66E0F62E77E0772E7B0CD7011D965F
:1055C0006C91F801818D861741F08B2D0E94610D41
:1055D000D7011D968C91F801818F0F5F1F4FFFEF50
:1055E000EF1AFF0AB394B710E9CF75CF8330910556
:1055F00009F4BCC0049709F0DAC98091A606843189
:1056000008F48DCF1092A6068EEF93E00E9443041B
:105610008091C3042091F5063091F606883008F495
:10562000B7C080914A0890914B08821B930B0E944F
:1056300098138CEF93E00E94430480914808909166
:1056400049082091F7063091F806821B930B0E94BF
:1056500098138AEF93E00E9443048091F906909199
:10566000FA060E94981388EF93E00E944304809109
:10567000FB069091FC060E94981385EF93E049C0C9
:105680008B30910509F41EC274F48630910509F43B
:1056900035C1089709F08BC980919D0690919E06AF
:1056A0000E94861304C28C30910509F40EC28F3F0C
:1056B000910509F07CC91092B4061092B30681E0FE
:1056C0008093D90410E060E0812F0E94610D1F5F7C
:1056D0001E33C9F76CC91092A60684E194E00E94BB
:1056E000430402E115E0D8018D918D0190E00E9404
:1056F000981382E194E00E944304E1E3F5E0E017AF
:10570000F10789F78091310590E00E9498138FE0AE
:1057100094E00E9443044BC98091A606843108F4AA
:10572000FECE1092A6068CE094E00E94430406E5AB
:1057300015E0D8016D918D0170E090E080E04AE0C5
:105740000E9438138AE094E00E944304E4E9F5E003
:10575000E017F10771F76091940570E090E080E048
:105760004AE00E94381387E094E0D3CF8091A606E8
:10577000843108F4D4CE1092A60684E094E00E940E
:1057800043040E94A5020E94981381E094E0C1CFD7
:10579000809146089091470848CF82EF93E00E949D
:1057A00043046FE389EB93E00E94D9136FE388EF22
:1057B00093E00E94D9136FE387E394E00E94D9132A
:1057C0006FE386E794E00E94D9138091B50490912D
:1057D000B6040E94C8138091B7049091B8040E9447
:1057E000C8138091B9049091BA040E94C81364E070
:1057F0008BEB94E00E94D91364E08FEB94E00E945D
:10580000D9138091C3040E94CE138091C5040E94D5
:10581000CE138091C6040E94CE138091C70490914C
:10582000C8040E94C8138091D1040E94CE138091B5
:10583000C9049091CA040E94C8138091CD0490912C
:10584000CE040E94C8138091D2040E94CE1380918E
:10585000D3040E94CE138091D4040E94CE13809171
:10586000D5040E94CE138091D6040E94CE1360E22C
:105870008AED94E00E94D91380913B050E94CE13DB
:1058800080913C050E94CE1380913D050E94CE136D
:1058900080913E050E94CE138091CB049091CC0460
:1058A0000E94C8138091CF049091D0040E94C81325
:1058B00068E18AEF94E00E94D913809132050E943A
:1058C000CE1380913F050E94CE13809140050E9427
:1058D000CE13809141050E94CE13809142050E9413
:1058E000CE13809143050E94CE13809139050E940A
:1058F000CE138EEE93E00E944304D9C01092D704D9
:105900006FE389EB93E00E9428076FE388EF93E051
:105910000E9428076FE387E394E00E9428076FE363
:1059200086E794E00E9428070E943B079093B60404
:105930008093B5040E943B079093B8048093B7040A
:105940000E943B079093BA048093B90464E08BEB08
:1059500094E00E94280764E08FEB94E00E942807FF
:105960000E94E0068093C3040E94E0068093C50471
:105970000E94E0068093C6040E943B079093C804EF
:105980008093C7040E94E0068093D1040E943B07E5
:105990009093CA048093C9040E943B079093CE045D
:1059A0008093CD040E94E0068093D2040E94E0061A
:1059B0008093D3040E94E0068093D4040E94E00602
:1059C0008093D5040E94E0068093D60460E28AEDBD
:1059D00094E00E9428070E94E00691E0811101C036
:1059E00090E090933B050E94E00680933C050E9466
:1059F000E00691E0811101C090E090933D050E9486
:105A0000E00691E0811101C090E090933E050E9474
:105A10003B079093CC048093CB040E943B07909368
:105A2000D0048093CF0468E18AEF94E00E942807B5
:105A30000E94E006809332050E94E00691E0811109
:105A400001C090E090933F050E94E00680934005DE
:105A50000E94E00691E0811101C090E09093410521
:105A60000E94E006809342050E94E00691E08111C9
:105A700001C090E0909343050E94E00691E08111FF
:105A800001C090E0909339050E94E0068A3219F037
:105A900081E08093D7048091D704882371F088EE49
:105AA00093E00E9443040E949E060E942F161092CB
:105AB000B4061092B3060C94D7240E940F1982EEFC
:105AC00093E0EFCF87E194E016CF61E08BE00E9496
:105AD000440560E08BE00E94160588E198E00FB66F
